{
	"Uniswap/contracts/UniswapV2Router02.sol": {
		"UniswapV2Router02": {
			"abi": [
				{
					"inputs": [
						{
							"internalType": "address",
							"name": "_factory",
							"type": "address"
						}
					],
					"stateMutability": "nonpayable",
					"type": "constructor"
				},
				{
					"inputs": [
						{
							"internalType": "address",
							"name": "tokenA",
							"type": "address"
						},
						{
							"internalType": "address",
							"name": "tokenB",
							"type": "address"
						},
						{
							"internalType": "uint256",
							"name": "amountADesired",
							"type": "uint256"
						},
						{
							"internalType": "uint256",
							"name": "amountBDesired",
							"type": "uint256"
						},
						{
							"internalType": "uint256",
							"name": "amountAMin",
							"type": "uint256"
						},
						{
							"internalType": "uint256",
							"name": "amountBMin",
							"type": "uint256"
						},
						{
							"internalType": "address",
							"name": "to",
							"type": "address"
						},
						{
							"internalType": "uint256",
							"name": "deadline",
							"type": "uint256"
						}
					],
					"name": "addLiquidity",
					"outputs": [
						{
							"internalType": "uint256",
							"name": "amountA",
							"type": "uint256"
						},
						{
							"internalType": "uint256",
							"name": "amountB",
							"type": "uint256"
						},
						{
							"internalType": "uint256",
							"name": "liquidity",
							"type": "uint256"
						}
					],
					"stateMutability": "nonpayable",
					"type": "function"
				},
				{
					"inputs": [],
					"name": "factory",
					"outputs": [
						{
							"internalType": "address",
							"name": "",
							"type": "address"
						}
					],
					"stateMutability": "view",
					"type": "function"
				},
				{
					"inputs": [
						{
							"internalType": "uint256",
							"name": "amountOut",
							"type": "uint256"
						},
						{
							"internalType": "uint256",
							"name": "reserveIn",
							"type": "uint256"
						},
						{
							"internalType": "uint256",
							"name": "reserveOut",
							"type": "uint256"
						}
					],
					"name": "getAmountIn",
					"outputs": [
						{
							"internalType": "uint256",
							"name": "amountIn",
							"type": "uint256"
						}
					],
					"stateMutability": "pure",
					"type": "function"
				},
				{
					"inputs": [
						{
							"internalType": "uint256",
							"name": "amountIn",
							"type": "uint256"
						},
						{
							"internalType": "uint256",
							"name": "reserveIn",
							"type": "uint256"
						},
						{
							"internalType": "uint256",
							"name": "reserveOut",
							"type": "uint256"
						}
					],
					"name": "getAmountOut",
					"outputs": [
						{
							"internalType": "uint256",
							"name": "amountOut",
							"type": "uint256"
						}
					],
					"stateMutability": "pure",
					"type": "function"
				},
				{
					"inputs": [
						{
							"internalType": "uint256",
							"name": "amountOut",
							"type": "uint256"
						},
						{
							"internalType": "address[]",
							"name": "path",
							"type": "address[]"
						}
					],
					"name": "getAmountsIn",
					"outputs": [
						{
							"internalType": "uint256[]",
							"name": "amounts",
							"type": "uint256[]"
						}
					],
					"stateMutability": "view",
					"type": "function"
				},
				{
					"inputs": [
						{
							"internalType": "uint256",
							"name": "amountIn",
							"type": "uint256"
						},
						{
							"internalType": "address[]",
							"name": "path",
							"type": "address[]"
						}
					],
					"name": "getAmountsOut",
					"outputs": [
						{
							"internalType": "uint256[]",
							"name": "amounts",
							"type": "uint256[]"
						}
					],
					"stateMutability": "view",
					"type": "function"
				},
				{
					"inputs": [
						{
							"internalType": "uint256",
							"name": "amountA",
							"type": "uint256"
						},
						{
							"internalType": "uint256",
							"name": "reserveA",
							"type": "uint256"
						},
						{
							"internalType": "uint256",
							"name": "reserveB",
							"type": "uint256"
						}
					],
					"name": "quote",
					"outputs": [
						{
							"internalType": "uint256",
							"name": "amountB",
							"type": "uint256"
						}
					],
					"stateMutability": "pure",
					"type": "function"
				},
				{
					"inputs": [
						{
							"internalType": "address",
							"name": "tokenA",
							"type": "address"
						},
						{
							"internalType": "address",
							"name": "tokenB",
							"type": "address"
						},
						{
							"internalType": "uint256",
							"name": "liquidity",
							"type": "uint256"
						},
						{
							"internalType": "uint256",
							"name": "amountAMin",
							"type": "uint256"
						},
						{
							"internalType": "uint256",
							"name": "amountBMin",
							"type": "uint256"
						},
						{
							"internalType": "address",
							"name": "to",
							"type": "address"
						},
						{
							"internalType": "uint256",
							"name": "deadline",
							"type": "uint256"
						}
					],
					"name": "removeLiquidity",
					"outputs": [
						{
							"internalType": "uint256",
							"name": "amountA",
							"type": "uint256"
						},
						{
							"internalType": "uint256",
							"name": "amountB",
							"type": "uint256"
						}
					],
					"stateMutability": "nonpayable",
					"type": "function"
				},
				{
					"inputs": [
						{
							"internalType": "uint256",
							"name": "amountIn",
							"type": "uint256"
						},
						{
							"internalType": "uint256",
							"name": "amountOutMin",
							"type": "uint256"
						},
						{
							"internalType": "address[]",
							"name": "path",
							"type": "address[]"
						},
						{
							"internalType": "address",
							"name": "to",
							"type": "address"
						},
						{
							"internalType": "uint256",
							"name": "deadline",
							"type": "uint256"
						}
					],
					"name": "swapExactTokensForTokens",
					"outputs": [
						{
							"internalType": "uint256[]",
							"name": "amounts",
							"type": "uint256[]"
						}
					],
					"stateMutability": "nonpayable",
					"type": "function"
				},
				{
					"inputs": [
						{
							"internalType": "uint256",
							"name": "amountOut",
							"type": "uint256"
						},
						{
							"internalType": "uint256",
							"name": "amountInMax",
							"type": "uint256"
						},
						{
							"internalType": "address[]",
							"name": "path",
							"type": "address[]"
						},
						{
							"internalType": "address",
							"name": "to",
							"type": "address"
						},
						{
							"internalType": "uint256",
							"name": "deadline",
							"type": "uint256"
						}
					],
					"name": "swapTokensForExactTokens",
					"outputs": [
						{
							"internalType": "uint256[]",
							"name": "amounts",
							"type": "uint256[]"
						}
					],
					"stateMutability": "nonpayable",
					"type": "function"
				}
			],
			"devdoc": {
				"kind": "dev",
				"methods": {},
				"version": 1
			},
			"evm": {
				"assembly": "    /* \"Uniswap/contracts/UniswapV2Router02.sol\":473:9492  contract UniswapV2Router02 is IUniswapV2Router02 {... */\n  mstore(0x40, 0xa0)\n    /* \"Uniswap/contracts/UniswapV2Router02.sol\":1189:1254  constructor(address _factory) {... */\n  callvalue\n  dup1\n  iszero\n  tag_1\n  jumpi\n  0x00\n  dup1\n  revert\ntag_1:\n  pop\n  mload(0x40)\n  sub(codesize, bytecodeSize)\n  dup1\n  bytecodeSize\n  dup4\n  codecopy\n  dup2\n  dup2\n  add\n  0x40\n  mstore\n  dup2\n  add\n  swap1\n  tag_2\n  swap2\n  swap1\n  tag_3\n  jump\t// in\ntag_2:\n    /* \"Uniswap/contracts/UniswapV2Router02.sol\":1239:1247  _factory */\n  dup1\n    /* \"Uniswap/contracts/UniswapV2Router02.sol\":1229:1247  factory = _factory */\n  0xffffffffffffffffffffffffffffffffffffffff\n  and\n  0x80\n  dup2\n  0xffffffffffffffffffffffffffffffffffffffff\n  and\n  dup2\n  mstore\n  pop\n  pop\n    /* \"Uniswap/contracts/UniswapV2Router02.sol\":1189:1254  constructor(address _factory) {... */\n  pop\n    /* \"Uniswap/contracts/UniswapV2Router02.sol\":473:9492  contract UniswapV2Router02 is IUniswapV2Router02 {... */\n  jump(tag_6)\n    /* \"#utility.yul\":88:205   */\ntag_8:\n    /* \"#utility.yul\":197:198   */\n  0x00\n    /* \"#utility.yul\":194:195   */\n  dup1\n    /* \"#utility.yul\":187:199   */\n  revert\n    /* \"#utility.yul\":334:460   */\ntag_10:\n    /* \"#utility.yul\":371:378   */\n  0x00\n    /* \"#utility.yul\":411:453   */\n  0xffffffffffffffffffffffffffffffffffffffff\n    /* \"#utility.yul\":404:409   */\n  dup3\n    /* \"#utility.yul\":400:454   */\n  and\n    /* \"#utility.yul\":389:454   */\n  swap1\n  pop\n    /* \"#utility.yul\":334:460   */\n  swap2\n  swap1\n  pop\n  jump\t// out\n    /* \"#utility.yul\":466:562   */\ntag_11:\n    /* \"#utility.yul\":503:510   */\n  0x00\n    /* \"#utility.yul\":532:556   */\n  tag_20\n    /* \"#utility.yul\":550:555   */\n  dup3\n    /* \"#utility.yul\":532:556   */\n  tag_10\n  jump\t// in\ntag_20:\n    /* \"#utility.yul\":521:556   */\n  swap1\n  pop\n    /* \"#utility.yul\":466:562   */\n  swap2\n  swap1\n  pop\n  jump\t// out\n    /* \"#utility.yul\":568:690   */\ntag_12:\n    /* \"#utility.yul\":641:665   */\n  tag_22\n    /* \"#utility.yul\":659:664   */\n  dup2\n    /* \"#utility.yul\":641:665   */\n  tag_11\n  jump\t// in\ntag_22:\n    /* \"#utility.yul\":634:639   */\n  dup2\n    /* \"#utility.yul\":631:666   */\n  eq\n    /* \"#utility.yul\":621:684   */\n  tag_23\n  jumpi\n    /* \"#utility.yul\":680:681   */\n  0x00\n    /* \"#utility.yul\":677:678   */\n  dup1\n    /* \"#utility.yul\":670:682   */\n  revert\n    /* \"#utility.yul\":621:684   */\ntag_23:\n    /* \"#utility.yul\":568:690   */\n  pop\n  jump\t// out\n    /* \"#utility.yul\":696:839   */\ntag_13:\n    /* \"#utility.yul\":753:758   */\n  0x00\n    /* \"#utility.yul\":784:790   */\n  dup2\n    /* \"#utility.yul\":778:791   */\n  mload\n    /* \"#utility.yul\":769:791   */\n  swap1\n  pop\n    /* \"#utility.yul\":800:833   */\n  tag_25\n    /* \"#utility.yul\":827:832   */\n  dup2\n    /* \"#utility.yul\":800:833   */\n  tag_12\n  jump\t// in\ntag_25:\n    /* \"#utility.yul\":696:839   */\n  swap3\n  swap2\n  pop\n  pop\n  jump\t// out\n    /* \"#utility.yul\":845:1196   */\ntag_3:\n    /* \"#utility.yul\":915:921   */\n  0x00\n    /* \"#utility.yul\":964:966   */\n  0x20\n    /* \"#utility.yul\":952:961   */\n  dup3\n    /* \"#utility.yul\":943:950   */\n  dup5\n    /* \"#utility.yul\":939:962   */\n  sub\n    /* \"#utility.yul\":935:967   */\n  slt\n    /* \"#utility.yul\":932:1051   */\n  iszero\n  tag_27\n  jumpi\n    /* \"#utility.yul\":970:1049   */\n  tag_28\n  tag_8\n  jump\t// in\ntag_28:\n    /* \"#utility.yul\":932:1051   */\ntag_27:\n    /* \"#utility.yul\":1090:1091   */\n  0x00\n    /* \"#utility.yul\":1115:1179   */\n  tag_29\n    /* \"#utility.yul\":1171:1178   */\n  dup5\n    /* \"#utility.yul\":1162:1168   */\n  dup3\n    /* \"#utility.yul\":1151:1160   */\n  dup6\n    /* \"#utility.yul\":1147:1169   */\n  add\n    /* \"#utility.yul\":1115:1179   */\n  tag_13\n  jump\t// in\ntag_29:\n    /* \"#utility.yul\":1105:1179   */\n  swap2\n  pop\n    /* \"#utility.yul\":1061:1189   */\n  pop\n    /* \"#utility.yul\":845:1196   */\n  swap3\n  swap2\n  pop\n  pop\n  jump\t// out\n    /* \"Uniswap/contracts/UniswapV2Router02.sol\":473:9492  contract UniswapV2Router02 is IUniswapV2Router02 {... */\ntag_6:\n  mload(0x80)\n  codecopy(0x00, dataOffset(sub_0), dataSize(sub_0))\n  0x00\n  assignImmutable(\"0x81e684302dba258ad18c3b31de9ac01448b470fcf6136d2ace7eb5c581a909a4\")\n  return(0x00, dataSize(sub_0))\nstop\n\nsub_0: assembly {\n        /* \"Uniswap/contracts/UniswapV2Router02.sol\":473:9492  contract UniswapV2Router02 is IUniswapV2Router02 {... */\n      mstore(0x40, 0x80)\n      callvalue\n      dup1\n      iszero\n      tag_1\n      jumpi\n      0x00\n      dup1\n      revert\n    tag_1:\n      pop\n      jumpi(tag_2, lt(calldatasize, 0x04))\n      shr(0xe0, calldataload(0x00))\n      dup1\n      0xad615dec\n      gt\n      tag_13\n      jumpi\n      dup1\n      0xad615dec\n      eq\n      tag_8\n      jumpi\n      dup1\n      0xbaa2abde\n      eq\n      tag_9\n      jumpi\n      dup1\n      0xc45a0155\n      eq\n      tag_10\n      jumpi\n      dup1\n      0xd06ca61f\n      eq\n      tag_11\n      jumpi\n      dup1\n      0xe8e33700\n      eq\n      tag_12\n      jumpi\n      jump(tag_2)\n    tag_13:\n      dup1\n      0x054d50d4\n      eq\n      tag_3\n      jumpi\n      dup1\n      0x1f00ca74\n      eq\n      tag_4\n      jumpi\n      dup1\n      0x38ed1739\n      eq\n      tag_5\n      jumpi\n      dup1\n      0x85f8c259\n      eq\n      tag_6\n      jumpi\n      dup1\n      0x8803dbee\n      eq\n      tag_7\n      jumpi\n    tag_2:\n      0x00\n      dup1\n      revert\n        /* \"Uniswap/contracts/UniswapV2Router02.sol\":8475:8729  function getAmountOut(uint amountIn, uint reserveIn, uint reserveOut)... */\n    tag_3:\n      tag_14\n      0x04\n      dup1\n      calldatasize\n      sub\n      dup2\n      add\n      swap1\n      tag_15\n      swap2\n      swap1\n      tag_16\n      jump\t// in\n    tag_15:\n      tag_17\n      jump\t// in\n    tag_14:\n      mload(0x40)\n      tag_18\n      swap2\n      swap1\n      tag_19\n      jump\t// in\n    tag_18:\n      mload(0x40)\n      dup1\n      swap2\n      sub\n      swap1\n      return\n        /* \"Uniswap/contracts/UniswapV2Router02.sol\":9245:9490  function getAmountsIn(uint amountOut, address[] memory path)... */\n    tag_4:\n      tag_20\n      0x04\n      dup1\n      calldatasize\n      sub\n      dup2\n      add\n      swap1\n      tag_21\n      swap2\n      swap1\n      tag_22\n      jump\t// in\n    tag_21:\n      tag_23\n      jump\t// in\n    tag_20:\n      mload(0x40)\n      tag_24\n      swap2\n      swap1\n      tag_25\n      jump\t// in\n    tag_24:\n      mload(0x40)\n      dup1\n      swap2\n      sub\n      swap1\n      return\n        /* \"Uniswap/contracts/UniswapV2Router02.sol\":6581:7339  function swapExactTokensForTokens(... */\n    tag_5:\n      tag_26\n      0x04\n      dup1\n      calldatasize\n      sub\n      dup2\n      add\n      swap1\n      tag_27\n      swap2\n      swap1\n      tag_28\n      jump\t// in\n    tag_27:\n      tag_29\n      jump\t// in\n    tag_26:\n      mload(0x40)\n      tag_30\n      swap2\n      swap1\n      tag_25\n      jump\t// in\n    tag_30:\n      mload(0x40)\n      dup1\n      swap2\n      sub\n      swap1\n      return\n        /* \"Uniswap/contracts/UniswapV2Router02.sol\":8735:8988  function getAmountIn(uint amountOut, uint reserveIn, uint reserveOut)... */\n    tag_6:\n      tag_31\n      0x04\n      dup1\n      calldatasize\n      sub\n      dup2\n      add\n      swap1\n      tag_32\n      swap2\n      swap1\n      tag_16\n      jump\t// in\n    tag_32:\n      tag_33\n      jump\t// in\n    tag_31:\n      mload(0x40)\n      tag_34\n      swap2\n      swap1\n      tag_19\n      jump\t// in\n    tag_34:\n      mload(0x40)\n      dup1\n      swap2\n      sub\n      swap1\n      return\n        /* \"Uniswap/contracts/UniswapV2Router02.sol\":7427:8163  function swapTokensForExactTokens(... */\n    tag_7:\n      tag_35\n      0x04\n      dup1\n      calldatasize\n      sub\n      dup2\n      add\n      swap1\n      tag_36\n      swap2\n      swap1\n      tag_28\n      jump\t// in\n    tag_36:\n      tag_37\n      jump\t// in\n    tag_35:\n      mload(0x40)\n      tag_38\n      swap2\n      swap1\n      tag_25\n      jump\t// in\n    tag_38:\n      mload(0x40)\n      dup1\n      swap2\n      sub\n      swap1\n      return\n        /* \"Uniswap/contracts/UniswapV2Router02.sol\":8283:8469  function quote(uint amountA, uint reserveA, uint reserveB) public pure virtual override returns (uint amountB) {... */\n    tag_8:\n      tag_39\n      0x04\n      dup1\n      calldatasize\n      sub\n      dup2\n      add\n      swap1\n      tag_40\n      swap2\n      swap1\n      tag_16\n      jump\t// in\n    tag_40:\n      tag_41\n      jump\t// in\n    tag_39:\n      mload(0x40)\n      tag_42\n      swap2\n      swap1\n      tag_19\n      jump\t// in\n    tag_42:\n      mload(0x40)\n      dup1\n      swap2\n      sub\n      swap1\n      return\n        /* \"Uniswap/contracts/UniswapV2Router02.sol\":4542:5443  function removeLiquidity(... */\n    tag_9:\n      tag_43\n      0x04\n      dup1\n      calldatasize\n      sub\n      dup2\n      add\n      swap1\n      tag_44\n      swap2\n      swap1\n      tag_45\n      jump\t// in\n    tag_44:\n      tag_46\n      jump\t// in\n    tag_43:\n      mload(0x40)\n      tag_47\n      swap3\n      swap2\n      swap1\n      tag_48\n      jump\t// in\n    tag_47:\n      mload(0x40)\n      dup1\n      swap2\n      sub\n      swap1\n      return\n        /* \"Uniswap/contracts/UniswapV2Router02.sol\":558:599  address public immutable override factory */\n    tag_10:\n      tag_49\n      tag_50\n      jump\t// in\n    tag_49:\n      mload(0x40)\n      tag_51\n      swap2\n      swap1\n      tag_52\n      jump\t// in\n    tag_51:\n      mload(0x40)\n      dup1\n      swap2\n      sub\n      swap1\n      return\n        /* \"Uniswap/contracts/UniswapV2Router02.sol\":8994:9239  function getAmountsOut(uint amountIn, address[] memory path)... */\n    tag_11:\n      tag_53\n      0x04\n      dup1\n      calldatasize\n      sub\n      dup2\n      add\n      swap1\n      tag_54\n      swap2\n      swap1\n      tag_22\n      jump\t// in\n    tag_54:\n      tag_55\n      jump\t// in\n    tag_53:\n      mload(0x40)\n      tag_56\n      swap2\n      swap1\n      tag_25\n      jump\t// in\n    tag_56:\n      mload(0x40)\n      dup1\n      swap2\n      sub\n      swap1\n      return\n        /* \"Uniswap/contracts/UniswapV2Router02.sol\":3681:4501  function addLiquidity(... */\n    tag_12:\n      tag_57\n      0x04\n      dup1\n      calldatasize\n      sub\n      dup2\n      add\n      swap1\n      tag_58\n      swap2\n      swap1\n      tag_59\n      jump\t// in\n    tag_58:\n      tag_60\n      jump\t// in\n    tag_57:\n      mload(0x40)\n      tag_61\n      swap4\n      swap3\n      swap2\n      swap1\n      tag_62\n      jump\t// in\n    tag_61:\n      mload(0x40)\n      dup1\n      swap2\n      sub\n      swap1\n      return\n        /* \"Uniswap/contracts/UniswapV2Router02.sol\":8475:8729  function getAmountOut(uint amountIn, uint reserveIn, uint reserveOut)... */\n    tag_17:\n        /* \"Uniswap/contracts/UniswapV2Router02.sol\":8623:8637  uint amountOut */\n      0x00\n        /* \"Uniswap/contracts/UniswapV2Router02.sol\":8660:8722  UniswapV2Library.getAmountOut(amountIn, reserveIn, reserveOut) */\n      tag_64\n        /* \"Uniswap/contracts/UniswapV2Router02.sol\":8690:8698  amountIn */\n      dup5\n        /* \"Uniswap/contracts/UniswapV2Router02.sol\":8700:8709  reserveIn */\n      dup5\n        /* \"Uniswap/contracts/UniswapV2Router02.sol\":8711:8721  reserveOut */\n      dup5\n        /* \"Uniswap/contracts/UniswapV2Router02.sol\":8660:8689  UniswapV2Library.getAmountOut */\n      tag_65\n        /* \"Uniswap/contracts/UniswapV2Router02.sol\":8660:8722  UniswapV2Library.getAmountOut(amountIn, reserveIn, reserveOut) */\n      jump\t// in\n    tag_64:\n        /* \"Uniswap/contracts/UniswapV2Router02.sol\":8653:8722  return UniswapV2Library.getAmountOut(amountIn, reserveIn, reserveOut) */\n      swap1\n      pop\n        /* \"Uniswap/contracts/UniswapV2Router02.sol\":8475:8729  function getAmountOut(uint amountIn, uint reserveIn, uint reserveOut)... */\n      swap4\n      swap3\n      pop\n      pop\n      pop\n      jump\t// out\n        /* \"Uniswap/contracts/UniswapV2Router02.sol\":9245:9490  function getAmountsIn(uint amountOut, address[] memory path)... */\n    tag_23:\n        /* \"Uniswap/contracts/UniswapV2Router02.sol\":9384:9405  uint[] memory amounts */\n      0x60\n        /* \"Uniswap/contracts/UniswapV2Router02.sol\":9428:9483  UniswapV2Library.getAmountsIn(factory, amountOut, path) */\n      tag_67\n        /* \"Uniswap/contracts/UniswapV2Router02.sol\":9458:9465  factory */\n      immutable(\"0x81e684302dba258ad18c3b31de9ac01448b470fcf6136d2ace7eb5c581a909a4\")\n        /* \"Uniswap/contracts/UniswapV2Router02.sol\":9467:9476  amountOut */\n      dup5\n        /* \"Uniswap/contracts/UniswapV2Router02.sol\":9478:9482  path */\n      dup5\n        /* \"Uniswap/contracts/UniswapV2Router02.sol\":9428:9457  UniswapV2Library.getAmountsIn */\n      tag_68\n        /* \"Uniswap/contracts/UniswapV2Router02.sol\":9428:9483  UniswapV2Library.getAmountsIn(factory, amountOut, path) */\n      jump\t// in\n    tag_67:\n        /* \"Uniswap/contracts/UniswapV2Router02.sol\":9421:9483  return UniswapV2Library.getAmountsIn(factory, amountOut, path) */\n      swap1\n      pop\n        /* \"Uniswap/contracts/UniswapV2Router02.sol\":9245:9490  function getAmountsIn(uint amountOut, address[] memory path)... */\n      swap3\n      swap2\n      pop\n      pop\n      jump\t// out\n        /* \"Uniswap/contracts/UniswapV2Router02.sol\":6581:7339  function swapExactTokensForTokens(... */\n    tag_29:\n        /* \"Uniswap/contracts/UniswapV2Router02.sol\":6799:6820  uint[] memory amounts */\n      0x60\n        /* \"Uniswap/contracts/UniswapV2Router02.sol\":6780:6788  deadline */\n      dup2\n        /* \"Uniswap/contracts/UniswapV2Router02.sol\":1121:1136  block.timestamp */\n      timestamp\n        /* \"Uniswap/contracts/UniswapV2Router02.sol\":1109:1117  deadline */\n      dup2\n        /* \"Uniswap/contracts/UniswapV2Router02.sol\":1109:1136  deadline >= block.timestamp */\n      lt\n      iszero\n        /* \"Uniswap/contracts/UniswapV2Router02.sol\":1101:1165  require(deadline >= block.timestamp, 'UniswapV2Router: EXPIRED') */\n      tag_70\n      jumpi\n      mload(0x40)\n      0x08c379a000000000000000000000000000000000000000000000000000000000\n      dup2\n      mstore\n      0x04\n      add\n      tag_71\n      swap1\n      tag_72\n      jump\t// in\n    tag_71:\n      mload(0x40)\n      dup1\n      swap2\n      sub\n      swap1\n      revert\n    tag_70:\n        /* \"Uniswap/contracts/UniswapV2Router02.sol\":6871:6926  UniswapV2Library.getAmountsOut(factory, amountIn, path) */\n      tag_74\n        /* \"Uniswap/contracts/UniswapV2Router02.sol\":6902:6909  factory */\n      immutable(\"0x81e684302dba258ad18c3b31de9ac01448b470fcf6136d2ace7eb5c581a909a4\")\n        /* \"Uniswap/contracts/UniswapV2Router02.sol\":6911:6919  amountIn */\n      dup10\n        /* \"Uniswap/contracts/UniswapV2Router02.sol\":6921:6925  path */\n      dup9\n      dup9\n        /* \"Uniswap/contracts/UniswapV2Router02.sol\":6871:6926  UniswapV2Library.getAmountsOut(factory, amountIn, path) */\n      dup1\n      dup1\n      0x20\n      mul\n      0x20\n      add\n      mload(0x40)\n      swap1\n      dup2\n      add\n      0x40\n      mstore\n      dup1\n      swap4\n      swap3\n      swap2\n      swap1\n      dup2\n      dup2\n      mstore\n      0x20\n      add\n      dup4\n      dup4\n      0x20\n      mul\n      dup1\n      dup3\n      dup5\n      calldatacopy\n      0x00\n      dup2\n      dup5\n      add\n      mstore\n      not(0x1f)\n      0x1f\n      dup3\n      add\n      and\n      swap1\n      pop\n      dup1\n      dup4\n      add\n      swap3\n      pop\n      pop\n      pop\n      pop\n      pop\n      pop\n      pop\n        /* \"Uniswap/contracts/UniswapV2Router02.sol\":6871:6901  UniswapV2Library.getAmountsOut */\n      tag_75\n        /* \"Uniswap/contracts/UniswapV2Router02.sol\":6871:6926  UniswapV2Library.getAmountsOut(factory, amountIn, path) */\n      jump\t// in\n    tag_74:\n        /* \"Uniswap/contracts/UniswapV2Router02.sol\":6861:6926  amounts = UniswapV2Library.getAmountsOut(factory, amountIn, path) */\n      swap2\n      pop\n        /* \"Uniswap/contracts/UniswapV2Router02.sol\":7033:7045  amountOutMin */\n      dup7\n        /* \"Uniswap/contracts/UniswapV2Router02.sol\":7002:7009  amounts */\n      dup3\n        /* \"Uniswap/contracts/UniswapV2Router02.sol\":7027:7028  1 */\n      0x01\n        /* \"Uniswap/contracts/UniswapV2Router02.sol\":7010:7017  amounts */\n      dup5\n        /* \"Uniswap/contracts/UniswapV2Router02.sol\":7010:7024  amounts.length */\n      mload\n        /* \"Uniswap/contracts/UniswapV2Router02.sol\":7010:7028  amounts.length - 1 */\n      tag_76\n      swap2\n      swap1\n      tag_77\n      jump\t// in\n    tag_76:\n        /* \"Uniswap/contracts/UniswapV2Router02.sol\":7002:7029  amounts[amounts.length - 1] */\n      dup2\n      mload\n      dup2\n      lt\n      tag_78\n      jumpi\n      tag_79\n      tag_80\n      jump\t// in\n    tag_79:\n    tag_78:\n      0x20\n      mul\n      0x20\n      add\n      add\n      mload\n        /* \"Uniswap/contracts/UniswapV2Router02.sol\":7002:7045  amounts[amounts.length - 1] >= amountOutMin */\n      lt\n      iszero\n        /* \"Uniswap/contracts/UniswapV2Router02.sol\":6994:7093  require(amounts[amounts.length - 1] >= amountOutMin, 'UniswapV2Router: INSUFFICIENT_OUTPUT_AMOUNT') */\n      tag_81\n      jumpi\n      mload(0x40)\n      0x08c379a000000000000000000000000000000000000000000000000000000000\n      dup2\n      mstore\n      0x04\n      add\n      tag_82\n      swap1\n      tag_83\n      jump\t// in\n    tag_82:\n      mload(0x40)\n      dup1\n      swap2\n      sub\n      swap1\n      revert\n    tag_81:\n        /* \"Uniswap/contracts/UniswapV2Router02.sol\":7142:7281  TransferHelper.safeTransferFrom(... */\n      tag_84\n        /* \"Uniswap/contracts/UniswapV2Router02.sol\":7187:7191  path */\n      dup7\n      dup7\n        /* \"Uniswap/contracts/UniswapV2Router02.sol\":7192:7193  0 */\n      0x00\n        /* \"Uniswap/contracts/UniswapV2Router02.sol\":7187:7194  path[0] */\n      dup2\n      dup2\n      lt\n      tag_85\n      jumpi\n      tag_86\n      tag_80\n      jump\t// in\n    tag_86:\n    tag_85:\n      swap1\n      pop\n      0x20\n      mul\n      add\n      0x20\n      dup2\n      add\n      swap1\n      tag_87\n      swap2\n      swap1\n      tag_88\n      jump\t// in\n    tag_87:\n        /* \"Uniswap/contracts/UniswapV2Router02.sol\":7196:7206  msg.sender */\n      caller\n        /* \"Uniswap/contracts/UniswapV2Router02.sol\":7208:7259  UniswapV2Library.pairFor(factory, path[0], path[1]) */\n      tag_89\n        /* \"Uniswap/contracts/UniswapV2Router02.sol\":7233:7240  factory */\n      immutable(\"0x81e684302dba258ad18c3b31de9ac01448b470fcf6136d2ace7eb5c581a909a4\")\n        /* \"Uniswap/contracts/UniswapV2Router02.sol\":7242:7246  path */\n      dup11\n      dup11\n        /* \"Uniswap/contracts/UniswapV2Router02.sol\":7247:7248  0 */\n      0x00\n        /* \"Uniswap/contracts/UniswapV2Router02.sol\":7242:7249  path[0] */\n      dup2\n      dup2\n      lt\n      tag_90\n      jumpi\n      tag_91\n      tag_80\n      jump\t// in\n    tag_91:\n    tag_90:\n      swap1\n      pop\n      0x20\n      mul\n      add\n      0x20\n      dup2\n      add\n      swap1\n      tag_92\n      swap2\n      swap1\n      tag_88\n      jump\t// in\n    tag_92:\n        /* \"Uniswap/contracts/UniswapV2Router02.sol\":7251:7255  path */\n      dup12\n      dup12\n        /* \"Uniswap/contracts/UniswapV2Router02.sol\":7256:7257  1 */\n      0x01\n        /* \"Uniswap/contracts/UniswapV2Router02.sol\":7251:7258  path[1] */\n      dup2\n      dup2\n      lt\n      tag_93\n      jumpi\n      tag_94\n      tag_80\n      jump\t// in\n    tag_94:\n    tag_93:\n      swap1\n      pop\n      0x20\n      mul\n      add\n      0x20\n      dup2\n      add\n      swap1\n      tag_95\n      swap2\n      swap1\n      tag_88\n      jump\t// in\n    tag_95:\n        /* \"Uniswap/contracts/UniswapV2Router02.sol\":7208:7232  UniswapV2Library.pairFor */\n      tag_96\n        /* \"Uniswap/contracts/UniswapV2Router02.sol\":7208:7259  UniswapV2Library.pairFor(factory, path[0], path[1]) */\n      jump\t// in\n    tag_89:\n        /* \"Uniswap/contracts/UniswapV2Router02.sol\":7261:7268  amounts */\n      dup6\n        /* \"Uniswap/contracts/UniswapV2Router02.sol\":7269:7270  0 */\n      0x00\n        /* \"Uniswap/contracts/UniswapV2Router02.sol\":7261:7271  amounts[0] */\n      dup2\n      mload\n      dup2\n      lt\n      tag_97\n      jumpi\n      tag_98\n      tag_80\n      jump\t// in\n    tag_98:\n    tag_97:\n      0x20\n      mul\n      0x20\n      add\n      add\n      mload\n        /* \"Uniswap/contracts/UniswapV2Router02.sol\":7142:7173  TransferHelper.safeTransferFrom */\n      tag_99\n        /* \"Uniswap/contracts/UniswapV2Router02.sol\":7142:7281  TransferHelper.safeTransferFrom(... */\n      jump\t// in\n    tag_84:\n        /* \"Uniswap/contracts/UniswapV2Router02.sol\":7308:7332  _swap(amounts, path, to) */\n      tag_100\n        /* \"Uniswap/contracts/UniswapV2Router02.sol\":7314:7321  amounts */\n      dup3\n        /* \"Uniswap/contracts/UniswapV2Router02.sol\":7323:7327  path */\n      dup8\n      dup8\n        /* \"Uniswap/contracts/UniswapV2Router02.sol\":7308:7332  _swap(amounts, path, to) */\n      dup1\n      dup1\n      0x20\n      mul\n      0x20\n      add\n      mload(0x40)\n      swap1\n      dup2\n      add\n      0x40\n      mstore\n      dup1\n      swap4\n      swap3\n      swap2\n      swap1\n      dup2\n      dup2\n      mstore\n      0x20\n      add\n      dup4\n      dup4\n      0x20\n      mul\n      dup1\n      dup3\n      dup5\n      calldatacopy\n      0x00\n      dup2\n      dup5\n      add\n      mstore\n      not(0x1f)\n      0x1f\n      dup3\n      add\n      and\n      swap1\n      pop\n      dup1\n      dup4\n      add\n      swap3\n      pop\n      pop\n      pop\n      pop\n      pop\n      pop\n      pop\n        /* \"Uniswap/contracts/UniswapV2Router02.sol\":7329:7331  to */\n      dup7\n        /* \"Uniswap/contracts/UniswapV2Router02.sol\":7308:7313  _swap */\n      tag_101\n        /* \"Uniswap/contracts/UniswapV2Router02.sol\":7308:7332  _swap(amounts, path, to) */\n      jump\t// in\n    tag_100:\n        /* \"Uniswap/contracts/UniswapV2Router02.sol\":6581:7339  function swapExactTokensForTokens(... */\n      pop\n      swap7\n      swap6\n      pop\n      pop\n      pop\n      pop\n      pop\n      pop\n      jump\t// out\n        /* \"Uniswap/contracts/UniswapV2Router02.sol\":8735:8988  function getAmountIn(uint amountOut, uint reserveIn, uint reserveOut)... */\n    tag_33:\n        /* \"Uniswap/contracts/UniswapV2Router02.sol\":8883:8896  uint amountIn */\n      0x00\n        /* \"Uniswap/contracts/UniswapV2Router02.sol\":8919:8981  UniswapV2Library.getAmountIn(amountOut, reserveIn, reserveOut) */\n      tag_103\n        /* \"Uniswap/contracts/UniswapV2Router02.sol\":8948:8957  amountOut */\n      dup5\n        /* \"Uniswap/contracts/UniswapV2Router02.sol\":8959:8968  reserveIn */\n      dup5\n        /* \"Uniswap/contracts/UniswapV2Router02.sol\":8970:8980  reserveOut */\n      dup5\n        /* \"Uniswap/contracts/UniswapV2Router02.sol\":8919:8947  UniswapV2Library.getAmountIn */\n      tag_104\n        /* \"Uniswap/contracts/UniswapV2Router02.sol\":8919:8981  UniswapV2Library.getAmountIn(amountOut, reserveIn, reserveOut) */\n      jump\t// in\n    tag_103:\n        /* \"Uniswap/contracts/UniswapV2Router02.sol\":8912:8981  return UniswapV2Library.getAmountIn(amountOut, reserveIn, reserveOut) */\n      swap1\n      pop\n        /* \"Uniswap/contracts/UniswapV2Router02.sol\":8735:8988  function getAmountIn(uint amountOut, uint reserveIn, uint reserveOut)... */\n      swap4\n      swap3\n      pop\n      pop\n      pop\n      jump\t// out\n        /* \"Uniswap/contracts/UniswapV2Router02.sol\":7427:8163  function swapTokensForExactTokens(... */\n    tag_37:\n        /* \"Uniswap/contracts/UniswapV2Router02.sol\":7645:7666  uint[] memory amounts */\n      0x60\n        /* \"Uniswap/contracts/UniswapV2Router02.sol\":7626:7634  deadline */\n      dup2\n        /* \"Uniswap/contracts/UniswapV2Router02.sol\":1121:1136  block.timestamp */\n      timestamp\n        /* \"Uniswap/contracts/UniswapV2Router02.sol\":1109:1117  deadline */\n      dup2\n        /* \"Uniswap/contracts/UniswapV2Router02.sol\":1109:1136  deadline >= block.timestamp */\n      lt\n      iszero\n        /* \"Uniswap/contracts/UniswapV2Router02.sol\":1101:1165  require(deadline >= block.timestamp, 'UniswapV2Router: EXPIRED') */\n      tag_106\n      jumpi\n      mload(0x40)\n      0x08c379a000000000000000000000000000000000000000000000000000000000\n      dup2\n      mstore\n      0x04\n      add\n      tag_107\n      swap1\n      tag_72\n      jump\t// in\n    tag_107:\n      mload(0x40)\n      dup1\n      swap2\n      sub\n      swap1\n      revert\n    tag_106:\n        /* \"Uniswap/contracts/UniswapV2Router02.sol\":7718:7773  UniswapV2Library.getAmountsIn(factory, amountOut, path) */\n      tag_109\n        /* \"Uniswap/contracts/UniswapV2Router02.sol\":7748:7755  factory */\n      immutable(\"0x81e684302dba258ad18c3b31de9ac01448b470fcf6136d2ace7eb5c581a909a4\")\n        /* \"Uniswap/contracts/UniswapV2Router02.sol\":7757:7766  amountOut */\n      dup10\n        /* \"Uniswap/contracts/UniswapV2Router02.sol\":7768:7772  path */\n      dup9\n      dup9\n        /* \"Uniswap/contracts/UniswapV2Router02.sol\":7718:7773  UniswapV2Library.getAmountsIn(factory, amountOut, path) */\n      dup1\n      dup1\n      0x20\n      mul\n      0x20\n      add\n      mload(0x40)\n      swap1\n      dup2\n      add\n      0x40\n      mstore\n      dup1\n      swap4\n      swap3\n      swap2\n      swap1\n      dup2\n      dup2\n      mstore\n      0x20\n      add\n      dup4\n      dup4\n      0x20\n      mul\n      dup1\n      dup3\n      dup5\n      calldatacopy\n      0x00\n      dup2\n      dup5\n      add\n      mstore\n      not(0x1f)\n      0x1f\n      dup3\n      add\n      and\n      swap1\n      pop\n      dup1\n      dup4\n      add\n      swap3\n      pop\n      pop\n      pop\n      pop\n      pop\n      pop\n      pop\n        /* \"Uniswap/contracts/UniswapV2Router02.sol\":7718:7747  UniswapV2Library.getAmountsIn */\n      tag_68\n        /* \"Uniswap/contracts/UniswapV2Router02.sol\":7718:7773  UniswapV2Library.getAmountsIn(factory, amountOut, path) */\n      jump\t// in\n    tag_109:\n        /* \"Uniswap/contracts/UniswapV2Router02.sol\":7708:7773  amounts = UniswapV2Library.getAmountsIn(factory, amountOut, path) */\n      swap2\n      pop\n        /* \"Uniswap/contracts/UniswapV2Router02.sol\":7862:7873  amountInMax */\n      dup7\n        /* \"Uniswap/contracts/UniswapV2Router02.sol\":7848:7855  amounts */\n      dup3\n        /* \"Uniswap/contracts/UniswapV2Router02.sol\":7856:7857  0 */\n      0x00\n        /* \"Uniswap/contracts/UniswapV2Router02.sol\":7848:7858  amounts[0] */\n      dup2\n      mload\n      dup2\n      lt\n      tag_110\n      jumpi\n      tag_111\n      tag_80\n      jump\t// in\n    tag_111:\n    tag_110:\n      0x20\n      mul\n      0x20\n      add\n      add\n      mload\n        /* \"Uniswap/contracts/UniswapV2Router02.sol\":7848:7873  amounts[0] <= amountInMax */\n      gt\n      iszero\n        /* \"Uniswap/contracts/UniswapV2Router02.sol\":7840:7917  require(amounts[0] <= amountInMax, 'UniswapV2Router: EXCESSIVE_INPUT_AMOUNT') */\n      tag_112\n      jumpi\n      mload(0x40)\n      0x08c379a000000000000000000000000000000000000000000000000000000000\n      dup2\n      mstore\n      0x04\n      add\n      tag_113\n      swap1\n      tag_114\n      jump\t// in\n    tag_113:\n      mload(0x40)\n      dup1\n      swap2\n      sub\n      swap1\n      revert\n    tag_112:\n        /* \"Uniswap/contracts/UniswapV2Router02.sol\":7966:8105  TransferHelper.safeTransferFrom(... */\n      tag_115\n        /* \"Uniswap/contracts/UniswapV2Router02.sol\":8011:8015  path */\n      dup7\n      dup7\n        /* \"Uniswap/contracts/UniswapV2Router02.sol\":8016:8017  0 */\n      0x00\n        /* \"Uniswap/contracts/UniswapV2Router02.sol\":8011:8018  path[0] */\n      dup2\n      dup2\n      lt\n      tag_116\n      jumpi\n      tag_117\n      tag_80\n      jump\t// in\n    tag_117:\n    tag_116:\n      swap1\n      pop\n      0x20\n      mul\n      add\n      0x20\n      dup2\n      add\n      swap1\n      tag_118\n      swap2\n      swap1\n      tag_88\n      jump\t// in\n    tag_118:\n        /* \"Uniswap/contracts/UniswapV2Router02.sol\":8020:8030  msg.sender */\n      caller\n        /* \"Uniswap/contracts/UniswapV2Router02.sol\":8032:8083  UniswapV2Library.pairFor(factory, path[0], path[1]) */\n      tag_119\n        /* \"Uniswap/contracts/UniswapV2Router02.sol\":8057:8064  factory */\n      immutable(\"0x81e684302dba258ad18c3b31de9ac01448b470fcf6136d2ace7eb5c581a909a4\")\n        /* \"Uniswap/contracts/UniswapV2Router02.sol\":8066:8070  path */\n      dup11\n      dup11\n        /* \"Uniswap/contracts/UniswapV2Router02.sol\":8071:8072  0 */\n      0x00\n        /* \"Uniswap/contracts/UniswapV2Router02.sol\":8066:8073  path[0] */\n      dup2\n      dup2\n      lt\n      tag_120\n      jumpi\n      tag_121\n      tag_80\n      jump\t// in\n    tag_121:\n    tag_120:\n      swap1\n      pop\n      0x20\n      mul\n      add\n      0x20\n      dup2\n      add\n      swap1\n      tag_122\n      swap2\n      swap1\n      tag_88\n      jump\t// in\n    tag_122:\n        /* \"Uniswap/contracts/UniswapV2Router02.sol\":8075:8079  path */\n      dup12\n      dup12\n        /* \"Uniswap/contracts/UniswapV2Router02.sol\":8080:8081  1 */\n      0x01\n        /* \"Uniswap/contracts/UniswapV2Router02.sol\":8075:8082  path[1] */\n      dup2\n      dup2\n      lt\n      tag_123\n      jumpi\n      tag_124\n      tag_80\n      jump\t// in\n    tag_124:\n    tag_123:\n      swap1\n      pop\n      0x20\n      mul\n      add\n      0x20\n      dup2\n      add\n      swap1\n      tag_125\n      swap2\n      swap1\n      tag_88\n      jump\t// in\n    tag_125:\n        /* \"Uniswap/contracts/UniswapV2Router02.sol\":8032:8056  UniswapV2Library.pairFor */\n      tag_96\n        /* \"Uniswap/contracts/UniswapV2Router02.sol\":8032:8083  UniswapV2Library.pairFor(factory, path[0], path[1]) */\n      jump\t// in\n    tag_119:\n        /* \"Uniswap/contracts/UniswapV2Router02.sol\":8085:8092  amounts */\n      dup6\n        /* \"Uniswap/contracts/UniswapV2Router02.sol\":8093:8094  0 */\n      0x00\n        /* \"Uniswap/contracts/UniswapV2Router02.sol\":8085:8095  amounts[0] */\n      dup2\n      mload\n      dup2\n      lt\n      tag_126\n      jumpi\n      tag_127\n      tag_80\n      jump\t// in\n    tag_127:\n    tag_126:\n      0x20\n      mul\n      0x20\n      add\n      add\n      mload\n        /* \"Uniswap/contracts/UniswapV2Router02.sol\":7966:7997  TransferHelper.safeTransferFrom */\n      tag_99\n        /* \"Uniswap/contracts/UniswapV2Router02.sol\":7966:8105  TransferHelper.safeTransferFrom(... */\n      jump\t// in\n    tag_115:\n        /* \"Uniswap/contracts/UniswapV2Router02.sol\":8132:8156  _swap(amounts, path, to) */\n      tag_128\n        /* \"Uniswap/contracts/UniswapV2Router02.sol\":8138:8145  amounts */\n      dup3\n        /* \"Uniswap/contracts/UniswapV2Router02.sol\":8147:8151  path */\n      dup8\n      dup8\n        /* \"Uniswap/contracts/UniswapV2Router02.sol\":8132:8156  _swap(amounts, path, to) */\n      dup1\n      dup1\n      0x20\n      mul\n      0x20\n      add\n      mload(0x40)\n      swap1\n      dup2\n      add\n      0x40\n      mstore\n      dup1\n      swap4\n      swap3\n      swap2\n      swap1\n      dup2\n      dup2\n      mstore\n      0x20\n      add\n      dup4\n      dup4\n      0x20\n      mul\n      dup1\n      dup3\n      dup5\n      calldatacopy\n      0x00\n      dup2\n      dup5\n      add\n      mstore\n      not(0x1f)\n      0x1f\n      dup3\n      add\n      and\n      swap1\n      pop\n      dup1\n      dup4\n      add\n      swap3\n      pop\n      pop\n      pop\n      pop\n      pop\n      pop\n      pop\n        /* \"Uniswap/contracts/UniswapV2Router02.sol\":8153:8155  to */\n      dup7\n        /* \"Uniswap/contracts/UniswapV2Router02.sol\":8132:8137  _swap */\n      tag_101\n        /* \"Uniswap/contracts/UniswapV2Router02.sol\":8132:8156  _swap(amounts, path, to) */\n      jump\t// in\n    tag_128:\n        /* \"Uniswap/contracts/UniswapV2Router02.sol\":7427:8163  function swapTokensForExactTokens(... */\n      pop\n      swap7\n      swap6\n      pop\n      pop\n      pop\n      pop\n      pop\n      pop\n      jump\t// out\n        /* \"Uniswap/contracts/UniswapV2Router02.sol\":8283:8469  function quote(uint amountA, uint reserveA, uint reserveB) public pure virtual override returns (uint amountB) {... */\n    tag_41:\n        /* \"Uniswap/contracts/UniswapV2Router02.sol\":8380:8392  uint amountB */\n      0x00\n        /* \"Uniswap/contracts/UniswapV2Router02.sol\":8411:8462  UniswapV2Library.quote(amountA, reserveA, reserveB) */\n      tag_130\n        /* \"Uniswap/contracts/UniswapV2Router02.sol\":8434:8441  amountA */\n      dup5\n        /* \"Uniswap/contracts/UniswapV2Router02.sol\":8443:8451  reserveA */\n      dup5\n        /* \"Uniswap/contracts/UniswapV2Router02.sol\":8453:8461  reserveB */\n      dup5\n        /* \"Uniswap/contracts/UniswapV2Router02.sol\":8411:8433  UniswapV2Library.quote */\n      tag_131\n        /* \"Uniswap/contracts/UniswapV2Router02.sol\":8411:8462  UniswapV2Library.quote(amountA, reserveA, reserveB) */\n      jump\t// in\n    tag_130:\n        /* \"Uniswap/contracts/UniswapV2Router02.sol\":8404:8462  return UniswapV2Library.quote(amountA, reserveA, reserveB) */\n      swap1\n      pop\n        /* \"Uniswap/contracts/UniswapV2Router02.sol\":8283:8469  function quote(uint amountA, uint reserveA, uint reserveB) public pure virtual override returns (uint amountB) {... */\n      swap4\n      swap3\n      pop\n      pop\n      pop\n      jump\t// out\n        /* \"Uniswap/contracts/UniswapV2Router02.sol\":4542:5443  function removeLiquidity(... */\n    tag_46:\n        /* \"Uniswap/contracts/UniswapV2Router02.sol\":4788:4800  uint amountA */\n      0x00\n        /* \"Uniswap/contracts/UniswapV2Router02.sol\":4802:4814  uint amountB */\n      dup1\n        /* \"Uniswap/contracts/UniswapV2Router02.sol\":4769:4777  deadline */\n      dup3\n        /* \"Uniswap/contracts/UniswapV2Router02.sol\":1121:1136  block.timestamp */\n      timestamp\n        /* \"Uniswap/contracts/UniswapV2Router02.sol\":1109:1117  deadline */\n      dup2\n        /* \"Uniswap/contracts/UniswapV2Router02.sol\":1109:1136  deadline >= block.timestamp */\n      lt\n      iszero\n        /* \"Uniswap/contracts/UniswapV2Router02.sol\":1101:1165  require(deadline >= block.timestamp, 'UniswapV2Router: EXPIRED') */\n      tag_133\n      jumpi\n      mload(0x40)\n      0x08c379a000000000000000000000000000000000000000000000000000000000\n      dup2\n      mstore\n      0x04\n      add\n      tag_134\n      swap1\n      tag_72\n      jump\t// in\n    tag_134:\n      mload(0x40)\n      dup1\n      swap2\n      sub\n      swap1\n      revert\n    tag_133:\n        /* \"Uniswap/contracts/UniswapV2Router02.sol\":4826:4838  address pair */\n      0x00\n        /* \"Uniswap/contracts/UniswapV2Router02.sol\":4841:4890  UniswapV2Library.pairFor(factory, tokenA, tokenB) */\n      tag_136\n        /* \"Uniswap/contracts/UniswapV2Router02.sol\":4866:4873  factory */\n      immutable(\"0x81e684302dba258ad18c3b31de9ac01448b470fcf6136d2ace7eb5c581a909a4\")\n        /* \"Uniswap/contracts/UniswapV2Router02.sol\":4875:4881  tokenA */\n      dup13\n        /* \"Uniswap/contracts/UniswapV2Router02.sol\":4883:4889  tokenB */\n      dup13\n        /* \"Uniswap/contracts/UniswapV2Router02.sol\":4841:4865  UniswapV2Library.pairFor */\n      tag_96\n        /* \"Uniswap/contracts/UniswapV2Router02.sol\":4841:4890  UniswapV2Library.pairFor(factory, tokenA, tokenB) */\n      jump\t// in\n    tag_136:\n        /* \"Uniswap/contracts/UniswapV2Router02.sol\":4826:4890  address pair = UniswapV2Library.pairFor(factory, tokenA, tokenB) */\n      swap1\n      pop\n        /* \"Uniswap/contracts/UniswapV2Router02.sol\":4966:4970  pair */\n      dup1\n        /* \"Uniswap/contracts/UniswapV2Router02.sol\":4950:4984  IUniswapV2ERC20(pair).transferFrom */\n      0xffffffffffffffffffffffffffffffffffffffff\n      and\n      0x23b872dd\n        /* \"Uniswap/contracts/UniswapV2Router02.sol\":4985:4995  msg.sender */\n      caller\n        /* \"Uniswap/contracts/UniswapV2Router02.sol\":4997:5001  pair */\n      dup4\n        /* \"Uniswap/contracts/UniswapV2Router02.sol\":5003:5012  liquidity */\n      dup13\n        /* \"Uniswap/contracts/UniswapV2Router02.sol\":4950:5013  IUniswapV2ERC20(pair).transferFrom(msg.sender, pair, liquidity) */\n      mload(0x40)\n      dup5\n      0xffffffff\n      and\n      0xe0\n      shl\n      dup2\n      mstore\n      0x04\n      add\n      tag_137\n      swap4\n      swap3\n      swap2\n      swap1\n      tag_138\n      jump\t// in\n    tag_137:\n      0x20\n      mload(0x40)\n      dup1\n      dup4\n      sub\n      dup2\n      0x00\n      dup8\n      gas\n      call\n      iszero\n      dup1\n      iszero\n      tag_140\n      jumpi\n      returndatasize\n      0x00\n      dup1\n      returndatacopy\n      revert(0x00, returndatasize)\n    tag_140:\n      pop\n      pop\n      pop\n      pop\n      mload(0x40)\n      returndatasize\n      not(0x1f)\n      0x1f\n      dup3\n      add\n      and\n      dup3\n      add\n      dup1\n      0x40\n      mstore\n      pop\n      dup2\n      add\n      swap1\n      tag_141\n      swap2\n      swap1\n      tag_142\n      jump\t// in\n    tag_141:\n      pop\n        /* \"Uniswap/contracts/UniswapV2Router02.sol\":5050:5062  uint amount0 */\n      0x00\n        /* \"Uniswap/contracts/UniswapV2Router02.sol\":5064:5076  uint amount1 */\n      dup1\n        /* \"Uniswap/contracts/UniswapV2Router02.sol\":5095:5099  pair */\n      dup3\n        /* \"Uniswap/contracts/UniswapV2Router02.sol\":5080:5105  IUniswapV2Pair(pair).burn */\n      0xffffffffffffffffffffffffffffffffffffffff\n      and\n      0x89afcb44\n        /* \"Uniswap/contracts/UniswapV2Router02.sol\":5106:5108  to */\n      dup10\n        /* \"Uniswap/contracts/UniswapV2Router02.sol\":5080:5109  IUniswapV2Pair(pair).burn(to) */\n      mload(0x40)\n      dup3\n      0xffffffff\n      and\n      0xe0\n      shl\n      dup2\n      mstore\n      0x04\n      add\n      tag_143\n      swap2\n      swap1\n      tag_52\n      jump\t// in\n    tag_143:\n      0x40\n      dup1\n      mload\n      dup1\n      dup4\n      sub\n      dup2\n      0x00\n      dup8\n      gas\n      call\n      iszero\n      dup1\n      iszero\n      tag_145\n      jumpi\n      returndatasize\n      0x00\n      dup1\n      returndatacopy\n      revert(0x00, returndatasize)\n    tag_145:\n      pop\n      pop\n      pop\n      pop\n      mload(0x40)\n      returndatasize\n      not(0x1f)\n      0x1f\n      dup3\n      add\n      and\n      dup3\n      add\n      dup1\n      0x40\n      mstore\n      pop\n      dup2\n      add\n      swap1\n      tag_146\n      swap2\n      swap1\n      tag_147\n      jump\t// in\n    tag_146:\n        /* \"Uniswap/contracts/UniswapV2Router02.sol\":5049:5109  (uint amount0, uint amount1) = IUniswapV2Pair(pair).burn(to) */\n      swap2\n      pop\n      swap2\n      pop\n        /* \"Uniswap/contracts/UniswapV2Router02.sol\":5121:5135  address token0 */\n      0x00\n        /* \"Uniswap/contracts/UniswapV2Router02.sol\":5140:5183  UniswapV2Library.sortTokens(tokenA, tokenB) */\n      tag_148\n        /* \"Uniswap/contracts/UniswapV2Router02.sol\":5168:5174  tokenA */\n      dup15\n        /* \"Uniswap/contracts/UniswapV2Router02.sol\":5176:5182  tokenB */\n      dup15\n        /* \"Uniswap/contracts/UniswapV2Router02.sol\":5140:5167  UniswapV2Library.sortTokens */\n      tag_149\n        /* \"Uniswap/contracts/UniswapV2Router02.sol\":5140:5183  UniswapV2Library.sortTokens(tokenA, tokenB) */\n      jump\t// in\n    tag_148:\n        /* \"Uniswap/contracts/UniswapV2Router02.sol\":5120:5183  (address token0,) = UniswapV2Library.sortTokens(tokenA, tokenB) */\n      pop\n      swap1\n      pop\n        /* \"Uniswap/contracts/UniswapV2Router02.sol\":5224:5230  token0 */\n      dup1\n        /* \"Uniswap/contracts/UniswapV2Router02.sol\":5214:5230  tokenA == token0 */\n      0xffffffffffffffffffffffffffffffffffffffff\n      and\n        /* \"Uniswap/contracts/UniswapV2Router02.sol\":5214:5220  tokenA */\n      dup15\n        /* \"Uniswap/contracts/UniswapV2Router02.sol\":5214:5230  tokenA == token0 */\n      0xffffffffffffffffffffffffffffffffffffffff\n      and\n      eq\n        /* \"Uniswap/contracts/UniswapV2Router02.sol\":5214:5272  tokenA == token0 ? (amount0, amount1) : (amount1, amount0) */\n      tag_150\n      jumpi\n        /* \"Uniswap/contracts/UniswapV2Router02.sol\":5255:5262  amount1 */\n      dup2\n        /* \"Uniswap/contracts/UniswapV2Router02.sol\":5264:5271  amount0 */\n      dup4\n        /* \"Uniswap/contracts/UniswapV2Router02.sol\":5214:5272  tokenA == token0 ? (amount0, amount1) : (amount1, amount0) */\n      jump(tag_151)\n    tag_150:\n        /* \"Uniswap/contracts/UniswapV2Router02.sol\":5234:5241  amount0 */\n      dup3\n        /* \"Uniswap/contracts/UniswapV2Router02.sol\":5243:5250  amount1 */\n      dup3\n        /* \"Uniswap/contracts/UniswapV2Router02.sol\":5214:5272  tokenA == token0 ? (amount0, amount1) : (amount1, amount0) */\n    tag_151:\n        /* \"Uniswap/contracts/UniswapV2Router02.sol\":5193:5272  (amountA, amountB) = tokenA == token0 ? (amount0, amount1) : (amount1, amount0) */\n      dup1\n      swap8\n      pop\n      dup2\n      swap9\n      pop\n      pop\n      pop\n        /* \"Uniswap/contracts/UniswapV2Router02.sol\":5301:5311  amountAMin */\n      dup11\n        /* \"Uniswap/contracts/UniswapV2Router02.sol\":5290:5297  amountA */\n      dup8\n        /* \"Uniswap/contracts/UniswapV2Router02.sol\":5290:5311  amountA >= amountAMin */\n      lt\n      iszero\n        /* \"Uniswap/contracts/UniswapV2Router02.sol\":5282:5354  require(amountA >= amountAMin, 'UniswapV2Router: INSUFFICIENT_A_AMOUNT') */\n      tag_152\n      jumpi\n      mload(0x40)\n      0x08c379a000000000000000000000000000000000000000000000000000000000\n      dup2\n      mstore\n      0x04\n      add\n      tag_153\n      swap1\n      tag_154\n      jump\t// in\n    tag_153:\n      mload(0x40)\n      dup1\n      swap2\n      sub\n      swap1\n      revert\n    tag_152:\n        /* \"Uniswap/contracts/UniswapV2Router02.sol\":5383:5393  amountBMin */\n      dup10\n        /* \"Uniswap/contracts/UniswapV2Router02.sol\":5372:5379  amountB */\n      dup7\n        /* \"Uniswap/contracts/UniswapV2Router02.sol\":5372:5393  amountB >= amountBMin */\n      lt\n      iszero\n        /* \"Uniswap/contracts/UniswapV2Router02.sol\":5364:5436  require(amountB >= amountBMin, 'UniswapV2Router: INSUFFICIENT_B_AMOUNT') */\n      tag_155\n      jumpi\n      mload(0x40)\n      0x08c379a000000000000000000000000000000000000000000000000000000000\n      dup2\n      mstore\n      0x04\n      add\n      tag_156\n      swap1\n      tag_157\n      jump\t// in\n    tag_156:\n      mload(0x40)\n      dup1\n      swap2\n      sub\n      swap1\n      revert\n    tag_155:\n        /* \"Uniswap/contracts/UniswapV2Router02.sol\":4816:5443  {... */\n      pop\n      pop\n      pop\n      pop\n        /* \"Uniswap/contracts/UniswapV2Router02.sol\":4542:5443  function removeLiquidity(... */\n      pop\n      swap8\n      pop\n      swap8\n      swap6\n      pop\n      pop\n      pop\n      pop\n      pop\n      pop\n      jump\t// out\n        /* \"Uniswap/contracts/UniswapV2Router02.sol\":558:599  address public immutable override factory */\n    tag_50:\n      immutable(\"0x81e684302dba258ad18c3b31de9ac01448b470fcf6136d2ace7eb5c581a909a4\")\n      dup2\n      jump\t// out\n        /* \"Uniswap/contracts/UniswapV2Router02.sol\":8994:9239  function getAmountsOut(uint amountIn, address[] memory path)... */\n    tag_55:\n        /* \"Uniswap/contracts/UniswapV2Router02.sol\":9133:9154  uint[] memory amounts */\n      0x60\n        /* \"Uniswap/contracts/UniswapV2Router02.sol\":9177:9232  UniswapV2Library.getAmountsOut(factory, amountIn, path) */\n      tag_159\n        /* \"Uniswap/contracts/UniswapV2Router02.sol\":9208:9215  factory */\n      immutable(\"0x81e684302dba258ad18c3b31de9ac01448b470fcf6136d2ace7eb5c581a909a4\")\n        /* \"Uniswap/contracts/UniswapV2Router02.sol\":9217:9225  amountIn */\n      dup5\n        /* \"Uniswap/contracts/UniswapV2Router02.sol\":9227:9231  path */\n      dup5\n        /* \"Uniswap/contracts/UniswapV2Router02.sol\":9177:9207  UniswapV2Library.getAmountsOut */\n      tag_75\n        /* \"Uniswap/contracts/UniswapV2Router02.sol\":9177:9232  UniswapV2Library.getAmountsOut(factory, amountIn, path) */\n      jump\t// in\n    tag_159:\n        /* \"Uniswap/contracts/UniswapV2Router02.sol\":9170:9232  return UniswapV2Library.getAmountsOut(factory, amountIn, path) */\n      swap1\n      pop\n        /* \"Uniswap/contracts/UniswapV2Router02.sol\":8994:9239  function getAmountsOut(uint amountIn, address[] memory path)... */\n      swap3\n      swap2\n      pop\n      pop\n      jump\t// out\n        /* \"Uniswap/contracts/UniswapV2Router02.sol\":3681:4501  function addLiquidity(... */\n    tag_60:\n        /* \"Uniswap/contracts/UniswapV2Router02.sol\":3960:3972  uint amountA */\n      0x00\n        /* \"Uniswap/contracts/UniswapV2Router02.sol\":3974:3986  uint amountB */\n      dup1\n        /* \"Uniswap/contracts/UniswapV2Router02.sol\":3988:4002  uint liquidity */\n      0x00\n        /* \"Uniswap/contracts/UniswapV2Router02.sol\":3941:3949  deadline */\n      dup4\n        /* \"Uniswap/contracts/UniswapV2Router02.sol\":1121:1136  block.timestamp */\n      timestamp\n        /* \"Uniswap/contracts/UniswapV2Router02.sol\":1109:1117  deadline */\n      dup2\n        /* \"Uniswap/contracts/UniswapV2Router02.sol\":1109:1136  deadline >= block.timestamp */\n      lt\n      iszero\n        /* \"Uniswap/contracts/UniswapV2Router02.sol\":1101:1165  require(deadline >= block.timestamp, 'UniswapV2Router: EXPIRED') */\n      tag_161\n      jumpi\n      mload(0x40)\n      0x08c379a000000000000000000000000000000000000000000000000000000000\n      dup2\n      mstore\n      0x04\n      add\n      tag_162\n      swap1\n      tag_72\n      jump\t// in\n    tag_162:\n      mload(0x40)\n      dup1\n      swap2\n      sub\n      swap1\n      revert\n    tag_161:\n        /* \"Uniswap/contracts/UniswapV2Router02.sol\":4059:4144  _addLiquidity(tokenA, tokenB, amountADesired, amountBDesired, amountAMin, amountBMin) */\n      tag_164\n        /* \"Uniswap/contracts/UniswapV2Router02.sol\":4073:4079  tokenA */\n      dup13\n        /* \"Uniswap/contracts/UniswapV2Router02.sol\":4081:4087  tokenB */\n      dup13\n        /* \"Uniswap/contracts/UniswapV2Router02.sol\":4089:4103  amountADesired */\n      dup13\n        /* \"Uniswap/contracts/UniswapV2Router02.sol\":4105:4119  amountBDesired */\n      dup13\n        /* \"Uniswap/contracts/UniswapV2Router02.sol\":4121:4131  amountAMin */\n      dup13\n        /* \"Uniswap/contracts/UniswapV2Router02.sol\":4133:4143  amountBMin */\n      dup13\n        /* \"Uniswap/contracts/UniswapV2Router02.sol\":4059:4072  _addLiquidity */\n      tag_165\n        /* \"Uniswap/contracts/UniswapV2Router02.sol\":4059:4144  _addLiquidity(tokenA, tokenB, amountADesired, amountBDesired, amountAMin, amountBMin) */\n      jump\t// in\n    tag_164:\n        /* \"Uniswap/contracts/UniswapV2Router02.sol\":4038:4144  (amountA, amountB) = _addLiquidity(tokenA, tokenB, amountADesired, amountBDesired, amountAMin, amountBMin) */\n      dup1\n      swap5\n      pop\n      dup2\n      swap6\n      pop\n      pop\n      pop\n        /* \"Uniswap/contracts/UniswapV2Router02.sol\":4155:4167  address pair */\n      0x00\n        /* \"Uniswap/contracts/UniswapV2Router02.sol\":4170:4219  UniswapV2Library.pairFor(factory, tokenA, tokenB) */\n      tag_166\n        /* \"Uniswap/contracts/UniswapV2Router02.sol\":4195:4202  factory */\n      immutable(\"0x81e684302dba258ad18c3b31de9ac01448b470fcf6136d2ace7eb5c581a909a4\")\n        /* \"Uniswap/contracts/UniswapV2Router02.sol\":4204:4210  tokenA */\n      dup15\n        /* \"Uniswap/contracts/UniswapV2Router02.sol\":4212:4218  tokenB */\n      dup15\n        /* \"Uniswap/contracts/UniswapV2Router02.sol\":4170:4194  UniswapV2Library.pairFor */\n      tag_96\n        /* \"Uniswap/contracts/UniswapV2Router02.sol\":4170:4219  UniswapV2Library.pairFor(factory, tokenA, tokenB) */\n      jump\t// in\n    tag_166:\n        /* \"Uniswap/contracts/UniswapV2Router02.sol\":4155:4219  address pair = UniswapV2Library.pairFor(factory, tokenA, tokenB) */\n      swap1\n      pop\n        /* \"Uniswap/contracts/UniswapV2Router02.sol\":4257:4323  TransferHelper.safeTransferFrom(tokenA, msg.sender, pair, amountA) */\n      tag_167\n        /* \"Uniswap/contracts/UniswapV2Router02.sol\":4289:4295  tokenA */\n      dup14\n        /* \"Uniswap/contracts/UniswapV2Router02.sol\":4297:4307  msg.sender */\n      caller\n        /* \"Uniswap/contracts/UniswapV2Router02.sol\":4309:4313  pair */\n      dup4\n        /* \"Uniswap/contracts/UniswapV2Router02.sol\":4315:4322  amountA */\n      dup9\n        /* \"Uniswap/contracts/UniswapV2Router02.sol\":4257:4288  TransferHelper.safeTransferFrom */\n      tag_99\n        /* \"Uniswap/contracts/UniswapV2Router02.sol\":4257:4323  TransferHelper.safeTransferFrom(tokenA, msg.sender, pair, amountA) */\n      jump\t// in\n    tag_167:\n        /* \"Uniswap/contracts/UniswapV2Router02.sol\":4333:4399  TransferHelper.safeTransferFrom(tokenB, msg.sender, pair, amountB) */\n      tag_168\n        /* \"Uniswap/contracts/UniswapV2Router02.sol\":4365:4371  tokenB */\n      dup13\n        /* \"Uniswap/contracts/UniswapV2Router02.sol\":4373:4383  msg.sender */\n      caller\n        /* \"Uniswap/contracts/UniswapV2Router02.sol\":4385:4389  pair */\n      dup4\n        /* \"Uniswap/contracts/UniswapV2Router02.sol\":4391:4398  amountB */\n      dup8\n        /* \"Uniswap/contracts/UniswapV2Router02.sol\":4333:4364  TransferHelper.safeTransferFrom */\n      tag_99\n        /* \"Uniswap/contracts/UniswapV2Router02.sol\":4333:4399  TransferHelper.safeTransferFrom(tokenB, msg.sender, pair, amountB) */\n      jump\t// in\n    tag_168:\n        /* \"Uniswap/contracts/UniswapV2Router02.sol\":4480:4484  pair */\n      dup1\n        /* \"Uniswap/contracts/UniswapV2Router02.sol\":4465:4490  IUniswapV2Pair(pair).mint */\n      0xffffffffffffffffffffffffffffffffffffffff\n      and\n      0x6a627842\n        /* \"Uniswap/contracts/UniswapV2Router02.sol\":4491:4493  to */\n      dup9\n        /* \"Uniswap/contracts/UniswapV2Router02.sol\":4465:4494  IUniswapV2Pair(pair).mint(to) */\n      mload(0x40)\n      dup3\n      0xffffffff\n      and\n      0xe0\n      shl\n      dup2\n      mstore\n      0x04\n      add\n      tag_169\n      swap2\n      swap1\n      tag_52\n      jump\t// in\n    tag_169:\n      0x20\n      mload(0x40)\n      dup1\n      dup4\n      sub\n      dup2\n      0x00\n      dup8\n      gas\n      call\n      iszero\n      dup1\n      iszero\n      tag_171\n      jumpi\n      returndatasize\n      0x00\n      dup1\n      returndatacopy\n      revert(0x00, returndatasize)\n    tag_171:\n      pop\n      pop\n      pop\n      pop\n      mload(0x40)\n      returndatasize\n      not(0x1f)\n      0x1f\n      dup3\n      add\n      and\n      dup3\n      add\n      dup1\n      0x40\n      mstore\n      pop\n      dup2\n      add\n      swap1\n      tag_172\n      swap2\n      swap1\n      tag_173\n      jump\t// in\n    tag_172:\n        /* \"Uniswap/contracts/UniswapV2Router02.sol\":4453:4494  liquidity = IUniswapV2Pair(pair).mint(to) */\n      swap3\n      pop\n        /* \"Uniswap/contracts/UniswapV2Router02.sol\":4004:4501  {... */\n      pop\n        /* \"Uniswap/contracts/UniswapV2Router02.sol\":3681:4501  function addLiquidity(... */\n      pop\n      swap9\n      pop\n      swap9\n      pop\n      swap9\n      swap6\n      pop\n      pop\n      pop\n      pop\n      pop\n      pop\n      jump\t// out\n        /* \"Uniswap/contracts/UniswapV2Library.sol\":2262:2772  function getAmountOut(uint amountIn, uint reserveIn, uint reserveOut) internal pure returns (uint amountOut) {... */\n    tag_65:\n        /* \"Uniswap/contracts/UniswapV2Library.sol\":2355:2369  uint amountOut */\n      0x00\n        /* \"Uniswap/contracts/UniswapV2Library.sol\":2400:2401  0 */\n      dup1\n        /* \"Uniswap/contracts/UniswapV2Library.sol\":2389:2397  amountIn */\n      dup5\n        /* \"Uniswap/contracts/UniswapV2Library.sol\":2389:2401  amountIn > 0 */\n      gt\n        /* \"Uniswap/contracts/UniswapV2Library.sol\":2381:2449  require(amountIn > 0, 'UniswapV2Library: INSUFFICIENT_INPUT_AMOUNT') */\n      tag_175\n      jumpi\n      mload(0x40)\n      0x08c379a000000000000000000000000000000000000000000000000000000000\n      dup2\n      mstore\n      0x04\n      add\n      tag_176\n      swap1\n      tag_177\n      jump\t// in\n    tag_176:\n      mload(0x40)\n      dup1\n      swap2\n      sub\n      swap1\n      revert\n    tag_175:\n        /* \"Uniswap/contracts/UniswapV2Library.sol\":2479:2480  0 */\n      0x00\n        /* \"Uniswap/contracts/UniswapV2Library.sol\":2467:2476  reserveIn */\n      dup4\n        /* \"Uniswap/contracts/UniswapV2Library.sol\":2467:2480  reserveIn > 0 */\n      gt\n        /* \"Uniswap/contracts/UniswapV2Library.sol\":2467:2498  reserveIn > 0 && reserveOut > 0 */\n      dup1\n      iszero\n      tag_178\n      jumpi\n      pop\n        /* \"Uniswap/contracts/UniswapV2Library.sol\":2497:2498  0 */\n      0x00\n        /* \"Uniswap/contracts/UniswapV2Library.sol\":2484:2494  reserveOut */\n      dup3\n        /* \"Uniswap/contracts/UniswapV2Library.sol\":2484:2498  reserveOut > 0 */\n      gt\n        /* \"Uniswap/contracts/UniswapV2Library.sol\":2467:2498  reserveIn > 0 && reserveOut > 0 */\n    tag_178:\n        /* \"Uniswap/contracts/UniswapV2Library.sol\":2459:2543  require(reserveIn > 0 && reserveOut > 0, 'UniswapV2Library: INSUFFICIENT_LIQUIDITY') */\n      tag_179\n      jumpi\n      mload(0x40)\n      0x08c379a000000000000000000000000000000000000000000000000000000000\n      dup2\n      mstore\n      0x04\n      add\n      tag_180\n      swap1\n      tag_181\n      jump\t// in\n    tag_180:\n      mload(0x40)\n      dup1\n      swap2\n      sub\n      swap1\n      revert\n    tag_179:\n        /* \"Uniswap/contracts/UniswapV2Library.sol\":2553:2573  uint amountInWithFee */\n      0x00\n        /* \"Uniswap/contracts/UniswapV2Library.sol\":2576:2593  amountIn.mul(997) */\n      tag_182\n        /* \"Uniswap/contracts/UniswapV2Library.sol\":2589:2592  997 */\n      0x03e5\n        /* \"Uniswap/contracts/UniswapV2Library.sol\":2576:2584  amountIn */\n      dup7\n        /* \"Uniswap/contracts/UniswapV2Library.sol\":2576:2588  amountIn.mul */\n      tag_183\n      swap1\n        /* \"Uniswap/contracts/UniswapV2Library.sol\":2576:2593  amountIn.mul(997) */\n      swap2\n      swap1\n      0xffffffff\n      and\n      jump\t// in\n    tag_182:\n        /* \"Uniswap/contracts/UniswapV2Library.sol\":2553:2593  uint amountInWithFee = amountIn.mul(997) */\n      swap1\n      pop\n        /* \"Uniswap/contracts/UniswapV2Library.sol\":2603:2617  uint numerator */\n      0x00\n        /* \"Uniswap/contracts/UniswapV2Library.sol\":2620:2651  amountInWithFee.mul(reserveOut) */\n      tag_184\n        /* \"Uniswap/contracts/UniswapV2Library.sol\":2640:2650  reserveOut */\n      dup5\n        /* \"Uniswap/contracts/UniswapV2Library.sol\":2620:2635  amountInWithFee */\n      dup4\n        /* \"Uniswap/contracts/UniswapV2Library.sol\":2620:2639  amountInWithFee.mul */\n      tag_183\n      swap1\n        /* \"Uniswap/contracts/UniswapV2Library.sol\":2620:2651  amountInWithFee.mul(reserveOut) */\n      swap2\n      swap1\n      0xffffffff\n      and\n      jump\t// in\n    tag_184:\n        /* \"Uniswap/contracts/UniswapV2Library.sol\":2603:2651  uint numerator = amountInWithFee.mul(reserveOut) */\n      swap1\n      pop\n        /* \"Uniswap/contracts/UniswapV2Library.sol\":2661:2677  uint denominator */\n      0x00\n        /* \"Uniswap/contracts/UniswapV2Library.sol\":2680:2720  reserveIn.mul(1000).add(amountInWithFee) */\n      tag_185\n        /* \"Uniswap/contracts/UniswapV2Library.sol\":2704:2719  amountInWithFee */\n      dup4\n        /* \"Uniswap/contracts/UniswapV2Library.sol\":2680:2699  reserveIn.mul(1000) */\n      tag_186\n        /* \"Uniswap/contracts/UniswapV2Library.sol\":2694:2698  1000 */\n      0x03e8\n        /* \"Uniswap/contracts/UniswapV2Library.sol\":2680:2689  reserveIn */\n      dup10\n        /* \"Uniswap/contracts/UniswapV2Library.sol\":2680:2693  reserveIn.mul */\n      tag_183\n      swap1\n        /* \"Uniswap/contracts/UniswapV2Library.sol\":2680:2699  reserveIn.mul(1000) */\n      swap2\n      swap1\n      0xffffffff\n      and\n      jump\t// in\n    tag_186:\n        /* \"Uniswap/contracts/UniswapV2Library.sol\":2680:2703  reserveIn.mul(1000).add */\n      tag_187\n      swap1\n        /* \"Uniswap/contracts/UniswapV2Library.sol\":2680:2720  reserveIn.mul(1000).add(amountInWithFee) */\n      swap2\n      swap1\n      0xffffffff\n      and\n      jump\t// in\n    tag_185:\n        /* \"Uniswap/contracts/UniswapV2Library.sol\":2661:2720  uint denominator = reserveIn.mul(1000).add(amountInWithFee) */\n      swap1\n      pop\n        /* \"Uniswap/contracts/UniswapV2Library.sol\":2754:2765  denominator */\n      dup1\n        /* \"Uniswap/contracts/UniswapV2Library.sol\":2742:2751  numerator */\n      dup3\n        /* \"Uniswap/contracts/UniswapV2Library.sol\":2742:2765  numerator / denominator */\n      tag_188\n      swap2\n      swap1\n      tag_189\n      jump\t// in\n    tag_188:\n        /* \"Uniswap/contracts/UniswapV2Library.sol\":2730:2765  amountOut = numerator / denominator */\n      swap4\n      pop\n        /* \"Uniswap/contracts/UniswapV2Library.sol\":2371:2772  {... */\n      pop\n      pop\n      pop\n        /* \"Uniswap/contracts/UniswapV2Library.sol\":2262:2772  function getAmountOut(uint amountIn, uint reserveIn, uint reserveOut) internal pure returns (uint amountOut) {... */\n      swap4\n      swap3\n      pop\n      pop\n      pop\n      jump\t// out\n        /* \"Uniswap/contracts/UniswapV2Library.sol\":4047:4571  function getAmountsIn(address factory, uint amountOut, address[] memory path) internal view returns (uint[] memory amounts) {... */\n    tag_68:\n        /* \"Uniswap/contracts/UniswapV2Library.sol\":4148:4169  uint[] memory amounts */\n      0x60\n        /* \"Uniswap/contracts/UniswapV2Library.sol\":4204:4205  2 */\n      0x02\n        /* \"Uniswap/contracts/UniswapV2Library.sol\":4189:4193  path */\n      dup3\n        /* \"Uniswap/contracts/UniswapV2Library.sol\":4189:4200  path.length */\n      mload\n        /* \"Uniswap/contracts/UniswapV2Library.sol\":4189:4205  path.length >= 2 */\n      lt\n      iszero\n        /* \"Uniswap/contracts/UniswapV2Library.sol\":4181:4240  require(path.length >= 2, 'UniswapV2Library: INVALID_PATH') */\n      tag_191\n      jumpi\n      mload(0x40)\n      0x08c379a000000000000000000000000000000000000000000000000000000000\n      dup2\n      mstore\n      0x04\n      add\n      tag_192\n      swap1\n      tag_193\n      jump\t// in\n    tag_192:\n      mload(0x40)\n      dup1\n      swap2\n      sub\n      swap1\n      revert\n    tag_191:\n        /* \"Uniswap/contracts/UniswapV2Library.sol\":4271:4275  path */\n      dup2\n        /* \"Uniswap/contracts/UniswapV2Library.sol\":4271:4282  path.length */\n      mload\n        /* \"Uniswap/contracts/UniswapV2Library.sol\":4260:4283  new uint[](path.length) */\n      0xffffffffffffffff\n      dup2\n      gt\n      iszero\n      tag_194\n      jumpi\n      tag_195\n      tag_196\n      jump\t// in\n    tag_195:\n    tag_194:\n      mload(0x40)\n      swap1\n      dup1\n      dup3\n      mstore\n      dup1\n      0x20\n      mul\n      0x20\n      add\n      dup3\n      add\n      0x40\n      mstore\n      dup1\n      iszero\n      tag_197\n      jumpi\n      dup2\n      0x20\n      add\n      0x20\n      dup3\n      mul\n      dup1\n      calldatasize\n      dup4\n      calldatacopy\n      dup1\n      dup3\n      add\n      swap2\n      pop\n      pop\n      swap1\n      pop\n    tag_197:\n      pop\n        /* \"Uniswap/contracts/UniswapV2Library.sol\":4250:4283  amounts = new uint[](path.length) */\n      swap1\n      pop\n        /* \"Uniswap/contracts/UniswapV2Library.sol\":4323:4332  amountOut */\n      dup3\n        /* \"Uniswap/contracts/UniswapV2Library.sol\":4293:4300  amounts */\n      dup2\n        /* \"Uniswap/contracts/UniswapV2Library.sol\":4318:4319  1 */\n      0x01\n        /* \"Uniswap/contracts/UniswapV2Library.sol\":4301:4308  amounts */\n      dup4\n        /* \"Uniswap/contracts/UniswapV2Library.sol\":4301:4315  amounts.length */\n      mload\n        /* \"Uniswap/contracts/UniswapV2Library.sol\":4301:4319  amounts.length - 1 */\n      tag_198\n      swap2\n      swap1\n      tag_77\n      jump\t// in\n    tag_198:\n        /* \"Uniswap/contracts/UniswapV2Library.sol\":4293:4320  amounts[amounts.length - 1] */\n      dup2\n      mload\n      dup2\n      lt\n      tag_199\n      jumpi\n      tag_200\n      tag_80\n      jump\t// in\n    tag_200:\n    tag_199:\n      0x20\n      mul\n      0x20\n      add\n      add\n        /* \"Uniswap/contracts/UniswapV2Library.sol\":4293:4332  amounts[amounts.length - 1] = amountOut */\n      dup2\n      dup2\n      mstore\n      pop\n      pop\n        /* \"Uniswap/contracts/UniswapV2Library.sol\":4347:4353  uint i */\n      0x00\n        /* \"Uniswap/contracts/UniswapV2Library.sol\":4370:4371  1 */\n      0x01\n        /* \"Uniswap/contracts/UniswapV2Library.sol\":4356:4360  path */\n      dup4\n        /* \"Uniswap/contracts/UniswapV2Library.sol\":4356:4367  path.length */\n      mload\n        /* \"Uniswap/contracts/UniswapV2Library.sol\":4356:4371  path.length - 1 */\n      tag_204\n      swap2\n      swap1\n      tag_77\n      jump\t// in\n    tag_204:\n        /* \"Uniswap/contracts/UniswapV2Library.sol\":4347:4371  uint i = path.length - 1 */\n      swap1\n      pop\n        /* \"Uniswap/contracts/UniswapV2Library.sol\":4342:4565  for (uint i = path.length - 1; i > 0; i--) {... */\n    tag_201:\n        /* \"Uniswap/contracts/UniswapV2Library.sol\":4377:4378  0 */\n      0x00\n        /* \"Uniswap/contracts/UniswapV2Library.sol\":4373:4374  i */\n      dup2\n        /* \"Uniswap/contracts/UniswapV2Library.sol\":4373:4378  i > 0 */\n      gt\n        /* \"Uniswap/contracts/UniswapV2Library.sol\":4342:4565  for (uint i = path.length - 1; i > 0; i--) {... */\n      iszero\n      tag_202\n      jumpi\n        /* \"Uniswap/contracts/UniswapV2Library.sol\":4400:4414  uint reserveIn */\n      0x00\n        /* \"Uniswap/contracts/UniswapV2Library.sol\":4416:4431  uint reserveOut */\n      dup1\n        /* \"Uniswap/contracts/UniswapV2Library.sol\":4435:4477  getReserves(factory, path[i - 1], path[i]) */\n      tag_205\n        /* \"Uniswap/contracts/UniswapV2Library.sol\":4447:4454  factory */\n      dup8\n        /* \"Uniswap/contracts/UniswapV2Library.sol\":4456:4460  path */\n      dup7\n        /* \"Uniswap/contracts/UniswapV2Library.sol\":4465:4466  1 */\n      0x01\n        /* \"Uniswap/contracts/UniswapV2Library.sol\":4461:4462  i */\n      dup7\n        /* \"Uniswap/contracts/UniswapV2Library.sol\":4461:4466  i - 1 */\n      tag_206\n      swap2\n      swap1\n      tag_77\n      jump\t// in\n    tag_206:\n        /* \"Uniswap/contracts/UniswapV2Library.sol\":4456:4467  path[i - 1] */\n      dup2\n      mload\n      dup2\n      lt\n      tag_207\n      jumpi\n      tag_208\n      tag_80\n      jump\t// in\n    tag_208:\n    tag_207:\n      0x20\n      mul\n      0x20\n      add\n      add\n      mload\n        /* \"Uniswap/contracts/UniswapV2Library.sol\":4469:4473  path */\n      dup8\n        /* \"Uniswap/contracts/UniswapV2Library.sol\":4474:4475  i */\n      dup7\n        /* \"Uniswap/contracts/UniswapV2Library.sol\":4469:4476  path[i] */\n      dup2\n      mload\n      dup2\n      lt\n      tag_209\n      jumpi\n      tag_210\n      tag_80\n      jump\t// in\n    tag_210:\n    tag_209:\n      0x20\n      mul\n      0x20\n      add\n      add\n      mload\n        /* \"Uniswap/contracts/UniswapV2Library.sol\":4435:4446  getReserves */\n      tag_211\n        /* \"Uniswap/contracts/UniswapV2Library.sol\":4435:4477  getReserves(factory, path[i - 1], path[i]) */\n      jump\t// in\n    tag_205:\n        /* \"Uniswap/contracts/UniswapV2Library.sol\":4399:4477  (uint reserveIn, uint reserveOut) = getReserves(factory, path[i - 1], path[i]) */\n      swap2\n      pop\n      swap2\n      pop\n        /* \"Uniswap/contracts/UniswapV2Library.sol\":4508:4554  getAmountIn(amounts[i], reserveIn, reserveOut) */\n      tag_212\n        /* \"Uniswap/contracts/UniswapV2Library.sol\":4520:4527  amounts */\n      dup5\n        /* \"Uniswap/contracts/UniswapV2Library.sol\":4528:4529  i */\n      dup5\n        /* \"Uniswap/contracts/UniswapV2Library.sol\":4520:4530  amounts[i] */\n      dup2\n      mload\n      dup2\n      lt\n      tag_213\n      jumpi\n      tag_214\n      tag_80\n      jump\t// in\n    tag_214:\n    tag_213:\n      0x20\n      mul\n      0x20\n      add\n      add\n      mload\n        /* \"Uniswap/contracts/UniswapV2Library.sol\":4532:4541  reserveIn */\n      dup4\n        /* \"Uniswap/contracts/UniswapV2Library.sol\":4543:4553  reserveOut */\n      dup4\n        /* \"Uniswap/contracts/UniswapV2Library.sol\":4508:4519  getAmountIn */\n      tag_104\n        /* \"Uniswap/contracts/UniswapV2Library.sol\":4508:4554  getAmountIn(amounts[i], reserveIn, reserveOut) */\n      jump\t// in\n    tag_212:\n        /* \"Uniswap/contracts/UniswapV2Library.sol\":4491:4498  amounts */\n      dup5\n        /* \"Uniswap/contracts/UniswapV2Library.sol\":4503:4504  1 */\n      0x01\n        /* \"Uniswap/contracts/UniswapV2Library.sol\":4499:4500  i */\n      dup6\n        /* \"Uniswap/contracts/UniswapV2Library.sol\":4499:4504  i - 1 */\n      tag_215\n      swap2\n      swap1\n      tag_77\n      jump\t// in\n    tag_215:\n        /* \"Uniswap/contracts/UniswapV2Library.sol\":4491:4505  amounts[i - 1] */\n      dup2\n      mload\n      dup2\n      lt\n      tag_216\n      jumpi\n      tag_217\n      tag_80\n      jump\t// in\n    tag_217:\n    tag_216:\n      0x20\n      mul\n      0x20\n      add\n      add\n        /* \"Uniswap/contracts/UniswapV2Library.sol\":4491:4554  amounts[i - 1] = getAmountIn(amounts[i], reserveIn, reserveOut) */\n      dup2\n      dup2\n      mstore\n      pop\n      pop\n        /* \"Uniswap/contracts/UniswapV2Library.sol\":4385:4565  {... */\n      pop\n      pop\n        /* \"Uniswap/contracts/UniswapV2Library.sol\":4380:4383  i-- */\n      dup1\n      dup1\n      tag_218\n      swap1\n      tag_219\n      jump\t// in\n    tag_218:\n      swap2\n      pop\n      pop\n        /* \"Uniswap/contracts/UniswapV2Library.sol\":4342:4565  for (uint i = path.length - 1; i > 0; i--) {... */\n      jump(tag_201)\n    tag_202:\n      pop\n        /* \"Uniswap/contracts/UniswapV2Library.sol\":4047:4571  function getAmountsIn(address factory, uint amountOut, address[] memory path) internal view returns (uint[] memory amounts) {... */\n      swap4\n      swap3\n      pop\n      pop\n      pop\n      jump\t// out\n        /* \"Uniswap/contracts/UniswapV2Library.sol\":3466:3969  function getAmountsOut(address factory, uint amountIn, address[] memory path) internal view returns (uint[] memory amounts) {... */\n    tag_75:\n        /* \"Uniswap/contracts/UniswapV2Library.sol\":3567:3588  uint[] memory amounts */\n      0x60\n        /* \"Uniswap/contracts/UniswapV2Library.sol\":3623:3624  2 */\n      0x02\n        /* \"Uniswap/contracts/UniswapV2Library.sol\":3608:3612  path */\n      dup3\n        /* \"Uniswap/contracts/UniswapV2Library.sol\":3608:3619  path.length */\n      mload\n        /* \"Uniswap/contracts/UniswapV2Library.sol\":3608:3624  path.length >= 2 */\n      lt\n      iszero\n        /* \"Uniswap/contracts/UniswapV2Library.sol\":3600:3659  require(path.length >= 2, 'UniswapV2Library: INVALID_PATH') */\n      tag_221\n      jumpi\n      mload(0x40)\n      0x08c379a000000000000000000000000000000000000000000000000000000000\n      dup2\n      mstore\n      0x04\n      add\n      tag_222\n      swap1\n      tag_193\n      jump\t// in\n    tag_222:\n      mload(0x40)\n      dup1\n      swap2\n      sub\n      swap1\n      revert\n    tag_221:\n        /* \"Uniswap/contracts/UniswapV2Library.sol\":3690:3694  path */\n      dup2\n        /* \"Uniswap/contracts/UniswapV2Library.sol\":3690:3701  path.length */\n      mload\n        /* \"Uniswap/contracts/UniswapV2Library.sol\":3679:3702  new uint[](path.length) */\n      0xffffffffffffffff\n      dup2\n      gt\n      iszero\n      tag_223\n      jumpi\n      tag_224\n      tag_196\n      jump\t// in\n    tag_224:\n    tag_223:\n      mload(0x40)\n      swap1\n      dup1\n      dup3\n      mstore\n      dup1\n      0x20\n      mul\n      0x20\n      add\n      dup3\n      add\n      0x40\n      mstore\n      dup1\n      iszero\n      tag_225\n      jumpi\n      dup2\n      0x20\n      add\n      0x20\n      dup3\n      mul\n      dup1\n      calldatasize\n      dup4\n      calldatacopy\n      dup1\n      dup3\n      add\n      swap2\n      pop\n      pop\n      swap1\n      pop\n    tag_225:\n      pop\n        /* \"Uniswap/contracts/UniswapV2Library.sol\":3669:3702  amounts = new uint[](path.length) */\n      swap1\n      pop\n        /* \"Uniswap/contracts/UniswapV2Library.sol\":3725:3733  amountIn */\n      dup3\n        /* \"Uniswap/contracts/UniswapV2Library.sol\":3712:3719  amounts */\n      dup2\n        /* \"Uniswap/contracts/UniswapV2Library.sol\":3720:3721  0 */\n      0x00\n        /* \"Uniswap/contracts/UniswapV2Library.sol\":3712:3722  amounts[0] */\n      dup2\n      mload\n      dup2\n      lt\n      tag_226\n      jumpi\n      tag_227\n      tag_80\n      jump\t// in\n    tag_227:\n    tag_226:\n      0x20\n      mul\n      0x20\n      add\n      add\n        /* \"Uniswap/contracts/UniswapV2Library.sol\":3712:3733  amounts[0] = amountIn */\n      dup2\n      dup2\n      mstore\n      pop\n      pop\n        /* \"Uniswap/contracts/UniswapV2Library.sol\":3748:3754  uint i */\n      0x00\n        /* \"Uniswap/contracts/UniswapV2Library.sol\":3743:3963  for (uint i; i < path.length - 1; i++) {... */\n    tag_228:\n        /* \"Uniswap/contracts/UniswapV2Library.sol\":3774:3775  1 */\n      0x01\n        /* \"Uniswap/contracts/UniswapV2Library.sol\":3760:3764  path */\n      dup4\n        /* \"Uniswap/contracts/UniswapV2Library.sol\":3760:3771  path.length */\n      mload\n        /* \"Uniswap/contracts/UniswapV2Library.sol\":3760:3775  path.length - 1 */\n      tag_231\n      swap2\n      swap1\n      tag_77\n      jump\t// in\n    tag_231:\n        /* \"Uniswap/contracts/UniswapV2Library.sol\":3756:3757  i */\n      dup2\n        /* \"Uniswap/contracts/UniswapV2Library.sol\":3756:3775  i < path.length - 1 */\n      lt\n        /* \"Uniswap/contracts/UniswapV2Library.sol\":3743:3963  for (uint i; i < path.length - 1; i++) {... */\n      iszero\n      tag_229\n      jumpi\n        /* \"Uniswap/contracts/UniswapV2Library.sol\":3797:3811  uint reserveIn */\n      0x00\n        /* \"Uniswap/contracts/UniswapV2Library.sol\":3813:3828  uint reserveOut */\n      dup1\n        /* \"Uniswap/contracts/UniswapV2Library.sol\":3832:3874  getReserves(factory, path[i], path[i + 1]) */\n      tag_232\n        /* \"Uniswap/contracts/UniswapV2Library.sol\":3844:3851  factory */\n      dup8\n        /* \"Uniswap/contracts/UniswapV2Library.sol\":3853:3857  path */\n      dup7\n        /* \"Uniswap/contracts/UniswapV2Library.sol\":3858:3859  i */\n      dup6\n        /* \"Uniswap/contracts/UniswapV2Library.sol\":3853:3860  path[i] */\n      dup2\n      mload\n      dup2\n      lt\n      tag_233\n      jumpi\n      tag_234\n      tag_80\n      jump\t// in\n    tag_234:\n    tag_233:\n      0x20\n      mul\n      0x20\n      add\n      add\n      mload\n        /* \"Uniswap/contracts/UniswapV2Library.sol\":3862:3866  path */\n      dup8\n        /* \"Uniswap/contracts/UniswapV2Library.sol\":3871:3872  1 */\n      0x01\n        /* \"Uniswap/contracts/UniswapV2Library.sol\":3867:3868  i */\n      dup8\n        /* \"Uniswap/contracts/UniswapV2Library.sol\":3867:3872  i + 1 */\n      tag_235\n      swap2\n      swap1\n      tag_236\n      jump\t// in\n    tag_235:\n        /* \"Uniswap/contracts/UniswapV2Library.sol\":3862:3873  path[i + 1] */\n      dup2\n      mload\n      dup2\n      lt\n      tag_237\n      jumpi\n      tag_238\n      tag_80\n      jump\t// in\n    tag_238:\n    tag_237:\n      0x20\n      mul\n      0x20\n      add\n      add\n      mload\n        /* \"Uniswap/contracts/UniswapV2Library.sol\":3832:3843  getReserves */\n      tag_211\n        /* \"Uniswap/contracts/UniswapV2Library.sol\":3832:3874  getReserves(factory, path[i], path[i + 1]) */\n      jump\t// in\n    tag_232:\n        /* \"Uniswap/contracts/UniswapV2Library.sol\":3796:3874  (uint reserveIn, uint reserveOut) = getReserves(factory, path[i], path[i + 1]) */\n      swap2\n      pop\n      swap2\n      pop\n        /* \"Uniswap/contracts/UniswapV2Library.sol\":3905:3952  getAmountOut(amounts[i], reserveIn, reserveOut) */\n      tag_239\n        /* \"Uniswap/contracts/UniswapV2Library.sol\":3918:3925  amounts */\n      dup5\n        /* \"Uniswap/contracts/UniswapV2Library.sol\":3926:3927  i */\n      dup5\n        /* \"Uniswap/contracts/UniswapV2Library.sol\":3918:3928  amounts[i] */\n      dup2\n      mload\n      dup2\n      lt\n      tag_240\n      jumpi\n      tag_241\n      tag_80\n      jump\t// in\n    tag_241:\n    tag_240:\n      0x20\n      mul\n      0x20\n      add\n      add\n      mload\n        /* \"Uniswap/contracts/UniswapV2Library.sol\":3930:3939  reserveIn */\n      dup4\n        /* \"Uniswap/contracts/UniswapV2Library.sol\":3941:3951  reserveOut */\n      dup4\n        /* \"Uniswap/contracts/UniswapV2Library.sol\":3905:3917  getAmountOut */\n      tag_65\n        /* \"Uniswap/contracts/UniswapV2Library.sol\":3905:3952  getAmountOut(amounts[i], reserveIn, reserveOut) */\n      jump\t// in\n    tag_239:\n        /* \"Uniswap/contracts/UniswapV2Library.sol\":3888:3895  amounts */\n      dup5\n        /* \"Uniswap/contracts/UniswapV2Library.sol\":3900:3901  1 */\n      0x01\n        /* \"Uniswap/contracts/UniswapV2Library.sol\":3896:3897  i */\n      dup6\n        /* \"Uniswap/contracts/UniswapV2Library.sol\":3896:3901  i + 1 */\n      tag_242\n      swap2\n      swap1\n      tag_236\n      jump\t// in\n    tag_242:\n        /* \"Uniswap/contracts/UniswapV2Library.sol\":3888:3902  amounts[i + 1] */\n      dup2\n      mload\n      dup2\n      lt\n      tag_243\n      jumpi\n      tag_244\n      tag_80\n      jump\t// in\n    tag_244:\n    tag_243:\n      0x20\n      mul\n      0x20\n      add\n      add\n        /* \"Uniswap/contracts/UniswapV2Library.sol\":3888:3952  amounts[i + 1] = getAmountOut(amounts[i], reserveIn, reserveOut) */\n      dup2\n      dup2\n      mstore\n      pop\n      pop\n        /* \"Uniswap/contracts/UniswapV2Library.sol\":3782:3963  {... */\n      pop\n      pop\n        /* \"Uniswap/contracts/UniswapV2Library.sol\":3777:3780  i++ */\n      dup1\n      dup1\n      0x01\n      add\n      swap2\n      pop\n      pop\n        /* \"Uniswap/contracts/UniswapV2Library.sol\":3743:3963  for (uint i; i < path.length - 1; i++) {... */\n      jump(tag_228)\n    tag_229:\n      pop\n        /* \"Uniswap/contracts/UniswapV2Library.sol\":3466:3969  function getAmountsOut(address factory, uint amountIn, address[] memory path) internal view returns (uint[] memory amounts) {... */\n      swap4\n      swap3\n      pop\n      pop\n      pop\n      jump\t// out\n        /* \"Uniswap/contracts/UniswapV2Library.sol\":796:1275  function pairFor(address factory, address tokenA, address tokenB) internal pure returns (address pair) {... */\n    tag_96:\n        /* \"Uniswap/contracts/UniswapV2Library.sol\":885:897  address pair */\n      0x00\n        /* \"Uniswap/contracts/UniswapV2Library.sol\":910:924  address token0 */\n      dup1\n        /* \"Uniswap/contracts/UniswapV2Library.sol\":926:940  address token1 */\n      0x00\n        /* \"Uniswap/contracts/UniswapV2Library.sol\":944:970  sortTokens(tokenA, tokenB) */\n      tag_246\n        /* \"Uniswap/contracts/UniswapV2Library.sol\":955:961  tokenA */\n      dup6\n        /* \"Uniswap/contracts/UniswapV2Library.sol\":963:969  tokenB */\n      dup6\n        /* \"Uniswap/contracts/UniswapV2Library.sol\":944:954  sortTokens */\n      tag_149\n        /* \"Uniswap/contracts/UniswapV2Library.sol\":944:970  sortTokens(tokenA, tokenB) */\n      jump\t// in\n    tag_246:\n        /* \"Uniswap/contracts/UniswapV2Library.sol\":909:970  (address token0, address token1) = sortTokens(tokenA, tokenB) */\n      swap2\n      pop\n      swap2\n      pop\n        /* \"Uniswap/contracts/UniswapV2Library.sol\":1077:1084  factory */\n      dup6\n        /* \"Uniswap/contracts/UniswapV2Library.sol\":1129:1135  token0 */\n      dup3\n        /* \"Uniswap/contracts/UniswapV2Library.sol\":1137:1143  token1 */\n      dup3\n        /* \"Uniswap/contracts/UniswapV2Library.sol\":1112:1144  abi.encodePacked(token0, token1) */\n      add(0x20, mload(0x40))\n      tag_247\n      swap3\n      swap2\n      swap1\n      tag_248\n      jump\t// in\n    tag_247:\n      mload(0x40)\n      0x20\n      dup2\n      dup4\n      sub\n      sub\n      dup2\n      mstore\n      swap1\n      0x40\n      mstore\n        /* \"Uniswap/contracts/UniswapV2Library.sol\":1102:1145  keccak256(abi.encodePacked(token0, token1)) */\n      dup1\n      mload\n      swap1\n      0x20\n      add\n      keccak256\n        /* \"Uniswap/contracts/UniswapV2Library.sol\":1018:1264  abi.encodePacked(... */\n      add(0x20, mload(0x40))\n      tag_249\n      swap3\n      swap2\n      swap1\n      tag_250\n      jump\t// in\n    tag_249:\n      mload(0x40)\n      0x20\n      dup2\n      dup4\n      sub\n      sub\n      dup2\n      mstore\n      swap1\n      0x40\n      mstore\n        /* \"Uniswap/contracts/UniswapV2Library.sol\":1008:1265  keccak256(abi.encodePacked(... */\n      dup1\n      mload\n      swap1\n      0x20\n      add\n      keccak256\n        /* \"Uniswap/contracts/UniswapV2Library.sol\":1003:1266  uint(keccak256(abi.encodePacked(... */\n      0x00\n      shr\n        /* \"Uniswap/contracts/UniswapV2Library.sol\":980:1268  pair = address(uint160(uint(keccak256(abi.encodePacked(... */\n      swap3\n      pop\n        /* \"Uniswap/contracts/UniswapV2Library.sol\":899:1275  {... */\n      pop\n      pop\n        /* \"Uniswap/contracts/UniswapV2Library.sol\":796:1275  function pairFor(address factory, address tokenA, address tokenB) internal pure returns (address pair) {... */\n      swap4\n      swap3\n      pop\n      pop\n      pop\n      jump\t// out\n        /* \"Uniswap/contracts/libraries/TransferHelper.sol\":1096:1582  function safeTransferFrom(... */\n    tag_99:\n        /* \"Uniswap/contracts/libraries/TransferHelper.sol\":1314:1326  bool success */\n      0x00\n        /* \"Uniswap/contracts/libraries/TransferHelper.sol\":1328:1345  bytes memory data */\n      dup1\n        /* \"Uniswap/contracts/libraries/TransferHelper.sol\":1349:1354  token */\n      dup6\n        /* \"Uniswap/contracts/libraries/TransferHelper.sol\":1349:1359  token.call */\n      0xffffffffffffffffffffffffffffffffffffffff\n      and\n        /* \"Uniswap/contracts/libraries/TransferHelper.sol\":1383:1393  0x23b872dd */\n      0x23b872dd\n        /* \"Uniswap/contracts/libraries/TransferHelper.sol\":1395:1399  from */\n      dup7\n        /* \"Uniswap/contracts/libraries/TransferHelper.sol\":1401:1403  to */\n      dup7\n        /* \"Uniswap/contracts/libraries/TransferHelper.sol\":1405:1410  value */\n      dup7\n        /* \"Uniswap/contracts/libraries/TransferHelper.sol\":1360:1411  abi.encodeWithSelector(0x23b872dd, from, to, value) */\n      add(0x24, mload(0x40))\n      tag_252\n      swap4\n      swap3\n      swap2\n      swap1\n      tag_138\n      jump\t// in\n    tag_252:\n      mload(0x40)\n      0x20\n      dup2\n      dup4\n      sub\n      sub\n      dup2\n      mstore\n      swap1\n      0x40\n      mstore\n      swap1\n      0xe0\n      shl\n      0x20\n      dup3\n      add\n      dup1\n      mload\n      0xffffffffffffffffffffffffffffffffffffffffffffffffffffffff\n      dup4\n      dup2\n      dup4\n      and\n      or\n      dup4\n      mstore\n      pop\n      pop\n      pop\n      pop\n        /* \"Uniswap/contracts/libraries/TransferHelper.sol\":1349:1412  token.call(abi.encodeWithSelector(0x23b872dd, from, to, value)) */\n      mload(0x40)\n      tag_253\n      swap2\n      swap1\n      tag_254\n      jump\t// in\n    tag_253:\n      0x00\n      mload(0x40)\n      dup1\n      dup4\n      sub\n      dup2\n      0x00\n      dup7\n      gas\n      call\n      swap2\n      pop\n      pop\n      returndatasize\n      dup1\n      0x00\n      dup2\n      eq\n      tag_257\n      jumpi\n      mload(0x40)\n      swap2\n      pop\n      and(add(returndatasize, 0x3f), not(0x1f))\n      dup3\n      add\n      0x40\n      mstore\n      returndatasize\n      dup3\n      mstore\n      returndatasize\n      0x00\n      0x20\n      dup5\n      add\n      returndatacopy\n      jump(tag_256)\n    tag_257:\n      0x60\n      swap2\n      pop\n    tag_256:\n      pop\n        /* \"Uniswap/contracts/libraries/TransferHelper.sol\":1313:1412  (bool success, bytes memory data) = token.call(abi.encodeWithSelector(0x23b872dd, from, to, value)) */\n      swap2\n      pop\n      swap2\n      pop\n        /* \"Uniswap/contracts/libraries/TransferHelper.sol\":1443:1450  success */\n      dup2\n        /* \"Uniswap/contracts/libraries/TransferHelper.sol\":1443:1500  success && (data.length == 0 || abi.decode(data, (bool))) */\n      dup1\n      iszero\n      tag_258\n      jumpi\n      pop\n        /* \"Uniswap/contracts/libraries/TransferHelper.sol\":1470:1471  0 */\n      0x00\n        /* \"Uniswap/contracts/libraries/TransferHelper.sol\":1455:1459  data */\n      dup2\n        /* \"Uniswap/contracts/libraries/TransferHelper.sol\":1455:1466  data.length */\n      mload\n        /* \"Uniswap/contracts/libraries/TransferHelper.sol\":1455:1471  data.length == 0 */\n      eq\n        /* \"Uniswap/contracts/libraries/TransferHelper.sol\":1455:1499  data.length == 0 || abi.decode(data, (bool)) */\n      dup1\n      tag_259\n      jumpi\n      pop\n        /* \"Uniswap/contracts/libraries/TransferHelper.sol\":1486:1490  data */\n      dup1\n        /* \"Uniswap/contracts/libraries/TransferHelper.sol\":1475:1499  abi.decode(data, (bool)) */\n      dup1\n      0x20\n      add\n      swap1\n      mload\n      dup2\n      add\n      swap1\n      tag_260\n      swap2\n      swap1\n      tag_142\n      jump\t// in\n    tag_260:\n        /* \"Uniswap/contracts/libraries/TransferHelper.sol\":1455:1499  data.length == 0 || abi.decode(data, (bool)) */\n    tag_259:\n        /* \"Uniswap/contracts/libraries/TransferHelper.sol\":1443:1500  success && (data.length == 0 || abi.decode(data, (bool))) */\n    tag_258:\n        /* \"Uniswap/contracts/libraries/TransferHelper.sol\":1422:1575  require(... */\n      tag_261\n      jumpi\n      mload(0x40)\n      0x08c379a000000000000000000000000000000000000000000000000000000000\n      dup2\n      mstore\n      0x04\n      add\n      tag_262\n      swap1\n      tag_263\n      jump\t// in\n    tag_262:\n      mload(0x40)\n      dup1\n      swap2\n      sub\n      swap1\n      revert\n    tag_261:\n        /* \"Uniswap/contracts/libraries/TransferHelper.sol\":1225:1582  {... */\n      pop\n      pop\n        /* \"Uniswap/contracts/libraries/TransferHelper.sol\":1096:1582  function safeTransferFrom(... */\n      pop\n      pop\n      pop\n      pop\n      jump\t// out\n        /* \"Uniswap/contracts/UniswapV2Router02.sol\":5551:6505  function _swap(uint[] memory amounts, address[] memory path, address _to) internal virtual {... */\n    tag_101:\n        /* \"Uniswap/contracts/UniswapV2Router02.sol\":5657:5663  uint i */\n      0x00\n        /* \"Uniswap/contracts/UniswapV2Router02.sol\":5652:6499  for (uint i; i < path.length - 1; i++) {... */\n    tag_265:\n        /* \"Uniswap/contracts/UniswapV2Router02.sol\":5683:5684  1 */\n      0x01\n        /* \"Uniswap/contracts/UniswapV2Router02.sol\":5669:5673  path */\n      dup4\n        /* \"Uniswap/contracts/UniswapV2Router02.sol\":5669:5680  path.length */\n      mload\n        /* \"Uniswap/contracts/UniswapV2Router02.sol\":5669:5684  path.length - 1 */\n      tag_268\n      swap2\n      swap1\n      tag_77\n      jump\t// in\n    tag_268:\n        /* \"Uniswap/contracts/UniswapV2Router02.sol\":5665:5666  i */\n      dup2\n        /* \"Uniswap/contracts/UniswapV2Router02.sol\":5665:5684  i < path.length - 1 */\n      lt\n        /* \"Uniswap/contracts/UniswapV2Router02.sol\":5652:6499  for (uint i; i < path.length - 1; i++) {... */\n      iszero\n      tag_266\n      jumpi\n        /* \"Uniswap/contracts/UniswapV2Router02.sol\":5747:5760  address input */\n      0x00\n        /* \"Uniswap/contracts/UniswapV2Router02.sol\":5762:5776  address output */\n      dup1\n        /* \"Uniswap/contracts/UniswapV2Router02.sol\":5781:5785  path */\n      dup5\n        /* \"Uniswap/contracts/UniswapV2Router02.sol\":5786:5787  i */\n      dup4\n        /* \"Uniswap/contracts/UniswapV2Router02.sol\":5781:5788  path[i] */\n      dup2\n      mload\n      dup2\n      lt\n      tag_269\n      jumpi\n      tag_270\n      tag_80\n      jump\t// in\n    tag_270:\n    tag_269:\n      0x20\n      mul\n      0x20\n      add\n      add\n      mload\n        /* \"Uniswap/contracts/UniswapV2Router02.sol\":5790:5794  path */\n      dup6\n        /* \"Uniswap/contracts/UniswapV2Router02.sol\":5799:5800  1 */\n      0x01\n        /* \"Uniswap/contracts/UniswapV2Router02.sol\":5795:5796  i */\n      dup6\n        /* \"Uniswap/contracts/UniswapV2Router02.sol\":5795:5800  i + 1 */\n      tag_271\n      swap2\n      swap1\n      tag_236\n      jump\t// in\n    tag_271:\n        /* \"Uniswap/contracts/UniswapV2Router02.sol\":5790:5801  path[i + 1] */\n      dup2\n      mload\n      dup2\n      lt\n      tag_272\n      jumpi\n      tag_273\n      tag_80\n      jump\t// in\n    tag_273:\n    tag_272:\n      0x20\n      mul\n      0x20\n      add\n      add\n      mload\n        /* \"Uniswap/contracts/UniswapV2Router02.sol\":5746:5802  (address input, address output) = (path[i], path[i + 1]) */\n      swap2\n      pop\n      swap2\n      pop\n        /* \"Uniswap/contracts/UniswapV2Router02.sol\":5817:5831  address token0 */\n      0x00\n        /* \"Uniswap/contracts/UniswapV2Router02.sol\":5836:5878  UniswapV2Library.sortTokens(input, output) */\n      tag_274\n        /* \"Uniswap/contracts/UniswapV2Router02.sol\":5864:5869  input */\n      dup4\n        /* \"Uniswap/contracts/UniswapV2Router02.sol\":5871:5877  output */\n      dup4\n        /* \"Uniswap/contracts/UniswapV2Router02.sol\":5836:5863  UniswapV2Library.sortTokens */\n      tag_149\n        /* \"Uniswap/contracts/UniswapV2Router02.sol\":5836:5878  UniswapV2Library.sortTokens(input, output) */\n      jump\t// in\n    tag_274:\n        /* \"Uniswap/contracts/UniswapV2Router02.sol\":5816:5878  (address token0,) = UniswapV2Library.sortTokens(input, output) */\n      pop\n      swap1\n      pop\n        /* \"Uniswap/contracts/UniswapV2Router02.sol\":5892:5906  uint amountOut */\n      0x00\n        /* \"Uniswap/contracts/UniswapV2Router02.sol\":5909:5916  amounts */\n      dup8\n        /* \"Uniswap/contracts/UniswapV2Router02.sol\":5921:5922  1 */\n      0x01\n        /* \"Uniswap/contracts/UniswapV2Router02.sol\":5917:5918  i */\n      dup7\n        /* \"Uniswap/contracts/UniswapV2Router02.sol\":5917:5922  i + 1 */\n      tag_275\n      swap2\n      swap1\n      tag_236\n      jump\t// in\n    tag_275:\n        /* \"Uniswap/contracts/UniswapV2Router02.sol\":5909:5923  amounts[i + 1] */\n      dup2\n      mload\n      dup2\n      lt\n      tag_276\n      jumpi\n      tag_277\n      tag_80\n      jump\t// in\n    tag_277:\n    tag_276:\n      0x20\n      mul\n      0x20\n      add\n      add\n      mload\n        /* \"Uniswap/contracts/UniswapV2Router02.sol\":5892:5923  uint amountOut = amounts[i + 1] */\n      swap1\n      pop\n        /* \"Uniswap/contracts/UniswapV2Router02.sol\":5938:5953  uint amount0Out */\n      0x00\n        /* \"Uniswap/contracts/UniswapV2Router02.sol\":5955:5970  uint amount1Out */\n      dup1\n        /* \"Uniswap/contracts/UniswapV2Router02.sol\":5983:5989  token0 */\n      dup4\n        /* \"Uniswap/contracts/UniswapV2Router02.sol\":5974:5989  input == token0 */\n      0xffffffffffffffffffffffffffffffffffffffff\n      and\n        /* \"Uniswap/contracts/UniswapV2Router02.sol\":5974:5979  input */\n      dup7\n        /* \"Uniswap/contracts/UniswapV2Router02.sol\":5974:5989  input == token0 */\n      0xffffffffffffffffffffffffffffffffffffffff\n      and\n      eq\n        /* \"Uniswap/contracts/UniswapV2Router02.sol\":5974:6035  input == token0 ? (uint(0), amountOut) : (amountOut, uint(0)) */\n      tag_278\n      jumpi\n        /* \"Uniswap/contracts/UniswapV2Router02.sol\":6016:6025  amountOut */\n      dup3\n        /* \"Uniswap/contracts/UniswapV2Router02.sol\":6032:6033  0 */\n      0x00\n        /* \"Uniswap/contracts/UniswapV2Router02.sol\":5974:6035  input == token0 ? (uint(0), amountOut) : (amountOut, uint(0)) */\n      jump(tag_279)\n    tag_278:\n        /* \"Uniswap/contracts/UniswapV2Router02.sol\":5998:5999  0 */\n      0x00\n        /* \"Uniswap/contracts/UniswapV2Router02.sol\":6002:6011  amountOut */\n      dup4\n        /* \"Uniswap/contracts/UniswapV2Router02.sol\":5974:6035  input == token0 ? (uint(0), amountOut) : (amountOut, uint(0)) */\n    tag_279:\n        /* \"Uniswap/contracts/UniswapV2Router02.sol\":5937:6035  (uint amount0Out, uint amount1Out) = input == token0 ? (uint(0), amountOut) : (amountOut, uint(0)) */\n      swap2\n      pop\n      swap2\n      pop\n        /* \"Uniswap/contracts/UniswapV2Router02.sol\":6209:6219  address to */\n      0x00\n        /* \"Uniswap/contracts/UniswapV2Router02.sol\":6240:6241  2 */\n      0x02\n        /* \"Uniswap/contracts/UniswapV2Router02.sol\":6226:6230  path */\n      dup11\n        /* \"Uniswap/contracts/UniswapV2Router02.sol\":6226:6237  path.length */\n      mload\n        /* \"Uniswap/contracts/UniswapV2Router02.sol\":6226:6241  path.length - 2 */\n      tag_280\n      swap2\n      swap1\n      tag_77\n      jump\t// in\n    tag_280:\n        /* \"Uniswap/contracts/UniswapV2Router02.sol\":6222:6223  i */\n      dup9\n        /* \"Uniswap/contracts/UniswapV2Router02.sol\":6222:6241  i < path.length - 2 */\n      lt\n        /* \"Uniswap/contracts/UniswapV2Router02.sol\":6222:6304  i < path.length - 2 ? UniswapV2Library.pairFor(factory, output, path[i + 2]) : _to */\n      tag_281\n      jumpi\n        /* \"Uniswap/contracts/UniswapV2Router02.sol\":6301:6304  _to */\n      dup9\n        /* \"Uniswap/contracts/UniswapV2Router02.sol\":6222:6304  i < path.length - 2 ? UniswapV2Library.pairFor(factory, output, path[i + 2]) : _to */\n      jump(tag_282)\n    tag_281:\n        /* \"Uniswap/contracts/UniswapV2Router02.sol\":6244:6298  UniswapV2Library.pairFor(factory, output, path[i + 2]) */\n      tag_283\n        /* \"Uniswap/contracts/UniswapV2Router02.sol\":6269:6276  factory */\n      immutable(\"0x81e684302dba258ad18c3b31de9ac01448b470fcf6136d2ace7eb5c581a909a4\")\n        /* \"Uniswap/contracts/UniswapV2Router02.sol\":6278:6284  output */\n      dup8\n        /* \"Uniswap/contracts/UniswapV2Router02.sol\":6286:6290  path */\n      dup13\n        /* \"Uniswap/contracts/UniswapV2Router02.sol\":6295:6296  2 */\n      0x02\n        /* \"Uniswap/contracts/UniswapV2Router02.sol\":6291:6292  i */\n      dup13\n        /* \"Uniswap/contracts/UniswapV2Router02.sol\":6291:6296  i + 2 */\n      tag_284\n      swap2\n      swap1\n      tag_236\n      jump\t// in\n    tag_284:\n        /* \"Uniswap/contracts/UniswapV2Router02.sol\":6286:6297  path[i + 2] */\n      dup2\n      mload\n      dup2\n      lt\n      tag_285\n      jumpi\n      tag_286\n      tag_80\n      jump\t// in\n    tag_286:\n    tag_285:\n      0x20\n      mul\n      0x20\n      add\n      add\n      mload\n        /* \"Uniswap/contracts/UniswapV2Router02.sol\":6244:6268  UniswapV2Library.pairFor */\n      tag_96\n        /* \"Uniswap/contracts/UniswapV2Router02.sol\":6244:6298  UniswapV2Library.pairFor(factory, output, path[i + 2]) */\n      jump\t// in\n    tag_283:\n        /* \"Uniswap/contracts/UniswapV2Router02.sol\":6222:6304  i < path.length - 2 ? UniswapV2Library.pairFor(factory, output, path[i + 2]) : _to */\n    tag_282:\n        /* \"Uniswap/contracts/UniswapV2Router02.sol\":6209:6304  address to = i < path.length - 2 ? UniswapV2Library.pairFor(factory, output, path[i + 2]) : _to */\n      swap1\n      pop\n        /* \"Uniswap/contracts/UniswapV2Router02.sol\":6362:6410  UniswapV2Library.pairFor(factory, input, output) */\n      tag_287\n        /* \"Uniswap/contracts/UniswapV2Router02.sol\":6387:6394  factory */\n      immutable(\"0x81e684302dba258ad18c3b31de9ac01448b470fcf6136d2ace7eb5c581a909a4\")\n        /* \"Uniswap/contracts/UniswapV2Router02.sol\":6396:6401  input */\n      dup9\n        /* \"Uniswap/contracts/UniswapV2Router02.sol\":6403:6409  output */\n      dup9\n        /* \"Uniswap/contracts/UniswapV2Router02.sol\":6362:6386  UniswapV2Library.pairFor */\n      tag_96\n        /* \"Uniswap/contracts/UniswapV2Router02.sol\":6362:6410  UniswapV2Library.pairFor(factory, input, output) */\n      jump\t// in\n    tag_287:\n        /* \"Uniswap/contracts/UniswapV2Router02.sol\":6347:6416  IUniswapV2Pair(UniswapV2Library.pairFor(factory, input, output)).swap */\n      0xffffffffffffffffffffffffffffffffffffffff\n      and\n      0x022c0d9f\n        /* \"Uniswap/contracts/UniswapV2Router02.sol\":6434:6444  amount0Out */\n      dup5\n        /* \"Uniswap/contracts/UniswapV2Router02.sol\":6446:6456  amount1Out */\n      dup5\n        /* \"Uniswap/contracts/UniswapV2Router02.sol\":6458:6460  to */\n      dup5\n        /* \"Uniswap/contracts/UniswapV2Router02.sol\":6472:6473  0 */\n      0x00\n        /* \"Uniswap/contracts/UniswapV2Router02.sol\":6462:6474  new bytes(0) */\n      0xffffffffffffffff\n      dup2\n      gt\n      iszero\n      tag_288\n      jumpi\n      tag_289\n      tag_196\n      jump\t// in\n    tag_289:\n    tag_288:\n      mload(0x40)\n      swap1\n      dup1\n      dup3\n      mstore\n      dup1\n      0x1f\n      add\n      not(0x1f)\n      and\n      0x20\n      add\n      dup3\n      add\n      0x40\n      mstore\n      dup1\n      iszero\n      tag_290\n      jumpi\n      dup2\n      0x20\n      add\n      0x01\n      dup3\n      mul\n      dup1\n      calldatasize\n      dup4\n      calldatacopy\n      dup1\n      dup3\n      add\n      swap2\n      pop\n      pop\n      swap1\n      pop\n    tag_290:\n      pop\n        /* \"Uniswap/contracts/UniswapV2Router02.sol\":6347:6488  IUniswapV2Pair(UniswapV2Library.pairFor(factory, input, output)).swap(... */\n      mload(0x40)\n      dup6\n      0xffffffff\n      and\n      0xe0\n      shl\n      dup2\n      mstore\n      0x04\n      add\n      tag_291\n      swap5\n      swap4\n      swap3\n      swap2\n      swap1\n      tag_292\n      jump\t// in\n    tag_291:\n      0x00\n      mload(0x40)\n      dup1\n      dup4\n      sub\n      dup2\n      0x00\n      dup8\n      dup1\n      extcodesize\n      iszero\n      dup1\n      iszero\n      tag_293\n      jumpi\n      0x00\n      dup1\n      revert\n    tag_293:\n      pop\n      gas\n      call\n      iszero\n      dup1\n      iszero\n      tag_295\n      jumpi\n      returndatasize\n      0x00\n      dup1\n      returndatacopy\n      revert(0x00, returndatasize)\n    tag_295:\n      pop\n      pop\n      pop\n      pop\n        /* \"Uniswap/contracts/UniswapV2Router02.sol\":5691:6499  {... */\n      pop\n      pop\n      pop\n      pop\n      pop\n      pop\n      pop\n        /* \"Uniswap/contracts/UniswapV2Router02.sol\":5686:5689  i++ */\n      dup1\n      dup1\n      0x01\n      add\n      swap2\n      pop\n      pop\n        /* \"Uniswap/contracts/UniswapV2Router02.sol\":5652:6499  for (uint i; i < path.length - 1; i++) {... */\n      jump(tag_265)\n    tag_266:\n      pop\n        /* \"Uniswap/contracts/UniswapV2Router02.sol\":5551:6505  function _swap(uint[] memory amounts, address[] memory path, address _to) internal virtual {... */\n      pop\n      pop\n      pop\n      jump\t// out\n        /* \"Uniswap/contracts/UniswapV2Library.sol\":2890:3356  function getAmountIn(uint amountOut, uint reserveIn, uint reserveOut) internal pure returns (uint amountIn) {... */\n    tag_104:\n        /* \"Uniswap/contracts/UniswapV2Library.sol\":2983:2996  uint amountIn */\n      0x00\n        /* \"Uniswap/contracts/UniswapV2Library.sol\":3028:3029  0 */\n      dup1\n        /* \"Uniswap/contracts/UniswapV2Library.sol\":3016:3025  amountOut */\n      dup5\n        /* \"Uniswap/contracts/UniswapV2Library.sol\":3016:3029  amountOut > 0 */\n      gt\n        /* \"Uniswap/contracts/UniswapV2Library.sol\":3008:3078  require(amountOut > 0, 'UniswapV2Library: INSUFFICIENT_OUTPUT_AMOUNT') */\n      tag_297\n      jumpi\n      mload(0x40)\n      0x08c379a000000000000000000000000000000000000000000000000000000000\n      dup2\n      mstore\n      0x04\n      add\n      tag_298\n      swap1\n      tag_299\n      jump\t// in\n    tag_298:\n      mload(0x40)\n      dup1\n      swap2\n      sub\n      swap1\n      revert\n    tag_297:\n        /* \"Uniswap/contracts/UniswapV2Library.sol\":3108:3109  0 */\n      0x00\n        /* \"Uniswap/contracts/UniswapV2Library.sol\":3096:3105  reserveIn */\n      dup4\n        /* \"Uniswap/contracts/UniswapV2Library.sol\":3096:3109  reserveIn > 0 */\n      gt\n        /* \"Uniswap/contracts/UniswapV2Library.sol\":3096:3127  reserveIn > 0 && reserveOut > 0 */\n      dup1\n      iszero\n      tag_300\n      jumpi\n      pop\n        /* \"Uniswap/contracts/UniswapV2Library.sol\":3126:3127  0 */\n      0x00\n        /* \"Uniswap/contracts/UniswapV2Library.sol\":3113:3123  reserveOut */\n      dup3\n        /* \"Uniswap/contracts/UniswapV2Library.sol\":3113:3127  reserveOut > 0 */\n      gt\n        /* \"Uniswap/contracts/UniswapV2Library.sol\":3096:3127  reserveIn > 0 && reserveOut > 0 */\n    tag_300:\n        /* \"Uniswap/contracts/UniswapV2Library.sol\":3088:3172  require(reserveIn > 0 && reserveOut > 0, 'UniswapV2Library: INSUFFICIENT_LIQUIDITY') */\n      tag_301\n      jumpi\n      mload(0x40)\n      0x08c379a000000000000000000000000000000000000000000000000000000000\n      dup2\n      mstore\n      0x04\n      add\n      tag_302\n      swap1\n      tag_181\n      jump\t// in\n    tag_302:\n      mload(0x40)\n      dup1\n      swap2\n      sub\n      swap1\n      revert\n    tag_301:\n        /* \"Uniswap/contracts/UniswapV2Library.sol\":3182:3196  uint numerator */\n      0x00\n        /* \"Uniswap/contracts/UniswapV2Library.sol\":3199:3233  reserveIn.mul(amountOut).mul(1000) */\n      tag_303\n        /* \"Uniswap/contracts/UniswapV2Library.sol\":3228:3232  1000 */\n      0x03e8\n        /* \"Uniswap/contracts/UniswapV2Library.sol\":3199:3223  reserveIn.mul(amountOut) */\n      tag_304\n        /* \"Uniswap/contracts/UniswapV2Library.sol\":3213:3222  amountOut */\n      dup8\n        /* \"Uniswap/contracts/UniswapV2Library.sol\":3199:3208  reserveIn */\n      dup8\n        /* \"Uniswap/contracts/UniswapV2Library.sol\":3199:3212  reserveIn.mul */\n      tag_183\n      swap1\n        /* \"Uniswap/contracts/UniswapV2Library.sol\":3199:3223  reserveIn.mul(amountOut) */\n      swap2\n      swap1\n      0xffffffff\n      and\n      jump\t// in\n    tag_304:\n        /* \"Uniswap/contracts/UniswapV2Library.sol\":3199:3227  reserveIn.mul(amountOut).mul */\n      tag_183\n      swap1\n        /* \"Uniswap/contracts/UniswapV2Library.sol\":3199:3233  reserveIn.mul(amountOut).mul(1000) */\n      swap2\n      swap1\n      0xffffffff\n      and\n      jump\t// in\n    tag_303:\n        /* \"Uniswap/contracts/UniswapV2Library.sol\":3182:3233  uint numerator = reserveIn.mul(amountOut).mul(1000) */\n      swap1\n      pop\n        /* \"Uniswap/contracts/UniswapV2Library.sol\":3243:3259  uint denominator */\n      0x00\n        /* \"Uniswap/contracts/UniswapV2Library.sol\":3262:3296  reserveOut.sub(amountOut).mul(997) */\n      tag_305\n        /* \"Uniswap/contracts/UniswapV2Library.sol\":3292:3295  997 */\n      0x03e5\n        /* \"Uniswap/contracts/UniswapV2Library.sol\":3262:3287  reserveOut.sub(amountOut) */\n      tag_306\n        /* \"Uniswap/contracts/UniswapV2Library.sol\":3277:3286  amountOut */\n      dup9\n        /* \"Uniswap/contracts/UniswapV2Library.sol\":3262:3272  reserveOut */\n      dup8\n        /* \"Uniswap/contracts/UniswapV2Library.sol\":3262:3276  reserveOut.sub */\n      tag_307\n      swap1\n        /* \"Uniswap/contracts/UniswapV2Library.sol\":3262:3287  reserveOut.sub(amountOut) */\n      swap2\n      swap1\n      0xffffffff\n      and\n      jump\t// in\n    tag_306:\n        /* \"Uniswap/contracts/UniswapV2Library.sol\":3262:3291  reserveOut.sub(amountOut).mul */\n      tag_183\n      swap1\n        /* \"Uniswap/contracts/UniswapV2Library.sol\":3262:3296  reserveOut.sub(amountOut).mul(997) */\n      swap2\n      swap1\n      0xffffffff\n      and\n      jump\t// in\n    tag_305:\n        /* \"Uniswap/contracts/UniswapV2Library.sol\":3243:3296  uint denominator = reserveOut.sub(amountOut).mul(997) */\n      swap1\n      pop\n        /* \"Uniswap/contracts/UniswapV2Library.sol\":3317:3349  (numerator / denominator).add(1) */\n      tag_308\n        /* \"Uniswap/contracts/UniswapV2Library.sol\":3347:3348  1 */\n      0x01\n        /* \"Uniswap/contracts/UniswapV2Library.sol\":3330:3341  denominator */\n      dup3\n        /* \"Uniswap/contracts/UniswapV2Library.sol\":3318:3327  numerator */\n      dup5\n        /* \"Uniswap/contracts/UniswapV2Library.sol\":3318:3341  numerator / denominator */\n      tag_309\n      swap2\n      swap1\n      tag_189\n      jump\t// in\n    tag_309:\n        /* \"Uniswap/contracts/UniswapV2Library.sol\":3317:3346  (numerator / denominator).add */\n      tag_187\n      swap1\n        /* \"Uniswap/contracts/UniswapV2Library.sol\":3317:3349  (numerator / denominator).add(1) */\n      swap2\n      swap1\n      0xffffffff\n      and\n      jump\t// in\n    tag_308:\n        /* \"Uniswap/contracts/UniswapV2Library.sol\":3306:3349  amountIn = (numerator / denominator).add(1) */\n      swap3\n      pop\n        /* \"Uniswap/contracts/UniswapV2Library.sol\":2998:3356  {... */\n      pop\n      pop\n        /* \"Uniswap/contracts/UniswapV2Library.sol\":2890:3356  function getAmountIn(uint amountOut, uint reserveIn, uint reserveOut) internal pure returns (uint amountIn) {... */\n      swap4\n      swap3\n      pop\n      pop\n      pop\n      jump\t// out\n        /* \"Uniswap/contracts/UniswapV2Library.sol\":1826:2143  function quote(uint amountA, uint reserveA, uint reserveB) internal pure returns (uint amountB) {... */\n    tag_131:\n        /* \"Uniswap/contracts/UniswapV2Library.sol\":1908:1920  uint amountB */\n      0x00\n        /* \"Uniswap/contracts/UniswapV2Library.sol\":1950:1951  0 */\n      dup1\n        /* \"Uniswap/contracts/UniswapV2Library.sol\":1940:1947  amountA */\n      dup5\n        /* \"Uniswap/contracts/UniswapV2Library.sol\":1940:1951  amountA > 0 */\n      gt\n        /* \"Uniswap/contracts/UniswapV2Library.sol\":1932:1993  require(amountA > 0, 'UniswapV2Library: INSUFFICIENT_AMOUNT') */\n      tag_311\n      jumpi\n      mload(0x40)\n      0x08c379a000000000000000000000000000000000000000000000000000000000\n      dup2\n      mstore\n      0x04\n      add\n      tag_312\n      swap1\n      tag_313\n      jump\t// in\n    tag_312:\n      mload(0x40)\n      dup1\n      swap2\n      sub\n      swap1\n      revert\n    tag_311:\n        /* \"Uniswap/contracts/UniswapV2Library.sol\":2022:2023  0 */\n      0x00\n        /* \"Uniswap/contracts/UniswapV2Library.sol\":2011:2019  reserveA */\n      dup4\n        /* \"Uniswap/contracts/UniswapV2Library.sol\":2011:2023  reserveA > 0 */\n      gt\n        /* \"Uniswap/contracts/UniswapV2Library.sol\":2011:2039  reserveA > 0 && reserveB > 0 */\n      dup1\n      iszero\n      tag_314\n      jumpi\n      pop\n        /* \"Uniswap/contracts/UniswapV2Library.sol\":2038:2039  0 */\n      0x00\n        /* \"Uniswap/contracts/UniswapV2Library.sol\":2027:2035  reserveB */\n      dup3\n        /* \"Uniswap/contracts/UniswapV2Library.sol\":2027:2039  reserveB > 0 */\n      gt\n        /* \"Uniswap/contracts/UniswapV2Library.sol\":2011:2039  reserveA > 0 && reserveB > 0 */\n    tag_314:\n        /* \"Uniswap/contracts/UniswapV2Library.sol\":2003:2084  require(reserveA > 0 && reserveB > 0, 'UniswapV2Library: INSUFFICIENT_LIQUIDITY') */\n      tag_315\n      jumpi\n      mload(0x40)\n      0x08c379a000000000000000000000000000000000000000000000000000000000\n      dup2\n      mstore\n      0x04\n      add\n      tag_316\n      swap1\n      tag_181\n      jump\t// in\n    tag_316:\n      mload(0x40)\n      dup1\n      swap2\n      sub\n      swap1\n      revert\n    tag_315:\n        /* \"Uniswap/contracts/UniswapV2Library.sol\":2128:2136  reserveA */\n      dup3\n        /* \"Uniswap/contracts/UniswapV2Library.sol\":2104:2125  amountA.mul(reserveB) */\n      tag_317\n        /* \"Uniswap/contracts/UniswapV2Library.sol\":2116:2124  reserveB */\n      dup4\n        /* \"Uniswap/contracts/UniswapV2Library.sol\":2104:2111  amountA */\n      dup7\n        /* \"Uniswap/contracts/UniswapV2Library.sol\":2104:2115  amountA.mul */\n      tag_183\n      swap1\n        /* \"Uniswap/contracts/UniswapV2Library.sol\":2104:2125  amountA.mul(reserveB) */\n      swap2\n      swap1\n      0xffffffff\n      and\n      jump\t// in\n    tag_317:\n        /* \"Uniswap/contracts/UniswapV2Library.sol\":2104:2136  amountA.mul(reserveB) / reserveA */\n      tag_318\n      swap2\n      swap1\n      tag_189\n      jump\t// in\n    tag_318:\n        /* \"Uniswap/contracts/UniswapV2Library.sol\":2094:2136  amountB = amountA.mul(reserveB) / reserveA */\n      swap1\n      pop\n        /* \"Uniswap/contracts/UniswapV2Library.sol\":1826:2143  function quote(uint amountA, uint reserveA, uint reserveB) internal pure returns (uint amountB) {... */\n      swap4\n      swap3\n      pop\n      pop\n      pop\n      jump\t// out\n        /* \"Uniswap/contracts/UniswapV2Library.sol\":299:644  function sortTokens(address tokenA, address tokenB) internal pure returns (address token0, address token1) {... */\n    tag_149:\n        /* \"Uniswap/contracts/UniswapV2Library.sol\":374:388  address token0 */\n      0x00\n        /* \"Uniswap/contracts/UniswapV2Library.sol\":390:404  address token1 */\n      dup1\n        /* \"Uniswap/contracts/UniswapV2Library.sol\":434:440  tokenB */\n      dup3\n        /* \"Uniswap/contracts/UniswapV2Library.sol\":424:440  tokenA != tokenB */\n      0xffffffffffffffffffffffffffffffffffffffff\n      and\n        /* \"Uniswap/contracts/UniswapV2Library.sol\":424:430  tokenA */\n      dup5\n        /* \"Uniswap/contracts/UniswapV2Library.sol\":424:440  tokenA != tokenB */\n      0xffffffffffffffffffffffffffffffffffffffff\n      and\n      sub\n        /* \"Uniswap/contracts/UniswapV2Library.sol\":416:482  require(tokenA != tokenB, 'UniswapV2Library: IDENTICAL_ADDRESSES') */\n      tag_320\n      jumpi\n      mload(0x40)\n      0x08c379a000000000000000000000000000000000000000000000000000000000\n      dup2\n      mstore\n      0x04\n      add\n      tag_321\n      swap1\n      tag_322\n      jump\t// in\n    tag_321:\n      mload(0x40)\n      dup1\n      swap2\n      sub\n      swap1\n      revert\n    tag_320:\n        /* \"Uniswap/contracts/UniswapV2Library.sol\":520:526  tokenB */\n      dup3\n        /* \"Uniswap/contracts/UniswapV2Library.sol\":511:526  tokenA < tokenB */\n      0xffffffffffffffffffffffffffffffffffffffff\n      and\n        /* \"Uniswap/contracts/UniswapV2Library.sol\":511:517  tokenA */\n      dup5\n        /* \"Uniswap/contracts/UniswapV2Library.sol\":511:526  tokenA < tokenB */\n      0xffffffffffffffffffffffffffffffffffffffff\n      and\n      lt\n        /* \"Uniswap/contracts/UniswapV2Library.sol\":511:564  tokenA < tokenB ? (tokenA, tokenB) : (tokenB, tokenA) */\n      tag_323\n      jumpi\n        /* \"Uniswap/contracts/UniswapV2Library.sol\":549:555  tokenB */\n      dup3\n        /* \"Uniswap/contracts/UniswapV2Library.sol\":557:563  tokenA */\n      dup5\n        /* \"Uniswap/contracts/UniswapV2Library.sol\":511:564  tokenA < tokenB ? (tokenA, tokenB) : (tokenB, tokenA) */\n      jump(tag_324)\n    tag_323:\n        /* \"Uniswap/contracts/UniswapV2Library.sol\":530:536  tokenA */\n      dup4\n        /* \"Uniswap/contracts/UniswapV2Library.sol\":538:544  tokenB */\n      dup4\n        /* \"Uniswap/contracts/UniswapV2Library.sol\":511:564  tokenA < tokenB ? (tokenA, tokenB) : (tokenB, tokenA) */\n    tag_324:\n        /* \"Uniswap/contracts/UniswapV2Library.sol\":492:564  (token0, token1) = tokenA < tokenB ? (tokenA, tokenB) : (tokenB, tokenA) */\n      dup1\n      swap3\n      pop\n      dup2\n      swap4\n      pop\n      pop\n      pop\n        /* \"Uniswap/contracts/UniswapV2Library.sol\":600:601  0 */\n      0x00\n        /* \"Uniswap/contracts/UniswapV2Library.sol\":582:602  token0 != address(0) */\n      0xffffffffffffffffffffffffffffffffffffffff\n      and\n        /* \"Uniswap/contracts/UniswapV2Library.sol\":582:588  token0 */\n      dup3\n        /* \"Uniswap/contracts/UniswapV2Library.sol\":582:602  token0 != address(0) */\n      0xffffffffffffffffffffffffffffffffffffffff\n      and\n      sub\n        /* \"Uniswap/contracts/UniswapV2Library.sol\":574:637  require(token0 != address(0), 'UniswapV2Library: ZERO_ADDRESS') */\n      tag_325\n      jumpi\n      mload(0x40)\n      0x08c379a000000000000000000000000000000000000000000000000000000000\n      dup2\n      mstore\n      0x04\n      add\n      tag_326\n      swap1\n      tag_327\n      jump\t// in\n    tag_326:\n      mload(0x40)\n      dup1\n      swap2\n      sub\n      swap1\n      revert\n    tag_325:\n        /* \"Uniswap/contracts/UniswapV2Library.sol\":299:644  function sortTokens(address tokenA, address tokenB) internal pure returns (address token0, address token1) {... */\n      swap3\n      pop\n      swap3\n      swap1\n      pop\n      jump\t// out\n        /* \"Uniswap/contracts/UniswapV2Router02.sol\":1416:3675  function _addLiquidity(... */\n    tag_165:\n        /* \"Uniswap/contracts/UniswapV2Router02.sol\":1627:1639  uint amountA */\n      0x00\n        /* \"Uniswap/contracts/UniswapV2Router02.sol\":1641:1653  uint amountB */\n      dup1\n        /* \"Uniswap/contracts/UniswapV2Router02.sol\":1782:1783  0 */\n      0x00\n        /* \"Uniswap/contracts/UniswapV2Router02.sol\":1720:1784  IUniswapV2Factory(factory).getPair(tokenA, tokenB) == address(0) */\n      0xffffffffffffffffffffffffffffffffffffffff\n      and\n        /* \"Uniswap/contracts/UniswapV2Router02.sol\":1738:1745  factory */\n      immutable(\"0x81e684302dba258ad18c3b31de9ac01448b470fcf6136d2ace7eb5c581a909a4\")\n        /* \"Uniswap/contracts/UniswapV2Router02.sol\":1720:1754  IUniswapV2Factory(factory).getPair */\n      0xffffffffffffffffffffffffffffffffffffffff\n      and\n      0xe6a43905\n        /* \"Uniswap/contracts/UniswapV2Router02.sol\":1755:1761  tokenA */\n      dup11\n        /* \"Uniswap/contracts/UniswapV2Router02.sol\":1763:1769  tokenB */\n      dup11\n        /* \"Uniswap/contracts/UniswapV2Router02.sol\":1720:1770  IUniswapV2Factory(factory).getPair(tokenA, tokenB) */\n      mload(0x40)\n      dup4\n      0xffffffff\n      and\n      0xe0\n      shl\n      dup2\n      mstore\n      0x04\n      add\n      tag_329\n      swap3\n      swap2\n      swap1\n      tag_330\n      jump\t// in\n    tag_329:\n      0x20\n      mload(0x40)\n      dup1\n      dup4\n      sub\n      dup2\n      dup7\n      gas\n      staticcall\n      iszero\n      dup1\n      iszero\n      tag_332\n      jumpi\n      returndatasize\n      0x00\n      dup1\n      returndatacopy\n      revert(0x00, returndatasize)\n    tag_332:\n      pop\n      pop\n      pop\n      pop\n      mload(0x40)\n      returndatasize\n      not(0x1f)\n      0x1f\n      dup3\n      add\n      and\n      dup3\n      add\n      dup1\n      0x40\n      mstore\n      pop\n      dup2\n      add\n      swap1\n      tag_333\n      swap2\n      swap1\n      tag_334\n      jump\t// in\n    tag_333:\n        /* \"Uniswap/contracts/UniswapV2Router02.sol\":1720:1784  IUniswapV2Factory(factory).getPair(tokenA, tokenB) == address(0) */\n      0xffffffffffffffffffffffffffffffffffffffff\n      and\n      sub\n        /* \"Uniswap/contracts/UniswapV2Router02.sol\":1716:1962  if (IUniswapV2Factory(factory).getPair(tokenA, tokenB) == address(0)) {... */\n      tag_335\n      jumpi\n        /* \"Uniswap/contracts/UniswapV2Router02.sol\":1916:1923  factory */\n      immutable(\"0x81e684302dba258ad18c3b31de9ac01448b470fcf6136d2ace7eb5c581a909a4\")\n        /* \"Uniswap/contracts/UniswapV2Router02.sol\":1898:1935  IUniswapV2Factory(factory).createPair */\n      0xffffffffffffffffffffffffffffffffffffffff\n      and\n      0xc9c65396\n        /* \"Uniswap/contracts/UniswapV2Router02.sol\":1936:1942  tokenA */\n      dup10\n        /* \"Uniswap/contracts/UniswapV2Router02.sol\":1944:1950  tokenB */\n      dup10\n        /* \"Uniswap/contracts/UniswapV2Router02.sol\":1898:1951  IUniswapV2Factory(factory).createPair(tokenA, tokenB) */\n      mload(0x40)\n      dup4\n      0xffffffff\n      and\n      0xe0\n      shl\n      dup2\n      mstore\n      0x04\n      add\n      tag_336\n      swap3\n      swap2\n      swap1\n      tag_330\n      jump\t// in\n    tag_336:\n      0x20\n      mload(0x40)\n      dup1\n      dup4\n      sub\n      dup2\n      0x00\n      dup8\n      gas\n      call\n      iszero\n      dup1\n      iszero\n      tag_338\n      jumpi\n      returndatasize\n      0x00\n      dup1\n      returndatacopy\n      revert(0x00, returndatasize)\n    tag_338:\n      pop\n      pop\n      pop\n      pop\n      mload(0x40)\n      returndatasize\n      not(0x1f)\n      0x1f\n      dup3\n      add\n      and\n      dup3\n      add\n      dup1\n      0x40\n      mstore\n      pop\n      dup2\n      add\n      swap1\n      tag_339\n      swap2\n      swap1\n      tag_334\n      jump\t// in\n    tag_339:\n      pop\n        /* \"Uniswap/contracts/UniswapV2Router02.sol\":1716:1962  if (IUniswapV2Factory(factory).getPair(tokenA, tokenB) == address(0)) {... */\n    tag_335:\n        /* \"Uniswap/contracts/UniswapV2Router02.sol\":2022:2035  uint reserveA */\n      0x00\n        /* \"Uniswap/contracts/UniswapV2Router02.sol\":2037:2050  uint reserveB */\n      dup1\n        /* \"Uniswap/contracts/UniswapV2Router02.sol\":2054:2107  UniswapV2Library.getReserves(factory, tokenA, tokenB) */\n      tag_340\n        /* \"Uniswap/contracts/UniswapV2Router02.sol\":2083:2090  factory */\n      immutable(\"0x81e684302dba258ad18c3b31de9ac01448b470fcf6136d2ace7eb5c581a909a4\")\n        /* \"Uniswap/contracts/UniswapV2Router02.sol\":2092:2098  tokenA */\n      dup12\n        /* \"Uniswap/contracts/UniswapV2Router02.sol\":2100:2106  tokenB */\n      dup12\n        /* \"Uniswap/contracts/UniswapV2Router02.sol\":2054:2082  UniswapV2Library.getReserves */\n      tag_211\n        /* \"Uniswap/contracts/UniswapV2Router02.sol\":2054:2107  UniswapV2Library.getReserves(factory, tokenA, tokenB) */\n      jump\t// in\n    tag_340:\n        /* \"Uniswap/contracts/UniswapV2Router02.sol\":2021:2107  (uint reserveA, uint reserveB) = UniswapV2Library.getReserves(factory, tokenA, tokenB) */\n      swap2\n      pop\n      swap2\n      pop\n        /* \"Uniswap/contracts/UniswapV2Router02.sol\":2278:2279  0 */\n      0x00\n        /* \"Uniswap/contracts/UniswapV2Router02.sol\":2266:2274  reserveA */\n      dup3\n        /* \"Uniswap/contracts/UniswapV2Router02.sol\":2266:2279  reserveA == 0 */\n      eq\n        /* \"Uniswap/contracts/UniswapV2Router02.sol\":2266:2296  reserveA == 0 && reserveB == 0 */\n      dup1\n      iszero\n      tag_341\n      jumpi\n      pop\n        /* \"Uniswap/contracts/UniswapV2Router02.sol\":2295:2296  0 */\n      0x00\n        /* \"Uniswap/contracts/UniswapV2Router02.sol\":2283:2291  reserveB */\n      dup2\n        /* \"Uniswap/contracts/UniswapV2Router02.sol\":2283:2296  reserveB == 0 */\n      eq\n        /* \"Uniswap/contracts/UniswapV2Router02.sol\":2266:2296  reserveA == 0 && reserveB == 0 */\n    tag_341:\n        /* \"Uniswap/contracts/UniswapV2Router02.sol\":2262:3669  if (reserveA == 0 && reserveB == 0) {... */\n      iszero\n      tag_342\n      jumpi\n        /* \"Uniswap/contracts/UniswapV2Router02.sol\":2334:2348  amountADesired */\n      dup8\n        /* \"Uniswap/contracts/UniswapV2Router02.sol\":2350:2364  amountBDesired */\n      dup8\n        /* \"Uniswap/contracts/UniswapV2Router02.sol\":2312:2365  (amountA, amountB) = (amountADesired, amountBDesired) */\n      dup1\n      swap5\n      pop\n      dup2\n      swap6\n      pop\n      pop\n      pop\n        /* \"Uniswap/contracts/UniswapV2Router02.sol\":2262:3669  if (reserveA == 0 && reserveB == 0) {... */\n      jump(tag_343)\n    tag_342:\n        /* \"Uniswap/contracts/UniswapV2Router02.sol\":2501:2520  uint amountBOptimal */\n      0x00\n        /* \"Uniswap/contracts/UniswapV2Router02.sol\":2523:2581  UniswapV2Library.quote(amountADesired, reserveA, reserveB) */\n      tag_344\n        /* \"Uniswap/contracts/UniswapV2Router02.sol\":2546:2560  amountADesired */\n      dup10\n        /* \"Uniswap/contracts/UniswapV2Router02.sol\":2562:2570  reserveA */\n      dup5\n        /* \"Uniswap/contracts/UniswapV2Router02.sol\":2572:2580  reserveB */\n      dup5\n        /* \"Uniswap/contracts/UniswapV2Router02.sol\":2523:2545  UniswapV2Library.quote */\n      tag_131\n        /* \"Uniswap/contracts/UniswapV2Router02.sol\":2523:2581  UniswapV2Library.quote(amountADesired, reserveA, reserveB) */\n      jump\t// in\n    tag_344:\n        /* \"Uniswap/contracts/UniswapV2Router02.sol\":2501:2581  uint amountBOptimal = UniswapV2Library.quote(amountADesired, reserveA, reserveB) */\n      swap1\n      pop\n        /* \"Uniswap/contracts/UniswapV2Router02.sol\":2723:2737  amountBDesired */\n      dup8\n        /* \"Uniswap/contracts/UniswapV2Router02.sol\":2705:2719  amountBOptimal */\n      dup2\n        /* \"Uniswap/contracts/UniswapV2Router02.sol\":2705:2737  amountBOptimal <= amountBDesired */\n      gt\n        /* \"Uniswap/contracts/UniswapV2Router02.sol\":2701:3659  if (amountBOptimal <= amountBDesired) {... */\n      tag_345\n      jumpi\n        /* \"Uniswap/contracts/UniswapV2Router02.sol\":2868:2878  amountBMin */\n      dup6\n        /* \"Uniswap/contracts/UniswapV2Router02.sol\":2850:2864  amountBOptimal */\n      dup2\n        /* \"Uniswap/contracts/UniswapV2Router02.sol\":2850:2878  amountBOptimal >= amountBMin */\n      lt\n      iszero\n        /* \"Uniswap/contracts/UniswapV2Router02.sol\":2842:2921  require(amountBOptimal >= amountBMin, 'UniswapV2Router: INSUFFICIENT_B_AMOUNT') */\n      tag_346\n      jumpi\n      mload(0x40)\n      0x08c379a000000000000000000000000000000000000000000000000000000000\n      dup2\n      mstore\n      0x04\n      add\n      tag_347\n      swap1\n      tag_157\n      jump\t// in\n    tag_347:\n      mload(0x40)\n      dup1\n      swap2\n      sub\n      swap1\n      revert\n    tag_346:\n        /* \"Uniswap/contracts/UniswapV2Router02.sol\":2961:2975  amountADesired */\n      dup9\n        /* \"Uniswap/contracts/UniswapV2Router02.sol\":2977:2991  amountBOptimal */\n      dup2\n        /* \"Uniswap/contracts/UniswapV2Router02.sol\":2939:2992  (amountA, amountB) = (amountADesired, amountBOptimal) */\n      dup1\n      swap6\n      pop\n      dup2\n      swap7\n      pop\n      pop\n      pop\n        /* \"Uniswap/contracts/UniswapV2Router02.sol\":2701:3659  if (amountBOptimal <= amountBDesired) {... */\n      jump(tag_348)\n    tag_345:\n        /* \"Uniswap/contracts/UniswapV2Router02.sol\":3138:3157  uint amountAOptimal */\n      0x00\n        /* \"Uniswap/contracts/UniswapV2Router02.sol\":3160:3218  UniswapV2Library.quote(amountBDesired, reserveB, reserveA) */\n      tag_349\n        /* \"Uniswap/contracts/UniswapV2Router02.sol\":3183:3197  amountBDesired */\n      dup10\n        /* \"Uniswap/contracts/UniswapV2Router02.sol\":3199:3207  reserveB */\n      dup5\n        /* \"Uniswap/contracts/UniswapV2Router02.sol\":3209:3217  reserveA */\n      dup7\n        /* \"Uniswap/contracts/UniswapV2Router02.sol\":3160:3182  UniswapV2Library.quote */\n      tag_131\n        /* \"Uniswap/contracts/UniswapV2Router02.sol\":3160:3218  UniswapV2Library.quote(amountBDesired, reserveB, reserveA) */\n      jump\t// in\n    tag_349:\n        /* \"Uniswap/contracts/UniswapV2Router02.sol\":3138:3218  uint amountAOptimal = UniswapV2Library.quote(amountBDesired, reserveB, reserveA) */\n      swap1\n      pop\n        /* \"Uniswap/contracts/UniswapV2Router02.sol\":3461:3475  amountADesired */\n      dup10\n        /* \"Uniswap/contracts/UniswapV2Router02.sol\":3443:3457  amountAOptimal */\n      dup2\n        /* \"Uniswap/contracts/UniswapV2Router02.sol\":3443:3475  amountAOptimal <= amountADesired */\n      gt\n      iszero\n        /* \"Uniswap/contracts/UniswapV2Router02.sol\":3436:3476  assert(amountAOptimal <= amountADesired) */\n      tag_350\n      jumpi\n      tag_351\n      tag_352\n      jump\t// in\n    tag_351:\n    tag_350:\n        /* \"Uniswap/contracts/UniswapV2Router02.sol\":3520:3530  amountAMin */\n      dup8\n        /* \"Uniswap/contracts/UniswapV2Router02.sol\":3502:3516  amountAOptimal */\n      dup2\n        /* \"Uniswap/contracts/UniswapV2Router02.sol\":3502:3530  amountAOptimal >= amountAMin */\n      lt\n      iszero\n        /* \"Uniswap/contracts/UniswapV2Router02.sol\":3494:3573  require(amountAOptimal >= amountAMin, 'UniswapV2Router: INSUFFICIENT_A_AMOUNT') */\n      tag_353\n      jumpi\n      mload(0x40)\n      0x08c379a000000000000000000000000000000000000000000000000000000000\n      dup2\n      mstore\n      0x04\n      add\n      tag_354\n      swap1\n      tag_154\n      jump\t// in\n    tag_354:\n      mload(0x40)\n      dup1\n      swap2\n      sub\n      swap1\n      revert\n    tag_353:\n        /* \"Uniswap/contracts/UniswapV2Router02.sol\":3613:3627  amountAOptimal */\n      dup1\n        /* \"Uniswap/contracts/UniswapV2Router02.sol\":3629:3643  amountBDesired */\n      dup10\n        /* \"Uniswap/contracts/UniswapV2Router02.sol\":3591:3644  (amountA, amountB) = (amountAOptimal, amountBDesired) */\n      dup1\n      swap7\n      pop\n      dup2\n      swap8\n      pop\n      pop\n      pop\n        /* \"Uniswap/contracts/UniswapV2Router02.sol\":3120:3659  {... */\n      pop\n        /* \"Uniswap/contracts/UniswapV2Router02.sol\":2701:3659  if (amountBOptimal <= amountBDesired) {... */\n    tag_348:\n        /* \"Uniswap/contracts/UniswapV2Router02.sol\":2382:3669  {... */\n      pop\n        /* \"Uniswap/contracts/UniswapV2Router02.sol\":2262:3669  if (reserveA == 0 && reserveB == 0) {... */\n    tag_343:\n        /* \"Uniswap/contracts/UniswapV2Router02.sol\":1655:3675  {... */\n      pop\n      pop\n        /* \"Uniswap/contracts/UniswapV2Router02.sol\":1416:3675  function _addLiquidity(... */\n      swap7\n      pop\n      swap7\n      swap5\n      pop\n      pop\n      pop\n      pop\n      pop\n      jump\t// out\n        /* \"Uniswap/contracts/libraries/SafeMath.sol\":454:594  function mul(uint x, uint y) internal pure returns (uint z) {... */\n    tag_183:\n        /* \"Uniswap/contracts/libraries/SafeMath.sol\":506:512  uint z */\n      0x00\n        /* \"Uniswap/contracts/libraries/SafeMath.sol\":537:538  0 */\n      dup1\n        /* \"Uniswap/contracts/libraries/SafeMath.sol\":532:533  y */\n      dup3\n        /* \"Uniswap/contracts/libraries/SafeMath.sol\":532:538  y == 0 */\n      eq\n        /* \"Uniswap/contracts/libraries/SafeMath.sol\":532:562  y == 0 || (z = x * y) / y == x */\n      dup1\n      tag_356\n      jumpi\n      pop\n        /* \"Uniswap/contracts/libraries/SafeMath.sol\":561:562  x */\n      dup3\n        /* \"Uniswap/contracts/libraries/SafeMath.sol\":556:557  y */\n      dup3\n        /* \"Uniswap/contracts/libraries/SafeMath.sol\":551:552  y */\n      dup4\n        /* \"Uniswap/contracts/libraries/SafeMath.sol\":547:548  x */\n      dup6\n        /* \"Uniswap/contracts/libraries/SafeMath.sol\":547:552  x * y */\n      tag_357\n      swap2\n      swap1\n      tag_358\n      jump\t// in\n    tag_357:\n        /* \"Uniswap/contracts/libraries/SafeMath.sol\":543:552  z = x * y */\n      swap3\n      pop\n      dup3\n        /* \"Uniswap/contracts/libraries/SafeMath.sol\":542:557  (z = x * y) / y */\n      tag_359\n      swap2\n      swap1\n      tag_189\n      jump\t// in\n    tag_359:\n        /* \"Uniswap/contracts/libraries/SafeMath.sol\":542:562  (z = x * y) / y == x */\n      eq\n        /* \"Uniswap/contracts/libraries/SafeMath.sol\":532:562  y == 0 || (z = x * y) / y == x */\n    tag_356:\n        /* \"Uniswap/contracts/libraries/SafeMath.sol\":524:587  require(y == 0 || (z = x * y) / y == x, 'ds-math-mul-overflow') */\n      tag_360\n      jumpi\n      mload(0x40)\n      0x08c379a000000000000000000000000000000000000000000000000000000000\n      dup2\n      mstore\n      0x04\n      add\n      tag_361\n      swap1\n      tag_362\n      jump\t// in\n    tag_361:\n      mload(0x40)\n      dup1\n      swap2\n      sub\n      swap1\n      revert\n    tag_360:\n        /* \"Uniswap/contracts/libraries/SafeMath.sol\":454:594  function mul(uint x, uint y) internal pure returns (uint z) {... */\n      swap3\n      swap2\n      pop\n      pop\n      jump\t// out\n        /* \"Uniswap/contracts/libraries/SafeMath.sol\":189:315  function add(uint x, uint y) internal pure returns (uint z) {... */\n    tag_187:\n        /* \"Uniswap/contracts/libraries/SafeMath.sol\":241:247  uint z */\n      0x00\n        /* \"Uniswap/contracts/libraries/SafeMath.sol\":282:283  x */\n      dup3\n        /* \"Uniswap/contracts/libraries/SafeMath.sol\":276:277  y */\n      dup3\n        /* \"Uniswap/contracts/libraries/SafeMath.sol\":272:273  x */\n      dup5\n        /* \"Uniswap/contracts/libraries/SafeMath.sol\":272:277  x + y */\n      tag_364\n      swap2\n      swap1\n      tag_236\n      jump\t// in\n    tag_364:\n        /* \"Uniswap/contracts/libraries/SafeMath.sol\":268:277  z = x + y */\n      swap2\n      pop\n      dup2\n        /* \"Uniswap/contracts/libraries/SafeMath.sol\":267:283  (z = x + y) >= x */\n      lt\n      iszero\n        /* \"Uniswap/contracts/libraries/SafeMath.sol\":259:308  require((z = x + y) >= x, 'ds-math-add-overflow') */\n      tag_365\n      jumpi\n      mload(0x40)\n      0x08c379a000000000000000000000000000000000000000000000000000000000\n      dup2\n      mstore\n      0x04\n      add\n      tag_366\n      swap1\n      tag_367\n      jump\t// in\n    tag_366:\n      mload(0x40)\n      dup1\n      swap2\n      sub\n      swap1\n      revert\n    tag_365:\n        /* \"Uniswap/contracts/libraries/SafeMath.sol\":189:315  function add(uint x, uint y) internal pure returns (uint z) {... */\n      swap3\n      swap2\n      pop\n      pop\n      jump\t// out\n        /* \"Uniswap/contracts/UniswapV2Library.sol\":1330:1716  function getReserves(address factory, address tokenA, address tokenB) internal view returns (uint reserveA, uint reserveB) {... */\n    tag_211:\n        /* \"Uniswap/contracts/UniswapV2Library.sol\":1423:1436  uint reserveA */\n      0x00\n        /* \"Uniswap/contracts/UniswapV2Library.sol\":1438:1451  uint reserveB */\n      dup1\n        /* \"Uniswap/contracts/UniswapV2Library.sol\":1464:1478  address token0 */\n      0x00\n        /* \"Uniswap/contracts/UniswapV2Library.sol\":1483:1509  sortTokens(tokenA, tokenB) */\n      tag_369\n        /* \"Uniswap/contracts/UniswapV2Library.sol\":1494:1500  tokenA */\n      dup6\n        /* \"Uniswap/contracts/UniswapV2Library.sol\":1502:1508  tokenB */\n      dup6\n        /* \"Uniswap/contracts/UniswapV2Library.sol\":1483:1493  sortTokens */\n      tag_149\n        /* \"Uniswap/contracts/UniswapV2Library.sol\":1483:1509  sortTokens(tokenA, tokenB) */\n      jump\t// in\n    tag_369:\n        /* \"Uniswap/contracts/UniswapV2Library.sol\":1463:1509  (address token0,) = sortTokens(tokenA, tokenB) */\n      pop\n      swap1\n      pop\n        /* \"Uniswap/contracts/UniswapV2Library.sol\":1520:1533  uint reserve0 */\n      0x00\n        /* \"Uniswap/contracts/UniswapV2Library.sol\":1535:1548  uint reserve1 */\n      dup1\n        /* \"Uniswap/contracts/UniswapV2Library.sol\":1567:1599  pairFor(factory, tokenA, tokenB) */\n      tag_370\n        /* \"Uniswap/contracts/UniswapV2Library.sol\":1575:1582  factory */\n      dup9\n        /* \"Uniswap/contracts/UniswapV2Library.sol\":1584:1590  tokenA */\n      dup9\n        /* \"Uniswap/contracts/UniswapV2Library.sol\":1592:1598  tokenB */\n      dup9\n        /* \"Uniswap/contracts/UniswapV2Library.sol\":1567:1574  pairFor */\n      tag_96\n        /* \"Uniswap/contracts/UniswapV2Library.sol\":1567:1599  pairFor(factory, tokenA, tokenB) */\n      jump\t// in\n    tag_370:\n        /* \"Uniswap/contracts/UniswapV2Library.sol\":1552:1612  IUniswapV2Pair(pairFor(factory, tokenA, tokenB)).getReserves */\n      0xffffffffffffffffffffffffffffffffffffffff\n      and\n      0x0902f1ac\n        /* \"Uniswap/contracts/UniswapV2Library.sol\":1552:1614  IUniswapV2Pair(pairFor(factory, tokenA, tokenB)).getReserves() */\n      mload(0x40)\n      dup2\n      0xffffffff\n      and\n      0xe0\n      shl\n      dup2\n      mstore\n      0x04\n      add\n      0x40\n      dup1\n      mload\n      dup1\n      dup4\n      sub\n      dup2\n      dup7\n      gas\n      staticcall\n      iszero\n      dup1\n      iszero\n      tag_372\n      jumpi\n      returndatasize\n      0x00\n      dup1\n      returndatacopy\n      revert(0x00, returndatasize)\n    tag_372:\n      pop\n      pop\n      pop\n      pop\n      mload(0x40)\n      returndatasize\n      not(0x1f)\n      0x1f\n      dup3\n      add\n      and\n      dup3\n      add\n      dup1\n      0x40\n      mstore\n      pop\n      dup2\n      add\n      swap1\n      tag_373\n      swap2\n      swap1\n      tag_374\n      jump\t// in\n    tag_373:\n        /* \"Uniswap/contracts/UniswapV2Library.sol\":1519:1614  (uint reserve0, uint reserve1) = IUniswapV2Pair(pairFor(factory, tokenA, tokenB)).getReserves() */\n      0xffffffffffffffffffffffffffff\n      and\n      swap2\n      pop\n      0xffffffffffffffffffffffffffff\n      and\n      swap2\n      pop\n        /* \"Uniswap/contracts/UniswapV2Library.sol\":1657:1663  token0 */\n      dup3\n        /* \"Uniswap/contracts/UniswapV2Library.sol\":1647:1663  tokenA == token0 */\n      0xffffffffffffffffffffffffffffffffffffffff\n      and\n        /* \"Uniswap/contracts/UniswapV2Library.sol\":1647:1653  tokenA */\n      dup8\n        /* \"Uniswap/contracts/UniswapV2Library.sol\":1647:1663  tokenA == token0 */\n      0xffffffffffffffffffffffffffffffffffffffff\n      and\n      eq\n        /* \"Uniswap/contracts/UniswapV2Library.sol\":1647:1709  tokenA == token0 ? (reserve0, reserve1) : (reserve1, reserve0) */\n      tag_375\n      jumpi\n        /* \"Uniswap/contracts/UniswapV2Library.sol\":1690:1698  reserve1 */\n      dup1\n        /* \"Uniswap/contracts/UniswapV2Library.sol\":1700:1708  reserve0 */\n      dup3\n        /* \"Uniswap/contracts/UniswapV2Library.sol\":1647:1709  tokenA == token0 ? (reserve0, reserve1) : (reserve1, reserve0) */\n      jump(tag_376)\n    tag_375:\n        /* \"Uniswap/contracts/UniswapV2Library.sol\":1667:1675  reserve0 */\n      dup2\n        /* \"Uniswap/contracts/UniswapV2Library.sol\":1677:1685  reserve1 */\n      dup2\n        /* \"Uniswap/contracts/UniswapV2Library.sol\":1647:1709  tokenA == token0 ? (reserve0, reserve1) : (reserve1, reserve0) */\n    tag_376:\n        /* \"Uniswap/contracts/UniswapV2Library.sol\":1624:1709  (reserveA, reserveB) = tokenA == token0 ? (reserve0, reserve1) : (reserve1, reserve0) */\n      dup1\n      swap6\n      pop\n      dup2\n      swap7\n      pop\n      pop\n      pop\n        /* \"Uniswap/contracts/UniswapV2Library.sol\":1453:1716  {... */\n      pop\n      pop\n      pop\n        /* \"Uniswap/contracts/UniswapV2Library.sol\":1330:1716  function getReserves(address factory, address tokenA, address tokenB) internal view returns (uint reserveA, uint reserveB) {... */\n      swap4\n      pop\n      swap4\n      swap2\n      pop\n      pop\n      jump\t// out\n        /* \"Uniswap/contracts/libraries/SafeMath.sol\":321:448  function sub(uint x, uint y) internal pure returns (uint z) {... */\n    tag_307:\n        /* \"Uniswap/contracts/libraries/SafeMath.sol\":373:379  uint z */\n      0x00\n        /* \"Uniswap/contracts/libraries/SafeMath.sol\":414:415  x */\n      dup3\n        /* \"Uniswap/contracts/libraries/SafeMath.sol\":408:409  y */\n      dup3\n        /* \"Uniswap/contracts/libraries/SafeMath.sol\":404:405  x */\n      dup5\n        /* \"Uniswap/contracts/libraries/SafeMath.sol\":404:409  x - y */\n      tag_378\n      swap2\n      swap1\n      tag_77\n      jump\t// in\n    tag_378:\n        /* \"Uniswap/contracts/libraries/SafeMath.sol\":400:409  z = x - y */\n      swap2\n      pop\n      dup2\n        /* \"Uniswap/contracts/libraries/SafeMath.sol\":399:415  (z = x - y) <= x */\n      gt\n      iszero\n        /* \"Uniswap/contracts/libraries/SafeMath.sol\":391:441  require((z = x - y) <= x, 'ds-math-sub-underflow') */\n      tag_379\n      jumpi\n      mload(0x40)\n      0x08c379a000000000000000000000000000000000000000000000000000000000\n      dup2\n      mstore\n      0x04\n      add\n      tag_380\n      swap1\n      tag_381\n      jump\t// in\n    tag_380:\n      mload(0x40)\n      dup1\n      swap2\n      sub\n      swap1\n      revert\n    tag_379:\n        /* \"Uniswap/contracts/libraries/SafeMath.sol\":321:448  function sub(uint x, uint y) internal pure returns (uint z) {... */\n      swap3\n      swap2\n      pop\n      pop\n      jump\t// out\n        /* \"#utility.yul\":7:82   */\n    tag_382:\n        /* \"#utility.yul\":40:46   */\n      0x00\n        /* \"#utility.yul\":73:75   */\n      0x40\n        /* \"#utility.yul\":67:76   */\n      mload\n        /* \"#utility.yul\":57:76   */\n      swap1\n      pop\n        /* \"#utility.yul\":7:82   */\n      swap1\n      jump\t// out\n        /* \"#utility.yul\":88:205   */\n    tag_383:\n        /* \"#utility.yul\":197:198   */\n      0x00\n        /* \"#utility.yul\":194:195   */\n      dup1\n        /* \"#utility.yul\":187:199   */\n      revert\n        /* \"#utility.yul\":211:328   */\n    tag_384:\n        /* \"#utility.yul\":320:321   */\n      0x00\n        /* \"#utility.yul\":317:318   */\n      dup1\n        /* \"#utility.yul\":310:322   */\n      revert\n        /* \"#utility.yul\":334:411   */\n    tag_385:\n        /* \"#utility.yul\":371:378   */\n      0x00\n        /* \"#utility.yul\":400:405   */\n      dup2\n        /* \"#utility.yul\":389:405   */\n      swap1\n      pop\n        /* \"#utility.yul\":334:411   */\n      swap2\n      swap1\n      pop\n      jump\t// out\n        /* \"#utility.yul\":417:539   */\n    tag_386:\n        /* \"#utility.yul\":490:514   */\n      tag_478\n        /* \"#utility.yul\":508:513   */\n      dup2\n        /* \"#utility.yul\":490:514   */\n      tag_385\n      jump\t// in\n    tag_478:\n        /* \"#utility.yul\":483:488   */\n      dup2\n        /* \"#utility.yul\":480:515   */\n      eq\n        /* \"#utility.yul\":470:533   */\n      tag_479\n      jumpi\n        /* \"#utility.yul\":529:530   */\n      0x00\n        /* \"#utility.yul\":526:527   */\n      dup1\n        /* \"#utility.yul\":519:531   */\n      revert\n        /* \"#utility.yul\":470:533   */\n    tag_479:\n        /* \"#utility.yul\":417:539   */\n      pop\n      jump\t// out\n        /* \"#utility.yul\":545:684   */\n    tag_387:\n        /* \"#utility.yul\":591:596   */\n      0x00\n        /* \"#utility.yul\":629:635   */\n      dup2\n        /* \"#utility.yul\":616:636   */\n      calldataload\n        /* \"#utility.yul\":607:636   */\n      swap1\n      pop\n        /* \"#utility.yul\":645:678   */\n      tag_481\n        /* \"#utility.yul\":672:677   */\n      dup2\n        /* \"#utility.yul\":645:678   */\n      tag_386\n      jump\t// in\n    tag_481:\n        /* \"#utility.yul\":545:684   */\n      swap3\n      swap2\n      pop\n      pop\n      jump\t// out\n        /* \"#utility.yul\":690:1309   */\n    tag_16:\n        /* \"#utility.yul\":767:773   */\n      0x00\n        /* \"#utility.yul\":775:781   */\n      dup1\n        /* \"#utility.yul\":783:789   */\n      0x00\n        /* \"#utility.yul\":832:834   */\n      0x60\n        /* \"#utility.yul\":820:829   */\n      dup5\n        /* \"#utility.yul\":811:818   */\n      dup7\n        /* \"#utility.yul\":807:830   */\n      sub\n        /* \"#utility.yul\":803:835   */\n      slt\n        /* \"#utility.yul\":800:919   */\n      iszero\n      tag_483\n      jumpi\n        /* \"#utility.yul\":838:917   */\n      tag_484\n      tag_383\n      jump\t// in\n    tag_484:\n        /* \"#utility.yul\":800:919   */\n    tag_483:\n        /* \"#utility.yul\":958:959   */\n      0x00\n        /* \"#utility.yul\":983:1036   */\n      tag_485\n        /* \"#utility.yul\":1028:1035   */\n      dup7\n        /* \"#utility.yul\":1019:1025   */\n      dup3\n        /* \"#utility.yul\":1008:1017   */\n      dup8\n        /* \"#utility.yul\":1004:1026   */\n      add\n        /* \"#utility.yul\":983:1036   */\n      tag_387\n      jump\t// in\n    tag_485:\n        /* \"#utility.yul\":973:1036   */\n      swap4\n      pop\n        /* \"#utility.yul\":929:1046   */\n      pop\n        /* \"#utility.yul\":1085:1087   */\n      0x20\n        /* \"#utility.yul\":1111:1164   */\n      tag_486\n        /* \"#utility.yul\":1156:1163   */\n      dup7\n        /* \"#utility.yul\":1147:1153   */\n      dup3\n        /* \"#utility.yul\":1136:1145   */\n      dup8\n        /* \"#utility.yul\":1132:1154   */\n      add\n        /* \"#utility.yul\":1111:1164   */\n      tag_387\n      jump\t// in\n    tag_486:\n        /* \"#utility.yul\":1101:1164   */\n      swap3\n      pop\n        /* \"#utility.yul\":1056:1174   */\n      pop\n        /* \"#utility.yul\":1213:1215   */\n      0x40\n        /* \"#utility.yul\":1239:1292   */\n      tag_487\n        /* \"#utility.yul\":1284:1291   */\n      dup7\n        /* \"#utility.yul\":1275:1281   */\n      dup3\n        /* \"#utility.yul\":1264:1273   */\n      dup8\n        /* \"#utility.yul\":1260:1282   */\n      add\n        /* \"#utility.yul\":1239:1292   */\n      tag_387\n      jump\t// in\n    tag_487:\n        /* \"#utility.yul\":1229:1292   */\n      swap2\n      pop\n        /* \"#utility.yul\":1184:1302   */\n      pop\n        /* \"#utility.yul\":690:1309   */\n      swap3\n      pop\n      swap3\n      pop\n      swap3\n      jump\t// out\n        /* \"#utility.yul\":1315:1433   */\n    tag_388:\n        /* \"#utility.yul\":1402:1426   */\n      tag_489\n        /* \"#utility.yul\":1420:1425   */\n      dup2\n        /* \"#utility.yul\":1402:1426   */\n      tag_385\n      jump\t// in\n    tag_489:\n        /* \"#utility.yul\":1397:1400   */\n      dup3\n        /* \"#utility.yul\":1390:1427   */\n      mstore\n        /* \"#utility.yul\":1315:1433   */\n      pop\n      pop\n      jump\t// out\n        /* \"#utility.yul\":1439:1661   */\n    tag_19:\n        /* \"#utility.yul\":1532:1536   */\n      0x00\n        /* \"#utility.yul\":1570:1572   */\n      0x20\n        /* \"#utility.yul\":1559:1568   */\n      dup3\n        /* \"#utility.yul\":1555:1573   */\n      add\n        /* \"#utility.yul\":1547:1573   */\n      swap1\n      pop\n        /* \"#utility.yul\":1583:1654   */\n      tag_491\n        /* \"#utility.yul\":1651:1652   */\n      0x00\n        /* \"#utility.yul\":1640:1649   */\n      dup4\n        /* \"#utility.yul\":1636:1653   */\n      add\n        /* \"#utility.yul\":1627:1633   */\n      dup5\n        /* \"#utility.yul\":1583:1654   */\n      tag_388\n      jump\t// in\n    tag_491:\n        /* \"#utility.yul\":1439:1661   */\n      swap3\n      swap2\n      pop\n      pop\n      jump\t// out\n        /* \"#utility.yul\":1667:1784   */\n    tag_389:\n        /* \"#utility.yul\":1776:1777   */\n      0x00\n        /* \"#utility.yul\":1773:1774   */\n      dup1\n        /* \"#utility.yul\":1766:1778   */\n      revert\n        /* \"#utility.yul\":1790:1892   */\n    tag_390:\n        /* \"#utility.yul\":1831:1837   */\n      0x00\n        /* \"#utility.yul\":1882:1884   */\n      0x1f\n        /* \"#utility.yul\":1878:1885   */\n      not\n        /* \"#utility.yul\":1873:1875   */\n      0x1f\n        /* \"#utility.yul\":1866:1871   */\n      dup4\n        /* \"#utility.yul\":1862:1876   */\n      add\n        /* \"#utility.yul\":1858:1886   */\n      and\n        /* \"#utility.yul\":1848:1886   */\n      swap1\n      pop\n        /* \"#utility.yul\":1790:1892   */\n      swap2\n      swap1\n      pop\n      jump\t// out\n        /* \"#utility.yul\":1898:2078   */\n    tag_196:\n        /* \"#utility.yul\":1946:2023   */\n      0x4e487b7100000000000000000000000000000000000000000000000000000000\n        /* \"#utility.yul\":1943:1944   */\n      0x00\n        /* \"#utility.yul\":1936:2024   */\n      mstore\n        /* \"#utility.yul\":2043:2047   */\n      0x41\n        /* \"#utility.yul\":2040:2041   */\n      0x04\n        /* \"#utility.yul\":2033:2048   */\n      mstore\n        /* \"#utility.yul\":2067:2071   */\n      0x24\n        /* \"#utility.yul\":2064:2065   */\n      0x00\n        /* \"#utility.yul\":2057:2072   */\n      revert\n        /* \"#utility.yul\":2084:2365   */\n    tag_391:\n        /* \"#utility.yul\":2167:2194   */\n      tag_496\n        /* \"#utility.yul\":2189:2193   */\n      dup3\n        /* \"#utility.yul\":2167:2194   */\n      tag_390\n      jump\t// in\n    tag_496:\n        /* \"#utility.yul\":2159:2165   */\n      dup2\n        /* \"#utility.yul\":2155:2195   */\n      add\n        /* \"#utility.yul\":2297:2303   */\n      dup2\n        /* \"#utility.yul\":2285:2295   */\n      dup2\n        /* \"#utility.yul\":2282:2304   */\n      lt\n        /* \"#utility.yul\":2261:2279   */\n      0xffffffffffffffff\n        /* \"#utility.yul\":2249:2259   */\n      dup3\n        /* \"#utility.yul\":2246:2280   */\n      gt\n        /* \"#utility.yul\":2243:2305   */\n      or\n        /* \"#utility.yul\":2240:2328   */\n      iszero\n      tag_497\n      jumpi\n        /* \"#utility.yul\":2308:2326   */\n      tag_498\n      tag_196\n      jump\t// in\n    tag_498:\n        /* \"#utility.yul\":2240:2328   */\n    tag_497:\n        /* \"#utility.yul\":2348:2358   */\n      dup1\n        /* \"#utility.yul\":2344:2346   */\n      0x40\n        /* \"#utility.yul\":2337:2359   */\n      mstore\n        /* \"#utility.yul\":2127:2365   */\n      pop\n        /* \"#utility.yul\":2084:2365   */\n      pop\n      pop\n      jump\t// out\n        /* \"#utility.yul\":2371:2500   */\n    tag_392:\n        /* \"#utility.yul\":2405:2411   */\n      0x00\n        /* \"#utility.yul\":2432:2452   */\n      tag_500\n      tag_382\n      jump\t// in\n    tag_500:\n        /* \"#utility.yul\":2422:2452   */\n      swap1\n      pop\n        /* \"#utility.yul\":2461:2494   */\n      tag_501\n        /* \"#utility.yul\":2489:2493   */\n      dup3\n        /* \"#utility.yul\":2481:2487   */\n      dup3\n        /* \"#utility.yul\":2461:2494   */\n      tag_391\n      jump\t// in\n    tag_501:\n        /* \"#utility.yul\":2371:2500   */\n      swap2\n      swap1\n      pop\n      jump\t// out\n        /* \"#utility.yul\":2506:2817   */\n    tag_393:\n        /* \"#utility.yul\":2583:2587   */\n      0x00\n        /* \"#utility.yul\":2673:2691   */\n      0xffffffffffffffff\n        /* \"#utility.yul\":2665:2671   */\n      dup3\n        /* \"#utility.yul\":2662:2692   */\n      gt\n        /* \"#utility.yul\":2659:2715   */\n      iszero\n      tag_503\n      jumpi\n        /* \"#utility.yul\":2695:2713   */\n      tag_504\n      tag_196\n      jump\t// in\n    tag_504:\n        /* \"#utility.yul\":2659:2715   */\n    tag_503:\n        /* \"#utility.yul\":2745:2749   */\n      0x20\n        /* \"#utility.yul\":2737:2743   */\n      dup3\n        /* \"#utility.yul\":2733:2750   */\n      mul\n        /* \"#utility.yul\":2725:2750   */\n      swap1\n      pop\n        /* \"#utility.yul\":2805:2809   */\n      0x20\n        /* \"#utility.yul\":2799:2803   */\n      dup2\n        /* \"#utility.yul\":2795:2810   */\n      add\n        /* \"#utility.yul\":2787:2810   */\n      swap1\n      pop\n        /* \"#utility.yul\":2506:2817   */\n      swap2\n      swap1\n      pop\n      jump\t// out\n        /* \"#utility.yul\":2823:2940   */\n    tag_394:\n        /* \"#utility.yul\":2932:2933   */\n      0x00\n        /* \"#utility.yul\":2929:2930   */\n      dup1\n        /* \"#utility.yul\":2922:2934   */\n      revert\n        /* \"#utility.yul\":2946:3072   */\n    tag_395:\n        /* \"#utility.yul\":2983:2990   */\n      0x00\n        /* \"#utility.yul\":3023:3065   */\n      0xffffffffffffffffffffffffffffffffffffffff\n        /* \"#utility.yul\":3016:3021   */\n      dup3\n        /* \"#utility.yul\":3012:3066   */\n      and\n        /* \"#utility.yul\":3001:3066   */\n      swap1\n      pop\n        /* \"#utility.yul\":2946:3072   */\n      swap2\n      swap1\n      pop\n      jump\t// out\n        /* \"#utility.yul\":3078:3174   */\n    tag_396:\n        /* \"#utility.yul\":3115:3122   */\n      0x00\n        /* \"#utility.yul\":3144:3168   */\n      tag_508\n        /* \"#utility.yul\":3162:3167   */\n      dup3\n        /* \"#utility.yul\":3144:3168   */\n      tag_395\n      jump\t// in\n    tag_508:\n        /* \"#utility.yul\":3133:3168   */\n      swap1\n      pop\n        /* \"#utility.yul\":3078:3174   */\n      swap2\n      swap1\n      pop\n      jump\t// out\n        /* \"#utility.yul\":3180:3302   */\n    tag_397:\n        /* \"#utility.yul\":3253:3277   */\n      tag_510\n        /* \"#utility.yul\":3271:3276   */\n      dup2\n        /* \"#utility.yul\":3253:3277   */\n      tag_396\n      jump\t// in\n    tag_510:\n        /* \"#utility.yul\":3246:3251   */\n      dup2\n        /* \"#utility.yul\":3243:3278   */\n      eq\n        /* \"#utility.yul\":3233:3296   */\n      tag_511\n      jumpi\n        /* \"#utility.yul\":3292:3293   */\n      0x00\n        /* \"#utility.yul\":3289:3290   */\n      dup1\n        /* \"#utility.yul\":3282:3294   */\n      revert\n        /* \"#utility.yul\":3233:3296   */\n    tag_511:\n        /* \"#utility.yul\":3180:3302   */\n      pop\n      jump\t// out\n        /* \"#utility.yul\":3308:3447   */\n    tag_398:\n        /* \"#utility.yul\":3354:3359   */\n      0x00\n        /* \"#utility.yul\":3392:3398   */\n      dup2\n        /* \"#utility.yul\":3379:3399   */\n      calldataload\n        /* \"#utility.yul\":3370:3399   */\n      swap1\n      pop\n        /* \"#utility.yul\":3408:3441   */\n      tag_513\n        /* \"#utility.yul\":3435:3440   */\n      dup2\n        /* \"#utility.yul\":3408:3441   */\n      tag_397\n      jump\t// in\n    tag_513:\n        /* \"#utility.yul\":3308:3447   */\n      swap3\n      swap2\n      pop\n      pop\n      jump\t// out\n        /* \"#utility.yul\":3470:4180   */\n    tag_399:\n        /* \"#utility.yul\":3566:3571   */\n      0x00\n        /* \"#utility.yul\":3591:3672   */\n      tag_515\n        /* \"#utility.yul\":3607:3671   */\n      tag_516\n        /* \"#utility.yul\":3664:3670   */\n      dup5\n        /* \"#utility.yul\":3607:3671   */\n      tag_393\n      jump\t// in\n    tag_516:\n        /* \"#utility.yul\":3591:3672   */\n      tag_392\n      jump\t// in\n    tag_515:\n        /* \"#utility.yul\":3582:3672   */\n      swap1\n      pop\n        /* \"#utility.yul\":3692:3697   */\n      dup1\n        /* \"#utility.yul\":3721:3727   */\n      dup4\n        /* \"#utility.yul\":3714:3719   */\n      dup3\n        /* \"#utility.yul\":3707:3728   */\n      mstore\n        /* \"#utility.yul\":3755:3759   */\n      0x20\n        /* \"#utility.yul\":3748:3753   */\n      dup3\n        /* \"#utility.yul\":3744:3760   */\n      add\n        /* \"#utility.yul\":3737:3760   */\n      swap1\n      pop\n        /* \"#utility.yul\":3808:3812   */\n      0x20\n        /* \"#utility.yul\":3800:3806   */\n      dup5\n        /* \"#utility.yul\":3796:3813   */\n      mul\n        /* \"#utility.yul\":3788:3794   */\n      dup4\n        /* \"#utility.yul\":3784:3814   */\n      add\n        /* \"#utility.yul\":3837:3840   */\n      dup6\n        /* \"#utility.yul\":3829:3835   */\n      dup2\n        /* \"#utility.yul\":3826:3841   */\n      gt\n        /* \"#utility.yul\":3823:3945   */\n      iszero\n      tag_517\n      jumpi\n        /* \"#utility.yul\":3856:3935   */\n      tag_518\n      tag_394\n      jump\t// in\n    tag_518:\n        /* \"#utility.yul\":3823:3945   */\n    tag_517:\n        /* \"#utility.yul\":3971:3977   */\n      dup4\n        /* \"#utility.yul\":3954:4174   */\n    tag_519:\n        /* \"#utility.yul\":3988:3994   */\n      dup2\n        /* \"#utility.yul\":3983:3986   */\n      dup2\n        /* \"#utility.yul\":3980:3995   */\n      lt\n        /* \"#utility.yul\":3954:4174   */\n      iszero\n      tag_521\n      jumpi\n        /* \"#utility.yul\":4063:4066   */\n      dup1\n        /* \"#utility.yul\":4092:4129   */\n      tag_522\n        /* \"#utility.yul\":4125:4128   */\n      dup9\n        /* \"#utility.yul\":4113:4123   */\n      dup3\n        /* \"#utility.yul\":4092:4129   */\n      tag_398\n      jump\t// in\n    tag_522:\n        /* \"#utility.yul\":4087:4090   */\n      dup5\n        /* \"#utility.yul\":4080:4130   */\n      mstore\n        /* \"#utility.yul\":4159:4163   */\n      0x20\n        /* \"#utility.yul\":4154:4157   */\n      dup5\n        /* \"#utility.yul\":4150:4164   */\n      add\n        /* \"#utility.yul\":4143:4164   */\n      swap4\n      pop\n        /* \"#utility.yul\":4030:4174   */\n      pop\n        /* \"#utility.yul\":4014:4018   */\n      0x20\n        /* \"#utility.yul\":4009:4012   */\n      dup2\n        /* \"#utility.yul\":4005:4019   */\n      add\n        /* \"#utility.yul\":3998:4019   */\n      swap1\n      pop\n        /* \"#utility.yul\":3954:4174   */\n      jump(tag_519)\n    tag_521:\n        /* \"#utility.yul\":3958:3979   */\n      pop\n        /* \"#utility.yul\":3572:4180   */\n      pop\n      pop\n        /* \"#utility.yul\":3470:4180   */\n      swap4\n      swap3\n      pop\n      pop\n      pop\n      jump\t// out\n        /* \"#utility.yul\":4203:4573   */\n    tag_400:\n        /* \"#utility.yul\":4274:4279   */\n      0x00\n        /* \"#utility.yul\":4323:4326   */\n      dup3\n        /* \"#utility.yul\":4316:4320   */\n      0x1f\n        /* \"#utility.yul\":4308:4314   */\n      dup4\n        /* \"#utility.yul\":4304:4321   */\n      add\n        /* \"#utility.yul\":4300:4327   */\n      slt\n        /* \"#utility.yul\":4290:4412   */\n      tag_524\n      jumpi\n        /* \"#utility.yul\":4331:4410   */\n      tag_525\n      tag_389\n      jump\t// in\n    tag_525:\n        /* \"#utility.yul\":4290:4412   */\n    tag_524:\n        /* \"#utility.yul\":4448:4454   */\n      dup2\n        /* \"#utility.yul\":4435:4455   */\n      calldataload\n        /* \"#utility.yul\":4473:4567   */\n      tag_526\n        /* \"#utility.yul\":4563:4566   */\n      dup5\n        /* \"#utility.yul\":4555:4561   */\n      dup3\n        /* \"#utility.yul\":4548:4552   */\n      0x20\n        /* \"#utility.yul\":4540:4546   */\n      dup7\n        /* \"#utility.yul\":4536:4553   */\n      add\n        /* \"#utility.yul\":4473:4567   */\n      tag_399\n      jump\t// in\n    tag_526:\n        /* \"#utility.yul\":4464:4567   */\n      swap2\n      pop\n        /* \"#utility.yul\":4280:4573   */\n      pop\n        /* \"#utility.yul\":4203:4573   */\n      swap3\n      swap2\n      pop\n      pop\n      jump\t// out\n        /* \"#utility.yul\":4579:5263   */\n    tag_22:\n        /* \"#utility.yul\":4672:4678   */\n      0x00\n        /* \"#utility.yul\":4680:4686   */\n      dup1\n        /* \"#utility.yul\":4729:4731   */\n      0x40\n        /* \"#utility.yul\":4717:4726   */\n      dup4\n        /* \"#utility.yul\":4708:4715   */\n      dup6\n        /* \"#utility.yul\":4704:4727   */\n      sub\n        /* \"#utility.yul\":4700:4732   */\n      slt\n        /* \"#utility.yul\":4697:4816   */\n      iszero\n      tag_528\n      jumpi\n        /* \"#utility.yul\":4735:4814   */\n      tag_529\n      tag_383\n      jump\t// in\n    tag_529:\n        /* \"#utility.yul\":4697:4816   */\n    tag_528:\n        /* \"#utility.yul\":4855:4856   */\n      0x00\n        /* \"#utility.yul\":4880:4933   */\n      tag_530\n        /* \"#utility.yul\":4925:4932   */\n      dup6\n        /* \"#utility.yul\":4916:4922   */\n      dup3\n        /* \"#utility.yul\":4905:4914   */\n      dup7\n        /* \"#utility.yul\":4901:4923   */\n      add\n        /* \"#utility.yul\":4880:4933   */\n      tag_387\n      jump\t// in\n    tag_530:\n        /* \"#utility.yul\":4870:4933   */\n      swap3\n      pop\n        /* \"#utility.yul\":4826:4943   */\n      pop\n        /* \"#utility.yul\":5010:5012   */\n      0x20\n        /* \"#utility.yul\":4999:5008   */\n      dup4\n        /* \"#utility.yul\":4995:5013   */\n      add\n        /* \"#utility.yul\":4982:5014   */\n      calldataload\n        /* \"#utility.yul\":5041:5059   */\n      0xffffffffffffffff\n        /* \"#utility.yul\":5033:5039   */\n      dup2\n        /* \"#utility.yul\":5030:5060   */\n      gt\n        /* \"#utility.yul\":5027:5144   */\n      iszero\n      tag_531\n      jumpi\n        /* \"#utility.yul\":5063:5142   */\n      tag_532\n      tag_384\n      jump\t// in\n    tag_532:\n        /* \"#utility.yul\":5027:5144   */\n    tag_531:\n        /* \"#utility.yul\":5168:5246   */\n      tag_533\n        /* \"#utility.yul\":5238:5245   */\n      dup6\n        /* \"#utility.yul\":5229:5235   */\n      dup3\n        /* \"#utility.yul\":5218:5227   */\n      dup7\n        /* \"#utility.yul\":5214:5236   */\n      add\n        /* \"#utility.yul\":5168:5246   */\n      tag_400\n      jump\t// in\n    tag_533:\n        /* \"#utility.yul\":5158:5246   */\n      swap2\n      pop\n        /* \"#utility.yul\":4953:5256   */\n      pop\n        /* \"#utility.yul\":4579:5263   */\n      swap3\n      pop\n      swap3\n      swap1\n      pop\n      jump\t// out\n        /* \"#utility.yul\":5269:5383   */\n    tag_401:\n        /* \"#utility.yul\":5336:5342   */\n      0x00\n        /* \"#utility.yul\":5370:5375   */\n      dup2\n        /* \"#utility.yul\":5364:5376   */\n      mload\n        /* \"#utility.yul\":5354:5376   */\n      swap1\n      pop\n        /* \"#utility.yul\":5269:5383   */\n      swap2\n      swap1\n      pop\n      jump\t// out\n        /* \"#utility.yul\":5389:5573   */\n    tag_402:\n        /* \"#utility.yul\":5488:5499   */\n      0x00\n        /* \"#utility.yul\":5522:5528   */\n      dup3\n        /* \"#utility.yul\":5517:5520   */\n      dup3\n        /* \"#utility.yul\":5510:5529   */\n      mstore\n        /* \"#utility.yul\":5562:5566   */\n      0x20\n        /* \"#utility.yul\":5557:5560   */\n      dup3\n        /* \"#utility.yul\":5553:5567   */\n      add\n        /* \"#utility.yul\":5538:5567   */\n      swap1\n      pop\n        /* \"#utility.yul\":5389:5573   */\n      swap3\n      swap2\n      pop\n      pop\n      jump\t// out\n        /* \"#utility.yul\":5579:5711   */\n    tag_403:\n        /* \"#utility.yul\":5646:5650   */\n      0x00\n        /* \"#utility.yul\":5669:5672   */\n      dup2\n        /* \"#utility.yul\":5661:5672   */\n      swap1\n      pop\n        /* \"#utility.yul\":5699:5703   */\n      0x20\n        /* \"#utility.yul\":5694:5697   */\n      dup3\n        /* \"#utility.yul\":5690:5704   */\n      add\n        /* \"#utility.yul\":5682:5704   */\n      swap1\n      pop\n        /* \"#utility.yul\":5579:5711   */\n      swap2\n      swap1\n      pop\n      jump\t// out\n        /* \"#utility.yul\":5717:5825   */\n    tag_404:\n        /* \"#utility.yul\":5794:5818   */\n      tag_538\n        /* \"#utility.yul\":5812:5817   */\n      dup2\n        /* \"#utility.yul\":5794:5818   */\n      tag_385\n      jump\t// in\n    tag_538:\n        /* \"#utility.yul\":5789:5792   */\n      dup3\n        /* \"#utility.yul\":5782:5819   */\n      mstore\n        /* \"#utility.yul\":5717:5825   */\n      pop\n      pop\n      jump\t// out\n        /* \"#utility.yul\":5831:6010   */\n    tag_405:\n        /* \"#utility.yul\":5900:5910   */\n      0x00\n        /* \"#utility.yul\":5921:5967   */\n      tag_540\n        /* \"#utility.yul\":5963:5966   */\n      dup4\n        /* \"#utility.yul\":5955:5961   */\n      dup4\n        /* \"#utility.yul\":5921:5967   */\n      tag_404\n      jump\t// in\n    tag_540:\n        /* \"#utility.yul\":5999:6003   */\n      0x20\n        /* \"#utility.yul\":5994:5997   */\n      dup4\n        /* \"#utility.yul\":5990:6004   */\n      add\n        /* \"#utility.yul\":5976:6004   */\n      swap1\n      pop\n        /* \"#utility.yul\":5831:6010   */\n      swap3\n      swap2\n      pop\n      pop\n      jump\t// out\n        /* \"#utility.yul\":6016:6129   */\n    tag_406:\n        /* \"#utility.yul\":6086:6090   */\n      0x00\n        /* \"#utility.yul\":6118:6122   */\n      0x20\n        /* \"#utility.yul\":6113:6116   */\n      dup3\n        /* \"#utility.yul\":6109:6123   */\n      add\n        /* \"#utility.yul\":6101:6123   */\n      swap1\n      pop\n        /* \"#utility.yul\":6016:6129   */\n      swap2\n      swap1\n      pop\n      jump\t// out\n        /* \"#utility.yul\":6165:6897   */\n    tag_407:\n        /* \"#utility.yul\":6284:6287   */\n      0x00\n        /* \"#utility.yul\":6313:6367   */\n      tag_543\n        /* \"#utility.yul\":6361:6366   */\n      dup3\n        /* \"#utility.yul\":6313:6367   */\n      tag_401\n      jump\t// in\n    tag_543:\n        /* \"#utility.yul\":6383:6469   */\n      tag_544\n        /* \"#utility.yul\":6462:6468   */\n      dup2\n        /* \"#utility.yul\":6457:6460   */\n      dup6\n        /* \"#utility.yul\":6383:6469   */\n      tag_402\n      jump\t// in\n    tag_544:\n        /* \"#utility.yul\":6376:6469   */\n      swap4\n      pop\n        /* \"#utility.yul\":6493:6549   */\n      tag_545\n        /* \"#utility.yul\":6543:6548   */\n      dup4\n        /* \"#utility.yul\":6493:6549   */\n      tag_403\n      jump\t// in\n    tag_545:\n        /* \"#utility.yul\":6572:6579   */\n      dup1\n        /* \"#utility.yul\":6603:6604   */\n      0x00\n        /* \"#utility.yul\":6588:6872   */\n    tag_546:\n        /* \"#utility.yul\":6613:6619   */\n      dup4\n        /* \"#utility.yul\":6610:6611   */\n      dup2\n        /* \"#utility.yul\":6607:6620   */\n      lt\n        /* \"#utility.yul\":6588:6872   */\n      iszero\n      tag_548\n      jumpi\n        /* \"#utility.yul\":6689:6695   */\n      dup2\n        /* \"#utility.yul\":6683:6696   */\n      mload\n        /* \"#utility.yul\":6716:6779   */\n      tag_549\n        /* \"#utility.yul\":6775:6778   */\n      dup9\n        /* \"#utility.yul\":6760:6773   */\n      dup3\n        /* \"#utility.yul\":6716:6779   */\n      tag_405\n      jump\t// in\n    tag_549:\n        /* \"#utility.yul\":6709:6779   */\n      swap8\n      pop\n        /* \"#utility.yul\":6802:6862   */\n      tag_550\n        /* \"#utility.yul\":6855:6861   */\n      dup4\n        /* \"#utility.yul\":6802:6862   */\n      tag_406\n      jump\t// in\n    tag_550:\n        /* \"#utility.yul\":6792:6862   */\n      swap3\n      pop\n        /* \"#utility.yul\":6648:6872   */\n      pop\n        /* \"#utility.yul\":6635:6636   */\n      0x01\n        /* \"#utility.yul\":6632:6633   */\n      dup2\n        /* \"#utility.yul\":6628:6637   */\n      add\n        /* \"#utility.yul\":6623:6637   */\n      swap1\n      pop\n        /* \"#utility.yul\":6588:6872   */\n      jump(tag_546)\n    tag_548:\n        /* \"#utility.yul\":6592:6606   */\n      pop\n        /* \"#utility.yul\":6888:6891   */\n      dup6\n        /* \"#utility.yul\":6881:6891   */\n      swap4\n      pop\n        /* \"#utility.yul\":6289:6897   */\n      pop\n      pop\n      pop\n        /* \"#utility.yul\":6165:6897   */\n      swap3\n      swap2\n      pop\n      pop\n      jump\t// out\n        /* \"#utility.yul\":6903:7276   */\n    tag_25:\n        /* \"#utility.yul\":7046:7050   */\n      0x00\n        /* \"#utility.yul\":7084:7086   */\n      0x20\n        /* \"#utility.yul\":7073:7082   */\n      dup3\n        /* \"#utility.yul\":7069:7087   */\n      add\n        /* \"#utility.yul\":7061:7087   */\n      swap1\n      pop\n        /* \"#utility.yul\":7133:7142   */\n      dup2\n        /* \"#utility.yul\":7127:7131   */\n      dup2\n        /* \"#utility.yul\":7123:7143   */\n      sub\n        /* \"#utility.yul\":7119:7120   */\n      0x00\n        /* \"#utility.yul\":7108:7117   */\n      dup4\n        /* \"#utility.yul\":7104:7121   */\n      add\n        /* \"#utility.yul\":7097:7144   */\n      mstore\n        /* \"#utility.yul\":7161:7269   */\n      tag_552\n        /* \"#utility.yul\":7264:7268   */\n      dup2\n        /* \"#utility.yul\":7255:7261   */\n      dup5\n        /* \"#utility.yul\":7161:7269   */\n      tag_407\n      jump\t// in\n    tag_552:\n        /* \"#utility.yul\":7153:7269   */\n      swap1\n      pop\n        /* \"#utility.yul\":6903:7276   */\n      swap3\n      swap2\n      pop\n      pop\n      jump\t// out\n        /* \"#utility.yul\":7282:7399   */\n    tag_408:\n        /* \"#utility.yul\":7391:7392   */\n      0x00\n        /* \"#utility.yul\":7388:7389   */\n      dup1\n        /* \"#utility.yul\":7381:7393   */\n      revert\n        /* \"#utility.yul\":7422:7990   */\n    tag_409:\n        /* \"#utility.yul\":7495:7503   */\n      0x00\n        /* \"#utility.yul\":7505:7511   */\n      dup1\n        /* \"#utility.yul\":7555:7558   */\n      dup4\n        /* \"#utility.yul\":7548:7552   */\n      0x1f\n        /* \"#utility.yul\":7540:7546   */\n      dup5\n        /* \"#utility.yul\":7536:7553   */\n      add\n        /* \"#utility.yul\":7532:7559   */\n      slt\n        /* \"#utility.yul\":7522:7644   */\n      tag_555\n      jumpi\n        /* \"#utility.yul\":7563:7642   */\n      tag_556\n      tag_389\n      jump\t// in\n    tag_556:\n        /* \"#utility.yul\":7522:7644   */\n    tag_555:\n        /* \"#utility.yul\":7676:7682   */\n      dup3\n        /* \"#utility.yul\":7663:7683   */\n      calldataload\n        /* \"#utility.yul\":7653:7683   */\n      swap1\n      pop\n        /* \"#utility.yul\":7706:7724   */\n      0xffffffffffffffff\n        /* \"#utility.yul\":7698:7704   */\n      dup2\n        /* \"#utility.yul\":7695:7725   */\n      gt\n        /* \"#utility.yul\":7692:7809   */\n      iszero\n      tag_557\n      jumpi\n        /* \"#utility.yul\":7728:7807   */\n      tag_558\n      tag_408\n      jump\t// in\n    tag_558:\n        /* \"#utility.yul\":7692:7809   */\n    tag_557:\n        /* \"#utility.yul\":7842:7846   */\n      0x20\n        /* \"#utility.yul\":7834:7840   */\n      dup4\n        /* \"#utility.yul\":7830:7847   */\n      add\n        /* \"#utility.yul\":7818:7847   */\n      swap2\n      pop\n        /* \"#utility.yul\":7896:7899   */\n      dup4\n        /* \"#utility.yul\":7888:7892   */\n      0x20\n        /* \"#utility.yul\":7880:7886   */\n      dup3\n        /* \"#utility.yul\":7876:7893   */\n      mul\n        /* \"#utility.yul\":7866:7874   */\n      dup4\n        /* \"#utility.yul\":7862:7894   */\n      add\n        /* \"#utility.yul\":7859:7900   */\n      gt\n        /* \"#utility.yul\":7856:7984   */\n      iszero\n      tag_559\n      jumpi\n        /* \"#utility.yul\":7903:7982   */\n      tag_560\n      tag_394\n      jump\t// in\n    tag_560:\n        /* \"#utility.yul\":7856:7984   */\n    tag_559:\n        /* \"#utility.yul\":7422:7990   */\n      swap3\n      pop\n      swap3\n      swap1\n      pop\n      jump\t// out\n        /* \"#utility.yul\":7996:9137   */\n    tag_28:\n        /* \"#utility.yul\":8118:8124   */\n      0x00\n        /* \"#utility.yul\":8126:8132   */\n      dup1\n        /* \"#utility.yul\":8134:8140   */\n      0x00\n        /* \"#utility.yul\":8142:8148   */\n      dup1\n        /* \"#utility.yul\":8150:8156   */\n      0x00\n        /* \"#utility.yul\":8158:8164   */\n      dup1\n        /* \"#utility.yul\":8207:8210   */\n      0xa0\n        /* \"#utility.yul\":8195:8204   */\n      dup8\n        /* \"#utility.yul\":8186:8193   */\n      dup10\n        /* \"#utility.yul\":8182:8205   */\n      sub\n        /* \"#utility.yul\":8178:8211   */\n      slt\n        /* \"#utility.yul\":8175:8295   */\n      iszero\n      tag_562\n      jumpi\n        /* \"#utility.yul\":8214:8293   */\n      tag_563\n      tag_383\n      jump\t// in\n    tag_563:\n        /* \"#utility.yul\":8175:8295   */\n    tag_562:\n        /* \"#utility.yul\":8334:8335   */\n      0x00\n        /* \"#utility.yul\":8359:8412   */\n      tag_564\n        /* \"#utility.yul\":8404:8411   */\n      dup10\n        /* \"#utility.yul\":8395:8401   */\n      dup3\n        /* \"#utility.yul\":8384:8393   */\n      dup11\n        /* \"#utility.yul\":8380:8402   */\n      add\n        /* \"#utility.yul\":8359:8412   */\n      tag_387\n      jump\t// in\n    tag_564:\n        /* \"#utility.yul\":8349:8412   */\n      swap7\n      pop\n        /* \"#utility.yul\":8305:8422   */\n      pop\n        /* \"#utility.yul\":8461:8463   */\n      0x20\n        /* \"#utility.yul\":8487:8540   */\n      tag_565\n        /* \"#utility.yul\":8532:8539   */\n      dup10\n        /* \"#utility.yul\":8523:8529   */\n      dup3\n        /* \"#utility.yul\":8512:8521   */\n      dup11\n        /* \"#utility.yul\":8508:8530   */\n      add\n        /* \"#utility.yul\":8487:8540   */\n      tag_387\n      jump\t// in\n    tag_565:\n        /* \"#utility.yul\":8477:8540   */\n      swap6\n      pop\n        /* \"#utility.yul\":8432:8550   */\n      pop\n        /* \"#utility.yul\":8617:8619   */\n      0x40\n        /* \"#utility.yul\":8606:8615   */\n      dup8\n        /* \"#utility.yul\":8602:8620   */\n      add\n        /* \"#utility.yul\":8589:8621   */\n      calldataload\n        /* \"#utility.yul\":8648:8666   */\n      0xffffffffffffffff\n        /* \"#utility.yul\":8640:8646   */\n      dup2\n        /* \"#utility.yul\":8637:8667   */\n      gt\n        /* \"#utility.yul\":8634:8751   */\n      iszero\n      tag_566\n      jumpi\n        /* \"#utility.yul\":8670:8749   */\n      tag_567\n      tag_384\n      jump\t// in\n    tag_567:\n        /* \"#utility.yul\":8634:8751   */\n    tag_566:\n        /* \"#utility.yul\":8783:8863   */\n      tag_568\n        /* \"#utility.yul\":8855:8862   */\n      dup10\n        /* \"#utility.yul\":8846:8852   */\n      dup3\n        /* \"#utility.yul\":8835:8844   */\n      dup11\n        /* \"#utility.yul\":8831:8853   */\n      add\n        /* \"#utility.yul\":8783:8863   */\n      tag_409\n      jump\t// in\n    tag_568:\n        /* \"#utility.yul\":8765:8863   */\n      swap5\n      pop\n      swap5\n      pop\n        /* \"#utility.yul\":8560:8873   */\n      pop\n        /* \"#utility.yul\":8912:8914   */\n      0x60\n        /* \"#utility.yul\":8938:8991   */\n      tag_569\n        /* \"#utility.yul\":8983:8990   */\n      dup10\n        /* \"#utility.yul\":8974:8980   */\n      dup3\n        /* \"#utility.yul\":8963:8972   */\n      dup11\n        /* \"#utility.yul\":8959:8981   */\n      add\n        /* \"#utility.yul\":8938:8991   */\n      tag_398\n      jump\t// in\n    tag_569:\n        /* \"#utility.yul\":8928:8991   */\n      swap3\n      pop\n        /* \"#utility.yul\":8883:9001   */\n      pop\n        /* \"#utility.yul\":9040:9043   */\n      0x80\n        /* \"#utility.yul\":9067:9120   */\n      tag_570\n        /* \"#utility.yul\":9112:9119   */\n      dup10\n        /* \"#utility.yul\":9103:9109   */\n      dup3\n        /* \"#utility.yul\":9092:9101   */\n      dup11\n        /* \"#utility.yul\":9088:9110   */\n      add\n        /* \"#utility.yul\":9067:9120   */\n      tag_387\n      jump\t// in\n    tag_570:\n        /* \"#utility.yul\":9057:9120   */\n      swap2\n      pop\n        /* \"#utility.yul\":9011:9130   */\n      pop\n        /* \"#utility.yul\":7996:9137   */\n      swap3\n      swap6\n      pop\n      swap3\n      swap6\n      pop\n      swap3\n      swap6\n      jump\t// out\n        /* \"#utility.yul\":9143:10346   */\n    tag_45:\n        /* \"#utility.yul\":9256:9262   */\n      0x00\n        /* \"#utility.yul\":9264:9270   */\n      dup1\n        /* \"#utility.yul\":9272:9278   */\n      0x00\n        /* \"#utility.yul\":9280:9286   */\n      dup1\n        /* \"#utility.yul\":9288:9294   */\n      0x00\n        /* \"#utility.yul\":9296:9302   */\n      dup1\n        /* \"#utility.yul\":9304:9310   */\n      0x00\n        /* \"#utility.yul\":9353:9356   */\n      0xe0\n        /* \"#utility.yul\":9341:9350   */\n      dup9\n        /* \"#utility.yul\":9332:9339   */\n      dup11\n        /* \"#utility.yul\":9328:9351   */\n      sub\n        /* \"#utility.yul\":9324:9357   */\n      slt\n        /* \"#utility.yul\":9321:9441   */\n      iszero\n      tag_572\n      jumpi\n        /* \"#utility.yul\":9360:9439   */\n      tag_573\n      tag_383\n      jump\t// in\n    tag_573:\n        /* \"#utility.yul\":9321:9441   */\n    tag_572:\n        /* \"#utility.yul\":9480:9481   */\n      0x00\n        /* \"#utility.yul\":9505:9558   */\n      tag_574\n        /* \"#utility.yul\":9550:9557   */\n      dup11\n        /* \"#utility.yul\":9541:9547   */\n      dup3\n        /* \"#utility.yul\":9530:9539   */\n      dup12\n        /* \"#utility.yul\":9526:9548   */\n      add\n        /* \"#utility.yul\":9505:9558   */\n      tag_398\n      jump\t// in\n    tag_574:\n        /* \"#utility.yul\":9495:9558   */\n      swap8\n      pop\n        /* \"#utility.yul\":9451:9568   */\n      pop\n        /* \"#utility.yul\":9607:9609   */\n      0x20\n        /* \"#utility.yul\":9633:9686   */\n      tag_575\n        /* \"#utility.yul\":9678:9685   */\n      dup11\n        /* \"#utility.yul\":9669:9675   */\n      dup3\n        /* \"#utility.yul\":9658:9667   */\n      dup12\n        /* \"#utility.yul\":9654:9676   */\n      add\n        /* \"#utility.yul\":9633:9686   */\n      tag_398\n      jump\t// in\n    tag_575:\n        /* \"#utility.yul\":9623:9686   */\n      swap7\n      pop\n        /* \"#utility.yul\":9578:9696   */\n      pop\n        /* \"#utility.yul\":9735:9737   */\n      0x40\n        /* \"#utility.yul\":9761:9814   */\n      tag_576\n        /* \"#utility.yul\":9806:9813   */\n      dup11\n        /* \"#utility.yul\":9797:9803   */\n      dup3\n        /* \"#utility.yul\":9786:9795   */\n      dup12\n        /* \"#utility.yul\":9782:9804   */\n      add\n        /* \"#utility.yul\":9761:9814   */\n      tag_387\n      jump\t// in\n    tag_576:\n        /* \"#utility.yul\":9751:9814   */\n      swap6\n      pop\n        /* \"#utility.yul\":9706:9824   */\n      pop\n        /* \"#utility.yul\":9863:9865   */\n      0x60\n        /* \"#utility.yul\":9889:9942   */\n      tag_577\n        /* \"#utility.yul\":9934:9941   */\n      dup11\n        /* \"#utility.yul\":9925:9931   */\n      dup3\n        /* \"#utility.yul\":9914:9923   */\n      dup12\n        /* \"#utility.yul\":9910:9932   */\n      add\n        /* \"#utility.yul\":9889:9942   */\n      tag_387\n      jump\t// in\n    tag_577:\n        /* \"#utility.yul\":9879:9942   */\n      swap5\n      pop\n        /* \"#utility.yul\":9834:9952   */\n      pop\n        /* \"#utility.yul\":9991:9994   */\n      0x80\n        /* \"#utility.yul\":10018:10071   */\n      tag_578\n        /* \"#utility.yul\":10063:10070   */\n      dup11\n        /* \"#utility.yul\":10054:10060   */\n      dup3\n        /* \"#utility.yul\":10043:10052   */\n      dup12\n        /* \"#utility.yul\":10039:10061   */\n      add\n        /* \"#utility.yul\":10018:10071   */\n      tag_387\n      jump\t// in\n    tag_578:\n        /* \"#utility.yul\":10008:10071   */\n      swap4\n      pop\n        /* \"#utility.yul\":9962:10081   */\n      pop\n        /* \"#utility.yul\":10120:10123   */\n      0xa0\n        /* \"#utility.yul\":10147:10200   */\n      tag_579\n        /* \"#utility.yul\":10192:10199   */\n      dup11\n        /* \"#utility.yul\":10183:10189   */\n      dup3\n        /* \"#utility.yul\":10172:10181   */\n      dup12\n        /* \"#utility.yul\":10168:10190   */\n      add\n        /* \"#utility.yul\":10147:10200   */\n      tag_398\n      jump\t// in\n    tag_579:\n        /* \"#utility.yul\":10137:10200   */\n      swap3\n      pop\n        /* \"#utility.yul\":10091:10210   */\n      pop\n        /* \"#utility.yul\":10249:10252   */\n      0xc0\n        /* \"#utility.yul\":10276:10329   */\n      tag_580\n        /* \"#utility.yul\":10321:10328   */\n      dup11\n        /* \"#utility.yul\":10312:10318   */\n      dup3\n        /* \"#utility.yul\":10301:10310   */\n      dup12\n        /* \"#utility.yul\":10297:10319   */\n      add\n        /* \"#utility.yul\":10276:10329   */\n      tag_387\n      jump\t// in\n    tag_580:\n        /* \"#utility.yul\":10266:10329   */\n      swap2\n      pop\n        /* \"#utility.yul\":10220:10339   */\n      pop\n        /* \"#utility.yul\":9143:10346   */\n      swap3\n      swap6\n      swap9\n      swap2\n      swap5\n      swap8\n      pop\n      swap3\n      swap6\n      pop\n      jump\t// out\n        /* \"#utility.yul\":10352:10684   */\n    tag_48:\n        /* \"#utility.yul\":10473:10477   */\n      0x00\n        /* \"#utility.yul\":10511:10513   */\n      0x40\n        /* \"#utility.yul\":10500:10509   */\n      dup3\n        /* \"#utility.yul\":10496:10514   */\n      add\n        /* \"#utility.yul\":10488:10514   */\n      swap1\n      pop\n        /* \"#utility.yul\":10524:10595   */\n      tag_582\n        /* \"#utility.yul\":10592:10593   */\n      0x00\n        /* \"#utility.yul\":10581:10590   */\n      dup4\n        /* \"#utility.yul\":10577:10594   */\n      add\n        /* \"#utility.yul\":10568:10574   */\n      dup6\n        /* \"#utility.yul\":10524:10595   */\n      tag_388\n      jump\t// in\n    tag_582:\n        /* \"#utility.yul\":10605:10677   */\n      tag_583\n        /* \"#utility.yul\":10673:10675   */\n      0x20\n        /* \"#utility.yul\":10662:10671   */\n      dup4\n        /* \"#utility.yul\":10658:10676   */\n      add\n        /* \"#utility.yul\":10649:10655   */\n      dup5\n        /* \"#utility.yul\":10605:10677   */\n      tag_388\n      jump\t// in\n    tag_583:\n        /* \"#utility.yul\":10352:10684   */\n      swap4\n      swap3\n      pop\n      pop\n      pop\n      jump\t// out\n        /* \"#utility.yul\":10690:10808   */\n    tag_410:\n        /* \"#utility.yul\":10777:10801   */\n      tag_585\n        /* \"#utility.yul\":10795:10800   */\n      dup2\n        /* \"#utility.yul\":10777:10801   */\n      tag_396\n      jump\t// in\n    tag_585:\n        /* \"#utility.yul\":10772:10775   */\n      dup3\n        /* \"#utility.yul\":10765:10802   */\n      mstore\n        /* \"#utility.yul\":10690:10808   */\n      pop\n      pop\n      jump\t// out\n        /* \"#utility.yul\":10814:11036   */\n    tag_52:\n        /* \"#utility.yul\":10907:10911   */\n      0x00\n        /* \"#utility.yul\":10945:10947   */\n      0x20\n        /* \"#utility.yul\":10934:10943   */\n      dup3\n        /* \"#utility.yul\":10930:10948   */\n      add\n        /* \"#utility.yul\":10922:10948   */\n      swap1\n      pop\n        /* \"#utility.yul\":10958:11029   */\n      tag_587\n        /* \"#utility.yul\":11026:11027   */\n      0x00\n        /* \"#utility.yul\":11015:11024   */\n      dup4\n        /* \"#utility.yul\":11011:11028   */\n      add\n        /* \"#utility.yul\":11002:11008   */\n      dup5\n        /* \"#utility.yul\":10958:11029   */\n      tag_410\n      jump\t// in\n    tag_587:\n        /* \"#utility.yul\":10814:11036   */\n      swap3\n      swap2\n      pop\n      pop\n      jump\t// out\n        /* \"#utility.yul\":11042:12391   */\n    tag_59:\n        /* \"#utility.yul\":11164:11170   */\n      0x00\n        /* \"#utility.yul\":11172:11178   */\n      dup1\n        /* \"#utility.yul\":11180:11186   */\n      0x00\n        /* \"#utility.yul\":11188:11194   */\n      dup1\n        /* \"#utility.yul\":11196:11202   */\n      0x00\n        /* \"#utility.yul\":11204:11210   */\n      dup1\n        /* \"#utility.yul\":11212:11218   */\n      0x00\n        /* \"#utility.yul\":11220:11226   */\n      dup1\n        /* \"#utility.yul\":11269:11272   */\n      0x0100\n        /* \"#utility.yul\":11257:11266   */\n      dup10\n        /* \"#utility.yul\":11248:11255   */\n      dup12\n        /* \"#utility.yul\":11244:11267   */\n      sub\n        /* \"#utility.yul\":11240:11273   */\n      slt\n        /* \"#utility.yul\":11237:11357   */\n      iszero\n      tag_589\n      jumpi\n        /* \"#utility.yul\":11276:11355   */\n      tag_590\n      tag_383\n      jump\t// in\n    tag_590:\n        /* \"#utility.yul\":11237:11357   */\n    tag_589:\n        /* \"#utility.yul\":11396:11397   */\n      0x00\n        /* \"#utility.yul\":11421:11474   */\n      tag_591\n        /* \"#utility.yul\":11466:11473   */\n      dup12\n        /* \"#utility.yul\":11457:11463   */\n      dup3\n        /* \"#utility.yul\":11446:11455   */\n      dup13\n        /* \"#utility.yul\":11442:11464   */\n      add\n        /* \"#utility.yul\":11421:11474   */\n      tag_398\n      jump\t// in\n    tag_591:\n        /* \"#utility.yul\":11411:11474   */\n      swap9\n      pop\n        /* \"#utility.yul\":11367:11484   */\n      pop\n        /* \"#utility.yul\":11523:11525   */\n      0x20\n        /* \"#utility.yul\":11549:11602   */\n      tag_592\n        /* \"#utility.yul\":11594:11601   */\n      dup12\n        /* \"#utility.yul\":11585:11591   */\n      dup3\n        /* \"#utility.yul\":11574:11583   */\n      dup13\n        /* \"#utility.yul\":11570:11592   */\n      add\n        /* \"#utility.yul\":11549:11602   */\n      tag_398\n      jump\t// in\n    tag_592:\n        /* \"#utility.yul\":11539:11602   */\n      swap8\n      pop\n        /* \"#utility.yul\":11494:11612   */\n      pop\n        /* \"#utility.yul\":11651:11653   */\n      0x40\n        /* \"#utility.yul\":11677:11730   */\n      tag_593\n        /* \"#utility.yul\":11722:11729   */\n      dup12\n        /* \"#utility.yul\":11713:11719   */\n      dup3\n        /* \"#utility.yul\":11702:11711   */\n      dup13\n        /* \"#utility.yul\":11698:11720   */\n      add\n        /* \"#utility.yul\":11677:11730   */\n      tag_387\n      jump\t// in\n    tag_593:\n        /* \"#utility.yul\":11667:11730   */\n      swap7\n      pop\n        /* \"#utility.yul\":11622:11740   */\n      pop\n        /* \"#utility.yul\":11779:11781   */\n      0x60\n        /* \"#utility.yul\":11805:11858   */\n      tag_594\n        /* \"#utility.yul\":11850:11857   */\n      dup12\n        /* \"#utility.yul\":11841:11847   */\n      dup3\n        /* \"#utility.yul\":11830:11839   */\n      dup13\n        /* \"#utility.yul\":11826:11848   */\n      add\n        /* \"#utility.yul\":11805:11858   */\n      tag_387\n      jump\t// in\n    tag_594:\n        /* \"#utility.yul\":11795:11858   */\n      swap6\n      pop\n        /* \"#utility.yul\":11750:11868   */\n      pop\n        /* \"#utility.yul\":11907:11910   */\n      0x80\n        /* \"#utility.yul\":11934:11987   */\n      tag_595\n        /* \"#utility.yul\":11979:11986   */\n      dup12\n        /* \"#utility.yul\":11970:11976   */\n      dup3\n        /* \"#utility.yul\":11959:11968   */\n      dup13\n        /* \"#utility.yul\":11955:11977   */\n      add\n        /* \"#utility.yul\":11934:11987   */\n      tag_387\n      jump\t// in\n    tag_595:\n        /* \"#utility.yul\":11924:11987   */\n      swap5\n      pop\n        /* \"#utility.yul\":11878:11997   */\n      pop\n        /* \"#utility.yul\":12036:12039   */\n      0xa0\n        /* \"#utility.yul\":12063:12116   */\n      tag_596\n        /* \"#utility.yul\":12108:12115   */\n      dup12\n        /* \"#utility.yul\":12099:12105   */\n      dup3\n        /* \"#utility.yul\":12088:12097   */\n      dup13\n        /* \"#utility.yul\":12084:12106   */\n      add\n        /* \"#utility.yul\":12063:12116   */\n      tag_387\n      jump\t// in\n    tag_596:\n        /* \"#utility.yul\":12053:12116   */\n      swap4\n      pop\n        /* \"#utility.yul\":12007:12126   */\n      pop\n        /* \"#utility.yul\":12165:12168   */\n      0xc0\n        /* \"#utility.yul\":12192:12245   */\n      tag_597\n        /* \"#utility.yul\":12237:12244   */\n      dup12\n        /* \"#utility.yul\":12228:12234   */\n      dup3\n        /* \"#utility.yul\":12217:12226   */\n      dup13\n        /* \"#utility.yul\":12213:12235   */\n      add\n        /* \"#utility.yul\":12192:12245   */\n      tag_398\n      jump\t// in\n    tag_597:\n        /* \"#utility.yul\":12182:12245   */\n      swap3\n      pop\n        /* \"#utility.yul\":12136:12255   */\n      pop\n        /* \"#utility.yul\":12294:12297   */\n      0xe0\n        /* \"#utility.yul\":12321:12374   */\n      tag_598\n        /* \"#utility.yul\":12366:12373   */\n      dup12\n        /* \"#utility.yul\":12357:12363   */\n      dup3\n        /* \"#utility.yul\":12346:12355   */\n      dup13\n        /* \"#utility.yul\":12342:12364   */\n      add\n        /* \"#utility.yul\":12321:12374   */\n      tag_387\n      jump\t// in\n    tag_598:\n        /* \"#utility.yul\":12311:12374   */\n      swap2\n      pop\n        /* \"#utility.yul\":12265:12384   */\n      pop\n        /* \"#utility.yul\":11042:12391   */\n      swap3\n      swap6\n      swap9\n      pop\n      swap3\n      swap6\n      swap9\n      swap1\n      swap4\n      swap7\n      pop\n      jump\t// out\n        /* \"#utility.yul\":12397:12839   */\n    tag_62:\n        /* \"#utility.yul\":12546:12550   */\n      0x00\n        /* \"#utility.yul\":12584:12586   */\n      0x60\n        /* \"#utility.yul\":12573:12582   */\n      dup3\n        /* \"#utility.yul\":12569:12587   */\n      add\n        /* \"#utility.yul\":12561:12587   */\n      swap1\n      pop\n        /* \"#utility.yul\":12597:12668   */\n      tag_600\n        /* \"#utility.yul\":12665:12666   */\n      0x00\n        /* \"#utility.yul\":12654:12663   */\n      dup4\n        /* \"#utility.yul\":12650:12667   */\n      add\n        /* \"#utility.yul\":12641:12647   */\n      dup7\n        /* \"#utility.yul\":12597:12668   */\n      tag_388\n      jump\t// in\n    tag_600:\n        /* \"#utility.yul\":12678:12750   */\n      tag_601\n        /* \"#utility.yul\":12746:12748   */\n      0x20\n        /* \"#utility.yul\":12735:12744   */\n      dup4\n        /* \"#utility.yul\":12731:12749   */\n      add\n        /* \"#utility.yul\":12722:12728   */\n      dup6\n        /* \"#utility.yul\":12678:12750   */\n      tag_388\n      jump\t// in\n    tag_601:\n        /* \"#utility.yul\":12760:12832   */\n      tag_602\n        /* \"#utility.yul\":12828:12830   */\n      0x40\n        /* \"#utility.yul\":12817:12826   */\n      dup4\n        /* \"#utility.yul\":12813:12831   */\n      add\n        /* \"#utility.yul\":12804:12810   */\n      dup5\n        /* \"#utility.yul\":12760:12832   */\n      tag_388\n      jump\t// in\n    tag_602:\n        /* \"#utility.yul\":12397:12839   */\n      swap5\n      swap4\n      pop\n      pop\n      pop\n      pop\n      jump\t// out\n        /* \"#utility.yul\":12845:13014   */\n    tag_411:\n        /* \"#utility.yul\":12929:12940   */\n      0x00\n        /* \"#utility.yul\":12963:12969   */\n      dup3\n        /* \"#utility.yul\":12958:12961   */\n      dup3\n        /* \"#utility.yul\":12951:12970   */\n      mstore\n        /* \"#utility.yul\":13003:13007   */\n      0x20\n        /* \"#utility.yul\":12998:13001   */\n      dup3\n        /* \"#utility.yul\":12994:13008   */\n      add\n        /* \"#utility.yul\":12979:13008   */\n      swap1\n      pop\n        /* \"#utility.yul\":12845:13014   */\n      swap3\n      swap2\n      pop\n      pop\n      jump\t// out\n        /* \"#utility.yul\":13020:13194   */\n    tag_412:\n        /* \"#utility.yul\":13160:13186   */\n      0x556e69737761705632526f757465723a20455850495245440000000000000000\n        /* \"#utility.yul\":13156:13157   */\n      0x00\n        /* \"#utility.yul\":13148:13154   */\n      dup3\n        /* \"#utility.yul\":13144:13158   */\n      add\n        /* \"#utility.yul\":13137:13187   */\n      mstore\n        /* \"#utility.yul\":13020:13194   */\n      pop\n      jump\t// out\n        /* \"#utility.yul\":13200:13566   */\n    tag_413:\n        /* \"#utility.yul\":13342:13345   */\n      0x00\n        /* \"#utility.yul\":13363:13430   */\n      tag_606\n        /* \"#utility.yul\":13427:13429   */\n      0x18\n        /* \"#utility.yul\":13422:13425   */\n      dup4\n        /* \"#utility.yul\":13363:13430   */\n      tag_411\n      jump\t// in\n    tag_606:\n        /* \"#utility.yul\":13356:13430   */\n      swap2\n      pop\n        /* \"#utility.yul\":13439:13532   */\n      tag_607\n        /* \"#utility.yul\":13528:13531   */\n      dup3\n        /* \"#utility.yul\":13439:13532   */\n      tag_412\n      jump\t// in\n    tag_607:\n        /* \"#utility.yul\":13557:13559   */\n      0x20\n        /* \"#utility.yul\":13552:13555   */\n      dup3\n        /* \"#utility.yul\":13548:13560   */\n      add\n        /* \"#utility.yul\":13541:13560   */\n      swap1\n      pop\n        /* \"#utility.yul\":13200:13566   */\n      swap2\n      swap1\n      pop\n      jump\t// out\n        /* \"#utility.yul\":13572:13991   */\n    tag_72:\n        /* \"#utility.yul\":13738:13742   */\n      0x00\n        /* \"#utility.yul\":13776:13778   */\n      0x20\n        /* \"#utility.yul\":13765:13774   */\n      dup3\n        /* \"#utility.yul\":13761:13779   */\n      add\n        /* \"#utility.yul\":13753:13779   */\n      swap1\n      pop\n        /* \"#utility.yul\":13825:13834   */\n      dup2\n        /* \"#utility.yul\":13819:13823   */\n      dup2\n        /* \"#utility.yul\":13815:13835   */\n      sub\n        /* \"#utility.yul\":13811:13812   */\n      0x00\n        /* \"#utility.yul\":13800:13809   */\n      dup4\n        /* \"#utility.yul\":13796:13813   */\n      add\n        /* \"#utility.yul\":13789:13836   */\n      mstore\n        /* \"#utility.yul\":13853:13984   */\n      tag_609\n        /* \"#utility.yul\":13979:13983   */\n      dup2\n        /* \"#utility.yul\":13853:13984   */\n      tag_413\n      jump\t// in\n    tag_609:\n        /* \"#utility.yul\":13845:13984   */\n      swap1\n      pop\n        /* \"#utility.yul\":13572:13991   */\n      swap2\n      swap1\n      pop\n      jump\t// out\n        /* \"#utility.yul\":13997:14177   */\n    tag_414:\n        /* \"#utility.yul\":14045:14122   */\n      0x4e487b7100000000000000000000000000000000000000000000000000000000\n        /* \"#utility.yul\":14042:14043   */\n      0x00\n        /* \"#utility.yul\":14035:14123   */\n      mstore\n        /* \"#utility.yul\":14142:14146   */\n      0x11\n        /* \"#utility.yul\":14139:14140   */\n      0x04\n        /* \"#utility.yul\":14132:14147   */\n      mstore\n        /* \"#utility.yul\":14166:14170   */\n      0x24\n        /* \"#utility.yul\":14163:14164   */\n      0x00\n        /* \"#utility.yul\":14156:14171   */\n      revert\n        /* \"#utility.yul\":14183:14377   */\n    tag_77:\n        /* \"#utility.yul\":14223:14227   */\n      0x00\n        /* \"#utility.yul\":14243:14263   */\n      tag_612\n        /* \"#utility.yul\":14261:14262   */\n      dup3\n        /* \"#utility.yul\":14243:14263   */\n      tag_385\n      jump\t// in\n    tag_612:\n        /* \"#utility.yul\":14238:14263   */\n      swap2\n      pop\n        /* \"#utility.yul\":14277:14297   */\n      tag_613\n        /* \"#utility.yul\":14295:14296   */\n      dup4\n        /* \"#utility.yul\":14277:14297   */\n      tag_385\n      jump\t// in\n    tag_613:\n        /* \"#utility.yul\":14272:14297   */\n      swap3\n      pop\n        /* \"#utility.yul\":14321:14322   */\n      dup3\n        /* \"#utility.yul\":14318:14319   */\n      dup3\n        /* \"#utility.yul\":14314:14323   */\n      sub\n        /* \"#utility.yul\":14306:14323   */\n      swap1\n      pop\n        /* \"#utility.yul\":14345:14346   */\n      dup2\n        /* \"#utility.yul\":14339:14343   */\n      dup2\n        /* \"#utility.yul\":14336:14347   */\n      gt\n        /* \"#utility.yul\":14333:14370   */\n      iszero\n      tag_614\n      jumpi\n        /* \"#utility.yul\":14350:14368   */\n      tag_615\n      tag_414\n      jump\t// in\n    tag_615:\n        /* \"#utility.yul\":14333:14370   */\n    tag_614:\n        /* \"#utility.yul\":14183:14377   */\n      swap3\n      swap2\n      pop\n      pop\n      jump\t// out\n        /* \"#utility.yul\":14383:14563   */\n    tag_80:\n        /* \"#utility.yul\":14431:14508   */\n      0x4e487b7100000000000000000000000000000000000000000000000000000000\n        /* \"#utility.yul\":14428:14429   */\n      0x00\n        /* \"#utility.yul\":14421:14509   */\n      mstore\n        /* \"#utility.yul\":14528:14532   */\n      0x32\n        /* \"#utility.yul\":14525:14526   */\n      0x04\n        /* \"#utility.yul\":14518:14533   */\n      mstore\n        /* \"#utility.yul\":14552:14556   */\n      0x24\n        /* \"#utility.yul\":14549:14550   */\n      0x00\n        /* \"#utility.yul\":14542:14557   */\n      revert\n        /* \"#utility.yul\":14569:14799   */\n    tag_415:\n        /* \"#utility.yul\":14709:14743   */\n      0x556e69737761705632526f757465723a20494e53554646494349454e545f4f55\n        /* \"#utility.yul\":14705:14706   */\n      0x00\n        /* \"#utility.yul\":14697:14703   */\n      dup3\n        /* \"#utility.yul\":14693:14707   */\n      add\n        /* \"#utility.yul\":14686:14744   */\n      mstore\n        /* \"#utility.yul\":14778:14791   */\n      0x545055545f414d4f554e54000000000000000000000000000000000000000000\n        /* \"#utility.yul\":14773:14775   */\n      0x20\n        /* \"#utility.yul\":14765:14771   */\n      dup3\n        /* \"#utility.yul\":14761:14776   */\n      add\n        /* \"#utility.yul\":14754:14792   */\n      mstore\n        /* \"#utility.yul\":14569:14799   */\n      pop\n      jump\t// out\n        /* \"#utility.yul\":14805:15171   */\n    tag_416:\n        /* \"#utility.yul\":14947:14950   */\n      0x00\n        /* \"#utility.yul\":14968:15035   */\n      tag_619\n        /* \"#utility.yul\":15032:15034   */\n      0x2b\n        /* \"#utility.yul\":15027:15030   */\n      dup4\n        /* \"#utility.yul\":14968:15035   */\n      tag_411\n      jump\t// in\n    tag_619:\n        /* \"#utility.yul\":14961:15035   */\n      swap2\n      pop\n        /* \"#utility.yul\":15044:15137   */\n      tag_620\n        /* \"#utility.yul\":15133:15136   */\n      dup3\n        /* \"#utility.yul\":15044:15137   */\n      tag_415\n      jump\t// in\n    tag_620:\n        /* \"#utility.yul\":15162:15164   */\n      0x40\n        /* \"#utility.yul\":15157:15160   */\n      dup3\n        /* \"#utility.yul\":15153:15165   */\n      add\n        /* \"#utility.yul\":15146:15165   */\n      swap1\n      pop\n        /* \"#utility.yul\":14805:15171   */\n      swap2\n      swap1\n      pop\n      jump\t// out\n        /* \"#utility.yul\":15177:15596   */\n    tag_83:\n        /* \"#utility.yul\":15343:15347   */\n      0x00\n        /* \"#utility.yul\":15381:15383   */\n      0x20\n        /* \"#utility.yul\":15370:15379   */\n      dup3\n        /* \"#utility.yul\":15366:15384   */\n      add\n        /* \"#utility.yul\":15358:15384   */\n      swap1\n      pop\n        /* \"#utility.yul\":15430:15439   */\n      dup2\n        /* \"#utility.yul\":15424:15428   */\n      dup2\n        /* \"#utility.yul\":15420:15440   */\n      sub\n        /* \"#utility.yul\":15416:15417   */\n      0x00\n        /* \"#utility.yul\":15405:15414   */\n      dup4\n        /* \"#utility.yul\":15401:15418   */\n      add\n        /* \"#utility.yul\":15394:15441   */\n      mstore\n        /* \"#utility.yul\":15458:15589   */\n      tag_622\n        /* \"#utility.yul\":15584:15588   */\n      dup2\n        /* \"#utility.yul\":15458:15589   */\n      tag_416\n      jump\t// in\n    tag_622:\n        /* \"#utility.yul\":15450:15589   */\n      swap1\n      pop\n        /* \"#utility.yul\":15177:15596   */\n      swap2\n      swap1\n      pop\n      jump\t// out\n        /* \"#utility.yul\":15602:15931   */\n    tag_88:\n        /* \"#utility.yul\":15661:15667   */\n      0x00\n        /* \"#utility.yul\":15710:15712   */\n      0x20\n        /* \"#utility.yul\":15698:15707   */\n      dup3\n        /* \"#utility.yul\":15689:15696   */\n      dup5\n        /* \"#utility.yul\":15685:15708   */\n      sub\n        /* \"#utility.yul\":15681:15713   */\n      slt\n        /* \"#utility.yul\":15678:15797   */\n      iszero\n      tag_624\n      jumpi\n        /* \"#utility.yul\":15716:15795   */\n      tag_625\n      tag_383\n      jump\t// in\n    tag_625:\n        /* \"#utility.yul\":15678:15797   */\n    tag_624:\n        /* \"#utility.yul\":15836:15837   */\n      0x00\n        /* \"#utility.yul\":15861:15914   */\n      tag_626\n        /* \"#utility.yul\":15906:15913   */\n      dup5\n        /* \"#utility.yul\":15897:15903   */\n      dup3\n        /* \"#utility.yul\":15886:15895   */\n      dup6\n        /* \"#utility.yul\":15882:15904   */\n      add\n        /* \"#utility.yul\":15861:15914   */\n      tag_398\n      jump\t// in\n    tag_626:\n        /* \"#utility.yul\":15851:15914   */\n      swap2\n      pop\n        /* \"#utility.yul\":15807:15924   */\n      pop\n        /* \"#utility.yul\":15602:15931   */\n      swap3\n      swap2\n      pop\n      pop\n      jump\t// out\n        /* \"#utility.yul\":15937:16163   */\n    tag_417:\n        /* \"#utility.yul\":16077:16111   */\n      0x556e69737761705632526f757465723a204558434553534956455f494e505554\n        /* \"#utility.yul\":16073:16074   */\n      0x00\n        /* \"#utility.yul\":16065:16071   */\n      dup3\n        /* \"#utility.yul\":16061:16075   */\n      add\n        /* \"#utility.yul\":16054:16112   */\n      mstore\n        /* \"#utility.yul\":16146:16155   */\n      0x5f414d4f554e5400000000000000000000000000000000000000000000000000\n        /* \"#utility.yul\":16141:16143   */\n      0x20\n        /* \"#utility.yul\":16133:16139   */\n      dup3\n        /* \"#utility.yul\":16129:16144   */\n      add\n        /* \"#utility.yul\":16122:16156   */\n      mstore\n        /* \"#utility.yul\":15937:16163   */\n      pop\n      jump\t// out\n        /* \"#utility.yul\":16169:16535   */\n    tag_418:\n        /* \"#utility.yul\":16311:16314   */\n      0x00\n        /* \"#utility.yul\":16332:16399   */\n      tag_629\n        /* \"#utility.yul\":16396:16398   */\n      0x27\n        /* \"#utility.yul\":16391:16394   */\n      dup4\n        /* \"#utility.yul\":16332:16399   */\n      tag_411\n      jump\t// in\n    tag_629:\n        /* \"#utility.yul\":16325:16399   */\n      swap2\n      pop\n        /* \"#utility.yul\":16408:16501   */\n      tag_630\n        /* \"#utility.yul\":16497:16500   */\n      dup3\n        /* \"#utility.yul\":16408:16501   */\n      tag_417\n      jump\t// in\n    tag_630:\n        /* \"#utility.yul\":16526:16528   */\n      0x40\n        /* \"#utility.yul\":16521:16524   */\n      dup3\n        /* \"#utility.yul\":16517:16529   */\n      add\n        /* \"#utility.yul\":16510:16529   */\n      swap1\n      pop\n        /* \"#utility.yul\":16169:16535   */\n      swap2\n      swap1\n      pop\n      jump\t// out\n        /* \"#utility.yul\":16541:16960   */\n    tag_114:\n        /* \"#utility.yul\":16707:16711   */\n      0x00\n        /* \"#utility.yul\":16745:16747   */\n      0x20\n        /* \"#utility.yul\":16734:16743   */\n      dup3\n        /* \"#utility.yul\":16730:16748   */\n      add\n        /* \"#utility.yul\":16722:16748   */\n      swap1\n      pop\n        /* \"#utility.yul\":16794:16803   */\n      dup2\n        /* \"#utility.yul\":16788:16792   */\n      dup2\n        /* \"#utility.yul\":16784:16804   */\n      sub\n        /* \"#utility.yul\":16780:16781   */\n      0x00\n        /* \"#utility.yul\":16769:16778   */\n      dup4\n        /* \"#utility.yul\":16765:16782   */\n      add\n        /* \"#utility.yul\":16758:16805   */\n      mstore\n        /* \"#utility.yul\":16822:16953   */\n      tag_632\n        /* \"#utility.yul\":16948:16952   */\n      dup2\n        /* \"#utility.yul\":16822:16953   */\n      tag_418\n      jump\t// in\n    tag_632:\n        /* \"#utility.yul\":16814:16953   */\n      swap1\n      pop\n        /* \"#utility.yul\":16541:16960   */\n      swap2\n      swap1\n      pop\n      jump\t// out\n        /* \"#utility.yul\":16966:17408   */\n    tag_138:\n        /* \"#utility.yul\":17115:17119   */\n      0x00\n        /* \"#utility.yul\":17153:17155   */\n      0x60\n        /* \"#utility.yul\":17142:17151   */\n      dup3\n        /* \"#utility.yul\":17138:17156   */\n      add\n        /* \"#utility.yul\":17130:17156   */\n      swap1\n      pop\n        /* \"#utility.yul\":17166:17237   */\n      tag_634\n        /* \"#utility.yul\":17234:17235   */\n      0x00\n        /* \"#utility.yul\":17223:17232   */\n      dup4\n        /* \"#utility.yul\":17219:17236   */\n      add\n        /* \"#utility.yul\":17210:17216   */\n      dup7\n        /* \"#utility.yul\":17166:17237   */\n      tag_410\n      jump\t// in\n    tag_634:\n        /* \"#utility.yul\":17247:17319   */\n      tag_635\n        /* \"#utility.yul\":17315:17317   */\n      0x20\n        /* \"#utility.yul\":17304:17313   */\n      dup4\n        /* \"#utility.yul\":17300:17318   */\n      add\n        /* \"#utility.yul\":17291:17297   */\n      dup6\n        /* \"#utility.yul\":17247:17319   */\n      tag_410\n      jump\t// in\n    tag_635:\n        /* \"#utility.yul\":17329:17401   */\n      tag_636\n        /* \"#utility.yul\":17397:17399   */\n      0x40\n        /* \"#utility.yul\":17386:17395   */\n      dup4\n        /* \"#utility.yul\":17382:17400   */\n      add\n        /* \"#utility.yul\":17373:17379   */\n      dup5\n        /* \"#utility.yul\":17329:17401   */\n      tag_388\n      jump\t// in\n    tag_636:\n        /* \"#utility.yul\":16966:17408   */\n      swap5\n      swap4\n      pop\n      pop\n      pop\n      pop\n      jump\t// out\n        /* \"#utility.yul\":17414:17504   */\n    tag_419:\n        /* \"#utility.yul\":17448:17455   */\n      0x00\n        /* \"#utility.yul\":17491:17496   */\n      dup2\n        /* \"#utility.yul\":17484:17497   */\n      iszero\n        /* \"#utility.yul\":17477:17498   */\n      iszero\n        /* \"#utility.yul\":17466:17498   */\n      swap1\n      pop\n        /* \"#utility.yul\":17414:17504   */\n      swap2\n      swap1\n      pop\n      jump\t// out\n        /* \"#utility.yul\":17510:17626   */\n    tag_420:\n        /* \"#utility.yul\":17580:17601   */\n      tag_639\n        /* \"#utility.yul\":17595:17600   */\n      dup2\n        /* \"#utility.yul\":17580:17601   */\n      tag_419\n      jump\t// in\n    tag_639:\n        /* \"#utility.yul\":17573:17578   */\n      dup2\n        /* \"#utility.yul\":17570:17602   */\n      eq\n        /* \"#utility.yul\":17560:17620   */\n      tag_640\n      jumpi\n        /* \"#utility.yul\":17616:17617   */\n      0x00\n        /* \"#utility.yul\":17613:17614   */\n      dup1\n        /* \"#utility.yul\":17606:17618   */\n      revert\n        /* \"#utility.yul\":17560:17620   */\n    tag_640:\n        /* \"#utility.yul\":17510:17626   */\n      pop\n      jump\t// out\n        /* \"#utility.yul\":17632:17769   */\n    tag_421:\n        /* \"#utility.yul\":17686:17691   */\n      0x00\n        /* \"#utility.yul\":17717:17723   */\n      dup2\n        /* \"#utility.yul\":17711:17724   */\n      mload\n        /* \"#utility.yul\":17702:17724   */\n      swap1\n      pop\n        /* \"#utility.yul\":17733:17763   */\n      tag_642\n        /* \"#utility.yul\":17757:17762   */\n      dup2\n        /* \"#utility.yul\":17733:17763   */\n      tag_420\n      jump\t// in\n    tag_642:\n        /* \"#utility.yul\":17632:17769   */\n      swap3\n      swap2\n      pop\n      pop\n      jump\t// out\n        /* \"#utility.yul\":17775:18120   */\n    tag_142:\n        /* \"#utility.yul\":17842:17848   */\n      0x00\n        /* \"#utility.yul\":17891:17893   */\n      0x20\n        /* \"#utility.yul\":17879:17888   */\n      dup3\n        /* \"#utility.yul\":17870:17877   */\n      dup5\n        /* \"#utility.yul\":17866:17889   */\n      sub\n        /* \"#utility.yul\":17862:17894   */\n      slt\n        /* \"#utility.yul\":17859:17978   */\n      iszero\n      tag_644\n      jumpi\n        /* \"#utility.yul\":17897:17976   */\n      tag_645\n      tag_383\n      jump\t// in\n    tag_645:\n        /* \"#utility.yul\":17859:17978   */\n    tag_644:\n        /* \"#utility.yul\":18017:18018   */\n      0x00\n        /* \"#utility.yul\":18042:18103   */\n      tag_646\n        /* \"#utility.yul\":18095:18102   */\n      dup5\n        /* \"#utility.yul\":18086:18092   */\n      dup3\n        /* \"#utility.yul\":18075:18084   */\n      dup6\n        /* \"#utility.yul\":18071:18093   */\n      add\n        /* \"#utility.yul\":18042:18103   */\n      tag_421\n      jump\t// in\n    tag_646:\n        /* \"#utility.yul\":18032:18103   */\n      swap2\n      pop\n        /* \"#utility.yul\":17988:18113   */\n      pop\n        /* \"#utility.yul\":17775:18120   */\n      swap3\n      swap2\n      pop\n      pop\n      jump\t// out\n        /* \"#utility.yul\":18126:18269   */\n    tag_422:\n        /* \"#utility.yul\":18183:18188   */\n      0x00\n        /* \"#utility.yul\":18214:18220   */\n      dup2\n        /* \"#utility.yul\":18208:18221   */\n      mload\n        /* \"#utility.yul\":18199:18221   */\n      swap1\n      pop\n        /* \"#utility.yul\":18230:18263   */\n      tag_648\n        /* \"#utility.yul\":18257:18262   */\n      dup2\n        /* \"#utility.yul\":18230:18263   */\n      tag_386\n      jump\t// in\n    tag_648:\n        /* \"#utility.yul\":18126:18269   */\n      swap3\n      swap2\n      pop\n      pop\n      jump\t// out\n        /* \"#utility.yul\":18275:18782   */\n    tag_147:\n        /* \"#utility.yul\":18354:18360   */\n      0x00\n        /* \"#utility.yul\":18362:18368   */\n      dup1\n        /* \"#utility.yul\":18411:18413   */\n      0x40\n        /* \"#utility.yul\":18399:18408   */\n      dup4\n        /* \"#utility.yul\":18390:18397   */\n      dup6\n        /* \"#utility.yul\":18386:18409   */\n      sub\n        /* \"#utility.yul\":18382:18414   */\n      slt\n        /* \"#utility.yul\":18379:18498   */\n      iszero\n      tag_650\n      jumpi\n        /* \"#utility.yul\":18417:18496   */\n      tag_651\n      tag_383\n      jump\t// in\n    tag_651:\n        /* \"#utility.yul\":18379:18498   */\n    tag_650:\n        /* \"#utility.yul\":18537:18538   */\n      0x00\n        /* \"#utility.yul\":18562:18626   */\n      tag_652\n        /* \"#utility.yul\":18618:18625   */\n      dup6\n        /* \"#utility.yul\":18609:18615   */\n      dup3\n        /* \"#utility.yul\":18598:18607   */\n      dup7\n        /* \"#utility.yul\":18594:18616   */\n      add\n        /* \"#utility.yul\":18562:18626   */\n      tag_422\n      jump\t// in\n    tag_652:\n        /* \"#utility.yul\":18552:18626   */\n      swap3\n      pop\n        /* \"#utility.yul\":18508:18636   */\n      pop\n        /* \"#utility.yul\":18675:18677   */\n      0x20\n        /* \"#utility.yul\":18701:18765   */\n      tag_653\n        /* \"#utility.yul\":18757:18764   */\n      dup6\n        /* \"#utility.yul\":18748:18754   */\n      dup3\n        /* \"#utility.yul\":18737:18746   */\n      dup7\n        /* \"#utility.yul\":18733:18755   */\n      add\n        /* \"#utility.yul\":18701:18765   */\n      tag_422\n      jump\t// in\n    tag_653:\n        /* \"#utility.yul\":18691:18765   */\n      swap2\n      pop\n        /* \"#utility.yul\":18646:18775   */\n      pop\n        /* \"#utility.yul\":18275:18782   */\n      swap3\n      pop\n      swap3\n      swap1\n      pop\n      jump\t// out\n        /* \"#utility.yul\":18788:19013   */\n    tag_423:\n        /* \"#utility.yul\":18928:18962   */\n      0x556e69737761705632526f757465723a20494e53554646494349454e545f415f\n        /* \"#utility.yul\":18924:18925   */\n      0x00\n        /* \"#utility.yul\":18916:18922   */\n      dup3\n        /* \"#utility.yul\":18912:18926   */\n      add\n        /* \"#utility.yul\":18905:18963   */\n      mstore\n        /* \"#utility.yul\":18997:19005   */\n      0x414d4f554e540000000000000000000000000000000000000000000000000000\n        /* \"#utility.yul\":18992:18994   */\n      0x20\n        /* \"#utility.yul\":18984:18990   */\n      dup3\n        /* \"#utility.yul\":18980:18995   */\n      add\n        /* \"#utility.yul\":18973:19006   */\n      mstore\n        /* \"#utility.yul\":18788:19013   */\n      pop\n      jump\t// out\n        /* \"#utility.yul\":19019:19385   */\n    tag_424:\n        /* \"#utility.yul\":19161:19164   */\n      0x00\n        /* \"#utility.yul\":19182:19249   */\n      tag_656\n        /* \"#utility.yul\":19246:19248   */\n      0x26\n        /* \"#utility.yul\":19241:19244   */\n      dup4\n        /* \"#utility.yul\":19182:19249   */\n      tag_411\n      jump\t// in\n    tag_656:\n        /* \"#utility.yul\":19175:19249   */\n      swap2\n      pop\n        /* \"#utility.yul\":19258:19351   */\n      tag_657\n        /* \"#utility.yul\":19347:19350   */\n      dup3\n        /* \"#utility.yul\":19258:19351   */\n      tag_423\n      jump\t// in\n    tag_657:\n        /* \"#utility.yul\":19376:19378   */\n      0x40\n        /* \"#utility.yul\":19371:19374   */\n      dup3\n        /* \"#utility.yul\":19367:19379   */\n      add\n        /* \"#utility.yul\":19360:19379   */\n      swap1\n      pop\n        /* \"#utility.yul\":19019:19385   */\n      swap2\n      swap1\n      pop\n      jump\t// out\n        /* \"#utility.yul\":19391:19810   */\n    tag_154:\n        /* \"#utility.yul\":19557:19561   */\n      0x00\n        /* \"#utility.yul\":19595:19597   */\n      0x20\n        /* \"#utility.yul\":19584:19593   */\n      dup3\n        /* \"#utility.yul\":19580:19598   */\n      add\n        /* \"#utility.yul\":19572:19598   */\n      swap1\n      pop\n        /* \"#utility.yul\":19644:19653   */\n      dup2\n        /* \"#utility.yul\":19638:19642   */\n      dup2\n        /* \"#utility.yul\":19634:19654   */\n      sub\n        /* \"#utility.yul\":19630:19631   */\n      0x00\n        /* \"#utility.yul\":19619:19628   */\n      dup4\n        /* \"#utility.yul\":19615:19632   */\n      add\n        /* \"#utility.yul\":19608:19655   */\n      mstore\n        /* \"#utility.yul\":19672:19803   */\n      tag_659\n        /* \"#utility.yul\":19798:19802   */\n      dup2\n        /* \"#utility.yul\":19672:19803   */\n      tag_424\n      jump\t// in\n    tag_659:\n        /* \"#utility.yul\":19664:19803   */\n      swap1\n      pop\n        /* \"#utility.yul\":19391:19810   */\n      swap2\n      swap1\n      pop\n      jump\t// out\n        /* \"#utility.yul\":19816:20041   */\n    tag_425:\n        /* \"#utility.yul\":19956:19990   */\n      0x556e69737761705632526f757465723a20494e53554646494349454e545f425f\n        /* \"#utility.yul\":19952:19953   */\n      0x00\n        /* \"#utility.yul\":19944:19950   */\n      dup3\n        /* \"#utility.yul\":19940:19954   */\n      add\n        /* \"#utility.yul\":19933:19991   */\n      mstore\n        /* \"#utility.yul\":20025:20033   */\n      0x414d4f554e540000000000000000000000000000000000000000000000000000\n        /* \"#utility.yul\":20020:20022   */\n      0x20\n        /* \"#utility.yul\":20012:20018   */\n      dup3\n        /* \"#utility.yul\":20008:20023   */\n      add\n        /* \"#utility.yul\":20001:20034   */\n      mstore\n        /* \"#utility.yul\":19816:20041   */\n      pop\n      jump\t// out\n        /* \"#utility.yul\":20047:20413   */\n    tag_426:\n        /* \"#utility.yul\":20189:20192   */\n      0x00\n        /* \"#utility.yul\":20210:20277   */\n      tag_662\n        /* \"#utility.yul\":20274:20276   */\n      0x26\n        /* \"#utility.yul\":20269:20272   */\n      dup4\n        /* \"#utility.yul\":20210:20277   */\n      tag_411\n      jump\t// in\n    tag_662:\n        /* \"#utility.yul\":20203:20277   */\n      swap2\n      pop\n        /* \"#utility.yul\":20286:20379   */\n      tag_663\n        /* \"#utility.yul\":20375:20378   */\n      dup3\n        /* \"#utility.yul\":20286:20379   */\n      tag_425\n      jump\t// in\n    tag_663:\n        /* \"#utility.yul\":20404:20406   */\n      0x40\n        /* \"#utility.yul\":20399:20402   */\n      dup3\n        /* \"#utility.yul\":20395:20407   */\n      add\n        /* \"#utility.yul\":20388:20407   */\n      swap1\n      pop\n        /* \"#utility.yul\":20047:20413   */\n      swap2\n      swap1\n      pop\n      jump\t// out\n        /* \"#utility.yul\":20419:20838   */\n    tag_157:\n        /* \"#utility.yul\":20585:20589   */\n      0x00\n        /* \"#utility.yul\":20623:20625   */\n      0x20\n        /* \"#utility.yul\":20612:20621   */\n      dup3\n        /* \"#utility.yul\":20608:20626   */\n      add\n        /* \"#utility.yul\":20600:20626   */\n      swap1\n      pop\n        /* \"#utility.yul\":20672:20681   */\n      dup2\n        /* \"#utility.yul\":20666:20670   */\n      dup2\n        /* \"#utility.yul\":20662:20682   */\n      sub\n        /* \"#utility.yul\":20658:20659   */\n      0x00\n        /* \"#utility.yul\":20647:20656   */\n      dup4\n        /* \"#utility.yul\":20643:20660   */\n      add\n        /* \"#utility.yul\":20636:20683   */\n      mstore\n        /* \"#utility.yul\":20700:20831   */\n      tag_665\n        /* \"#utility.yul\":20826:20830   */\n      dup2\n        /* \"#utility.yul\":20700:20831   */\n      tag_426\n      jump\t// in\n    tag_665:\n        /* \"#utility.yul\":20692:20831   */\n      swap1\n      pop\n        /* \"#utility.yul\":20419:20838   */\n      swap2\n      swap1\n      pop\n      jump\t// out\n        /* \"#utility.yul\":20844:21195   */\n    tag_173:\n        /* \"#utility.yul\":20914:20920   */\n      0x00\n        /* \"#utility.yul\":20963:20965   */\n      0x20\n        /* \"#utility.yul\":20951:20960   */\n      dup3\n        /* \"#utility.yul\":20942:20949   */\n      dup5\n        /* \"#utility.yul\":20938:20961   */\n      sub\n        /* \"#utility.yul\":20934:20966   */\n      slt\n        /* \"#utility.yul\":20931:21050   */\n      iszero\n      tag_667\n      jumpi\n        /* \"#utility.yul\":20969:21048   */\n      tag_668\n      tag_383\n      jump\t// in\n    tag_668:\n        /* \"#utility.yul\":20931:21050   */\n    tag_667:\n        /* \"#utility.yul\":21089:21090   */\n      0x00\n        /* \"#utility.yul\":21114:21178   */\n      tag_669\n        /* \"#utility.yul\":21170:21177   */\n      dup5\n        /* \"#utility.yul\":21161:21167   */\n      dup3\n        /* \"#utility.yul\":21150:21159   */\n      dup6\n        /* \"#utility.yul\":21146:21168   */\n      add\n        /* \"#utility.yul\":21114:21178   */\n      tag_422\n      jump\t// in\n    tag_669:\n        /* \"#utility.yul\":21104:21178   */\n      swap2\n      pop\n        /* \"#utility.yul\":21060:21188   */\n      pop\n        /* \"#utility.yul\":20844:21195   */\n      swap3\n      swap2\n      pop\n      pop\n      jump\t// out\n        /* \"#utility.yul\":21201:21431   */\n    tag_427:\n        /* \"#utility.yul\":21341:21375   */\n      0x556e697377617056324c6962726172793a20494e53554646494349454e545f49\n        /* \"#utility.yul\":21337:21338   */\n      0x00\n        /* \"#utility.yul\":21329:21335   */\n      dup3\n        /* \"#utility.yul\":21325:21339   */\n      add\n        /* \"#utility.yul\":21318:21376   */\n      mstore\n        /* \"#utility.yul\":21410:21423   */\n      0x4e5055545f414d4f554e54000000000000000000000000000000000000000000\n        /* \"#utility.yul\":21405:21407   */\n      0x20\n        /* \"#utility.yul\":21397:21403   */\n      dup3\n        /* \"#utility.yul\":21393:21408   */\n      add\n        /* \"#utility.yul\":21386:21424   */\n      mstore\n        /* \"#utility.yul\":21201:21431   */\n      pop\n      jump\t// out\n        /* \"#utility.yul\":21437:21803   */\n    tag_428:\n        /* \"#utility.yul\":21579:21582   */\n      0x00\n        /* \"#utility.yul\":21600:21667   */\n      tag_672\n        /* \"#utility.yul\":21664:21666   */\n      0x2b\n        /* \"#utility.yul\":21659:21662   */\n      dup4\n        /* \"#utility.yul\":21600:21667   */\n      tag_411\n      jump\t// in\n    tag_672:\n        /* \"#utility.yul\":21593:21667   */\n      swap2\n      pop\n        /* \"#utility.yul\":21676:21769   */\n      tag_673\n        /* \"#utility.yul\":21765:21768   */\n      dup3\n        /* \"#utility.yul\":21676:21769   */\n      tag_427\n      jump\t// in\n    tag_673:\n        /* \"#utility.yul\":21794:21796   */\n      0x40\n        /* \"#utility.yul\":21789:21792   */\n      dup3\n        /* \"#utility.yul\":21785:21797   */\n      add\n        /* \"#utility.yul\":21778:21797   */\n      swap1\n      pop\n        /* \"#utility.yul\":21437:21803   */\n      swap2\n      swap1\n      pop\n      jump\t// out\n        /* \"#utility.yul\":21809:22228   */\n    tag_177:\n        /* \"#utility.yul\":21975:21979   */\n      0x00\n        /* \"#utility.yul\":22013:22015   */\n      0x20\n        /* \"#utility.yul\":22002:22011   */\n      dup3\n        /* \"#utility.yul\":21998:22016   */\n      add\n        /* \"#utility.yul\":21990:22016   */\n      swap1\n      pop\n        /* \"#utility.yul\":22062:22071   */\n      dup2\n        /* \"#utility.yul\":22056:22060   */\n      dup2\n        /* \"#utility.yul\":22052:22072   */\n      sub\n        /* \"#utility.yul\":22048:22049   */\n      0x00\n        /* \"#utility.yul\":22037:22046   */\n      dup4\n        /* \"#utility.yul\":22033:22050   */\n      add\n        /* \"#utility.yul\":22026:22073   */\n      mstore\n        /* \"#utility.yul\":22090:22221   */\n      tag_675\n        /* \"#utility.yul\":22216:22220   */\n      dup2\n        /* \"#utility.yul\":22090:22221   */\n      tag_428\n      jump\t// in\n    tag_675:\n        /* \"#utility.yul\":22082:22221   */\n      swap1\n      pop\n        /* \"#utility.yul\":21809:22228   */\n      swap2\n      swap1\n      pop\n      jump\t// out\n        /* \"#utility.yul\":22234:22461   */\n    tag_429:\n        /* \"#utility.yul\":22374:22408   */\n      0x556e697377617056324c6962726172793a20494e53554646494349454e545f4c\n        /* \"#utility.yul\":22370:22371   */\n      0x00\n        /* \"#utility.yul\":22362:22368   */\n      dup3\n        /* \"#utility.yul\":22358:22372   */\n      add\n        /* \"#utility.yul\":22351:22409   */\n      mstore\n        /* \"#utility.yul\":22443:22453   */\n      0x4951554944495459000000000000000000000000000000000000000000000000\n        /* \"#utility.yul\":22438:22440   */\n      0x20\n        /* \"#utility.yul\":22430:22436   */\n      dup3\n        /* \"#utility.yul\":22426:22441   */\n      add\n        /* \"#utility.yul\":22419:22454   */\n      mstore\n        /* \"#utility.yul\":22234:22461   */\n      pop\n      jump\t// out\n        /* \"#utility.yul\":22467:22833   */\n    tag_430:\n        /* \"#utility.yul\":22609:22612   */\n      0x00\n        /* \"#utility.yul\":22630:22697   */\n      tag_678\n        /* \"#utility.yul\":22694:22696   */\n      0x28\n        /* \"#utility.yul\":22689:22692   */\n      dup4\n        /* \"#utility.yul\":22630:22697   */\n      tag_411\n      jump\t// in\n    tag_678:\n        /* \"#utility.yul\":22623:22697   */\n      swap2\n      pop\n        /* \"#utility.yul\":22706:22799   */\n      tag_679\n        /* \"#utility.yul\":22795:22798   */\n      dup3\n        /* \"#utility.yul\":22706:22799   */\n      tag_429\n      jump\t// in\n    tag_679:\n        /* \"#utility.yul\":22824:22826   */\n      0x40\n        /* \"#utility.yul\":22819:22822   */\n      dup3\n        /* \"#utility.yul\":22815:22827   */\n      add\n        /* \"#utility.yul\":22808:22827   */\n      swap1\n      pop\n        /* \"#utility.yul\":22467:22833   */\n      swap2\n      swap1\n      pop\n      jump\t// out\n        /* \"#utility.yul\":22839:23258   */\n    tag_181:\n        /* \"#utility.yul\":23005:23009   */\n      0x00\n        /* \"#utility.yul\":23043:23045   */\n      0x20\n        /* \"#utility.yul\":23032:23041   */\n      dup3\n        /* \"#utility.yul\":23028:23046   */\n      add\n        /* \"#utility.yul\":23020:23046   */\n      swap1\n      pop\n        /* \"#utility.yul\":23092:23101   */\n      dup2\n        /* \"#utility.yul\":23086:23090   */\n      dup2\n        /* \"#utility.yul\":23082:23102   */\n      sub\n        /* \"#utility.yul\":23078:23079   */\n      0x00\n        /* \"#utility.yul\":23067:23076   */\n      dup4\n        /* \"#utility.yul\":23063:23080   */\n      add\n        /* \"#utility.yul\":23056:23103   */\n      mstore\n        /* \"#utility.yul\":23120:23251   */\n      tag_681\n        /* \"#utility.yul\":23246:23250   */\n      dup2\n        /* \"#utility.yul\":23120:23251   */\n      tag_430\n      jump\t// in\n    tag_681:\n        /* \"#utility.yul\":23112:23251   */\n      swap1\n      pop\n        /* \"#utility.yul\":22839:23258   */\n      swap2\n      swap1\n      pop\n      jump\t// out\n        /* \"#utility.yul\":23264:23444   */\n    tag_431:\n        /* \"#utility.yul\":23312:23389   */\n      0x4e487b7100000000000000000000000000000000000000000000000000000000\n        /* \"#utility.yul\":23309:23310   */\n      0x00\n        /* \"#utility.yul\":23302:23390   */\n      mstore\n        /* \"#utility.yul\":23409:23413   */\n      0x12\n        /* \"#utility.yul\":23406:23407   */\n      0x04\n        /* \"#utility.yul\":23399:23414   */\n      mstore\n        /* \"#utility.yul\":23433:23437   */\n      0x24\n        /* \"#utility.yul\":23430:23431   */\n      0x00\n        /* \"#utility.yul\":23423:23438   */\n      revert\n        /* \"#utility.yul\":23450:23635   */\n    tag_189:\n        /* \"#utility.yul\":23490:23491   */\n      0x00\n        /* \"#utility.yul\":23507:23527   */\n      tag_684\n        /* \"#utility.yul\":23525:23526   */\n      dup3\n        /* \"#utility.yul\":23507:23527   */\n      tag_385\n      jump\t// in\n    tag_684:\n        /* \"#utility.yul\":23502:23527   */\n      swap2\n      pop\n        /* \"#utility.yul\":23541:23561   */\n      tag_685\n        /* \"#utility.yul\":23559:23560   */\n      dup4\n        /* \"#utility.yul\":23541:23561   */\n      tag_385\n      jump\t// in\n    tag_685:\n        /* \"#utility.yul\":23536:23561   */\n      swap3\n      pop\n        /* \"#utility.yul\":23580:23581   */\n      dup3\n        /* \"#utility.yul\":23570:23605   */\n      tag_686\n      jumpi\n        /* \"#utility.yul\":23585:23603   */\n      tag_687\n      tag_431\n      jump\t// in\n    tag_687:\n        /* \"#utility.yul\":23570:23605   */\n    tag_686:\n        /* \"#utility.yul\":23627:23628   */\n      dup3\n        /* \"#utility.yul\":23624:23625   */\n      dup3\n        /* \"#utility.yul\":23620:23629   */\n      div\n        /* \"#utility.yul\":23615:23629   */\n      swap1\n      pop\n        /* \"#utility.yul\":23450:23635   */\n      swap3\n      swap2\n      pop\n      pop\n      jump\t// out\n        /* \"#utility.yul\":23641:23821   */\n    tag_432:\n        /* \"#utility.yul\":23781:23813   */\n      0x556e697377617056324c6962726172793a20494e56414c49445f504154480000\n        /* \"#utility.yul\":23777:23778   */\n      0x00\n        /* \"#utility.yul\":23769:23775   */\n      dup3\n        /* \"#utility.yul\":23765:23779   */\n      add\n        /* \"#utility.yul\":23758:23814   */\n      mstore\n        /* \"#utility.yul\":23641:23821   */\n      pop\n      jump\t// out\n        /* \"#utility.yul\":23827:24193   */\n    tag_433:\n        /* \"#utility.yul\":23969:23972   */\n      0x00\n        /* \"#utility.yul\":23990:24057   */\n      tag_690\n        /* \"#utility.yul\":24054:24056   */\n      0x1e\n        /* \"#utility.yul\":24049:24052   */\n      dup4\n        /* \"#utility.yul\":23990:24057   */\n      tag_411\n      jump\t// in\n    tag_690:\n        /* \"#utility.yul\":23983:24057   */\n      swap2\n      pop\n        /* \"#utility.yul\":24066:24159   */\n      tag_691\n        /* \"#utility.yul\":24155:24158   */\n      dup3\n        /* \"#utility.yul\":24066:24159   */\n      tag_432\n      jump\t// in\n    tag_691:\n        /* \"#utility.yul\":24184:24186   */\n      0x20\n        /* \"#utility.yul\":24179:24182   */\n      dup3\n        /* \"#utility.yul\":24175:24187   */\n      add\n        /* \"#utility.yul\":24168:24187   */\n      swap1\n      pop\n        /* \"#utility.yul\":23827:24193   */\n      swap2\n      swap1\n      pop\n      jump\t// out\n        /* \"#utility.yul\":24199:24618   */\n    tag_193:\n        /* \"#utility.yul\":24365:24369   */\n      0x00\n        /* \"#utility.yul\":24403:24405   */\n      0x20\n        /* \"#utility.yul\":24392:24401   */\n      dup3\n        /* \"#utility.yul\":24388:24406   */\n      add\n        /* \"#utility.yul\":24380:24406   */\n      swap1\n      pop\n        /* \"#utility.yul\":24452:24461   */\n      dup2\n        /* \"#utility.yul\":24446:24450   */\n      dup2\n        /* \"#utility.yul\":24442:24462   */\n      sub\n        /* \"#utility.yul\":24438:24439   */\n      0x00\n        /* \"#utility.yul\":24427:24436   */\n      dup4\n        /* \"#utility.yul\":24423:24440   */\n      add\n        /* \"#utility.yul\":24416:24463   */\n      mstore\n        /* \"#utility.yul\":24480:24611   */\n      tag_693\n        /* \"#utility.yul\":24606:24610   */\n      dup2\n        /* \"#utility.yul\":24480:24611   */\n      tag_433\n      jump\t// in\n    tag_693:\n        /* \"#utility.yul\":24472:24611   */\n      swap1\n      pop\n        /* \"#utility.yul\":24199:24618   */\n      swap2\n      swap1\n      pop\n      jump\t// out\n        /* \"#utility.yul\":24624:24795   */\n    tag_219:\n        /* \"#utility.yul\":24663:24666   */\n      0x00\n        /* \"#utility.yul\":24686:24710   */\n      tag_695\n        /* \"#utility.yul\":24704:24709   */\n      dup3\n        /* \"#utility.yul\":24686:24710   */\n      tag_385\n      jump\t// in\n    tag_695:\n        /* \"#utility.yul\":24677:24710   */\n      swap2\n      pop\n        /* \"#utility.yul\":24732:24736   */\n      0x00\n        /* \"#utility.yul\":24725:24730   */\n      dup3\n        /* \"#utility.yul\":24722:24737   */\n      sub\n        /* \"#utility.yul\":24719:24760   */\n      tag_696\n      jumpi\n        /* \"#utility.yul\":24740:24758   */\n      tag_697\n      tag_414\n      jump\t// in\n    tag_697:\n        /* \"#utility.yul\":24719:24760   */\n    tag_696:\n        /* \"#utility.yul\":24787:24788   */\n      0x01\n        /* \"#utility.yul\":24780:24785   */\n      dup3\n        /* \"#utility.yul\":24776:24789   */\n      sub\n        /* \"#utility.yul\":24769:24789   */\n      swap1\n      pop\n        /* \"#utility.yul\":24624:24795   */\n      swap2\n      swap1\n      pop\n      jump\t// out\n        /* \"#utility.yul\":24801:24992   */\n    tag_236:\n        /* \"#utility.yul\":24841:24844   */\n      0x00\n        /* \"#utility.yul\":24860:24880   */\n      tag_699\n        /* \"#utility.yul\":24878:24879   */\n      dup3\n        /* \"#utility.yul\":24860:24880   */\n      tag_385\n      jump\t// in\n    tag_699:\n        /* \"#utility.yul\":24855:24880   */\n      swap2\n      pop\n        /* \"#utility.yul\":24894:24914   */\n      tag_700\n        /* \"#utility.yul\":24912:24913   */\n      dup4\n        /* \"#utility.yul\":24894:24914   */\n      tag_385\n      jump\t// in\n    tag_700:\n        /* \"#utility.yul\":24889:24914   */\n      swap3\n      pop\n        /* \"#utility.yul\":24937:24938   */\n      dup3\n        /* \"#utility.yul\":24934:24935   */\n      dup3\n        /* \"#utility.yul\":24930:24939   */\n      add\n        /* \"#utility.yul\":24923:24939   */\n      swap1\n      pop\n        /* \"#utility.yul\":24958:24961   */\n      dup1\n        /* \"#utility.yul\":24955:24956   */\n      dup3\n        /* \"#utility.yul\":24952:24962   */\n      gt\n        /* \"#utility.yul\":24949:24985   */\n      iszero\n      tag_701\n      jumpi\n        /* \"#utility.yul\":24965:24983   */\n      tag_702\n      tag_414\n      jump\t// in\n    tag_702:\n        /* \"#utility.yul\":24949:24985   */\n    tag_701:\n        /* \"#utility.yul\":24801:24992   */\n      swap3\n      swap2\n      pop\n      pop\n      jump\t// out\n        /* \"#utility.yul\":24998:25092   */\n    tag_434:\n        /* \"#utility.yul\":25031:25039   */\n      0x00\n        /* \"#utility.yul\":25079:25084   */\n      dup2\n        /* \"#utility.yul\":25075:25077   */\n      0x60\n        /* \"#utility.yul\":25071:25085   */\n      shl\n        /* \"#utility.yul\":25050:25085   */\n      swap1\n      pop\n        /* \"#utility.yul\":24998:25092   */\n      swap2\n      swap1\n      pop\n      jump\t// out\n        /* \"#utility.yul\":25098:25192   */\n    tag_435:\n        /* \"#utility.yul\":25137:25144   */\n      0x00\n        /* \"#utility.yul\":25166:25186   */\n      tag_705\n        /* \"#utility.yul\":25180:25185   */\n      dup3\n        /* \"#utility.yul\":25166:25186   */\n      tag_434\n      jump\t// in\n    tag_705:\n        /* \"#utility.yul\":25155:25186   */\n      swap1\n      pop\n        /* \"#utility.yul\":25098:25192   */\n      swap2\n      swap1\n      pop\n      jump\t// out\n        /* \"#utility.yul\":25198:25298   */\n    tag_436:\n        /* \"#utility.yul\":25237:25244   */\n      0x00\n        /* \"#utility.yul\":25266:25292   */\n      tag_707\n        /* \"#utility.yul\":25286:25291   */\n      dup3\n        /* \"#utility.yul\":25266:25292   */\n      tag_435\n      jump\t// in\n    tag_707:\n        /* \"#utility.yul\":25255:25292   */\n      swap1\n      pop\n        /* \"#utility.yul\":25198:25298   */\n      swap2\n      swap1\n      pop\n      jump\t// out\n        /* \"#utility.yul\":25304:25461   */\n    tag_437:\n        /* \"#utility.yul\":25409:25454   */\n      tag_709\n        /* \"#utility.yul\":25429:25453   */\n      tag_710\n        /* \"#utility.yul\":25447:25452   */\n      dup3\n        /* \"#utility.yul\":25429:25453   */\n      tag_396\n      jump\t// in\n    tag_710:\n        /* \"#utility.yul\":25409:25454   */\n      tag_436\n      jump\t// in\n    tag_709:\n        /* \"#utility.yul\":25404:25407   */\n      dup3\n        /* \"#utility.yul\":25397:25455   */\n      mstore\n        /* \"#utility.yul\":25304:25461   */\n      pop\n      pop\n      jump\t// out\n        /* \"#utility.yul\":25467:25864   */\n    tag_248:\n        /* \"#utility.yul\":25607:25610   */\n      0x00\n        /* \"#utility.yul\":25622:25697   */\n      tag_712\n        /* \"#utility.yul\":25693:25696   */\n      dup3\n        /* \"#utility.yul\":25684:25690   */\n      dup6\n        /* \"#utility.yul\":25622:25697   */\n      tag_437\n      jump\t// in\n    tag_712:\n        /* \"#utility.yul\":25722:25724   */\n      0x14\n        /* \"#utility.yul\":25717:25720   */\n      dup3\n        /* \"#utility.yul\":25713:25725   */\n      add\n        /* \"#utility.yul\":25706:25725   */\n      swap2\n      pop\n        /* \"#utility.yul\":25735:25810   */\n      tag_713\n        /* \"#utility.yul\":25806:25809   */\n      dup3\n        /* \"#utility.yul\":25797:25803   */\n      dup5\n        /* \"#utility.yul\":25735:25810   */\n      tag_437\n      jump\t// in\n    tag_713:\n        /* \"#utility.yul\":25835:25837   */\n      0x14\n        /* \"#utility.yul\":25830:25833   */\n      dup3\n        /* \"#utility.yul\":25826:25838   */\n      add\n        /* \"#utility.yul\":25819:25838   */\n      swap2\n      pop\n        /* \"#utility.yul\":25855:25858   */\n      dup2\n        /* \"#utility.yul\":25848:25858   */\n      swap1\n      pop\n        /* \"#utility.yul\":25467:25864   */\n      swap4\n      swap3\n      pop\n      pop\n      pop\n      jump\t// out\n        /* \"#utility.yul\":25870:26018   */\n    tag_438:\n        /* \"#utility.yul\":25972:25983   */\n      0x00\n        /* \"#utility.yul\":26009:26012   */\n      dup2\n        /* \"#utility.yul\":25994:26012   */\n      swap1\n      pop\n        /* \"#utility.yul\":25870:26018   */\n      swap3\n      swap2\n      pop\n      pop\n      jump\t// out\n        /* \"#utility.yul\":26024:26238   */\n    tag_439:\n        /* \"#utility.yul\":26164:26230   */\n      0xff00000000000000000000000000000000000000000000000000000000000000\n        /* \"#utility.yul\":26160:26161   */\n      0x00\n        /* \"#utility.yul\":26152:26158   */\n      dup3\n        /* \"#utility.yul\":26148:26162   */\n      add\n        /* \"#utility.yul\":26141:26231   */\n      mstore\n        /* \"#utility.yul\":26024:26238   */\n      pop\n      jump\t// out\n        /* \"#utility.yul\":26244:26644   */\n    tag_440:\n        /* \"#utility.yul\":26404:26407   */\n      0x00\n        /* \"#utility.yul\":26425:26509   */\n      tag_717\n        /* \"#utility.yul\":26507:26508   */\n      0x01\n        /* \"#utility.yul\":26502:26505   */\n      dup4\n        /* \"#utility.yul\":26425:26509   */\n      tag_438\n      jump\t// in\n    tag_717:\n        /* \"#utility.yul\":26418:26509   */\n      swap2\n      pop\n        /* \"#utility.yul\":26518:26611   */\n      tag_718\n        /* \"#utility.yul\":26607:26610   */\n      dup3\n        /* \"#utility.yul\":26518:26611   */\n      tag_439\n      jump\t// in\n    tag_718:\n        /* \"#utility.yul\":26636:26637   */\n      0x01\n        /* \"#utility.yul\":26631:26634   */\n      dup3\n        /* \"#utility.yul\":26627:26638   */\n      add\n        /* \"#utility.yul\":26620:26638   */\n      swap1\n      pop\n        /* \"#utility.yul\":26244:26644   */\n      swap2\n      swap1\n      pop\n      jump\t// out\n        /* \"#utility.yul\":26650:26727   */\n    tag_441:\n        /* \"#utility.yul\":26687:26694   */\n      0x00\n        /* \"#utility.yul\":26716:26721   */\n      dup2\n        /* \"#utility.yul\":26705:26721   */\n      swap1\n      pop\n        /* \"#utility.yul\":26650:26727   */\n      swap2\n      swap1\n      pop\n      jump\t// out\n        /* \"#utility.yul\":26733:26812   */\n    tag_442:\n        /* \"#utility.yul\":26772:26779   */\n      0x00\n        /* \"#utility.yul\":26801:26806   */\n      dup2\n        /* \"#utility.yul\":26790:26806   */\n      swap1\n      pop\n        /* \"#utility.yul\":26733:26812   */\n      swap2\n      swap1\n      pop\n      jump\t// out\n        /* \"#utility.yul\":26818:26975   */\n    tag_443:\n        /* \"#utility.yul\":26923:26968   */\n      tag_722\n        /* \"#utility.yul\":26943:26967   */\n      tag_723\n        /* \"#utility.yul\":26961:26966   */\n      dup3\n        /* \"#utility.yul\":26943:26967   */\n      tag_441\n      jump\t// in\n    tag_723:\n        /* \"#utility.yul\":26923:26968   */\n      tag_442\n      jump\t// in\n    tag_722:\n        /* \"#utility.yul\":26918:26921   */\n      dup3\n        /* \"#utility.yul\":26911:26969   */\n      mstore\n        /* \"#utility.yul\":26818:26975   */\n      pop\n      pop\n      jump\t// out\n        /* \"#utility.yul\":26981:27195   */\n    tag_444:\n        /* \"#utility.yul\":27121:27187   */\n      0x96e8ac4277198ff8b6f785478aa9a39f403cb768dd02cbee326c3e7da348845f\n        /* \"#utility.yul\":27117:27118   */\n      0x00\n        /* \"#utility.yul\":27109:27115   */\n      dup3\n        /* \"#utility.yul\":27105:27119   */\n      add\n        /* \"#utility.yul\":27098:27188   */\n      mstore\n        /* \"#utility.yul\":26981:27195   */\n      pop\n      jump\t// out\n        /* \"#utility.yul\":27201:27603   */\n    tag_445:\n        /* \"#utility.yul\":27361:27364   */\n      0x00\n        /* \"#utility.yul\":27382:27467   */\n      tag_726\n        /* \"#utility.yul\":27464:27466   */\n      0x20\n        /* \"#utility.yul\":27459:27462   */\n      dup4\n        /* \"#utility.yul\":27382:27467   */\n      tag_438\n      jump\t// in\n    tag_726:\n        /* \"#utility.yul\":27375:27467   */\n      swap2\n      pop\n        /* \"#utility.yul\":27476:27569   */\n      tag_727\n        /* \"#utility.yul\":27565:27568   */\n      dup3\n        /* \"#utility.yul\":27476:27569   */\n      tag_444\n      jump\t// in\n    tag_727:\n        /* \"#utility.yul\":27594:27596   */\n      0x20\n        /* \"#utility.yul\":27589:27592   */\n      dup3\n        /* \"#utility.yul\":27585:27597   */\n      add\n        /* \"#utility.yul\":27578:27597   */\n      swap1\n      pop\n        /* \"#utility.yul\":27201:27603   */\n      swap2\n      swap1\n      pop\n      jump\t// out\n        /* \"#utility.yul\":27609:28538   */\n    tag_250:\n        /* \"#utility.yul\":27951:27954   */\n      0x00\n        /* \"#utility.yul\":27973:28121   */\n      tag_729\n        /* \"#utility.yul\":28117:28120   */\n      dup3\n        /* \"#utility.yul\":27973:28121   */\n      tag_440\n      jump\t// in\n    tag_729:\n        /* \"#utility.yul\":27966:28121   */\n      swap2\n      pop\n        /* \"#utility.yul\":28131:28206   */\n      tag_730\n        /* \"#utility.yul\":28202:28205   */\n      dup3\n        /* \"#utility.yul\":28193:28199   */\n      dup6\n        /* \"#utility.yul\":28131:28206   */\n      tag_437\n      jump\t// in\n    tag_730:\n        /* \"#utility.yul\":28231:28233   */\n      0x14\n        /* \"#utility.yul\":28226:28229   */\n      dup3\n        /* \"#utility.yul\":28222:28234   */\n      add\n        /* \"#utility.yul\":28215:28234   */\n      swap2\n      pop\n        /* \"#utility.yul\":28244:28319   */\n      tag_731\n        /* \"#utility.yul\":28315:28318   */\n      dup3\n        /* \"#utility.yul\":28306:28312   */\n      dup5\n        /* \"#utility.yul\":28244:28319   */\n      tag_443\n      jump\t// in\n    tag_731:\n        /* \"#utility.yul\":28344:28346   */\n      0x20\n        /* \"#utility.yul\":28339:28342   */\n      dup3\n        /* \"#utility.yul\":28335:28347   */\n      add\n        /* \"#utility.yul\":28328:28347   */\n      swap2\n      pop\n        /* \"#utility.yul\":28364:28512   */\n      tag_732\n        /* \"#utility.yul\":28508:28511   */\n      dup3\n        /* \"#utility.yul\":28364:28512   */\n      tag_445\n      jump\t// in\n    tag_732:\n        /* \"#utility.yul\":28357:28512   */\n      swap2\n      pop\n        /* \"#utility.yul\":28529:28532   */\n      dup2\n        /* \"#utility.yul\":28522:28532   */\n      swap1\n      pop\n        /* \"#utility.yul\":27609:28538   */\n      swap4\n      swap3\n      pop\n      pop\n      pop\n      jump\t// out\n        /* \"#utility.yul\":28544:28642   */\n    tag_446:\n        /* \"#utility.yul\":28595:28601   */\n      0x00\n        /* \"#utility.yul\":28629:28634   */\n      dup2\n        /* \"#utility.yul\":28623:28635   */\n      mload\n        /* \"#utility.yul\":28613:28635   */\n      swap1\n      pop\n        /* \"#utility.yul\":28544:28642   */\n      swap2\n      swap1\n      pop\n      jump\t// out\n        /* \"#utility.yul\":28648:28795   */\n    tag_447:\n        /* \"#utility.yul\":28749:28760   */\n      0x00\n        /* \"#utility.yul\":28786:28789   */\n      dup2\n        /* \"#utility.yul\":28771:28789   */\n      swap1\n      pop\n        /* \"#utility.yul\":28648:28795   */\n      swap3\n      swap2\n      pop\n      pop\n      jump\t// out\n        /* \"#utility.yul\":28801:29047   */\n    tag_448:\n        /* \"#utility.yul\":28882:28883   */\n      0x00\n        /* \"#utility.yul\":28892:29005   */\n    tag_736:\n        /* \"#utility.yul\":28906:28912   */\n      dup4\n        /* \"#utility.yul\":28903:28904   */\n      dup2\n        /* \"#utility.yul\":28900:28913   */\n      lt\n        /* \"#utility.yul\":28892:29005   */\n      iszero\n      tag_738\n      jumpi\n        /* \"#utility.yul\":28991:28992   */\n      dup1\n        /* \"#utility.yul\":28986:28989   */\n      dup3\n        /* \"#utility.yul\":28982:28993   */\n      add\n        /* \"#utility.yul\":28976:28994   */\n      mload\n        /* \"#utility.yul\":28972:28973   */\n      dup2\n        /* \"#utility.yul\":28967:28970   */\n      dup5\n        /* \"#utility.yul\":28963:28974   */\n      add\n        /* \"#utility.yul\":28956:28995   */\n      mstore\n        /* \"#utility.yul\":28928:28930   */\n      0x20\n        /* \"#utility.yul\":28925:28926   */\n      dup2\n        /* \"#utility.yul\":28921:28931   */\n      add\n        /* \"#utility.yul\":28916:28931   */\n      swap1\n      pop\n        /* \"#utility.yul\":28892:29005   */\n      jump(tag_736)\n    tag_738:\n        /* \"#utility.yul\":29039:29040   */\n      0x00\n        /* \"#utility.yul\":29030:29036   */\n      dup5\n        /* \"#utility.yul\":29025:29028   */\n      dup5\n        /* \"#utility.yul\":29021:29037   */\n      add\n        /* \"#utility.yul\":29014:29041   */\n      mstore\n        /* \"#utility.yul\":28863:29047   */\n      pop\n        /* \"#utility.yul\":28801:29047   */\n      pop\n      pop\n      pop\n      jump\t// out\n        /* \"#utility.yul\":29053:29439   */\n    tag_449:\n        /* \"#utility.yul\":29157:29160   */\n      0x00\n        /* \"#utility.yul\":29185:29223   */\n      tag_740\n        /* \"#utility.yul\":29217:29222   */\n      dup3\n        /* \"#utility.yul\":29185:29223   */\n      tag_446\n      jump\t// in\n    tag_740:\n        /* \"#utility.yul\":29239:29327   */\n      tag_741\n        /* \"#utility.yul\":29320:29326   */\n      dup2\n        /* \"#utility.yul\":29315:29318   */\n      dup6\n        /* \"#utility.yul\":29239:29327   */\n      tag_447\n      jump\t// in\n    tag_741:\n        /* \"#utility.yul\":29232:29327   */\n      swap4\n      pop\n        /* \"#utility.yul\":29336:29401   */\n      tag_742\n        /* \"#utility.yul\":29394:29400   */\n      dup2\n        /* \"#utility.yul\":29389:29392   */\n      dup6\n        /* \"#utility.yul\":29382:29386   */\n      0x20\n        /* \"#utility.yul\":29375:29380   */\n      dup7\n        /* \"#utility.yul\":29371:29387   */\n      add\n        /* \"#utility.yul\":29336:29401   */\n      tag_448\n      jump\t// in\n    tag_742:\n        /* \"#utility.yul\":29426:29432   */\n      dup1\n        /* \"#utility.yul\":29421:29424   */\n      dup5\n        /* \"#utility.yul\":29417:29433   */\n      add\n        /* \"#utility.yul\":29410:29433   */\n      swap2\n      pop\n        /* \"#utility.yul\":29161:29439   */\n      pop\n        /* \"#utility.yul\":29053:29439   */\n      swap3\n      swap2\n      pop\n      pop\n      jump\t// out\n        /* \"#utility.yul\":29445:29716   */\n    tag_254:\n        /* \"#utility.yul\":29575:29578   */\n      0x00\n        /* \"#utility.yul\":29597:29690   */\n      tag_744\n        /* \"#utility.yul\":29686:29689   */\n      dup3\n        /* \"#utility.yul\":29677:29683   */\n      dup5\n        /* \"#utility.yul\":29597:29690   */\n      tag_449\n      jump\t// in\n    tag_744:\n        /* \"#utility.yul\":29590:29690   */\n      swap2\n      pop\n        /* \"#utility.yul\":29707:29710   */\n      dup2\n        /* \"#utility.yul\":29700:29710   */\n      swap1\n      pop\n        /* \"#utility.yul\":29445:29716   */\n      swap3\n      swap2\n      pop\n      pop\n      jump\t// out\n        /* \"#utility.yul\":29722:29958   */\n    tag_450:\n        /* \"#utility.yul\":29862:29896   */\n      0x5472616e7366657248656c7065723a3a7472616e7366657246726f6d3a207472\n        /* \"#utility.yul\":29858:29859   */\n      0x00\n        /* \"#utility.yul\":29850:29856   */\n      dup3\n        /* \"#utility.yul\":29846:29860   */\n      add\n        /* \"#utility.yul\":29839:29897   */\n      mstore\n        /* \"#utility.yul\":29931:29950   */\n      0x616e7366657246726f6d206661696c6564000000000000000000000000000000\n        /* \"#utility.yul\":29926:29928   */\n      0x20\n        /* \"#utility.yul\":29918:29924   */\n      dup3\n        /* \"#utility.yul\":29914:29929   */\n      add\n        /* \"#utility.yul\":29907:29951   */\n      mstore\n        /* \"#utility.yul\":29722:29958   */\n      pop\n      jump\t// out\n        /* \"#utility.yul\":29964:30330   */\n    tag_451:\n        /* \"#utility.yul\":30106:30109   */\n      0x00\n        /* \"#utility.yul\":30127:30194   */\n      tag_747\n        /* \"#utility.yul\":30191:30193   */\n      0x31\n        /* \"#utility.yul\":30186:30189   */\n      dup4\n        /* \"#utility.yul\":30127:30194   */\n      tag_411\n      jump\t// in\n    tag_747:\n        /* \"#utility.yul\":30120:30194   */\n      swap2\n      pop\n        /* \"#utility.yul\":30203:30296   */\n      tag_748\n        /* \"#utility.yul\":30292:30295   */\n      dup3\n        /* \"#utility.yul\":30203:30296   */\n      tag_450\n      jump\t// in\n    tag_748:\n        /* \"#utility.yul\":30321:30323   */\n      0x40\n        /* \"#utility.yul\":30316:30319   */\n      dup3\n        /* \"#utility.yul\":30312:30324   */\n      add\n        /* \"#utility.yul\":30305:30324   */\n      swap1\n      pop\n        /* \"#utility.yul\":29964:30330   */\n      swap2\n      swap1\n      pop\n      jump\t// out\n        /* \"#utility.yul\":30336:30755   */\n    tag_263:\n        /* \"#utility.yul\":30502:30506   */\n      0x00\n        /* \"#utility.yul\":30540:30542   */\n      0x20\n        /* \"#utility.yul\":30529:30538   */\n      dup3\n        /* \"#utility.yul\":30525:30543   */\n      add\n        /* \"#utility.yul\":30517:30543   */\n      swap1\n      pop\n        /* \"#utility.yul\":30589:30598   */\n      dup2\n        /* \"#utility.yul\":30583:30587   */\n      dup2\n        /* \"#utility.yul\":30579:30599   */\n      sub\n        /* \"#utility.yul\":30575:30576   */\n      0x00\n        /* \"#utility.yul\":30564:30573   */\n      dup4\n        /* \"#utility.yul\":30560:30577   */\n      add\n        /* \"#utility.yul\":30553:30600   */\n      mstore\n        /* \"#utility.yul\":30617:30748   */\n      tag_750\n        /* \"#utility.yul\":30743:30747   */\n      dup2\n        /* \"#utility.yul\":30617:30748   */\n      tag_451\n      jump\t// in\n    tag_750:\n        /* \"#utility.yul\":30609:30748   */\n      swap1\n      pop\n        /* \"#utility.yul\":30336:30755   */\n      swap2\n      swap1\n      pop\n      jump\t// out\n        /* \"#utility.yul\":30761:30929   */\n    tag_452:\n        /* \"#utility.yul\":30844:30855   */\n      0x00\n        /* \"#utility.yul\":30878:30884   */\n      dup3\n        /* \"#utility.yul\":30873:30876   */\n      dup3\n        /* \"#utility.yul\":30866:30885   */\n      mstore\n        /* \"#utility.yul\":30918:30922   */\n      0x20\n        /* \"#utility.yul\":30913:30916   */\n      dup3\n        /* \"#utility.yul\":30909:30923   */\n      add\n        /* \"#utility.yul\":30894:30923   */\n      swap1\n      pop\n        /* \"#utility.yul\":30761:30929   */\n      swap3\n      swap2\n      pop\n      pop\n      jump\t// out\n        /* \"#utility.yul\":30935:31308   */\n    tag_453:\n        /* \"#utility.yul\":31021:31024   */\n      0x00\n        /* \"#utility.yul\":31049:31087   */\n      tag_753\n        /* \"#utility.yul\":31081:31086   */\n      dup3\n        /* \"#utility.yul\":31049:31087   */\n      tag_446\n      jump\t// in\n    tag_753:\n        /* \"#utility.yul\":31103:31173   */\n      tag_754\n        /* \"#utility.yul\":31166:31172   */\n      dup2\n        /* \"#utility.yul\":31161:31164   */\n      dup6\n        /* \"#utility.yul\":31103:31173   */\n      tag_452\n      jump\t// in\n    tag_754:\n        /* \"#utility.yul\":31096:31173   */\n      swap4\n      pop\n        /* \"#utility.yul\":31182:31247   */\n      tag_755\n        /* \"#utility.yul\":31240:31246   */\n      dup2\n        /* \"#utility.yul\":31235:31238   */\n      dup6\n        /* \"#utility.yul\":31228:31232   */\n      0x20\n        /* \"#utility.yul\":31221:31226   */\n      dup7\n        /* \"#utility.yul\":31217:31233   */\n      add\n        /* \"#utility.yul\":31182:31247   */\n      tag_448\n      jump\t// in\n    tag_755:\n        /* \"#utility.yul\":31272:31301   */\n      tag_756\n        /* \"#utility.yul\":31294:31300   */\n      dup2\n        /* \"#utility.yul\":31272:31301   */\n      tag_390\n      jump\t// in\n    tag_756:\n        /* \"#utility.yul\":31267:31270   */\n      dup5\n        /* \"#utility.yul\":31263:31302   */\n      add\n        /* \"#utility.yul\":31256:31302   */\n      swap2\n      pop\n        /* \"#utility.yul\":31025:31308   */\n      pop\n        /* \"#utility.yul\":30935:31308   */\n      swap3\n      swap2\n      pop\n      pop\n      jump\t// out\n        /* \"#utility.yul\":31314:31954   */\n    tag_292:\n        /* \"#utility.yul\":31509:31513   */\n      0x00\n        /* \"#utility.yul\":31547:31550   */\n      0x80\n        /* \"#utility.yul\":31536:31545   */\n      dup3\n        /* \"#utility.yul\":31532:31551   */\n      add\n        /* \"#utility.yul\":31524:31551   */\n      swap1\n      pop\n        /* \"#utility.yul\":31561:31632   */\n      tag_758\n        /* \"#utility.yul\":31629:31630   */\n      0x00\n        /* \"#utility.yul\":31618:31627   */\n      dup4\n        /* \"#utility.yul\":31614:31631   */\n      add\n        /* \"#utility.yul\":31605:31611   */\n      dup8\n        /* \"#utility.yul\":31561:31632   */\n      tag_388\n      jump\t// in\n    tag_758:\n        /* \"#utility.yul\":31642:31714   */\n      tag_759\n        /* \"#utility.yul\":31710:31712   */\n      0x20\n        /* \"#utility.yul\":31699:31708   */\n      dup4\n        /* \"#utility.yul\":31695:31713   */\n      add\n        /* \"#utility.yul\":31686:31692   */\n      dup7\n        /* \"#utility.yul\":31642:31714   */\n      tag_388\n      jump\t// in\n    tag_759:\n        /* \"#utility.yul\":31724:31796   */\n      tag_760\n        /* \"#utility.yul\":31792:31794   */\n      0x40\n        /* \"#utility.yul\":31781:31790   */\n      dup4\n        /* \"#utility.yul\":31777:31795   */\n      add\n        /* \"#utility.yul\":31768:31774   */\n      dup6\n        /* \"#utility.yul\":31724:31796   */\n      tag_410\n      jump\t// in\n    tag_760:\n        /* \"#utility.yul\":31843:31852   */\n      dup2\n        /* \"#utility.yul\":31837:31841   */\n      dup2\n        /* \"#utility.yul\":31833:31853   */\n      sub\n        /* \"#utility.yul\":31828:31830   */\n      0x60\n        /* \"#utility.yul\":31817:31826   */\n      dup4\n        /* \"#utility.yul\":31813:31831   */\n      add\n        /* \"#utility.yul\":31806:31854   */\n      mstore\n        /* \"#utility.yul\":31871:31947   */\n      tag_761\n        /* \"#utility.yul\":31942:31946   */\n      dup2\n        /* \"#utility.yul\":31933:31939   */\n      dup5\n        /* \"#utility.yul\":31871:31947   */\n      tag_453\n      jump\t// in\n    tag_761:\n        /* \"#utility.yul\":31863:31947   */\n      swap1\n      pop\n        /* \"#utility.yul\":31314:31954   */\n      swap6\n      swap5\n      pop\n      pop\n      pop\n      pop\n      pop\n      jump\t// out\n        /* \"#utility.yul\":31960:32191   */\n    tag_454:\n        /* \"#utility.yul\":32100:32134   */\n      0x556e697377617056324c6962726172793a20494e53554646494349454e545f4f\n        /* \"#utility.yul\":32096:32097   */\n      0x00\n        /* \"#utility.yul\":32088:32094   */\n      dup3\n        /* \"#utility.yul\":32084:32098   */\n      add\n        /* \"#utility.yul\":32077:32135   */\n      mstore\n        /* \"#utility.yul\":32169:32183   */\n      0x55545055545f414d4f554e540000000000000000000000000000000000000000\n        /* \"#utility.yul\":32164:32166   */\n      0x20\n        /* \"#utility.yul\":32156:32162   */\n      dup3\n        /* \"#utility.yul\":32152:32167   */\n      add\n        /* \"#utility.yul\":32145:32184   */\n      mstore\n        /* \"#utility.yul\":31960:32191   */\n      pop\n      jump\t// out\n        /* \"#utility.yul\":32197:32563   */\n    tag_455:\n        /* \"#utility.yul\":32339:32342   */\n      0x00\n        /* \"#utility.yul\":32360:32427   */\n      tag_764\n        /* \"#utility.yul\":32424:32426   */\n      0x2c\n        /* \"#utility.yul\":32419:32422   */\n      dup4\n        /* \"#utility.yul\":32360:32427   */\n      tag_411\n      jump\t// in\n    tag_764:\n        /* \"#utility.yul\":32353:32427   */\n      swap2\n      pop\n        /* \"#utility.yul\":32436:32529   */\n      tag_765\n        /* \"#utility.yul\":32525:32528   */\n      dup3\n        /* \"#utility.yul\":32436:32529   */\n      tag_454\n      jump\t// in\n    tag_765:\n        /* \"#utility.yul\":32554:32556   */\n      0x40\n        /* \"#utility.yul\":32549:32552   */\n      dup3\n        /* \"#utility.yul\":32545:32557   */\n      add\n        /* \"#utility.yul\":32538:32557   */\n      swap1\n      pop\n        /* \"#utility.yul\":32197:32563   */\n      swap2\n      swap1\n      pop\n      jump\t// out\n        /* \"#utility.yul\":32569:32988   */\n    tag_299:\n        /* \"#utility.yul\":32735:32739   */\n      0x00\n        /* \"#utility.yul\":32773:32775   */\n      0x20\n        /* \"#utility.yul\":32762:32771   */\n      dup3\n        /* \"#utility.yul\":32758:32776   */\n      add\n        /* \"#utility.yul\":32750:32776   */\n      swap1\n      pop\n        /* \"#utility.yul\":32822:32831   */\n      dup2\n        /* \"#utility.yul\":32816:32820   */\n      dup2\n        /* \"#utility.yul\":32812:32832   */\n      sub\n        /* \"#utility.yul\":32808:32809   */\n      0x00\n        /* \"#utility.yul\":32797:32806   */\n      dup4\n        /* \"#utility.yul\":32793:32810   */\n      add\n        /* \"#utility.yul\":32786:32833   */\n      mstore\n        /* \"#utility.yul\":32850:32981   */\n      tag_767\n        /* \"#utility.yul\":32976:32980   */\n      dup2\n        /* \"#utility.yul\":32850:32981   */\n      tag_455\n      jump\t// in\n    tag_767:\n        /* \"#utility.yul\":32842:32981   */\n      swap1\n      pop\n        /* \"#utility.yul\":32569:32988   */\n      swap2\n      swap1\n      pop\n      jump\t// out\n        /* \"#utility.yul\":32994:33218   */\n    tag_456:\n        /* \"#utility.yul\":33134:33168   */\n      0x556e697377617056324c6962726172793a20494e53554646494349454e545f41\n        /* \"#utility.yul\":33130:33131   */\n      0x00\n        /* \"#utility.yul\":33122:33128   */\n      dup3\n        /* \"#utility.yul\":33118:33132   */\n      add\n        /* \"#utility.yul\":33111:33169   */\n      mstore\n        /* \"#utility.yul\":33203:33210   */\n      0x4d4f554e54000000000000000000000000000000000000000000000000000000\n        /* \"#utility.yul\":33198:33200   */\n      0x20\n        /* \"#utility.yul\":33190:33196   */\n      dup3\n        /* \"#utility.yul\":33186:33201   */\n      add\n        /* \"#utility.yul\":33179:33211   */\n      mstore\n        /* \"#utility.yul\":32994:33218   */\n      pop\n      jump\t// out\n        /* \"#utility.yul\":33224:33590   */\n    tag_457:\n        /* \"#utility.yul\":33366:33369   */\n      0x00\n        /* \"#utility.yul\":33387:33454   */\n      tag_770\n        /* \"#utility.yul\":33451:33453   */\n      0x25\n        /* \"#utility.yul\":33446:33449   */\n      dup4\n        /* \"#utility.yul\":33387:33454   */\n      tag_411\n      jump\t// in\n    tag_770:\n        /* \"#utility.yul\":33380:33454   */\n      swap2\n      pop\n        /* \"#utility.yul\":33463:33556   */\n      tag_771\n        /* \"#utility.yul\":33552:33555   */\n      dup3\n        /* \"#utility.yul\":33463:33556   */\n      tag_456\n      jump\t// in\n    tag_771:\n        /* \"#utility.yul\":33581:33583   */\n      0x40\n        /* \"#utility.yul\":33576:33579   */\n      dup3\n        /* \"#utility.yul\":33572:33584   */\n      add\n        /* \"#utility.yul\":33565:33584   */\n      swap1\n      pop\n        /* \"#utility.yul\":33224:33590   */\n      swap2\n      swap1\n      pop\n      jump\t// out\n        /* \"#utility.yul\":33596:34015   */\n    tag_313:\n        /* \"#utility.yul\":33762:33766   */\n      0x00\n        /* \"#utility.yul\":33800:33802   */\n      0x20\n        /* \"#utility.yul\":33789:33798   */\n      dup3\n        /* \"#utility.yul\":33785:33803   */\n      add\n        /* \"#utility.yul\":33777:33803   */\n      swap1\n      pop\n        /* \"#utility.yul\":33849:33858   */\n      dup2\n        /* \"#utility.yul\":33843:33847   */\n      dup2\n        /* \"#utility.yul\":33839:33859   */\n      sub\n        /* \"#utility.yul\":33835:33836   */\n      0x00\n        /* \"#utility.yul\":33824:33833   */\n      dup4\n        /* \"#utility.yul\":33820:33837   */\n      add\n        /* \"#utility.yul\":33813:33860   */\n      mstore\n        /* \"#utility.yul\":33877:34008   */\n      tag_773\n        /* \"#utility.yul\":34003:34007   */\n      dup2\n        /* \"#utility.yul\":33877:34008   */\n      tag_457\n      jump\t// in\n    tag_773:\n        /* \"#utility.yul\":33869:34008   */\n      swap1\n      pop\n        /* \"#utility.yul\":33596:34015   */\n      swap2\n      swap1\n      pop\n      jump\t// out\n        /* \"#utility.yul\":34021:34245   */\n    tag_458:\n        /* \"#utility.yul\":34161:34195   */\n      0x556e697377617056324c6962726172793a204944454e544943414c5f41444452\n        /* \"#utility.yul\":34157:34158   */\n      0x00\n        /* \"#utility.yul\":34149:34155   */\n      dup3\n        /* \"#utility.yul\":34145:34159   */\n      add\n        /* \"#utility.yul\":34138:34196   */\n      mstore\n        /* \"#utility.yul\":34230:34237   */\n      0x4553534553000000000000000000000000000000000000000000000000000000\n        /* \"#utility.yul\":34225:34227   */\n      0x20\n        /* \"#utility.yul\":34217:34223   */\n      dup3\n        /* \"#utility.yul\":34213:34228   */\n      add\n        /* \"#utility.yul\":34206:34238   */\n      mstore\n        /* \"#utility.yul\":34021:34245   */\n      pop\n      jump\t// out\n        /* \"#utility.yul\":34251:34617   */\n    tag_459:\n        /* \"#utility.yul\":34393:34396   */\n      0x00\n        /* \"#utility.yul\":34414:34481   */\n      tag_776\n        /* \"#utility.yul\":34478:34480   */\n      0x25\n        /* \"#utility.yul\":34473:34476   */\n      dup4\n        /* \"#utility.yul\":34414:34481   */\n      tag_411\n      jump\t// in\n    tag_776:\n        /* \"#utility.yul\":34407:34481   */\n      swap2\n      pop\n        /* \"#utility.yul\":34490:34583   */\n      tag_777\n        /* \"#utility.yul\":34579:34582   */\n      dup3\n        /* \"#utility.yul\":34490:34583   */\n      tag_458\n      jump\t// in\n    tag_777:\n        /* \"#utility.yul\":34608:34610   */\n      0x40\n        /* \"#utility.yul\":34603:34606   */\n      dup3\n        /* \"#utility.yul\":34599:34611   */\n      add\n        /* \"#utility.yul\":34592:34611   */\n      swap1\n      pop\n        /* \"#utility.yul\":34251:34617   */\n      swap2\n      swap1\n      pop\n      jump\t// out\n        /* \"#utility.yul\":34623:35042   */\n    tag_322:\n        /* \"#utility.yul\":34789:34793   */\n      0x00\n        /* \"#utility.yul\":34827:34829   */\n      0x20\n        /* \"#utility.yul\":34816:34825   */\n      dup3\n        /* \"#utility.yul\":34812:34830   */\n      add\n        /* \"#utility.yul\":34804:34830   */\n      swap1\n      pop\n        /* \"#utility.yul\":34876:34885   */\n      dup2\n        /* \"#utility.yul\":34870:34874   */\n      dup2\n        /* \"#utility.yul\":34866:34886   */\n      sub\n        /* \"#utility.yul\":34862:34863   */\n      0x00\n        /* \"#utility.yul\":34851:34860   */\n      dup4\n        /* \"#utility.yul\":34847:34864   */\n      add\n        /* \"#utility.yul\":34840:34887   */\n      mstore\n        /* \"#utility.yul\":34904:35035   */\n      tag_779\n        /* \"#utility.yul\":35030:35034   */\n      dup2\n        /* \"#utility.yul\":34904:35035   */\n      tag_459\n      jump\t// in\n    tag_779:\n        /* \"#utility.yul\":34896:35035   */\n      swap1\n      pop\n        /* \"#utility.yul\":34623:35042   */\n      swap2\n      swap1\n      pop\n      jump\t// out\n        /* \"#utility.yul\":35048:35228   */\n    tag_460:\n        /* \"#utility.yul\":35188:35220   */\n      0x556e697377617056324c6962726172793a205a45524f5f414444524553530000\n        /* \"#utility.yul\":35184:35185   */\n      0x00\n        /* \"#utility.yul\":35176:35182   */\n      dup3\n        /* \"#utility.yul\":35172:35186   */\n      add\n        /* \"#utility.yul\":35165:35221   */\n      mstore\n        /* \"#utility.yul\":35048:35228   */\n      pop\n      jump\t// out\n        /* \"#utility.yul\":35234:35600   */\n    tag_461:\n        /* \"#utility.yul\":35376:35379   */\n      0x00\n        /* \"#utility.yul\":35397:35464   */\n      tag_782\n        /* \"#utility.yul\":35461:35463   */\n      0x1e\n        /* \"#utility.yul\":35456:35459   */\n      dup4\n        /* \"#utility.yul\":35397:35464   */\n      tag_411\n      jump\t// in\n    tag_782:\n        /* \"#utility.yul\":35390:35464   */\n      swap2\n      pop\n        /* \"#utility.yul\":35473:35566   */\n      tag_783\n        /* \"#utility.yul\":35562:35565   */\n      dup3\n        /* \"#utility.yul\":35473:35566   */\n      tag_460\n      jump\t// in\n    tag_783:\n        /* \"#utility.yul\":35591:35593   */\n      0x20\n        /* \"#utility.yul\":35586:35589   */\n      dup3\n        /* \"#utility.yul\":35582:35594   */\n      add\n        /* \"#utility.yul\":35575:35594   */\n      swap1\n      pop\n        /* \"#utility.yul\":35234:35600   */\n      swap2\n      swap1\n      pop\n      jump\t// out\n        /* \"#utility.yul\":35606:36025   */\n    tag_327:\n        /* \"#utility.yul\":35772:35776   */\n      0x00\n        /* \"#utility.yul\":35810:35812   */\n      0x20\n        /* \"#utility.yul\":35799:35808   */\n      dup3\n        /* \"#utility.yul\":35795:35813   */\n      add\n        /* \"#utility.yul\":35787:35813   */\n      swap1\n      pop\n        /* \"#utility.yul\":35859:35868   */\n      dup2\n        /* \"#utility.yul\":35853:35857   */\n      dup2\n        /* \"#utility.yul\":35849:35869   */\n      sub\n        /* \"#utility.yul\":35845:35846   */\n      0x00\n        /* \"#utility.yul\":35834:35843   */\n      dup4\n        /* \"#utility.yul\":35830:35847   */\n      add\n        /* \"#utility.yul\":35823:35870   */\n      mstore\n        /* \"#utility.yul\":35887:36018   */\n      tag_785\n        /* \"#utility.yul\":36013:36017   */\n      dup2\n        /* \"#utility.yul\":35887:36018   */\n      tag_461\n      jump\t// in\n    tag_785:\n        /* \"#utility.yul\":35879:36018   */\n      swap1\n      pop\n        /* \"#utility.yul\":35606:36025   */\n      swap2\n      swap1\n      pop\n      jump\t// out\n        /* \"#utility.yul\":36031:36363   */\n    tag_330:\n        /* \"#utility.yul\":36152:36156   */\n      0x00\n        /* \"#utility.yul\":36190:36192   */\n      0x40\n        /* \"#utility.yul\":36179:36188   */\n      dup3\n        /* \"#utility.yul\":36175:36193   */\n      add\n        /* \"#utility.yul\":36167:36193   */\n      swap1\n      pop\n        /* \"#utility.yul\":36203:36274   */\n      tag_787\n        /* \"#utility.yul\":36271:36272   */\n      0x00\n        /* \"#utility.yul\":36260:36269   */\n      dup4\n        /* \"#utility.yul\":36256:36273   */\n      add\n        /* \"#utility.yul\":36247:36253   */\n      dup6\n        /* \"#utility.yul\":36203:36274   */\n      tag_410\n      jump\t// in\n    tag_787:\n        /* \"#utility.yul\":36284:36356   */\n      tag_788\n        /* \"#utility.yul\":36352:36354   */\n      0x20\n        /* \"#utility.yul\":36341:36350   */\n      dup4\n        /* \"#utility.yul\":36337:36355   */\n      add\n        /* \"#utility.yul\":36328:36334   */\n      dup5\n        /* \"#utility.yul\":36284:36356   */\n      tag_410\n      jump\t// in\n    tag_788:\n        /* \"#utility.yul\":36031:36363   */\n      swap4\n      swap3\n      pop\n      pop\n      pop\n      jump\t// out\n        /* \"#utility.yul\":36369:36512   */\n    tag_462:\n        /* \"#utility.yul\":36426:36431   */\n      0x00\n        /* \"#utility.yul\":36457:36463   */\n      dup2\n        /* \"#utility.yul\":36451:36464   */\n      mload\n        /* \"#utility.yul\":36442:36464   */\n      swap1\n      pop\n        /* \"#utility.yul\":36473:36506   */\n      tag_790\n        /* \"#utility.yul\":36500:36505   */\n      dup2\n        /* \"#utility.yul\":36473:36506   */\n      tag_397\n      jump\t// in\n    tag_790:\n        /* \"#utility.yul\":36369:36512   */\n      swap3\n      swap2\n      pop\n      pop\n      jump\t// out\n        /* \"#utility.yul\":36518:36869   */\n    tag_334:\n        /* \"#utility.yul\":36588:36594   */\n      0x00\n        /* \"#utility.yul\":36637:36639   */\n      0x20\n        /* \"#utility.yul\":36625:36634   */\n      dup3\n        /* \"#utility.yul\":36616:36623   */\n      dup5\n        /* \"#utility.yul\":36612:36635   */\n      sub\n        /* \"#utility.yul\":36608:36640   */\n      slt\n        /* \"#utility.yul\":36605:36724   */\n      iszero\n      tag_792\n      jumpi\n        /* \"#utility.yul\":36643:36722   */\n      tag_793\n      tag_383\n      jump\t// in\n    tag_793:\n        /* \"#utility.yul\":36605:36724   */\n    tag_792:\n        /* \"#utility.yul\":36763:36764   */\n      0x00\n        /* \"#utility.yul\":36788:36852   */\n      tag_794\n        /* \"#utility.yul\":36844:36851   */\n      dup5\n        /* \"#utility.yul\":36835:36841   */\n      dup3\n        /* \"#utility.yul\":36824:36833   */\n      dup6\n        /* \"#utility.yul\":36820:36842   */\n      add\n        /* \"#utility.yul\":36788:36852   */\n      tag_462\n      jump\t// in\n    tag_794:\n        /* \"#utility.yul\":36778:36852   */\n      swap2\n      pop\n        /* \"#utility.yul\":36734:36862   */\n      pop\n        /* \"#utility.yul\":36518:36869   */\n      swap3\n      swap2\n      pop\n      pop\n      jump\t// out\n        /* \"#utility.yul\":36875:37055   */\n    tag_352:\n        /* \"#utility.yul\":36923:37000   */\n      0x4e487b7100000000000000000000000000000000000000000000000000000000\n        /* \"#utility.yul\":36920:36921   */\n      0x00\n        /* \"#utility.yul\":36913:37001   */\n      mstore\n        /* \"#utility.yul\":37020:37024   */\n      0x01\n        /* \"#utility.yul\":37017:37018   */\n      0x04\n        /* \"#utility.yul\":37010:37025   */\n      mstore\n        /* \"#utility.yul\":37044:37048   */\n      0x24\n        /* \"#utility.yul\":37041:37042   */\n      0x00\n        /* \"#utility.yul\":37034:37049   */\n      revert\n        /* \"#utility.yul\":37061:37471   */\n    tag_358:\n        /* \"#utility.yul\":37101:37108   */\n      0x00\n        /* \"#utility.yul\":37124:37144   */\n      tag_797\n        /* \"#utility.yul\":37142:37143   */\n      dup3\n        /* \"#utility.yul\":37124:37144   */\n      tag_385\n      jump\t// in\n    tag_797:\n        /* \"#utility.yul\":37119:37144   */\n      swap2\n      pop\n        /* \"#utility.yul\":37158:37178   */\n      tag_798\n        /* \"#utility.yul\":37176:37177   */\n      dup4\n        /* \"#utility.yul\":37158:37178   */\n      tag_385\n      jump\t// in\n    tag_798:\n        /* \"#utility.yul\":37153:37178   */\n      swap3\n      pop\n        /* \"#utility.yul\":37213:37214   */\n      dup3\n        /* \"#utility.yul\":37210:37211   */\n      dup3\n        /* \"#utility.yul\":37206:37215   */\n      mul\n        /* \"#utility.yul\":37235:37265   */\n      tag_799\n        /* \"#utility.yul\":37253:37264   */\n      dup2\n        /* \"#utility.yul\":37235:37265   */\n      tag_385\n      jump\t// in\n    tag_799:\n        /* \"#utility.yul\":37224:37265   */\n      swap2\n      pop\n        /* \"#utility.yul\":37414:37415   */\n      dup3\n        /* \"#utility.yul\":37405:37412   */\n      dup3\n        /* \"#utility.yul\":37401:37416   */\n      div\n        /* \"#utility.yul\":37398:37399   */\n      dup5\n        /* \"#utility.yul\":37395:37417   */\n      eq\n        /* \"#utility.yul\":37375:37376   */\n      dup4\n        /* \"#utility.yul\":37368:37377   */\n      iszero\n        /* \"#utility.yul\":37348:37431   */\n      or\n        /* \"#utility.yul\":37325:37464   */\n      tag_800\n      jumpi\n        /* \"#utility.yul\":37444:37462   */\n      tag_801\n      tag_414\n      jump\t// in\n    tag_801:\n        /* \"#utility.yul\":37325:37464   */\n    tag_800:\n        /* \"#utility.yul\":37109:37471   */\n      pop\n        /* \"#utility.yul\":37061:37471   */\n      swap3\n      swap2\n      pop\n      pop\n      jump\t// out\n        /* \"#utility.yul\":37477:37647   */\n    tag_463:\n        /* \"#utility.yul\":37617:37639   */\n      0x64732d6d6174682d6d756c2d6f766572666c6f77000000000000000000000000\n        /* \"#utility.yul\":37613:37614   */\n      0x00\n        /* \"#utility.yul\":37605:37611   */\n      dup3\n        /* \"#utility.yul\":37601:37615   */\n      add\n        /* \"#utility.yul\":37594:37640   */\n      mstore\n        /* \"#utility.yul\":37477:37647   */\n      pop\n      jump\t// out\n        /* \"#utility.yul\":37653:38019   */\n    tag_464:\n        /* \"#utility.yul\":37795:37798   */\n      0x00\n        /* \"#utility.yul\":37816:37883   */\n      tag_804\n        /* \"#utility.yul\":37880:37882   */\n      0x14\n        /* \"#utility.yul\":37875:37878   */\n      dup4\n        /* \"#utility.yul\":37816:37883   */\n      tag_411\n      jump\t// in\n    tag_804:\n        /* \"#utility.yul\":37809:37883   */\n      swap2\n      pop\n        /* \"#utility.yul\":37892:37985   */\n      tag_805\n        /* \"#utility.yul\":37981:37984   */\n      dup3\n        /* \"#utility.yul\":37892:37985   */\n      tag_463\n      jump\t// in\n    tag_805:\n        /* \"#utility.yul\":38010:38012   */\n      0x20\n        /* \"#utility.yul\":38005:38008   */\n      dup3\n        /* \"#utility.yul\":38001:38013   */\n      add\n        /* \"#utility.yul\":37994:38013   */\n      swap1\n      pop\n        /* \"#utility.yul\":37653:38019   */\n      swap2\n      swap1\n      pop\n      jump\t// out\n        /* \"#utility.yul\":38025:38444   */\n    tag_362:\n        /* \"#utility.yul\":38191:38195   */\n      0x00\n        /* \"#utility.yul\":38229:38231   */\n      0x20\n        /* \"#utility.yul\":38218:38227   */\n      dup3\n        /* \"#utility.yul\":38214:38232   */\n      add\n        /* \"#utility.yul\":38206:38232   */\n      swap1\n      pop\n        /* \"#utility.yul\":38278:38287   */\n      dup2\n        /* \"#utility.yul\":38272:38276   */\n      dup2\n        /* \"#utility.yul\":38268:38288   */\n      sub\n        /* \"#utility.yul\":38264:38265   */\n      0x00\n        /* \"#utility.yul\":38253:38262   */\n      dup4\n        /* \"#utility.yul\":38249:38266   */\n      add\n        /* \"#utility.yul\":38242:38289   */\n      mstore\n        /* \"#utility.yul\":38306:38437   */\n      tag_807\n        /* \"#utility.yul\":38432:38436   */\n      dup2\n        /* \"#utility.yul\":38306:38437   */\n      tag_464\n      jump\t// in\n    tag_807:\n        /* \"#utility.yul\":38298:38437   */\n      swap1\n      pop\n        /* \"#utility.yul\":38025:38444   */\n      swap2\n      swap1\n      pop\n      jump\t// out\n        /* \"#utility.yul\":38450:38620   */\n    tag_465:\n        /* \"#utility.yul\":38590:38612   */\n      0x64732d6d6174682d6164642d6f766572666c6f77000000000000000000000000\n        /* \"#utility.yul\":38586:38587   */\n      0x00\n        /* \"#utility.yul\":38578:38584   */\n      dup3\n        /* \"#utility.yul\":38574:38588   */\n      add\n        /* \"#utility.yul\":38567:38613   */\n      mstore\n        /* \"#utility.yul\":38450:38620   */\n      pop\n      jump\t// out\n        /* \"#utility.yul\":38626:38992   */\n    tag_466:\n        /* \"#utility.yul\":38768:38771   */\n      0x00\n        /* \"#utility.yul\":38789:38856   */\n      tag_810\n        /* \"#utility.yul\":38853:38855   */\n      0x14\n        /* \"#utility.yul\":38848:38851   */\n      dup4\n        /* \"#utility.yul\":38789:38856   */\n      tag_411\n      jump\t// in\n    tag_810:\n        /* \"#utility.yul\":38782:38856   */\n      swap2\n      pop\n        /* \"#utility.yul\":38865:38958   */\n      tag_811\n        /* \"#utility.yul\":38954:38957   */\n      dup3\n        /* \"#utility.yul\":38865:38958   */\n      tag_465\n      jump\t// in\n    tag_811:\n        /* \"#utility.yul\":38983:38985   */\n      0x20\n        /* \"#utility.yul\":38978:38981   */\n      dup3\n        /* \"#utility.yul\":38974:38986   */\n      add\n        /* \"#utility.yul\":38967:38986   */\n      swap1\n      pop\n        /* \"#utility.yul\":38626:38992   */\n      swap2\n      swap1\n      pop\n      jump\t// out\n        /* \"#utility.yul\":38998:39417   */\n    tag_367:\n        /* \"#utility.yul\":39164:39168   */\n      0x00\n        /* \"#utility.yul\":39202:39204   */\n      0x20\n        /* \"#utility.yul\":39191:39200   */\n      dup3\n        /* \"#utility.yul\":39187:39205   */\n      add\n        /* \"#utility.yul\":39179:39205   */\n      swap1\n      pop\n        /* \"#utility.yul\":39251:39260   */\n      dup2\n        /* \"#utility.yul\":39245:39249   */\n      dup2\n        /* \"#utility.yul\":39241:39261   */\n      sub\n        /* \"#utility.yul\":39237:39238   */\n      0x00\n        /* \"#utility.yul\":39226:39235   */\n      dup4\n        /* \"#utility.yul\":39222:39239   */\n      add\n        /* \"#utility.yul\":39215:39262   */\n      mstore\n        /* \"#utility.yul\":39279:39410   */\n      tag_813\n        /* \"#utility.yul\":39405:39409   */\n      dup2\n        /* \"#utility.yul\":39279:39410   */\n      tag_466\n      jump\t// in\n    tag_813:\n        /* \"#utility.yul\":39271:39410   */\n      swap1\n      pop\n        /* \"#utility.yul\":38998:39417   */\n      swap2\n      swap1\n      pop\n      jump\t// out\n        /* \"#utility.yul\":39423:39537   */\n    tag_467:\n        /* \"#utility.yul\":39460:39467   */\n      0x00\n        /* \"#utility.yul\":39500:39530   */\n      0xffffffffffffffffffffffffffff\n        /* \"#utility.yul\":39493:39498   */\n      dup3\n        /* \"#utility.yul\":39489:39531   */\n      and\n        /* \"#utility.yul\":39478:39531   */\n      swap1\n      pop\n        /* \"#utility.yul\":39423:39537   */\n      swap2\n      swap1\n      pop\n      jump\t// out\n        /* \"#utility.yul\":39543:39665   */\n    tag_468:\n        /* \"#utility.yul\":39616:39640   */\n      tag_816\n        /* \"#utility.yul\":39634:39639   */\n      dup2\n        /* \"#utility.yul\":39616:39640   */\n      tag_467\n      jump\t// in\n    tag_816:\n        /* \"#utility.yul\":39609:39614   */\n      dup2\n        /* \"#utility.yul\":39606:39641   */\n      eq\n        /* \"#utility.yul\":39596:39659   */\n      tag_817\n      jumpi\n        /* \"#utility.yul\":39655:39656   */\n      0x00\n        /* \"#utility.yul\":39652:39653   */\n      dup1\n        /* \"#utility.yul\":39645:39657   */\n      revert\n        /* \"#utility.yul\":39596:39659   */\n    tag_817:\n        /* \"#utility.yul\":39543:39665   */\n      pop\n      jump\t// out\n        /* \"#utility.yul\":39671:39814   */\n    tag_469:\n        /* \"#utility.yul\":39728:39733   */\n      0x00\n        /* \"#utility.yul\":39759:39765   */\n      dup2\n        /* \"#utility.yul\":39753:39766   */\n      mload\n        /* \"#utility.yul\":39744:39766   */\n      swap1\n      pop\n        /* \"#utility.yul\":39775:39808   */\n      tag_819\n        /* \"#utility.yul\":39802:39807   */\n      dup2\n        /* \"#utility.yul\":39775:39808   */\n      tag_468\n      jump\t// in\n    tag_819:\n        /* \"#utility.yul\":39671:39814   */\n      swap3\n      swap2\n      pop\n      pop\n      jump\t// out\n        /* \"#utility.yul\":39820:40327   */\n    tag_374:\n        /* \"#utility.yul\":39899:39905   */\n      0x00\n        /* \"#utility.yul\":39907:39913   */\n      dup1\n        /* \"#utility.yul\":39956:39958   */\n      0x40\n        /* \"#utility.yul\":39944:39953   */\n      dup4\n        /* \"#utility.yul\":39935:39942   */\n      dup6\n        /* \"#utility.yul\":39931:39954   */\n      sub\n        /* \"#utility.yul\":39927:39959   */\n      slt\n        /* \"#utility.yul\":39924:40043   */\n      iszero\n      tag_821\n      jumpi\n        /* \"#utility.yul\":39962:40041   */\n      tag_822\n      tag_383\n      jump\t// in\n    tag_822:\n        /* \"#utility.yul\":39924:40043   */\n    tag_821:\n        /* \"#utility.yul\":40082:40083   */\n      0x00\n        /* \"#utility.yul\":40107:40171   */\n      tag_823\n        /* \"#utility.yul\":40163:40170   */\n      dup6\n        /* \"#utility.yul\":40154:40160   */\n      dup3\n        /* \"#utility.yul\":40143:40152   */\n      dup7\n        /* \"#utility.yul\":40139:40161   */\n      add\n        /* \"#utility.yul\":40107:40171   */\n      tag_469\n      jump\t// in\n    tag_823:\n        /* \"#utility.yul\":40097:40171   */\n      swap3\n      pop\n        /* \"#utility.yul\":40053:40181   */\n      pop\n        /* \"#utility.yul\":40220:40222   */\n      0x20\n        /* \"#utility.yul\":40246:40310   */\n      tag_824\n        /* \"#utility.yul\":40302:40309   */\n      dup6\n        /* \"#utility.yul\":40293:40299   */\n      dup3\n        /* \"#utility.yul\":40282:40291   */\n      dup7\n        /* \"#utility.yul\":40278:40300   */\n      add\n        /* \"#utility.yul\":40246:40310   */\n      tag_469\n      jump\t// in\n    tag_824:\n        /* \"#utility.yul\":40236:40310   */\n      swap2\n      pop\n        /* \"#utility.yul\":40191:40320   */\n      pop\n        /* \"#utility.yul\":39820:40327   */\n      swap3\n      pop\n      swap3\n      swap1\n      pop\n      jump\t// out\n        /* \"#utility.yul\":40333:40504   */\n    tag_470:\n        /* \"#utility.yul\":40473:40496   */\n      0x64732d6d6174682d7375622d756e646572666c6f770000000000000000000000\n        /* \"#utility.yul\":40469:40470   */\n      0x00\n        /* \"#utility.yul\":40461:40467   */\n      dup3\n        /* \"#utility.yul\":40457:40471   */\n      add\n        /* \"#utility.yul\":40450:40497   */\n      mstore\n        /* \"#utility.yul\":40333:40504   */\n      pop\n      jump\t// out\n        /* \"#utility.yul\":40510:40876   */\n    tag_471:\n        /* \"#utility.yul\":40652:40655   */\n      0x00\n        /* \"#utility.yul\":40673:40740   */\n      tag_827\n        /* \"#utility.yul\":40737:40739   */\n      0x15\n        /* \"#utility.yul\":40732:40735   */\n      dup4\n        /* \"#utility.yul\":40673:40740   */\n      tag_411\n      jump\t// in\n    tag_827:\n        /* \"#utility.yul\":40666:40740   */\n      swap2\n      pop\n        /* \"#utility.yul\":40749:40842   */\n      tag_828\n        /* \"#utility.yul\":40838:40841   */\n      dup3\n        /* \"#utility.yul\":40749:40842   */\n      tag_470\n      jump\t// in\n    tag_828:\n        /* \"#utility.yul\":40867:40869   */\n      0x20\n        /* \"#utility.yul\":40862:40865   */\n      dup3\n        /* \"#utility.yul\":40858:40870   */\n      add\n        /* \"#utility.yul\":40851:40870   */\n      swap1\n      pop\n        /* \"#utility.yul\":40510:40876   */\n      swap2\n      swap1\n      pop\n      jump\t// out\n        /* \"#utility.yul\":40882:41301   */\n    tag_381:\n        /* \"#utility.yul\":41048:41052   */\n      0x00\n        /* \"#utility.yul\":41086:41088   */\n      0x20\n        /* \"#utility.yul\":41075:41084   */\n      dup3\n        /* \"#utility.yul\":41071:41089   */\n      add\n        /* \"#utility.yul\":41063:41089   */\n      swap1\n      pop\n        /* \"#utility.yul\":41135:41144   */\n      dup2\n        /* \"#utility.yul\":41129:41133   */\n      dup2\n        /* \"#utility.yul\":41125:41145   */\n      sub\n        /* \"#utility.yul\":41121:41122   */\n      0x00\n        /* \"#utility.yul\":41110:41119   */\n      dup4\n        /* \"#utility.yul\":41106:41123   */\n      add\n        /* \"#utility.yul\":41099:41146   */\n      mstore\n        /* \"#utility.yul\":41163:41294   */\n      tag_830\n        /* \"#utility.yul\":41289:41293   */\n      dup2\n        /* \"#utility.yul\":41163:41294   */\n      tag_471\n      jump\t// in\n    tag_830:\n        /* \"#utility.yul\":41155:41294   */\n      swap1\n      pop\n        /* \"#utility.yul\":40882:41301   */\n      swap2\n      swap1\n      pop\n      jump\t// out\n\n    auxdata: 0xa2646970667358221220f0790f72bd2336fddf81b657e0b932d3aa7915c4d1371055bad01bb60df8703f64736f6c63430008160033\n}\n",
				"bytecode": {
					"linkReferences": {},
					"object": "60a060405234801562000010575f80fd5b506040516200314b3803806200314b8339818101604052810190620000369190620000d6565b8073ffffffffffffffffffffffffffffffffffffffff1660808173ffffffffffffffffffffffffffffffffffffffff16815250505062000106565b5f80fd5b5f73ffffffffffffffffffffffffffffffffffffffff82169050919050565b5f620000a08262000075565b9050919050565b620000b28162000094565b8114620000bd575f80fd5b50565b5f81519050620000d081620000a7565b92915050565b5f60208284031215620000ee57620000ed62000071565b5b5f620000fd84828501620000c0565b91505092915050565b608051612fd16200017a5f395f818161028d0152818161030601528181610409015281816105540152818161064a01528181610796015281816109a6015281816109cf01528181610a60015281816111e10152818161123501528181611636015281816116eb015261178d0152612fd15ff3fe608060405234801561000f575f80fd5b506004361061009c575f3560e01c8063ad615dec11610064578063ad615dec14610190578063baa2abde146101c0578063c45a0155146101f1578063d06ca61f1461020f578063e8e337001461023f5761009c565b8063054d50d4146100a05780631f00ca74146100d057806338ed17391461010057806385f8c259146101305780638803dbee14610160575b5f80fd5b6100ba60048036038101906100b59190611b19565b610271565b6040516100c79190611b78565b60405180910390f35b6100ea60048036038101906100e59190611d3b565b610286565b6040516100f79190611e4c565b60405180910390f35b61011a60048036038101906101159190611ec5565b6102bb565b6040516101279190611e4c565b60405180910390f35b61014a60048036038101906101459190611b19565b6104f4565b6040516101579190611b78565b60405180910390f35b61017a60048036038101906101759190611ec5565b610509565b6040516101879190611e4c565b60405180910390f35b6101aa60048036038101906101a59190611b19565b610735565b6040516101b79190611b78565b60405180910390f35b6101da60048036038101906101d59190611f5b565b61074a565b6040516101e8929190611ff8565b60405180910390f35b6101f96109a4565b604051610206919061202e565b60405180910390f35b61022960048036038101906102249190611d3b565b6109c8565b6040516102369190611e4c565b60405180910390f35b61025960048036038101906102549190612047565b6109fd565b604051610268939291906120f8565b60405180910390f35b5f61027d848484610b2b565b90509392505050565b60606102b37f00000000000000000000000000000000000000000000000000000000000000008484610c2b565b905092915050565b60608142811015610301576040517f08c379a00000000000000000000000000000000000000000000000000000000081526004016102f890612187565b60405180910390fd5b61036c7f0000000000000000000000000000000000000000000000000000000000000000898888808060200260200160405190810160405280939291908181526020018383602002808284375f81840152601f19601f82011690508083019250505050505050610dc3565b915086826001845161037e91906121d2565b8151811061038f5761038e612205565b5b602002602001015110156103d8576040517f08c379a00000000000000000000000000000000000000000000000000000000081526004016103cf906122a2565b60405180910390fd5b61049e86865f8181106103ee576103ed612205565b5b905060200201602081019061040391906122c0565b3361047e7f00000000000000000000000000000000000000000000000000000000000000008a8a5f81811061043b5761043a612205565b5b905060200201602081019061045091906122c0565b8b8b600181811061046457610463612205565b5b905060200201602081019061047991906122c0565b610f45565b855f8151811061049157610490612205565b5b6020026020010151610fb4565b6104e9828787808060200260200160405190810160405280939291908181526020018383602002808284375f81840152601f19601f82011690508083019250505050505050866110e7565b509695505050505050565b5f61050084848461132c565b90509392505050565b6060814281101561054f576040517f08c379a000000000000000000000000000000000000000000000000000000000815260040161054690612187565b60405180910390fd5b6105ba7f0000000000000000000000000000000000000000000000000000000000000000898888808060200260200160405190810160405280939291908181526020018383602002808284375f81840152601f19601f82011690508083019250505050505050610c2b565b915086825f815181106105d0576105cf612205565b5b60200260200101511115610619576040517f08c379a00000000000000000000000000000000000000000000000000000000081526004016106109061235b565b60405180910390fd5b6106df86865f81811061062f5761062e612205565b5b905060200201602081019061064491906122c0565b336106bf7f00000000000000000000000000000000000000000000000000000000000000008a8a5f81811061067c5761067b612205565b5b905060200201602081019061069191906122c0565b8b8b60018181106106a5576106a4612205565b5b90506020020160208101906106ba91906122c0565b610f45565b855f815181106106d2576106d1612205565b5b6020026020010151610fb4565b61072a828787808060200260200160405190810160405280939291908181526020018383602002808284375f81840152601f19601f82011690508083019250505050505050866110e7565b509695505050505050565b5f61074184848461143a565b90509392505050565b5f808242811015610790576040517f08c379a000000000000000000000000000000000000000000000000000000000815260040161078790612187565b60405180910390fd5b5f6107bc7f00000000000000000000000000000000000000000000000000000000000000008c8c610f45565b90508073ffffffffffffffffffffffffffffffffffffffff166323b872dd33838c6040518463ffffffff1660e01b81526004016107fb93929190612379565b6020604051808303815f875af1158015610817573d5f803e3d5ffd5b505050506040513d601f19601f8201168201806040525081019061083b91906123e3565b505f808273ffffffffffffffffffffffffffffffffffffffff166389afcb44896040518263ffffffff1660e01b8152600401610877919061202e565b60408051808303815f875af1158015610892573d5f803e3d5ffd5b505050506040513d601f19601f820116820180604052508101906108b69190612422565b915091505f6108c58e8e6114f1565b5090508073ffffffffffffffffffffffffffffffffffffffff168e73ffffffffffffffffffffffffffffffffffffffff1614610902578183610905565b82825b80975081985050508a871015610950576040517f08c379a0000000000000000000000000000000000000000000000000000000008152600401610947906124d0565b60405180910390fd5b89861015610993576040517f08c379a000000000000000000000000000000000000000000000000000000000815260040161098a9061255e565b60405180910390fd5b505050505097509795505050505050565b7f000000000000000000000000000000000000000000000000000000000000000081565b60606109f57f00000000000000000000000000000000000000000000000000000000000000008484610dc3565b905092915050565b5f805f8342811015610a44576040517f08c379a0000000000000000000000000000000000000000000000000000000008152600401610a3b90612187565b60405180910390fd5b610a528c8c8c8c8c8c61161b565b80945081955050505f610a867f00000000000000000000000000000000000000000000000000000000000000008e8e610f45565b9050610a948d338388610fb4565b610aa08c338387610fb4565b8073ffffffffffffffffffffffffffffffffffffffff16636a627842886040518263ffffffff1660e01b8152600401610ad9919061202e565b6020604051808303815f875af1158015610af5573d5f803e3d5ffd5b505050506040513d601f19601f82011682018060405250810190610b19919061257c565b92505050985098509895505050505050565b5f808411610b6e576040517f08c379a0000000000000000000000000000000000000000000000000000000008152600401610b6590612617565b60405180910390fd5b5f83118015610b7c57505f82115b610bbb576040517f08c379a0000000000000000000000000000000000000000000000000000000008152600401610bb2906126a5565b60405180910390fd5b5f610bd16103e5866118bd90919063ffffffff16565b90505f610be784836118bd90919063ffffffff16565b90505f610c1183610c036103e8896118bd90919063ffffffff16565b61192990919063ffffffff16565b90508082610c1f91906126f0565b93505050509392505050565b6060600282511015610c72576040517f08c379a0000000000000000000000000000000000000000000000000000000008152600401610c699061276a565b60405180910390fd5b815167ffffffffffffffff811115610c8d57610c8c611ba5565b5b604051908082528060200260200182016040528015610cbb5781602001602082028036833780820191505090505b509050828160018351610cce91906121d2565b81518110610cdf57610cde612205565b5b6020026020010181815250505f60018351610cfa91906121d2565b90505b5f811115610dbb575f80610d528786600186610d1991906121d2565b81518110610d2a57610d29612205565b5b6020026020010151878681518110610d4557610d44612205565b5b6020026020010151611981565b91509150610d7b848481518110610d6c57610d6b612205565b5b6020026020010151838361132c565b84600185610d8991906121d2565b81518110610d9a57610d99612205565b5b60200260200101818152505050508080610db390612788565b915050610cfd565b509392505050565b6060600282511015610e0a576040517f08c379a0000000000000000000000000000000000000000000000000000000008152600401610e019061276a565b60405180910390fd5b815167ffffffffffffffff811115610e2557610e24611ba5565b5b604051908082528060200260200182016040528015610e535781602001602082028036833780820191505090505b50905082815f81518110610e6a57610e69612205565b5b6020026020010181815250505f5b60018351610e8691906121d2565b811015610f3d575f80610eda87868581518110610ea657610ea5612205565b5b602002602001015187600187610ebc91906127af565b81518110610ecd57610ecc612205565b5b6020026020010151611981565b91509150610f03848481518110610ef457610ef3612205565b5b60200260200101518383610b2b565b84600185610f1191906127af565b81518110610f2257610f21612205565b5b60200260200101818152505050508080600101915050610e78565b509392505050565b5f805f610f5285856114f1565b91509150858282604051602001610f6a929190612827565b60405160208183030381529060405280519060200120604051602001610f91929190612919565b604051602081830303815290604052805190602001205f1c925050509392505050565b5f808573ffffffffffffffffffffffffffffffffffffffff166323b872dd868686604051602401610fe793929190612379565b6040516020818303038152906040529060e01b6020820180517bffffffffffffffffffffffffffffffffffffffffffffffffffffffff838183161783525050505060405161103591906129c6565b5f604051808303815f865af19150503d805f811461106e576040519150601f19603f3d011682016040523d82523d5f602084013e611073565b606091505b50915091508180156110a057505f8151148061109f57508080602001905181019061109e91906123e3565b5b5b6110df576040517f08c379a00000000000000000000000000000000000000000000000000000000081526004016110d690612a4c565b60405180910390fd5b505050505050565b5f5b600183516110f791906121d2565b811015611326575f8084838151811061111357611112612205565b5b60200260200101518560018561112991906127af565b8151811061113a57611139612205565b5b6020026020010151915091505f61115183836114f1565b5090505f8760018661116391906127af565b8151811061117457611173612205565b5b602002602001015190505f808373ffffffffffffffffffffffffffffffffffffffff168673ffffffffffffffffffffffffffffffffffffffff16146111ba57825f6111bd565b5f835b915091505f60028a516111d091906121d2565b88106111dc578861122e565b61122d7f0000000000000000000000000000000000000000000000000000000000000000878c60028c61120f91906127af565b815181106112205761121f612205565b5b6020026020010151610f45565b5b905061125b7f00000000000000000000000000000000000000000000000000000000000000008888610f45565b73ffffffffffffffffffffffffffffffffffffffff1663022c0d9f8484845f67ffffffffffffffff81111561129357611292611ba5565b5b6040519080825280601f01601f1916602001820160405280156112c55781602001600182028036833780820191505090505b506040518563ffffffff1660e01b81526004016112e59493929190612ab2565b5f604051808303815f87803b1580156112fc575f80fd5b505af115801561130e573d5f803e3d5ffd5b505050505050505050505080806001019150506110e9565b50505050565b5f80841161136f576040517f08c379a000000000000000000000000000000000000000000000000000000000815260040161136690612b6c565b60405180910390fd5b5f8311801561137d57505f82115b6113bc576040517f08c379a00000000000000000000000000000000000000000000000000000000081526004016113b3906126a5565b60405180910390fd5b5f6113e46103e86113d687876118bd90919063ffffffff16565b6118bd90919063ffffffff16565b90505f61140e6103e56114008887611a7d90919063ffffffff16565b6118bd90919063ffffffff16565b905061142f6001828461142191906126f0565b61192990919063ffffffff16565b925050509392505050565b5f80841161147d576040517f08c379a000000000000000000000000000000000000000000000000000000000815260040161147490612bfa565b60405180910390fd5b5f8311801561148b57505f82115b6114ca576040517f08c379a00000000000000000000000000000000000000000000000000000000081526004016114c1906126a5565b60405180910390fd5b826114de83866118bd90919063ffffffff16565b6114e891906126f0565b90509392505050565b5f808273ffffffffffffffffffffffffffffffffffffffff168473ffffffffffffffffffffffffffffffffffffffff1603611561576040517f08c379a000000000000000000000000000000000000000000000000000000000815260040161155890612c88565b60405180910390fd5b8273ffffffffffffffffffffffffffffffffffffffff168473ffffffffffffffffffffffffffffffffffffffff161061159b57828461159e565b83835b80925081935050505f73ffffffffffffffffffffffffffffffffffffffff168273ffffffffffffffffffffffffffffffffffffffff1603611614576040517f08c379a000000000000000000000000000000000000000000000000000000000815260040161160b90612cf0565b60405180910390fd5b9250929050565b5f805f73ffffffffffffffffffffffffffffffffffffffff167f000000000000000000000000000000000000000000000000000000000000000073ffffffffffffffffffffffffffffffffffffffff1663e6a439058a8a6040518363ffffffff1660e01b815260040161168f929190612d0e565b602060405180830381865afa1580156116aa573d5f803e3d5ffd5b505050506040513d601f19601f820116820180604052508101906116ce9190612d49565b73ffffffffffffffffffffffffffffffffffffffff1603611786577f000000000000000000000000000000000000000000000000000000000000000073ffffffffffffffffffffffffffffffffffffffff1663c9c6539689896040518363ffffffff1660e01b8152600401611744929190612d0e565b6020604051808303815f875af1158015611760573d5f803e3d5ffd5b505050506040513d601f19601f820116820180604052508101906117849190612d49565b505b5f806117b37f00000000000000000000000000000000000000000000000000000000000000008b8b611981565b915091505f821480156117c557505f81145b156117d957878780945081955050506118b0565b5f6117e589848461143a565b90508781116118405785811015611831576040517f08c379a00000000000000000000000000000000000000000000000000000000081526004016118289061255e565b60405180910390fd5b888180955081965050506118ae565b5f61184c89848661143a565b90508981111561185f5761185e612d74565b5b878110156118a2576040517f08c379a0000000000000000000000000000000000000000000000000000000008152600401611899906124d0565b60405180910390fd5b80898096508197505050505b505b5050965096945050505050565b5f808214806118e45750828283856118d59190612da1565b9250826118e291906126f0565b145b611923576040517f08c379a000000000000000000000000000000000000000000000000000000000815260040161191a90612e2c565b60405180910390fd5b92915050565b5f82828461193791906127af565b915081101561197b576040517f08c379a000000000000000000000000000000000000000000000000000000000815260040161197290612e94565b60405180910390fd5b92915050565b5f805f61198e85856114f1565b5090505f8061199e888888610f45565b73ffffffffffffffffffffffffffffffffffffffff16630902f1ac6040518163ffffffff1660e01b81526004016040805180830381865afa1580156119e5573d5f803e3d5ffd5b505050506040513d601f19601f82011682018060405250810190611a099190612ef5565b6dffffffffffffffffffffffffffff1691506dffffffffffffffffffffffffffff1691508273ffffffffffffffffffffffffffffffffffffffff168773ffffffffffffffffffffffffffffffffffffffff1614611a67578082611a6a565b81815b8095508196505050505050935093915050565b5f828284611a8b91906121d2565b9150811115611acf576040517f08c379a0000000000000000000000000000000000000000000000000000000008152600401611ac690612f7d565b60405180910390fd5b92915050565b5f604051905090565b5f80fd5b5f80fd5b5f819050919050565b611af881611ae6565b8114611b02575f80fd5b50565b5f81359050611b1381611aef565b92915050565b5f805f60608486031215611b3057611b2f611ade565b5b5f611b3d86828701611b05565b9350506020611b4e86828701611b05565b9250506040611b5f86828701611b05565b9150509250925092565b611b7281611ae6565b82525050565b5f602082019050611b8b5f830184611b69565b92915050565b5f80fd5b5f601f19601f8301169050919050565b7f4e487b71000000000000000000000000000000000000000000000000000000005f52604160045260245ffd5b611bdb82611b95565b810181811067ffffffffffffffff82111715611bfa57611bf9611ba5565b5b80604052505050565b5f611c0c611ad5565b9050611c188282611bd2565b919050565b5f67ffffffffffffffff821115611c3757611c36611ba5565b5b602082029050602081019050919050565b5f80fd5b5f73ffffffffffffffffffffffffffffffffffffffff82169050919050565b5f611c7582611c4c565b9050919050565b611c8581611c6b565b8114611c8f575f80fd5b50565b5f81359050611ca081611c7c565b92915050565b5f611cb8611cb384611c1d565b611c03565b90508083825260208201905060208402830185811115611cdb57611cda611c48565b5b835b81811015611d045780611cf08882611c92565b845260208401935050602081019050611cdd565b5050509392505050565b5f82601f830112611d2257611d21611b91565b5b8135611d32848260208601611ca6565b91505092915050565b5f8060408385031215611d5157611d50611ade565b5b5f611d5e85828601611b05565b925050602083013567ffffffffffffffff811115611d7f57611d7e611ae2565b5b611d8b85828601611d0e565b9150509250929050565b5f81519050919050565b5f82825260208201905092915050565b5f819050602082019050919050565b611dc781611ae6565b82525050565b5f611dd88383611dbe565b60208301905092915050565b5f602082019050919050565b5f611dfa82611d95565b611e048185611d9f565b9350611e0f83611daf565b805f5b83811015611e3f578151611e268882611dcd565b9750611e3183611de4565b925050600181019050611e12565b5085935050505092915050565b5f6020820190508181035f830152611e648184611df0565b905092915050565b5f80fd5b5f8083601f840112611e8557611e84611b91565b5b8235905067ffffffffffffffff811115611ea257611ea1611e6c565b5b602083019150836020820283011115611ebe57611ebd611c48565b5b9250929050565b5f805f805f8060a08789031215611edf57611ede611ade565b5b5f611eec89828a01611b05565b9650506020611efd89828a01611b05565b955050604087013567ffffffffffffffff811115611f1e57611f1d611ae2565b5b611f2a89828a01611e70565b94509450506060611f3d89828a01611c92565b9250506080611f4e89828a01611b05565b9150509295509295509295565b5f805f805f805f60e0888a031215611f7657611f75611ade565b5b5f611f838a828b01611c92565b9750506020611f948a828b01611c92565b9650506040611fa58a828b01611b05565b9550506060611fb68a828b01611b05565b9450506080611fc78a828b01611b05565b93505060a0611fd88a828b01611c92565b92505060c0611fe98a828b01611b05565b91505092959891949750929550565b5f60408201905061200b5f830185611b69565b6120186020830184611b69565b9392505050565b61202881611c6b565b82525050565b5f6020820190506120415f83018461201f565b92915050565b5f805f805f805f80610100898b03121561206457612063611ade565b5b5f6120718b828c01611c92565b98505060206120828b828c01611c92565b97505060406120938b828c01611b05565b96505060606120a48b828c01611b05565b95505060806120b58b828c01611b05565b94505060a06120c68b828c01611b05565b93505060c06120d78b828c01611c92565b92505060e06120e88b828c01611b05565b9150509295985092959890939650565b5f60608201905061210b5f830186611b69565b6121186020830185611b69565b6121256040830184611b69565b949350505050565b5f82825260208201905092915050565b7f556e69737761705632526f757465723a204558504952454400000000000000005f82015250565b5f61217160188361212d565b915061217c8261213d565b602082019050919050565b5f6020820190508181035f83015261219e81612165565b9050919050565b7f4e487b71000000000000000000000000000000000000000000000000000000005f52601160045260245ffd5b5f6121dc82611ae6565b91506121e783611ae6565b92508282039050818111156121ff576121fe6121a5565b5b92915050565b7f4e487b71000000000000000000000000000000000000000000000000000000005f52603260045260245ffd5b7f556e69737761705632526f757465723a20494e53554646494349454e545f4f555f8201527f545055545f414d4f554e54000000000000000000000000000000000000000000602082015250565b5f61228c602b8361212d565b915061229782612232565b604082019050919050565b5f6020820190508181035f8301526122b981612280565b9050919050565b5f602082840312156122d5576122d4611ade565b5b5f6122e284828501611c92565b91505092915050565b7f556e69737761705632526f757465723a204558434553534956455f494e5055545f8201527f5f414d4f554e5400000000000000000000000000000000000000000000000000602082015250565b5f61234560278361212d565b9150612350826122eb565b604082019050919050565b5f6020820190508181035f83015261237281612339565b9050919050565b5f60608201905061238c5f83018661201f565b612399602083018561201f565b6123a66040830184611b69565b949350505050565b5f8115159050919050565b6123c2816123ae565b81146123cc575f80fd5b50565b5f815190506123dd816123b9565b92915050565b5f602082840312156123f8576123f7611ade565b5b5f612405848285016123cf565b91505092915050565b5f8151905061241c81611aef565b92915050565b5f806040838503121561243857612437611ade565b5b5f6124458582860161240e565b92505060206124568582860161240e565b9150509250929050565b7f556e69737761705632526f757465723a20494e53554646494349454e545f415f5f8201527f414d4f554e540000000000000000000000000000000000000000000000000000602082015250565b5f6124ba60268361212d565b91506124c582612460565b604082019050919050565b5f6020820190508181035f8301526124e7816124ae565b9050919050565b7f556e69737761705632526f757465723a20494e53554646494349454e545f425f5f8201527f414d4f554e540000000000000000000000000000000000000000000000000000602082015250565b5f61254860268361212d565b9150612553826124ee565b604082019050919050565b5f6020820190508181035f8301526125758161253c565b9050919050565b5f6020828403121561259157612590611ade565b5b5f61259e8482850161240e565b91505092915050565b7f556e697377617056324c6962726172793a20494e53554646494349454e545f495f8201527f4e5055545f414d4f554e54000000000000000000000000000000000000000000602082015250565b5f612601602b8361212d565b915061260c826125a7565b604082019050919050565b5f6020820190508181035f83015261262e816125f5565b9050919050565b7f556e697377617056324c6962726172793a20494e53554646494349454e545f4c5f8201527f4951554944495459000000000000000000000000000000000000000000000000602082015250565b5f61268f60288361212d565b915061269a82612635565b604082019050919050565b5f6020820190508181035f8301526126bc81612683565b9050919050565b7f4e487b71000000000000000000000000000000000000000000000000000000005f52601260045260245ffd5b5f6126fa82611ae6565b915061270583611ae6565b925082612715576127146126c3565b5b828204905092915050565b7f556e697377617056324c6962726172793a20494e56414c49445f5041544800005f82015250565b5f612754601e8361212d565b915061275f82612720565b602082019050919050565b5f6020820190508181035f83015261278181612748565b9050919050565b5f61279282611ae6565b91505f82036127a4576127a36121a5565b5b600182039050919050565b5f6127b982611ae6565b91506127c483611ae6565b92508282019050808211156127dc576127db6121a5565b5b92915050565b5f8160601b9050919050565b5f6127f8826127e2565b9050919050565b5f612809826127ee565b9050919050565b61282161281c82611c6b565b6127ff565b82525050565b5f6128328285612810565b6014820191506128428284612810565b6014820191508190509392505050565b5f81905092915050565b7fff000000000000000000000000000000000000000000000000000000000000005f82015250565b5f612890600183612852565b915061289b8261285c565b600182019050919050565b5f819050919050565b5f819050919050565b6128c96128c4826128a6565b6128af565b82525050565b7f96e8ac4277198ff8b6f785478aa9a39f403cb768dd02cbee326c3e7da348845f5f82015250565b5f612903602083612852565b915061290e826128cf565b602082019050919050565b5f61292382612884565b915061292f8285612810565b60148201915061293f82846128b8565b60208201915061294e826128f7565b91508190509392505050565b5f81519050919050565b5f81905092915050565b5f5b8381101561298b578082015181840152602081019050612970565b5f8484015250505050565b5f6129a08261295a565b6129aa8185612964565b93506129ba81856020860161296e565b80840191505092915050565b5f6129d18284612996565b915081905092915050565b7f5472616e7366657248656c7065723a3a7472616e7366657246726f6d3a2074725f8201527f616e7366657246726f6d206661696c6564000000000000000000000000000000602082015250565b5f612a3660318361212d565b9150612a41826129dc565b604082019050919050565b5f6020820190508181035f830152612a6381612a2a565b9050919050565b5f82825260208201905092915050565b5f612a848261295a565b612a8e8185612a6a565b9350612a9e81856020860161296e565b612aa781611b95565b840191505092915050565b5f608082019050612ac55f830187611b69565b612ad26020830186611b69565b612adf604083018561201f565b8181036060830152612af18184612a7a565b905095945050505050565b7f556e697377617056324c6962726172793a20494e53554646494349454e545f4f5f8201527f55545055545f414d4f554e540000000000000000000000000000000000000000602082015250565b5f612b56602c8361212d565b9150612b6182612afc565b604082019050919050565b5f6020820190508181035f830152612b8381612b4a565b9050919050565b7f556e697377617056324c6962726172793a20494e53554646494349454e545f415f8201527f4d4f554e54000000000000000000000000000000000000000000000000000000602082015250565b5f612be460258361212d565b9150612bef82612b8a565b604082019050919050565b5f6020820190508181035f830152612c1181612bd8565b9050919050565b7f556e697377617056324c6962726172793a204944454e544943414c5f414444525f8201527f4553534553000000000000000000000000000000000000000000000000000000602082015250565b5f612c7260258361212d565b9150612c7d82612c18565b604082019050919050565b5f6020820190508181035f830152612c9f81612c66565b9050919050565b7f556e697377617056324c6962726172793a205a45524f5f4144445245535300005f82015250565b5f612cda601e8361212d565b9150612ce582612ca6565b602082019050919050565b5f6020820190508181035f830152612d0781612cce565b9050919050565b5f604082019050612d215f83018561201f565b612d2e602083018461201f565b9392505050565b5f81519050612d4381611c7c565b92915050565b5f60208284031215612d5e57612d5d611ade565b5b5f612d6b84828501612d35565b91505092915050565b7f4e487b71000000000000000000000000000000000000000000000000000000005f52600160045260245ffd5b5f612dab82611ae6565b9150612db683611ae6565b9250828202612dc481611ae6565b91508282048414831517612ddb57612dda6121a5565b5b5092915050565b7f64732d6d6174682d6d756c2d6f766572666c6f770000000000000000000000005f82015250565b5f612e1660148361212d565b9150612e2182612de2565b602082019050919050565b5f6020820190508181035f830152612e4381612e0a565b9050919050565b7f64732d6d6174682d6164642d6f766572666c6f770000000000000000000000005f82015250565b5f612e7e60148361212d565b9150612e8982612e4a565b602082019050919050565b5f6020820190508181035f830152612eab81612e72565b9050919050565b5f6dffffffffffffffffffffffffffff82169050919050565b612ed481612eb2565b8114612ede575f80fd5b50565b5f81519050612eef81612ecb565b92915050565b5f8060408385031215612f0b57612f0a611ade565b5b5f612f1885828601612ee1565b9250506020612f2985828601612ee1565b9150509250929050565b7f64732d6d6174682d7375622d756e646572666c6f7700000000000000000000005f82015250565b5f612f6760158361212d565b9150612f7282612f33565b602082019050919050565b5f6020820190508181035f830152612f9481612f5b565b905091905056fea2646970667358221220f0790f72bd2336fddf81b657e0b932d3aa7915c4d1371055bad01bb60df8703f64736f6c63430008160033",
					"opcodes": "PUSH1 0xA0 PUSH1 0x40 MSTORE CALLVALUE DUP1 ISZERO PUSH3 0x10 JUMPI PUSH0 DUP1 REVERT JUMPDEST POP PUSH1 0x40 MLOAD PUSH3 0x314B CODESIZE SUB DUP1 PUSH3 0x314B DUP4 CODECOPY DUP2 DUP2 ADD PUSH1 0x40 MSTORE DUP2 ADD SWAP1 PUSH3 0x36 SWAP2 SWAP1 PUSH3 0xD6 JUMP JUMPDEST DUP1 PUSH20 0xFFFFFFFFFFFFFFFFFFFFFFFFFFFFFFFFFFFFFFFF AND PUSH1 0x80 DUP2 PUSH20 0xFFFFFFFFFFFFFFFFFFFFFFFFFFFFFFFFFFFFFFFF AND DUP2 MSTORE POP POP POP PUSH3 0x106 JUMP JUMPDEST PUSH0 DUP1 REVERT JUMPDEST PUSH0 PUSH20 0xFFFFFFFFFFFFFFFFFFFFFFFFFFFFFFFFFFFFFFFF DUP3 AND SWAP1 POP SWAP2 SWAP1 POP JUMP JUMPDEST PUSH0 PUSH3 0xA0 DUP3 PUSH3 0x75 JUMP JUMPDEST SWAP1 POP SWAP2 SWAP1 POP JUMP JUMPDEST PUSH3 0xB2 DUP2 PUSH3 0x94 JUMP JUMPDEST DUP2 EQ PUSH3 0xBD JUMPI PUSH0 DUP1 REVERT JUMPDEST POP JUMP JUMPDEST PUSH0 DUP2 MLOAD SWAP1 POP PUSH3 0xD0 DUP2 PUSH3 0xA7 JUMP JUMPDEST SWAP3 SWAP2 POP POP JUMP JUMPDEST PUSH0 PUSH1 0x20 DUP3 DUP5 SUB SLT ISZERO PUSH3 0xEE JUMPI PUSH3 0xED PUSH3 0x71 JUMP JUMPDEST JUMPDEST PUSH0 PUSH3 0xFD DUP5 DUP3 DUP6 ADD PUSH3 0xC0 JUMP JUMPDEST SWAP2 POP POP SWAP3 SWAP2 POP POP JUMP JUMPDEST PUSH1 0x80 MLOAD PUSH2 0x2FD1 PUSH3 0x17A PUSH0 CODECOPY PUSH0 DUP2 DUP2 PUSH2 0x28D ADD MSTORE DUP2 DUP2 PUSH2 0x306 ADD MSTORE DUP2 DUP2 PUSH2 0x409 ADD MSTORE DUP2 DUP2 PUSH2 0x554 ADD MSTORE DUP2 DUP2 PUSH2 0x64A ADD MSTORE DUP2 DUP2 PUSH2 0x796 ADD MSTORE DUP2 DUP2 PUSH2 0x9A6 ADD MSTORE DUP2 DUP2 PUSH2 0x9CF ADD MSTORE DUP2 DUP2 PUSH2 0xA60 ADD MSTORE DUP2 DUP2 PUSH2 0x11E1 ADD MSTORE DUP2 DUP2 PUSH2 0x1235 ADD MSTORE DUP2 DUP2 PUSH2 0x1636 ADD MSTORE DUP2 DUP2 PUSH2 0x16EB ADD MSTORE PUSH2 0x178D ADD MSTORE PUSH2 0x2FD1 PUSH0 RETURN INVALID PUSH1 0x80 PUSH1 0x40 MSTORE CALLVALUE DUP1 ISZERO PUSH2 0xF JUMPI PUSH0 DUP1 REVERT JUMPDEST POP PUSH1 0x4 CALLDATASIZE LT PUSH2 0x9C JUMPI PUSH0 CALLDATALOAD PUSH1 0xE0 SHR DUP1 PUSH4 0xAD615DEC GT PUSH2 0x64 JUMPI DUP1 PUSH4 0xAD615DEC EQ PUSH2 0x190 JUMPI DUP1 PUSH4 0xBAA2ABDE EQ PUSH2 0x1C0 JUMPI DUP1 PUSH4 0xC45A0155 EQ PUSH2 0x1F1 JUMPI DUP1 PUSH4 0xD06CA61F EQ PUSH2 0x20F JUMPI DUP1 PUSH4 0xE8E33700 EQ PUSH2 0x23F JUMPI PUSH2 0x9C JUMP JUMPDEST DUP1 PUSH4 0x54D50D4 EQ PUSH2 0xA0 JUMPI DUP1 PUSH4 0x1F00CA74 EQ PUSH2 0xD0 JUMPI DUP1 PUSH4 0x38ED1739 EQ PUSH2 0x100 JUMPI DUP1 PUSH4 0x85F8C259 EQ PUSH2 0x130 JUMPI DUP1 PUSH4 0x8803DBEE EQ PUSH2 0x160 JUMPI JUMPDEST PUSH0 DUP1 REVERT JUMPDEST PUSH2 0xBA PUSH1 0x4 DUP1 CALLDATASIZE SUB DUP2 ADD SWAP1 PUSH2 0xB5 SWAP2 SWAP1 PUSH2 0x1B19 JUMP JUMPDEST PUSH2 0x271 JUMP JUMPDEST PUSH1 0x40 MLOAD PUSH2 0xC7 SWAP2 SWAP1 PUSH2 0x1B78 JUMP JUMPDEST PUSH1 0x40 MLOAD DUP1 SWAP2 SUB SWAP1 RETURN JUMPDEST PUSH2 0xEA PUSH1 0x4 DUP1 CALLDATASIZE SUB DUP2 ADD SWAP1 PUSH2 0xE5 SWAP2 SWAP1 PUSH2 0x1D3B JUMP JUMPDEST PUSH2 0x286 JUMP JUMPDEST PUSH1 0x40 MLOAD PUSH2 0xF7 SWAP2 SWAP1 PUSH2 0x1E4C JUMP JUMPDEST PUSH1 0x40 MLOAD DUP1 SWAP2 SUB SWAP1 RETURN JUMPDEST PUSH2 0x11A PUSH1 0x4 DUP1 CALLDATASIZE SUB DUP2 ADD SWAP1 PUSH2 0x115 SWAP2 SWAP1 PUSH2 0x1EC5 JUMP JUMPDEST PUSH2 0x2BB JUMP JUMPDEST PUSH1 0x40 MLOAD PUSH2 0x127 SWAP2 SWAP1 PUSH2 0x1E4C JUMP JUMPDEST PUSH1 0x40 MLOAD DUP1 SWAP2 SUB SWAP1 RETURN JUMPDEST PUSH2 0x14A PUSH1 0x4 DUP1 CALLDATASIZE SUB DUP2 ADD SWAP1 PUSH2 0x145 SWAP2 SWAP1 PUSH2 0x1B19 JUMP JUMPDEST PUSH2 0x4F4 JUMP JUMPDEST PUSH1 0x40 MLOAD PUSH2 0x157 SWAP2 SWAP1 PUSH2 0x1B78 JUMP JUMPDEST PUSH1 0x40 MLOAD DUP1 SWAP2 SUB SWAP1 RETURN JUMPDEST PUSH2 0x17A PUSH1 0x4 DUP1 CALLDATASIZE SUB DUP2 ADD SWAP1 PUSH2 0x175 SWAP2 SWAP1 PUSH2 0x1EC5 JUMP JUMPDEST PUSH2 0x509 JUMP JUMPDEST PUSH1 0x40 MLOAD PUSH2 0x187 SWAP2 SWAP1 PUSH2 0x1E4C JUMP JUMPDEST PUSH1 0x40 MLOAD DUP1 SWAP2 SUB SWAP1 RETURN JUMPDEST PUSH2 0x1AA PUSH1 0x4 DUP1 CALLDATASIZE SUB DUP2 ADD SWAP1 PUSH2 0x1A5 SWAP2 SWAP1 PUSH2 0x1B19 JUMP JUMPDEST PUSH2 0x735 JUMP JUMPDEST PUSH1 0x40 MLOAD PUSH2 0x1B7 SWAP2 SWAP1 PUSH2 0x1B78 JUMP JUMPDEST PUSH1 0x40 MLOAD DUP1 SWAP2 SUB SWAP1 RETURN JUMPDEST PUSH2 0x1DA PUSH1 0x4 DUP1 CALLDATASIZE SUB DUP2 ADD SWAP1 PUSH2 0x1D5 SWAP2 SWAP1 PUSH2 0x1F5B JUMP JUMPDEST PUSH2 0x74A JUMP JUMPDEST PUSH1 0x40 MLOAD PUSH2 0x1E8 SWAP3 SWAP2 SWAP1 PUSH2 0x1FF8 JUMP JUMPDEST PUSH1 0x40 MLOAD DUP1 SWAP2 SUB SWAP1 RETURN JUMPDEST PUSH2 0x1F9 PUSH2 0x9A4 JUMP JUMPDEST PUSH1 0x40 MLOAD PUSH2 0x206 SWAP2 SWAP1 PUSH2 0x202E JUMP JUMPDEST PUSH1 0x40 MLOAD DUP1 SWAP2 SUB SWAP1 RETURN JUMPDEST PUSH2 0x229 PUSH1 0x4 DUP1 CALLDATASIZE SUB DUP2 ADD SWAP1 PUSH2 0x224 SWAP2 SWAP1 PUSH2 0x1D3B JUMP JUMPDEST PUSH2 0x9C8 JUMP JUMPDEST PUSH1 0x40 MLOAD PUSH2 0x236 SWAP2 SWAP1 PUSH2 0x1E4C JUMP JUMPDEST PUSH1 0x40 MLOAD DUP1 SWAP2 SUB SWAP1 RETURN JUMPDEST PUSH2 0x259 PUSH1 0x4 DUP1 CALLDATASIZE SUB DUP2 ADD SWAP1 PUSH2 0x254 SWAP2 SWAP1 PUSH2 0x2047 JUMP JUMPDEST PUSH2 0x9FD JUMP JUMPDEST PUSH1 0x40 MLOAD PUSH2 0x268 SWAP4 SWAP3 SWAP2 SWAP1 PUSH2 0x20F8 JUMP JUMPDEST PUSH1 0x40 MLOAD DUP1 SWAP2 SUB SWAP1 RETURN JUMPDEST PUSH0 PUSH2 0x27D DUP5 DUP5 DUP5 PUSH2 0xB2B JUMP JUMPDEST SWAP1 POP SWAP4 SWAP3 POP POP POP JUMP JUMPDEST PUSH1 0x60 PUSH2 0x2B3 PUSH32 0x0 DUP5 DUP5 PUSH2 0xC2B JUMP JUMPDEST SWAP1 POP SWAP3 SWAP2 POP POP JUMP JUMPDEST PUSH1 0x60 DUP2 TIMESTAMP DUP2 LT ISZERO PUSH2 0x301 JUMPI PUSH1 0x40 MLOAD PUSH32 0x8C379A000000000000000000000000000000000000000000000000000000000 DUP2 MSTORE PUSH1 0x4 ADD PUSH2 0x2F8 SWAP1 PUSH2 0x2187 JUMP JUMPDEST PUSH1 0x40 MLOAD DUP1 SWAP2 SUB SWAP1 REVERT JUMPDEST PUSH2 0x36C PUSH32 0x0 DUP10 DUP9 DUP9 DUP1 DUP1 PUSH1 0x20 MUL PUSH1 0x20 ADD PUSH1 0x40 MLOAD SWAP1 DUP2 ADD PUSH1 0x40 MSTORE DUP1 SWAP4 SWAP3 SWAP2 SWAP1 DUP2 DUP2 MSTORE PUSH1 0x20 ADD DUP4 DUP4 PUSH1 0x20 MUL DUP1 DUP3 DUP5 CALLDATACOPY PUSH0 DUP2 DUP5 ADD MSTORE PUSH1 0x1F NOT PUSH1 0x1F DUP3 ADD AND SWAP1 POP DUP1 DUP4 ADD SWAP3 POP POP POP POP POP POP POP PUSH2 0xDC3 JUMP JUMPDEST SWAP2 POP DUP7 DUP3 PUSH1 0x1 DUP5 MLOAD PUSH2 0x37E SWAP2 SWAP1 PUSH2 0x21D2 JUMP JUMPDEST DUP2 MLOAD DUP2 LT PUSH2 0x38F JUMPI PUSH2 0x38E PUSH2 0x2205 JUMP JUMPDEST JUMPDEST PUSH1 0x20 MUL PUSH1 0x20 ADD ADD MLOAD LT ISZERO PUSH2 0x3D8 JUMPI PUSH1 0x40 MLOAD PUSH32 0x8C379A000000000000000000000000000000000000000000000000000000000 DUP2 MSTORE PUSH1 0x4 ADD PUSH2 0x3CF SWAP1 PUSH2 0x22A2 JUMP JUMPDEST PUSH1 0x40 MLOAD DUP1 SWAP2 SUB SWAP1 REVERT JUMPDEST PUSH2 0x49E DUP7 DUP7 PUSH0 DUP2 DUP2 LT PUSH2 0x3EE JUMPI PUSH2 0x3ED PUSH2 0x2205 JUMP JUMPDEST JUMPDEST SWAP1 POP PUSH1 0x20 MUL ADD PUSH1 0x20 DUP2 ADD SWAP1 PUSH2 0x403 SWAP2 SWAP1 PUSH2 0x22C0 JUMP JUMPDEST CALLER PUSH2 0x47E PUSH32 0x0 DUP11 DUP11 PUSH0 DUP2 DUP2 LT PUSH2 0x43B JUMPI PUSH2 0x43A PUSH2 0x2205 JUMP JUMPDEST JUMPDEST SWAP1 POP PUSH1 0x20 MUL ADD PUSH1 0x20 DUP2 ADD SWAP1 PUSH2 0x450 SWAP2 SWAP1 PUSH2 0x22C0 JUMP JUMPDEST DUP12 DUP12 PUSH1 0x1 DUP2 DUP2 LT PUSH2 0x464 JUMPI PUSH2 0x463 PUSH2 0x2205 JUMP JUMPDEST JUMPDEST SWAP1 POP PUSH1 0x20 MUL ADD PUSH1 0x20 DUP2 ADD SWAP1 PUSH2 0x479 SWAP2 SWAP1 PUSH2 0x22C0 JUMP JUMPDEST PUSH2 0xF45 JUMP JUMPDEST DUP6 PUSH0 DUP2 MLOAD DUP2 LT PUSH2 0x491 JUMPI PUSH2 0x490 PUSH2 0x2205 JUMP JUMPDEST JUMPDEST PUSH1 0x20 MUL PUSH1 0x20 ADD ADD MLOAD PUSH2 0xFB4 JUMP JUMPDEST PUSH2 0x4E9 DUP3 DUP8 DUP8 DUP1 DUP1 PUSH1 0x20 MUL PUSH1 0x20 ADD PUSH1 0x40 MLOAD SWAP1 DUP2 ADD PUSH1 0x40 MSTORE DUP1 SWAP4 SWAP3 SWAP2 SWAP1 DUP2 DUP2 MSTORE PUSH1 0x20 ADD DUP4 DUP4 PUSH1 0x20 MUL DUP1 DUP3 DUP5 CALLDATACOPY PUSH0 DUP2 DUP5 ADD MSTORE PUSH1 0x1F NOT PUSH1 0x1F DUP3 ADD AND SWAP1 POP DUP1 DUP4 ADD SWAP3 POP POP POP POP POP POP POP DUP7 PUSH2 0x10E7 JUMP JUMPDEST POP SWAP7 SWAP6 POP POP POP POP POP POP JUMP JUMPDEST PUSH0 PUSH2 0x500 DUP5 DUP5 DUP5 PUSH2 0x132C JUMP JUMPDEST SWAP1 POP SWAP4 SWAP3 POP POP POP JUMP JUMPDEST PUSH1 0x60 DUP2 TIMESTAMP DUP2 LT ISZERO PUSH2 0x54F JUMPI PUSH1 0x40 MLOAD PUSH32 0x8C379A000000000000000000000000000000000000000000000000000000000 DUP2 MSTORE PUSH1 0x4 ADD PUSH2 0x546 SWAP1 PUSH2 0x2187 JUMP JUMPDEST PUSH1 0x40 MLOAD DUP1 SWAP2 SUB SWAP1 REVERT JUMPDEST PUSH2 0x5BA PUSH32 0x0 DUP10 DUP9 DUP9 DUP1 DUP1 PUSH1 0x20 MUL PUSH1 0x20 ADD PUSH1 0x40 MLOAD SWAP1 DUP2 ADD PUSH1 0x40 MSTORE DUP1 SWAP4 SWAP3 SWAP2 SWAP1 DUP2 DUP2 MSTORE PUSH1 0x20 ADD DUP4 DUP4 PUSH1 0x20 MUL DUP1 DUP3 DUP5 CALLDATACOPY PUSH0 DUP2 DUP5 ADD MSTORE PUSH1 0x1F NOT PUSH1 0x1F DUP3 ADD AND SWAP1 POP DUP1 DUP4 ADD SWAP3 POP POP POP POP POP POP POP PUSH2 0xC2B JUMP JUMPDEST SWAP2 POP DUP7 DUP3 PUSH0 DUP2 MLOAD DUP2 LT PUSH2 0x5D0 JUMPI PUSH2 0x5CF PUSH2 0x2205 JUMP JUMPDEST JUMPDEST PUSH1 0x20 MUL PUSH1 0x20 ADD ADD MLOAD GT ISZERO PUSH2 0x619 JUMPI PUSH1 0x40 MLOAD PUSH32 0x8C379A000000000000000000000000000000000000000000000000000000000 DUP2 MSTORE PUSH1 0x4 ADD PUSH2 0x610 SWAP1 PUSH2 0x235B JUMP JUMPDEST PUSH1 0x40 MLOAD DUP1 SWAP2 SUB SWAP1 REVERT JUMPDEST PUSH2 0x6DF DUP7 DUP7 PUSH0 DUP2 DUP2 LT PUSH2 0x62F JUMPI PUSH2 0x62E PUSH2 0x2205 JUMP JUMPDEST JUMPDEST SWAP1 POP PUSH1 0x20 MUL ADD PUSH1 0x20 DUP2 ADD SWAP1 PUSH2 0x644 SWAP2 SWAP1 PUSH2 0x22C0 JUMP JUMPDEST CALLER PUSH2 0x6BF PUSH32 0x0 DUP11 DUP11 PUSH0 DUP2 DUP2 LT PUSH2 0x67C JUMPI PUSH2 0x67B PUSH2 0x2205 JUMP JUMPDEST JUMPDEST SWAP1 POP PUSH1 0x20 MUL ADD PUSH1 0x20 DUP2 ADD SWAP1 PUSH2 0x691 SWAP2 SWAP1 PUSH2 0x22C0 JUMP JUMPDEST DUP12 DUP12 PUSH1 0x1 DUP2 DUP2 LT PUSH2 0x6A5 JUMPI PUSH2 0x6A4 PUSH2 0x2205 JUMP JUMPDEST JUMPDEST SWAP1 POP PUSH1 0x20 MUL ADD PUSH1 0x20 DUP2 ADD SWAP1 PUSH2 0x6BA SWAP2 SWAP1 PUSH2 0x22C0 JUMP JUMPDEST PUSH2 0xF45 JUMP JUMPDEST DUP6 PUSH0 DUP2 MLOAD DUP2 LT PUSH2 0x6D2 JUMPI PUSH2 0x6D1 PUSH2 0x2205 JUMP JUMPDEST JUMPDEST PUSH1 0x20 MUL PUSH1 0x20 ADD ADD MLOAD PUSH2 0xFB4 JUMP JUMPDEST PUSH2 0x72A DUP3 DUP8 DUP8 DUP1 DUP1 PUSH1 0x20 MUL PUSH1 0x20 ADD PUSH1 0x40 MLOAD SWAP1 DUP2 ADD PUSH1 0x40 MSTORE DUP1 SWAP4 SWAP3 SWAP2 SWAP1 DUP2 DUP2 MSTORE PUSH1 0x20 ADD DUP4 DUP4 PUSH1 0x20 MUL DUP1 DUP3 DUP5 CALLDATACOPY PUSH0 DUP2 DUP5 ADD MSTORE PUSH1 0x1F NOT PUSH1 0x1F DUP3 ADD AND SWAP1 POP DUP1 DUP4 ADD SWAP3 POP POP POP POP POP POP POP DUP7 PUSH2 0x10E7 JUMP JUMPDEST POP SWAP7 SWAP6 POP POP POP POP POP POP JUMP JUMPDEST PUSH0 PUSH2 0x741 DUP5 DUP5 DUP5 PUSH2 0x143A JUMP JUMPDEST SWAP1 POP SWAP4 SWAP3 POP POP POP JUMP JUMPDEST PUSH0 DUP1 DUP3 TIMESTAMP DUP2 LT ISZERO PUSH2 0x790 JUMPI PUSH1 0x40 MLOAD PUSH32 0x8C379A000000000000000000000000000000000000000000000000000000000 DUP2 MSTORE PUSH1 0x4 ADD PUSH2 0x787 SWAP1 PUSH2 0x2187 JUMP JUMPDEST PUSH1 0x40 MLOAD DUP1 SWAP2 SUB SWAP1 REVERT JUMPDEST PUSH0 PUSH2 0x7BC PUSH32 0x0 DUP13 DUP13 PUSH2 0xF45 JUMP JUMPDEST SWAP1 POP DUP1 PUSH20 0xFFFFFFFFFFFFFFFFFFFFFFFFFFFFFFFFFFFFFFFF AND PUSH4 0x23B872DD CALLER DUP4 DUP13 PUSH1 0x40 MLOAD DUP5 PUSH4 0xFFFFFFFF AND PUSH1 0xE0 SHL DUP2 MSTORE PUSH1 0x4 ADD PUSH2 0x7FB SWAP4 SWAP3 SWAP2 SWAP1 PUSH2 0x2379 JUMP JUMPDEST PUSH1 0x20 PUSH1 0x40 MLOAD DUP1 DUP4 SUB DUP2 PUSH0 DUP8 GAS CALL ISZERO DUP1 ISZERO PUSH2 0x817 JUMPI RETURNDATASIZE PUSH0 DUP1 RETURNDATACOPY RETURNDATASIZE PUSH0 REVERT JUMPDEST POP POP POP POP PUSH1 0x40 MLOAD RETURNDATASIZE PUSH1 0x1F NOT PUSH1 0x1F DUP3 ADD AND DUP3 ADD DUP1 PUSH1 0x40 MSTORE POP DUP2 ADD SWAP1 PUSH2 0x83B SWAP2 SWAP1 PUSH2 0x23E3 JUMP JUMPDEST POP PUSH0 DUP1 DUP3 PUSH20 0xFFFFFFFFFFFFFFFFFFFFFFFFFFFFFFFFFFFFFFFF AND PUSH4 0x89AFCB44 DUP10 PUSH1 0x40 MLOAD DUP3 PUSH4 0xFFFFFFFF AND PUSH1 0xE0 SHL DUP2 MSTORE PUSH1 0x4 ADD PUSH2 0x877 SWAP2 SWAP1 PUSH2 0x202E JUMP JUMPDEST PUSH1 0x40 DUP1 MLOAD DUP1 DUP4 SUB DUP2 PUSH0 DUP8 GAS CALL ISZERO DUP1 ISZERO PUSH2 0x892 JUMPI RETURNDATASIZE PUSH0 DUP1 RETURNDATACOPY RETURNDATASIZE PUSH0 REVERT JUMPDEST POP POP POP POP PUSH1 0x40 MLOAD RETURNDATASIZE PUSH1 0x1F NOT PUSH1 0x1F DUP3 ADD AND DUP3 ADD DUP1 PUSH1 0x40 MSTORE POP DUP2 ADD SWAP1 PUSH2 0x8B6 SWAP2 SWAP1 PUSH2 0x2422 JUMP JUMPDEST SWAP2 POP SWAP2 POP PUSH0 PUSH2 0x8C5 DUP15 DUP15 PUSH2 0x14F1 JUMP JUMPDEST POP SWAP1 POP DUP1 PUSH20 0xFFFFFFFFFFFFFFFFFFFFFFFFFFFFFFFFFFFFFFFF AND DUP15 PUSH20 0xFFFFFFFFFFFFFFFFFFFFFFFFFFFFFFFFFFFFFFFF AND EQ PUSH2 0x902 JUMPI DUP2 DUP4 PUSH2 0x905 JUMP JUMPDEST DUP3 DUP3 JUMPDEST DUP1 SWAP8 POP DUP2 SWAP9 POP POP POP DUP11 DUP8 LT ISZERO PUSH2 0x950 JUMPI PUSH1 0x40 MLOAD PUSH32 0x8C379A000000000000000000000000000000000000000000000000000000000 DUP2 MSTORE PUSH1 0x4 ADD PUSH2 0x947 SWAP1 PUSH2 0x24D0 JUMP JUMPDEST PUSH1 0x40 MLOAD DUP1 SWAP2 SUB SWAP1 REVERT JUMPDEST DUP10 DUP7 LT ISZERO PUSH2 0x993 JUMPI PUSH1 0x40 MLOAD PUSH32 0x8C379A000000000000000000000000000000000000000000000000000000000 DUP2 MSTORE PUSH1 0x4 ADD PUSH2 0x98A SWAP1 PUSH2 0x255E JUMP JUMPDEST PUSH1 0x40 MLOAD DUP1 SWAP2 SUB SWAP1 REVERT JUMPDEST POP POP POP POP POP SWAP8 POP SWAP8 SWAP6 POP POP POP POP POP POP JUMP JUMPDEST PUSH32 0x0 DUP2 JUMP JUMPDEST PUSH1 0x60 PUSH2 0x9F5 PUSH32 0x0 DUP5 DUP5 PUSH2 0xDC3 JUMP JUMPDEST SWAP1 POP SWAP3 SWAP2 POP POP JUMP JUMPDEST PUSH0 DUP1 PUSH0 DUP4 TIMESTAMP DUP2 LT ISZERO PUSH2 0xA44 JUMPI PUSH1 0x40 MLOAD PUSH32 0x8C379A000000000000000000000000000000000000000000000000000000000 DUP2 MSTORE PUSH1 0x4 ADD PUSH2 0xA3B SWAP1 PUSH2 0x2187 JUMP JUMPDEST PUSH1 0x40 MLOAD DUP1 SWAP2 SUB SWAP1 REVERT JUMPDEST PUSH2 0xA52 DUP13 DUP13 DUP13 DUP13 DUP13 DUP13 PUSH2 0x161B JUMP JUMPDEST DUP1 SWAP5 POP DUP2 SWAP6 POP POP POP PUSH0 PUSH2 0xA86 PUSH32 0x0 DUP15 DUP15 PUSH2 0xF45 JUMP JUMPDEST SWAP1 POP PUSH2 0xA94 DUP14 CALLER DUP4 DUP9 PUSH2 0xFB4 JUMP JUMPDEST PUSH2 0xAA0 DUP13 CALLER DUP4 DUP8 PUSH2 0xFB4 JUMP JUMPDEST DUP1 PUSH20 0xFFFFFFFFFFFFFFFFFFFFFFFFFFFFFFFFFFFFFFFF AND PUSH4 0x6A627842 DUP9 PUSH1 0x40 MLOAD DUP3 PUSH4 0xFFFFFFFF AND PUSH1 0xE0 SHL DUP2 MSTORE PUSH1 0x4 ADD PUSH2 0xAD9 SWAP2 SWAP1 PUSH2 0x202E JUMP JUMPDEST PUSH1 0x20 PUSH1 0x40 MLOAD DUP1 DUP4 SUB DUP2 PUSH0 DUP8 GAS CALL ISZERO DUP1 ISZERO PUSH2 0xAF5 JUMPI RETURNDATASIZE PUSH0 DUP1 RETURNDATACOPY RETURNDATASIZE PUSH0 REVERT JUMPDEST POP POP POP POP PUSH1 0x40 MLOAD RETURNDATASIZE PUSH1 0x1F NOT PUSH1 0x1F DUP3 ADD AND DUP3 ADD DUP1 PUSH1 0x40 MSTORE POP DUP2 ADD SWAP1 PUSH2 0xB19 SWAP2 SWAP1 PUSH2 0x257C JUMP JUMPDEST SWAP3 POP POP POP SWAP9 POP SWAP9 POP SWAP9 SWAP6 POP POP POP POP POP POP JUMP JUMPDEST PUSH0 DUP1 DUP5 GT PUSH2 0xB6E JUMPI PUSH1 0x40 MLOAD PUSH32 0x8C379A000000000000000000000000000000000000000000000000000000000 DUP2 MSTORE PUSH1 0x4 ADD PUSH2 0xB65 SWAP1 PUSH2 0x2617 JUMP JUMPDEST PUSH1 0x40 MLOAD DUP1 SWAP2 SUB SWAP1 REVERT JUMPDEST PUSH0 DUP4 GT DUP1 ISZERO PUSH2 0xB7C JUMPI POP PUSH0 DUP3 GT JUMPDEST PUSH2 0xBBB JUMPI PUSH1 0x40 MLOAD PUSH32 0x8C379A000000000000000000000000000000000000000000000000000000000 DUP2 MSTORE PUSH1 0x4 ADD PUSH2 0xBB2 SWAP1 PUSH2 0x26A5 JUMP JUMPDEST PUSH1 0x40 MLOAD DUP1 SWAP2 SUB SWAP1 REVERT JUMPDEST PUSH0 PUSH2 0xBD1 PUSH2 0x3E5 DUP7 PUSH2 0x18BD SWAP1 SWAP2 SWAP1 PUSH4 0xFFFFFFFF AND JUMP JUMPDEST SWAP1 POP PUSH0 PUSH2 0xBE7 DUP5 DUP4 PUSH2 0x18BD SWAP1 SWAP2 SWAP1 PUSH4 0xFFFFFFFF AND JUMP JUMPDEST SWAP1 POP PUSH0 PUSH2 0xC11 DUP4 PUSH2 0xC03 PUSH2 0x3E8 DUP10 PUSH2 0x18BD SWAP1 SWAP2 SWAP1 PUSH4 0xFFFFFFFF AND JUMP JUMPDEST PUSH2 0x1929 SWAP1 SWAP2 SWAP1 PUSH4 0xFFFFFFFF AND JUMP JUMPDEST SWAP1 POP DUP1 DUP3 PUSH2 0xC1F SWAP2 SWAP1 PUSH2 0x26F0 JUMP JUMPDEST SWAP4 POP POP POP POP SWAP4 SWAP3 POP POP POP JUMP JUMPDEST PUSH1 0x60 PUSH1 0x2 DUP3 MLOAD LT ISZERO PUSH2 0xC72 JUMPI PUSH1 0x40 MLOAD PUSH32 0x8C379A000000000000000000000000000000000000000000000000000000000 DUP2 MSTORE PUSH1 0x4 ADD PUSH2 0xC69 SWAP1 PUSH2 0x276A JUMP JUMPDEST PUSH1 0x40 MLOAD DUP1 SWAP2 SUB SWAP1 REVERT JUMPDEST DUP2 MLOAD PUSH8 0xFFFFFFFFFFFFFFFF DUP2 GT ISZERO PUSH2 0xC8D JUMPI PUSH2 0xC8C PUSH2 0x1BA5 JUMP JUMPDEST JUMPDEST PUSH1 0x40 MLOAD SWAP1 DUP1 DUP3 MSTORE DUP1 PUSH1 0x20 MUL PUSH1 0x20 ADD DUP3 ADD PUSH1 0x40 MSTORE DUP1 ISZERO PUSH2 0xCBB JUMPI DUP2 PUSH1 0x20 ADD PUSH1 0x20 DUP3 MUL DUP1 CALLDATASIZE DUP4 CALLDATACOPY DUP1 DUP3 ADD SWAP2 POP POP SWAP1 POP JUMPDEST POP SWAP1 POP DUP3 DUP2 PUSH1 0x1 DUP4 MLOAD PUSH2 0xCCE SWAP2 SWAP1 PUSH2 0x21D2 JUMP JUMPDEST DUP2 MLOAD DUP2 LT PUSH2 0xCDF JUMPI PUSH2 0xCDE PUSH2 0x2205 JUMP JUMPDEST JUMPDEST PUSH1 0x20 MUL PUSH1 0x20 ADD ADD DUP2 DUP2 MSTORE POP POP PUSH0 PUSH1 0x1 DUP4 MLOAD PUSH2 0xCFA SWAP2 SWAP1 PUSH2 0x21D2 JUMP JUMPDEST SWAP1 POP JUMPDEST PUSH0 DUP2 GT ISZERO PUSH2 0xDBB JUMPI PUSH0 DUP1 PUSH2 0xD52 DUP8 DUP7 PUSH1 0x1 DUP7 PUSH2 0xD19 SWAP2 SWAP1 PUSH2 0x21D2 JUMP JUMPDEST DUP2 MLOAD DUP2 LT PUSH2 0xD2A JUMPI PUSH2 0xD29 PUSH2 0x2205 JUMP JUMPDEST JUMPDEST PUSH1 0x20 MUL PUSH1 0x20 ADD ADD MLOAD DUP8 DUP7 DUP2 MLOAD DUP2 LT PUSH2 0xD45 JUMPI PUSH2 0xD44 PUSH2 0x2205 JUMP JUMPDEST JUMPDEST PUSH1 0x20 MUL PUSH1 0x20 ADD ADD MLOAD PUSH2 0x1981 JUMP JUMPDEST SWAP2 POP SWAP2 POP PUSH2 0xD7B DUP5 DUP5 DUP2 MLOAD DUP2 LT PUSH2 0xD6C JUMPI PUSH2 0xD6B PUSH2 0x2205 JUMP JUMPDEST JUMPDEST PUSH1 0x20 MUL PUSH1 0x20 ADD ADD MLOAD DUP4 DUP4 PUSH2 0x132C JUMP JUMPDEST DUP5 PUSH1 0x1 DUP6 PUSH2 0xD89 SWAP2 SWAP1 PUSH2 0x21D2 JUMP JUMPDEST DUP2 MLOAD DUP2 LT PUSH2 0xD9A JUMPI PUSH2 0xD99 PUSH2 0x2205 JUMP JUMPDEST JUMPDEST PUSH1 0x20 MUL PUSH1 0x20 ADD ADD DUP2 DUP2 MSTORE POP POP POP POP DUP1 DUP1 PUSH2 0xDB3 SWAP1 PUSH2 0x2788 JUMP JUMPDEST SWAP2 POP POP PUSH2 0xCFD JUMP JUMPDEST POP SWAP4 SWAP3 POP POP POP JUMP JUMPDEST PUSH1 0x60 PUSH1 0x2 DUP3 MLOAD LT ISZERO PUSH2 0xE0A JUMPI PUSH1 0x40 MLOAD PUSH32 0x8C379A000000000000000000000000000000000000000000000000000000000 DUP2 MSTORE PUSH1 0x4 ADD PUSH2 0xE01 SWAP1 PUSH2 0x276A JUMP JUMPDEST PUSH1 0x40 MLOAD DUP1 SWAP2 SUB SWAP1 REVERT JUMPDEST DUP2 MLOAD PUSH8 0xFFFFFFFFFFFFFFFF DUP2 GT ISZERO PUSH2 0xE25 JUMPI PUSH2 0xE24 PUSH2 0x1BA5 JUMP JUMPDEST JUMPDEST PUSH1 0x40 MLOAD SWAP1 DUP1 DUP3 MSTORE DUP1 PUSH1 0x20 MUL PUSH1 0x20 ADD DUP3 ADD PUSH1 0x40 MSTORE DUP1 ISZERO PUSH2 0xE53 JUMPI DUP2 PUSH1 0x20 ADD PUSH1 0x20 DUP3 MUL DUP1 CALLDATASIZE DUP4 CALLDATACOPY DUP1 DUP3 ADD SWAP2 POP POP SWAP1 POP JUMPDEST POP SWAP1 POP DUP3 DUP2 PUSH0 DUP2 MLOAD DUP2 LT PUSH2 0xE6A JUMPI PUSH2 0xE69 PUSH2 0x2205 JUMP JUMPDEST JUMPDEST PUSH1 0x20 MUL PUSH1 0x20 ADD ADD DUP2 DUP2 MSTORE POP POP PUSH0 JUMPDEST PUSH1 0x1 DUP4 MLOAD PUSH2 0xE86 SWAP2 SWAP1 PUSH2 0x21D2 JUMP JUMPDEST DUP2 LT ISZERO PUSH2 0xF3D JUMPI PUSH0 DUP1 PUSH2 0xEDA DUP8 DUP7 DUP6 DUP2 MLOAD DUP2 LT PUSH2 0xEA6 JUMPI PUSH2 0xEA5 PUSH2 0x2205 JUMP JUMPDEST JUMPDEST PUSH1 0x20 MUL PUSH1 0x20 ADD ADD MLOAD DUP8 PUSH1 0x1 DUP8 PUSH2 0xEBC SWAP2 SWAP1 PUSH2 0x27AF JUMP JUMPDEST DUP2 MLOAD DUP2 LT PUSH2 0xECD JUMPI PUSH2 0xECC PUSH2 0x2205 JUMP JUMPDEST JUMPDEST PUSH1 0x20 MUL PUSH1 0x20 ADD ADD MLOAD PUSH2 0x1981 JUMP JUMPDEST SWAP2 POP SWAP2 POP PUSH2 0xF03 DUP5 DUP5 DUP2 MLOAD DUP2 LT PUSH2 0xEF4 JUMPI PUSH2 0xEF3 PUSH2 0x2205 JUMP JUMPDEST JUMPDEST PUSH1 0x20 MUL PUSH1 0x20 ADD ADD MLOAD DUP4 DUP4 PUSH2 0xB2B JUMP JUMPDEST DUP5 PUSH1 0x1 DUP6 PUSH2 0xF11 SWAP2 SWAP1 PUSH2 0x27AF JUMP JUMPDEST DUP2 MLOAD DUP2 LT PUSH2 0xF22 JUMPI PUSH2 0xF21 PUSH2 0x2205 JUMP JUMPDEST JUMPDEST PUSH1 0x20 MUL PUSH1 0x20 ADD ADD DUP2 DUP2 MSTORE POP POP POP POP DUP1 DUP1 PUSH1 0x1 ADD SWAP2 POP POP PUSH2 0xE78 JUMP JUMPDEST POP SWAP4 SWAP3 POP POP POP JUMP JUMPDEST PUSH0 DUP1 PUSH0 PUSH2 0xF52 DUP6 DUP6 PUSH2 0x14F1 JUMP JUMPDEST SWAP2 POP SWAP2 POP DUP6 DUP3 DUP3 PUSH1 0x40 MLOAD PUSH1 0x20 ADD PUSH2 0xF6A SWAP3 SWAP2 SWAP1 PUSH2 0x2827 JUMP JUMPDEST PUSH1 0x40 MLOAD PUSH1 0x20 DUP2 DUP4 SUB SUB DUP2 MSTORE SWAP1 PUSH1 0x40 MSTORE DUP1 MLOAD SWAP1 PUSH1 0x20 ADD KECCAK256 PUSH1 0x40 MLOAD PUSH1 0x20 ADD PUSH2 0xF91 SWAP3 SWAP2 SWAP1 PUSH2 0x2919 JUMP JUMPDEST PUSH1 0x40 MLOAD PUSH1 0x20 DUP2 DUP4 SUB SUB DUP2 MSTORE SWAP1 PUSH1 0x40 MSTORE DUP1 MLOAD SWAP1 PUSH1 0x20 ADD KECCAK256 PUSH0 SHR SWAP3 POP POP POP SWAP4 SWAP3 POP POP POP JUMP JUMPDEST PUSH0 DUP1 DUP6 PUSH20 0xFFFFFFFFFFFFFFFFFFFFFFFFFFFFFFFFFFFFFFFF AND PUSH4 0x23B872DD DUP7 DUP7 DUP7 PUSH1 0x40 MLOAD PUSH1 0x24 ADD PUSH2 0xFE7 SWAP4 SWAP3 SWAP2 SWAP1 PUSH2 0x2379 JUMP JUMPDEST PUSH1 0x40 MLOAD PUSH1 0x20 DUP2 DUP4 SUB SUB DUP2 MSTORE SWAP1 PUSH1 0x40 MSTORE SWAP1 PUSH1 0xE0 SHL PUSH1 0x20 DUP3 ADD DUP1 MLOAD PUSH28 0xFFFFFFFFFFFFFFFFFFFFFFFFFFFFFFFFFFFFFFFFFFFFFFFFFFFFFFFF DUP4 DUP2 DUP4 AND OR DUP4 MSTORE POP POP POP POP PUSH1 0x40 MLOAD PUSH2 0x1035 SWAP2 SWAP1 PUSH2 0x29C6 JUMP JUMPDEST PUSH0 PUSH1 0x40 MLOAD DUP1 DUP4 SUB DUP2 PUSH0 DUP7 GAS CALL SWAP2 POP POP RETURNDATASIZE DUP1 PUSH0 DUP2 EQ PUSH2 0x106E JUMPI PUSH1 0x40 MLOAD SWAP2 POP PUSH1 0x1F NOT PUSH1 0x3F RETURNDATASIZE ADD AND DUP3 ADD PUSH1 0x40 MSTORE RETURNDATASIZE DUP3 MSTORE RETURNDATASIZE PUSH0 PUSH1 0x20 DUP5 ADD RETURNDATACOPY PUSH2 0x1073 JUMP JUMPDEST PUSH1 0x60 SWAP2 POP JUMPDEST POP SWAP2 POP SWAP2 POP DUP2 DUP1 ISZERO PUSH2 0x10A0 JUMPI POP PUSH0 DUP2 MLOAD EQ DUP1 PUSH2 0x109F JUMPI POP DUP1 DUP1 PUSH1 0x20 ADD SWAP1 MLOAD DUP2 ADD SWAP1 PUSH2 0x109E SWAP2 SWAP1 PUSH2 0x23E3 JUMP JUMPDEST JUMPDEST JUMPDEST PUSH2 0x10DF JUMPI PUSH1 0x40 MLOAD PUSH32 0x8C379A000000000000000000000000000000000000000000000000000000000 DUP2 MSTORE PUSH1 0x4 ADD PUSH2 0x10D6 SWAP1 PUSH2 0x2A4C JUMP JUMPDEST PUSH1 0x40 MLOAD DUP1 SWAP2 SUB SWAP1 REVERT JUMPDEST POP POP POP POP POP POP JUMP JUMPDEST PUSH0 JUMPDEST PUSH1 0x1 DUP4 MLOAD PUSH2 0x10F7 SWAP2 SWAP1 PUSH2 0x21D2 JUMP JUMPDEST DUP2 LT ISZERO PUSH2 0x1326 JUMPI PUSH0 DUP1 DUP5 DUP4 DUP2 MLOAD DUP2 LT PUSH2 0x1113 JUMPI PUSH2 0x1112 PUSH2 0x2205 JUMP JUMPDEST JUMPDEST PUSH1 0x20 MUL PUSH1 0x20 ADD ADD MLOAD DUP6 PUSH1 0x1 DUP6 PUSH2 0x1129 SWAP2 SWAP1 PUSH2 0x27AF JUMP JUMPDEST DUP2 MLOAD DUP2 LT PUSH2 0x113A JUMPI PUSH2 0x1139 PUSH2 0x2205 JUMP JUMPDEST JUMPDEST PUSH1 0x20 MUL PUSH1 0x20 ADD ADD MLOAD SWAP2 POP SWAP2 POP PUSH0 PUSH2 0x1151 DUP4 DUP4 PUSH2 0x14F1 JUMP JUMPDEST POP SWAP1 POP PUSH0 DUP8 PUSH1 0x1 DUP7 PUSH2 0x1163 SWAP2 SWAP1 PUSH2 0x27AF JUMP JUMPDEST DUP2 MLOAD DUP2 LT PUSH2 0x1174 JUMPI PUSH2 0x1173 PUSH2 0x2205 JUMP JUMPDEST JUMPDEST PUSH1 0x20 MUL PUSH1 0x20 ADD ADD MLOAD SWAP1 POP PUSH0 DUP1 DUP4 PUSH20 0xFFFFFFFFFFFFFFFFFFFFFFFFFFFFFFFFFFFFFFFF AND DUP7 PUSH20 0xFFFFFFFFFFFFFFFFFFFFFFFFFFFFFFFFFFFFFFFF AND EQ PUSH2 0x11BA JUMPI DUP3 PUSH0 PUSH2 0x11BD JUMP JUMPDEST PUSH0 DUP4 JUMPDEST SWAP2 POP SWAP2 POP PUSH0 PUSH1 0x2 DUP11 MLOAD PUSH2 0x11D0 SWAP2 SWAP1 PUSH2 0x21D2 JUMP JUMPDEST DUP9 LT PUSH2 0x11DC JUMPI DUP9 PUSH2 0x122E JUMP JUMPDEST PUSH2 0x122D PUSH32 0x0 DUP8 DUP13 PUSH1 0x2 DUP13 PUSH2 0x120F SWAP2 SWAP1 PUSH2 0x27AF JUMP JUMPDEST DUP2 MLOAD DUP2 LT PUSH2 0x1220 JUMPI PUSH2 0x121F PUSH2 0x2205 JUMP JUMPDEST JUMPDEST PUSH1 0x20 MUL PUSH1 0x20 ADD ADD MLOAD PUSH2 0xF45 JUMP JUMPDEST JUMPDEST SWAP1 POP PUSH2 0x125B PUSH32 0x0 DUP9 DUP9 PUSH2 0xF45 JUMP JUMPDEST PUSH20 0xFFFFFFFFFFFFFFFFFFFFFFFFFFFFFFFFFFFFFFFF AND PUSH4 0x22C0D9F DUP5 DUP5 DUP5 PUSH0 PUSH8 0xFFFFFFFFFFFFFFFF DUP2 GT ISZERO PUSH2 0x1293 JUMPI PUSH2 0x1292 PUSH2 0x1BA5 JUMP JUMPDEST JUMPDEST PUSH1 0x40 MLOAD SWAP1 DUP1 DUP3 MSTORE DUP1 PUSH1 0x1F ADD PUSH1 0x1F NOT AND PUSH1 0x20 ADD DUP3 ADD PUSH1 0x40 MSTORE DUP1 ISZERO PUSH2 0x12C5 JUMPI DUP2 PUSH1 0x20 ADD PUSH1 0x1 DUP3 MUL DUP1 CALLDATASIZE DUP4 CALLDATACOPY DUP1 DUP3 ADD SWAP2 POP POP SWAP1 POP JUMPDEST POP PUSH1 0x40 MLOAD DUP6 PUSH4 0xFFFFFFFF AND PUSH1 0xE0 SHL DUP2 MSTORE PUSH1 0x4 ADD PUSH2 0x12E5 SWAP5 SWAP4 SWAP3 SWAP2 SWAP1 PUSH2 0x2AB2 JUMP JUMPDEST PUSH0 PUSH1 0x40 MLOAD DUP1 DUP4 SUB DUP2 PUSH0 DUP8 DUP1 EXTCODESIZE ISZERO DUP1 ISZERO PUSH2 0x12FC JUMPI PUSH0 DUP1 REVERT JUMPDEST POP GAS CALL ISZERO DUP1 ISZERO PUSH2 0x130E JUMPI RETURNDATASIZE PUSH0 DUP1 RETURNDATACOPY RETURNDATASIZE PUSH0 REVERT JUMPDEST POP POP POP POP POP POP POP POP POP POP POP DUP1 DUP1 PUSH1 0x1 ADD SWAP2 POP POP PUSH2 0x10E9 JUMP JUMPDEST POP POP POP POP JUMP JUMPDEST PUSH0 DUP1 DUP5 GT PUSH2 0x136F JUMPI PUSH1 0x40 MLOAD PUSH32 0x8C379A000000000000000000000000000000000000000000000000000000000 DUP2 MSTORE PUSH1 0x4 ADD PUSH2 0x1366 SWAP1 PUSH2 0x2B6C JUMP JUMPDEST PUSH1 0x40 MLOAD DUP1 SWAP2 SUB SWAP1 REVERT JUMPDEST PUSH0 DUP4 GT DUP1 ISZERO PUSH2 0x137D JUMPI POP PUSH0 DUP3 GT JUMPDEST PUSH2 0x13BC JUMPI PUSH1 0x40 MLOAD PUSH32 0x8C379A000000000000000000000000000000000000000000000000000000000 DUP2 MSTORE PUSH1 0x4 ADD PUSH2 0x13B3 SWAP1 PUSH2 0x26A5 JUMP JUMPDEST PUSH1 0x40 MLOAD DUP1 SWAP2 SUB SWAP1 REVERT JUMPDEST PUSH0 PUSH2 0x13E4 PUSH2 0x3E8 PUSH2 0x13D6 DUP8 DUP8 PUSH2 0x18BD SWAP1 SWAP2 SWAP1 PUSH4 0xFFFFFFFF AND JUMP JUMPDEST PUSH2 0x18BD SWAP1 SWAP2 SWAP1 PUSH4 0xFFFFFFFF AND JUMP JUMPDEST SWAP1 POP PUSH0 PUSH2 0x140E PUSH2 0x3E5 PUSH2 0x1400 DUP9 DUP8 PUSH2 0x1A7D SWAP1 SWAP2 SWAP1 PUSH4 0xFFFFFFFF AND JUMP JUMPDEST PUSH2 0x18BD SWAP1 SWAP2 SWAP1 PUSH4 0xFFFFFFFF AND JUMP JUMPDEST SWAP1 POP PUSH2 0x142F PUSH1 0x1 DUP3 DUP5 PUSH2 0x1421 SWAP2 SWAP1 PUSH2 0x26F0 JUMP JUMPDEST PUSH2 0x1929 SWAP1 SWAP2 SWAP1 PUSH4 0xFFFFFFFF AND JUMP JUMPDEST SWAP3 POP POP POP SWAP4 SWAP3 POP POP POP JUMP JUMPDEST PUSH0 DUP1 DUP5 GT PUSH2 0x147D JUMPI PUSH1 0x40 MLOAD PUSH32 0x8C379A000000000000000000000000000000000000000000000000000000000 DUP2 MSTORE PUSH1 0x4 ADD PUSH2 0x1474 SWAP1 PUSH2 0x2BFA JUMP JUMPDEST PUSH1 0x40 MLOAD DUP1 SWAP2 SUB SWAP1 REVERT JUMPDEST PUSH0 DUP4 GT DUP1 ISZERO PUSH2 0x148B JUMPI POP PUSH0 DUP3 GT JUMPDEST PUSH2 0x14CA JUMPI PUSH1 0x40 MLOAD PUSH32 0x8C379A000000000000000000000000000000000000000000000000000000000 DUP2 MSTORE PUSH1 0x4 ADD PUSH2 0x14C1 SWAP1 PUSH2 0x26A5 JUMP JUMPDEST PUSH1 0x40 MLOAD DUP1 SWAP2 SUB SWAP1 REVERT JUMPDEST DUP3 PUSH2 0x14DE DUP4 DUP7 PUSH2 0x18BD SWAP1 SWAP2 SWAP1 PUSH4 0xFFFFFFFF AND JUMP JUMPDEST PUSH2 0x14E8 SWAP2 SWAP1 PUSH2 0x26F0 JUMP JUMPDEST SWAP1 POP SWAP4 SWAP3 POP POP POP JUMP JUMPDEST PUSH0 DUP1 DUP3 PUSH20 0xFFFFFFFFFFFFFFFFFFFFFFFFFFFFFFFFFFFFFFFF AND DUP5 PUSH20 0xFFFFFFFFFFFFFFFFFFFFFFFFFFFFFFFFFFFFFFFF AND SUB PUSH2 0x1561 JUMPI PUSH1 0x40 MLOAD PUSH32 0x8C379A000000000000000000000000000000000000000000000000000000000 DUP2 MSTORE PUSH1 0x4 ADD PUSH2 0x1558 SWAP1 PUSH2 0x2C88 JUMP JUMPDEST PUSH1 0x40 MLOAD DUP1 SWAP2 SUB SWAP1 REVERT JUMPDEST DUP3 PUSH20 0xFFFFFFFFFFFFFFFFFFFFFFFFFFFFFFFFFFFFFFFF AND DUP5 PUSH20 0xFFFFFFFFFFFFFFFFFFFFFFFFFFFFFFFFFFFFFFFF AND LT PUSH2 0x159B JUMPI DUP3 DUP5 PUSH2 0x159E JUMP JUMPDEST DUP4 DUP4 JUMPDEST DUP1 SWAP3 POP DUP2 SWAP4 POP POP POP PUSH0 PUSH20 0xFFFFFFFFFFFFFFFFFFFFFFFFFFFFFFFFFFFFFFFF AND DUP3 PUSH20 0xFFFFFFFFFFFFFFFFFFFFFFFFFFFFFFFFFFFFFFFF AND SUB PUSH2 0x1614 JUMPI PUSH1 0x40 MLOAD PUSH32 0x8C379A000000000000000000000000000000000000000000000000000000000 DUP2 MSTORE PUSH1 0x4 ADD PUSH2 0x160B SWAP1 PUSH2 0x2CF0 JUMP JUMPDEST PUSH1 0x40 MLOAD DUP1 SWAP2 SUB SWAP1 REVERT JUMPDEST SWAP3 POP SWAP3 SWAP1 POP JUMP JUMPDEST PUSH0 DUP1 PUSH0 PUSH20 0xFFFFFFFFFFFFFFFFFFFFFFFFFFFFFFFFFFFFFFFF AND PUSH32 0x0 PUSH20 0xFFFFFFFFFFFFFFFFFFFFFFFFFFFFFFFFFFFFFFFF AND PUSH4 0xE6A43905 DUP11 DUP11 PUSH1 0x40 MLOAD DUP4 PUSH4 0xFFFFFFFF AND PUSH1 0xE0 SHL DUP2 MSTORE PUSH1 0x4 ADD PUSH2 0x168F SWAP3 SWAP2 SWAP1 PUSH2 0x2D0E JUMP JUMPDEST PUSH1 0x20 PUSH1 0x40 MLOAD DUP1 DUP4 SUB DUP2 DUP7 GAS STATICCALL ISZERO DUP1 ISZERO PUSH2 0x16AA JUMPI RETURNDATASIZE PUSH0 DUP1 RETURNDATACOPY RETURNDATASIZE PUSH0 REVERT JUMPDEST POP POP POP POP PUSH1 0x40 MLOAD RETURNDATASIZE PUSH1 0x1F NOT PUSH1 0x1F DUP3 ADD AND DUP3 ADD DUP1 PUSH1 0x40 MSTORE POP DUP2 ADD SWAP1 PUSH2 0x16CE SWAP2 SWAP1 PUSH2 0x2D49 JUMP JUMPDEST PUSH20 0xFFFFFFFFFFFFFFFFFFFFFFFFFFFFFFFFFFFFFFFF AND SUB PUSH2 0x1786 JUMPI PUSH32 0x0 PUSH20 0xFFFFFFFFFFFFFFFFFFFFFFFFFFFFFFFFFFFFFFFF AND PUSH4 0xC9C65396 DUP10 DUP10 PUSH1 0x40 MLOAD DUP4 PUSH4 0xFFFFFFFF AND PUSH1 0xE0 SHL DUP2 MSTORE PUSH1 0x4 ADD PUSH2 0x1744 SWAP3 SWAP2 SWAP1 PUSH2 0x2D0E JUMP JUMPDEST PUSH1 0x20 PUSH1 0x40 MLOAD DUP1 DUP4 SUB DUP2 PUSH0 DUP8 GAS CALL ISZERO DUP1 ISZERO PUSH2 0x1760 JUMPI RETURNDATASIZE PUSH0 DUP1 RETURNDATACOPY RETURNDATASIZE PUSH0 REVERT JUMPDEST POP POP POP POP PUSH1 0x40 MLOAD RETURNDATASIZE PUSH1 0x1F NOT PUSH1 0x1F DUP3 ADD AND DUP3 ADD DUP1 PUSH1 0x40 MSTORE POP DUP2 ADD SWAP1 PUSH2 0x1784 SWAP2 SWAP1 PUSH2 0x2D49 JUMP JUMPDEST POP JUMPDEST PUSH0 DUP1 PUSH2 0x17B3 PUSH32 0x0 DUP12 DUP12 PUSH2 0x1981 JUMP JUMPDEST SWAP2 POP SWAP2 POP PUSH0 DUP3 EQ DUP1 ISZERO PUSH2 0x17C5 JUMPI POP PUSH0 DUP2 EQ JUMPDEST ISZERO PUSH2 0x17D9 JUMPI DUP8 DUP8 DUP1 SWAP5 POP DUP2 SWAP6 POP POP POP PUSH2 0x18B0 JUMP JUMPDEST PUSH0 PUSH2 0x17E5 DUP10 DUP5 DUP5 PUSH2 0x143A JUMP JUMPDEST SWAP1 POP DUP8 DUP2 GT PUSH2 0x1840 JUMPI DUP6 DUP2 LT ISZERO PUSH2 0x1831 JUMPI PUSH1 0x40 MLOAD PUSH32 0x8C379A000000000000000000000000000000000000000000000000000000000 DUP2 MSTORE PUSH1 0x4 ADD PUSH2 0x1828 SWAP1 PUSH2 0x255E JUMP JUMPDEST PUSH1 0x40 MLOAD DUP1 SWAP2 SUB SWAP1 REVERT JUMPDEST DUP9 DUP2 DUP1 SWAP6 POP DUP2 SWAP7 POP POP POP PUSH2 0x18AE JUMP JUMPDEST PUSH0 PUSH2 0x184C DUP10 DUP5 DUP7 PUSH2 0x143A JUMP JUMPDEST SWAP1 POP DUP10 DUP2 GT ISZERO PUSH2 0x185F JUMPI PUSH2 0x185E PUSH2 0x2D74 JUMP JUMPDEST JUMPDEST DUP8 DUP2 LT ISZERO PUSH2 0x18A2 JUMPI PUSH1 0x40 MLOAD PUSH32 0x8C379A000000000000000000000000000000000000000000000000000000000 DUP2 MSTORE PUSH1 0x4 ADD PUSH2 0x1899 SWAP1 PUSH2 0x24D0 JUMP JUMPDEST PUSH1 0x40 MLOAD DUP1 SWAP2 SUB SWAP1 REVERT JUMPDEST DUP1 DUP10 DUP1 SWAP7 POP DUP2 SWAP8 POP POP POP POP JUMPDEST POP JUMPDEST POP POP SWAP7 POP SWAP7 SWAP5 POP POP POP POP POP JUMP JUMPDEST PUSH0 DUP1 DUP3 EQ DUP1 PUSH2 0x18E4 JUMPI POP DUP3 DUP3 DUP4 DUP6 PUSH2 0x18D5 SWAP2 SWAP1 PUSH2 0x2DA1 JUMP JUMPDEST SWAP3 POP DUP3 PUSH2 0x18E2 SWAP2 SWAP1 PUSH2 0x26F0 JUMP JUMPDEST EQ JUMPDEST PUSH2 0x1923 JUMPI PUSH1 0x40 MLOAD PUSH32 0x8C379A000000000000000000000000000000000000000000000000000000000 DUP2 MSTORE PUSH1 0x4 ADD PUSH2 0x191A SWAP1 PUSH2 0x2E2C JUMP JUMPDEST PUSH1 0x40 MLOAD DUP1 SWAP2 SUB SWAP1 REVERT JUMPDEST SWAP3 SWAP2 POP POP JUMP JUMPDEST PUSH0 DUP3 DUP3 DUP5 PUSH2 0x1937 SWAP2 SWAP1 PUSH2 0x27AF JUMP JUMPDEST SWAP2 POP DUP2 LT ISZERO PUSH2 0x197B JUMPI PUSH1 0x40 MLOAD PUSH32 0x8C379A000000000000000000000000000000000000000000000000000000000 DUP2 MSTORE PUSH1 0x4 ADD PUSH2 0x1972 SWAP1 PUSH2 0x2E94 JUMP JUMPDEST PUSH1 0x40 MLOAD DUP1 SWAP2 SUB SWAP1 REVERT JUMPDEST SWAP3 SWAP2 POP POP JUMP JUMPDEST PUSH0 DUP1 PUSH0 PUSH2 0x198E DUP6 DUP6 PUSH2 0x14F1 JUMP JUMPDEST POP SWAP1 POP PUSH0 DUP1 PUSH2 0x199E DUP9 DUP9 DUP9 PUSH2 0xF45 JUMP JUMPDEST PUSH20 0xFFFFFFFFFFFFFFFFFFFFFFFFFFFFFFFFFFFFFFFF AND PUSH4 0x902F1AC PUSH1 0x40 MLOAD DUP2 PUSH4 0xFFFFFFFF AND PUSH1 0xE0 SHL DUP2 MSTORE PUSH1 0x4 ADD PUSH1 0x40 DUP1 MLOAD DUP1 DUP4 SUB DUP2 DUP7 GAS STATICCALL ISZERO DUP1 ISZERO PUSH2 0x19E5 JUMPI RETURNDATASIZE PUSH0 DUP1 RETURNDATACOPY RETURNDATASIZE PUSH0 REVERT JUMPDEST POP POP POP POP PUSH1 0x40 MLOAD RETURNDATASIZE PUSH1 0x1F NOT PUSH1 0x1F DUP3 ADD AND DUP3 ADD DUP1 PUSH1 0x40 MSTORE POP DUP2 ADD SWAP1 PUSH2 0x1A09 SWAP2 SWAP1 PUSH2 0x2EF5 JUMP JUMPDEST PUSH14 0xFFFFFFFFFFFFFFFFFFFFFFFFFFFF AND SWAP2 POP PUSH14 0xFFFFFFFFFFFFFFFFFFFFFFFFFFFF AND SWAP2 POP DUP3 PUSH20 0xFFFFFFFFFFFFFFFFFFFFFFFFFFFFFFFFFFFFFFFF AND DUP8 PUSH20 0xFFFFFFFFFFFFFFFFFFFFFFFFFFFFFFFFFFFFFFFF AND EQ PUSH2 0x1A67 JUMPI DUP1 DUP3 PUSH2 0x1A6A JUMP JUMPDEST DUP2 DUP2 JUMPDEST DUP1 SWAP6 POP DUP2 SWAP7 POP POP POP POP POP POP SWAP4 POP SWAP4 SWAP2 POP POP JUMP JUMPDEST PUSH0 DUP3 DUP3 DUP5 PUSH2 0x1A8B SWAP2 SWAP1 PUSH2 0x21D2 JUMP JUMPDEST SWAP2 POP DUP2 GT ISZERO PUSH2 0x1ACF JUMPI PUSH1 0x40 MLOAD PUSH32 0x8C379A000000000000000000000000000000000000000000000000000000000 DUP2 MSTORE PUSH1 0x4 ADD PUSH2 0x1AC6 SWAP1 PUSH2 0x2F7D JUMP JUMPDEST PUSH1 0x40 MLOAD DUP1 SWAP2 SUB SWAP1 REVERT JUMPDEST SWAP3 SWAP2 POP POP JUMP JUMPDEST PUSH0 PUSH1 0x40 MLOAD SWAP1 POP SWAP1 JUMP JUMPDEST PUSH0 DUP1 REVERT JUMPDEST PUSH0 DUP1 REVERT JUMPDEST PUSH0 DUP2 SWAP1 POP SWAP2 SWAP1 POP JUMP JUMPDEST PUSH2 0x1AF8 DUP2 PUSH2 0x1AE6 JUMP JUMPDEST DUP2 EQ PUSH2 0x1B02 JUMPI PUSH0 DUP1 REVERT JUMPDEST POP JUMP JUMPDEST PUSH0 DUP2 CALLDATALOAD SWAP1 POP PUSH2 0x1B13 DUP2 PUSH2 0x1AEF JUMP JUMPDEST SWAP3 SWAP2 POP POP JUMP JUMPDEST PUSH0 DUP1 PUSH0 PUSH1 0x60 DUP5 DUP7 SUB SLT ISZERO PUSH2 0x1B30 JUMPI PUSH2 0x1B2F PUSH2 0x1ADE JUMP JUMPDEST JUMPDEST PUSH0 PUSH2 0x1B3D DUP7 DUP3 DUP8 ADD PUSH2 0x1B05 JUMP JUMPDEST SWAP4 POP POP PUSH1 0x20 PUSH2 0x1B4E DUP7 DUP3 DUP8 ADD PUSH2 0x1B05 JUMP JUMPDEST SWAP3 POP POP PUSH1 0x40 PUSH2 0x1B5F DUP7 DUP3 DUP8 ADD PUSH2 0x1B05 JUMP JUMPDEST SWAP2 POP POP SWAP3 POP SWAP3 POP SWAP3 JUMP JUMPDEST PUSH2 0x1B72 DUP2 PUSH2 0x1AE6 JUMP JUMPDEST DUP3 MSTORE POP POP JUMP JUMPDEST PUSH0 PUSH1 0x20 DUP3 ADD SWAP1 POP PUSH2 0x1B8B PUSH0 DUP4 ADD DUP5 PUSH2 0x1B69 JUMP JUMPDEST SWAP3 SWAP2 POP POP JUMP JUMPDEST PUSH0 DUP1 REVERT JUMPDEST PUSH0 PUSH1 0x1F NOT PUSH1 0x1F DUP4 ADD AND SWAP1 POP SWAP2 SWAP1 POP JUMP JUMPDEST PUSH32 0x4E487B7100000000000000000000000000000000000000000000000000000000 PUSH0 MSTORE PUSH1 0x41 PUSH1 0x4 MSTORE PUSH1 0x24 PUSH0 REVERT JUMPDEST PUSH2 0x1BDB DUP3 PUSH2 0x1B95 JUMP JUMPDEST DUP2 ADD DUP2 DUP2 LT PUSH8 0xFFFFFFFFFFFFFFFF DUP3 GT OR ISZERO PUSH2 0x1BFA JUMPI PUSH2 0x1BF9 PUSH2 0x1BA5 JUMP JUMPDEST JUMPDEST DUP1 PUSH1 0x40 MSTORE POP POP POP JUMP JUMPDEST PUSH0 PUSH2 0x1C0C PUSH2 0x1AD5 JUMP JUMPDEST SWAP1 POP PUSH2 0x1C18 DUP3 DUP3 PUSH2 0x1BD2 JUMP JUMPDEST SWAP2 SWAP1 POP JUMP JUMPDEST PUSH0 PUSH8 0xFFFFFFFFFFFFFFFF DUP3 GT ISZERO PUSH2 0x1C37 JUMPI PUSH2 0x1C36 PUSH2 0x1BA5 JUMP JUMPDEST JUMPDEST PUSH1 0x20 DUP3 MUL SWAP1 POP PUSH1 0x20 DUP2 ADD SWAP1 POP SWAP2 SWAP1 POP JUMP JUMPDEST PUSH0 DUP1 REVERT JUMPDEST PUSH0 PUSH20 0xFFFFFFFFFFFFFFFFFFFFFFFFFFFFFFFFFFFFFFFF DUP3 AND SWAP1 POP SWAP2 SWAP1 POP JUMP JUMPDEST PUSH0 PUSH2 0x1C75 DUP3 PUSH2 0x1C4C JUMP JUMPDEST SWAP1 POP SWAP2 SWAP1 POP JUMP JUMPDEST PUSH2 0x1C85 DUP2 PUSH2 0x1C6B JUMP JUMPDEST DUP2 EQ PUSH2 0x1C8F JUMPI PUSH0 DUP1 REVERT JUMPDEST POP JUMP JUMPDEST PUSH0 DUP2 CALLDATALOAD SWAP1 POP PUSH2 0x1CA0 DUP2 PUSH2 0x1C7C JUMP JUMPDEST SWAP3 SWAP2 POP POP JUMP JUMPDEST PUSH0 PUSH2 0x1CB8 PUSH2 0x1CB3 DUP5 PUSH2 0x1C1D JUMP JUMPDEST PUSH2 0x1C03 JUMP JUMPDEST SWAP1 POP DUP1 DUP4 DUP3 MSTORE PUSH1 0x20 DUP3 ADD SWAP1 POP PUSH1 0x20 DUP5 MUL DUP4 ADD DUP6 DUP2 GT ISZERO PUSH2 0x1CDB JUMPI PUSH2 0x1CDA PUSH2 0x1C48 JUMP JUMPDEST JUMPDEST DUP4 JUMPDEST DUP2 DUP2 LT ISZERO PUSH2 0x1D04 JUMPI DUP1 PUSH2 0x1CF0 DUP9 DUP3 PUSH2 0x1C92 JUMP JUMPDEST DUP5 MSTORE PUSH1 0x20 DUP5 ADD SWAP4 POP POP PUSH1 0x20 DUP2 ADD SWAP1 POP PUSH2 0x1CDD JUMP JUMPDEST POP POP POP SWAP4 SWAP3 POP POP POP JUMP JUMPDEST PUSH0 DUP3 PUSH1 0x1F DUP4 ADD SLT PUSH2 0x1D22 JUMPI PUSH2 0x1D21 PUSH2 0x1B91 JUMP JUMPDEST JUMPDEST DUP2 CALLDATALOAD PUSH2 0x1D32 DUP5 DUP3 PUSH1 0x20 DUP7 ADD PUSH2 0x1CA6 JUMP JUMPDEST SWAP2 POP POP SWAP3 SWAP2 POP POP JUMP JUMPDEST PUSH0 DUP1 PUSH1 0x40 DUP4 DUP6 SUB SLT ISZERO PUSH2 0x1D51 JUMPI PUSH2 0x1D50 PUSH2 0x1ADE JUMP JUMPDEST JUMPDEST PUSH0 PUSH2 0x1D5E DUP6 DUP3 DUP7 ADD PUSH2 0x1B05 JUMP JUMPDEST SWAP3 POP POP PUSH1 0x20 DUP4 ADD CALLDATALOAD PUSH8 0xFFFFFFFFFFFFFFFF DUP2 GT ISZERO PUSH2 0x1D7F JUMPI PUSH2 0x1D7E PUSH2 0x1AE2 JUMP JUMPDEST JUMPDEST PUSH2 0x1D8B DUP6 DUP3 DUP7 ADD PUSH2 0x1D0E JUMP JUMPDEST SWAP2 POP POP SWAP3 POP SWAP3 SWAP1 POP JUMP JUMPDEST PUSH0 DUP2 MLOAD SWAP1 POP SWAP2 SWAP1 POP JUMP JUMPDEST PUSH0 DUP3 DUP3 MSTORE PUSH1 0x20 DUP3 ADD SWAP1 POP SWAP3 SWAP2 POP POP JUMP JUMPDEST PUSH0 DUP2 SWAP1 POP PUSH1 0x20 DUP3 ADD SWAP1 POP SWAP2 SWAP1 POP JUMP JUMPDEST PUSH2 0x1DC7 DUP2 PUSH2 0x1AE6 JUMP JUMPDEST DUP3 MSTORE POP POP JUMP JUMPDEST PUSH0 PUSH2 0x1DD8 DUP4 DUP4 PUSH2 0x1DBE JUMP JUMPDEST PUSH1 0x20 DUP4 ADD SWAP1 POP SWAP3 SWAP2 POP POP JUMP JUMPDEST PUSH0 PUSH1 0x20 DUP3 ADD SWAP1 POP SWAP2 SWAP1 POP JUMP JUMPDEST PUSH0 PUSH2 0x1DFA DUP3 PUSH2 0x1D95 JUMP JUMPDEST PUSH2 0x1E04 DUP2 DUP6 PUSH2 0x1D9F JUMP JUMPDEST SWAP4 POP PUSH2 0x1E0F DUP4 PUSH2 0x1DAF JUMP JUMPDEST DUP1 PUSH0 JUMPDEST DUP4 DUP2 LT ISZERO PUSH2 0x1E3F JUMPI DUP2 MLOAD PUSH2 0x1E26 DUP9 DUP3 PUSH2 0x1DCD JUMP JUMPDEST SWAP8 POP PUSH2 0x1E31 DUP4 PUSH2 0x1DE4 JUMP JUMPDEST SWAP3 POP POP PUSH1 0x1 DUP2 ADD SWAP1 POP PUSH2 0x1E12 JUMP JUMPDEST POP DUP6 SWAP4 POP POP POP POP SWAP3 SWAP2 POP POP JUMP JUMPDEST PUSH0 PUSH1 0x20 DUP3 ADD SWAP1 POP DUP2 DUP2 SUB PUSH0 DUP4 ADD MSTORE PUSH2 0x1E64 DUP2 DUP5 PUSH2 0x1DF0 JUMP JUMPDEST SWAP1 POP SWAP3 SWAP2 POP POP JUMP JUMPDEST PUSH0 DUP1 REVERT JUMPDEST PUSH0 DUP1 DUP4 PUSH1 0x1F DUP5 ADD SLT PUSH2 0x1E85 JUMPI PUSH2 0x1E84 PUSH2 0x1B91 JUMP JUMPDEST JUMPDEST DUP3 CALLDATALOAD SWAP1 POP PUSH8 0xFFFFFFFFFFFFFFFF DUP2 GT ISZERO PUSH2 0x1EA2 JUMPI PUSH2 0x1EA1 PUSH2 0x1E6C JUMP JUMPDEST JUMPDEST PUSH1 0x20 DUP4 ADD SWAP2 POP DUP4 PUSH1 0x20 DUP3 MUL DUP4 ADD GT ISZERO PUSH2 0x1EBE JUMPI PUSH2 0x1EBD PUSH2 0x1C48 JUMP JUMPDEST JUMPDEST SWAP3 POP SWAP3 SWAP1 POP JUMP JUMPDEST PUSH0 DUP1 PUSH0 DUP1 PUSH0 DUP1 PUSH1 0xA0 DUP8 DUP10 SUB SLT ISZERO PUSH2 0x1EDF JUMPI PUSH2 0x1EDE PUSH2 0x1ADE JUMP JUMPDEST JUMPDEST PUSH0 PUSH2 0x1EEC DUP10 DUP3 DUP11 ADD PUSH2 0x1B05 JUMP JUMPDEST SWAP7 POP POP PUSH1 0x20 PUSH2 0x1EFD DUP10 DUP3 DUP11 ADD PUSH2 0x1B05 JUMP JUMPDEST SWAP6 POP POP PUSH1 0x40 DUP8 ADD CALLDATALOAD PUSH8 0xFFFFFFFFFFFFFFFF DUP2 GT ISZERO PUSH2 0x1F1E JUMPI PUSH2 0x1F1D PUSH2 0x1AE2 JUMP JUMPDEST JUMPDEST PUSH2 0x1F2A DUP10 DUP3 DUP11 ADD PUSH2 0x1E70 JUMP JUMPDEST SWAP5 POP SWAP5 POP POP PUSH1 0x60 PUSH2 0x1F3D DUP10 DUP3 DUP11 ADD PUSH2 0x1C92 JUMP JUMPDEST SWAP3 POP POP PUSH1 0x80 PUSH2 0x1F4E DUP10 DUP3 DUP11 ADD PUSH2 0x1B05 JUMP JUMPDEST SWAP2 POP POP SWAP3 SWAP6 POP SWAP3 SWAP6 POP SWAP3 SWAP6 JUMP JUMPDEST PUSH0 DUP1 PUSH0 DUP1 PUSH0 DUP1 PUSH0 PUSH1 0xE0 DUP9 DUP11 SUB SLT ISZERO PUSH2 0x1F76 JUMPI PUSH2 0x1F75 PUSH2 0x1ADE JUMP JUMPDEST JUMPDEST PUSH0 PUSH2 0x1F83 DUP11 DUP3 DUP12 ADD PUSH2 0x1C92 JUMP JUMPDEST SWAP8 POP POP PUSH1 0x20 PUSH2 0x1F94 DUP11 DUP3 DUP12 ADD PUSH2 0x1C92 JUMP JUMPDEST SWAP7 POP POP PUSH1 0x40 PUSH2 0x1FA5 DUP11 DUP3 DUP12 ADD PUSH2 0x1B05 JUMP JUMPDEST SWAP6 POP POP PUSH1 0x60 PUSH2 0x1FB6 DUP11 DUP3 DUP12 ADD PUSH2 0x1B05 JUMP JUMPDEST SWAP5 POP POP PUSH1 0x80 PUSH2 0x1FC7 DUP11 DUP3 DUP12 ADD PUSH2 0x1B05 JUMP JUMPDEST SWAP4 POP POP PUSH1 0xA0 PUSH2 0x1FD8 DUP11 DUP3 DUP12 ADD PUSH2 0x1C92 JUMP JUMPDEST SWAP3 POP POP PUSH1 0xC0 PUSH2 0x1FE9 DUP11 DUP3 DUP12 ADD PUSH2 0x1B05 JUMP JUMPDEST SWAP2 POP POP SWAP3 SWAP6 SWAP9 SWAP2 SWAP5 SWAP8 POP SWAP3 SWAP6 POP JUMP JUMPDEST PUSH0 PUSH1 0x40 DUP3 ADD SWAP1 POP PUSH2 0x200B PUSH0 DUP4 ADD DUP6 PUSH2 0x1B69 JUMP JUMPDEST PUSH2 0x2018 PUSH1 0x20 DUP4 ADD DUP5 PUSH2 0x1B69 JUMP JUMPDEST SWAP4 SWAP3 POP POP POP JUMP JUMPDEST PUSH2 0x2028 DUP2 PUSH2 0x1C6B JUMP JUMPDEST DUP3 MSTORE POP POP JUMP JUMPDEST PUSH0 PUSH1 0x20 DUP3 ADD SWAP1 POP PUSH2 0x2041 PUSH0 DUP4 ADD DUP5 PUSH2 0x201F JUMP JUMPDEST SWAP3 SWAP2 POP POP JUMP JUMPDEST PUSH0 DUP1 PUSH0 DUP1 PUSH0 DUP1 PUSH0 DUP1 PUSH2 0x100 DUP10 DUP12 SUB SLT ISZERO PUSH2 0x2064 JUMPI PUSH2 0x2063 PUSH2 0x1ADE JUMP JUMPDEST JUMPDEST PUSH0 PUSH2 0x2071 DUP12 DUP3 DUP13 ADD PUSH2 0x1C92 JUMP JUMPDEST SWAP9 POP POP PUSH1 0x20 PUSH2 0x2082 DUP12 DUP3 DUP13 ADD PUSH2 0x1C92 JUMP JUMPDEST SWAP8 POP POP PUSH1 0x40 PUSH2 0x2093 DUP12 DUP3 DUP13 ADD PUSH2 0x1B05 JUMP JUMPDEST SWAP7 POP POP PUSH1 0x60 PUSH2 0x20A4 DUP12 DUP3 DUP13 ADD PUSH2 0x1B05 JUMP JUMPDEST SWAP6 POP POP PUSH1 0x80 PUSH2 0x20B5 DUP12 DUP3 DUP13 ADD PUSH2 0x1B05 JUMP JUMPDEST SWAP5 POP POP PUSH1 0xA0 PUSH2 0x20C6 DUP12 DUP3 DUP13 ADD PUSH2 0x1B05 JUMP JUMPDEST SWAP4 POP POP PUSH1 0xC0 PUSH2 0x20D7 DUP12 DUP3 DUP13 ADD PUSH2 0x1C92 JUMP JUMPDEST SWAP3 POP POP PUSH1 0xE0 PUSH2 0x20E8 DUP12 DUP3 DUP13 ADD PUSH2 0x1B05 JUMP JUMPDEST SWAP2 POP POP SWAP3 SWAP6 SWAP9 POP SWAP3 SWAP6 SWAP9 SWAP1 SWAP4 SWAP7 POP JUMP JUMPDEST PUSH0 PUSH1 0x60 DUP3 ADD SWAP1 POP PUSH2 0x210B PUSH0 DUP4 ADD DUP7 PUSH2 0x1B69 JUMP JUMPDEST PUSH2 0x2118 PUSH1 0x20 DUP4 ADD DUP6 PUSH2 0x1B69 JUMP JUMPDEST PUSH2 0x2125 PUSH1 0x40 DUP4 ADD DUP5 PUSH2 0x1B69 JUMP JUMPDEST SWAP5 SWAP4 POP POP POP POP JUMP JUMPDEST PUSH0 DUP3 DUP3 MSTORE PUSH1 0x20 DUP3 ADD SWAP1 POP SWAP3 SWAP2 POP POP JUMP JUMPDEST PUSH32 0x556E69737761705632526F757465723A20455850495245440000000000000000 PUSH0 DUP3 ADD MSTORE POP JUMP JUMPDEST PUSH0 PUSH2 0x2171 PUSH1 0x18 DUP4 PUSH2 0x212D JUMP JUMPDEST SWAP2 POP PUSH2 0x217C DUP3 PUSH2 0x213D JUMP JUMPDEST PUSH1 0x20 DUP3 ADD SWAP1 POP SWAP2 SWAP1 POP JUMP JUMPDEST PUSH0 PUSH1 0x20 DUP3 ADD SWAP1 POP DUP2 DUP2 SUB PUSH0 DUP4 ADD MSTORE PUSH2 0x219E DUP2 PUSH2 0x2165 JUMP JUMPDEST SWAP1 POP SWAP2 SWAP1 POP JUMP JUMPDEST PUSH32 0x4E487B7100000000000000000000000000000000000000000000000000000000 PUSH0 MSTORE PUSH1 0x11 PUSH1 0x4 MSTORE PUSH1 0x24 PUSH0 REVERT JUMPDEST PUSH0 PUSH2 0x21DC DUP3 PUSH2 0x1AE6 JUMP JUMPDEST SWAP2 POP PUSH2 0x21E7 DUP4 PUSH2 0x1AE6 JUMP JUMPDEST SWAP3 POP DUP3 DUP3 SUB SWAP1 POP DUP2 DUP2 GT ISZERO PUSH2 0x21FF JUMPI PUSH2 0x21FE PUSH2 0x21A5 JUMP JUMPDEST JUMPDEST SWAP3 SWAP2 POP POP JUMP JUMPDEST PUSH32 0x4E487B7100000000000000000000000000000000000000000000000000000000 PUSH0 MSTORE PUSH1 0x32 PUSH1 0x4 MSTORE PUSH1 0x24 PUSH0 REVERT JUMPDEST PUSH32 0x556E69737761705632526F757465723A20494E53554646494349454E545F4F55 PUSH0 DUP3 ADD MSTORE PUSH32 0x545055545F414D4F554E54000000000000000000000000000000000000000000 PUSH1 0x20 DUP3 ADD MSTORE POP JUMP JUMPDEST PUSH0 PUSH2 0x228C PUSH1 0x2B DUP4 PUSH2 0x212D JUMP JUMPDEST SWAP2 POP PUSH2 0x2297 DUP3 PUSH2 0x2232 JUMP JUMPDEST PUSH1 0x40 DUP3 ADD SWAP1 POP SWAP2 SWAP1 POP JUMP JUMPDEST PUSH0 PUSH1 0x20 DUP3 ADD SWAP1 POP DUP2 DUP2 SUB PUSH0 DUP4 ADD MSTORE PUSH2 0x22B9 DUP2 PUSH2 0x2280 JUMP JUMPDEST SWAP1 POP SWAP2 SWAP1 POP JUMP JUMPDEST PUSH0 PUSH1 0x20 DUP3 DUP5 SUB SLT ISZERO PUSH2 0x22D5 JUMPI PUSH2 0x22D4 PUSH2 0x1ADE JUMP JUMPDEST JUMPDEST PUSH0 PUSH2 0x22E2 DUP5 DUP3 DUP6 ADD PUSH2 0x1C92 JUMP JUMPDEST SWAP2 POP POP SWAP3 SWAP2 POP POP JUMP JUMPDEST PUSH32 0x556E69737761705632526F757465723A204558434553534956455F494E505554 PUSH0 DUP3 ADD MSTORE PUSH32 0x5F414D4F554E5400000000000000000000000000000000000000000000000000 PUSH1 0x20 DUP3 ADD MSTORE POP JUMP JUMPDEST PUSH0 PUSH2 0x2345 PUSH1 0x27 DUP4 PUSH2 0x212D JUMP JUMPDEST SWAP2 POP PUSH2 0x2350 DUP3 PUSH2 0x22EB JUMP JUMPDEST PUSH1 0x40 DUP3 ADD SWAP1 POP SWAP2 SWAP1 POP JUMP JUMPDEST PUSH0 PUSH1 0x20 DUP3 ADD SWAP1 POP DUP2 DUP2 SUB PUSH0 DUP4 ADD MSTORE PUSH2 0x2372 DUP2 PUSH2 0x2339 JUMP JUMPDEST SWAP1 POP SWAP2 SWAP1 POP JUMP JUMPDEST PUSH0 PUSH1 0x60 DUP3 ADD SWAP1 POP PUSH2 0x238C PUSH0 DUP4 ADD DUP7 PUSH2 0x201F JUMP JUMPDEST PUSH2 0x2399 PUSH1 0x20 DUP4 ADD DUP6 PUSH2 0x201F JUMP JUMPDEST PUSH2 0x23A6 PUSH1 0x40 DUP4 ADD DUP5 PUSH2 0x1B69 JUMP JUMPDEST SWAP5 SWAP4 POP POP POP POP JUMP JUMPDEST PUSH0 DUP2 ISZERO ISZERO SWAP1 POP SWAP2 SWAP1 POP JUMP JUMPDEST PUSH2 0x23C2 DUP2 PUSH2 0x23AE JUMP JUMPDEST DUP2 EQ PUSH2 0x23CC JUMPI PUSH0 DUP1 REVERT JUMPDEST POP JUMP JUMPDEST PUSH0 DUP2 MLOAD SWAP1 POP PUSH2 0x23DD DUP2 PUSH2 0x23B9 JUMP JUMPDEST SWAP3 SWAP2 POP POP JUMP JUMPDEST PUSH0 PUSH1 0x20 DUP3 DUP5 SUB SLT ISZERO PUSH2 0x23F8 JUMPI PUSH2 0x23F7 PUSH2 0x1ADE JUMP JUMPDEST JUMPDEST PUSH0 PUSH2 0x2405 DUP5 DUP3 DUP6 ADD PUSH2 0x23CF JUMP JUMPDEST SWAP2 POP POP SWAP3 SWAP2 POP POP JUMP JUMPDEST PUSH0 DUP2 MLOAD SWAP1 POP PUSH2 0x241C DUP2 PUSH2 0x1AEF JUMP JUMPDEST SWAP3 SWAP2 POP POP JUMP JUMPDEST PUSH0 DUP1 PUSH1 0x40 DUP4 DUP6 SUB SLT ISZERO PUSH2 0x2438 JUMPI PUSH2 0x2437 PUSH2 0x1ADE JUMP JUMPDEST JUMPDEST PUSH0 PUSH2 0x2445 DUP6 DUP3 DUP7 ADD PUSH2 0x240E JUMP JUMPDEST SWAP3 POP POP PUSH1 0x20 PUSH2 0x2456 DUP6 DUP3 DUP7 ADD PUSH2 0x240E JUMP JUMPDEST SWAP2 POP POP SWAP3 POP SWAP3 SWAP1 POP JUMP JUMPDEST PUSH32 0x556E69737761705632526F757465723A20494E53554646494349454E545F415F PUSH0 DUP3 ADD MSTORE PUSH32 0x414D4F554E540000000000000000000000000000000000000000000000000000 PUSH1 0x20 DUP3 ADD MSTORE POP JUMP JUMPDEST PUSH0 PUSH2 0x24BA PUSH1 0x26 DUP4 PUSH2 0x212D JUMP JUMPDEST SWAP2 POP PUSH2 0x24C5 DUP3 PUSH2 0x2460 JUMP JUMPDEST PUSH1 0x40 DUP3 ADD SWAP1 POP SWAP2 SWAP1 POP JUMP JUMPDEST PUSH0 PUSH1 0x20 DUP3 ADD SWAP1 POP DUP2 DUP2 SUB PUSH0 DUP4 ADD MSTORE PUSH2 0x24E7 DUP2 PUSH2 0x24AE JUMP JUMPDEST SWAP1 POP SWAP2 SWAP1 POP JUMP JUMPDEST PUSH32 0x556E69737761705632526F757465723A20494E53554646494349454E545F425F PUSH0 DUP3 ADD MSTORE PUSH32 0x414D4F554E540000000000000000000000000000000000000000000000000000 PUSH1 0x20 DUP3 ADD MSTORE POP JUMP JUMPDEST PUSH0 PUSH2 0x2548 PUSH1 0x26 DUP4 PUSH2 0x212D JUMP JUMPDEST SWAP2 POP PUSH2 0x2553 DUP3 PUSH2 0x24EE JUMP JUMPDEST PUSH1 0x40 DUP3 ADD SWAP1 POP SWAP2 SWAP1 POP JUMP JUMPDEST PUSH0 PUSH1 0x20 DUP3 ADD SWAP1 POP DUP2 DUP2 SUB PUSH0 DUP4 ADD MSTORE PUSH2 0x2575 DUP2 PUSH2 0x253C JUMP JUMPDEST SWAP1 POP SWAP2 SWAP1 POP JUMP JUMPDEST PUSH0 PUSH1 0x20 DUP3 DUP5 SUB SLT ISZERO PUSH2 0x2591 JUMPI PUSH2 0x2590 PUSH2 0x1ADE JUMP JUMPDEST JUMPDEST PUSH0 PUSH2 0x259E DUP5 DUP3 DUP6 ADD PUSH2 0x240E JUMP JUMPDEST SWAP2 POP POP SWAP3 SWAP2 POP POP JUMP JUMPDEST PUSH32 0x556E697377617056324C6962726172793A20494E53554646494349454E545F49 PUSH0 DUP3 ADD MSTORE PUSH32 0x4E5055545F414D4F554E54000000000000000000000000000000000000000000 PUSH1 0x20 DUP3 ADD MSTORE POP JUMP JUMPDEST PUSH0 PUSH2 0x2601 PUSH1 0x2B DUP4 PUSH2 0x212D JUMP JUMPDEST SWAP2 POP PUSH2 0x260C DUP3 PUSH2 0x25A7 JUMP JUMPDEST PUSH1 0x40 DUP3 ADD SWAP1 POP SWAP2 SWAP1 POP JUMP JUMPDEST PUSH0 PUSH1 0x20 DUP3 ADD SWAP1 POP DUP2 DUP2 SUB PUSH0 DUP4 ADD MSTORE PUSH2 0x262E DUP2 PUSH2 0x25F5 JUMP JUMPDEST SWAP1 POP SWAP2 SWAP1 POP JUMP JUMPDEST PUSH32 0x556E697377617056324C6962726172793A20494E53554646494349454E545F4C PUSH0 DUP3 ADD MSTORE PUSH32 0x4951554944495459000000000000000000000000000000000000000000000000 PUSH1 0x20 DUP3 ADD MSTORE POP JUMP JUMPDEST PUSH0 PUSH2 0x268F PUSH1 0x28 DUP4 PUSH2 0x212D JUMP JUMPDEST SWAP2 POP PUSH2 0x269A DUP3 PUSH2 0x2635 JUMP JUMPDEST PUSH1 0x40 DUP3 ADD SWAP1 POP SWAP2 SWAP1 POP JUMP JUMPDEST PUSH0 PUSH1 0x20 DUP3 ADD SWAP1 POP DUP2 DUP2 SUB PUSH0 DUP4 ADD MSTORE PUSH2 0x26BC DUP2 PUSH2 0x2683 JUMP JUMPDEST SWAP1 POP SWAP2 SWAP1 POP JUMP JUMPDEST PUSH32 0x4E487B7100000000000000000000000000000000000000000000000000000000 PUSH0 MSTORE PUSH1 0x12 PUSH1 0x4 MSTORE PUSH1 0x24 PUSH0 REVERT JUMPDEST PUSH0 PUSH2 0x26FA DUP3 PUSH2 0x1AE6 JUMP JUMPDEST SWAP2 POP PUSH2 0x2705 DUP4 PUSH2 0x1AE6 JUMP JUMPDEST SWAP3 POP DUP3 PUSH2 0x2715 JUMPI PUSH2 0x2714 PUSH2 0x26C3 JUMP JUMPDEST JUMPDEST DUP3 DUP3 DIV SWAP1 POP SWAP3 SWAP2 POP POP JUMP JUMPDEST PUSH32 0x556E697377617056324C6962726172793A20494E56414C49445F504154480000 PUSH0 DUP3 ADD MSTORE POP JUMP JUMPDEST PUSH0 PUSH2 0x2754 PUSH1 0x1E DUP4 PUSH2 0x212D JUMP JUMPDEST SWAP2 POP PUSH2 0x275F DUP3 PUSH2 0x2720 JUMP JUMPDEST PUSH1 0x20 DUP3 ADD SWAP1 POP SWAP2 SWAP1 POP JUMP JUMPDEST PUSH0 PUSH1 0x20 DUP3 ADD SWAP1 POP DUP2 DUP2 SUB PUSH0 DUP4 ADD MSTORE PUSH2 0x2781 DUP2 PUSH2 0x2748 JUMP JUMPDEST SWAP1 POP SWAP2 SWAP1 POP JUMP JUMPDEST PUSH0 PUSH2 0x2792 DUP3 PUSH2 0x1AE6 JUMP JUMPDEST SWAP2 POP PUSH0 DUP3 SUB PUSH2 0x27A4 JUMPI PUSH2 0x27A3 PUSH2 0x21A5 JUMP JUMPDEST JUMPDEST PUSH1 0x1 DUP3 SUB SWAP1 POP SWAP2 SWAP1 POP JUMP JUMPDEST PUSH0 PUSH2 0x27B9 DUP3 PUSH2 0x1AE6 JUMP JUMPDEST SWAP2 POP PUSH2 0x27C4 DUP4 PUSH2 0x1AE6 JUMP JUMPDEST SWAP3 POP DUP3 DUP3 ADD SWAP1 POP DUP1 DUP3 GT ISZERO PUSH2 0x27DC JUMPI PUSH2 0x27DB PUSH2 0x21A5 JUMP JUMPDEST JUMPDEST SWAP3 SWAP2 POP POP JUMP JUMPDEST PUSH0 DUP2 PUSH1 0x60 SHL SWAP1 POP SWAP2 SWAP1 POP JUMP JUMPDEST PUSH0 PUSH2 0x27F8 DUP3 PUSH2 0x27E2 JUMP JUMPDEST SWAP1 POP SWAP2 SWAP1 POP JUMP JUMPDEST PUSH0 PUSH2 0x2809 DUP3 PUSH2 0x27EE JUMP JUMPDEST SWAP1 POP SWAP2 SWAP1 POP JUMP JUMPDEST PUSH2 0x2821 PUSH2 0x281C DUP3 PUSH2 0x1C6B JUMP JUMPDEST PUSH2 0x27FF JUMP JUMPDEST DUP3 MSTORE POP POP JUMP JUMPDEST PUSH0 PUSH2 0x2832 DUP3 DUP6 PUSH2 0x2810 JUMP JUMPDEST PUSH1 0x14 DUP3 ADD SWAP2 POP PUSH2 0x2842 DUP3 DUP5 PUSH2 0x2810 JUMP JUMPDEST PUSH1 0x14 DUP3 ADD SWAP2 POP DUP2 SWAP1 POP SWAP4 SWAP3 POP POP POP JUMP JUMPDEST PUSH0 DUP2 SWAP1 POP SWAP3 SWAP2 POP POP JUMP JUMPDEST PUSH32 0xFF00000000000000000000000000000000000000000000000000000000000000 PUSH0 DUP3 ADD MSTORE POP JUMP JUMPDEST PUSH0 PUSH2 0x2890 PUSH1 0x1 DUP4 PUSH2 0x2852 JUMP JUMPDEST SWAP2 POP PUSH2 0x289B DUP3 PUSH2 0x285C JUMP JUMPDEST PUSH1 0x1 DUP3 ADD SWAP1 POP SWAP2 SWAP1 POP JUMP JUMPDEST PUSH0 DUP2 SWAP1 POP SWAP2 SWAP1 POP JUMP JUMPDEST PUSH0 DUP2 SWAP1 POP SWAP2 SWAP1 POP JUMP JUMPDEST PUSH2 0x28C9 PUSH2 0x28C4 DUP3 PUSH2 0x28A6 JUMP JUMPDEST PUSH2 0x28AF JUMP JUMPDEST DUP3 MSTORE POP POP JUMP JUMPDEST PUSH32 0x96E8AC4277198FF8B6F785478AA9A39F403CB768DD02CBEE326C3E7DA348845F PUSH0 DUP3 ADD MSTORE POP JUMP JUMPDEST PUSH0 PUSH2 0x2903 PUSH1 0x20 DUP4 PUSH2 0x2852 JUMP JUMPDEST SWAP2 POP PUSH2 0x290E DUP3 PUSH2 0x28CF JUMP JUMPDEST PUSH1 0x20 DUP3 ADD SWAP1 POP SWAP2 SWAP1 POP JUMP JUMPDEST PUSH0 PUSH2 0x2923 DUP3 PUSH2 0x2884 JUMP JUMPDEST SWAP2 POP PUSH2 0x292F DUP3 DUP6 PUSH2 0x2810 JUMP JUMPDEST PUSH1 0x14 DUP3 ADD SWAP2 POP PUSH2 0x293F DUP3 DUP5 PUSH2 0x28B8 JUMP JUMPDEST PUSH1 0x20 DUP3 ADD SWAP2 POP PUSH2 0x294E DUP3 PUSH2 0x28F7 JUMP JUMPDEST SWAP2 POP DUP2 SWAP1 POP SWAP4 SWAP3 POP POP POP JUMP JUMPDEST PUSH0 DUP2 MLOAD SWAP1 POP SWAP2 SWAP1 POP JUMP JUMPDEST PUSH0 DUP2 SWAP1 POP SWAP3 SWAP2 POP POP JUMP JUMPDEST PUSH0 JUMPDEST DUP4 DUP2 LT ISZERO PUSH2 0x298B JUMPI DUP1 DUP3 ADD MLOAD DUP2 DUP5 ADD MSTORE PUSH1 0x20 DUP2 ADD SWAP1 POP PUSH2 0x2970 JUMP JUMPDEST PUSH0 DUP5 DUP5 ADD MSTORE POP POP POP POP JUMP JUMPDEST PUSH0 PUSH2 0x29A0 DUP3 PUSH2 0x295A JUMP JUMPDEST PUSH2 0x29AA DUP2 DUP6 PUSH2 0x2964 JUMP JUMPDEST SWAP4 POP PUSH2 0x29BA DUP2 DUP6 PUSH1 0x20 DUP7 ADD PUSH2 0x296E JUMP JUMPDEST DUP1 DUP5 ADD SWAP2 POP POP SWAP3 SWAP2 POP POP JUMP JUMPDEST PUSH0 PUSH2 0x29D1 DUP3 DUP5 PUSH2 0x2996 JUMP JUMPDEST SWAP2 POP DUP2 SWAP1 POP SWAP3 SWAP2 POP POP JUMP JUMPDEST PUSH32 0x5472616E7366657248656C7065723A3A7472616E7366657246726F6D3A207472 PUSH0 DUP3 ADD MSTORE PUSH32 0x616E7366657246726F6D206661696C6564000000000000000000000000000000 PUSH1 0x20 DUP3 ADD MSTORE POP JUMP JUMPDEST PUSH0 PUSH2 0x2A36 PUSH1 0x31 DUP4 PUSH2 0x212D JUMP JUMPDEST SWAP2 POP PUSH2 0x2A41 DUP3 PUSH2 0x29DC JUMP JUMPDEST PUSH1 0x40 DUP3 ADD SWAP1 POP SWAP2 SWAP1 POP JUMP JUMPDEST PUSH0 PUSH1 0x20 DUP3 ADD SWAP1 POP DUP2 DUP2 SUB PUSH0 DUP4 ADD MSTORE PUSH2 0x2A63 DUP2 PUSH2 0x2A2A JUMP JUMPDEST SWAP1 POP SWAP2 SWAP1 POP JUMP JUMPDEST PUSH0 DUP3 DUP3 MSTORE PUSH1 0x20 DUP3 ADD SWAP1 POP SWAP3 SWAP2 POP POP JUMP JUMPDEST PUSH0 PUSH2 0x2A84 DUP3 PUSH2 0x295A JUMP JUMPDEST PUSH2 0x2A8E DUP2 DUP6 PUSH2 0x2A6A JUMP JUMPDEST SWAP4 POP PUSH2 0x2A9E DUP2 DUP6 PUSH1 0x20 DUP7 ADD PUSH2 0x296E JUMP JUMPDEST PUSH2 0x2AA7 DUP2 PUSH2 0x1B95 JUMP JUMPDEST DUP5 ADD SWAP2 POP POP SWAP3 SWAP2 POP POP JUMP JUMPDEST PUSH0 PUSH1 0x80 DUP3 ADD SWAP1 POP PUSH2 0x2AC5 PUSH0 DUP4 ADD DUP8 PUSH2 0x1B69 JUMP JUMPDEST PUSH2 0x2AD2 PUSH1 0x20 DUP4 ADD DUP7 PUSH2 0x1B69 JUMP JUMPDEST PUSH2 0x2ADF PUSH1 0x40 DUP4 ADD DUP6 PUSH2 0x201F JUMP JUMPDEST DUP2 DUP2 SUB PUSH1 0x60 DUP4 ADD MSTORE PUSH2 0x2AF1 DUP2 DUP5 PUSH2 0x2A7A JUMP JUMPDEST SWAP1 POP SWAP6 SWAP5 POP POP POP POP POP JUMP JUMPDEST PUSH32 0x556E697377617056324C6962726172793A20494E53554646494349454E545F4F PUSH0 DUP3 ADD MSTORE PUSH32 0x55545055545F414D4F554E540000000000000000000000000000000000000000 PUSH1 0x20 DUP3 ADD MSTORE POP JUMP JUMPDEST PUSH0 PUSH2 0x2B56 PUSH1 0x2C DUP4 PUSH2 0x212D JUMP JUMPDEST SWAP2 POP PUSH2 0x2B61 DUP3 PUSH2 0x2AFC JUMP JUMPDEST PUSH1 0x40 DUP3 ADD SWAP1 POP SWAP2 SWAP1 POP JUMP JUMPDEST PUSH0 PUSH1 0x20 DUP3 ADD SWAP1 POP DUP2 DUP2 SUB PUSH0 DUP4 ADD MSTORE PUSH2 0x2B83 DUP2 PUSH2 0x2B4A JUMP JUMPDEST SWAP1 POP SWAP2 SWAP1 POP JUMP JUMPDEST PUSH32 0x556E697377617056324C6962726172793A20494E53554646494349454E545F41 PUSH0 DUP3 ADD MSTORE PUSH32 0x4D4F554E54000000000000000000000000000000000000000000000000000000 PUSH1 0x20 DUP3 ADD MSTORE POP JUMP JUMPDEST PUSH0 PUSH2 0x2BE4 PUSH1 0x25 DUP4 PUSH2 0x212D JUMP JUMPDEST SWAP2 POP PUSH2 0x2BEF DUP3 PUSH2 0x2B8A JUMP JUMPDEST PUSH1 0x40 DUP3 ADD SWAP1 POP SWAP2 SWAP1 POP JUMP JUMPDEST PUSH0 PUSH1 0x20 DUP3 ADD SWAP1 POP DUP2 DUP2 SUB PUSH0 DUP4 ADD MSTORE PUSH2 0x2C11 DUP2 PUSH2 0x2BD8 JUMP JUMPDEST SWAP1 POP SWAP2 SWAP1 POP JUMP JUMPDEST PUSH32 0x556E697377617056324C6962726172793A204944454E544943414C5F41444452 PUSH0 DUP3 ADD MSTORE PUSH32 0x4553534553000000000000000000000000000000000000000000000000000000 PUSH1 0x20 DUP3 ADD MSTORE POP JUMP JUMPDEST PUSH0 PUSH2 0x2C72 PUSH1 0x25 DUP4 PUSH2 0x212D JUMP JUMPDEST SWAP2 POP PUSH2 0x2C7D DUP3 PUSH2 0x2C18 JUMP JUMPDEST PUSH1 0x40 DUP3 ADD SWAP1 POP SWAP2 SWAP1 POP JUMP JUMPDEST PUSH0 PUSH1 0x20 DUP3 ADD SWAP1 POP DUP2 DUP2 SUB PUSH0 DUP4 ADD MSTORE PUSH2 0x2C9F DUP2 PUSH2 0x2C66 JUMP JUMPDEST SWAP1 POP SWAP2 SWAP1 POP JUMP JUMPDEST PUSH32 0x556E697377617056324C6962726172793A205A45524F5F414444524553530000 PUSH0 DUP3 ADD MSTORE POP JUMP JUMPDEST PUSH0 PUSH2 0x2CDA PUSH1 0x1E DUP4 PUSH2 0x212D JUMP JUMPDEST SWAP2 POP PUSH2 0x2CE5 DUP3 PUSH2 0x2CA6 JUMP JUMPDEST PUSH1 0x20 DUP3 ADD SWAP1 POP SWAP2 SWAP1 POP JUMP JUMPDEST PUSH0 PUSH1 0x20 DUP3 ADD SWAP1 POP DUP2 DUP2 SUB PUSH0 DUP4 ADD MSTORE PUSH2 0x2D07 DUP2 PUSH2 0x2CCE JUMP JUMPDEST SWAP1 POP SWAP2 SWAP1 POP JUMP JUMPDEST PUSH0 PUSH1 0x40 DUP3 ADD SWAP1 POP PUSH2 0x2D21 PUSH0 DUP4 ADD DUP6 PUSH2 0x201F JUMP JUMPDEST PUSH2 0x2D2E PUSH1 0x20 DUP4 ADD DUP5 PUSH2 0x201F JUMP JUMPDEST SWAP4 SWAP3 POP POP POP JUMP JUMPDEST PUSH0 DUP2 MLOAD SWAP1 POP PUSH2 0x2D43 DUP2 PUSH2 0x1C7C JUMP JUMPDEST SWAP3 SWAP2 POP POP JUMP JUMPDEST PUSH0 PUSH1 0x20 DUP3 DUP5 SUB SLT ISZERO PUSH2 0x2D5E JUMPI PUSH2 0x2D5D PUSH2 0x1ADE JUMP JUMPDEST JUMPDEST PUSH0 PUSH2 0x2D6B DUP5 DUP3 DUP6 ADD PUSH2 0x2D35 JUMP JUMPDEST SWAP2 POP POP SWAP3 SWAP2 POP POP JUMP JUMPDEST PUSH32 0x4E487B7100000000000000000000000000000000000000000000000000000000 PUSH0 MSTORE PUSH1 0x1 PUSH1 0x4 MSTORE PUSH1 0x24 PUSH0 REVERT JUMPDEST PUSH0 PUSH2 0x2DAB DUP3 PUSH2 0x1AE6 JUMP JUMPDEST SWAP2 POP PUSH2 0x2DB6 DUP4 PUSH2 0x1AE6 JUMP JUMPDEST SWAP3 POP DUP3 DUP3 MUL PUSH2 0x2DC4 DUP2 PUSH2 0x1AE6 JUMP JUMPDEST SWAP2 POP DUP3 DUP3 DIV DUP5 EQ DUP4 ISZERO OR PUSH2 0x2DDB JUMPI PUSH2 0x2DDA PUSH2 0x21A5 JUMP JUMPDEST JUMPDEST POP SWAP3 SWAP2 POP POP JUMP JUMPDEST PUSH32 0x64732D6D6174682D6D756C2D6F766572666C6F77000000000000000000000000 PUSH0 DUP3 ADD MSTORE POP JUMP JUMPDEST PUSH0 PUSH2 0x2E16 PUSH1 0x14 DUP4 PUSH2 0x212D JUMP JUMPDEST SWAP2 POP PUSH2 0x2E21 DUP3 PUSH2 0x2DE2 JUMP JUMPDEST PUSH1 0x20 DUP3 ADD SWAP1 POP SWAP2 SWAP1 POP JUMP JUMPDEST PUSH0 PUSH1 0x20 DUP3 ADD SWAP1 POP DUP2 DUP2 SUB PUSH0 DUP4 ADD MSTORE PUSH2 0x2E43 DUP2 PUSH2 0x2E0A JUMP JUMPDEST SWAP1 POP SWAP2 SWAP1 POP JUMP JUMPDEST PUSH32 0x64732D6D6174682D6164642D6F766572666C6F77000000000000000000000000 PUSH0 DUP3 ADD MSTORE POP JUMP JUMPDEST PUSH0 PUSH2 0x2E7E PUSH1 0x14 DUP4 PUSH2 0x212D JUMP JUMPDEST SWAP2 POP PUSH2 0x2E89 DUP3 PUSH2 0x2E4A JUMP JUMPDEST PUSH1 0x20 DUP3 ADD SWAP1 POP SWAP2 SWAP1 POP JUMP JUMPDEST PUSH0 PUSH1 0x20 DUP3 ADD SWAP1 POP DUP2 DUP2 SUB PUSH0 DUP4 ADD MSTORE PUSH2 0x2EAB DUP2 PUSH2 0x2E72 JUMP JUMPDEST SWAP1 POP SWAP2 SWAP1 POP JUMP JUMPDEST PUSH0 PUSH14 0xFFFFFFFFFFFFFFFFFFFFFFFFFFFF DUP3 AND SWAP1 POP SWAP2 SWAP1 POP JUMP JUMPDEST PUSH2 0x2ED4 DUP2 PUSH2 0x2EB2 JUMP JUMPDEST DUP2 EQ PUSH2 0x2EDE JUMPI PUSH0 DUP1 REVERT JUMPDEST POP JUMP JUMPDEST PUSH0 DUP2 MLOAD SWAP1 POP PUSH2 0x2EEF DUP2 PUSH2 0x2ECB JUMP JUMPDEST SWAP3 SWAP2 POP POP JUMP JUMPDEST PUSH0 DUP1 PUSH1 0x40 DUP4 DUP6 SUB SLT ISZERO PUSH2 0x2F0B JUMPI PUSH2 0x2F0A PUSH2 0x1ADE JUMP JUMPDEST JUMPDEST PUSH0 PUSH2 0x2F18 DUP6 DUP3 DUP7 ADD PUSH2 0x2EE1 JUMP JUMPDEST SWAP3 POP POP PUSH1 0x20 PUSH2 0x2F29 DUP6 DUP3 DUP7 ADD PUSH2 0x2EE1 JUMP JUMPDEST SWAP2 POP POP SWAP3 POP SWAP3 SWAP1 POP JUMP JUMPDEST PUSH32 0x64732D6D6174682D7375622D756E646572666C6F770000000000000000000000 PUSH0 DUP3 ADD MSTORE POP JUMP JUMPDEST PUSH0 PUSH2 0x2F67 PUSH1 0x15 DUP4 PUSH2 0x212D JUMP JUMPDEST SWAP2 POP PUSH2 0x2F72 DUP3 PUSH2 0x2F33 JUMP JUMPDEST PUSH1 0x20 DUP3 ADD SWAP1 POP SWAP2 SWAP1 POP JUMP JUMPDEST PUSH0 PUSH1 0x20 DUP3 ADD SWAP1 POP DUP2 DUP2 SUB PUSH0 DUP4 ADD MSTORE PUSH2 0x2F94 DUP2 PUSH2 0x2F5B JUMP JUMPDEST SWAP1 POP SWAP2 SWAP1 POP JUMP INVALID LOG2 PUSH5 0x6970667358 0x22 SLT KECCAK256 CREATE PUSH26 0xF72BD2336FDDF81B657E0B932D3AA7915C4D1371055BAD01BB6 0xD 0xF8 PUSH17 0x3F64736F6C634300081600330000000000 "
				},
				"gasEstimates": {
					"creation": {
						"codeDepositCost": "2448200",
						"executionCost": "infinite",
						"totalCost": "infinite"
					},
					"external": {
						"addLiquidity(address,address,uint256,uint256,uint256,uint256,address,uint256)": "infinite",
						"factory()": "infinite",
						"getAmountIn(uint256,uint256,uint256)": "infinite",
						"getAmountOut(uint256,uint256,uint256)": "infinite",
						"getAmountsIn(uint256,address[])": "infinite",
						"getAmountsOut(uint256,address[])": "infinite",
						"quote(uint256,uint256,uint256)": "infinite",
						"removeLiquidity(address,address,uint256,uint256,uint256,address,uint256)": "infinite",
						"swapExactTokensForTokens(uint256,uint256,address[],address,uint256)": "infinite",
						"swapTokensForExactTokens(uint256,uint256,address[],address,uint256)": "infinite"
					},
					"internal": {
						"_addLiquidity(address,address,uint256,uint256,uint256,uint256)": "infinite",
						"_swap(uint256[] memory,address[] memory,address)": "infinite"
					}
				},
				"methodIdentifiers": {
					"addLiquidity(address,address,uint256,uint256,uint256,uint256,address,uint256)": "e8e33700",
					"factory()": "c45a0155",
					"getAmountIn(uint256,uint256,uint256)": "85f8c259",
					"getAmountOut(uint256,uint256,uint256)": "054d50d4",
					"getAmountsIn(uint256,address[])": "1f00ca74",
					"getAmountsOut(uint256,address[])": "d06ca61f",
					"quote(uint256,uint256,uint256)": "ad615dec",
					"removeLiquidity(address,address,uint256,uint256,uint256,address,uint256)": "baa2abde",
					"swapExactTokensForTokens(uint256,uint256,address[],address,uint256)": "38ed1739",
					"swapTokensForExactTokens(uint256,uint256,address[],address,uint256)": "8803dbee"
				}
			},
			"storageLayout": {
				"storage": [],
				"types": null
			},
			"userdoc": {
				"kind": "user",
				"methods": {},
				"version": 1
			}
		}
	}
}