{
	"Uniswap/contracts/UniswapV2Pair.sol": {
		"UniswapV2Pair": {
			"abi": [
				{
					"inputs": [],
					"stateMutability": "nonpayable",
					"type": "constructor"
				},
				{
					"anonymous": false,
					"inputs": [
						{
							"indexed": true,
							"internalType": "address",
							"name": "owner",
							"type": "address"
						},
						{
							"indexed": true,
							"internalType": "address",
							"name": "spender",
							"type": "address"
						},
						{
							"indexed": false,
							"internalType": "uint256",
							"name": "value",
							"type": "uint256"
						}
					],
					"name": "Approval",
					"type": "event"
				},
				{
					"anonymous": false,
					"inputs": [
						{
							"indexed": true,
							"internalType": "address",
							"name": "sender",
							"type": "address"
						},
						{
							"indexed": false,
							"internalType": "uint256",
							"name": "amount0",
							"type": "uint256"
						},
						{
							"indexed": false,
							"internalType": "uint256",
							"name": "amount1",
							"type": "uint256"
						},
						{
							"indexed": true,
							"internalType": "address",
							"name": "to",
							"type": "address"
						}
					],
					"name": "Burn",
					"type": "event"
				},
				{
					"anonymous": false,
					"inputs": [
						{
							"indexed": true,
							"internalType": "address",
							"name": "sender",
							"type": "address"
						},
						{
							"indexed": false,
							"internalType": "uint256",
							"name": "amount0",
							"type": "uint256"
						},
						{
							"indexed": false,
							"internalType": "uint256",
							"name": "amount1",
							"type": "uint256"
						}
					],
					"name": "Mint",
					"type": "event"
				},
				{
					"anonymous": false,
					"inputs": [
						{
							"indexed": true,
							"internalType": "address",
							"name": "sender",
							"type": "address"
						},
						{
							"indexed": false,
							"internalType": "uint256",
							"name": "amount0In",
							"type": "uint256"
						},
						{
							"indexed": false,
							"internalType": "uint256",
							"name": "amount1In",
							"type": "uint256"
						},
						{
							"indexed": false,
							"internalType": "uint256",
							"name": "amount0Out",
							"type": "uint256"
						},
						{
							"indexed": false,
							"internalType": "uint256",
							"name": "amount1Out",
							"type": "uint256"
						},
						{
							"indexed": true,
							"internalType": "address",
							"name": "to",
							"type": "address"
						}
					],
					"name": "Swap",
					"type": "event"
				},
				{
					"anonymous": false,
					"inputs": [
						{
							"indexed": false,
							"internalType": "uint112",
							"name": "reserve0",
							"type": "uint112"
						},
						{
							"indexed": false,
							"internalType": "uint112",
							"name": "reserve1",
							"type": "uint112"
						}
					],
					"name": "Sync",
					"type": "event"
				},
				{
					"anonymous": false,
					"inputs": [
						{
							"indexed": true,
							"internalType": "address",
							"name": "from",
							"type": "address"
						},
						{
							"indexed": true,
							"internalType": "address",
							"name": "to",
							"type": "address"
						},
						{
							"indexed": false,
							"internalType": "uint256",
							"name": "value",
							"type": "uint256"
						}
					],
					"name": "Transfer",
					"type": "event"
				},
				{
					"inputs": [],
					"name": "MINIMUM_LIQUIDITY",
					"outputs": [
						{
							"internalType": "uint256",
							"name": "",
							"type": "uint256"
						}
					],
					"stateMutability": "view",
					"type": "function"
				},
				{
					"inputs": [
						{
							"internalType": "address",
							"name": "",
							"type": "address"
						},
						{
							"internalType": "address",
							"name": "",
							"type": "address"
						}
					],
					"name": "allowance",
					"outputs": [
						{
							"internalType": "uint256",
							"name": "",
							"type": "uint256"
						}
					],
					"stateMutability": "view",
					"type": "function"
				},
				{
					"inputs": [
						{
							"internalType": "address",
							"name": "spender",
							"type": "address"
						},
						{
							"internalType": "uint256",
							"name": "value",
							"type": "uint256"
						}
					],
					"name": "approve",
					"outputs": [
						{
							"internalType": "bool",
							"name": "",
							"type": "bool"
						}
					],
					"stateMutability": "nonpayable",
					"type": "function"
				},
				{
					"inputs": [
						{
							"internalType": "address",
							"name": "",
							"type": "address"
						}
					],
					"name": "balanceOf",
					"outputs": [
						{
							"internalType": "uint256",
							"name": "",
							"type": "uint256"
						}
					],
					"stateMutability": "view",
					"type": "function"
				},
				{
					"inputs": [
						{
							"internalType": "address",
							"name": "to",
							"type": "address"
						}
					],
					"name": "burn",
					"outputs": [
						{
							"internalType": "uint256",
							"name": "amount0",
							"type": "uint256"
						},
						{
							"internalType": "uint256",
							"name": "amount1",
							"type": "uint256"
						}
					],
					"stateMutability": "nonpayable",
					"type": "function"
				},
				{
					"inputs": [],
					"name": "decimals",
					"outputs": [
						{
							"internalType": "uint8",
							"name": "",
							"type": "uint8"
						}
					],
					"stateMutability": "view",
					"type": "function"
				},
				{
					"inputs": [],
					"name": "factory",
					"outputs": [
						{
							"internalType": "address",
							"name": "",
							"type": "address"
						}
					],
					"stateMutability": "view",
					"type": "function"
				},
				{
					"inputs": [],
					"name": "getReserves",
					"outputs": [
						{
							"internalType": "uint112",
							"name": "_reserve0",
							"type": "uint112"
						},
						{
							"internalType": "uint112",
							"name": "_reserve1",
							"type": "uint112"
						}
					],
					"stateMutability": "view",
					"type": "function"
				},
				{
					"inputs": [
						{
							"internalType": "address",
							"name": "_token0",
							"type": "address"
						},
						{
							"internalType": "address",
							"name": "_token1",
							"type": "address"
						}
					],
					"name": "initialize",
					"outputs": [],
					"stateMutability": "nonpayable",
					"type": "function"
				},
				{
					"inputs": [
						{
							"internalType": "address",
							"name": "to",
							"type": "address"
						}
					],
					"name": "mint",
					"outputs": [
						{
							"internalType": "uint256",
							"name": "liquidity",
							"type": "uint256"
						}
					],
					"stateMutability": "nonpayable",
					"type": "function"
				},
				{
					"inputs": [],
					"name": "name",
					"outputs": [
						{
							"internalType": "string",
							"name": "",
							"type": "string"
						}
					],
					"stateMutability": "view",
					"type": "function"
				},
				{
					"inputs": [
						{
							"internalType": "uint256",
							"name": "amount0Out",
							"type": "uint256"
						},
						{
							"internalType": "uint256",
							"name": "amount1Out",
							"type": "uint256"
						},
						{
							"internalType": "address",
							"name": "to",
							"type": "address"
						},
						{
							"internalType": "bytes",
							"name": "data",
							"type": "bytes"
						}
					],
					"name": "swap",
					"outputs": [],
					"stateMutability": "nonpayable",
					"type": "function"
				},
				{
					"inputs": [],
					"name": "symbol",
					"outputs": [
						{
							"internalType": "string",
							"name": "",
							"type": "string"
						}
					],
					"stateMutability": "view",
					"type": "function"
				},
				{
					"inputs": [],
					"name": "token0",
					"outputs": [
						{
							"internalType": "address",
							"name": "",
							"type": "address"
						}
					],
					"stateMutability": "view",
					"type": "function"
				},
				{
					"inputs": [],
					"name": "token1",
					"outputs": [
						{
							"internalType": "address",
							"name": "",
							"type": "address"
						}
					],
					"stateMutability": "view",
					"type": "function"
				},
				{
					"inputs": [],
					"name": "totalSupply",
					"outputs": [
						{
							"internalType": "uint256",
							"name": "",
							"type": "uint256"
						}
					],
					"stateMutability": "view",
					"type": "function"
				},
				{
					"inputs": [
						{
							"internalType": "address",
							"name": "to",
							"type": "address"
						},
						{
							"internalType": "uint256",
							"name": "value",
							"type": "uint256"
						}
					],
					"name": "transfer",
					"outputs": [
						{
							"internalType": "bool",
							"name": "",
							"type": "bool"
						}
					],
					"stateMutability": "nonpayable",
					"type": "function"
				},
				{
					"inputs": [
						{
							"internalType": "address",
							"name": "from",
							"type": "address"
						},
						{
							"internalType": "address",
							"name": "to",
							"type": "address"
						},
						{
							"internalType": "uint256",
							"name": "value",
							"type": "uint256"
						}
					],
					"name": "transferFrom",
					"outputs": [
						{
							"internalType": "bool",
							"name": "",
							"type": "bool"
						}
					],
					"stateMutability": "nonpayable",
					"type": "function"
				}
			],
			"devdoc": {
				"kind": "dev",
				"methods": {},
				"version": 1
			},
			"evm": {
				"assembly": "    /* \"Uniswap/contracts/UniswapV2Pair.sol\":369:8458  contract UniswapV2Pair is IUniswapV2Pair, UniswapV2ERC20 {... */\n  mstore(0x40, 0x80)\n    /* \"Uniswap/contracts/UniswapV2Pair.sol\":965:966  1 */\n  0x01\n    /* \"Uniswap/contracts/UniswapV2Pair.sol\":941:966  uint private unlocked = 1 */\n  0x07\n  sstore\n    /* \"Uniswap/contracts/UniswapV2Pair.sol\":1887:1938  constructor() {... */\n  callvalue\n  dup1\n  iszero\n  tag_1\n  jumpi\n  0x00\n  dup1\n  revert\ntag_1:\n  pop\n    /* \"Uniswap/contracts/UniswapV2Pair.sol\":1921:1931  msg.sender */\n  caller\n    /* \"Uniswap/contracts/UniswapV2Pair.sol\":1911:1918  factory */\n  0x03\n  0x00\n    /* \"Uniswap/contracts/UniswapV2Pair.sol\":1911:1931  factory = msg.sender */\n  0x0100\n  exp\n  dup2\n  sload\n  dup2\n  0xffffffffffffffffffffffffffffffffffffffff\n  mul\n  not\n  and\n  swap1\n  dup4\n  0xffffffffffffffffffffffffffffffffffffffff\n  and\n  mul\n  or\n  swap1\n  sstore\n  pop\n    /* \"Uniswap/contracts/UniswapV2Pair.sol\":369:8458  contract UniswapV2Pair is IUniswapV2Pair, UniswapV2ERC20 {... */\n  dataSize(sub_0)\n  dup1\n  dataOffset(sub_0)\n  0x00\n  codecopy\n  0x00\n  return\nstop\n\nsub_0: assembly {\n        /* \"Uniswap/contracts/UniswapV2Pair.sol\":369:8458  contract UniswapV2Pair is IUniswapV2Pair, UniswapV2ERC20 {... */\n      mstore(0x40, 0x80)\n      callvalue\n      dup1\n      iszero\n      tag_1\n      jumpi\n      0x00\n      dup1\n      revert\n    tag_1:\n      pop\n      jumpi(tag_2, lt(calldatasize, 0x04))\n      shr(0xe0, calldataload(0x00))\n      dup1\n      0x6a627842\n      gt\n      tag_21\n      jumpi\n      dup1\n      0xa9059cbb\n      gt\n      tag_22\n      jumpi\n      dup1\n      0xa9059cbb\n      eq\n      tag_16\n      jumpi\n      dup1\n      0xba9a7a56\n      eq\n      tag_17\n      jumpi\n      dup1\n      0xc45a0155\n      eq\n      tag_18\n      jumpi\n      dup1\n      0xd21220a7\n      eq\n      tag_19\n      jumpi\n      dup1\n      0xdd62ed3e\n      eq\n      tag_20\n      jumpi\n      jump(tag_2)\n    tag_22:\n      dup1\n      0x6a627842\n      eq\n      tag_12\n      jumpi\n      dup1\n      0x70a08231\n      eq\n      tag_13\n      jumpi\n      dup1\n      0x89afcb44\n      eq\n      tag_14\n      jumpi\n      dup1\n      0x95d89b41\n      eq\n      tag_15\n      jumpi\n      jump(tag_2)\n    tag_21:\n      dup1\n      0x0dfe1681\n      gt\n      tag_23\n      jumpi\n      dup1\n      0x0dfe1681\n      eq\n      tag_7\n      jumpi\n      dup1\n      0x18160ddd\n      eq\n      tag_8\n      jumpi\n      dup1\n      0x23b872dd\n      eq\n      tag_9\n      jumpi\n      dup1\n      0x313ce567\n      eq\n      tag_10\n      jumpi\n      dup1\n      0x485cc955\n      eq\n      tag_11\n      jumpi\n      jump(tag_2)\n    tag_23:\n      dup1\n      0x022c0d9f\n      eq\n      tag_3\n      jumpi\n      dup1\n      0x06fdde03\n      eq\n      tag_4\n      jumpi\n      dup1\n      0x0902f1ac\n      eq\n      tag_5\n      jumpi\n      dup1\n      0x095ea7b3\n      eq\n      tag_6\n      jumpi\n    tag_2:\n      0x00\n      dup1\n      revert\n        /* \"Uniswap/contracts/UniswapV2Pair.sol\":6178:8456  function swap(uint amount0Out, uint amount1Out, address to, bytes calldata data) external lock {... */\n    tag_3:\n      tag_24\n      0x04\n      dup1\n      calldatasize\n      sub\n      dup2\n      add\n      swap1\n      tag_25\n      swap2\n      swap1\n      tag_26\n      jump\t// in\n    tag_25:\n      tag_27\n      jump\t// in\n    tag_24:\n      stop\n        /* \"Uniswap/contracts/UniswapV2ERC20.sol\":258:300  string public constant name = 'Uniswap V2' */\n    tag_4:\n      tag_28\n      tag_29\n      jump\t// in\n    tag_28:\n      mload(0x40)\n      tag_30\n      swap2\n      swap1\n      tag_31\n      jump\t// in\n    tag_30:\n      mload(0x40)\n      dup1\n      swap2\n      sub\n      swap1\n      return\n        /* \"Uniswap/contracts/UniswapV2Pair.sol\":1109:1258  function getReserves() public view returns (uint112 _reserve0, uint112 _reserve1) {... */\n    tag_5:\n      tag_32\n      tag_33\n      jump\t// in\n    tag_32:\n      mload(0x40)\n      tag_34\n      swap3\n      swap2\n      swap1\n      tag_35\n      jump\t// in\n    tag_34:\n      mload(0x40)\n      dup1\n      swap2\n      sub\n      swap1\n      return\n        /* \"Uniswap/contracts/UniswapV2ERC20.sol\":1435:1579  function approve(address spender, uint value) external returns (bool) {... */\n    tag_6:\n      tag_36\n      0x04\n      dup1\n      calldatasize\n      sub\n      dup2\n      add\n      swap1\n      tag_37\n      swap2\n      swap1\n      tag_38\n      jump\t// in\n    tag_37:\n      tag_39\n      jump\t// in\n    tag_36:\n      mload(0x40)\n      tag_40\n      swap2\n      swap1\n      tag_41\n      jump\t// in\n    tag_40:\n      mload(0x40)\n      dup1\n      swap2\n      sub\n      swap1\n      return\n        /* \"Uniswap/contracts/UniswapV2Pair.sol\":637:658  address public token0 */\n    tag_7:\n      tag_42\n      tag_43\n      jump\t// in\n    tag_42:\n      mload(0x40)\n      tag_44\n      swap2\n      swap1\n      tag_45\n      jump\t// in\n    tag_44:\n      mload(0x40)\n      dup1\n      swap2\n      sub\n      swap1\n      return\n        /* \"Uniswap/contracts/UniswapV2ERC20.sol\":393:417  uint  public totalSupply */\n    tag_8:\n      tag_46\n      tag_47\n      jump\t// in\n    tag_46:\n      mload(0x40)\n      tag_48\n      swap2\n      swap1\n      tag_49\n      jump\t// in\n    tag_48:\n      mload(0x40)\n      dup1\n      swap2\n      sub\n      swap1\n      return\n        /* \"Uniswap/contracts/UniswapV2ERC20.sol\":1727:2028  function transferFrom(address from, address to, uint value) external returns (bool) {... */\n    tag_9:\n      tag_50\n      0x04\n      dup1\n      calldatasize\n      sub\n      dup2\n      add\n      swap1\n      tag_51\n      swap2\n      swap1\n      tag_52\n      jump\t// in\n    tag_51:\n      tag_53\n      jump\t// in\n    tag_50:\n      mload(0x40)\n      tag_54\n      swap2\n      swap1\n      tag_41\n      jump\t// in\n    tag_54:\n      mload(0x40)\n      dup1\n      swap2\n      sub\n      swap1\n      return\n        /* \"Uniswap/contracts/UniswapV2ERC20.sol\":352:387  uint8 public constant decimals = 18 */\n    tag_10:\n      tag_55\n      tag_56\n      jump\t// in\n    tag_55:\n      mload(0x40)\n      tag_57\n      swap2\n      swap1\n      tag_58\n      jump\t// in\n    tag_57:\n      mload(0x40)\n      dup1\n      swap2\n      sub\n      swap1\n      return\n        /* \"Uniswap/contracts/UniswapV2Pair.sol\":2000:2206  function initialize(address _token0, address _token1) external {... */\n    tag_11:\n      tag_59\n      0x04\n      dup1\n      calldatasize\n      sub\n      dup2\n      add\n      swap1\n      tag_60\n      swap2\n      swap1\n      tag_61\n      jump\t// in\n    tag_60:\n      tag_62\n      jump\t// in\n    tag_59:\n      stop\n        /* \"Uniswap/contracts/UniswapV2Pair.sol\":2780:4398  function mint(address to) external lock returns (uint liquidity) {... */\n    tag_12:\n      tag_63\n      0x04\n      dup1\n      calldatasize\n      sub\n      dup2\n      add\n      swap1\n      tag_64\n      swap2\n      swap1\n      tag_65\n      jump\t// in\n    tag_64:\n      tag_66\n      jump\t// in\n    tag_63:\n      mload(0x40)\n      tag_67\n      swap2\n      swap1\n      tag_49\n      jump\t// in\n    tag_67:\n      mload(0x40)\n      dup1\n      swap2\n      sub\n      swap1\n      return\n        /* \"Uniswap/contracts/UniswapV2ERC20.sol\":424:465  mapping(address => uint) public balanceOf */\n    tag_13:\n      tag_68\n      0x04\n      dup1\n      calldatasize\n      sub\n      dup2\n      add\n      swap1\n      tag_69\n      swap2\n      swap1\n      tag_65\n      jump\t// in\n    tag_69:\n      tag_70\n      jump\t// in\n    tag_68:\n      mload(0x40)\n      tag_71\n      swap2\n      swap1\n      tag_49\n      jump\t// in\n    tag_71:\n      mload(0x40)\n      dup1\n      swap2\n      sub\n      swap1\n      return\n        /* \"Uniswap/contracts/UniswapV2Pair.sol\":4567:6069  function burn(address to) external lock returns (uint amount0, uint amount1) {... */\n    tag_14:\n      tag_72\n      0x04\n      dup1\n      calldatasize\n      sub\n      dup2\n      add\n      swap1\n      tag_73\n      swap2\n      swap1\n      tag_65\n      jump\t// in\n    tag_73:\n      tag_74\n      jump\t// in\n    tag_72:\n      mload(0x40)\n      tag_75\n      swap3\n      swap2\n      swap1\n      tag_76\n      jump\t// in\n    tag_75:\n      mload(0x40)\n      dup1\n      swap2\n      sub\n      swap1\n      return\n        /* \"Uniswap/contracts/UniswapV2ERC20.sol\":306:346  string public constant symbol = 'UNI-V2' */\n    tag_15:\n      tag_77\n      tag_78\n      jump\t// in\n    tag_77:\n      mload(0x40)\n      tag_79\n      swap2\n      swap1\n      tag_31\n      jump\t// in\n    tag_79:\n      mload(0x40)\n      dup1\n      swap2\n      sub\n      swap1\n      return\n        /* \"Uniswap/contracts/UniswapV2ERC20.sol\":1585:1721  function transfer(address to, uint value) external returns (bool) {... */\n    tag_16:\n      tag_80\n      0x04\n      dup1\n      calldatasize\n      sub\n      dup2\n      add\n      swap1\n      tag_81\n      swap2\n      swap1\n      tag_38\n      jump\t// in\n    tag_81:\n      tag_82\n      jump\t// in\n    tag_80:\n      mload(0x40)\n      tag_83\n      swap2\n      swap1\n      tag_41\n      jump\t// in\n    tag_83:\n      mload(0x40)\n      dup1\n      swap2\n      sub\n      swap1\n      return\n        /* \"Uniswap/contracts/UniswapV2Pair.sol\":462:508  uint public constant MINIMUM_LIQUIDITY = 10**3 */\n    tag_17:\n      tag_84\n      tag_85\n      jump\t// in\n    tag_84:\n      mload(0x40)\n      tag_86\n      swap2\n      swap1\n      tag_49\n      jump\t// in\n    tag_86:\n      mload(0x40)\n      dup1\n      swap2\n      sub\n      swap1\n      return\n        /* \"Uniswap/contracts/UniswapV2Pair.sol\":609:631  address public factory */\n    tag_18:\n      tag_87\n      tag_88\n      jump\t// in\n    tag_87:\n      mload(0x40)\n      tag_89\n      swap2\n      swap1\n      tag_45\n      jump\t// in\n    tag_89:\n      mload(0x40)\n      dup1\n      swap2\n      sub\n      swap1\n      return\n        /* \"Uniswap/contracts/UniswapV2Pair.sol\":664:685  address public token1 */\n    tag_19:\n      tag_90\n      tag_91\n      jump\t// in\n    tag_90:\n      mload(0x40)\n      tag_92\n      swap2\n      swap1\n      tag_45\n      jump\t// in\n    tag_92:\n      mload(0x40)\n      dup1\n      swap2\n      sub\n      swap1\n      return\n        /* \"Uniswap/contracts/UniswapV2ERC20.sol\":471:532  mapping(address => mapping(address => uint)) public allowance */\n    tag_20:\n      tag_93\n      0x04\n      dup1\n      calldatasize\n      sub\n      dup2\n      add\n      swap1\n      tag_94\n      swap2\n      swap1\n      tag_61\n      jump\t// in\n    tag_94:\n      tag_95\n      jump\t// in\n    tag_93:\n      mload(0x40)\n      tag_96\n      swap2\n      swap1\n      tag_49\n      jump\t// in\n    tag_96:\n      mload(0x40)\n      dup1\n      swap2\n      sub\n      swap1\n      return\n        /* \"Uniswap/contracts/UniswapV2Pair.sol\":6178:8456  function swap(uint amount0Out, uint amount1Out, address to, bytes calldata data) external lock {... */\n    tag_27:\n        /* \"Uniswap/contracts/UniswapV2Pair.sol\":1018:1019  1 */\n      0x01\n        /* \"Uniswap/contracts/UniswapV2Pair.sol\":1006:1014  unlocked */\n      sload(0x07)\n        /* \"Uniswap/contracts/UniswapV2Pair.sol\":1006:1019  unlocked == 1 */\n      eq\n        /* \"Uniswap/contracts/UniswapV2Pair.sol\":998:1041  require(unlocked == 1, 'UniswapV2: LOCKED') */\n      tag_98\n      jumpi\n      mload(0x40)\n      0x08c379a000000000000000000000000000000000000000000000000000000000\n      dup2\n      mstore\n      0x04\n      add\n      tag_99\n      swap1\n      tag_100\n      jump\t// in\n    tag_99:\n      mload(0x40)\n      dup1\n      swap2\n      sub\n      swap1\n      revert\n    tag_98:\n        /* \"Uniswap/contracts/UniswapV2Pair.sol\":1062:1063  0 */\n      0x00\n        /* \"Uniswap/contracts/UniswapV2Pair.sol\":1051:1059  unlocked */\n      0x07\n        /* \"Uniswap/contracts/UniswapV2Pair.sol\":1051:1063  unlocked = 0 */\n      dup2\n      swap1\n      sstore\n      pop\n        /* \"Uniswap/contracts/UniswapV2Pair.sol\":6304:6305  0 */\n      0x00\n        /* \"Uniswap/contracts/UniswapV2Pair.sol\":6291:6301  amount0Out */\n      dup6\n        /* \"Uniswap/contracts/UniswapV2Pair.sol\":6291:6305  amount0Out > 0 */\n      gt\n        /* \"Uniswap/contracts/UniswapV2Pair.sol\":6291:6323  amount0Out > 0 || amount1Out > 0 */\n      dup1\n      tag_102\n      jumpi\n      pop\n        /* \"Uniswap/contracts/UniswapV2Pair.sol\":6322:6323  0 */\n      0x00\n        /* \"Uniswap/contracts/UniswapV2Pair.sol\":6309:6319  amount1Out */\n      dup5\n        /* \"Uniswap/contracts/UniswapV2Pair.sol\":6309:6323  amount1Out > 0 */\n      gt\n        /* \"Uniswap/contracts/UniswapV2Pair.sol\":6291:6323  amount0Out > 0 || amount1Out > 0 */\n    tag_102:\n        /* \"Uniswap/contracts/UniswapV2Pair.sol\":6283:6365  require(amount0Out > 0 || amount1Out > 0, 'UniswapV2: INSUFFICIENT_OUTPUT_AMOUNT') */\n      tag_103\n      jumpi\n      mload(0x40)\n      0x08c379a000000000000000000000000000000000000000000000000000000000\n      dup2\n      mstore\n      0x04\n      add\n      tag_104\n      swap1\n      tag_105\n      jump\t// in\n    tag_104:\n      mload(0x40)\n      dup1\n      swap2\n      sub\n      swap1\n      revert\n    tag_103:\n        /* \"Uniswap/contracts/UniswapV2Pair.sol\":6376:6393  uint112 _reserve0 */\n      0x00\n        /* \"Uniswap/contracts/UniswapV2Pair.sol\":6395:6412  uint112 _reserve1 */\n      dup1\n        /* \"Uniswap/contracts/UniswapV2Pair.sol\":6416:6429  getReserves() */\n      tag_106\n        /* \"Uniswap/contracts/UniswapV2Pair.sol\":6416:6427  getReserves */\n      tag_33\n        /* \"Uniswap/contracts/UniswapV2Pair.sol\":6416:6429  getReserves() */\n      jump\t// in\n    tag_106:\n        /* \"Uniswap/contracts/UniswapV2Pair.sol\":6375:6429  (uint112 _reserve0, uint112 _reserve1) = getReserves() */\n      swap2\n      pop\n      swap2\n      pop\n        /* \"Uniswap/contracts/UniswapV2Pair.sol\":6475:6484  _reserve0 */\n      dup2\n        /* \"Uniswap/contracts/UniswapV2Pair.sol\":6462:6484  amount0Out < _reserve0 */\n      0xffffffffffffffffffffffffffff\n      and\n        /* \"Uniswap/contracts/UniswapV2Pair.sol\":6462:6472  amount0Out */\n      dup8\n        /* \"Uniswap/contracts/UniswapV2Pair.sol\":6462:6484  amount0Out < _reserve0 */\n      lt\n        /* \"Uniswap/contracts/UniswapV2Pair.sol\":6462:6510  amount0Out < _reserve0 && amount1Out < _reserve1 */\n      dup1\n      iszero\n      tag_107\n      jumpi\n      pop\n        /* \"Uniswap/contracts/UniswapV2Pair.sol\":6501:6510  _reserve1 */\n      dup1\n        /* \"Uniswap/contracts/UniswapV2Pair.sol\":6488:6510  amount1Out < _reserve1 */\n      0xffffffffffffffffffffffffffff\n      and\n        /* \"Uniswap/contracts/UniswapV2Pair.sol\":6488:6498  amount1Out */\n      dup7\n        /* \"Uniswap/contracts/UniswapV2Pair.sol\":6488:6510  amount1Out < _reserve1 */\n      lt\n        /* \"Uniswap/contracts/UniswapV2Pair.sol\":6462:6510  amount0Out < _reserve0 && amount1Out < _reserve1 */\n    tag_107:\n        /* \"Uniswap/contracts/UniswapV2Pair.sol\":6454:6548  require(amount0Out < _reserve0 && amount1Out < _reserve1, 'UniswapV2: INSUFFICIENT_LIQUIDITY') */\n      tag_108\n      jumpi\n      mload(0x40)\n      0x08c379a000000000000000000000000000000000000000000000000000000000\n      dup2\n      mstore\n      0x04\n      add\n      tag_109\n      swap1\n      tag_110\n      jump\t// in\n    tag_109:\n      mload(0x40)\n      dup1\n      swap2\n      sub\n      swap1\n      revert\n    tag_108:\n        /* \"Uniswap/contracts/UniswapV2Pair.sol\":6559:6572  uint balance0 */\n      0x00\n        /* \"Uniswap/contracts/UniswapV2Pair.sol\":6582:6595  uint balance1 */\n      dup1\n        /* \"Uniswap/contracts/UniswapV2Pair.sol\":6675:6690  address _token0 */\n      0x00\n        /* \"Uniswap/contracts/UniswapV2Pair.sol\":6693:6699  token0 */\n      0x04\n      0x00\n      swap1\n      sload\n      swap1\n      0x0100\n      exp\n      swap1\n      div\n      0xffffffffffffffffffffffffffffffffffffffff\n      and\n        /* \"Uniswap/contracts/UniswapV2Pair.sol\":6675:6699  address _token0 = token0 */\n      swap1\n      pop\n        /* \"Uniswap/contracts/UniswapV2Pair.sol\":6713:6728  address _token1 */\n      0x00\n        /* \"Uniswap/contracts/UniswapV2Pair.sol\":6731:6737  token1 */\n      0x05\n      0x00\n      swap1\n      sload\n      swap1\n      0x0100\n      exp\n      swap1\n      div\n      0xffffffffffffffffffffffffffffffffffffffff\n      and\n        /* \"Uniswap/contracts/UniswapV2Pair.sol\":6713:6737  address _token1 = token1 */\n      swap1\n      pop\n        /* \"Uniswap/contracts/UniswapV2Pair.sol\":6765:6772  _token0 */\n      dup2\n        /* \"Uniswap/contracts/UniswapV2Pair.sol\":6759:6772  to != _token0 */\n      0xffffffffffffffffffffffffffffffffffffffff\n      and\n        /* \"Uniswap/contracts/UniswapV2Pair.sol\":6759:6761  to */\n      dup10\n        /* \"Uniswap/contracts/UniswapV2Pair.sol\":6759:6772  to != _token0 */\n      0xffffffffffffffffffffffffffffffffffffffff\n      and\n      eq\n      iszero\n        /* \"Uniswap/contracts/UniswapV2Pair.sol\":6759:6789  to != _token0 && to != _token1 */\n      dup1\n      iszero\n      tag_111\n      jumpi\n      pop\n        /* \"Uniswap/contracts/UniswapV2Pair.sol\":6782:6789  _token1 */\n      dup1\n        /* \"Uniswap/contracts/UniswapV2Pair.sol\":6776:6789  to != _token1 */\n      0xffffffffffffffffffffffffffffffffffffffff\n      and\n        /* \"Uniswap/contracts/UniswapV2Pair.sol\":6776:6778  to */\n      dup10\n        /* \"Uniswap/contracts/UniswapV2Pair.sol\":6776:6789  to != _token1 */\n      0xffffffffffffffffffffffffffffffffffffffff\n      and\n      eq\n      iszero\n        /* \"Uniswap/contracts/UniswapV2Pair.sol\":6759:6789  to != _token0 && to != _token1 */\n    tag_111:\n        /* \"Uniswap/contracts/UniswapV2Pair.sol\":6751:6815  require(to != _token0 && to != _token1, 'UniswapV2: INVALID_TO') */\n      tag_112\n      jumpi\n      mload(0x40)\n      0x08c379a000000000000000000000000000000000000000000000000000000000\n      dup2\n      mstore\n      0x04\n      add\n      tag_113\n      swap1\n      tag_114\n      jump\t// in\n    tag_113:\n      mload(0x40)\n      dup1\n      swap2\n      sub\n      swap1\n      revert\n    tag_112:\n        /* \"Uniswap/contracts/UniswapV2Pair.sol\":6883:6884  0 */\n      0x00\n        /* \"Uniswap/contracts/UniswapV2Pair.sol\":6870:6880  amount0Out */\n      dup12\n        /* \"Uniswap/contracts/UniswapV2Pair.sol\":6870:6884  amount0Out > 0 */\n      gt\n        /* \"Uniswap/contracts/UniswapV2Pair.sol\":6866:6924  if (amount0Out > 0) _safeTransfer(_token0, to, amount0Out) */\n      iszero\n      tag_115\n      jumpi\n        /* \"Uniswap/contracts/UniswapV2Pair.sol\":6886:6924  _safeTransfer(_token0, to, amount0Out) */\n      tag_116\n        /* \"Uniswap/contracts/UniswapV2Pair.sol\":6900:6907  _token0 */\n      dup3\n        /* \"Uniswap/contracts/UniswapV2Pair.sol\":6909:6911  to */\n      dup11\n        /* \"Uniswap/contracts/UniswapV2Pair.sol\":6913:6923  amount0Out */\n      dup14\n        /* \"Uniswap/contracts/UniswapV2Pair.sol\":6886:6899  _safeTransfer */\n      tag_117\n        /* \"Uniswap/contracts/UniswapV2Pair.sol\":6886:6924  _safeTransfer(_token0, to, amount0Out) */\n      jump\t// in\n    tag_116:\n        /* \"Uniswap/contracts/UniswapV2Pair.sol\":6866:6924  if (amount0Out > 0) _safeTransfer(_token0, to, amount0Out) */\n    tag_115:\n        /* \"Uniswap/contracts/UniswapV2Pair.sol\":6989:6990  0 */\n      0x00\n        /* \"Uniswap/contracts/UniswapV2Pair.sol\":6976:6986  amount1Out */\n      dup11\n        /* \"Uniswap/contracts/UniswapV2Pair.sol\":6976:6990  amount1Out > 0 */\n      gt\n        /* \"Uniswap/contracts/UniswapV2Pair.sol\":6972:7030  if (amount1Out > 0) _safeTransfer(_token1, to, amount1Out) */\n      iszero\n      tag_118\n      jumpi\n        /* \"Uniswap/contracts/UniswapV2Pair.sol\":6992:7030  _safeTransfer(_token1, to, amount1Out) */\n      tag_119\n        /* \"Uniswap/contracts/UniswapV2Pair.sol\":7006:7013  _token1 */\n      dup2\n        /* \"Uniswap/contracts/UniswapV2Pair.sol\":7015:7017  to */\n      dup11\n        /* \"Uniswap/contracts/UniswapV2Pair.sol\":7019:7029  amount1Out */\n      dup13\n        /* \"Uniswap/contracts/UniswapV2Pair.sol\":6992:7005  _safeTransfer */\n      tag_117\n        /* \"Uniswap/contracts/UniswapV2Pair.sol\":6992:7030  _safeTransfer(_token1, to, amount1Out) */\n      jump\t// in\n    tag_119:\n        /* \"Uniswap/contracts/UniswapV2Pair.sol\":6972:7030  if (amount1Out > 0) _safeTransfer(_token1, to, amount1Out) */\n    tag_118:\n        /* \"Uniswap/contracts/UniswapV2Pair.sol\":7161:7162  0 */\n      0x00\n        /* \"Uniswap/contracts/UniswapV2Pair.sol\":7147:7151  data */\n      dup9\n      dup9\n        /* \"Uniswap/contracts/UniswapV2Pair.sol\":7147:7158  data.length */\n      swap1\n      pop\n        /* \"Uniswap/contracts/UniswapV2Pair.sol\":7147:7162  data.length > 0 */\n      gt\n        /* \"Uniswap/contracts/UniswapV2Pair.sol\":7143:7240  if (data.length > 0) IUniswapV2Callee(to).uniswapV2Call(msg.sender, amount0Out, amount1Out, data) */\n      iszero\n      tag_120\n      jumpi\n        /* \"Uniswap/contracts/UniswapV2Pair.sol\":7181:7183  to */\n      dup9\n        /* \"Uniswap/contracts/UniswapV2Pair.sol\":7164:7198  IUniswapV2Callee(to).uniswapV2Call */\n      0xffffffffffffffffffffffffffffffffffffffff\n      and\n      0x10d1e85c\n        /* \"Uniswap/contracts/UniswapV2Pair.sol\":7199:7209  msg.sender */\n      caller\n        /* \"Uniswap/contracts/UniswapV2Pair.sol\":7211:7221  amount0Out */\n      dup14\n        /* \"Uniswap/contracts/UniswapV2Pair.sol\":7223:7233  amount1Out */\n      dup14\n        /* \"Uniswap/contracts/UniswapV2Pair.sol\":7235:7239  data */\n      dup13\n      dup13\n        /* \"Uniswap/contracts/UniswapV2Pair.sol\":7164:7240  IUniswapV2Callee(to).uniswapV2Call(msg.sender, amount0Out, amount1Out, data) */\n      mload(0x40)\n      dup7\n      0xffffffff\n      and\n      0xe0\n      shl\n      dup2\n      mstore\n      0x04\n      add\n      tag_121\n      swap6\n      swap5\n      swap4\n      swap3\n      swap2\n      swap1\n      tag_122\n      jump\t// in\n    tag_121:\n      0x00\n      mload(0x40)\n      dup1\n      dup4\n      sub\n      dup2\n      0x00\n      dup8\n      dup1\n      extcodesize\n      iszero\n      dup1\n      iszero\n      tag_123\n      jumpi\n      0x00\n      dup1\n      revert\n    tag_123:\n      pop\n      gas\n      call\n      iszero\n      dup1\n      iszero\n      tag_125\n      jumpi\n      returndatasize\n      0x00\n      dup1\n      returndatacopy\n      revert(0x00, returndatasize)\n    tag_125:\n      pop\n      pop\n      pop\n      pop\n        /* \"Uniswap/contracts/UniswapV2Pair.sol\":7143:7240  if (data.length > 0) IUniswapV2Callee(to).uniswapV2Call(msg.sender, amount0Out, amount1Out, data) */\n    tag_120:\n        /* \"Uniswap/contracts/UniswapV2Pair.sol\":7318:7325  _token0 */\n      dup2\n        /* \"Uniswap/contracts/UniswapV2Pair.sol\":7311:7336  IERC20(_token0).balanceOf */\n      0xffffffffffffffffffffffffffffffffffffffff\n      and\n      0x70a08231\n        /* \"Uniswap/contracts/UniswapV2Pair.sol\":7345:7349  this */\n      address\n        /* \"Uniswap/contracts/UniswapV2Pair.sol\":7311:7351  IERC20(_token0).balanceOf(address(this)) */\n      mload(0x40)\n      dup3\n      0xffffffff\n      and\n      0xe0\n      shl\n      dup2\n      mstore\n      0x04\n      add\n      tag_126\n      swap2\n      swap1\n      tag_45\n      jump\t// in\n    tag_126:\n      0x20\n      mload(0x40)\n      dup1\n      dup4\n      sub\n      dup2\n      dup7\n      gas\n      staticcall\n      iszero\n      dup1\n      iszero\n      tag_128\n      jumpi\n      returndatasize\n      0x00\n      dup1\n      returndatacopy\n      revert(0x00, returndatasize)\n    tag_128:\n      pop\n      pop\n      pop\n      pop\n      mload(0x40)\n      returndatasize\n      not(0x1f)\n      0x1f\n      dup3\n      add\n      and\n      dup3\n      add\n      dup1\n      0x40\n      mstore\n      pop\n      dup2\n      add\n      swap1\n      tag_129\n      swap2\n      swap1\n      tag_130\n      jump\t// in\n    tag_129:\n        /* \"Uniswap/contracts/UniswapV2Pair.sol\":7300:7351  balance0 = IERC20(_token0).balanceOf(address(this)) */\n      swap4\n      pop\n        /* \"Uniswap/contracts/UniswapV2Pair.sol\":7383:7390  _token1 */\n      dup1\n        /* \"Uniswap/contracts/UniswapV2Pair.sol\":7376:7401  IERC20(_token1).balanceOf */\n      0xffffffffffffffffffffffffffffffffffffffff\n      and\n      0x70a08231\n        /* \"Uniswap/contracts/UniswapV2Pair.sol\":7410:7414  this */\n      address\n        /* \"Uniswap/contracts/UniswapV2Pair.sol\":7376:7416  IERC20(_token1).balanceOf(address(this)) */\n      mload(0x40)\n      dup3\n      0xffffffff\n      and\n      0xe0\n      shl\n      dup2\n      mstore\n      0x04\n      add\n      tag_131\n      swap2\n      swap1\n      tag_45\n      jump\t// in\n    tag_131:\n      0x20\n      mload(0x40)\n      dup1\n      dup4\n      sub\n      dup2\n      dup7\n      gas\n      staticcall\n      iszero\n      dup1\n      iszero\n      tag_133\n      jumpi\n      returndatasize\n      0x00\n      dup1\n      returndatacopy\n      revert(0x00, returndatasize)\n    tag_133:\n      pop\n      pop\n      pop\n      pop\n      mload(0x40)\n      returndatasize\n      not(0x1f)\n      0x1f\n      dup3\n      add\n      and\n      dup3\n      add\n      dup1\n      0x40\n      mstore\n      pop\n      dup2\n      add\n      swap1\n      tag_134\n      swap2\n      swap1\n      tag_130\n      jump\t// in\n    tag_134:\n        /* \"Uniswap/contracts/UniswapV2Pair.sol\":7365:7416  balance1 = IERC20(_token1).balanceOf(address(this)) */\n      swap3\n      pop\n        /* \"Uniswap/contracts/UniswapV2Pair.sol\":6606:7427  { // scope for _token{0,1}, avoids stack too deep errors... */\n      pop\n      pop\n        /* \"Uniswap/contracts/UniswapV2Pair.sol\":7491:7505  uint amount0In */\n      0x00\n        /* \"Uniswap/contracts/UniswapV2Pair.sol\":7531:7541  amount0Out */\n      dup10\n        /* \"Uniswap/contracts/UniswapV2Pair.sol\":7519:7528  _reserve0 */\n      dup6\n        /* \"Uniswap/contracts/UniswapV2Pair.sol\":7519:7541  _reserve0 - amount0Out */\n      0xffffffffffffffffffffffffffff\n      and\n      tag_135\n      swap2\n      swap1\n      tag_136\n      jump\t// in\n    tag_135:\n        /* \"Uniswap/contracts/UniswapV2Pair.sol\":7508:7516  balance0 */\n      dup4\n        /* \"Uniswap/contracts/UniswapV2Pair.sol\":7508:7541  balance0 > _reserve0 - amount0Out */\n      gt\n        /* \"Uniswap/contracts/UniswapV2Pair.sol\":7508:7583  balance0 > _reserve0 - amount0Out ? balance0 - (_reserve0 - amount0Out) : 0 */\n      tag_137\n      jumpi\n        /* \"Uniswap/contracts/UniswapV2Pair.sol\":7582:7583  0 */\n      0x00\n        /* \"Uniswap/contracts/UniswapV2Pair.sol\":7508:7583  balance0 > _reserve0 - amount0Out ? balance0 - (_reserve0 - amount0Out) : 0 */\n      jump(tag_138)\n    tag_137:\n        /* \"Uniswap/contracts/UniswapV2Pair.sol\":7568:7578  amount0Out */\n      dup10\n        /* \"Uniswap/contracts/UniswapV2Pair.sol\":7556:7565  _reserve0 */\n      dup6\n        /* \"Uniswap/contracts/UniswapV2Pair.sol\":7556:7578  _reserve0 - amount0Out */\n      0xffffffffffffffffffffffffffff\n      and\n      tag_139\n      swap2\n      swap1\n      tag_136\n      jump\t// in\n    tag_139:\n        /* \"Uniswap/contracts/UniswapV2Pair.sol\":7544:7552  balance0 */\n      dup4\n        /* \"Uniswap/contracts/UniswapV2Pair.sol\":7544:7579  balance0 - (_reserve0 - amount0Out) */\n      tag_140\n      swap2\n      swap1\n      tag_136\n      jump\t// in\n    tag_140:\n        /* \"Uniswap/contracts/UniswapV2Pair.sol\":7508:7583  balance0 > _reserve0 - amount0Out ? balance0 - (_reserve0 - amount0Out) : 0 */\n    tag_138:\n        /* \"Uniswap/contracts/UniswapV2Pair.sol\":7491:7583  uint amount0In = balance0 > _reserve0 - amount0Out ? balance0 - (_reserve0 - amount0Out) : 0 */\n      swap1\n      pop\n        /* \"Uniswap/contracts/UniswapV2Pair.sol\":7593:7607  uint amount1In */\n      0x00\n        /* \"Uniswap/contracts/UniswapV2Pair.sol\":7633:7643  amount1Out */\n      dup10\n        /* \"Uniswap/contracts/UniswapV2Pair.sol\":7621:7630  _reserve1 */\n      dup6\n        /* \"Uniswap/contracts/UniswapV2Pair.sol\":7621:7643  _reserve1 - amount1Out */\n      0xffffffffffffffffffffffffffff\n      and\n      tag_141\n      swap2\n      swap1\n      tag_136\n      jump\t// in\n    tag_141:\n        /* \"Uniswap/contracts/UniswapV2Pair.sol\":7610:7618  balance1 */\n      dup4\n        /* \"Uniswap/contracts/UniswapV2Pair.sol\":7610:7643  balance1 > _reserve1 - amount1Out */\n      gt\n        /* \"Uniswap/contracts/UniswapV2Pair.sol\":7610:7685  balance1 > _reserve1 - amount1Out ? balance1 - (_reserve1 - amount1Out) : 0 */\n      tag_142\n      jumpi\n        /* \"Uniswap/contracts/UniswapV2Pair.sol\":7684:7685  0 */\n      0x00\n        /* \"Uniswap/contracts/UniswapV2Pair.sol\":7610:7685  balance1 > _reserve1 - amount1Out ? balance1 - (_reserve1 - amount1Out) : 0 */\n      jump(tag_143)\n    tag_142:\n        /* \"Uniswap/contracts/UniswapV2Pair.sol\":7670:7680  amount1Out */\n      dup10\n        /* \"Uniswap/contracts/UniswapV2Pair.sol\":7658:7667  _reserve1 */\n      dup6\n        /* \"Uniswap/contracts/UniswapV2Pair.sol\":7658:7680  _reserve1 - amount1Out */\n      0xffffffffffffffffffffffffffff\n      and\n      tag_144\n      swap2\n      swap1\n      tag_136\n      jump\t// in\n    tag_144:\n        /* \"Uniswap/contracts/UniswapV2Pair.sol\":7646:7654  balance1 */\n      dup4\n        /* \"Uniswap/contracts/UniswapV2Pair.sol\":7646:7681  balance1 - (_reserve1 - amount1Out) */\n      tag_145\n      swap2\n      swap1\n      tag_136\n      jump\t// in\n    tag_145:\n        /* \"Uniswap/contracts/UniswapV2Pair.sol\":7610:7685  balance1 > _reserve1 - amount1Out ? balance1 - (_reserve1 - amount1Out) : 0 */\n    tag_143:\n        /* \"Uniswap/contracts/UniswapV2Pair.sol\":7593:7685  uint amount1In = balance1 > _reserve1 - amount1Out ? balance1 - (_reserve1 - amount1Out) : 0 */\n      swap1\n      pop\n        /* \"Uniswap/contracts/UniswapV2Pair.sol\":7715:7716  0 */\n      0x00\n        /* \"Uniswap/contracts/UniswapV2Pair.sol\":7703:7712  amount0In */\n      dup3\n        /* \"Uniswap/contracts/UniswapV2Pair.sol\":7703:7716  amount0In > 0 */\n      gt\n        /* \"Uniswap/contracts/UniswapV2Pair.sol\":7703:7733  amount0In > 0 || amount1In > 0 */\n      dup1\n      tag_146\n      jumpi\n      pop\n        /* \"Uniswap/contracts/UniswapV2Pair.sol\":7732:7733  0 */\n      0x00\n        /* \"Uniswap/contracts/UniswapV2Pair.sol\":7720:7729  amount1In */\n      dup2\n        /* \"Uniswap/contracts/UniswapV2Pair.sol\":7720:7733  amount1In > 0 */\n      gt\n        /* \"Uniswap/contracts/UniswapV2Pair.sol\":7703:7733  amount0In > 0 || amount1In > 0 */\n    tag_146:\n        /* \"Uniswap/contracts/UniswapV2Pair.sol\":7695:7774  require(amount0In > 0 || amount1In > 0, 'UniswapV2: INSUFFICIENT_INPUT_AMOUNT') */\n      tag_147\n      jumpi\n      mload(0x40)\n      0x08c379a000000000000000000000000000000000000000000000000000000000\n      dup2\n      mstore\n      0x04\n      add\n      tag_148\n      swap1\n      tag_149\n      jump\t// in\n    tag_148:\n      mload(0x40)\n      dup1\n      swap2\n      sub\n      swap1\n      revert\n    tag_147:\n        /* \"Uniswap/contracts/UniswapV2Pair.sol\":7937:7958  uint balance0Adjusted */\n      0x00\n        /* \"Uniswap/contracts/UniswapV2Pair.sol\":7961:8001  balance0.mul(1000).sub(amount0In.mul(3)) */\n      tag_150\n        /* \"Uniswap/contracts/UniswapV2Pair.sol\":7984:8000  amount0In.mul(3) */\n      tag_151\n        /* \"Uniswap/contracts/UniswapV2Pair.sol\":7998:7999  3 */\n      0x03\n        /* \"Uniswap/contracts/UniswapV2Pair.sol\":7984:7993  amount0In */\n      dup6\n        /* \"Uniswap/contracts/UniswapV2Pair.sol\":7984:7997  amount0In.mul */\n      tag_152\n      swap1\n        /* \"Uniswap/contracts/UniswapV2Pair.sol\":7984:8000  amount0In.mul(3) */\n      swap2\n      swap1\n      0xffffffff\n      and\n      jump\t// in\n    tag_151:\n        /* \"Uniswap/contracts/UniswapV2Pair.sol\":7961:7979  balance0.mul(1000) */\n      tag_153\n        /* \"Uniswap/contracts/UniswapV2Pair.sol\":7974:7978  1000 */\n      0x03e8\n        /* \"Uniswap/contracts/UniswapV2Pair.sol\":7961:7969  balance0 */\n      dup9\n        /* \"Uniswap/contracts/UniswapV2Pair.sol\":7961:7973  balance0.mul */\n      tag_152\n      swap1\n        /* \"Uniswap/contracts/UniswapV2Pair.sol\":7961:7979  balance0.mul(1000) */\n      swap2\n      swap1\n      0xffffffff\n      and\n      jump\t// in\n    tag_153:\n        /* \"Uniswap/contracts/UniswapV2Pair.sol\":7961:7983  balance0.mul(1000).sub */\n      tag_154\n      swap1\n        /* \"Uniswap/contracts/UniswapV2Pair.sol\":7961:8001  balance0.mul(1000).sub(amount0In.mul(3)) */\n      swap2\n      swap1\n      0xffffffff\n      and\n      jump\t// in\n    tag_150:\n        /* \"Uniswap/contracts/UniswapV2Pair.sol\":7937:8001  uint balance0Adjusted = balance0.mul(1000).sub(amount0In.mul(3)) */\n      swap1\n      pop\n        /* \"Uniswap/contracts/UniswapV2Pair.sol\":8015:8036  uint balance1Adjusted */\n      0x00\n        /* \"Uniswap/contracts/UniswapV2Pair.sol\":8039:8079  balance1.mul(1000).sub(amount1In.mul(3)) */\n      tag_155\n        /* \"Uniswap/contracts/UniswapV2Pair.sol\":8062:8078  amount1In.mul(3) */\n      tag_156\n        /* \"Uniswap/contracts/UniswapV2Pair.sol\":8076:8077  3 */\n      0x03\n        /* \"Uniswap/contracts/UniswapV2Pair.sol\":8062:8071  amount1In */\n      dup6\n        /* \"Uniswap/contracts/UniswapV2Pair.sol\":8062:8075  amount1In.mul */\n      tag_152\n      swap1\n        /* \"Uniswap/contracts/UniswapV2Pair.sol\":8062:8078  amount1In.mul(3) */\n      swap2\n      swap1\n      0xffffffff\n      and\n      jump\t// in\n    tag_156:\n        /* \"Uniswap/contracts/UniswapV2Pair.sol\":8039:8057  balance1.mul(1000) */\n      tag_157\n        /* \"Uniswap/contracts/UniswapV2Pair.sol\":8052:8056  1000 */\n      0x03e8\n        /* \"Uniswap/contracts/UniswapV2Pair.sol\":8039:8047  balance1 */\n      dup9\n        /* \"Uniswap/contracts/UniswapV2Pair.sol\":8039:8051  balance1.mul */\n      tag_152\n      swap1\n        /* \"Uniswap/contracts/UniswapV2Pair.sol\":8039:8057  balance1.mul(1000) */\n      swap2\n      swap1\n      0xffffffff\n      and\n      jump\t// in\n    tag_157:\n        /* \"Uniswap/contracts/UniswapV2Pair.sol\":8039:8061  balance1.mul(1000).sub */\n      tag_154\n      swap1\n        /* \"Uniswap/contracts/UniswapV2Pair.sol\":8039:8079  balance1.mul(1000).sub(amount1In.mul(3)) */\n      swap2\n      swap1\n      0xffffffff\n      and\n      jump\t// in\n    tag_155:\n        /* \"Uniswap/contracts/UniswapV2Pair.sol\":8015:8079  uint balance1Adjusted = balance1.mul(1000).sub(amount1In.mul(3)) */\n      swap1\n      pop\n        /* \"Uniswap/contracts/UniswapV2Pair.sol\":8260:8303  uint(_reserve0).mul(_reserve1).mul(1000**2) */\n      tag_158\n        /* \"Uniswap/contracts/UniswapV2Pair.sol\":8295:8302  1000**2 */\n      0x0f4240\n        /* \"Uniswap/contracts/UniswapV2Pair.sol\":8260:8290  uint(_reserve0).mul(_reserve1) */\n      tag_159\n        /* \"Uniswap/contracts/UniswapV2Pair.sol\":8280:8289  _reserve1 */\n      dup10\n        /* \"Uniswap/contracts/UniswapV2Pair.sol\":8260:8290  uint(_reserve0).mul(_reserve1) */\n      0xffffffffffffffffffffffffffff\n      and\n        /* \"Uniswap/contracts/UniswapV2Pair.sol\":8265:8274  _reserve0 */\n      dup12\n        /* \"Uniswap/contracts/UniswapV2Pair.sol\":8260:8275  uint(_reserve0) */\n      0xffffffffffffffffffffffffffff\n      and\n        /* \"Uniswap/contracts/UniswapV2Pair.sol\":8260:8279  uint(_reserve0).mul */\n      tag_152\n      swap1\n        /* \"Uniswap/contracts/UniswapV2Pair.sol\":8260:8290  uint(_reserve0).mul(_reserve1) */\n      swap2\n      swap1\n      0xffffffff\n      and\n      jump\t// in\n    tag_159:\n        /* \"Uniswap/contracts/UniswapV2Pair.sol\":8260:8294  uint(_reserve0).mul(_reserve1).mul */\n      tag_152\n      swap1\n        /* \"Uniswap/contracts/UniswapV2Pair.sol\":8260:8303  uint(_reserve0).mul(_reserve1).mul(1000**2) */\n      swap2\n      swap1\n      0xffffffff\n      and\n      jump\t// in\n    tag_158:\n        /* \"Uniswap/contracts/UniswapV2Pair.sol\":8218:8256  balance0Adjusted.mul(balance1Adjusted) */\n      tag_160\n        /* \"Uniswap/contracts/UniswapV2Pair.sol\":8239:8255  balance1Adjusted */\n      dup3\n        /* \"Uniswap/contracts/UniswapV2Pair.sol\":8218:8234  balance0Adjusted */\n      dup5\n        /* \"Uniswap/contracts/UniswapV2Pair.sol\":8218:8238  balance0Adjusted.mul */\n      tag_152\n      swap1\n        /* \"Uniswap/contracts/UniswapV2Pair.sol\":8218:8256  balance0Adjusted.mul(balance1Adjusted) */\n      swap2\n      swap1\n      0xffffffff\n      and\n      jump\t// in\n    tag_160:\n        /* \"Uniswap/contracts/UniswapV2Pair.sol\":8218:8303  balance0Adjusted.mul(balance1Adjusted) >= uint(_reserve0).mul(_reserve1).mul(1000**2) */\n      lt\n      iszero\n        /* \"Uniswap/contracts/UniswapV2Pair.sol\":8210:8320  require(balance0Adjusted.mul(balance1Adjusted) >= uint(_reserve0).mul(_reserve1).mul(1000**2), 'UniswapV2: K') */\n      tag_161\n      jumpi\n      mload(0x40)\n      0x08c379a000000000000000000000000000000000000000000000000000000000\n      dup2\n      mstore\n      0x04\n      add\n      tag_162\n      swap1\n      tag_163\n      jump\t// in\n    tag_162:\n      mload(0x40)\n      dup1\n      swap2\n      sub\n      swap1\n      revert\n    tag_161:\n        /* \"Uniswap/contracts/UniswapV2Pair.sol\":7859:8331  { // scope for reserve{0,1}Adjusted, avoids stack too deep errors... */\n      pop\n      pop\n        /* \"Uniswap/contracts/UniswapV2Pair.sol\":8341:8368  _update(balance0, balance1) */\n      tag_164\n        /* \"Uniswap/contracts/UniswapV2Pair.sol\":8349:8357  balance0 */\n      dup5\n        /* \"Uniswap/contracts/UniswapV2Pair.sol\":8359:8367  balance1 */\n      dup5\n        /* \"Uniswap/contracts/UniswapV2Pair.sol\":8341:8348  _update */\n      tag_165\n        /* \"Uniswap/contracts/UniswapV2Pair.sol\":8341:8368  _update(balance0, balance1) */\n      jump\t// in\n    tag_164:\n        /* \"Uniswap/contracts/UniswapV2Pair.sol\":8446:8448  to */\n      dup9\n        /* \"Uniswap/contracts/UniswapV2Pair.sol\":8383:8449  Swap(msg.sender, amount0In, amount1In, amount0Out, amount1Out, to) */\n      0xffffffffffffffffffffffffffffffffffffffff\n      and\n        /* \"Uniswap/contracts/UniswapV2Pair.sol\":8388:8398  msg.sender */\n      caller\n        /* \"Uniswap/contracts/UniswapV2Pair.sol\":8383:8449  Swap(msg.sender, amount0In, amount1In, amount0Out, amount1Out, to) */\n      0xffffffffffffffffffffffffffffffffffffffff\n      and\n      0xd78ad95fa46c994b6551d0da85fc275fe613ce37657fb8d5e3d130840159d822\n        /* \"Uniswap/contracts/UniswapV2Pair.sol\":8400:8409  amount0In */\n      dup5\n        /* \"Uniswap/contracts/UniswapV2Pair.sol\":8411:8420  amount1In */\n      dup5\n        /* \"Uniswap/contracts/UniswapV2Pair.sol\":8422:8432  amount0Out */\n      dup16\n        /* \"Uniswap/contracts/UniswapV2Pair.sol\":8434:8444  amount1Out */\n      dup16\n        /* \"Uniswap/contracts/UniswapV2Pair.sol\":8383:8449  Swap(msg.sender, amount0In, amount1In, amount0Out, amount1Out, to) */\n      mload(0x40)\n      tag_166\n      swap5\n      swap4\n      swap3\n      swap2\n      swap1\n      tag_167\n      jump\t// in\n    tag_166:\n      mload(0x40)\n      dup1\n      swap2\n      sub\n      swap1\n      log3\n        /* \"Uniswap/contracts/UniswapV2Pair.sol\":6273:8456  {... */\n      pop\n      pop\n      pop\n      pop\n      pop\n      pop\n        /* \"Uniswap/contracts/UniswapV2Pair.sol\":1095:1096  1 */\n      0x01\n        /* \"Uniswap/contracts/UniswapV2Pair.sol\":1084:1092  unlocked */\n      0x07\n        /* \"Uniswap/contracts/UniswapV2Pair.sol\":1084:1096  unlocked = 1 */\n      dup2\n      swap1\n      sstore\n      pop\n        /* \"Uniswap/contracts/UniswapV2Pair.sol\":6178:8456  function swap(uint amount0Out, uint amount1Out, address to, bytes calldata data) external lock {... */\n      pop\n      pop\n      pop\n      pop\n      pop\n      jump\t// out\n        /* \"Uniswap/contracts/UniswapV2ERC20.sol\":258:300  string public constant name = 'Uniswap V2' */\n    tag_29:\n      mload(0x40)\n      dup1\n      0x40\n      add\n      0x40\n      mstore\n      dup1\n      0x0a\n      dup2\n      mstore\n      0x20\n      add\n      0x556e697377617020563200000000000000000000000000000000000000000000\n      dup2\n      mstore\n      pop\n      dup2\n      jump\t// out\n        /* \"Uniswap/contracts/UniswapV2Pair.sol\":1109:1258  function getReserves() public view returns (uint112 _reserve0, uint112 _reserve1) {... */\n    tag_33:\n        /* \"Uniswap/contracts/UniswapV2Pair.sol\":1153:1170  uint112 _reserve0 */\n      0x00\n        /* \"Uniswap/contracts/UniswapV2Pair.sol\":1172:1189  uint112 _reserve1 */\n      dup1\n        /* \"Uniswap/contracts/UniswapV2Pair.sol\":1213:1221  reserve0 */\n      0x06\n      0x00\n      swap1\n      sload\n      swap1\n      0x0100\n      exp\n      swap1\n      div\n      0xffffffffffffffffffffffffffff\n      and\n        /* \"Uniswap/contracts/UniswapV2Pair.sol\":1201:1221  _reserve0 = reserve0 */\n      swap2\n      pop\n        /* \"Uniswap/contracts/UniswapV2Pair.sol\":1243:1251  reserve1 */\n      0x06\n      0x0e\n      swap1\n      sload\n      swap1\n      0x0100\n      exp\n      swap1\n      div\n      0xffffffffffffffffffffffffffff\n      and\n        /* \"Uniswap/contracts/UniswapV2Pair.sol\":1231:1251  _reserve1 = reserve1 */\n      swap1\n      pop\n        /* \"Uniswap/contracts/UniswapV2Pair.sol\":1109:1258  function getReserves() public view returns (uint112 _reserve0, uint112 _reserve1) {... */\n      swap1\n      swap2\n      jump\t// out\n        /* \"Uniswap/contracts/UniswapV2ERC20.sol\":1435:1579  function approve(address spender, uint value) external returns (bool) {... */\n    tag_39:\n        /* \"Uniswap/contracts/UniswapV2ERC20.sol\":1499:1503  bool */\n      0x00\n        /* \"Uniswap/contracts/UniswapV2ERC20.sol\":1515:1551  _approve(msg.sender, spender, value) */\n      tag_170\n        /* \"Uniswap/contracts/UniswapV2ERC20.sol\":1524:1534  msg.sender */\n      caller\n        /* \"Uniswap/contracts/UniswapV2ERC20.sol\":1536:1543  spender */\n      dup5\n        /* \"Uniswap/contracts/UniswapV2ERC20.sol\":1545:1550  value */\n      dup5\n        /* \"Uniswap/contracts/UniswapV2ERC20.sol\":1515:1523  _approve */\n      tag_171\n        /* \"Uniswap/contracts/UniswapV2ERC20.sol\":1515:1551  _approve(msg.sender, spender, value) */\n      jump\t// in\n    tag_170:\n        /* \"Uniswap/contracts/UniswapV2ERC20.sol\":1568:1572  true */\n      0x01\n        /* \"Uniswap/contracts/UniswapV2ERC20.sol\":1561:1572  return true */\n      swap1\n      pop\n        /* \"Uniswap/contracts/UniswapV2ERC20.sol\":1435:1579  function approve(address spender, uint value) external returns (bool) {... */\n      swap3\n      swap2\n      pop\n      pop\n      jump\t// out\n        /* \"Uniswap/contracts/UniswapV2Pair.sol\":637:658  address public token0 */\n    tag_43:\n      0x04\n      0x00\n      swap1\n      sload\n      swap1\n      0x0100\n      exp\n      swap1\n      div\n      0xffffffffffffffffffffffffffffffffffffffff\n      and\n      dup2\n      jump\t// out\n        /* \"Uniswap/contracts/UniswapV2ERC20.sol\":393:417  uint  public totalSupply */\n    tag_47:\n      sload(0x00)\n      dup2\n      jump\t// out\n        /* \"Uniswap/contracts/UniswapV2ERC20.sol\":1727:2028  function transferFrom(address from, address to, uint value) external returns (bool) {... */\n    tag_53:\n        /* \"Uniswap/contracts/UniswapV2ERC20.sol\":1805:1809  bool */\n      0x00\n        /* \"Uniswap/contracts/UniswapV2ERC20.sol\":1856:1870  type(uint).max */\n      0xffffffffffffffffffffffffffffffffffffffffffffffffffffffffffffffff\n        /* \"Uniswap/contracts/UniswapV2ERC20.sol\":1825:1834  allowance */\n      0x02\n        /* \"Uniswap/contracts/UniswapV2ERC20.sol\":1825:1840  allowance[from] */\n      0x00\n        /* \"Uniswap/contracts/UniswapV2ERC20.sol\":1835:1839  from */\n      dup7\n        /* \"Uniswap/contracts/UniswapV2ERC20.sol\":1825:1840  allowance[from] */\n      0xffffffffffffffffffffffffffffffffffffffff\n      and\n      0xffffffffffffffffffffffffffffffffffffffff\n      and\n      dup2\n      mstore\n      0x20\n      add\n      swap1\n      dup2\n      mstore\n      0x20\n      add\n      0x00\n      keccak256\n        /* \"Uniswap/contracts/UniswapV2ERC20.sol\":1825:1852  allowance[from][msg.sender] */\n      0x00\n        /* \"Uniswap/contracts/UniswapV2ERC20.sol\":1841:1851  msg.sender */\n      caller\n        /* \"Uniswap/contracts/UniswapV2ERC20.sol\":1825:1852  allowance[from][msg.sender] */\n      0xffffffffffffffffffffffffffffffffffffffff\n      and\n      0xffffffffffffffffffffffffffffffffffffffff\n      and\n      dup2\n      mstore\n      0x20\n      add\n      swap1\n      dup2\n      mstore\n      0x20\n      add\n      0x00\n      keccak256\n      sload\n        /* \"Uniswap/contracts/UniswapV2ERC20.sol\":1825:1870  allowance[from][msg.sender] != type(uint).max */\n      eq\n        /* \"Uniswap/contracts/UniswapV2ERC20.sol\":1821:1965  if (allowance[from][msg.sender] != type(uint).max) {... */\n      tag_173\n      jumpi\n        /* \"Uniswap/contracts/UniswapV2ERC20.sol\":1916:1954  allowance[from][msg.sender].sub(value) */\n      tag_174\n        /* \"Uniswap/contracts/UniswapV2ERC20.sol\":1948:1953  value */\n      dup3\n        /* \"Uniswap/contracts/UniswapV2ERC20.sol\":1916:1925  allowance */\n      0x02\n        /* \"Uniswap/contracts/UniswapV2ERC20.sol\":1916:1931  allowance[from] */\n      0x00\n        /* \"Uniswap/contracts/UniswapV2ERC20.sol\":1926:1930  from */\n      dup8\n        /* \"Uniswap/contracts/UniswapV2ERC20.sol\":1916:1931  allowance[from] */\n      0xffffffffffffffffffffffffffffffffffffffff\n      and\n      0xffffffffffffffffffffffffffffffffffffffff\n      and\n      dup2\n      mstore\n      0x20\n      add\n      swap1\n      dup2\n      mstore\n      0x20\n      add\n      0x00\n      keccak256\n        /* \"Uniswap/contracts/UniswapV2ERC20.sol\":1916:1943  allowance[from][msg.sender] */\n      0x00\n        /* \"Uniswap/contracts/UniswapV2ERC20.sol\":1932:1942  msg.sender */\n      caller\n        /* \"Uniswap/contracts/UniswapV2ERC20.sol\":1916:1943  allowance[from][msg.sender] */\n      0xffffffffffffffffffffffffffffffffffffffff\n      and\n      0xffffffffffffffffffffffffffffffffffffffff\n      and\n      dup2\n      mstore\n      0x20\n      add\n      swap1\n      dup2\n      mstore\n      0x20\n      add\n      0x00\n      keccak256\n      sload\n        /* \"Uniswap/contracts/UniswapV2ERC20.sol\":1916:1947  allowance[from][msg.sender].sub */\n      tag_154\n      swap1\n        /* \"Uniswap/contracts/UniswapV2ERC20.sol\":1916:1954  allowance[from][msg.sender].sub(value) */\n      swap2\n      swap1\n      0xffffffff\n      and\n      jump\t// in\n    tag_174:\n        /* \"Uniswap/contracts/UniswapV2ERC20.sol\":1886:1895  allowance */\n      0x02\n        /* \"Uniswap/contracts/UniswapV2ERC20.sol\":1886:1901  allowance[from] */\n      0x00\n        /* \"Uniswap/contracts/UniswapV2ERC20.sol\":1896:1900  from */\n      dup7\n        /* \"Uniswap/contracts/UniswapV2ERC20.sol\":1886:1901  allowance[from] */\n      0xffffffffffffffffffffffffffffffffffffffff\n      and\n      0xffffffffffffffffffffffffffffffffffffffff\n      and\n      dup2\n      mstore\n      0x20\n      add\n      swap1\n      dup2\n      mstore\n      0x20\n      add\n      0x00\n      keccak256\n        /* \"Uniswap/contracts/UniswapV2ERC20.sol\":1886:1913  allowance[from][msg.sender] */\n      0x00\n        /* \"Uniswap/contracts/UniswapV2ERC20.sol\":1902:1912  msg.sender */\n      caller\n        /* \"Uniswap/contracts/UniswapV2ERC20.sol\":1886:1913  allowance[from][msg.sender] */\n      0xffffffffffffffffffffffffffffffffffffffff\n      and\n      0xffffffffffffffffffffffffffffffffffffffff\n      and\n      dup2\n      mstore\n      0x20\n      add\n      swap1\n      dup2\n      mstore\n      0x20\n      add\n      0x00\n      keccak256\n        /* \"Uniswap/contracts/UniswapV2ERC20.sol\":1886:1954  allowance[from][msg.sender] = allowance[from][msg.sender].sub(value) */\n      dup2\n      swap1\n      sstore\n      pop\n        /* \"Uniswap/contracts/UniswapV2ERC20.sol\":1821:1965  if (allowance[from][msg.sender] != type(uint).max) {... */\n    tag_173:\n        /* \"Uniswap/contracts/UniswapV2ERC20.sol\":1974:2000  _transfer(from, to, value) */\n      tag_175\n        /* \"Uniswap/contracts/UniswapV2ERC20.sol\":1984:1988  from */\n      dup5\n        /* \"Uniswap/contracts/UniswapV2ERC20.sol\":1990:1992  to */\n      dup5\n        /* \"Uniswap/contracts/UniswapV2ERC20.sol\":1994:1999  value */\n      dup5\n        /* \"Uniswap/contracts/UniswapV2ERC20.sol\":1974:1983  _transfer */\n      tag_176\n        /* \"Uniswap/contracts/UniswapV2ERC20.sol\":1974:2000  _transfer(from, to, value) */\n      jump\t// in\n    tag_175:\n        /* \"Uniswap/contracts/UniswapV2ERC20.sol\":2017:2021  true */\n      0x01\n        /* \"Uniswap/contracts/UniswapV2ERC20.sol\":2010:2021  return true */\n      swap1\n      pop\n        /* \"Uniswap/contracts/UniswapV2ERC20.sol\":1727:2028  function transferFrom(address from, address to, uint value) external returns (bool) {... */\n      swap4\n      swap3\n      pop\n      pop\n      pop\n      jump\t// out\n        /* \"Uniswap/contracts/UniswapV2ERC20.sol\":352:387  uint8 public constant decimals = 18 */\n    tag_56:\n        /* \"Uniswap/contracts/UniswapV2ERC20.sol\":385:387  18 */\n      0x12\n        /* \"Uniswap/contracts/UniswapV2ERC20.sol\":352:387  uint8 public constant decimals = 18 */\n      dup2\n      jump\t// out\n        /* \"Uniswap/contracts/UniswapV2Pair.sol\":2000:2206  function initialize(address _token0, address _token1) external {... */\n    tag_62:\n        /* \"Uniswap/contracts/UniswapV2Pair.sol\":2095:2102  factory */\n      0x03\n      0x00\n      swap1\n      sload\n      swap1\n      0x0100\n      exp\n      swap1\n      div\n      0xffffffffffffffffffffffffffffffffffffffff\n      and\n        /* \"Uniswap/contracts/UniswapV2Pair.sol\":2081:2102  msg.sender == factory */\n      0xffffffffffffffffffffffffffffffffffffffff\n      and\n        /* \"Uniswap/contracts/UniswapV2Pair.sol\":2081:2091  msg.sender */\n      caller\n        /* \"Uniswap/contracts/UniswapV2Pair.sol\":2081:2102  msg.sender == factory */\n      0xffffffffffffffffffffffffffffffffffffffff\n      and\n      eq\n        /* \"Uniswap/contracts/UniswapV2Pair.sol\":2073:2127  require(msg.sender == factory, 'UniswapV2: FORBIDDEN') */\n      tag_178\n      jumpi\n      mload(0x40)\n      0x08c379a000000000000000000000000000000000000000000000000000000000\n      dup2\n      mstore\n      0x04\n      add\n      tag_179\n      swap1\n      tag_180\n      jump\t// in\n    tag_179:\n      mload(0x40)\n      dup1\n      swap2\n      sub\n      swap1\n      revert\n    tag_178:\n        /* \"Uniswap/contracts/UniswapV2Pair.sol\":2166:2173  _token0 */\n      dup2\n        /* \"Uniswap/contracts/UniswapV2Pair.sol\":2157:2163  token0 */\n      0x04\n      0x00\n        /* \"Uniswap/contracts/UniswapV2Pair.sol\":2157:2173  token0 = _token0 */\n      0x0100\n      exp\n      dup2\n      sload\n      dup2\n      0xffffffffffffffffffffffffffffffffffffffff\n      mul\n      not\n      and\n      swap1\n      dup4\n      0xffffffffffffffffffffffffffffffffffffffff\n      and\n      mul\n      or\n      swap1\n      sstore\n      pop\n        /* \"Uniswap/contracts/UniswapV2Pair.sol\":2192:2199  _token1 */\n      dup1\n        /* \"Uniswap/contracts/UniswapV2Pair.sol\":2183:2189  token1 */\n      0x05\n      0x00\n        /* \"Uniswap/contracts/UniswapV2Pair.sol\":2183:2199  token1 = _token1 */\n      0x0100\n      exp\n      dup2\n      sload\n      dup2\n      0xffffffffffffffffffffffffffffffffffffffff\n      mul\n      not\n      and\n      swap1\n      dup4\n      0xffffffffffffffffffffffffffffffffffffffff\n      and\n      mul\n      or\n      swap1\n      sstore\n      pop\n        /* \"Uniswap/contracts/UniswapV2Pair.sol\":2000:2206  function initialize(address _token0, address _token1) external {... */\n      pop\n      pop\n      jump\t// out\n        /* \"Uniswap/contracts/UniswapV2Pair.sol\":2780:4398  function mint(address to) external lock returns (uint liquidity) {... */\n    tag_66:\n        /* \"Uniswap/contracts/UniswapV2Pair.sol\":2829:2843  uint liquidity */\n      0x00\n        /* \"Uniswap/contracts/UniswapV2Pair.sol\":1018:1019  1 */\n      0x01\n        /* \"Uniswap/contracts/UniswapV2Pair.sol\":1006:1014  unlocked */\n      sload(0x07)\n        /* \"Uniswap/contracts/UniswapV2Pair.sol\":1006:1019  unlocked == 1 */\n      eq\n        /* \"Uniswap/contracts/UniswapV2Pair.sol\":998:1041  require(unlocked == 1, 'UniswapV2: LOCKED') */\n      tag_182\n      jumpi\n      mload(0x40)\n      0x08c379a000000000000000000000000000000000000000000000000000000000\n      dup2\n      mstore\n      0x04\n      add\n      tag_183\n      swap1\n      tag_100\n      jump\t// in\n    tag_183:\n      mload(0x40)\n      dup1\n      swap2\n      sub\n      swap1\n      revert\n    tag_182:\n        /* \"Uniswap/contracts/UniswapV2Pair.sol\":1062:1063  0 */\n      0x00\n        /* \"Uniswap/contracts/UniswapV2Pair.sol\":1051:1059  unlocked */\n      0x07\n        /* \"Uniswap/contracts/UniswapV2Pair.sol\":1051:1063  unlocked = 0 */\n      dup2\n      swap1\n      sstore\n      pop\n        /* \"Uniswap/contracts/UniswapV2Pair.sol\":2856:2873  uint112 _reserve0 */\n      0x00\n        /* \"Uniswap/contracts/UniswapV2Pair.sol\":2875:2892  uint112 _reserve1 */\n      dup1\n        /* \"Uniswap/contracts/UniswapV2Pair.sol\":2896:2909  getReserves() */\n      tag_185\n        /* \"Uniswap/contracts/UniswapV2Pair.sol\":2896:2907  getReserves */\n      tag_33\n        /* \"Uniswap/contracts/UniswapV2Pair.sol\":2896:2909  getReserves() */\n      jump\t// in\n    tag_185:\n        /* \"Uniswap/contracts/UniswapV2Pair.sol\":2855:2909  (uint112 _reserve0, uint112 _reserve1) = getReserves() */\n      swap2\n      pop\n      swap2\n      pop\n        /* \"Uniswap/contracts/UniswapV2Pair.sol\":3002:3015  uint balance0 */\n      0x00\n        /* \"Uniswap/contracts/UniswapV2Pair.sol\":3025:3031  token0 */\n      0x04\n      0x00\n      swap1\n      sload\n      swap1\n      0x0100\n      exp\n      swap1\n      div\n      0xffffffffffffffffffffffffffffffffffffffff\n      and\n        /* \"Uniswap/contracts/UniswapV2Pair.sol\":3018:3042  IERC20(token0).balanceOf */\n      0xffffffffffffffffffffffffffffffffffffffff\n      and\n      0x70a08231\n        /* \"Uniswap/contracts/UniswapV2Pair.sol\":3051:3055  this */\n      address\n        /* \"Uniswap/contracts/UniswapV2Pair.sol\":3018:3057  IERC20(token0).balanceOf(address(this)) */\n      mload(0x40)\n      dup3\n      0xffffffff\n      and\n      0xe0\n      shl\n      dup2\n      mstore\n      0x04\n      add\n      tag_186\n      swap2\n      swap1\n      tag_45\n      jump\t// in\n    tag_186:\n      0x20\n      mload(0x40)\n      dup1\n      dup4\n      sub\n      dup2\n      dup7\n      gas\n      staticcall\n      iszero\n      dup1\n      iszero\n      tag_188\n      jumpi\n      returndatasize\n      0x00\n      dup1\n      returndatacopy\n      revert(0x00, returndatasize)\n    tag_188:\n      pop\n      pop\n      pop\n      pop\n      mload(0x40)\n      returndatasize\n      not(0x1f)\n      0x1f\n      dup3\n      add\n      and\n      dup3\n      add\n      dup1\n      0x40\n      mstore\n      pop\n      dup2\n      add\n      swap1\n      tag_189\n      swap2\n      swap1\n      tag_130\n      jump\t// in\n    tag_189:\n        /* \"Uniswap/contracts/UniswapV2Pair.sol\":3002:3057  uint balance0 = IERC20(token0).balanceOf(address(this)) */\n      swap1\n      pop\n        /* \"Uniswap/contracts/UniswapV2Pair.sol\":3067:3080  uint balance1 */\n      0x00\n        /* \"Uniswap/contracts/UniswapV2Pair.sol\":3090:3096  token1 */\n      0x05\n      0x00\n      swap1\n      sload\n      swap1\n      0x0100\n      exp\n      swap1\n      div\n      0xffffffffffffffffffffffffffffffffffffffff\n      and\n        /* \"Uniswap/contracts/UniswapV2Pair.sol\":3083:3107  IERC20(token1).balanceOf */\n      0xffffffffffffffffffffffffffffffffffffffff\n      and\n      0x70a08231\n        /* \"Uniswap/contracts/UniswapV2Pair.sol\":3116:3120  this */\n      address\n        /* \"Uniswap/contracts/UniswapV2Pair.sol\":3083:3122  IERC20(token1).balanceOf(address(this)) */\n      mload(0x40)\n      dup3\n      0xffffffff\n      and\n      0xe0\n      shl\n      dup2\n      mstore\n      0x04\n      add\n      tag_190\n      swap2\n      swap1\n      tag_45\n      jump\t// in\n    tag_190:\n      0x20\n      mload(0x40)\n      dup1\n      dup4\n      sub\n      dup2\n      dup7\n      gas\n      staticcall\n      iszero\n      dup1\n      iszero\n      tag_192\n      jumpi\n      returndatasize\n      0x00\n      dup1\n      returndatacopy\n      revert(0x00, returndatasize)\n    tag_192:\n      pop\n      pop\n      pop\n      pop\n      mload(0x40)\n      returndatasize\n      not(0x1f)\n      0x1f\n      dup3\n      add\n      and\n      dup3\n      add\n      dup1\n      0x40\n      mstore\n      pop\n      dup2\n      add\n      swap1\n      tag_193\n      swap2\n      swap1\n      tag_130\n      jump\t// in\n    tag_193:\n        /* \"Uniswap/contracts/UniswapV2Pair.sol\":3067:3122  uint balance1 = IERC20(token1).balanceOf(address(this)) */\n      swap1\n      pop\n        /* \"Uniswap/contracts/UniswapV2Pair.sol\":3132:3144  uint amount0 */\n      0x00\n        /* \"Uniswap/contracts/UniswapV2Pair.sol\":3147:3170  balance0.sub(_reserve0) */\n      tag_194\n        /* \"Uniswap/contracts/UniswapV2Pair.sol\":3160:3169  _reserve0 */\n      dup6\n        /* \"Uniswap/contracts/UniswapV2Pair.sol\":3147:3170  balance0.sub(_reserve0) */\n      0xffffffffffffffffffffffffffff\n      and\n        /* \"Uniswap/contracts/UniswapV2Pair.sol\":3147:3155  balance0 */\n      dup5\n        /* \"Uniswap/contracts/UniswapV2Pair.sol\":3147:3159  balance0.sub */\n      tag_154\n      swap1\n        /* \"Uniswap/contracts/UniswapV2Pair.sol\":3147:3170  balance0.sub(_reserve0) */\n      swap2\n      swap1\n      0xffffffff\n      and\n      jump\t// in\n    tag_194:\n        /* \"Uniswap/contracts/UniswapV2Pair.sol\":3132:3170  uint amount0 = balance0.sub(_reserve0) */\n      swap1\n      pop\n        /* \"Uniswap/contracts/UniswapV2Pair.sol\":3180:3192  uint amount1 */\n      0x00\n        /* \"Uniswap/contracts/UniswapV2Pair.sol\":3195:3218  balance1.sub(_reserve1) */\n      tag_195\n        /* \"Uniswap/contracts/UniswapV2Pair.sol\":3208:3217  _reserve1 */\n      dup6\n        /* \"Uniswap/contracts/UniswapV2Pair.sol\":3195:3218  balance1.sub(_reserve1) */\n      0xffffffffffffffffffffffffffff\n      and\n        /* \"Uniswap/contracts/UniswapV2Pair.sol\":3195:3203  balance1 */\n      dup5\n        /* \"Uniswap/contracts/UniswapV2Pair.sol\":3195:3207  balance1.sub */\n      tag_154\n      swap1\n        /* \"Uniswap/contracts/UniswapV2Pair.sol\":3195:3218  balance1.sub(_reserve1) */\n      swap2\n      swap1\n      0xffffffff\n      and\n      jump\t// in\n    tag_195:\n        /* \"Uniswap/contracts/UniswapV2Pair.sol\":3180:3218  uint amount1 = balance1.sub(_reserve1) */\n      swap1\n      pop\n        /* \"Uniswap/contracts/UniswapV2Pair.sol\":3229:3246  uint _totalSupply */\n      0x00\n        /* \"Uniswap/contracts/UniswapV2Pair.sol\":3249:3260  totalSupply */\n      dup1\n      sload\n        /* \"Uniswap/contracts/UniswapV2Pair.sol\":3229:3260  uint _totalSupply = totalSupply */\n      swap1\n      pop\n        /* \"Uniswap/contracts/UniswapV2Pair.sol\":3397:3398  0 */\n      0x00\n        /* \"Uniswap/contracts/UniswapV2Pair.sol\":3381:3393  _totalSupply */\n      dup2\n        /* \"Uniswap/contracts/UniswapV2Pair.sol\":3381:3398  _totalSupply == 0 */\n      sub\n        /* \"Uniswap/contracts/UniswapV2Pair.sol\":3377:4168  if (_totalSupply == 0) {... */\n      tag_196\n      jumpi\n        /* \"Uniswap/contracts/UniswapV2Pair.sol\":3546:3600  Math.sqrt(amount0.mul(amount1)).sub(MINIMUM_LIQUIDITY) */\n      tag_197\n        /* \"Uniswap/contracts/UniswapV2Pair.sol\":503:508  10**3 */\n      0x03e8\n        /* \"Uniswap/contracts/UniswapV2Pair.sol\":3546:3577  Math.sqrt(amount0.mul(amount1)) */\n      tag_198\n        /* \"Uniswap/contracts/UniswapV2Pair.sol\":3556:3576  amount0.mul(amount1) */\n      tag_199\n        /* \"Uniswap/contracts/UniswapV2Pair.sol\":3568:3575  amount1 */\n      dup6\n        /* \"Uniswap/contracts/UniswapV2Pair.sol\":3556:3563  amount0 */\n      dup8\n        /* \"Uniswap/contracts/UniswapV2Pair.sol\":3556:3567  amount0.mul */\n      tag_152\n      swap1\n        /* \"Uniswap/contracts/UniswapV2Pair.sol\":3556:3576  amount0.mul(amount1) */\n      swap2\n      swap1\n      0xffffffff\n      and\n      jump\t// in\n    tag_199:\n        /* \"Uniswap/contracts/UniswapV2Pair.sol\":3546:3555  Math.sqrt */\n      tag_200\n        /* \"Uniswap/contracts/UniswapV2Pair.sol\":3546:3577  Math.sqrt(amount0.mul(amount1)) */\n      jump\t// in\n    tag_198:\n        /* \"Uniswap/contracts/UniswapV2Pair.sol\":3546:3581  Math.sqrt(amount0.mul(amount1)).sub */\n      tag_154\n      swap1\n        /* \"Uniswap/contracts/UniswapV2Pair.sol\":3546:3600  Math.sqrt(amount0.mul(amount1)).sub(MINIMUM_LIQUIDITY) */\n      swap2\n      swap1\n      0xffffffff\n      and\n      jump\t// in\n    tag_197:\n        /* \"Uniswap/contracts/UniswapV2Pair.sol\":3534:3600  liquidity = Math.sqrt(amount0.mul(amount1)).sub(MINIMUM_LIQUIDITY) */\n      swap8\n      pop\n        /* \"Uniswap/contracts/UniswapV2Pair.sol\":3613:3649  _mint(address(0), MINIMUM_LIQUIDITY) */\n      tag_201\n        /* \"Uniswap/contracts/UniswapV2Pair.sol\":3627:3628  0 */\n      0x00\n        /* \"Uniswap/contracts/UniswapV2Pair.sol\":503:508  10**3 */\n      0x03e8\n        /* \"Uniswap/contracts/UniswapV2Pair.sol\":3613:3618  _mint */\n      tag_202\n        /* \"Uniswap/contracts/UniswapV2Pair.sol\":3613:3649  _mint(address(0), MINIMUM_LIQUIDITY) */\n      jump\t// in\n    tag_201:\n        /* \"Uniswap/contracts/UniswapV2Pair.sol\":3377:4168  if (_totalSupply == 0) {... */\n      jump(tag_203)\n    tag_196:\n        /* \"Uniswap/contracts/UniswapV2Pair.sol\":4071:4157  Math.min(amount0.mul(_totalSupply) / _reserve0, amount1.mul(_totalSupply) / _reserve1) */\n      tag_204\n        /* \"Uniswap/contracts/UniswapV2Pair.sol\":4108:4117  _reserve0 */\n      dup8\n        /* \"Uniswap/contracts/UniswapV2Pair.sol\":4080:4117  amount0.mul(_totalSupply) / _reserve0 */\n      0xffffffffffffffffffffffffffff\n      and\n        /* \"Uniswap/contracts/UniswapV2Pair.sol\":4080:4105  amount0.mul(_totalSupply) */\n      tag_205\n        /* \"Uniswap/contracts/UniswapV2Pair.sol\":4092:4104  _totalSupply */\n      dup4\n        /* \"Uniswap/contracts/UniswapV2Pair.sol\":4080:4087  amount0 */\n      dup7\n        /* \"Uniswap/contracts/UniswapV2Pair.sol\":4080:4091  amount0.mul */\n      tag_152\n      swap1\n        /* \"Uniswap/contracts/UniswapV2Pair.sol\":4080:4105  amount0.mul(_totalSupply) */\n      swap2\n      swap1\n      0xffffffff\n      and\n      jump\t// in\n    tag_205:\n        /* \"Uniswap/contracts/UniswapV2Pair.sol\":4080:4117  amount0.mul(_totalSupply) / _reserve0 */\n      tag_206\n      swap2\n      swap1\n      tag_207\n      jump\t// in\n    tag_206:\n        /* \"Uniswap/contracts/UniswapV2Pair.sol\":4147:4156  _reserve1 */\n      dup8\n        /* \"Uniswap/contracts/UniswapV2Pair.sol\":4119:4156  amount1.mul(_totalSupply) / _reserve1 */\n      0xffffffffffffffffffffffffffff\n      and\n        /* \"Uniswap/contracts/UniswapV2Pair.sol\":4119:4144  amount1.mul(_totalSupply) */\n      tag_208\n        /* \"Uniswap/contracts/UniswapV2Pair.sol\":4131:4143  _totalSupply */\n      dup5\n        /* \"Uniswap/contracts/UniswapV2Pair.sol\":4119:4126  amount1 */\n      dup7\n        /* \"Uniswap/contracts/UniswapV2Pair.sol\":4119:4130  amount1.mul */\n      tag_152\n      swap1\n        /* \"Uniswap/contracts/UniswapV2Pair.sol\":4119:4144  amount1.mul(_totalSupply) */\n      swap2\n      swap1\n      0xffffffff\n      and\n      jump\t// in\n    tag_208:\n        /* \"Uniswap/contracts/UniswapV2Pair.sol\":4119:4156  amount1.mul(_totalSupply) / _reserve1 */\n      tag_209\n      swap2\n      swap1\n      tag_207\n      jump\t// in\n    tag_209:\n        /* \"Uniswap/contracts/UniswapV2Pair.sol\":4071:4079  Math.min */\n      tag_210\n        /* \"Uniswap/contracts/UniswapV2Pair.sol\":4071:4157  Math.min(amount0.mul(_totalSupply) / _reserve0, amount1.mul(_totalSupply) / _reserve1) */\n      jump\t// in\n    tag_204:\n        /* \"Uniswap/contracts/UniswapV2Pair.sol\":4059:4157  liquidity = Math.min(amount0.mul(_totalSupply) / _reserve0, amount1.mul(_totalSupply) / _reserve1) */\n      swap8\n      pop\n        /* \"Uniswap/contracts/UniswapV2Pair.sol\":3377:4168  if (_totalSupply == 0) {... */\n    tag_203:\n        /* \"Uniswap/contracts/UniswapV2Pair.sol\":4197:4198  0 */\n      0x00\n        /* \"Uniswap/contracts/UniswapV2Pair.sol\":4185:4194  liquidity */\n      dup9\n        /* \"Uniswap/contracts/UniswapV2Pair.sol\":4185:4198  liquidity > 0 */\n      gt\n        /* \"Uniswap/contracts/UniswapV2Pair.sol\":4177:4243  require(liquidity > 0, 'UniswapV2: INSUFFICIENT_LIQUIDITY_MINTED') */\n      tag_211\n      jumpi\n      mload(0x40)\n      0x08c379a000000000000000000000000000000000000000000000000000000000\n      dup2\n      mstore\n      0x04\n      add\n      tag_212\n      swap1\n      tag_213\n      jump\t// in\n    tag_212:\n      mload(0x40)\n      dup1\n      swap2\n      sub\n      swap1\n      revert\n    tag_211:\n        /* \"Uniswap/contracts/UniswapV2Pair.sol\":4253:4273  _mint(to, liquidity) */\n      tag_214\n        /* \"Uniswap/contracts/UniswapV2Pair.sol\":4259:4261  to */\n      dup10\n        /* \"Uniswap/contracts/UniswapV2Pair.sol\":4263:4272  liquidity */\n      dup10\n        /* \"Uniswap/contracts/UniswapV2Pair.sol\":4253:4258  _mint */\n      tag_202\n        /* \"Uniswap/contracts/UniswapV2Pair.sol\":4253:4273  _mint(to, liquidity) */\n      jump\t// in\n    tag_214:\n        /* \"Uniswap/contracts/UniswapV2Pair.sol\":4315:4342  _update(balance0, balance1) */\n      tag_215\n        /* \"Uniswap/contracts/UniswapV2Pair.sol\":4323:4331  balance0 */\n      dup6\n        /* \"Uniswap/contracts/UniswapV2Pair.sol\":4333:4341  balance1 */\n      dup6\n        /* \"Uniswap/contracts/UniswapV2Pair.sol\":4315:4322  _update */\n      tag_165\n        /* \"Uniswap/contracts/UniswapV2Pair.sol\":4315:4342  _update(balance0, balance1) */\n      jump\t// in\n    tag_215:\n        /* \"Uniswap/contracts/UniswapV2Pair.sol\":4362:4372  msg.sender */\n      caller\n        /* \"Uniswap/contracts/UniswapV2Pair.sol\":4357:4391  Mint(msg.sender, amount0, amount1) */\n      0xffffffffffffffffffffffffffffffffffffffff\n      and\n      0x4c209b5fc8ad50758f13e2e1088ba56a560dff690a1c6fef26394f4c03821c4f\n        /* \"Uniswap/contracts/UniswapV2Pair.sol\":4374:4381  amount0 */\n      dup5\n        /* \"Uniswap/contracts/UniswapV2Pair.sol\":4383:4390  amount1 */\n      dup5\n        /* \"Uniswap/contracts/UniswapV2Pair.sol\":4357:4391  Mint(msg.sender, amount0, amount1) */\n      mload(0x40)\n      tag_216\n      swap3\n      swap2\n      swap1\n      tag_76\n      jump\t// in\n    tag_216:\n      mload(0x40)\n      dup1\n      swap2\n      sub\n      swap1\n      log2\n        /* \"Uniswap/contracts/UniswapV2Pair.sol\":2845:4398  {... */\n      pop\n      pop\n      pop\n      pop\n      pop\n      pop\n      pop\n        /* \"Uniswap/contracts/UniswapV2Pair.sol\":1095:1096  1 */\n      0x01\n        /* \"Uniswap/contracts/UniswapV2Pair.sol\":1084:1092  unlocked */\n      0x07\n        /* \"Uniswap/contracts/UniswapV2Pair.sol\":1084:1096  unlocked = 1 */\n      dup2\n      swap1\n      sstore\n      pop\n        /* \"Uniswap/contracts/UniswapV2Pair.sol\":2780:4398  function mint(address to) external lock returns (uint liquidity) {... */\n      swap2\n      swap1\n      pop\n      jump\t// out\n        /* \"Uniswap/contracts/UniswapV2ERC20.sol\":424:465  mapping(address => uint) public balanceOf */\n    tag_70:\n      mstore(0x20, 0x01)\n      dup1\n      0x00\n      mstore\n      keccak256(0x00, 0x40)\n      0x00\n      swap2\n      pop\n      swap1\n      pop\n      sload\n      dup2\n      jump\t// out\n        /* \"Uniswap/contracts/UniswapV2Pair.sol\":4567:6069  function burn(address to) external lock returns (uint amount0, uint amount1) {... */\n    tag_74:\n        /* \"Uniswap/contracts/UniswapV2Pair.sol\":4616:4628  uint amount0 */\n      0x00\n        /* \"Uniswap/contracts/UniswapV2Pair.sol\":4630:4642  uint amount1 */\n      dup1\n        /* \"Uniswap/contracts/UniswapV2Pair.sol\":1018:1019  1 */\n      0x01\n        /* \"Uniswap/contracts/UniswapV2Pair.sol\":1006:1014  unlocked */\n      sload(0x07)\n        /* \"Uniswap/contracts/UniswapV2Pair.sol\":1006:1019  unlocked == 1 */\n      eq\n        /* \"Uniswap/contracts/UniswapV2Pair.sol\":998:1041  require(unlocked == 1, 'UniswapV2: LOCKED') */\n      tag_218\n      jumpi\n      mload(0x40)\n      0x08c379a000000000000000000000000000000000000000000000000000000000\n      dup2\n      mstore\n      0x04\n      add\n      tag_219\n      swap1\n      tag_100\n      jump\t// in\n    tag_219:\n      mload(0x40)\n      dup1\n      swap2\n      sub\n      swap1\n      revert\n    tag_218:\n        /* \"Uniswap/contracts/UniswapV2Pair.sol\":1062:1063  0 */\n      0x00\n        /* \"Uniswap/contracts/UniswapV2Pair.sol\":1051:1059  unlocked */\n      0x07\n        /* \"Uniswap/contracts/UniswapV2Pair.sol\":1051:1063  unlocked = 0 */\n      dup2\n      swap1\n      sstore\n      pop\n        /* \"Uniswap/contracts/UniswapV2Pair.sol\":4654:4669  address _token0 */\n      0x00\n        /* \"Uniswap/contracts/UniswapV2Pair.sol\":4672:4678  token0 */\n      0x04\n      0x00\n      swap1\n      sload\n      swap1\n      0x0100\n      exp\n      swap1\n      div\n      0xffffffffffffffffffffffffffffffffffffffff\n      and\n        /* \"Uniswap/contracts/UniswapV2Pair.sol\":4654:4678  address _token0 = token0 */\n      swap1\n      pop\n        /* \"Uniswap/contracts/UniswapV2Pair.sol\":4734:4749  address _token1 */\n      0x00\n        /* \"Uniswap/contracts/UniswapV2Pair.sol\":4752:4758  token1 */\n      0x05\n      0x00\n      swap1\n      sload\n      swap1\n      0x0100\n      exp\n      swap1\n      div\n      0xffffffffffffffffffffffffffffffffffffffff\n      and\n        /* \"Uniswap/contracts/UniswapV2Pair.sol\":4734:4758  address _token1 = token1 */\n      swap1\n      pop\n        /* \"Uniswap/contracts/UniswapV2Pair.sol\":4870:4883  uint balance0 */\n      0x00\n        /* \"Uniswap/contracts/UniswapV2Pair.sol\":4893:4900  _token0 */\n      dup3\n        /* \"Uniswap/contracts/UniswapV2Pair.sol\":4886:4911  IERC20(_token0).balanceOf */\n      0xffffffffffffffffffffffffffffffffffffffff\n      and\n      0x70a08231\n        /* \"Uniswap/contracts/UniswapV2Pair.sol\":4920:4924  this */\n      address\n        /* \"Uniswap/contracts/UniswapV2Pair.sol\":4886:4926  IERC20(_token0).balanceOf(address(this)) */\n      mload(0x40)\n      dup3\n      0xffffffff\n      and\n      0xe0\n      shl\n      dup2\n      mstore\n      0x04\n      add\n      tag_221\n      swap2\n      swap1\n      tag_45\n      jump\t// in\n    tag_221:\n      0x20\n      mload(0x40)\n      dup1\n      dup4\n      sub\n      dup2\n      dup7\n      gas\n      staticcall\n      iszero\n      dup1\n      iszero\n      tag_223\n      jumpi\n      returndatasize\n      0x00\n      dup1\n      returndatacopy\n      revert(0x00, returndatasize)\n    tag_223:\n      pop\n      pop\n      pop\n      pop\n      mload(0x40)\n      returndatasize\n      not(0x1f)\n      0x1f\n      dup3\n      add\n      and\n      dup3\n      add\n      dup1\n      0x40\n      mstore\n      pop\n      dup2\n      add\n      swap1\n      tag_224\n      swap2\n      swap1\n      tag_130\n      jump\t// in\n    tag_224:\n        /* \"Uniswap/contracts/UniswapV2Pair.sol\":4870:4926  uint balance0 = IERC20(_token0).balanceOf(address(this)) */\n      swap1\n      pop\n        /* \"Uniswap/contracts/UniswapV2Pair.sol\":4936:4949  uint balance1 */\n      0x00\n        /* \"Uniswap/contracts/UniswapV2Pair.sol\":4959:4966  _token1 */\n      dup3\n        /* \"Uniswap/contracts/UniswapV2Pair.sol\":4952:4977  IERC20(_token1).balanceOf */\n      0xffffffffffffffffffffffffffffffffffffffff\n      and\n      0x70a08231\n        /* \"Uniswap/contracts/UniswapV2Pair.sol\":4986:4990  this */\n      address\n        /* \"Uniswap/contracts/UniswapV2Pair.sol\":4952:4992  IERC20(_token1).balanceOf(address(this)) */\n      mload(0x40)\n      dup3\n      0xffffffff\n      and\n      0xe0\n      shl\n      dup2\n      mstore\n      0x04\n      add\n      tag_225\n      swap2\n      swap1\n      tag_45\n      jump\t// in\n    tag_225:\n      0x20\n      mload(0x40)\n      dup1\n      dup4\n      sub\n      dup2\n      dup7\n      gas\n      staticcall\n      iszero\n      dup1\n      iszero\n      tag_227\n      jumpi\n      returndatasize\n      0x00\n      dup1\n      returndatacopy\n      revert(0x00, returndatasize)\n    tag_227:\n      pop\n      pop\n      pop\n      pop\n      mload(0x40)\n      returndatasize\n      not(0x1f)\n      0x1f\n      dup3\n      add\n      and\n      dup3\n      add\n      dup1\n      0x40\n      mstore\n      pop\n      dup2\n      add\n      swap1\n      tag_228\n      swap2\n      swap1\n      tag_130\n      jump\t// in\n    tag_228:\n        /* \"Uniswap/contracts/UniswapV2Pair.sol\":4936:4992  uint balance1 = IERC20(_token1).balanceOf(address(this)) */\n      swap1\n      pop\n        /* \"Uniswap/contracts/UniswapV2Pair.sol\":5077:5091  uint liquidity */\n      0x00\n        /* \"Uniswap/contracts/UniswapV2Pair.sol\":5094:5103  balanceOf */\n      0x01\n        /* \"Uniswap/contracts/UniswapV2Pair.sol\":5094:5118  balanceOf[address(this)] */\n      0x00\n        /* \"Uniswap/contracts/UniswapV2Pair.sol\":5112:5116  this */\n      address\n        /* \"Uniswap/contracts/UniswapV2Pair.sol\":5094:5118  balanceOf[address(this)] */\n      0xffffffffffffffffffffffffffffffffffffffff\n      and\n      0xffffffffffffffffffffffffffffffffffffffff\n      and\n      dup2\n      mstore\n      0x20\n      add\n      swap1\n      dup2\n      mstore\n      0x20\n      add\n      0x00\n      keccak256\n      sload\n        /* \"Uniswap/contracts/UniswapV2Pair.sol\":5077:5118  uint liquidity = balanceOf[address(this)] */\n      swap1\n      pop\n        /* \"Uniswap/contracts/UniswapV2Pair.sol\":5162:5179  uint _totalSupply */\n      0x00\n        /* \"Uniswap/contracts/UniswapV2Pair.sol\":5182:5193  totalSupply */\n      dup1\n      sload\n        /* \"Uniswap/contracts/UniswapV2Pair.sol\":5162:5193  uint _totalSupply = totalSupply */\n      swap1\n      pop\n        /* \"Uniswap/contracts/UniswapV2Pair.sol\":5371:5383  _totalSupply */\n      dup1\n        /* \"Uniswap/contracts/UniswapV2Pair.sol\":5345:5368  liquidity.mul(balance0) */\n      tag_229\n        /* \"Uniswap/contracts/UniswapV2Pair.sol\":5359:5367  balance0 */\n      dup6\n        /* \"Uniswap/contracts/UniswapV2Pair.sol\":5345:5354  liquidity */\n      dup5\n        /* \"Uniswap/contracts/UniswapV2Pair.sol\":5345:5358  liquidity.mul */\n      tag_152\n      swap1\n        /* \"Uniswap/contracts/UniswapV2Pair.sol\":5345:5368  liquidity.mul(balance0) */\n      swap2\n      swap1\n      0xffffffff\n      and\n      jump\t// in\n    tag_229:\n        /* \"Uniswap/contracts/UniswapV2Pair.sol\":5345:5383  liquidity.mul(balance0) / _totalSupply */\n      tag_230\n      swap2\n      swap1\n      tag_207\n      jump\t// in\n    tag_230:\n        /* \"Uniswap/contracts/UniswapV2Pair.sol\":5335:5383  amount0 = liquidity.mul(balance0) / _totalSupply */\n      swap8\n      pop\n        /* \"Uniswap/contracts/UniswapV2Pair.sol\":5477:5489  _totalSupply */\n      dup1\n        /* \"Uniswap/contracts/UniswapV2Pair.sol\":5451:5474  liquidity.mul(balance1) */\n      tag_231\n        /* \"Uniswap/contracts/UniswapV2Pair.sol\":5465:5473  balance1 */\n      dup5\n        /* \"Uniswap/contracts/UniswapV2Pair.sol\":5451:5460  liquidity */\n      dup5\n        /* \"Uniswap/contracts/UniswapV2Pair.sol\":5451:5464  liquidity.mul */\n      tag_152\n      swap1\n        /* \"Uniswap/contracts/UniswapV2Pair.sol\":5451:5474  liquidity.mul(balance1) */\n      swap2\n      swap1\n      0xffffffff\n      and\n      jump\t// in\n    tag_231:\n        /* \"Uniswap/contracts/UniswapV2Pair.sol\":5451:5489  liquidity.mul(balance1) / _totalSupply */\n      tag_232\n      swap2\n      swap1\n      tag_207\n      jump\t// in\n    tag_232:\n        /* \"Uniswap/contracts/UniswapV2Pair.sol\":5441:5489  amount1 = liquidity.mul(balance1) / _totalSupply */\n      swap7\n      pop\n        /* \"Uniswap/contracts/UniswapV2Pair.sol\":5565:5566  0 */\n      0x00\n        /* \"Uniswap/contracts/UniswapV2Pair.sol\":5555:5562  amount0 */\n      dup9\n        /* \"Uniswap/contracts/UniswapV2Pair.sol\":5555:5566  amount0 > 0 */\n      gt\n        /* \"Uniswap/contracts/UniswapV2Pair.sol\":5555:5581  amount0 > 0 && amount1 > 0 */\n      dup1\n      iszero\n      tag_233\n      jumpi\n      pop\n        /* \"Uniswap/contracts/UniswapV2Pair.sol\":5580:5581  0 */\n      0x00\n        /* \"Uniswap/contracts/UniswapV2Pair.sol\":5570:5577  amount1 */\n      dup8\n        /* \"Uniswap/contracts/UniswapV2Pair.sol\":5570:5581  amount1 > 0 */\n      gt\n        /* \"Uniswap/contracts/UniswapV2Pair.sol\":5555:5581  amount0 > 0 && amount1 > 0 */\n    tag_233:\n        /* \"Uniswap/contracts/UniswapV2Pair.sol\":5547:5626  require(amount0 > 0 && amount1 > 0, 'UniswapV2: INSUFFICIENT_LIQUIDITY_BURNED') */\n      tag_234\n      jumpi\n      mload(0x40)\n      0x08c379a000000000000000000000000000000000000000000000000000000000\n      dup2\n      mstore\n      0x04\n      add\n      tag_235\n      swap1\n      tag_236\n      jump\t// in\n    tag_235:\n      mload(0x40)\n      dup1\n      swap2\n      sub\n      swap1\n      revert\n    tag_234:\n        /* \"Uniswap/contracts/UniswapV2Pair.sol\":5671:5702  _burn(address(this), liquidity) */\n      tag_237\n        /* \"Uniswap/contracts/UniswapV2Pair.sol\":5685:5689  this */\n      address\n        /* \"Uniswap/contracts/UniswapV2Pair.sol\":5692:5701  liquidity */\n      dup4\n        /* \"Uniswap/contracts/UniswapV2Pair.sol\":5671:5676  _burn */\n      tag_238\n        /* \"Uniswap/contracts/UniswapV2Pair.sol\":5671:5702  _burn(address(this), liquidity) */\n      jump\t// in\n    tag_237:\n        /* \"Uniswap/contracts/UniswapV2Pair.sol\":5740:5775  _safeTransfer(_token0, to, amount0) */\n      tag_239\n        /* \"Uniswap/contracts/UniswapV2Pair.sol\":5754:5761  _token0 */\n      dup7\n        /* \"Uniswap/contracts/UniswapV2Pair.sol\":5763:5765  to */\n      dup11\n        /* \"Uniswap/contracts/UniswapV2Pair.sol\":5767:5774  amount0 */\n      dup11\n        /* \"Uniswap/contracts/UniswapV2Pair.sol\":5740:5753  _safeTransfer */\n      tag_117\n        /* \"Uniswap/contracts/UniswapV2Pair.sol\":5740:5775  _safeTransfer(_token0, to, amount0) */\n      jump\t// in\n    tag_239:\n        /* \"Uniswap/contracts/UniswapV2Pair.sol\":5785:5820  _safeTransfer(_token1, to, amount1) */\n      tag_240\n        /* \"Uniswap/contracts/UniswapV2Pair.sol\":5799:5806  _token1 */\n      dup6\n        /* \"Uniswap/contracts/UniswapV2Pair.sol\":5808:5810  to */\n      dup11\n        /* \"Uniswap/contracts/UniswapV2Pair.sol\":5812:5819  amount1 */\n      dup10\n        /* \"Uniswap/contracts/UniswapV2Pair.sol\":5785:5798  _safeTransfer */\n      tag_117\n        /* \"Uniswap/contracts/UniswapV2Pair.sol\":5785:5820  _safeTransfer(_token1, to, amount1) */\n      jump\t// in\n    tag_240:\n        /* \"Uniswap/contracts/UniswapV2Pair.sol\":5877:5884  _token0 */\n      dup6\n        /* \"Uniswap/contracts/UniswapV2Pair.sol\":5870:5895  IERC20(_token0).balanceOf */\n      0xffffffffffffffffffffffffffffffffffffffff\n      and\n      0x70a08231\n        /* \"Uniswap/contracts/UniswapV2Pair.sol\":5904:5908  this */\n      address\n        /* \"Uniswap/contracts/UniswapV2Pair.sol\":5870:5910  IERC20(_token0).balanceOf(address(this)) */\n      mload(0x40)\n      dup3\n      0xffffffff\n      and\n      0xe0\n      shl\n      dup2\n      mstore\n      0x04\n      add\n      tag_241\n      swap2\n      swap1\n      tag_45\n      jump\t// in\n    tag_241:\n      0x20\n      mload(0x40)\n      dup1\n      dup4\n      sub\n      dup2\n      dup7\n      gas\n      staticcall\n      iszero\n      dup1\n      iszero\n      tag_243\n      jumpi\n      returndatasize\n      0x00\n      dup1\n      returndatacopy\n      revert(0x00, returndatasize)\n    tag_243:\n      pop\n      pop\n      pop\n      pop\n      mload(0x40)\n      returndatasize\n      not(0x1f)\n      0x1f\n      dup3\n      add\n      and\n      dup3\n      add\n      dup1\n      0x40\n      mstore\n      pop\n      dup2\n      add\n      swap1\n      tag_244\n      swap2\n      swap1\n      tag_130\n      jump\t// in\n    tag_244:\n        /* \"Uniswap/contracts/UniswapV2Pair.sol\":5859:5910  balance0 = IERC20(_token0).balanceOf(address(this)) */\n      swap4\n      pop\n        /* \"Uniswap/contracts/UniswapV2Pair.sol\":5938:5945  _token1 */\n      dup5\n        /* \"Uniswap/contracts/UniswapV2Pair.sol\":5931:5956  IERC20(_token1).balanceOf */\n      0xffffffffffffffffffffffffffffffffffffffff\n      and\n      0x70a08231\n        /* \"Uniswap/contracts/UniswapV2Pair.sol\":5965:5969  this */\n      address\n        /* \"Uniswap/contracts/UniswapV2Pair.sol\":5931:5971  IERC20(_token1).balanceOf(address(this)) */\n      mload(0x40)\n      dup3\n      0xffffffff\n      and\n      0xe0\n      shl\n      dup2\n      mstore\n      0x04\n      add\n      tag_245\n      swap2\n      swap1\n      tag_45\n      jump\t// in\n    tag_245:\n      0x20\n      mload(0x40)\n      dup1\n      dup4\n      sub\n      dup2\n      dup7\n      gas\n      staticcall\n      iszero\n      dup1\n      iszero\n      tag_247\n      jumpi\n      returndatasize\n      0x00\n      dup1\n      returndatacopy\n      revert(0x00, returndatasize)\n    tag_247:\n      pop\n      pop\n      pop\n      pop\n      mload(0x40)\n      returndatasize\n      not(0x1f)\n      0x1f\n      dup3\n      add\n      and\n      dup3\n      add\n      dup1\n      0x40\n      mstore\n      pop\n      dup2\n      add\n      swap1\n      tag_248\n      swap2\n      swap1\n      tag_130\n      jump\t// in\n    tag_248:\n        /* \"Uniswap/contracts/UniswapV2Pair.sol\":5920:5971  balance1 = IERC20(_token1).balanceOf(address(this)) */\n      swap3\n      pop\n        /* \"Uniswap/contracts/UniswapV2Pair.sol\":5981:6008  _update(balance0, balance1) */\n      tag_249\n        /* \"Uniswap/contracts/UniswapV2Pair.sol\":5989:5997  balance0 */\n      dup5\n        /* \"Uniswap/contracts/UniswapV2Pair.sol\":5999:6007  balance1 */\n      dup5\n        /* \"Uniswap/contracts/UniswapV2Pair.sol\":5981:5988  _update */\n      tag_165\n        /* \"Uniswap/contracts/UniswapV2Pair.sol\":5981:6008  _update(balance0, balance1) */\n      jump\t// in\n    tag_249:\n        /* \"Uniswap/contracts/UniswapV2Pair.sol\":6059:6061  to */\n      dup9\n        /* \"Uniswap/contracts/UniswapV2Pair.sol\":6024:6062  Burn(msg.sender, amount0, amount1, to) */\n      0xffffffffffffffffffffffffffffffffffffffff\n      and\n        /* \"Uniswap/contracts/UniswapV2Pair.sol\":6029:6039  msg.sender */\n      caller\n        /* \"Uniswap/contracts/UniswapV2Pair.sol\":6024:6062  Burn(msg.sender, amount0, amount1, to) */\n      0xffffffffffffffffffffffffffffffffffffffff\n      and\n      0xdccd412f0b1252819cb1fd330b93224ca42612892bb3f4f789976e6d81936496\n        /* \"Uniswap/contracts/UniswapV2Pair.sol\":6041:6048  amount0 */\n      dup11\n        /* \"Uniswap/contracts/UniswapV2Pair.sol\":6050:6057  amount1 */\n      dup11\n        /* \"Uniswap/contracts/UniswapV2Pair.sol\":6024:6062  Burn(msg.sender, amount0, amount1, to) */\n      mload(0x40)\n      tag_250\n      swap3\n      swap2\n      swap1\n      tag_76\n      jump\t// in\n    tag_250:\n      mload(0x40)\n      dup1\n      swap2\n      sub\n      swap1\n      log3\n        /* \"Uniswap/contracts/UniswapV2Pair.sol\":4644:6069  {... */\n      pop\n      pop\n      pop\n      pop\n      pop\n      pop\n        /* \"Uniswap/contracts/UniswapV2Pair.sol\":1095:1096  1 */\n      0x01\n        /* \"Uniswap/contracts/UniswapV2Pair.sol\":1084:1092  unlocked */\n      0x07\n        /* \"Uniswap/contracts/UniswapV2Pair.sol\":1084:1096  unlocked = 1 */\n      dup2\n      swap1\n      sstore\n      pop\n        /* \"Uniswap/contracts/UniswapV2Pair.sol\":4567:6069  function burn(address to) external lock returns (uint amount0, uint amount1) {... */\n      swap2\n      pop\n      swap2\n      jump\t// out\n        /* \"Uniswap/contracts/UniswapV2ERC20.sol\":306:346  string public constant symbol = 'UNI-V2' */\n    tag_78:\n      mload(0x40)\n      dup1\n      0x40\n      add\n      0x40\n      mstore\n      dup1\n      0x06\n      dup2\n      mstore\n      0x20\n      add\n      0x554e492d56320000000000000000000000000000000000000000000000000000\n      dup2\n      mstore\n      pop\n      dup2\n      jump\t// out\n        /* \"Uniswap/contracts/UniswapV2ERC20.sol\":1585:1721  function transfer(address to, uint value) external returns (bool) {... */\n    tag_82:\n        /* \"Uniswap/contracts/UniswapV2ERC20.sol\":1645:1649  bool */\n      0x00\n        /* \"Uniswap/contracts/UniswapV2ERC20.sol\":1661:1693  _transfer(msg.sender, to, value) */\n      tag_252\n        /* \"Uniswap/contracts/UniswapV2ERC20.sol\":1671:1681  msg.sender */\n      caller\n        /* \"Uniswap/contracts/UniswapV2ERC20.sol\":1683:1685  to */\n      dup5\n        /* \"Uniswap/contracts/UniswapV2ERC20.sol\":1687:1692  value */\n      dup5\n        /* \"Uniswap/contracts/UniswapV2ERC20.sol\":1661:1670  _transfer */\n      tag_176\n        /* \"Uniswap/contracts/UniswapV2ERC20.sol\":1661:1693  _transfer(msg.sender, to, value) */\n      jump\t// in\n    tag_252:\n        /* \"Uniswap/contracts/UniswapV2ERC20.sol\":1710:1714  true */\n      0x01\n        /* \"Uniswap/contracts/UniswapV2ERC20.sol\":1703:1714  return true */\n      swap1\n      pop\n        /* \"Uniswap/contracts/UniswapV2ERC20.sol\":1585:1721  function transfer(address to, uint value) external returns (bool) {... */\n      swap3\n      swap2\n      pop\n      pop\n      jump\t// out\n        /* \"Uniswap/contracts/UniswapV2Pair.sol\":462:508  uint public constant MINIMUM_LIQUIDITY = 10**3 */\n    tag_85:\n        /* \"Uniswap/contracts/UniswapV2Pair.sol\":503:508  10**3 */\n      0x03e8\n        /* \"Uniswap/contracts/UniswapV2Pair.sol\":462:508  uint public constant MINIMUM_LIQUIDITY = 10**3 */\n      dup2\n      jump\t// out\n        /* \"Uniswap/contracts/UniswapV2Pair.sol\":609:631  address public factory */\n    tag_88:\n      0x03\n      0x00\n      swap1\n      sload\n      swap1\n      0x0100\n      exp\n      swap1\n      div\n      0xffffffffffffffffffffffffffffffffffffffff\n      and\n      dup2\n      jump\t// out\n        /* \"Uniswap/contracts/UniswapV2Pair.sol\":664:685  address public token1 */\n    tag_91:\n      0x05\n      0x00\n      swap1\n      sload\n      swap1\n      0x0100\n      exp\n      swap1\n      div\n      0xffffffffffffffffffffffffffffffffffffffff\n      and\n      dup2\n      jump\t// out\n        /* \"Uniswap/contracts/UniswapV2ERC20.sol\":471:532  mapping(address => mapping(address => uint)) public allowance */\n    tag_95:\n      mstore(0x20, 0x02)\n      dup2\n      0x00\n      mstore\n      mstore(0x20, keccak256(0x00, 0x40))\n      dup1\n      0x00\n      mstore\n      keccak256(0x00, 0x40)\n      0x00\n      swap2\n      pop\n      swap2\n      pop\n      pop\n      sload\n      dup2\n      jump\t// out\n        /* \"Uniswap/contracts/UniswapV2Pair.sol\":1264:1881  function _safeTransfer(address token, address to, uint value) private {... */\n    tag_117:\n        /* \"Uniswap/contracts/UniswapV2Pair.sol\":1345:1357  bool success */\n      0x00\n        /* \"Uniswap/contracts/UniswapV2Pair.sol\":1359:1376  bytes memory data */\n      dup1\n        /* \"Uniswap/contracts/UniswapV2Pair.sol\":1380:1385  token */\n      dup5\n        /* \"Uniswap/contracts/UniswapV2Pair.sol\":1380:1390  token.call */\n      0xffffffffffffffffffffffffffffffffffffffff\n      and\n        /* \"Uniswap/contracts/UniswapV2Pair.sol\":566:600  bytes('transfer(address,uint256)') */\n      mload(0x40)\n      dup1\n      0x40\n      add\n      0x40\n      mstore\n      dup1\n      0x19\n      dup2\n      mstore\n      0x20\n      add\n      0x7472616e7366657228616464726573732c75696e743235362900000000000000\n      dup2\n      mstore\n      pop\n        /* \"Uniswap/contracts/UniswapV2Pair.sol\":556:601  keccak256(bytes('transfer(address,uint256)')) */\n      dup1\n      mload\n      swap1\n      0x20\n      add\n      keccak256\n        /* \"Uniswap/contracts/UniswapV2Pair.sol\":1424:1426  to */\n      dup6\n        /* \"Uniswap/contracts/UniswapV2Pair.sol\":1428:1433  value */\n      dup6\n        /* \"Uniswap/contracts/UniswapV2Pair.sol\":1391:1434  abi.encodeWithSelector(SELECTOR, to, value) */\n      add(0x24, mload(0x40))\n      tag_254\n      swap3\n      swap2\n      swap1\n      tag_255\n      jump\t// in\n    tag_254:\n      mload(0x40)\n      0x20\n      dup2\n      dup4\n      sub\n      sub\n      dup2\n      mstore\n      swap1\n      0x40\n      mstore\n      swap1\n      not(0xffffffffffffffffffffffffffffffffffffffffffffffffffffffff)\n      and\n      0x20\n      dup3\n      add\n      dup1\n      mload\n      0xffffffffffffffffffffffffffffffffffffffffffffffffffffffff\n      dup4\n      dup2\n      dup4\n      and\n      or\n      dup4\n      mstore\n      pop\n      pop\n      pop\n      pop\n        /* \"Uniswap/contracts/UniswapV2Pair.sol\":1380:1435  token.call(abi.encodeWithSelector(SELECTOR, to, value)) */\n      mload(0x40)\n      tag_256\n      swap2\n      swap1\n      tag_257\n      jump\t// in\n    tag_256:\n      0x00\n      mload(0x40)\n      dup1\n      dup4\n      sub\n      dup2\n      0x00\n      dup7\n      gas\n      call\n      swap2\n      pop\n      pop\n      returndatasize\n      dup1\n      0x00\n      dup2\n      eq\n      tag_260\n      jumpi\n      mload(0x40)\n      swap2\n      pop\n      and(add(returndatasize, 0x3f), not(0x1f))\n      dup3\n      add\n      0x40\n      mstore\n      returndatasize\n      dup3\n      mstore\n      returndatasize\n      0x00\n      0x20\n      dup5\n      add\n      returndatacopy\n      jump(tag_259)\n    tag_260:\n      0x60\n      swap2\n      pop\n    tag_259:\n      pop\n        /* \"Uniswap/contracts/UniswapV2Pair.sol\":1344:1435  (bool success, bytes memory data) = token.call(abi.encodeWithSelector(SELECTOR, to, value)) */\n      swap2\n      pop\n      swap2\n      pop\n        /* \"Uniswap/contracts/UniswapV2Pair.sol\":1786:1793  success */\n      dup2\n        /* \"Uniswap/contracts/UniswapV2Pair.sol\":1786:1843  success && (data.length == 0 || abi.decode(data, (bool))) */\n      dup1\n      iszero\n      tag_261\n      jumpi\n      pop\n        /* \"Uniswap/contracts/UniswapV2Pair.sol\":1813:1814  0 */\n      0x00\n        /* \"Uniswap/contracts/UniswapV2Pair.sol\":1798:1802  data */\n      dup2\n        /* \"Uniswap/contracts/UniswapV2Pair.sol\":1798:1809  data.length */\n      mload\n        /* \"Uniswap/contracts/UniswapV2Pair.sol\":1798:1814  data.length == 0 */\n      eq\n        /* \"Uniswap/contracts/UniswapV2Pair.sol\":1798:1842  data.length == 0 || abi.decode(data, (bool)) */\n      dup1\n      tag_262\n      jumpi\n      pop\n        /* \"Uniswap/contracts/UniswapV2Pair.sol\":1829:1833  data */\n      dup1\n        /* \"Uniswap/contracts/UniswapV2Pair.sol\":1818:1842  abi.decode(data, (bool)) */\n      dup1\n      0x20\n      add\n      swap1\n      mload\n      dup2\n      add\n      swap1\n      tag_263\n      swap2\n      swap1\n      tag_264\n      jump\t// in\n    tag_263:\n        /* \"Uniswap/contracts/UniswapV2Pair.sol\":1798:1842  data.length == 0 || abi.decode(data, (bool)) */\n    tag_262:\n        /* \"Uniswap/contracts/UniswapV2Pair.sol\":1786:1843  success && (data.length == 0 || abi.decode(data, (bool))) */\n    tag_261:\n        /* \"Uniswap/contracts/UniswapV2Pair.sol\":1778:1874  require(success && (data.length == 0 || abi.decode(data, (bool))), 'UniswapV2: TRANSFER_FAILED') */\n      tag_265\n      jumpi\n      mload(0x40)\n      0x08c379a000000000000000000000000000000000000000000000000000000000\n      dup2\n      mstore\n      0x04\n      add\n      tag_266\n      swap1\n      tag_267\n      jump\t// in\n    tag_266:\n      mload(0x40)\n      dup1\n      swap2\n      sub\n      swap1\n      revert\n    tag_265:\n        /* \"Uniswap/contracts/UniswapV2Pair.sol\":1334:1881  {... */\n      pop\n      pop\n        /* \"Uniswap/contracts/UniswapV2Pair.sol\":1264:1881  function _safeTransfer(address token, address to, uint value) private {... */\n      pop\n      pop\n      pop\n      jump\t// out\n        /* \"Uniswap/contracts/libraries/SafeMath.sol\":454:594  function mul(uint x, uint y) internal pure returns (uint z) {... */\n    tag_152:\n        /* \"Uniswap/contracts/libraries/SafeMath.sol\":506:512  uint z */\n      0x00\n        /* \"Uniswap/contracts/libraries/SafeMath.sol\":537:538  0 */\n      dup1\n        /* \"Uniswap/contracts/libraries/SafeMath.sol\":532:533  y */\n      dup3\n        /* \"Uniswap/contracts/libraries/SafeMath.sol\":532:538  y == 0 */\n      eq\n        /* \"Uniswap/contracts/libraries/SafeMath.sol\":532:562  y == 0 || (z = x * y) / y == x */\n      dup1\n      tag_269\n      jumpi\n      pop\n        /* \"Uniswap/contracts/libraries/SafeMath.sol\":561:562  x */\n      dup3\n        /* \"Uniswap/contracts/libraries/SafeMath.sol\":556:557  y */\n      dup3\n        /* \"Uniswap/contracts/libraries/SafeMath.sol\":551:552  y */\n      dup4\n        /* \"Uniswap/contracts/libraries/SafeMath.sol\":547:548  x */\n      dup6\n        /* \"Uniswap/contracts/libraries/SafeMath.sol\":547:552  x * y */\n      tag_270\n      swap2\n      swap1\n      tag_271\n      jump\t// in\n    tag_270:\n        /* \"Uniswap/contracts/libraries/SafeMath.sol\":543:552  z = x * y */\n      swap3\n      pop\n      dup3\n        /* \"Uniswap/contracts/libraries/SafeMath.sol\":542:557  (z = x * y) / y */\n      tag_272\n      swap2\n      swap1\n      tag_207\n      jump\t// in\n    tag_272:\n        /* \"Uniswap/contracts/libraries/SafeMath.sol\":542:562  (z = x * y) / y == x */\n      eq\n        /* \"Uniswap/contracts/libraries/SafeMath.sol\":532:562  y == 0 || (z = x * y) / y == x */\n    tag_269:\n        /* \"Uniswap/contracts/libraries/SafeMath.sol\":524:587  require(y == 0 || (z = x * y) / y == x, 'ds-math-mul-overflow') */\n      tag_273\n      jumpi\n      mload(0x40)\n      0x08c379a000000000000000000000000000000000000000000000000000000000\n      dup2\n      mstore\n      0x04\n      add\n      tag_274\n      swap1\n      tag_275\n      jump\t// in\n    tag_274:\n      mload(0x40)\n      dup1\n      swap2\n      sub\n      swap1\n      revert\n    tag_273:\n        /* \"Uniswap/contracts/libraries/SafeMath.sol\":454:594  function mul(uint x, uint y) internal pure returns (uint z) {... */\n      swap3\n      swap2\n      pop\n      pop\n      jump\t// out\n        /* \"Uniswap/contracts/libraries/SafeMath.sol\":321:448  function sub(uint x, uint y) internal pure returns (uint z) {... */\n    tag_154:\n        /* \"Uniswap/contracts/libraries/SafeMath.sol\":373:379  uint z */\n      0x00\n        /* \"Uniswap/contracts/libraries/SafeMath.sol\":414:415  x */\n      dup3\n        /* \"Uniswap/contracts/libraries/SafeMath.sol\":408:409  y */\n      dup3\n        /* \"Uniswap/contracts/libraries/SafeMath.sol\":404:405  x */\n      dup5\n        /* \"Uniswap/contracts/libraries/SafeMath.sol\":404:409  x - y */\n      tag_277\n      swap2\n      swap1\n      tag_136\n      jump\t// in\n    tag_277:\n        /* \"Uniswap/contracts/libraries/SafeMath.sol\":400:409  z = x - y */\n      swap2\n      pop\n      dup2\n        /* \"Uniswap/contracts/libraries/SafeMath.sol\":399:415  (z = x - y) <= x */\n      gt\n      iszero\n        /* \"Uniswap/contracts/libraries/SafeMath.sol\":391:441  require((z = x - y) <= x, 'ds-math-sub-underflow') */\n      tag_278\n      jumpi\n      mload(0x40)\n      0x08c379a000000000000000000000000000000000000000000000000000000000\n      dup2\n      mstore\n      0x04\n      add\n      tag_279\n      swap1\n      tag_280\n      jump\t// in\n    tag_279:\n      mload(0x40)\n      dup1\n      swap2\n      sub\n      swap1\n      revert\n    tag_278:\n        /* \"Uniswap/contracts/libraries/SafeMath.sol\":321:448  function sub(uint x, uint y) internal pure returns (uint z) {... */\n      swap3\n      swap2\n      pop\n      pop\n      jump\t// out\n        /* \"Uniswap/contracts/UniswapV2Pair.sol\":2288:2671  function _update(uint balance0, uint balance1) private {... */\n    tag_165:\n        /* \"Uniswap/contracts/UniswapV2Pair.sol\":2426:2443  type(uint112).max */\n      0xffffffffffffffffffffffffffff\n        /* \"Uniswap/contracts/UniswapV2Pair.sol\":2414:2443  balance0 <= type(uint112).max */\n      dup1\n      and\n        /* \"Uniswap/contracts/UniswapV2Pair.sol\":2414:2422  balance0 */\n      dup3\n        /* \"Uniswap/contracts/UniswapV2Pair.sol\":2414:2443  balance0 <= type(uint112).max */\n      gt\n      iszero\n        /* \"Uniswap/contracts/UniswapV2Pair.sol\":2414:2476  balance0 <= type(uint112).max && balance1 <= type(uint112).max */\n      dup1\n      iszero\n      tag_282\n      jumpi\n      pop\n        /* \"Uniswap/contracts/UniswapV2Pair.sol\":2459:2476  type(uint112).max */\n      0xffffffffffffffffffffffffffff\n        /* \"Uniswap/contracts/UniswapV2Pair.sol\":2447:2476  balance1 <= type(uint112).max */\n      dup1\n      and\n        /* \"Uniswap/contracts/UniswapV2Pair.sol\":2447:2455  balance1 */\n      dup2\n        /* \"Uniswap/contracts/UniswapV2Pair.sol\":2447:2476  balance1 <= type(uint112).max */\n      gt\n      iszero\n        /* \"Uniswap/contracts/UniswapV2Pair.sol\":2414:2476  balance0 <= type(uint112).max && balance1 <= type(uint112).max */\n    tag_282:\n        /* \"Uniswap/contracts/UniswapV2Pair.sol\":2406:2500  require(balance0 <= type(uint112).max && balance1 <= type(uint112).max, 'UniswapV2: OVERFLOW') */\n      tag_283\n      jumpi\n      mload(0x40)\n      0x08c379a000000000000000000000000000000000000000000000000000000000\n      dup2\n      mstore\n      0x04\n      add\n      tag_284\n      swap1\n      tag_285\n      jump\t// in\n    tag_284:\n      mload(0x40)\n      dup1\n      swap2\n      sub\n      swap1\n      revert\n    tag_283:\n        /* \"Uniswap/contracts/UniswapV2Pair.sol\":2530:2538  balance0 */\n      dup2\n        /* \"Uniswap/contracts/UniswapV2Pair.sol\":2511:2519  reserve0 */\n      0x06\n      0x00\n        /* \"Uniswap/contracts/UniswapV2Pair.sol\":2511:2539  reserve0 = uint112(balance0) */\n      0x0100\n      exp\n      dup2\n      sload\n      dup2\n      0xffffffffffffffffffffffffffff\n      mul\n      not\n      and\n      swap1\n      dup4\n      0xffffffffffffffffffffffffffff\n      and\n      mul\n      or\n      swap1\n      sstore\n      pop\n        /* \"Uniswap/contracts/UniswapV2Pair.sol\":2568:2576  balance1 */\n      dup1\n        /* \"Uniswap/contracts/UniswapV2Pair.sol\":2549:2557  reserve1 */\n      0x06\n      0x0e\n        /* \"Uniswap/contracts/UniswapV2Pair.sol\":2549:2577  reserve1 = uint112(balance1) */\n      0x0100\n      exp\n      dup2\n      sload\n      dup2\n      0xffffffffffffffffffffffffffff\n      mul\n      not\n      and\n      swap1\n      dup4\n      0xffffffffffffffffffffffffffff\n      and\n      mul\n      or\n      swap1\n      sstore\n      pop\n        /* \"Uniswap/contracts/UniswapV2Pair.sol\":2640:2664  Sync(reserve0, reserve1) */\n      0x1c411e9a96e071241c2f21f7726b17ae89e3cab4c78be50e062b03a9fffbbad1\n        /* \"Uniswap/contracts/UniswapV2Pair.sol\":2645:2653  reserve0 */\n      0x06\n      0x00\n      swap1\n      sload\n      swap1\n      0x0100\n      exp\n      swap1\n      div\n      0xffffffffffffffffffffffffffff\n      and\n        /* \"Uniswap/contracts/UniswapV2Pair.sol\":2655:2663  reserve1 */\n      0x06\n      0x0e\n      swap1\n      sload\n      swap1\n      0x0100\n      exp\n      swap1\n      div\n      0xffffffffffffffffffffffffffff\n      and\n        /* \"Uniswap/contracts/UniswapV2Pair.sol\":2640:2664  Sync(reserve0, reserve1) */\n      mload(0x40)\n      tag_286\n      swap3\n      swap2\n      swap1\n      tag_35\n      jump\t// in\n    tag_286:\n      mload(0x40)\n      dup1\n      swap2\n      sub\n      swap1\n      log1\n        /* \"Uniswap/contracts/UniswapV2Pair.sol\":2288:2671  function _update(uint balance0, uint balance1) private {... */\n      pop\n      pop\n      jump\t// out\n        /* \"Uniswap/contracts/UniswapV2ERC20.sol\":1041:1207  function _approve(address owner, address spender, uint value) private {... */\n    tag_171:\n        /* \"Uniswap/contracts/UniswapV2ERC20.sol\":1149:1154  value */\n      dup1\n        /* \"Uniswap/contracts/UniswapV2ERC20.sol\":1121:1130  allowance */\n      0x02\n        /* \"Uniswap/contracts/UniswapV2ERC20.sol\":1121:1137  allowance[owner] */\n      0x00\n        /* \"Uniswap/contracts/UniswapV2ERC20.sol\":1131:1136  owner */\n      dup6\n        /* \"Uniswap/contracts/UniswapV2ERC20.sol\":1121:1137  allowance[owner] */\n      0xffffffffffffffffffffffffffffffffffffffff\n      and\n      0xffffffffffffffffffffffffffffffffffffffff\n      and\n      dup2\n      mstore\n      0x20\n      add\n      swap1\n      dup2\n      mstore\n      0x20\n      add\n      0x00\n      keccak256\n        /* \"Uniswap/contracts/UniswapV2ERC20.sol\":1121:1146  allowance[owner][spender] */\n      0x00\n        /* \"Uniswap/contracts/UniswapV2ERC20.sol\":1138:1145  spender */\n      dup5\n        /* \"Uniswap/contracts/UniswapV2ERC20.sol\":1121:1146  allowance[owner][spender] */\n      0xffffffffffffffffffffffffffffffffffffffff\n      and\n      0xffffffffffffffffffffffffffffffffffffffff\n      and\n      dup2\n      mstore\n      0x20\n      add\n      swap1\n      dup2\n      mstore\n      0x20\n      add\n      0x00\n      keccak256\n        /* \"Uniswap/contracts/UniswapV2ERC20.sol\":1121:1154  allowance[owner][spender] = value */\n      dup2\n      swap1\n      sstore\n      pop\n        /* \"Uniswap/contracts/UniswapV2ERC20.sol\":1185:1192  spender */\n      dup2\n        /* \"Uniswap/contracts/UniswapV2ERC20.sol\":1169:1200  Approval(owner, spender, value) */\n      0xffffffffffffffffffffffffffffffffffffffff\n      and\n        /* \"Uniswap/contracts/UniswapV2ERC20.sol\":1178:1183  owner */\n      dup4\n        /* \"Uniswap/contracts/UniswapV2ERC20.sol\":1169:1200  Approval(owner, spender, value) */\n      0xffffffffffffffffffffffffffffffffffffffff\n      and\n      0x8c5be1e5ebec7d5bd14f71427d1e84f3dd0314c0f7b2291e5b200ac8c7c3b925\n        /* \"Uniswap/contracts/UniswapV2ERC20.sol\":1194:1199  value */\n      dup4\n        /* \"Uniswap/contracts/UniswapV2ERC20.sol\":1169:1200  Approval(owner, spender, value) */\n      mload(0x40)\n      tag_288\n      swap2\n      swap1\n      tag_49\n      jump\t// in\n    tag_288:\n      mload(0x40)\n      dup1\n      swap2\n      sub\n      swap1\n      log3\n        /* \"Uniswap/contracts/UniswapV2ERC20.sol\":1041:1207  function _approve(address owner, address spender, uint value) private {... */\n      pop\n      pop\n      pop\n      jump\t// out\n        /* \"Uniswap/contracts/UniswapV2ERC20.sol\":1213:1429  function _transfer(address from, address to, uint value) private {... */\n    tag_176:\n        /* \"Uniswap/contracts/UniswapV2ERC20.sol\":1306:1332  balanceOf[from].sub(value) */\n      tag_290\n        /* \"Uniswap/contracts/UniswapV2ERC20.sol\":1326:1331  value */\n      dup2\n        /* \"Uniswap/contracts/UniswapV2ERC20.sol\":1306:1315  balanceOf */\n      0x01\n        /* \"Uniswap/contracts/UniswapV2ERC20.sol\":1306:1321  balanceOf[from] */\n      0x00\n        /* \"Uniswap/contracts/UniswapV2ERC20.sol\":1316:1320  from */\n      dup7\n        /* \"Uniswap/contracts/UniswapV2ERC20.sol\":1306:1321  balanceOf[from] */\n      0xffffffffffffffffffffffffffffffffffffffff\n      and\n      0xffffffffffffffffffffffffffffffffffffffff\n      and\n      dup2\n      mstore\n      0x20\n      add\n      swap1\n      dup2\n      mstore\n      0x20\n      add\n      0x00\n      keccak256\n      sload\n        /* \"Uniswap/contracts/UniswapV2ERC20.sol\":1306:1325  balanceOf[from].sub */\n      tag_154\n      swap1\n        /* \"Uniswap/contracts/UniswapV2ERC20.sol\":1306:1332  balanceOf[from].sub(value) */\n      swap2\n      swap1\n      0xffffffff\n      and\n      jump\t// in\n    tag_290:\n        /* \"Uniswap/contracts/UniswapV2ERC20.sol\":1288:1297  balanceOf */\n      0x01\n        /* \"Uniswap/contracts/UniswapV2ERC20.sol\":1288:1303  balanceOf[from] */\n      0x00\n        /* \"Uniswap/contracts/UniswapV2ERC20.sol\":1298:1302  from */\n      dup6\n        /* \"Uniswap/contracts/UniswapV2ERC20.sol\":1288:1303  balanceOf[from] */\n      0xffffffffffffffffffffffffffffffffffffffff\n      and\n      0xffffffffffffffffffffffffffffffffffffffff\n      and\n      dup2\n      mstore\n      0x20\n      add\n      swap1\n      dup2\n      mstore\n      0x20\n      add\n      0x00\n      keccak256\n        /* \"Uniswap/contracts/UniswapV2ERC20.sol\":1288:1332  balanceOf[from] = balanceOf[from].sub(value) */\n      dup2\n      swap1\n      sstore\n      pop\n        /* \"Uniswap/contracts/UniswapV2ERC20.sol\":1358:1382  balanceOf[to].add(value) */\n      tag_291\n        /* \"Uniswap/contracts/UniswapV2ERC20.sol\":1376:1381  value */\n      dup2\n        /* \"Uniswap/contracts/UniswapV2ERC20.sol\":1358:1367  balanceOf */\n      0x01\n        /* \"Uniswap/contracts/UniswapV2ERC20.sol\":1358:1371  balanceOf[to] */\n      0x00\n        /* \"Uniswap/contracts/UniswapV2ERC20.sol\":1368:1370  to */\n      dup6\n        /* \"Uniswap/contracts/UniswapV2ERC20.sol\":1358:1371  balanceOf[to] */\n      0xffffffffffffffffffffffffffffffffffffffff\n      and\n      0xffffffffffffffffffffffffffffffffffffffff\n      and\n      dup2\n      mstore\n      0x20\n      add\n      swap1\n      dup2\n      mstore\n      0x20\n      add\n      0x00\n      keccak256\n      sload\n        /* \"Uniswap/contracts/UniswapV2ERC20.sol\":1358:1375  balanceOf[to].add */\n      tag_292\n      swap1\n        /* \"Uniswap/contracts/UniswapV2ERC20.sol\":1358:1382  balanceOf[to].add(value) */\n      swap2\n      swap1\n      0xffffffff\n      and\n      jump\t// in\n    tag_291:\n        /* \"Uniswap/contracts/UniswapV2ERC20.sol\":1342:1351  balanceOf */\n      0x01\n        /* \"Uniswap/contracts/UniswapV2ERC20.sol\":1342:1355  balanceOf[to] */\n      0x00\n        /* \"Uniswap/contracts/UniswapV2ERC20.sol\":1352:1354  to */\n      dup5\n        /* \"Uniswap/contracts/UniswapV2ERC20.sol\":1342:1355  balanceOf[to] */\n      0xffffffffffffffffffffffffffffffffffffffff\n      and\n      0xffffffffffffffffffffffffffffffffffffffff\n      and\n      dup2\n      mstore\n      0x20\n      add\n      swap1\n      dup2\n      mstore\n      0x20\n      add\n      0x00\n      keccak256\n        /* \"Uniswap/contracts/UniswapV2ERC20.sol\":1342:1382  balanceOf[to] = balanceOf[to].add(value) */\n      dup2\n      swap1\n      sstore\n      pop\n        /* \"Uniswap/contracts/UniswapV2ERC20.sol\":1412:1414  to */\n      dup2\n        /* \"Uniswap/contracts/UniswapV2ERC20.sol\":1397:1422  Transfer(from, to, value) */\n      0xffffffffffffffffffffffffffffffffffffffff\n      and\n        /* \"Uniswap/contracts/UniswapV2ERC20.sol\":1406:1410  from */\n      dup4\n        /* \"Uniswap/contracts/UniswapV2ERC20.sol\":1397:1422  Transfer(from, to, value) */\n      0xffffffffffffffffffffffffffffffffffffffff\n      and\n      0xddf252ad1be2c89b69c2b068fc378daa952ba7f163c4a11628f55a4df523b3ef\n        /* \"Uniswap/contracts/UniswapV2ERC20.sol\":1416:1421  value */\n      dup4\n        /* \"Uniswap/contracts/UniswapV2ERC20.sol\":1397:1422  Transfer(from, to, value) */\n      mload(0x40)\n      tag_293\n      swap2\n      swap1\n      tag_49\n      jump\t// in\n    tag_293:\n      mload(0x40)\n      dup1\n      swap2\n      sub\n      swap1\n      log3\n        /* \"Uniswap/contracts/UniswapV2ERC20.sol\":1213:1429  function _transfer(address from, address to, uint value) private {... */\n      pop\n      pop\n      pop\n      jump\t// out\n        /* \"Uniswap/contracts/libraries/Math.sol\":341:633  function sqrt(uint y) internal pure returns (uint z) {... */\n    tag_200:\n        /* \"Uniswap/contracts/libraries/Math.sol\":386:392  uint z */\n      0x00\n        /* \"Uniswap/contracts/libraries/Math.sol\":412:413  3 */\n      0x03\n        /* \"Uniswap/contracts/libraries/Math.sol\":408:409  y */\n      dup3\n        /* \"Uniswap/contracts/libraries/Math.sol\":408:413  y > 3 */\n      gt\n        /* \"Uniswap/contracts/libraries/Math.sol\":404:627  if (y > 3) {... */\n      iszero\n      tag_295\n      jumpi\n        /* \"Uniswap/contracts/libraries/Math.sol\":433:434  y */\n      dup2\n        /* \"Uniswap/contracts/libraries/Math.sol\":429:434  z = y */\n      swap1\n      pop\n        /* \"Uniswap/contracts/libraries/Math.sol\":448:454  uint x */\n      0x00\n        /* \"Uniswap/contracts/libraries/Math.sol\":465:466  1 */\n      0x01\n        /* \"Uniswap/contracts/libraries/Math.sol\":461:462  2 */\n      0x02\n        /* \"Uniswap/contracts/libraries/Math.sol\":457:458  y */\n      dup5\n        /* \"Uniswap/contracts/libraries/Math.sol\":457:462  y / 2 */\n      tag_296\n      swap2\n      swap1\n      tag_207\n      jump\t// in\n    tag_296:\n        /* \"Uniswap/contracts/libraries/Math.sol\":457:466  y / 2 + 1 */\n      tag_297\n      swap2\n      swap1\n      tag_298\n      jump\t// in\n    tag_297:\n        /* \"Uniswap/contracts/libraries/Math.sol\":448:466  uint x = y / 2 + 1 */\n      swap1\n      pop\n        /* \"Uniswap/contracts/libraries/Math.sol\":480:569  while (x < z) {... */\n    tag_299:\n        /* \"Uniswap/contracts/libraries/Math.sol\":491:492  z */\n      dup2\n        /* \"Uniswap/contracts/libraries/Math.sol\":487:488  x */\n      dup2\n        /* \"Uniswap/contracts/libraries/Math.sol\":487:492  x < z */\n      lt\n        /* \"Uniswap/contracts/libraries/Math.sol\":480:569  while (x < z) {... */\n      iszero\n      tag_300\n      jumpi\n        /* \"Uniswap/contracts/libraries/Math.sol\":516:517  x */\n      dup1\n        /* \"Uniswap/contracts/libraries/Math.sol\":512:517  z = x */\n      swap2\n      pop\n        /* \"Uniswap/contracts/libraries/Math.sol\":553:554  2 */\n      0x02\n        /* \"Uniswap/contracts/libraries/Math.sol\":548:549  x */\n      dup2\n        /* \"Uniswap/contracts/libraries/Math.sol\":544:545  x */\n      dup3\n        /* \"Uniswap/contracts/libraries/Math.sol\":540:541  y */\n      dup6\n        /* \"Uniswap/contracts/libraries/Math.sol\":540:545  y / x */\n      tag_301\n      swap2\n      swap1\n      tag_207\n      jump\t// in\n    tag_301:\n        /* \"Uniswap/contracts/libraries/Math.sol\":540:549  y / x + x */\n      tag_302\n      swap2\n      swap1\n      tag_298\n      jump\t// in\n    tag_302:\n        /* \"Uniswap/contracts/libraries/Math.sol\":539:554  (y / x + x) / 2 */\n      tag_303\n      swap2\n      swap1\n      tag_207\n      jump\t// in\n    tag_303:\n        /* \"Uniswap/contracts/libraries/Math.sol\":535:554  x = (y / x + x) / 2 */\n      swap1\n      pop\n        /* \"Uniswap/contracts/libraries/Math.sol\":480:569  while (x < z) {... */\n      jump(tag_299)\n    tag_300:\n        /* \"Uniswap/contracts/libraries/Math.sol\":415:579  {... */\n      pop\n        /* \"Uniswap/contracts/libraries/Math.sol\":404:627  if (y > 3) {... */\n      jump(tag_304)\n    tag_295:\n        /* \"Uniswap/contracts/libraries/Math.sol\":594:595  0 */\n      0x00\n        /* \"Uniswap/contracts/libraries/Math.sol\":589:590  y */\n      dup3\n        /* \"Uniswap/contracts/libraries/Math.sol\":589:595  y != 0 */\n      eq\n        /* \"Uniswap/contracts/libraries/Math.sol\":585:627  if (y != 0) {... */\n      tag_305\n      jumpi\n        /* \"Uniswap/contracts/libraries/Math.sol\":615:616  1 */\n      0x01\n        /* \"Uniswap/contracts/libraries/Math.sol\":611:616  z = 1 */\n      swap1\n      pop\n        /* \"Uniswap/contracts/libraries/Math.sol\":585:627  if (y != 0) {... */\n    tag_305:\n        /* \"Uniswap/contracts/libraries/Math.sol\":404:627  if (y > 3) {... */\n    tag_304:\n        /* \"Uniswap/contracts/libraries/Math.sol\":341:633  function sqrt(uint y) internal pure returns (uint z) {... */\n      swap2\n      swap1\n      pop\n      jump\t// out\n        /* \"Uniswap/contracts/UniswapV2ERC20.sol\":627:824  function _mint(address to, uint value) internal {... */\n    tag_202:\n        /* \"Uniswap/contracts/UniswapV2ERC20.sol\":699:721  totalSupply.add(value) */\n      tag_307\n        /* \"Uniswap/contracts/UniswapV2ERC20.sol\":715:720  value */\n      dup2\n        /* \"Uniswap/contracts/UniswapV2ERC20.sol\":699:710  totalSupply */\n      sload(0x00)\n        /* \"Uniswap/contracts/UniswapV2ERC20.sol\":699:714  totalSupply.add */\n      tag_292\n      swap1\n        /* \"Uniswap/contracts/UniswapV2ERC20.sol\":699:721  totalSupply.add(value) */\n      swap2\n      swap1\n      0xffffffff\n      and\n      jump\t// in\n    tag_307:\n        /* \"Uniswap/contracts/UniswapV2ERC20.sol\":685:696  totalSupply */\n      0x00\n        /* \"Uniswap/contracts/UniswapV2ERC20.sol\":685:721  totalSupply = totalSupply.add(value) */\n      dup2\n      swap1\n      sstore\n      pop\n        /* \"Uniswap/contracts/UniswapV2ERC20.sol\":747:771  balanceOf[to].add(value) */\n      tag_308\n        /* \"Uniswap/contracts/UniswapV2ERC20.sol\":765:770  value */\n      dup2\n        /* \"Uniswap/contracts/UniswapV2ERC20.sol\":747:756  balanceOf */\n      0x01\n        /* \"Uniswap/contracts/UniswapV2ERC20.sol\":747:760  balanceOf[to] */\n      0x00\n        /* \"Uniswap/contracts/UniswapV2ERC20.sol\":757:759  to */\n      dup6\n        /* \"Uniswap/contracts/UniswapV2ERC20.sol\":747:760  balanceOf[to] */\n      0xffffffffffffffffffffffffffffffffffffffff\n      and\n      0xffffffffffffffffffffffffffffffffffffffff\n      and\n      dup2\n      mstore\n      0x20\n      add\n      swap1\n      dup2\n      mstore\n      0x20\n      add\n      0x00\n      keccak256\n      sload\n        /* \"Uniswap/contracts/UniswapV2ERC20.sol\":747:764  balanceOf[to].add */\n      tag_292\n      swap1\n        /* \"Uniswap/contracts/UniswapV2ERC20.sol\":747:771  balanceOf[to].add(value) */\n      swap2\n      swap1\n      0xffffffff\n      and\n      jump\t// in\n    tag_308:\n        /* \"Uniswap/contracts/UniswapV2ERC20.sol\":731:740  balanceOf */\n      0x01\n        /* \"Uniswap/contracts/UniswapV2ERC20.sol\":731:744  balanceOf[to] */\n      0x00\n        /* \"Uniswap/contracts/UniswapV2ERC20.sol\":741:743  to */\n      dup5\n        /* \"Uniswap/contracts/UniswapV2ERC20.sol\":731:744  balanceOf[to] */\n      0xffffffffffffffffffffffffffffffffffffffff\n      and\n      0xffffffffffffffffffffffffffffffffffffffff\n      and\n      dup2\n      mstore\n      0x20\n      add\n      swap1\n      dup2\n      mstore\n      0x20\n      add\n      0x00\n      keccak256\n        /* \"Uniswap/contracts/UniswapV2ERC20.sol\":731:771  balanceOf[to] = balanceOf[to].add(value) */\n      dup2\n      swap1\n      sstore\n      pop\n        /* \"Uniswap/contracts/UniswapV2ERC20.sol\":807:809  to */\n      dup2\n        /* \"Uniswap/contracts/UniswapV2ERC20.sol\":786:817  Transfer(address(0), to, value) */\n      0xffffffffffffffffffffffffffffffffffffffff\n      and\n        /* \"Uniswap/contracts/UniswapV2ERC20.sol\":803:804  0 */\n      0x00\n        /* \"Uniswap/contracts/UniswapV2ERC20.sol\":786:817  Transfer(address(0), to, value) */\n      0xffffffffffffffffffffffffffffffffffffffff\n      and\n      0xddf252ad1be2c89b69c2b068fc378daa952ba7f163c4a11628f55a4df523b3ef\n        /* \"Uniswap/contracts/UniswapV2ERC20.sol\":811:816  value */\n      dup4\n        /* \"Uniswap/contracts/UniswapV2ERC20.sol\":786:817  Transfer(address(0), to, value) */\n      mload(0x40)\n      tag_309\n      swap2\n      swap1\n      tag_49\n      jump\t// in\n    tag_309:\n      mload(0x40)\n      dup1\n      swap2\n      sub\n      swap1\n      log3\n        /* \"Uniswap/contracts/UniswapV2ERC20.sol\":627:824  function _mint(address to, uint value) internal {... */\n      pop\n      pop\n      jump\t// out\n        /* \"Uniswap/contracts/libraries/Math.sol\":132:226  function min(uint x, uint y) internal pure returns (uint z) {... */\n    tag_210:\n        /* \"Uniswap/contracts/libraries/Math.sol\":184:190  uint z */\n      0x00\n        /* \"Uniswap/contracts/libraries/Math.sol\":210:211  y */\n      dup2\n        /* \"Uniswap/contracts/libraries/Math.sol\":206:207  x */\n      dup4\n        /* \"Uniswap/contracts/libraries/Math.sol\":206:211  x < y */\n      lt\n        /* \"Uniswap/contracts/libraries/Math.sol\":206:219  x < y ? x : y */\n      tag_311\n      jumpi\n        /* \"Uniswap/contracts/libraries/Math.sol\":218:219  y */\n      dup2\n        /* \"Uniswap/contracts/libraries/Math.sol\":206:219  x < y ? x : y */\n      jump(tag_312)\n    tag_311:\n        /* \"Uniswap/contracts/libraries/Math.sol\":214:215  x */\n      dup3\n        /* \"Uniswap/contracts/libraries/Math.sol\":206:219  x < y ? x : y */\n    tag_312:\n        /* \"Uniswap/contracts/libraries/Math.sol\":202:219  z = x < y ? x : y */\n      swap1\n      pop\n        /* \"Uniswap/contracts/libraries/Math.sol\":132:226  function min(uint x, uint y) internal pure returns (uint z) {... */\n      swap3\n      swap2\n      pop\n      pop\n      jump\t// out\n        /* \"Uniswap/contracts/UniswapV2ERC20.sol\":830:1035  function _burn(address from, uint value) internal {... */\n    tag_238:\n        /* \"Uniswap/contracts/UniswapV2ERC20.sol\":908:934  balanceOf[from].sub(value) */\n      tag_314\n        /* \"Uniswap/contracts/UniswapV2ERC20.sol\":928:933  value */\n      dup2\n        /* \"Uniswap/contracts/UniswapV2ERC20.sol\":908:917  balanceOf */\n      0x01\n        /* \"Uniswap/contracts/UniswapV2ERC20.sol\":908:923  balanceOf[from] */\n      0x00\n        /* \"Uniswap/contracts/UniswapV2ERC20.sol\":918:922  from */\n      dup6\n        /* \"Uniswap/contracts/UniswapV2ERC20.sol\":908:923  balanceOf[from] */\n      0xffffffffffffffffffffffffffffffffffffffff\n      and\n      0xffffffffffffffffffffffffffffffffffffffff\n      and\n      dup2\n      mstore\n      0x20\n      add\n      swap1\n      dup2\n      mstore\n      0x20\n      add\n      0x00\n      keccak256\n      sload\n        /* \"Uniswap/contracts/UniswapV2ERC20.sol\":908:927  balanceOf[from].sub */\n      tag_154\n      swap1\n        /* \"Uniswap/contracts/UniswapV2ERC20.sol\":908:934  balanceOf[from].sub(value) */\n      swap2\n      swap1\n      0xffffffff\n      and\n      jump\t// in\n    tag_314:\n        /* \"Uniswap/contracts/UniswapV2ERC20.sol\":890:899  balanceOf */\n      0x01\n        /* \"Uniswap/contracts/UniswapV2ERC20.sol\":890:905  balanceOf[from] */\n      0x00\n        /* \"Uniswap/contracts/UniswapV2ERC20.sol\":900:904  from */\n      dup5\n        /* \"Uniswap/contracts/UniswapV2ERC20.sol\":890:905  balanceOf[from] */\n      0xffffffffffffffffffffffffffffffffffffffff\n      and\n      0xffffffffffffffffffffffffffffffffffffffff\n      and\n      dup2\n      mstore\n      0x20\n      add\n      swap1\n      dup2\n      mstore\n      0x20\n      add\n      0x00\n      keccak256\n        /* \"Uniswap/contracts/UniswapV2ERC20.sol\":890:934  balanceOf[from] = balanceOf[from].sub(value) */\n      dup2\n      swap1\n      sstore\n      pop\n        /* \"Uniswap/contracts/UniswapV2ERC20.sol\":958:980  totalSupply.sub(value) */\n      tag_315\n        /* \"Uniswap/contracts/UniswapV2ERC20.sol\":974:979  value */\n      dup2\n        /* \"Uniswap/contracts/UniswapV2ERC20.sol\":958:969  totalSupply */\n      sload(0x00)\n        /* \"Uniswap/contracts/UniswapV2ERC20.sol\":958:973  totalSupply.sub */\n      tag_154\n      swap1\n        /* \"Uniswap/contracts/UniswapV2ERC20.sol\":958:980  totalSupply.sub(value) */\n      swap2\n      swap1\n      0xffffffff\n      and\n      jump\t// in\n    tag_315:\n        /* \"Uniswap/contracts/UniswapV2ERC20.sol\":944:955  totalSupply */\n      0x00\n        /* \"Uniswap/contracts/UniswapV2ERC20.sol\":944:980  totalSupply = totalSupply.sub(value) */\n      dup2\n      swap1\n      sstore\n      pop\n        /* \"Uniswap/contracts/UniswapV2ERC20.sol\":1018:1019  0 */\n      0x00\n        /* \"Uniswap/contracts/UniswapV2ERC20.sol\":995:1028  Transfer(from, address(0), value) */\n      0xffffffffffffffffffffffffffffffffffffffff\n      and\n        /* \"Uniswap/contracts/UniswapV2ERC20.sol\":1004:1008  from */\n      dup3\n        /* \"Uniswap/contracts/UniswapV2ERC20.sol\":995:1028  Transfer(from, address(0), value) */\n      0xffffffffffffffffffffffffffffffffffffffff\n      and\n      0xddf252ad1be2c89b69c2b068fc378daa952ba7f163c4a11628f55a4df523b3ef\n        /* \"Uniswap/contracts/UniswapV2ERC20.sol\":1022:1027  value */\n      dup4\n        /* \"Uniswap/contracts/UniswapV2ERC20.sol\":995:1028  Transfer(from, address(0), value) */\n      mload(0x40)\n      tag_316\n      swap2\n      swap1\n      tag_49\n      jump\t// in\n    tag_316:\n      mload(0x40)\n      dup1\n      swap2\n      sub\n      swap1\n      log3\n        /* \"Uniswap/contracts/UniswapV2ERC20.sol\":830:1035  function _burn(address from, uint value) internal {... */\n      pop\n      pop\n      jump\t// out\n        /* \"Uniswap/contracts/libraries/SafeMath.sol\":189:315  function add(uint x, uint y) internal pure returns (uint z) {... */\n    tag_292:\n        /* \"Uniswap/contracts/libraries/SafeMath.sol\":241:247  uint z */\n      0x00\n        /* \"Uniswap/contracts/libraries/SafeMath.sol\":282:283  x */\n      dup3\n        /* \"Uniswap/contracts/libraries/SafeMath.sol\":276:277  y */\n      dup3\n        /* \"Uniswap/contracts/libraries/SafeMath.sol\":272:273  x */\n      dup5\n        /* \"Uniswap/contracts/libraries/SafeMath.sol\":272:277  x + y */\n      tag_318\n      swap2\n      swap1\n      tag_298\n      jump\t// in\n    tag_318:\n        /* \"Uniswap/contracts/libraries/SafeMath.sol\":268:277  z = x + y */\n      swap2\n      pop\n      dup2\n        /* \"Uniswap/contracts/libraries/SafeMath.sol\":267:283  (z = x + y) >= x */\n      lt\n      iszero\n        /* \"Uniswap/contracts/libraries/SafeMath.sol\":259:308  require((z = x + y) >= x, 'ds-math-add-overflow') */\n      tag_319\n      jumpi\n      mload(0x40)\n      0x08c379a000000000000000000000000000000000000000000000000000000000\n      dup2\n      mstore\n      0x04\n      add\n      tag_320\n      swap1\n      tag_321\n      jump\t// in\n    tag_320:\n      mload(0x40)\n      dup1\n      swap2\n      sub\n      swap1\n      revert\n    tag_319:\n        /* \"Uniswap/contracts/libraries/SafeMath.sol\":189:315  function add(uint x, uint y) internal pure returns (uint z) {... */\n      swap3\n      swap2\n      pop\n      pop\n      jump\t// out\n        /* \"#utility.yul\":88:205   */\n    tag_323:\n        /* \"#utility.yul\":197:198   */\n      0x00\n        /* \"#utility.yul\":194:195   */\n      dup1\n        /* \"#utility.yul\":187:199   */\n      revert\n        /* \"#utility.yul\":211:328   */\n    tag_324:\n        /* \"#utility.yul\":320:321   */\n      0x00\n        /* \"#utility.yul\":317:318   */\n      dup1\n        /* \"#utility.yul\":310:322   */\n      revert\n        /* \"#utility.yul\":334:411   */\n    tag_325:\n        /* \"#utility.yul\":371:378   */\n      0x00\n        /* \"#utility.yul\":400:405   */\n      dup2\n        /* \"#utility.yul\":389:405   */\n      swap1\n      pop\n        /* \"#utility.yul\":334:411   */\n      swap2\n      swap1\n      pop\n      jump\t// out\n        /* \"#utility.yul\":417:539   */\n    tag_326:\n        /* \"#utility.yul\":490:514   */\n      tag_394\n        /* \"#utility.yul\":508:513   */\n      dup2\n        /* \"#utility.yul\":490:514   */\n      tag_325\n      jump\t// in\n    tag_394:\n        /* \"#utility.yul\":483:488   */\n      dup2\n        /* \"#utility.yul\":480:515   */\n      eq\n        /* \"#utility.yul\":470:533   */\n      tag_395\n      jumpi\n        /* \"#utility.yul\":529:530   */\n      0x00\n        /* \"#utility.yul\":526:527   */\n      dup1\n        /* \"#utility.yul\":519:531   */\n      revert\n        /* \"#utility.yul\":470:533   */\n    tag_395:\n        /* \"#utility.yul\":417:539   */\n      pop\n      jump\t// out\n        /* \"#utility.yul\":545:684   */\n    tag_327:\n        /* \"#utility.yul\":591:596   */\n      0x00\n        /* \"#utility.yul\":629:635   */\n      dup2\n        /* \"#utility.yul\":616:636   */\n      calldataload\n        /* \"#utility.yul\":607:636   */\n      swap1\n      pop\n        /* \"#utility.yul\":645:678   */\n      tag_397\n        /* \"#utility.yul\":672:677   */\n      dup2\n        /* \"#utility.yul\":645:678   */\n      tag_326\n      jump\t// in\n    tag_397:\n        /* \"#utility.yul\":545:684   */\n      swap3\n      swap2\n      pop\n      pop\n      jump\t// out\n        /* \"#utility.yul\":690:816   */\n    tag_328:\n        /* \"#utility.yul\":727:734   */\n      0x00\n        /* \"#utility.yul\":767:809   */\n      0xffffffffffffffffffffffffffffffffffffffff\n        /* \"#utility.yul\":760:765   */\n      dup3\n        /* \"#utility.yul\":756:810   */\n      and\n        /* \"#utility.yul\":745:810   */\n      swap1\n      pop\n        /* \"#utility.yul\":690:816   */\n      swap2\n      swap1\n      pop\n      jump\t// out\n        /* \"#utility.yul\":822:918   */\n    tag_329:\n        /* \"#utility.yul\":859:866   */\n      0x00\n        /* \"#utility.yul\":888:912   */\n      tag_400\n        /* \"#utility.yul\":906:911   */\n      dup3\n        /* \"#utility.yul\":888:912   */\n      tag_328\n      jump\t// in\n    tag_400:\n        /* \"#utility.yul\":877:912   */\n      swap1\n      pop\n        /* \"#utility.yul\":822:918   */\n      swap2\n      swap1\n      pop\n      jump\t// out\n        /* \"#utility.yul\":924:1046   */\n    tag_330:\n        /* \"#utility.yul\":997:1021   */\n      tag_402\n        /* \"#utility.yul\":1015:1020   */\n      dup2\n        /* \"#utility.yul\":997:1021   */\n      tag_329\n      jump\t// in\n    tag_402:\n        /* \"#utility.yul\":990:995   */\n      dup2\n        /* \"#utility.yul\":987:1022   */\n      eq\n        /* \"#utility.yul\":977:1040   */\n      tag_403\n      jumpi\n        /* \"#utility.yul\":1036:1037   */\n      0x00\n        /* \"#utility.yul\":1033:1034   */\n      dup1\n        /* \"#utility.yul\":1026:1038   */\n      revert\n        /* \"#utility.yul\":977:1040   */\n    tag_403:\n        /* \"#utility.yul\":924:1046   */\n      pop\n      jump\t// out\n        /* \"#utility.yul\":1052:1191   */\n    tag_331:\n        /* \"#utility.yul\":1098:1103   */\n      0x00\n        /* \"#utility.yul\":1136:1142   */\n      dup2\n        /* \"#utility.yul\":1123:1143   */\n      calldataload\n        /* \"#utility.yul\":1114:1143   */\n      swap1\n      pop\n        /* \"#utility.yul\":1152:1185   */\n      tag_405\n        /* \"#utility.yul\":1179:1184   */\n      dup2\n        /* \"#utility.yul\":1152:1185   */\n      tag_330\n      jump\t// in\n    tag_405:\n        /* \"#utility.yul\":1052:1191   */\n      swap3\n      swap2\n      pop\n      pop\n      jump\t// out\n        /* \"#utility.yul\":1197:1314   */\n    tag_332:\n        /* \"#utility.yul\":1306:1307   */\n      0x00\n        /* \"#utility.yul\":1303:1304   */\n      dup1\n        /* \"#utility.yul\":1296:1308   */\n      revert\n        /* \"#utility.yul\":1320:1437   */\n    tag_333:\n        /* \"#utility.yul\":1429:1430   */\n      0x00\n        /* \"#utility.yul\":1426:1427   */\n      dup1\n        /* \"#utility.yul\":1419:1431   */\n      revert\n        /* \"#utility.yul\":1443:1560   */\n    tag_334:\n        /* \"#utility.yul\":1552:1553   */\n      0x00\n        /* \"#utility.yul\":1549:1550   */\n      dup1\n        /* \"#utility.yul\":1542:1554   */\n      revert\n        /* \"#utility.yul\":1579:2131   */\n    tag_335:\n        /* \"#utility.yul\":1636:1644   */\n      0x00\n        /* \"#utility.yul\":1646:1652   */\n      dup1\n        /* \"#utility.yul\":1696:1699   */\n      dup4\n        /* \"#utility.yul\":1689:1693   */\n      0x1f\n        /* \"#utility.yul\":1681:1687   */\n      dup5\n        /* \"#utility.yul\":1677:1694   */\n      add\n        /* \"#utility.yul\":1673:1700   */\n      slt\n        /* \"#utility.yul\":1663:1785   */\n      tag_410\n      jumpi\n        /* \"#utility.yul\":1704:1783   */\n      tag_411\n      tag_332\n      jump\t// in\n    tag_411:\n        /* \"#utility.yul\":1663:1785   */\n    tag_410:\n        /* \"#utility.yul\":1817:1823   */\n      dup3\n        /* \"#utility.yul\":1804:1824   */\n      calldataload\n        /* \"#utility.yul\":1794:1824   */\n      swap1\n      pop\n        /* \"#utility.yul\":1847:1865   */\n      0xffffffffffffffff\n        /* \"#utility.yul\":1839:1845   */\n      dup2\n        /* \"#utility.yul\":1836:1866   */\n      gt\n        /* \"#utility.yul\":1833:1950   */\n      iszero\n      tag_412\n      jumpi\n        /* \"#utility.yul\":1869:1948   */\n      tag_413\n      tag_333\n      jump\t// in\n    tag_413:\n        /* \"#utility.yul\":1833:1950   */\n    tag_412:\n        /* \"#utility.yul\":1983:1987   */\n      0x20\n        /* \"#utility.yul\":1975:1981   */\n      dup4\n        /* \"#utility.yul\":1971:1988   */\n      add\n        /* \"#utility.yul\":1959:1988   */\n      swap2\n      pop\n        /* \"#utility.yul\":2037:2040   */\n      dup4\n        /* \"#utility.yul\":2029:2033   */\n      0x01\n        /* \"#utility.yul\":2021:2027   */\n      dup3\n        /* \"#utility.yul\":2017:2034   */\n      mul\n        /* \"#utility.yul\":2007:2015   */\n      dup4\n        /* \"#utility.yul\":2003:2035   */\n      add\n        /* \"#utility.yul\":2000:2041   */\n      gt\n        /* \"#utility.yul\":1997:2125   */\n      iszero\n      tag_414\n      jumpi\n        /* \"#utility.yul\":2044:2123   */\n      tag_415\n      tag_334\n      jump\t// in\n    tag_415:\n        /* \"#utility.yul\":1997:2125   */\n    tag_414:\n        /* \"#utility.yul\":1579:2131   */\n      swap3\n      pop\n      swap3\n      swap1\n      pop\n      jump\t// out\n        /* \"#utility.yul\":2137:3100   */\n    tag_26:\n        /* \"#utility.yul\":2234:2240   */\n      0x00\n        /* \"#utility.yul\":2242:2248   */\n      dup1\n        /* \"#utility.yul\":2250:2256   */\n      0x00\n        /* \"#utility.yul\":2258:2264   */\n      dup1\n        /* \"#utility.yul\":2266:2272   */\n      0x00\n        /* \"#utility.yul\":2315:2318   */\n      0x80\n        /* \"#utility.yul\":2303:2312   */\n      dup7\n        /* \"#utility.yul\":2294:2301   */\n      dup9\n        /* \"#utility.yul\":2290:2313   */\n      sub\n        /* \"#utility.yul\":2286:2319   */\n      slt\n        /* \"#utility.yul\":2283:2403   */\n      iszero\n      tag_417\n      jumpi\n        /* \"#utility.yul\":2322:2401   */\n      tag_418\n      tag_323\n      jump\t// in\n    tag_418:\n        /* \"#utility.yul\":2283:2403   */\n    tag_417:\n        /* \"#utility.yul\":2442:2443   */\n      0x00\n        /* \"#utility.yul\":2467:2520   */\n      tag_419\n        /* \"#utility.yul\":2512:2519   */\n      dup9\n        /* \"#utility.yul\":2503:2509   */\n      dup3\n        /* \"#utility.yul\":2492:2501   */\n      dup10\n        /* \"#utility.yul\":2488:2510   */\n      add\n        /* \"#utility.yul\":2467:2520   */\n      tag_327\n      jump\t// in\n    tag_419:\n        /* \"#utility.yul\":2457:2520   */\n      swap6\n      pop\n        /* \"#utility.yul\":2413:2530   */\n      pop\n        /* \"#utility.yul\":2569:2571   */\n      0x20\n        /* \"#utility.yul\":2595:2648   */\n      tag_420\n        /* \"#utility.yul\":2640:2647   */\n      dup9\n        /* \"#utility.yul\":2631:2637   */\n      dup3\n        /* \"#utility.yul\":2620:2629   */\n      dup10\n        /* \"#utility.yul\":2616:2638   */\n      add\n        /* \"#utility.yul\":2595:2648   */\n      tag_327\n      jump\t// in\n    tag_420:\n        /* \"#utility.yul\":2585:2648   */\n      swap5\n      pop\n        /* \"#utility.yul\":2540:2658   */\n      pop\n        /* \"#utility.yul\":2697:2699   */\n      0x40\n        /* \"#utility.yul\":2723:2776   */\n      tag_421\n        /* \"#utility.yul\":2768:2775   */\n      dup9\n        /* \"#utility.yul\":2759:2765   */\n      dup3\n        /* \"#utility.yul\":2748:2757   */\n      dup10\n        /* \"#utility.yul\":2744:2766   */\n      add\n        /* \"#utility.yul\":2723:2776   */\n      tag_331\n      jump\t// in\n    tag_421:\n        /* \"#utility.yul\":2713:2776   */\n      swap4\n      pop\n        /* \"#utility.yul\":2668:2786   */\n      pop\n        /* \"#utility.yul\":2853:2855   */\n      0x60\n        /* \"#utility.yul\":2842:2851   */\n      dup7\n        /* \"#utility.yul\":2838:2856   */\n      add\n        /* \"#utility.yul\":2825:2857   */\n      calldataload\n        /* \"#utility.yul\":2884:2902   */\n      0xffffffffffffffff\n        /* \"#utility.yul\":2876:2882   */\n      dup2\n        /* \"#utility.yul\":2873:2903   */\n      gt\n        /* \"#utility.yul\":2870:2987   */\n      iszero\n      tag_422\n      jumpi\n        /* \"#utility.yul\":2906:2985   */\n      tag_423\n      tag_324\n      jump\t// in\n    tag_423:\n        /* \"#utility.yul\":2870:2987   */\n    tag_422:\n        /* \"#utility.yul\":3019:3083   */\n      tag_424\n        /* \"#utility.yul\":3075:3082   */\n      dup9\n        /* \"#utility.yul\":3066:3072   */\n      dup3\n        /* \"#utility.yul\":3055:3064   */\n      dup10\n        /* \"#utility.yul\":3051:3073   */\n      add\n        /* \"#utility.yul\":3019:3083   */\n      tag_335\n      jump\t// in\n    tag_424:\n        /* \"#utility.yul\":3001:3083   */\n      swap3\n      pop\n      swap3\n      pop\n        /* \"#utility.yul\":2796:3093   */\n      pop\n        /* \"#utility.yul\":2137:3100   */\n      swap3\n      swap6\n      pop\n      swap3\n      swap6\n      swap1\n      swap4\n      pop\n      jump\t// out\n        /* \"#utility.yul\":3106:3205   */\n    tag_336:\n        /* \"#utility.yul\":3158:3164   */\n      0x00\n        /* \"#utility.yul\":3192:3197   */\n      dup2\n        /* \"#utility.yul\":3186:3198   */\n      mload\n        /* \"#utility.yul\":3176:3198   */\n      swap1\n      pop\n        /* \"#utility.yul\":3106:3205   */\n      swap2\n      swap1\n      pop\n      jump\t// out\n        /* \"#utility.yul\":3211:3380   */\n    tag_337:\n        /* \"#utility.yul\":3295:3306   */\n      0x00\n        /* \"#utility.yul\":3329:3335   */\n      dup3\n        /* \"#utility.yul\":3324:3327   */\n      dup3\n        /* \"#utility.yul\":3317:3336   */\n      mstore\n        /* \"#utility.yul\":3369:3373   */\n      0x20\n        /* \"#utility.yul\":3364:3367   */\n      dup3\n        /* \"#utility.yul\":3360:3374   */\n      add\n        /* \"#utility.yul\":3345:3374   */\n      swap1\n      pop\n        /* \"#utility.yul\":3211:3380   */\n      swap3\n      swap2\n      pop\n      pop\n      jump\t// out\n        /* \"#utility.yul\":3386:3632   */\n    tag_338:\n        /* \"#utility.yul\":3467:3468   */\n      0x00\n        /* \"#utility.yul\":3477:3590   */\n    tag_428:\n        /* \"#utility.yul\":3491:3497   */\n      dup4\n        /* \"#utility.yul\":3488:3489   */\n      dup2\n        /* \"#utility.yul\":3485:3498   */\n      lt\n        /* \"#utility.yul\":3477:3590   */\n      iszero\n      tag_430\n      jumpi\n        /* \"#utility.yul\":3576:3577   */\n      dup1\n        /* \"#utility.yul\":3571:3574   */\n      dup3\n        /* \"#utility.yul\":3567:3578   */\n      add\n        /* \"#utility.yul\":3561:3579   */\n      mload\n        /* \"#utility.yul\":3557:3558   */\n      dup2\n        /* \"#utility.yul\":3552:3555   */\n      dup5\n        /* \"#utility.yul\":3548:3559   */\n      add\n        /* \"#utility.yul\":3541:3580   */\n      mstore\n        /* \"#utility.yul\":3513:3515   */\n      0x20\n        /* \"#utility.yul\":3510:3511   */\n      dup2\n        /* \"#utility.yul\":3506:3516   */\n      add\n        /* \"#utility.yul\":3501:3516   */\n      swap1\n      pop\n        /* \"#utility.yul\":3477:3590   */\n      jump(tag_428)\n    tag_430:\n        /* \"#utility.yul\":3624:3625   */\n      0x00\n        /* \"#utility.yul\":3615:3621   */\n      dup5\n        /* \"#utility.yul\":3610:3613   */\n      dup5\n        /* \"#utility.yul\":3606:3622   */\n      add\n        /* \"#utility.yul\":3599:3626   */\n      mstore\n        /* \"#utility.yul\":3448:3632   */\n      pop\n        /* \"#utility.yul\":3386:3632   */\n      pop\n      pop\n      pop\n      jump\t// out\n        /* \"#utility.yul\":3638:3740   */\n    tag_339:\n        /* \"#utility.yul\":3679:3685   */\n      0x00\n        /* \"#utility.yul\":3730:3732   */\n      0x1f\n        /* \"#utility.yul\":3726:3733   */\n      not\n        /* \"#utility.yul\":3721:3723   */\n      0x1f\n        /* \"#utility.yul\":3714:3719   */\n      dup4\n        /* \"#utility.yul\":3710:3724   */\n      add\n        /* \"#utility.yul\":3706:3734   */\n      and\n        /* \"#utility.yul\":3696:3734   */\n      swap1\n      pop\n        /* \"#utility.yul\":3638:3740   */\n      swap2\n      swap1\n      pop\n      jump\t// out\n        /* \"#utility.yul\":3746:4123   */\n    tag_340:\n        /* \"#utility.yul\":3834:3837   */\n      0x00\n        /* \"#utility.yul\":3862:3901   */\n      tag_433\n        /* \"#utility.yul\":3895:3900   */\n      dup3\n        /* \"#utility.yul\":3862:3901   */\n      tag_336\n      jump\t// in\n    tag_433:\n        /* \"#utility.yul\":3917:3988   */\n      tag_434\n        /* \"#utility.yul\":3981:3987   */\n      dup2\n        /* \"#utility.yul\":3976:3979   */\n      dup6\n        /* \"#utility.yul\":3917:3988   */\n      tag_337\n      jump\t// in\n    tag_434:\n        /* \"#utility.yul\":3910:3988   */\n      swap4\n      pop\n        /* \"#utility.yul\":3997:4062   */\n      tag_435\n        /* \"#utility.yul\":4055:4061   */\n      dup2\n        /* \"#utility.yul\":4050:4053   */\n      dup6\n        /* \"#utility.yul\":4043:4047   */\n      0x20\n        /* \"#utility.yul\":4036:4041   */\n      dup7\n        /* \"#utility.yul\":4032:4048   */\n      add\n        /* \"#utility.yul\":3997:4062   */\n      tag_338\n      jump\t// in\n    tag_435:\n        /* \"#utility.yul\":4087:4116   */\n      tag_436\n        /* \"#utility.yul\":4109:4115   */\n      dup2\n        /* \"#utility.yul\":4087:4116   */\n      tag_339\n      jump\t// in\n    tag_436:\n        /* \"#utility.yul\":4082:4085   */\n      dup5\n        /* \"#utility.yul\":4078:4117   */\n      add\n        /* \"#utility.yul\":4071:4117   */\n      swap2\n      pop\n        /* \"#utility.yul\":3838:4123   */\n      pop\n        /* \"#utility.yul\":3746:4123   */\n      swap3\n      swap2\n      pop\n      pop\n      jump\t// out\n        /* \"#utility.yul\":4129:4442   */\n    tag_31:\n        /* \"#utility.yul\":4242:4246   */\n      0x00\n        /* \"#utility.yul\":4280:4282   */\n      0x20\n        /* \"#utility.yul\":4269:4278   */\n      dup3\n        /* \"#utility.yul\":4265:4283   */\n      add\n        /* \"#utility.yul\":4257:4283   */\n      swap1\n      pop\n        /* \"#utility.yul\":4329:4338   */\n      dup2\n        /* \"#utility.yul\":4323:4327   */\n      dup2\n        /* \"#utility.yul\":4319:4339   */\n      sub\n        /* \"#utility.yul\":4315:4316   */\n      0x00\n        /* \"#utility.yul\":4304:4313   */\n      dup4\n        /* \"#utility.yul\":4300:4317   */\n      add\n        /* \"#utility.yul\":4293:4340   */\n      mstore\n        /* \"#utility.yul\":4357:4435   */\n      tag_438\n        /* \"#utility.yul\":4430:4434   */\n      dup2\n        /* \"#utility.yul\":4421:4427   */\n      dup5\n        /* \"#utility.yul\":4357:4435   */\n      tag_340\n      jump\t// in\n    tag_438:\n        /* \"#utility.yul\":4349:4435   */\n      swap1\n      pop\n        /* \"#utility.yul\":4129:4442   */\n      swap3\n      swap2\n      pop\n      pop\n      jump\t// out\n        /* \"#utility.yul\":4448:4562   */\n    tag_341:\n        /* \"#utility.yul\":4485:4492   */\n      0x00\n        /* \"#utility.yul\":4525:4555   */\n      0xffffffffffffffffffffffffffff\n        /* \"#utility.yul\":4518:4523   */\n      dup3\n        /* \"#utility.yul\":4514:4556   */\n      and\n        /* \"#utility.yul\":4503:4556   */\n      swap1\n      pop\n        /* \"#utility.yul\":4448:4562   */\n      swap2\n      swap1\n      pop\n      jump\t// out\n        /* \"#utility.yul\":4568:4686   */\n    tag_342:\n        /* \"#utility.yul\":4655:4679   */\n      tag_441\n        /* \"#utility.yul\":4673:4678   */\n      dup2\n        /* \"#utility.yul\":4655:4679   */\n      tag_341\n      jump\t// in\n    tag_441:\n        /* \"#utility.yul\":4650:4653   */\n      dup3\n        /* \"#utility.yul\":4643:4680   */\n      mstore\n        /* \"#utility.yul\":4568:4686   */\n      pop\n      pop\n      jump\t// out\n        /* \"#utility.yul\":4692:5024   */\n    tag_35:\n        /* \"#utility.yul\":4813:4817   */\n      0x00\n        /* \"#utility.yul\":4851:4853   */\n      0x40\n        /* \"#utility.yul\":4840:4849   */\n      dup3\n        /* \"#utility.yul\":4836:4854   */\n      add\n        /* \"#utility.yul\":4828:4854   */\n      swap1\n      pop\n        /* \"#utility.yul\":4864:4935   */\n      tag_443\n        /* \"#utility.yul\":4932:4933   */\n      0x00\n        /* \"#utility.yul\":4921:4930   */\n      dup4\n        /* \"#utility.yul\":4917:4934   */\n      add\n        /* \"#utility.yul\":4908:4914   */\n      dup6\n        /* \"#utility.yul\":4864:4935   */\n      tag_342\n      jump\t// in\n    tag_443:\n        /* \"#utility.yul\":4945:5017   */\n      tag_444\n        /* \"#utility.yul\":5013:5015   */\n      0x20\n        /* \"#utility.yul\":5002:5011   */\n      dup4\n        /* \"#utility.yul\":4998:5016   */\n      add\n        /* \"#utility.yul\":4989:4995   */\n      dup5\n        /* \"#utility.yul\":4945:5017   */\n      tag_342\n      jump\t// in\n    tag_444:\n        /* \"#utility.yul\":4692:5024   */\n      swap4\n      swap3\n      pop\n      pop\n      pop\n      jump\t// out\n        /* \"#utility.yul\":5030:5504   */\n    tag_38:\n        /* \"#utility.yul\":5098:5104   */\n      0x00\n        /* \"#utility.yul\":5106:5112   */\n      dup1\n        /* \"#utility.yul\":5155:5157   */\n      0x40\n        /* \"#utility.yul\":5143:5152   */\n      dup4\n        /* \"#utility.yul\":5134:5141   */\n      dup6\n        /* \"#utility.yul\":5130:5153   */\n      sub\n        /* \"#utility.yul\":5126:5158   */\n      slt\n        /* \"#utility.yul\":5123:5242   */\n      iszero\n      tag_446\n      jumpi\n        /* \"#utility.yul\":5161:5240   */\n      tag_447\n      tag_323\n      jump\t// in\n    tag_447:\n        /* \"#utility.yul\":5123:5242   */\n    tag_446:\n        /* \"#utility.yul\":5281:5282   */\n      0x00\n        /* \"#utility.yul\":5306:5359   */\n      tag_448\n        /* \"#utility.yul\":5351:5358   */\n      dup6\n        /* \"#utility.yul\":5342:5348   */\n      dup3\n        /* \"#utility.yul\":5331:5340   */\n      dup7\n        /* \"#utility.yul\":5327:5349   */\n      add\n        /* \"#utility.yul\":5306:5359   */\n      tag_331\n      jump\t// in\n    tag_448:\n        /* \"#utility.yul\":5296:5359   */\n      swap3\n      pop\n        /* \"#utility.yul\":5252:5369   */\n      pop\n        /* \"#utility.yul\":5408:5410   */\n      0x20\n        /* \"#utility.yul\":5434:5487   */\n      tag_449\n        /* \"#utility.yul\":5479:5486   */\n      dup6\n        /* \"#utility.yul\":5470:5476   */\n      dup3\n        /* \"#utility.yul\":5459:5468   */\n      dup7\n        /* \"#utility.yul\":5455:5477   */\n      add\n        /* \"#utility.yul\":5434:5487   */\n      tag_327\n      jump\t// in\n    tag_449:\n        /* \"#utility.yul\":5424:5487   */\n      swap2\n      pop\n        /* \"#utility.yul\":5379:5497   */\n      pop\n        /* \"#utility.yul\":5030:5504   */\n      swap3\n      pop\n      swap3\n      swap1\n      pop\n      jump\t// out\n        /* \"#utility.yul\":5510:5600   */\n    tag_343:\n        /* \"#utility.yul\":5544:5551   */\n      0x00\n        /* \"#utility.yul\":5587:5592   */\n      dup2\n        /* \"#utility.yul\":5580:5593   */\n      iszero\n        /* \"#utility.yul\":5573:5594   */\n      iszero\n        /* \"#utility.yul\":5562:5594   */\n      swap1\n      pop\n        /* \"#utility.yul\":5510:5600   */\n      swap2\n      swap1\n      pop\n      jump\t// out\n        /* \"#utility.yul\":5606:5715   */\n    tag_344:\n        /* \"#utility.yul\":5687:5708   */\n      tag_452\n        /* \"#utility.yul\":5702:5707   */\n      dup2\n        /* \"#utility.yul\":5687:5708   */\n      tag_343\n      jump\t// in\n    tag_452:\n        /* \"#utility.yul\":5682:5685   */\n      dup3\n        /* \"#utility.yul\":5675:5709   */\n      mstore\n        /* \"#utility.yul\":5606:5715   */\n      pop\n      pop\n      jump\t// out\n        /* \"#utility.yul\":5721:5931   */\n    tag_41:\n        /* \"#utility.yul\":5808:5812   */\n      0x00\n        /* \"#utility.yul\":5846:5848   */\n      0x20\n        /* \"#utility.yul\":5835:5844   */\n      dup3\n        /* \"#utility.yul\":5831:5849   */\n      add\n        /* \"#utility.yul\":5823:5849   */\n      swap1\n      pop\n        /* \"#utility.yul\":5859:5924   */\n      tag_454\n        /* \"#utility.yul\":5921:5922   */\n      0x00\n        /* \"#utility.yul\":5910:5919   */\n      dup4\n        /* \"#utility.yul\":5906:5923   */\n      add\n        /* \"#utility.yul\":5897:5903   */\n      dup5\n        /* \"#utility.yul\":5859:5924   */\n      tag_344\n      jump\t// in\n    tag_454:\n        /* \"#utility.yul\":5721:5931   */\n      swap3\n      swap2\n      pop\n      pop\n      jump\t// out\n        /* \"#utility.yul\":5937:6055   */\n    tag_345:\n        /* \"#utility.yul\":6024:6048   */\n      tag_456\n        /* \"#utility.yul\":6042:6047   */\n      dup2\n        /* \"#utility.yul\":6024:6048   */\n      tag_329\n      jump\t// in\n    tag_456:\n        /* \"#utility.yul\":6019:6022   */\n      dup3\n        /* \"#utility.yul\":6012:6049   */\n      mstore\n        /* \"#utility.yul\":5937:6055   */\n      pop\n      pop\n      jump\t// out\n        /* \"#utility.yul\":6061:6283   */\n    tag_45:\n        /* \"#utility.yul\":6154:6158   */\n      0x00\n        /* \"#utility.yul\":6192:6194   */\n      0x20\n        /* \"#utility.yul\":6181:6190   */\n      dup3\n        /* \"#utility.yul\":6177:6195   */\n      add\n        /* \"#utility.yul\":6169:6195   */\n      swap1\n      pop\n        /* \"#utility.yul\":6205:6276   */\n      tag_458\n        /* \"#utility.yul\":6273:6274   */\n      0x00\n        /* \"#utility.yul\":6262:6271   */\n      dup4\n        /* \"#utility.yul\":6258:6275   */\n      add\n        /* \"#utility.yul\":6249:6255   */\n      dup5\n        /* \"#utility.yul\":6205:6276   */\n      tag_345\n      jump\t// in\n    tag_458:\n        /* \"#utility.yul\":6061:6283   */\n      swap3\n      swap2\n      pop\n      pop\n      jump\t// out\n        /* \"#utility.yul\":6289:6407   */\n    tag_346:\n        /* \"#utility.yul\":6376:6400   */\n      tag_460\n        /* \"#utility.yul\":6394:6399   */\n      dup2\n        /* \"#utility.yul\":6376:6400   */\n      tag_325\n      jump\t// in\n    tag_460:\n        /* \"#utility.yul\":6371:6374   */\n      dup3\n        /* \"#utility.yul\":6364:6401   */\n      mstore\n        /* \"#utility.yul\":6289:6407   */\n      pop\n      pop\n      jump\t// out\n        /* \"#utility.yul\":6413:6635   */\n    tag_49:\n        /* \"#utility.yul\":6506:6510   */\n      0x00\n        /* \"#utility.yul\":6544:6546   */\n      0x20\n        /* \"#utility.yul\":6533:6542   */\n      dup3\n        /* \"#utility.yul\":6529:6547   */\n      add\n        /* \"#utility.yul\":6521:6547   */\n      swap1\n      pop\n        /* \"#utility.yul\":6557:6628   */\n      tag_462\n        /* \"#utility.yul\":6625:6626   */\n      0x00\n        /* \"#utility.yul\":6614:6623   */\n      dup4\n        /* \"#utility.yul\":6610:6627   */\n      add\n        /* \"#utility.yul\":6601:6607   */\n      dup5\n        /* \"#utility.yul\":6557:6628   */\n      tag_346\n      jump\t// in\n    tag_462:\n        /* \"#utility.yul\":6413:6635   */\n      swap3\n      swap2\n      pop\n      pop\n      jump\t// out\n        /* \"#utility.yul\":6641:7260   */\n    tag_52:\n        /* \"#utility.yul\":6718:6724   */\n      0x00\n        /* \"#utility.yul\":6726:6732   */\n      dup1\n        /* \"#utility.yul\":6734:6740   */\n      0x00\n        /* \"#utility.yul\":6783:6785   */\n      0x60\n        /* \"#utility.yul\":6771:6780   */\n      dup5\n        /* \"#utility.yul\":6762:6769   */\n      dup7\n        /* \"#utility.yul\":6758:6781   */\n      sub\n        /* \"#utility.yul\":6754:6786   */\n      slt\n        /* \"#utility.yul\":6751:6870   */\n      iszero\n      tag_464\n      jumpi\n        /* \"#utility.yul\":6789:6868   */\n      tag_465\n      tag_323\n      jump\t// in\n    tag_465:\n        /* \"#utility.yul\":6751:6870   */\n    tag_464:\n        /* \"#utility.yul\":6909:6910   */\n      0x00\n        /* \"#utility.yul\":6934:6987   */\n      tag_466\n        /* \"#utility.yul\":6979:6986   */\n      dup7\n        /* \"#utility.yul\":6970:6976   */\n      dup3\n        /* \"#utility.yul\":6959:6968   */\n      dup8\n        /* \"#utility.yul\":6955:6977   */\n      add\n        /* \"#utility.yul\":6934:6987   */\n      tag_331\n      jump\t// in\n    tag_466:\n        /* \"#utility.yul\":6924:6987   */\n      swap4\n      pop\n        /* \"#utility.yul\":6880:6997   */\n      pop\n        /* \"#utility.yul\":7036:7038   */\n      0x20\n        /* \"#utility.yul\":7062:7115   */\n      tag_467\n        /* \"#utility.yul\":7107:7114   */\n      dup7\n        /* \"#utility.yul\":7098:7104   */\n      dup3\n        /* \"#utility.yul\":7087:7096   */\n      dup8\n        /* \"#utility.yul\":7083:7105   */\n      add\n        /* \"#utility.yul\":7062:7115   */\n      tag_331\n      jump\t// in\n    tag_467:\n        /* \"#utility.yul\":7052:7115   */\n      swap3\n      pop\n        /* \"#utility.yul\":7007:7125   */\n      pop\n        /* \"#utility.yul\":7164:7166   */\n      0x40\n        /* \"#utility.yul\":7190:7243   */\n      tag_468\n        /* \"#utility.yul\":7235:7242   */\n      dup7\n        /* \"#utility.yul\":7226:7232   */\n      dup3\n        /* \"#utility.yul\":7215:7224   */\n      dup8\n        /* \"#utility.yul\":7211:7233   */\n      add\n        /* \"#utility.yul\":7190:7243   */\n      tag_327\n      jump\t// in\n    tag_468:\n        /* \"#utility.yul\":7180:7243   */\n      swap2\n      pop\n        /* \"#utility.yul\":7135:7253   */\n      pop\n        /* \"#utility.yul\":6641:7260   */\n      swap3\n      pop\n      swap3\n      pop\n      swap3\n      jump\t// out\n        /* \"#utility.yul\":7266:7352   */\n    tag_347:\n        /* \"#utility.yul\":7301:7308   */\n      0x00\n        /* \"#utility.yul\":7341:7345   */\n      0xff\n        /* \"#utility.yul\":7334:7339   */\n      dup3\n        /* \"#utility.yul\":7330:7346   */\n      and\n        /* \"#utility.yul\":7319:7346   */\n      swap1\n      pop\n        /* \"#utility.yul\":7266:7352   */\n      swap2\n      swap1\n      pop\n      jump\t// out\n        /* \"#utility.yul\":7358:7470   */\n    tag_348:\n        /* \"#utility.yul\":7441:7463   */\n      tag_471\n        /* \"#utility.yul\":7457:7462   */\n      dup2\n        /* \"#utility.yul\":7441:7463   */\n      tag_347\n      jump\t// in\n    tag_471:\n        /* \"#utility.yul\":7436:7439   */\n      dup3\n        /* \"#utility.yul\":7429:7464   */\n      mstore\n        /* \"#utility.yul\":7358:7470   */\n      pop\n      pop\n      jump\t// out\n        /* \"#utility.yul\":7476:7690   */\n    tag_58:\n        /* \"#utility.yul\":7565:7569   */\n      0x00\n        /* \"#utility.yul\":7603:7605   */\n      0x20\n        /* \"#utility.yul\":7592:7601   */\n      dup3\n        /* \"#utility.yul\":7588:7606   */\n      add\n        /* \"#utility.yul\":7580:7606   */\n      swap1\n      pop\n        /* \"#utility.yul\":7616:7683   */\n      tag_473\n        /* \"#utility.yul\":7680:7681   */\n      0x00\n        /* \"#utility.yul\":7669:7678   */\n      dup4\n        /* \"#utility.yul\":7665:7682   */\n      add\n        /* \"#utility.yul\":7656:7662   */\n      dup5\n        /* \"#utility.yul\":7616:7683   */\n      tag_348\n      jump\t// in\n    tag_473:\n        /* \"#utility.yul\":7476:7690   */\n      swap3\n      swap2\n      pop\n      pop\n      jump\t// out\n        /* \"#utility.yul\":7696:8170   */\n    tag_61:\n        /* \"#utility.yul\":7764:7770   */\n      0x00\n        /* \"#utility.yul\":7772:7778   */\n      dup1\n        /* \"#utility.yul\":7821:7823   */\n      0x40\n        /* \"#utility.yul\":7809:7818   */\n      dup4\n        /* \"#utility.yul\":7800:7807   */\n      dup6\n        /* \"#utility.yul\":7796:7819   */\n      sub\n        /* \"#utility.yul\":7792:7824   */\n      slt\n        /* \"#utility.yul\":7789:7908   */\n      iszero\n      tag_475\n      jumpi\n        /* \"#utility.yul\":7827:7906   */\n      tag_476\n      tag_323\n      jump\t// in\n    tag_476:\n        /* \"#utility.yul\":7789:7908   */\n    tag_475:\n        /* \"#utility.yul\":7947:7948   */\n      0x00\n        /* \"#utility.yul\":7972:8025   */\n      tag_477\n        /* \"#utility.yul\":8017:8024   */\n      dup6\n        /* \"#utility.yul\":8008:8014   */\n      dup3\n        /* \"#utility.yul\":7997:8006   */\n      dup7\n        /* \"#utility.yul\":7993:8015   */\n      add\n        /* \"#utility.yul\":7972:8025   */\n      tag_331\n      jump\t// in\n    tag_477:\n        /* \"#utility.yul\":7962:8025   */\n      swap3\n      pop\n        /* \"#utility.yul\":7918:8035   */\n      pop\n        /* \"#utility.yul\":8074:8076   */\n      0x20\n        /* \"#utility.yul\":8100:8153   */\n      tag_478\n        /* \"#utility.yul\":8145:8152   */\n      dup6\n        /* \"#utility.yul\":8136:8142   */\n      dup3\n        /* \"#utility.yul\":8125:8134   */\n      dup7\n        /* \"#utility.yul\":8121:8143   */\n      add\n        /* \"#utility.yul\":8100:8153   */\n      tag_331\n      jump\t// in\n    tag_478:\n        /* \"#utility.yul\":8090:8153   */\n      swap2\n      pop\n        /* \"#utility.yul\":8045:8163   */\n      pop\n        /* \"#utility.yul\":7696:8170   */\n      swap3\n      pop\n      swap3\n      swap1\n      pop\n      jump\t// out\n        /* \"#utility.yul\":8176:8505   */\n    tag_65:\n        /* \"#utility.yul\":8235:8241   */\n      0x00\n        /* \"#utility.yul\":8284:8286   */\n      0x20\n        /* \"#utility.yul\":8272:8281   */\n      dup3\n        /* \"#utility.yul\":8263:8270   */\n      dup5\n        /* \"#utility.yul\":8259:8282   */\n      sub\n        /* \"#utility.yul\":8255:8287   */\n      slt\n        /* \"#utility.yul\":8252:8371   */\n      iszero\n      tag_480\n      jumpi\n        /* \"#utility.yul\":8290:8369   */\n      tag_481\n      tag_323\n      jump\t// in\n    tag_481:\n        /* \"#utility.yul\":8252:8371   */\n    tag_480:\n        /* \"#utility.yul\":8410:8411   */\n      0x00\n        /* \"#utility.yul\":8435:8488   */\n      tag_482\n        /* \"#utility.yul\":8480:8487   */\n      dup5\n        /* \"#utility.yul\":8471:8477   */\n      dup3\n        /* \"#utility.yul\":8460:8469   */\n      dup6\n        /* \"#utility.yul\":8456:8478   */\n      add\n        /* \"#utility.yul\":8435:8488   */\n      tag_331\n      jump\t// in\n    tag_482:\n        /* \"#utility.yul\":8425:8488   */\n      swap2\n      pop\n        /* \"#utility.yul\":8381:8498   */\n      pop\n        /* \"#utility.yul\":8176:8505   */\n      swap3\n      swap2\n      pop\n      pop\n      jump\t// out\n        /* \"#utility.yul\":8511:8843   */\n    tag_76:\n        /* \"#utility.yul\":8632:8636   */\n      0x00\n        /* \"#utility.yul\":8670:8672   */\n      0x40\n        /* \"#utility.yul\":8659:8668   */\n      dup3\n        /* \"#utility.yul\":8655:8673   */\n      add\n        /* \"#utility.yul\":8647:8673   */\n      swap1\n      pop\n        /* \"#utility.yul\":8683:8754   */\n      tag_484\n        /* \"#utility.yul\":8751:8752   */\n      0x00\n        /* \"#utility.yul\":8740:8749   */\n      dup4\n        /* \"#utility.yul\":8736:8753   */\n      add\n        /* \"#utility.yul\":8727:8733   */\n      dup6\n        /* \"#utility.yul\":8683:8754   */\n      tag_346\n      jump\t// in\n    tag_484:\n        /* \"#utility.yul\":8764:8836   */\n      tag_485\n        /* \"#utility.yul\":8832:8834   */\n      0x20\n        /* \"#utility.yul\":8821:8830   */\n      dup4\n        /* \"#utility.yul\":8817:8835   */\n      add\n        /* \"#utility.yul\":8808:8814   */\n      dup5\n        /* \"#utility.yul\":8764:8836   */\n      tag_346\n      jump\t// in\n    tag_485:\n        /* \"#utility.yul\":8511:8843   */\n      swap4\n      swap3\n      pop\n      pop\n      pop\n      jump\t// out\n        /* \"#utility.yul\":8849:9016   */\n    tag_349:\n        /* \"#utility.yul\":8989:9008   */\n      0x556e697377617056323a204c4f434b4544000000000000000000000000000000\n        /* \"#utility.yul\":8985:8986   */\n      0x00\n        /* \"#utility.yul\":8977:8983   */\n      dup3\n        /* \"#utility.yul\":8973:8987   */\n      add\n        /* \"#utility.yul\":8966:9009   */\n      mstore\n        /* \"#utility.yul\":8849:9016   */\n      pop\n      jump\t// out\n        /* \"#utility.yul\":9022:9388   */\n    tag_350:\n        /* \"#utility.yul\":9164:9167   */\n      0x00\n        /* \"#utility.yul\":9185:9252   */\n      tag_488\n        /* \"#utility.yul\":9249:9251   */\n      0x11\n        /* \"#utility.yul\":9244:9247   */\n      dup4\n        /* \"#utility.yul\":9185:9252   */\n      tag_337\n      jump\t// in\n    tag_488:\n        /* \"#utility.yul\":9178:9252   */\n      swap2\n      pop\n        /* \"#utility.yul\":9261:9354   */\n      tag_489\n        /* \"#utility.yul\":9350:9353   */\n      dup3\n        /* \"#utility.yul\":9261:9354   */\n      tag_349\n      jump\t// in\n    tag_489:\n        /* \"#utility.yul\":9379:9381   */\n      0x20\n        /* \"#utility.yul\":9374:9377   */\n      dup3\n        /* \"#utility.yul\":9370:9382   */\n      add\n        /* \"#utility.yul\":9363:9382   */\n      swap1\n      pop\n        /* \"#utility.yul\":9022:9388   */\n      swap2\n      swap1\n      pop\n      jump\t// out\n        /* \"#utility.yul\":9394:9813   */\n    tag_100:\n        /* \"#utility.yul\":9560:9564   */\n      0x00\n        /* \"#utility.yul\":9598:9600   */\n      0x20\n        /* \"#utility.yul\":9587:9596   */\n      dup3\n        /* \"#utility.yul\":9583:9601   */\n      add\n        /* \"#utility.yul\":9575:9601   */\n      swap1\n      pop\n        /* \"#utility.yul\":9647:9656   */\n      dup2\n        /* \"#utility.yul\":9641:9645   */\n      dup2\n        /* \"#utility.yul\":9637:9657   */\n      sub\n        /* \"#utility.yul\":9633:9634   */\n      0x00\n        /* \"#utility.yul\":9622:9631   */\n      dup4\n        /* \"#utility.yul\":9618:9635   */\n      add\n        /* \"#utility.yul\":9611:9658   */\n      mstore\n        /* \"#utility.yul\":9675:9806   */\n      tag_491\n        /* \"#utility.yul\":9801:9805   */\n      dup2\n        /* \"#utility.yul\":9675:9806   */\n      tag_350\n      jump\t// in\n    tag_491:\n        /* \"#utility.yul\":9667:9806   */\n      swap1\n      pop\n        /* \"#utility.yul\":9394:9813   */\n      swap2\n      swap1\n      pop\n      jump\t// out\n        /* \"#utility.yul\":9819:10043   */\n    tag_351:\n        /* \"#utility.yul\":9959:9993   */\n      0x556e697377617056323a20494e53554646494349454e545f4f55545055545f41\n        /* \"#utility.yul\":9955:9956   */\n      0x00\n        /* \"#utility.yul\":9947:9953   */\n      dup3\n        /* \"#utility.yul\":9943:9957   */\n      add\n        /* \"#utility.yul\":9936:9994   */\n      mstore\n        /* \"#utility.yul\":10028:10035   */\n      0x4d4f554e54000000000000000000000000000000000000000000000000000000\n        /* \"#utility.yul\":10023:10025   */\n      0x20\n        /* \"#utility.yul\":10015:10021   */\n      dup3\n        /* \"#utility.yul\":10011:10026   */\n      add\n        /* \"#utility.yul\":10004:10036   */\n      mstore\n        /* \"#utility.yul\":9819:10043   */\n      pop\n      jump\t// out\n        /* \"#utility.yul\":10049:10415   */\n    tag_352:\n        /* \"#utility.yul\":10191:10194   */\n      0x00\n        /* \"#utility.yul\":10212:10279   */\n      tag_494\n        /* \"#utility.yul\":10276:10278   */\n      0x25\n        /* \"#utility.yul\":10271:10274   */\n      dup4\n        /* \"#utility.yul\":10212:10279   */\n      tag_337\n      jump\t// in\n    tag_494:\n        /* \"#utility.yul\":10205:10279   */\n      swap2\n      pop\n        /* \"#utility.yul\":10288:10381   */\n      tag_495\n        /* \"#utility.yul\":10377:10380   */\n      dup3\n        /* \"#utility.yul\":10288:10381   */\n      tag_351\n      jump\t// in\n    tag_495:\n        /* \"#utility.yul\":10406:10408   */\n      0x40\n        /* \"#utility.yul\":10401:10404   */\n      dup3\n        /* \"#utility.yul\":10397:10409   */\n      add\n        /* \"#utility.yul\":10390:10409   */\n      swap1\n      pop\n        /* \"#utility.yul\":10049:10415   */\n      swap2\n      swap1\n      pop\n      jump\t// out\n        /* \"#utility.yul\":10421:10840   */\n    tag_105:\n        /* \"#utility.yul\":10587:10591   */\n      0x00\n        /* \"#utility.yul\":10625:10627   */\n      0x20\n        /* \"#utility.yul\":10614:10623   */\n      dup3\n        /* \"#utility.yul\":10610:10628   */\n      add\n        /* \"#utility.yul\":10602:10628   */\n      swap1\n      pop\n        /* \"#utility.yul\":10674:10683   */\n      dup2\n        /* \"#utility.yul\":10668:10672   */\n      dup2\n        /* \"#utility.yul\":10664:10684   */\n      sub\n        /* \"#utility.yul\":10660:10661   */\n      0x00\n        /* \"#utility.yul\":10649:10658   */\n      dup4\n        /* \"#utility.yul\":10645:10662   */\n      add\n        /* \"#utility.yul\":10638:10685   */\n      mstore\n        /* \"#utility.yul\":10702:10833   */\n      tag_497\n        /* \"#utility.yul\":10828:10832   */\n      dup2\n        /* \"#utility.yul\":10702:10833   */\n      tag_352\n      jump\t// in\n    tag_497:\n        /* \"#utility.yul\":10694:10833   */\n      swap1\n      pop\n        /* \"#utility.yul\":10421:10840   */\n      swap2\n      swap1\n      pop\n      jump\t// out\n        /* \"#utility.yul\":10846:11066   */\n    tag_353:\n        /* \"#utility.yul\":10986:11020   */\n      0x556e697377617056323a20494e53554646494349454e545f4c49515549444954\n        /* \"#utility.yul\":10982:10983   */\n      0x00\n        /* \"#utility.yul\":10974:10980   */\n      dup3\n        /* \"#utility.yul\":10970:10984   */\n      add\n        /* \"#utility.yul\":10963:11021   */\n      mstore\n        /* \"#utility.yul\":11055:11058   */\n      0x5900000000000000000000000000000000000000000000000000000000000000\n        /* \"#utility.yul\":11050:11052   */\n      0x20\n        /* \"#utility.yul\":11042:11048   */\n      dup3\n        /* \"#utility.yul\":11038:11053   */\n      add\n        /* \"#utility.yul\":11031:11059   */\n      mstore\n        /* \"#utility.yul\":10846:11066   */\n      pop\n      jump\t// out\n        /* \"#utility.yul\":11072:11438   */\n    tag_354:\n        /* \"#utility.yul\":11214:11217   */\n      0x00\n        /* \"#utility.yul\":11235:11302   */\n      tag_500\n        /* \"#utility.yul\":11299:11301   */\n      0x21\n        /* \"#utility.yul\":11294:11297   */\n      dup4\n        /* \"#utility.yul\":11235:11302   */\n      tag_337\n      jump\t// in\n    tag_500:\n        /* \"#utility.yul\":11228:11302   */\n      swap2\n      pop\n        /* \"#utility.yul\":11311:11404   */\n      tag_501\n        /* \"#utility.yul\":11400:11403   */\n      dup3\n        /* \"#utility.yul\":11311:11404   */\n      tag_353\n      jump\t// in\n    tag_501:\n        /* \"#utility.yul\":11429:11431   */\n      0x40\n        /* \"#utility.yul\":11424:11427   */\n      dup3\n        /* \"#utility.yul\":11420:11432   */\n      add\n        /* \"#utility.yul\":11413:11432   */\n      swap1\n      pop\n        /* \"#utility.yul\":11072:11438   */\n      swap2\n      swap1\n      pop\n      jump\t// out\n        /* \"#utility.yul\":11444:11863   */\n    tag_110:\n        /* \"#utility.yul\":11610:11614   */\n      0x00\n        /* \"#utility.yul\":11648:11650   */\n      0x20\n        /* \"#utility.yul\":11637:11646   */\n      dup3\n        /* \"#utility.yul\":11633:11651   */\n      add\n        /* \"#utility.yul\":11625:11651   */\n      swap1\n      pop\n        /* \"#utility.yul\":11697:11706   */\n      dup2\n        /* \"#utility.yul\":11691:11695   */\n      dup2\n        /* \"#utility.yul\":11687:11707   */\n      sub\n        /* \"#utility.yul\":11683:11684   */\n      0x00\n        /* \"#utility.yul\":11672:11681   */\n      dup4\n        /* \"#utility.yul\":11668:11685   */\n      add\n        /* \"#utility.yul\":11661:11708   */\n      mstore\n        /* \"#utility.yul\":11725:11856   */\n      tag_503\n        /* \"#utility.yul\":11851:11855   */\n      dup2\n        /* \"#utility.yul\":11725:11856   */\n      tag_354\n      jump\t// in\n    tag_503:\n        /* \"#utility.yul\":11717:11856   */\n      swap1\n      pop\n        /* \"#utility.yul\":11444:11863   */\n      swap2\n      swap1\n      pop\n      jump\t// out\n        /* \"#utility.yul\":11869:12040   */\n    tag_355:\n        /* \"#utility.yul\":12009:12032   */\n      0x556e697377617056323a20494e56414c49445f544f0000000000000000000000\n        /* \"#utility.yul\":12005:12006   */\n      0x00\n        /* \"#utility.yul\":11997:12003   */\n      dup3\n        /* \"#utility.yul\":11993:12007   */\n      add\n        /* \"#utility.yul\":11986:12033   */\n      mstore\n        /* \"#utility.yul\":11869:12040   */\n      pop\n      jump\t// out\n        /* \"#utility.yul\":12046:12412   */\n    tag_356:\n        /* \"#utility.yul\":12188:12191   */\n      0x00\n        /* \"#utility.yul\":12209:12276   */\n      tag_506\n        /* \"#utility.yul\":12273:12275   */\n      0x15\n        /* \"#utility.yul\":12268:12271   */\n      dup4\n        /* \"#utility.yul\":12209:12276   */\n      tag_337\n      jump\t// in\n    tag_506:\n        /* \"#utility.yul\":12202:12276   */\n      swap2\n      pop\n        /* \"#utility.yul\":12285:12378   */\n      tag_507\n        /* \"#utility.yul\":12374:12377   */\n      dup3\n        /* \"#utility.yul\":12285:12378   */\n      tag_355\n      jump\t// in\n    tag_507:\n        /* \"#utility.yul\":12403:12405   */\n      0x20\n        /* \"#utility.yul\":12398:12401   */\n      dup3\n        /* \"#utility.yul\":12394:12406   */\n      add\n        /* \"#utility.yul\":12387:12406   */\n      swap1\n      pop\n        /* \"#utility.yul\":12046:12412   */\n      swap2\n      swap1\n      pop\n      jump\t// out\n        /* \"#utility.yul\":12418:12837   */\n    tag_114:\n        /* \"#utility.yul\":12584:12588   */\n      0x00\n        /* \"#utility.yul\":12622:12624   */\n      0x20\n        /* \"#utility.yul\":12611:12620   */\n      dup3\n        /* \"#utility.yul\":12607:12625   */\n      add\n        /* \"#utility.yul\":12599:12625   */\n      swap1\n      pop\n        /* \"#utility.yul\":12671:12680   */\n      dup2\n        /* \"#utility.yul\":12665:12669   */\n      dup2\n        /* \"#utility.yul\":12661:12681   */\n      sub\n        /* \"#utility.yul\":12657:12658   */\n      0x00\n        /* \"#utility.yul\":12646:12655   */\n      dup4\n        /* \"#utility.yul\":12642:12659   */\n      add\n        /* \"#utility.yul\":12635:12682   */\n      mstore\n        /* \"#utility.yul\":12699:12830   */\n      tag_509\n        /* \"#utility.yul\":12825:12829   */\n      dup2\n        /* \"#utility.yul\":12699:12830   */\n      tag_356\n      jump\t// in\n    tag_509:\n        /* \"#utility.yul\":12691:12830   */\n      swap1\n      pop\n        /* \"#utility.yul\":12418:12837   */\n      swap2\n      swap1\n      pop\n      jump\t// out\n        /* \"#utility.yul\":12843:13011   */\n    tag_357:\n        /* \"#utility.yul\":12926:12937   */\n      0x00\n        /* \"#utility.yul\":12960:12966   */\n      dup3\n        /* \"#utility.yul\":12955:12958   */\n      dup3\n        /* \"#utility.yul\":12948:12967   */\n      mstore\n        /* \"#utility.yul\":13000:13004   */\n      0x20\n        /* \"#utility.yul\":12995:12998   */\n      dup3\n        /* \"#utility.yul\":12991:13005   */\n      add\n        /* \"#utility.yul\":12976:13005   */\n      swap1\n      pop\n        /* \"#utility.yul\":12843:13011   */\n      swap3\n      swap2\n      pop\n      pop\n      jump\t// out\n        /* \"#utility.yul\":13017:13163   */\n    tag_358:\n        /* \"#utility.yul\":13114:13120   */\n      dup3\n        /* \"#utility.yul\":13109:13112   */\n      dup2\n        /* \"#utility.yul\":13104:13107   */\n      dup4\n        /* \"#utility.yul\":13091:13121   */\n      calldatacopy\n        /* \"#utility.yul\":13155:13156   */\n      0x00\n        /* \"#utility.yul\":13146:13152   */\n      dup4\n        /* \"#utility.yul\":13141:13144   */\n      dup4\n        /* \"#utility.yul\":13137:13153   */\n      add\n        /* \"#utility.yul\":13130:13157   */\n      mstore\n        /* \"#utility.yul\":13017:13163   */\n      pop\n      pop\n      pop\n      jump\t// out\n        /* \"#utility.yul\":13191:13505   */\n    tag_359:\n        /* \"#utility.yul\":13287:13290   */\n      0x00\n        /* \"#utility.yul\":13308:13378   */\n      tag_513\n        /* \"#utility.yul\":13371:13377   */\n      dup4\n        /* \"#utility.yul\":13366:13369   */\n      dup6\n        /* \"#utility.yul\":13308:13378   */\n      tag_357\n      jump\t// in\n    tag_513:\n        /* \"#utility.yul\":13301:13378   */\n      swap4\n      pop\n        /* \"#utility.yul\":13388:13444   */\n      tag_514\n        /* \"#utility.yul\":13437:13443   */\n      dup4\n        /* \"#utility.yul\":13432:13435   */\n      dup6\n        /* \"#utility.yul\":13425:13430   */\n      dup5\n        /* \"#utility.yul\":13388:13444   */\n      tag_358\n      jump\t// in\n    tag_514:\n        /* \"#utility.yul\":13469:13498   */\n      tag_515\n        /* \"#utility.yul\":13491:13497   */\n      dup4\n        /* \"#utility.yul\":13469:13498   */\n      tag_339\n      jump\t// in\n    tag_515:\n        /* \"#utility.yul\":13464:13467   */\n      dup5\n        /* \"#utility.yul\":13460:13499   */\n      add\n        /* \"#utility.yul\":13453:13499   */\n      swap1\n      pop\n        /* \"#utility.yul\":13191:13505   */\n      swap4\n      swap3\n      pop\n      pop\n      pop\n      jump\t// out\n        /* \"#utility.yul\":13511:14171   */\n    tag_122:\n        /* \"#utility.yul\":13716:13720   */\n      0x00\n        /* \"#utility.yul\":13754:13757   */\n      0x80\n        /* \"#utility.yul\":13743:13752   */\n      dup3\n        /* \"#utility.yul\":13739:13758   */\n      add\n        /* \"#utility.yul\":13731:13758   */\n      swap1\n      pop\n        /* \"#utility.yul\":13768:13839   */\n      tag_517\n        /* \"#utility.yul\":13836:13837   */\n      0x00\n        /* \"#utility.yul\":13825:13834   */\n      dup4\n        /* \"#utility.yul\":13821:13838   */\n      add\n        /* \"#utility.yul\":13812:13818   */\n      dup9\n        /* \"#utility.yul\":13768:13839   */\n      tag_345\n      jump\t// in\n    tag_517:\n        /* \"#utility.yul\":13849:13921   */\n      tag_518\n        /* \"#utility.yul\":13917:13919   */\n      0x20\n        /* \"#utility.yul\":13906:13915   */\n      dup4\n        /* \"#utility.yul\":13902:13920   */\n      add\n        /* \"#utility.yul\":13893:13899   */\n      dup8\n        /* \"#utility.yul\":13849:13921   */\n      tag_346\n      jump\t// in\n    tag_518:\n        /* \"#utility.yul\":13931:14003   */\n      tag_519\n        /* \"#utility.yul\":13999:14001   */\n      0x40\n        /* \"#utility.yul\":13988:13997   */\n      dup4\n        /* \"#utility.yul\":13984:14002   */\n      add\n        /* \"#utility.yul\":13975:13981   */\n      dup7\n        /* \"#utility.yul\":13931:14003   */\n      tag_346\n      jump\t// in\n    tag_519:\n        /* \"#utility.yul\":14050:14059   */\n      dup2\n        /* \"#utility.yul\":14044:14048   */\n      dup2\n        /* \"#utility.yul\":14040:14060   */\n      sub\n        /* \"#utility.yul\":14035:14037   */\n      0x60\n        /* \"#utility.yul\":14024:14033   */\n      dup4\n        /* \"#utility.yul\":14020:14038   */\n      add\n        /* \"#utility.yul\":14013:14061   */\n      mstore\n        /* \"#utility.yul\":14078:14164   */\n      tag_520\n        /* \"#utility.yul\":14159:14163   */\n      dup2\n        /* \"#utility.yul\":14150:14156   */\n      dup5\n        /* \"#utility.yul\":14142:14148   */\n      dup7\n        /* \"#utility.yul\":14078:14164   */\n      tag_359\n      jump\t// in\n    tag_520:\n        /* \"#utility.yul\":14070:14164   */\n      swap1\n      pop\n        /* \"#utility.yul\":13511:14171   */\n      swap7\n      swap6\n      pop\n      pop\n      pop\n      pop\n      pop\n      pop\n      jump\t// out\n        /* \"#utility.yul\":14177:14320   */\n    tag_360:\n        /* \"#utility.yul\":14234:14239   */\n      0x00\n        /* \"#utility.yul\":14265:14271   */\n      dup2\n        /* \"#utility.yul\":14259:14272   */\n      mload\n        /* \"#utility.yul\":14250:14272   */\n      swap1\n      pop\n        /* \"#utility.yul\":14281:14314   */\n      tag_522\n        /* \"#utility.yul\":14308:14313   */\n      dup2\n        /* \"#utility.yul\":14281:14314   */\n      tag_326\n      jump\t// in\n    tag_522:\n        /* \"#utility.yul\":14177:14320   */\n      swap3\n      swap2\n      pop\n      pop\n      jump\t// out\n        /* \"#utility.yul\":14326:14677   */\n    tag_130:\n        /* \"#utility.yul\":14396:14402   */\n      0x00\n        /* \"#utility.yul\":14445:14447   */\n      0x20\n        /* \"#utility.yul\":14433:14442   */\n      dup3\n        /* \"#utility.yul\":14424:14431   */\n      dup5\n        /* \"#utility.yul\":14420:14443   */\n      sub\n        /* \"#utility.yul\":14416:14448   */\n      slt\n        /* \"#utility.yul\":14413:14532   */\n      iszero\n      tag_524\n      jumpi\n        /* \"#utility.yul\":14451:14530   */\n      tag_525\n      tag_323\n      jump\t// in\n    tag_525:\n        /* \"#utility.yul\":14413:14532   */\n    tag_524:\n        /* \"#utility.yul\":14571:14572   */\n      0x00\n        /* \"#utility.yul\":14596:14660   */\n      tag_526\n        /* \"#utility.yul\":14652:14659   */\n      dup5\n        /* \"#utility.yul\":14643:14649   */\n      dup3\n        /* \"#utility.yul\":14632:14641   */\n      dup6\n        /* \"#utility.yul\":14628:14650   */\n      add\n        /* \"#utility.yul\":14596:14660   */\n      tag_360\n      jump\t// in\n    tag_526:\n        /* \"#utility.yul\":14586:14660   */\n      swap2\n      pop\n        /* \"#utility.yul\":14542:14670   */\n      pop\n        /* \"#utility.yul\":14326:14677   */\n      swap3\n      swap2\n      pop\n      pop\n      jump\t// out\n        /* \"#utility.yul\":14683:14863   */\n    tag_361:\n        /* \"#utility.yul\":14731:14808   */\n      0x4e487b7100000000000000000000000000000000000000000000000000000000\n        /* \"#utility.yul\":14728:14729   */\n      0x00\n        /* \"#utility.yul\":14721:14809   */\n      mstore\n        /* \"#utility.yul\":14828:14832   */\n      0x11\n        /* \"#utility.yul\":14825:14826   */\n      0x04\n        /* \"#utility.yul\":14818:14833   */\n      mstore\n        /* \"#utility.yul\":14852:14856   */\n      0x24\n        /* \"#utility.yul\":14849:14850   */\n      0x00\n        /* \"#utility.yul\":14842:14857   */\n      revert\n        /* \"#utility.yul\":14869:15063   */\n    tag_136:\n        /* \"#utility.yul\":14909:14913   */\n      0x00\n        /* \"#utility.yul\":14929:14949   */\n      tag_529\n        /* \"#utility.yul\":14947:14948   */\n      dup3\n        /* \"#utility.yul\":14929:14949   */\n      tag_325\n      jump\t// in\n    tag_529:\n        /* \"#utility.yul\":14924:14949   */\n      swap2\n      pop\n        /* \"#utility.yul\":14963:14983   */\n      tag_530\n        /* \"#utility.yul\":14981:14982   */\n      dup4\n        /* \"#utility.yul\":14963:14983   */\n      tag_325\n      jump\t// in\n    tag_530:\n        /* \"#utility.yul\":14958:14983   */\n      swap3\n      pop\n        /* \"#utility.yul\":15007:15008   */\n      dup3\n        /* \"#utility.yul\":15004:15005   */\n      dup3\n        /* \"#utility.yul\":15000:15009   */\n      sub\n        /* \"#utility.yul\":14992:15009   */\n      swap1\n      pop\n        /* \"#utility.yul\":15031:15032   */\n      dup2\n        /* \"#utility.yul\":15025:15029   */\n      dup2\n        /* \"#utility.yul\":15022:15033   */\n      gt\n        /* \"#utility.yul\":15019:15056   */\n      iszero\n      tag_531\n      jumpi\n        /* \"#utility.yul\":15036:15054   */\n      tag_532\n      tag_361\n      jump\t// in\n    tag_532:\n        /* \"#utility.yul\":15019:15056   */\n    tag_531:\n        /* \"#utility.yul\":14869:15063   */\n      swap3\n      swap2\n      pop\n      pop\n      jump\t// out\n        /* \"#utility.yul\":15069:15292   */\n    tag_362:\n        /* \"#utility.yul\":15209:15243   */\n      0x556e697377617056323a20494e53554646494349454e545f494e5055545f414d\n        /* \"#utility.yul\":15205:15206   */\n      0x00\n        /* \"#utility.yul\":15197:15203   */\n      dup3\n        /* \"#utility.yul\":15193:15207   */\n      add\n        /* \"#utility.yul\":15186:15244   */\n      mstore\n        /* \"#utility.yul\":15278:15284   */\n      0x4f554e5400000000000000000000000000000000000000000000000000000000\n        /* \"#utility.yul\":15273:15275   */\n      0x20\n        /* \"#utility.yul\":15265:15271   */\n      dup3\n        /* \"#utility.yul\":15261:15276   */\n      add\n        /* \"#utility.yul\":15254:15285   */\n      mstore\n        /* \"#utility.yul\":15069:15292   */\n      pop\n      jump\t// out\n        /* \"#utility.yul\":15298:15664   */\n    tag_363:\n        /* \"#utility.yul\":15440:15443   */\n      0x00\n        /* \"#utility.yul\":15461:15528   */\n      tag_535\n        /* \"#utility.yul\":15525:15527   */\n      0x24\n        /* \"#utility.yul\":15520:15523   */\n      dup4\n        /* \"#utility.yul\":15461:15528   */\n      tag_337\n      jump\t// in\n    tag_535:\n        /* \"#utility.yul\":15454:15528   */\n      swap2\n      pop\n        /* \"#utility.yul\":15537:15630   */\n      tag_536\n        /* \"#utility.yul\":15626:15629   */\n      dup3\n        /* \"#utility.yul\":15537:15630   */\n      tag_362\n      jump\t// in\n    tag_536:\n        /* \"#utility.yul\":15655:15657   */\n      0x40\n        /* \"#utility.yul\":15650:15653   */\n      dup3\n        /* \"#utility.yul\":15646:15658   */\n      add\n        /* \"#utility.yul\":15639:15658   */\n      swap1\n      pop\n        /* \"#utility.yul\":15298:15664   */\n      swap2\n      swap1\n      pop\n      jump\t// out\n        /* \"#utility.yul\":15670:16089   */\n    tag_149:\n        /* \"#utility.yul\":15836:15840   */\n      0x00\n        /* \"#utility.yul\":15874:15876   */\n      0x20\n        /* \"#utility.yul\":15863:15872   */\n      dup3\n        /* \"#utility.yul\":15859:15877   */\n      add\n        /* \"#utility.yul\":15851:15877   */\n      swap1\n      pop\n        /* \"#utility.yul\":15923:15932   */\n      dup2\n        /* \"#utility.yul\":15917:15921   */\n      dup2\n        /* \"#utility.yul\":15913:15933   */\n      sub\n        /* \"#utility.yul\":15909:15910   */\n      0x00\n        /* \"#utility.yul\":15898:15907   */\n      dup4\n        /* \"#utility.yul\":15894:15911   */\n      add\n        /* \"#utility.yul\":15887:15934   */\n      mstore\n        /* \"#utility.yul\":15951:16082   */\n      tag_538\n        /* \"#utility.yul\":16077:16081   */\n      dup2\n        /* \"#utility.yul\":15951:16082   */\n      tag_363\n      jump\t// in\n    tag_538:\n        /* \"#utility.yul\":15943:16082   */\n      swap1\n      pop\n        /* \"#utility.yul\":15670:16089   */\n      swap2\n      swap1\n      pop\n      jump\t// out\n        /* \"#utility.yul\":16095:16257   */\n    tag_364:\n        /* \"#utility.yul\":16235:16249   */\n      0x556e697377617056323a204b0000000000000000000000000000000000000000\n        /* \"#utility.yul\":16231:16232   */\n      0x00\n        /* \"#utility.yul\":16223:16229   */\n      dup3\n        /* \"#utility.yul\":16219:16233   */\n      add\n        /* \"#utility.yul\":16212:16250   */\n      mstore\n        /* \"#utility.yul\":16095:16257   */\n      pop\n      jump\t// out\n        /* \"#utility.yul\":16263:16629   */\n    tag_365:\n        /* \"#utility.yul\":16405:16408   */\n      0x00\n        /* \"#utility.yul\":16426:16493   */\n      tag_541\n        /* \"#utility.yul\":16490:16492   */\n      0x0c\n        /* \"#utility.yul\":16485:16488   */\n      dup4\n        /* \"#utility.yul\":16426:16493   */\n      tag_337\n      jump\t// in\n    tag_541:\n        /* \"#utility.yul\":16419:16493   */\n      swap2\n      pop\n        /* \"#utility.yul\":16502:16595   */\n      tag_542\n        /* \"#utility.yul\":16591:16594   */\n      dup3\n        /* \"#utility.yul\":16502:16595   */\n      tag_364\n      jump\t// in\n    tag_542:\n        /* \"#utility.yul\":16620:16622   */\n      0x20\n        /* \"#utility.yul\":16615:16618   */\n      dup3\n        /* \"#utility.yul\":16611:16623   */\n      add\n        /* \"#utility.yul\":16604:16623   */\n      swap1\n      pop\n        /* \"#utility.yul\":16263:16629   */\n      swap2\n      swap1\n      pop\n      jump\t// out\n        /* \"#utility.yul\":16635:17054   */\n    tag_163:\n        /* \"#utility.yul\":16801:16805   */\n      0x00\n        /* \"#utility.yul\":16839:16841   */\n      0x20\n        /* \"#utility.yul\":16828:16837   */\n      dup3\n        /* \"#utility.yul\":16824:16842   */\n      add\n        /* \"#utility.yul\":16816:16842   */\n      swap1\n      pop\n        /* \"#utility.yul\":16888:16897   */\n      dup2\n        /* \"#utility.yul\":16882:16886   */\n      dup2\n        /* \"#utility.yul\":16878:16898   */\n      sub\n        /* \"#utility.yul\":16874:16875   */\n      0x00\n        /* \"#utility.yul\":16863:16872   */\n      dup4\n        /* \"#utility.yul\":16859:16876   */\n      add\n        /* \"#utility.yul\":16852:16899   */\n      mstore\n        /* \"#utility.yul\":16916:17047   */\n      tag_544\n        /* \"#utility.yul\":17042:17046   */\n      dup2\n        /* \"#utility.yul\":16916:17047   */\n      tag_365\n      jump\t// in\n    tag_544:\n        /* \"#utility.yul\":16908:17047   */\n      swap1\n      pop\n        /* \"#utility.yul\":16635:17054   */\n      swap2\n      swap1\n      pop\n      jump\t// out\n        /* \"#utility.yul\":17060:17613   */\n    tag_167:\n        /* \"#utility.yul\":17237:17241   */\n      0x00\n        /* \"#utility.yul\":17275:17278   */\n      0x80\n        /* \"#utility.yul\":17264:17273   */\n      dup3\n        /* \"#utility.yul\":17260:17279   */\n      add\n        /* \"#utility.yul\":17252:17279   */\n      swap1\n      pop\n        /* \"#utility.yul\":17289:17360   */\n      tag_546\n        /* \"#utility.yul\":17357:17358   */\n      0x00\n        /* \"#utility.yul\":17346:17355   */\n      dup4\n        /* \"#utility.yul\":17342:17359   */\n      add\n        /* \"#utility.yul\":17333:17339   */\n      dup8\n        /* \"#utility.yul\":17289:17360   */\n      tag_346\n      jump\t// in\n    tag_546:\n        /* \"#utility.yul\":17370:17442   */\n      tag_547\n        /* \"#utility.yul\":17438:17440   */\n      0x20\n        /* \"#utility.yul\":17427:17436   */\n      dup4\n        /* \"#utility.yul\":17423:17441   */\n      add\n        /* \"#utility.yul\":17414:17420   */\n      dup7\n        /* \"#utility.yul\":17370:17442   */\n      tag_346\n      jump\t// in\n    tag_547:\n        /* \"#utility.yul\":17452:17524   */\n      tag_548\n        /* \"#utility.yul\":17520:17522   */\n      0x40\n        /* \"#utility.yul\":17509:17518   */\n      dup4\n        /* \"#utility.yul\":17505:17523   */\n      add\n        /* \"#utility.yul\":17496:17502   */\n      dup6\n        /* \"#utility.yul\":17452:17524   */\n      tag_346\n      jump\t// in\n    tag_548:\n        /* \"#utility.yul\":17534:17606   */\n      tag_549\n        /* \"#utility.yul\":17602:17604   */\n      0x60\n        /* \"#utility.yul\":17591:17600   */\n      dup4\n        /* \"#utility.yul\":17587:17605   */\n      add\n        /* \"#utility.yul\":17578:17584   */\n      dup5\n        /* \"#utility.yul\":17534:17606   */\n      tag_346\n      jump\t// in\n    tag_549:\n        /* \"#utility.yul\":17060:17613   */\n      swap6\n      swap5\n      pop\n      pop\n      pop\n      pop\n      pop\n      jump\t// out\n        /* \"#utility.yul\":17619:17789   */\n    tag_366:\n        /* \"#utility.yul\":17759:17781   */\n      0x556e697377617056323a20464f5242494444454e000000000000000000000000\n        /* \"#utility.yul\":17755:17756   */\n      0x00\n        /* \"#utility.yul\":17747:17753   */\n      dup3\n        /* \"#utility.yul\":17743:17757   */\n      add\n        /* \"#utility.yul\":17736:17782   */\n      mstore\n        /* \"#utility.yul\":17619:17789   */\n      pop\n      jump\t// out\n        /* \"#utility.yul\":17795:18161   */\n    tag_367:\n        /* \"#utility.yul\":17937:17940   */\n      0x00\n        /* \"#utility.yul\":17958:18025   */\n      tag_552\n        /* \"#utility.yul\":18022:18024   */\n      0x14\n        /* \"#utility.yul\":18017:18020   */\n      dup4\n        /* \"#utility.yul\":17958:18025   */\n      tag_337\n      jump\t// in\n    tag_552:\n        /* \"#utility.yul\":17951:18025   */\n      swap2\n      pop\n        /* \"#utility.yul\":18034:18127   */\n      tag_553\n        /* \"#utility.yul\":18123:18126   */\n      dup3\n        /* \"#utility.yul\":18034:18127   */\n      tag_366\n      jump\t// in\n    tag_553:\n        /* \"#utility.yul\":18152:18154   */\n      0x20\n        /* \"#utility.yul\":18147:18150   */\n      dup3\n        /* \"#utility.yul\":18143:18155   */\n      add\n        /* \"#utility.yul\":18136:18155   */\n      swap1\n      pop\n        /* \"#utility.yul\":17795:18161   */\n      swap2\n      swap1\n      pop\n      jump\t// out\n        /* \"#utility.yul\":18167:18586   */\n    tag_180:\n        /* \"#utility.yul\":18333:18337   */\n      0x00\n        /* \"#utility.yul\":18371:18373   */\n      0x20\n        /* \"#utility.yul\":18360:18369   */\n      dup3\n        /* \"#utility.yul\":18356:18374   */\n      add\n        /* \"#utility.yul\":18348:18374   */\n      swap1\n      pop\n        /* \"#utility.yul\":18420:18429   */\n      dup2\n        /* \"#utility.yul\":18414:18418   */\n      dup2\n        /* \"#utility.yul\":18410:18430   */\n      sub\n        /* \"#utility.yul\":18406:18407   */\n      0x00\n        /* \"#utility.yul\":18395:18404   */\n      dup4\n        /* \"#utility.yul\":18391:18408   */\n      add\n        /* \"#utility.yul\":18384:18431   */\n      mstore\n        /* \"#utility.yul\":18448:18579   */\n      tag_555\n        /* \"#utility.yul\":18574:18578   */\n      dup2\n        /* \"#utility.yul\":18448:18579   */\n      tag_367\n      jump\t// in\n    tag_555:\n        /* \"#utility.yul\":18440:18579   */\n      swap1\n      pop\n        /* \"#utility.yul\":18167:18586   */\n      swap2\n      swap1\n      pop\n      jump\t// out\n        /* \"#utility.yul\":18592:18772   */\n    tag_368:\n        /* \"#utility.yul\":18640:18717   */\n      0x4e487b7100000000000000000000000000000000000000000000000000000000\n        /* \"#utility.yul\":18637:18638   */\n      0x00\n        /* \"#utility.yul\":18630:18718   */\n      mstore\n        /* \"#utility.yul\":18737:18741   */\n      0x12\n        /* \"#utility.yul\":18734:18735   */\n      0x04\n        /* \"#utility.yul\":18727:18742   */\n      mstore\n        /* \"#utility.yul\":18761:18765   */\n      0x24\n        /* \"#utility.yul\":18758:18759   */\n      0x00\n        /* \"#utility.yul\":18751:18766   */\n      revert\n        /* \"#utility.yul\":18778:18963   */\n    tag_207:\n        /* \"#utility.yul\":18818:18819   */\n      0x00\n        /* \"#utility.yul\":18835:18855   */\n      tag_558\n        /* \"#utility.yul\":18853:18854   */\n      dup3\n        /* \"#utility.yul\":18835:18855   */\n      tag_325\n      jump\t// in\n    tag_558:\n        /* \"#utility.yul\":18830:18855   */\n      swap2\n      pop\n        /* \"#utility.yul\":18869:18889   */\n      tag_559\n        /* \"#utility.yul\":18887:18888   */\n      dup4\n        /* \"#utility.yul\":18869:18889   */\n      tag_325\n      jump\t// in\n    tag_559:\n        /* \"#utility.yul\":18864:18889   */\n      swap3\n      pop\n        /* \"#utility.yul\":18908:18909   */\n      dup3\n        /* \"#utility.yul\":18898:18933   */\n      tag_560\n      jumpi\n        /* \"#utility.yul\":18913:18931   */\n      tag_561\n      tag_368\n      jump\t// in\n    tag_561:\n        /* \"#utility.yul\":18898:18933   */\n    tag_560:\n        /* \"#utility.yul\":18955:18956   */\n      dup3\n        /* \"#utility.yul\":18952:18953   */\n      dup3\n        /* \"#utility.yul\":18948:18957   */\n      div\n        /* \"#utility.yul\":18943:18957   */\n      swap1\n      pop\n        /* \"#utility.yul\":18778:18963   */\n      swap3\n      swap2\n      pop\n      pop\n      jump\t// out\n        /* \"#utility.yul\":18969:19196   */\n    tag_369:\n        /* \"#utility.yul\":19109:19143   */\n      0x556e697377617056323a20494e53554646494349454e545f4c49515549444954\n        /* \"#utility.yul\":19105:19106   */\n      0x00\n        /* \"#utility.yul\":19097:19103   */\n      dup3\n        /* \"#utility.yul\":19093:19107   */\n      add\n        /* \"#utility.yul\":19086:19144   */\n      mstore\n        /* \"#utility.yul\":19178:19188   */\n      0x595f4d494e544544000000000000000000000000000000000000000000000000\n        /* \"#utility.yul\":19173:19175   */\n      0x20\n        /* \"#utility.yul\":19165:19171   */\n      dup3\n        /* \"#utility.yul\":19161:19176   */\n      add\n        /* \"#utility.yul\":19154:19189   */\n      mstore\n        /* \"#utility.yul\":18969:19196   */\n      pop\n      jump\t// out\n        /* \"#utility.yul\":19202:19568   */\n    tag_370:\n        /* \"#utility.yul\":19344:19347   */\n      0x00\n        /* \"#utility.yul\":19365:19432   */\n      tag_564\n        /* \"#utility.yul\":19429:19431   */\n      0x28\n        /* \"#utility.yul\":19424:19427   */\n      dup4\n        /* \"#utility.yul\":19365:19432   */\n      tag_337\n      jump\t// in\n    tag_564:\n        /* \"#utility.yul\":19358:19432   */\n      swap2\n      pop\n        /* \"#utility.yul\":19441:19534   */\n      tag_565\n        /* \"#utility.yul\":19530:19533   */\n      dup3\n        /* \"#utility.yul\":19441:19534   */\n      tag_369\n      jump\t// in\n    tag_565:\n        /* \"#utility.yul\":19559:19561   */\n      0x40\n        /* \"#utility.yul\":19554:19557   */\n      dup3\n        /* \"#utility.yul\":19550:19562   */\n      add\n        /* \"#utility.yul\":19543:19562   */\n      swap1\n      pop\n        /* \"#utility.yul\":19202:19568   */\n      swap2\n      swap1\n      pop\n      jump\t// out\n        /* \"#utility.yul\":19574:19993   */\n    tag_213:\n        /* \"#utility.yul\":19740:19744   */\n      0x00\n        /* \"#utility.yul\":19778:19780   */\n      0x20\n        /* \"#utility.yul\":19767:19776   */\n      dup3\n        /* \"#utility.yul\":19763:19781   */\n      add\n        /* \"#utility.yul\":19755:19781   */\n      swap1\n      pop\n        /* \"#utility.yul\":19827:19836   */\n      dup2\n        /* \"#utility.yul\":19821:19825   */\n      dup2\n        /* \"#utility.yul\":19817:19837   */\n      sub\n        /* \"#utility.yul\":19813:19814   */\n      0x00\n        /* \"#utility.yul\":19802:19811   */\n      dup4\n        /* \"#utility.yul\":19798:19815   */\n      add\n        /* \"#utility.yul\":19791:19838   */\n      mstore\n        /* \"#utility.yul\":19855:19986   */\n      tag_567\n        /* \"#utility.yul\":19981:19985   */\n      dup2\n        /* \"#utility.yul\":19855:19986   */\n      tag_370\n      jump\t// in\n    tag_567:\n        /* \"#utility.yul\":19847:19986   */\n      swap1\n      pop\n        /* \"#utility.yul\":19574:19993   */\n      swap2\n      swap1\n      pop\n      jump\t// out\n        /* \"#utility.yul\":19999:20226   */\n    tag_371:\n        /* \"#utility.yul\":20139:20173   */\n      0x556e697377617056323a20494e53554646494349454e545f4c49515549444954\n        /* \"#utility.yul\":20135:20136   */\n      0x00\n        /* \"#utility.yul\":20127:20133   */\n      dup3\n        /* \"#utility.yul\":20123:20137   */\n      add\n        /* \"#utility.yul\":20116:20174   */\n      mstore\n        /* \"#utility.yul\":20208:20218   */\n      0x595f4255524e4544000000000000000000000000000000000000000000000000\n        /* \"#utility.yul\":20203:20205   */\n      0x20\n        /* \"#utility.yul\":20195:20201   */\n      dup3\n        /* \"#utility.yul\":20191:20206   */\n      add\n        /* \"#utility.yul\":20184:20219   */\n      mstore\n        /* \"#utility.yul\":19999:20226   */\n      pop\n      jump\t// out\n        /* \"#utility.yul\":20232:20598   */\n    tag_372:\n        /* \"#utility.yul\":20374:20377   */\n      0x00\n        /* \"#utility.yul\":20395:20462   */\n      tag_570\n        /* \"#utility.yul\":20459:20461   */\n      0x28\n        /* \"#utility.yul\":20454:20457   */\n      dup4\n        /* \"#utility.yul\":20395:20462   */\n      tag_337\n      jump\t// in\n    tag_570:\n        /* \"#utility.yul\":20388:20462   */\n      swap2\n      pop\n        /* \"#utility.yul\":20471:20564   */\n      tag_571\n        /* \"#utility.yul\":20560:20563   */\n      dup3\n        /* \"#utility.yul\":20471:20564   */\n      tag_371\n      jump\t// in\n    tag_571:\n        /* \"#utility.yul\":20589:20591   */\n      0x40\n        /* \"#utility.yul\":20584:20587   */\n      dup3\n        /* \"#utility.yul\":20580:20592   */\n      add\n        /* \"#utility.yul\":20573:20592   */\n      swap1\n      pop\n        /* \"#utility.yul\":20232:20598   */\n      swap2\n      swap1\n      pop\n      jump\t// out\n        /* \"#utility.yul\":20604:21023   */\n    tag_236:\n        /* \"#utility.yul\":20770:20774   */\n      0x00\n        /* \"#utility.yul\":20808:20810   */\n      0x20\n        /* \"#utility.yul\":20797:20806   */\n      dup3\n        /* \"#utility.yul\":20793:20811   */\n      add\n        /* \"#utility.yul\":20785:20811   */\n      swap1\n      pop\n        /* \"#utility.yul\":20857:20866   */\n      dup2\n        /* \"#utility.yul\":20851:20855   */\n      dup2\n        /* \"#utility.yul\":20847:20867   */\n      sub\n        /* \"#utility.yul\":20843:20844   */\n      0x00\n        /* \"#utility.yul\":20832:20841   */\n      dup4\n        /* \"#utility.yul\":20828:20845   */\n      add\n        /* \"#utility.yul\":20821:20868   */\n      mstore\n        /* \"#utility.yul\":20885:21016   */\n      tag_573\n        /* \"#utility.yul\":21011:21015   */\n      dup2\n        /* \"#utility.yul\":20885:21016   */\n      tag_372\n      jump\t// in\n    tag_573:\n        /* \"#utility.yul\":20877:21016   */\n      swap1\n      pop\n        /* \"#utility.yul\":20604:21023   */\n      swap2\n      swap1\n      pop\n      jump\t// out\n        /* \"#utility.yul\":21029:21361   */\n    tag_255:\n        /* \"#utility.yul\":21150:21154   */\n      0x00\n        /* \"#utility.yul\":21188:21190   */\n      0x40\n        /* \"#utility.yul\":21177:21186   */\n      dup3\n        /* \"#utility.yul\":21173:21191   */\n      add\n        /* \"#utility.yul\":21165:21191   */\n      swap1\n      pop\n        /* \"#utility.yul\":21201:21272   */\n      tag_575\n        /* \"#utility.yul\":21269:21270   */\n      0x00\n        /* \"#utility.yul\":21258:21267   */\n      dup4\n        /* \"#utility.yul\":21254:21271   */\n      add\n        /* \"#utility.yul\":21245:21251   */\n      dup6\n        /* \"#utility.yul\":21201:21272   */\n      tag_345\n      jump\t// in\n    tag_575:\n        /* \"#utility.yul\":21282:21354   */\n      tag_576\n        /* \"#utility.yul\":21350:21352   */\n      0x20\n        /* \"#utility.yul\":21339:21348   */\n      dup4\n        /* \"#utility.yul\":21335:21353   */\n      add\n        /* \"#utility.yul\":21326:21332   */\n      dup5\n        /* \"#utility.yul\":21282:21354   */\n      tag_346\n      jump\t// in\n    tag_576:\n        /* \"#utility.yul\":21029:21361   */\n      swap4\n      swap3\n      pop\n      pop\n      pop\n      jump\t// out\n        /* \"#utility.yul\":21367:21465   */\n    tag_373:\n        /* \"#utility.yul\":21418:21424   */\n      0x00\n        /* \"#utility.yul\":21452:21457   */\n      dup2\n        /* \"#utility.yul\":21446:21458   */\n      mload\n        /* \"#utility.yul\":21436:21458   */\n      swap1\n      pop\n        /* \"#utility.yul\":21367:21465   */\n      swap2\n      swap1\n      pop\n      jump\t// out\n        /* \"#utility.yul\":21471:21618   */\n    tag_374:\n        /* \"#utility.yul\":21572:21583   */\n      0x00\n        /* \"#utility.yul\":21609:21612   */\n      dup2\n        /* \"#utility.yul\":21594:21612   */\n      swap1\n      pop\n        /* \"#utility.yul\":21471:21618   */\n      swap3\n      swap2\n      pop\n      pop\n      jump\t// out\n        /* \"#utility.yul\":21624:22010   */\n    tag_375:\n        /* \"#utility.yul\":21728:21731   */\n      0x00\n        /* \"#utility.yul\":21756:21794   */\n      tag_580\n        /* \"#utility.yul\":21788:21793   */\n      dup3\n        /* \"#utility.yul\":21756:21794   */\n      tag_373\n      jump\t// in\n    tag_580:\n        /* \"#utility.yul\":21810:21898   */\n      tag_581\n        /* \"#utility.yul\":21891:21897   */\n      dup2\n        /* \"#utility.yul\":21886:21889   */\n      dup6\n        /* \"#utility.yul\":21810:21898   */\n      tag_374\n      jump\t// in\n    tag_581:\n        /* \"#utility.yul\":21803:21898   */\n      swap4\n      pop\n        /* \"#utility.yul\":21907:21972   */\n      tag_582\n        /* \"#utility.yul\":21965:21971   */\n      dup2\n        /* \"#utility.yul\":21960:21963   */\n      dup6\n        /* \"#utility.yul\":21953:21957   */\n      0x20\n        /* \"#utility.yul\":21946:21951   */\n      dup7\n        /* \"#utility.yul\":21942:21958   */\n      add\n        /* \"#utility.yul\":21907:21972   */\n      tag_338\n      jump\t// in\n    tag_582:\n        /* \"#utility.yul\":21997:22003   */\n      dup1\n        /* \"#utility.yul\":21992:21995   */\n      dup5\n        /* \"#utility.yul\":21988:22004   */\n      add\n        /* \"#utility.yul\":21981:22004   */\n      swap2\n      pop\n        /* \"#utility.yul\":21732:22010   */\n      pop\n        /* \"#utility.yul\":21624:22010   */\n      swap3\n      swap2\n      pop\n      pop\n      jump\t// out\n        /* \"#utility.yul\":22016:22287   */\n    tag_257:\n        /* \"#utility.yul\":22146:22149   */\n      0x00\n        /* \"#utility.yul\":22168:22261   */\n      tag_584\n        /* \"#utility.yul\":22257:22260   */\n      dup3\n        /* \"#utility.yul\":22248:22254   */\n      dup5\n        /* \"#utility.yul\":22168:22261   */\n      tag_375\n      jump\t// in\n    tag_584:\n        /* \"#utility.yul\":22161:22261   */\n      swap2\n      pop\n        /* \"#utility.yul\":22278:22281   */\n      dup2\n        /* \"#utility.yul\":22271:22281   */\n      swap1\n      pop\n        /* \"#utility.yul\":22016:22287   */\n      swap3\n      swap2\n      pop\n      pop\n      jump\t// out\n        /* \"#utility.yul\":22293:22409   */\n    tag_376:\n        /* \"#utility.yul\":22363:22384   */\n      tag_586\n        /* \"#utility.yul\":22378:22383   */\n      dup2\n        /* \"#utility.yul\":22363:22384   */\n      tag_343\n      jump\t// in\n    tag_586:\n        /* \"#utility.yul\":22356:22361   */\n      dup2\n        /* \"#utility.yul\":22353:22385   */\n      eq\n        /* \"#utility.yul\":22343:22403   */\n      tag_587\n      jumpi\n        /* \"#utility.yul\":22399:22400   */\n      0x00\n        /* \"#utility.yul\":22396:22397   */\n      dup1\n        /* \"#utility.yul\":22389:22401   */\n      revert\n        /* \"#utility.yul\":22343:22403   */\n    tag_587:\n        /* \"#utility.yul\":22293:22409   */\n      pop\n      jump\t// out\n        /* \"#utility.yul\":22415:22552   */\n    tag_377:\n        /* \"#utility.yul\":22469:22474   */\n      0x00\n        /* \"#utility.yul\":22500:22506   */\n      dup2\n        /* \"#utility.yul\":22494:22507   */\n      mload\n        /* \"#utility.yul\":22485:22507   */\n      swap1\n      pop\n        /* \"#utility.yul\":22516:22546   */\n      tag_589\n        /* \"#utility.yul\":22540:22545   */\n      dup2\n        /* \"#utility.yul\":22516:22546   */\n      tag_376\n      jump\t// in\n    tag_589:\n        /* \"#utility.yul\":22415:22552   */\n      swap3\n      swap2\n      pop\n      pop\n      jump\t// out\n        /* \"#utility.yul\":22558:22903   */\n    tag_264:\n        /* \"#utility.yul\":22625:22631   */\n      0x00\n        /* \"#utility.yul\":22674:22676   */\n      0x20\n        /* \"#utility.yul\":22662:22671   */\n      dup3\n        /* \"#utility.yul\":22653:22660   */\n      dup5\n        /* \"#utility.yul\":22649:22672   */\n      sub\n        /* \"#utility.yul\":22645:22677   */\n      slt\n        /* \"#utility.yul\":22642:22761   */\n      iszero\n      tag_591\n      jumpi\n        /* \"#utility.yul\":22680:22759   */\n      tag_592\n      tag_323\n      jump\t// in\n    tag_592:\n        /* \"#utility.yul\":22642:22761   */\n    tag_591:\n        /* \"#utility.yul\":22800:22801   */\n      0x00\n        /* \"#utility.yul\":22825:22886   */\n      tag_593\n        /* \"#utility.yul\":22878:22885   */\n      dup5\n        /* \"#utility.yul\":22869:22875   */\n      dup3\n        /* \"#utility.yul\":22858:22867   */\n      dup6\n        /* \"#utility.yul\":22854:22876   */\n      add\n        /* \"#utility.yul\":22825:22886   */\n      tag_377\n      jump\t// in\n    tag_593:\n        /* \"#utility.yul\":22815:22886   */\n      swap2\n      pop\n        /* \"#utility.yul\":22771:22896   */\n      pop\n        /* \"#utility.yul\":22558:22903   */\n      swap3\n      swap2\n      pop\n      pop\n      jump\t// out\n        /* \"#utility.yul\":22909:23085   */\n    tag_378:\n        /* \"#utility.yul\":23049:23077   */\n      0x556e697377617056323a205452414e534645525f4641494c4544000000000000\n        /* \"#utility.yul\":23045:23046   */\n      0x00\n        /* \"#utility.yul\":23037:23043   */\n      dup3\n        /* \"#utility.yul\":23033:23047   */\n      add\n        /* \"#utility.yul\":23026:23078   */\n      mstore\n        /* \"#utility.yul\":22909:23085   */\n      pop\n      jump\t// out\n        /* \"#utility.yul\":23091:23457   */\n    tag_379:\n        /* \"#utility.yul\":23233:23236   */\n      0x00\n        /* \"#utility.yul\":23254:23321   */\n      tag_596\n        /* \"#utility.yul\":23318:23320   */\n      0x1a\n        /* \"#utility.yul\":23313:23316   */\n      dup4\n        /* \"#utility.yul\":23254:23321   */\n      tag_337\n      jump\t// in\n    tag_596:\n        /* \"#utility.yul\":23247:23321   */\n      swap2\n      pop\n        /* \"#utility.yul\":23330:23423   */\n      tag_597\n        /* \"#utility.yul\":23419:23422   */\n      dup3\n        /* \"#utility.yul\":23330:23423   */\n      tag_378\n      jump\t// in\n    tag_597:\n        /* \"#utility.yul\":23448:23450   */\n      0x20\n        /* \"#utility.yul\":23443:23446   */\n      dup3\n        /* \"#utility.yul\":23439:23451   */\n      add\n        /* \"#utility.yul\":23432:23451   */\n      swap1\n      pop\n        /* \"#utility.yul\":23091:23457   */\n      swap2\n      swap1\n      pop\n      jump\t// out\n        /* \"#utility.yul\":23463:23882   */\n    tag_267:\n        /* \"#utility.yul\":23629:23633   */\n      0x00\n        /* \"#utility.yul\":23667:23669   */\n      0x20\n        /* \"#utility.yul\":23656:23665   */\n      dup3\n        /* \"#utility.yul\":23652:23670   */\n      add\n        /* \"#utility.yul\":23644:23670   */\n      swap1\n      pop\n        /* \"#utility.yul\":23716:23725   */\n      dup2\n        /* \"#utility.yul\":23710:23714   */\n      dup2\n        /* \"#utility.yul\":23706:23726   */\n      sub\n        /* \"#utility.yul\":23702:23703   */\n      0x00\n        /* \"#utility.yul\":23691:23700   */\n      dup4\n        /* \"#utility.yul\":23687:23704   */\n      add\n        /* \"#utility.yul\":23680:23727   */\n      mstore\n        /* \"#utility.yul\":23744:23875   */\n      tag_599\n        /* \"#utility.yul\":23870:23874   */\n      dup2\n        /* \"#utility.yul\":23744:23875   */\n      tag_379\n      jump\t// in\n    tag_599:\n        /* \"#utility.yul\":23736:23875   */\n      swap1\n      pop\n        /* \"#utility.yul\":23463:23882   */\n      swap2\n      swap1\n      pop\n      jump\t// out\n        /* \"#utility.yul\":23888:24298   */\n    tag_271:\n        /* \"#utility.yul\":23928:23935   */\n      0x00\n        /* \"#utility.yul\":23951:23971   */\n      tag_601\n        /* \"#utility.yul\":23969:23970   */\n      dup3\n        /* \"#utility.yul\":23951:23971   */\n      tag_325\n      jump\t// in\n    tag_601:\n        /* \"#utility.yul\":23946:23971   */\n      swap2\n      pop\n        /* \"#utility.yul\":23985:24005   */\n      tag_602\n        /* \"#utility.yul\":24003:24004   */\n      dup4\n        /* \"#utility.yul\":23985:24005   */\n      tag_325\n      jump\t// in\n    tag_602:\n        /* \"#utility.yul\":23980:24005   */\n      swap3\n      pop\n        /* \"#utility.yul\":24040:24041   */\n      dup3\n        /* \"#utility.yul\":24037:24038   */\n      dup3\n        /* \"#utility.yul\":24033:24042   */\n      mul\n        /* \"#utility.yul\":24062:24092   */\n      tag_603\n        /* \"#utility.yul\":24080:24091   */\n      dup2\n        /* \"#utility.yul\":24062:24092   */\n      tag_325\n      jump\t// in\n    tag_603:\n        /* \"#utility.yul\":24051:24092   */\n      swap2\n      pop\n        /* \"#utility.yul\":24241:24242   */\n      dup3\n        /* \"#utility.yul\":24232:24239   */\n      dup3\n        /* \"#utility.yul\":24228:24243   */\n      div\n        /* \"#utility.yul\":24225:24226   */\n      dup5\n        /* \"#utility.yul\":24222:24244   */\n      eq\n        /* \"#utility.yul\":24202:24203   */\n      dup4\n        /* \"#utility.yul\":24195:24204   */\n      iszero\n        /* \"#utility.yul\":24175:24258   */\n      or\n        /* \"#utility.yul\":24152:24291   */\n      tag_604\n      jumpi\n        /* \"#utility.yul\":24271:24289   */\n      tag_605\n      tag_361\n      jump\t// in\n    tag_605:\n        /* \"#utility.yul\":24152:24291   */\n    tag_604:\n        /* \"#utility.yul\":23936:24298   */\n      pop\n        /* \"#utility.yul\":23888:24298   */\n      swap3\n      swap2\n      pop\n      pop\n      jump\t// out\n        /* \"#utility.yul\":24304:24474   */\n    tag_380:\n        /* \"#utility.yul\":24444:24466   */\n      0x64732d6d6174682d6d756c2d6f766572666c6f77000000000000000000000000\n        /* \"#utility.yul\":24440:24441   */\n      0x00\n        /* \"#utility.yul\":24432:24438   */\n      dup3\n        /* \"#utility.yul\":24428:24442   */\n      add\n        /* \"#utility.yul\":24421:24467   */\n      mstore\n        /* \"#utility.yul\":24304:24474   */\n      pop\n      jump\t// out\n        /* \"#utility.yul\":24480:24846   */\n    tag_381:\n        /* \"#utility.yul\":24622:24625   */\n      0x00\n        /* \"#utility.yul\":24643:24710   */\n      tag_608\n        /* \"#utility.yul\":24707:24709   */\n      0x14\n        /* \"#utility.yul\":24702:24705   */\n      dup4\n        /* \"#utility.yul\":24643:24710   */\n      tag_337\n      jump\t// in\n    tag_608:\n        /* \"#utility.yul\":24636:24710   */\n      swap2\n      pop\n        /* \"#utility.yul\":24719:24812   */\n      tag_609\n        /* \"#utility.yul\":24808:24811   */\n      dup3\n        /* \"#utility.yul\":24719:24812   */\n      tag_380\n      jump\t// in\n    tag_609:\n        /* \"#utility.yul\":24837:24839   */\n      0x20\n        /* \"#utility.yul\":24832:24835   */\n      dup3\n        /* \"#utility.yul\":24828:24840   */\n      add\n        /* \"#utility.yul\":24821:24840   */\n      swap1\n      pop\n        /* \"#utility.yul\":24480:24846   */\n      swap2\n      swap1\n      pop\n      jump\t// out\n        /* \"#utility.yul\":24852:25271   */\n    tag_275:\n        /* \"#utility.yul\":25018:25022   */\n      0x00\n        /* \"#utility.yul\":25056:25058   */\n      0x20\n        /* \"#utility.yul\":25045:25054   */\n      dup3\n        /* \"#utility.yul\":25041:25059   */\n      add\n        /* \"#utility.yul\":25033:25059   */\n      swap1\n      pop\n        /* \"#utility.yul\":25105:25114   */\n      dup2\n        /* \"#utility.yul\":25099:25103   */\n      dup2\n        /* \"#utility.yul\":25095:25115   */\n      sub\n        /* \"#utility.yul\":25091:25092   */\n      0x00\n        /* \"#utility.yul\":25080:25089   */\n      dup4\n        /* \"#utility.yul\":25076:25093   */\n      add\n        /* \"#utility.yul\":25069:25116   */\n      mstore\n        /* \"#utility.yul\":25133:25264   */\n      tag_611\n        /* \"#utility.yul\":25259:25263   */\n      dup2\n        /* \"#utility.yul\":25133:25264   */\n      tag_381\n      jump\t// in\n    tag_611:\n        /* \"#utility.yul\":25125:25264   */\n      swap1\n      pop\n        /* \"#utility.yul\":24852:25271   */\n      swap2\n      swap1\n      pop\n      jump\t// out\n        /* \"#utility.yul\":25277:25448   */\n    tag_382:\n        /* \"#utility.yul\":25417:25440   */\n      0x64732d6d6174682d7375622d756e646572666c6f770000000000000000000000\n        /* \"#utility.yul\":25413:25414   */\n      0x00\n        /* \"#utility.yul\":25405:25411   */\n      dup3\n        /* \"#utility.yul\":25401:25415   */\n      add\n        /* \"#utility.yul\":25394:25441   */\n      mstore\n        /* \"#utility.yul\":25277:25448   */\n      pop\n      jump\t// out\n        /* \"#utility.yul\":25454:25820   */\n    tag_383:\n        /* \"#utility.yul\":25596:25599   */\n      0x00\n        /* \"#utility.yul\":25617:25684   */\n      tag_614\n        /* \"#utility.yul\":25681:25683   */\n      0x15\n        /* \"#utility.yul\":25676:25679   */\n      dup4\n        /* \"#utility.yul\":25617:25684   */\n      tag_337\n      jump\t// in\n    tag_614:\n        /* \"#utility.yul\":25610:25684   */\n      swap2\n      pop\n        /* \"#utility.yul\":25693:25786   */\n      tag_615\n        /* \"#utility.yul\":25782:25785   */\n      dup3\n        /* \"#utility.yul\":25693:25786   */\n      tag_382\n      jump\t// in\n    tag_615:\n        /* \"#utility.yul\":25811:25813   */\n      0x20\n        /* \"#utility.yul\":25806:25809   */\n      dup3\n        /* \"#utility.yul\":25802:25814   */\n      add\n        /* \"#utility.yul\":25795:25814   */\n      swap1\n      pop\n        /* \"#utility.yul\":25454:25820   */\n      swap2\n      swap1\n      pop\n      jump\t// out\n        /* \"#utility.yul\":25826:26245   */\n    tag_280:\n        /* \"#utility.yul\":25992:25996   */\n      0x00\n        /* \"#utility.yul\":26030:26032   */\n      0x20\n        /* \"#utility.yul\":26019:26028   */\n      dup3\n        /* \"#utility.yul\":26015:26033   */\n      add\n        /* \"#utility.yul\":26007:26033   */\n      swap1\n      pop\n        /* \"#utility.yul\":26079:26088   */\n      dup2\n        /* \"#utility.yul\":26073:26077   */\n      dup2\n        /* \"#utility.yul\":26069:26089   */\n      sub\n        /* \"#utility.yul\":26065:26066   */\n      0x00\n        /* \"#utility.yul\":26054:26063   */\n      dup4\n        /* \"#utility.yul\":26050:26067   */\n      add\n        /* \"#utility.yul\":26043:26090   */\n      mstore\n        /* \"#utility.yul\":26107:26238   */\n      tag_617\n        /* \"#utility.yul\":26233:26237   */\n      dup2\n        /* \"#utility.yul\":26107:26238   */\n      tag_383\n      jump\t// in\n    tag_617:\n        /* \"#utility.yul\":26099:26238   */\n      swap1\n      pop\n        /* \"#utility.yul\":25826:26245   */\n      swap2\n      swap1\n      pop\n      jump\t// out\n        /* \"#utility.yul\":26251:26420   */\n    tag_384:\n        /* \"#utility.yul\":26391:26412   */\n      0x556e697377617056323a204f564552464c4f5700000000000000000000000000\n        /* \"#utility.yul\":26387:26388   */\n      0x00\n        /* \"#utility.yul\":26379:26385   */\n      dup3\n        /* \"#utility.yul\":26375:26389   */\n      add\n        /* \"#utility.yul\":26368:26413   */\n      mstore\n        /* \"#utility.yul\":26251:26420   */\n      pop\n      jump\t// out\n        /* \"#utility.yul\":26426:26792   */\n    tag_385:\n        /* \"#utility.yul\":26568:26571   */\n      0x00\n        /* \"#utility.yul\":26589:26656   */\n      tag_620\n        /* \"#utility.yul\":26653:26655   */\n      0x13\n        /* \"#utility.yul\":26648:26651   */\n      dup4\n        /* \"#utility.yul\":26589:26656   */\n      tag_337\n      jump\t// in\n    tag_620:\n        /* \"#utility.yul\":26582:26656   */\n      swap2\n      pop\n        /* \"#utility.yul\":26665:26758   */\n      tag_621\n        /* \"#utility.yul\":26754:26757   */\n      dup3\n        /* \"#utility.yul\":26665:26758   */\n      tag_384\n      jump\t// in\n    tag_621:\n        /* \"#utility.yul\":26783:26785   */\n      0x20\n        /* \"#utility.yul\":26778:26781   */\n      dup3\n        /* \"#utility.yul\":26774:26786   */\n      add\n        /* \"#utility.yul\":26767:26786   */\n      swap1\n      pop\n        /* \"#utility.yul\":26426:26792   */\n      swap2\n      swap1\n      pop\n      jump\t// out\n        /* \"#utility.yul\":26798:27217   */\n    tag_285:\n        /* \"#utility.yul\":26964:26968   */\n      0x00\n        /* \"#utility.yul\":27002:27004   */\n      0x20\n        /* \"#utility.yul\":26991:27000   */\n      dup3\n        /* \"#utility.yul\":26987:27005   */\n      add\n        /* \"#utility.yul\":26979:27005   */\n      swap1\n      pop\n        /* \"#utility.yul\":27051:27060   */\n      dup2\n        /* \"#utility.yul\":27045:27049   */\n      dup2\n        /* \"#utility.yul\":27041:27061   */\n      sub\n        /* \"#utility.yul\":27037:27038   */\n      0x00\n        /* \"#utility.yul\":27026:27035   */\n      dup4\n        /* \"#utility.yul\":27022:27039   */\n      add\n        /* \"#utility.yul\":27015:27062   */\n      mstore\n        /* \"#utility.yul\":27079:27210   */\n      tag_623\n        /* \"#utility.yul\":27205:27209   */\n      dup2\n        /* \"#utility.yul\":27079:27210   */\n      tag_385\n      jump\t// in\n    tag_623:\n        /* \"#utility.yul\":27071:27210   */\n      swap1\n      pop\n        /* \"#utility.yul\":26798:27217   */\n      swap2\n      swap1\n      pop\n      jump\t// out\n        /* \"#utility.yul\":27223:27414   */\n    tag_298:\n        /* \"#utility.yul\":27263:27266   */\n      0x00\n        /* \"#utility.yul\":27282:27302   */\n      tag_625\n        /* \"#utility.yul\":27300:27301   */\n      dup3\n        /* \"#utility.yul\":27282:27302   */\n      tag_325\n      jump\t// in\n    tag_625:\n        /* \"#utility.yul\":27277:27302   */\n      swap2\n      pop\n        /* \"#utility.yul\":27316:27336   */\n      tag_626\n        /* \"#utility.yul\":27334:27335   */\n      dup4\n        /* \"#utility.yul\":27316:27336   */\n      tag_325\n      jump\t// in\n    tag_626:\n        /* \"#utility.yul\":27311:27336   */\n      swap3\n      pop\n        /* \"#utility.yul\":27359:27360   */\n      dup3\n        /* \"#utility.yul\":27356:27357   */\n      dup3\n        /* \"#utility.yul\":27352:27361   */\n      add\n        /* \"#utility.yul\":27345:27361   */\n      swap1\n      pop\n        /* \"#utility.yul\":27380:27383   */\n      dup1\n        /* \"#utility.yul\":27377:27378   */\n      dup3\n        /* \"#utility.yul\":27374:27384   */\n      gt\n        /* \"#utility.yul\":27371:27407   */\n      iszero\n      tag_627\n      jumpi\n        /* \"#utility.yul\":27387:27405   */\n      tag_628\n      tag_361\n      jump\t// in\n    tag_628:\n        /* \"#utility.yul\":27371:27407   */\n    tag_627:\n        /* \"#utility.yul\":27223:27414   */\n      swap3\n      swap2\n      pop\n      pop\n      jump\t// out\n        /* \"#utility.yul\":27420:27590   */\n    tag_386:\n        /* \"#utility.yul\":27560:27582   */\n      0x64732d6d6174682d6164642d6f766572666c6f77000000000000000000000000\n        /* \"#utility.yul\":27556:27557   */\n      0x00\n        /* \"#utility.yul\":27548:27554   */\n      dup3\n        /* \"#utility.yul\":27544:27558   */\n      add\n        /* \"#utility.yul\":27537:27583   */\n      mstore\n        /* \"#utility.yul\":27420:27590   */\n      pop\n      jump\t// out\n        /* \"#utility.yul\":27596:27962   */\n    tag_387:\n        /* \"#utility.yul\":27738:27741   */\n      0x00\n        /* \"#utility.yul\":27759:27826   */\n      tag_631\n        /* \"#utility.yul\":27823:27825   */\n      0x14\n        /* \"#utility.yul\":27818:27821   */\n      dup4\n        /* \"#utility.yul\":27759:27826   */\n      tag_337\n      jump\t// in\n    tag_631:\n        /* \"#utility.yul\":27752:27826   */\n      swap2\n      pop\n        /* \"#utility.yul\":27835:27928   */\n      tag_632\n        /* \"#utility.yul\":27924:27927   */\n      dup3\n        /* \"#utility.yul\":27835:27928   */\n      tag_386\n      jump\t// in\n    tag_632:\n        /* \"#utility.yul\":27953:27955   */\n      0x20\n        /* \"#utility.yul\":27948:27951   */\n      dup3\n        /* \"#utility.yul\":27944:27956   */\n      add\n        /* \"#utility.yul\":27937:27956   */\n      swap1\n      pop\n        /* \"#utility.yul\":27596:27962   */\n      swap2\n      swap1\n      pop\n      jump\t// out\n        /* \"#utility.yul\":27968:28387   */\n    tag_321:\n        /* \"#utility.yul\":28134:28138   */\n      0x00\n        /* \"#utility.yul\":28172:28174   */\n      0x20\n        /* \"#utility.yul\":28161:28170   */\n      dup3\n        /* \"#utility.yul\":28157:28175   */\n      add\n        /* \"#utility.yul\":28149:28175   */\n      swap1\n      pop\n        /* \"#utility.yul\":28221:28230   */\n      dup2\n        /* \"#utility.yul\":28215:28219   */\n      dup2\n        /* \"#utility.yul\":28211:28231   */\n      sub\n        /* \"#utility.yul\":28207:28208   */\n      0x00\n        /* \"#utility.yul\":28196:28205   */\n      dup4\n        /* \"#utility.yul\":28192:28209   */\n      add\n        /* \"#utility.yul\":28185:28232   */\n      mstore\n        /* \"#utility.yul\":28249:28380   */\n      tag_634\n        /* \"#utility.yul\":28375:28379   */\n      dup2\n        /* \"#utility.yul\":28249:28380   */\n      tag_387\n      jump\t// in\n    tag_634:\n        /* \"#utility.yul\":28241:28380   */\n      swap1\n      pop\n        /* \"#utility.yul\":27968:28387   */\n      swap2\n      swap1\n      pop\n      jump\t// out\n\n    auxdata: 0xa2646970667358221220b4bc24f65e8a374550a55fe653de8bfb5a872a646ecc0a397980c8f438358eb064736f6c63430008160033\n}\n",
				"bytecode": {
					"linkReferences": {},
					"object": "60806040526001600755348015610014575f80fd5b503360035f6101000a81548173ffffffffffffffffffffffffffffffffffffffff021916908373ffffffffffffffffffffffffffffffffffffffff160217905550612cae806100625f395ff3fe608060405234801561000f575f80fd5b5060043610610114575f3560e01c80636a627842116100a0578063a9059cbb1161006f578063a9059cbb146102f6578063ba9a7a5614610326578063c45a015514610344578063d21220a714610362578063dd62ed3e1461038057610114565b80636a6278421461024757806370a082311461027757806389afcb44146102a757806395d89b41146102d857610114565b80630dfe1681116100e75780630dfe1681146101a157806318160ddd146101bf57806323b872dd146101dd578063313ce5671461020d578063485cc9551461022b57610114565b8063022c0d9f1461011857806306fdde03146101345780630902f1ac14610152578063095ea7b314610171575b5f80fd5b610132600480360381019061012d9190611f99565b6103b0565b005b61013c6109e2565b60405161014991906120a7565b60405180910390f35b61015a610a1b565b6040516101689291906120ef565b60405180910390f35b61018b60048036038101906101869190612116565b610a5e565b604051610198919061216e565b60405180910390f35b6101a9610a74565b6040516101b69190612196565b60405180910390f35b6101c7610a99565b6040516101d491906121be565b60405180910390f35b6101f760048036038101906101f291906121d7565b610a9e565b604051610204919061216e565b60405180910390f35b610215610c5c565b6040516102229190612242565b60405180910390f35b6102456004803603810190610240919061225b565b610c61565b005b610261600480360381019061025c9190612299565b610d74565b60405161026e91906121be565b60405180910390f35b610291600480360381019061028c9190612299565b6110c2565b60405161029e91906121be565b60405180910390f35b6102c160048036038101906102bc9190612299565b6110d7565b6040516102cf9291906122c4565b60405180910390f35b6102e06114d0565b6040516102ed91906120a7565b60405180910390f35b610310600480360381019061030b9190612116565b611509565b60405161031d919061216e565b60405180910390f35b61032e61151f565b60405161033b91906121be565b60405180910390f35b61034c611525565b6040516103599190612196565b60405180910390f35b61036a61154a565b6040516103779190612196565b60405180910390f35b61039a6004803603810190610395919061225b565b61156f565b6040516103a791906121be565b60405180910390f35b6001600754146103f5576040517f08c379a00000000000000000000000000000000000000000000000000000000081526004016103ec90612335565b60405180910390fd5b5f6007819055505f85118061040957505f84115b610448576040517f08c379a000000000000000000000000000000000000000000000000000000000815260040161043f906123c3565b60405180910390fd5b5f80610452610a1b565b91509150816dffffffffffffffffffffffffffff16871080156104845750806dffffffffffffffffffffffffffff1686105b6104c3576040517f08c379a00000000000000000000000000000000000000000000000000000000081526004016104ba90612451565b60405180910390fd5b5f805f60045f9054906101000a900473ffffffffffffffffffffffffffffffffffffffff1690505f60055f9054906101000a900473ffffffffffffffffffffffffffffffffffffffff1690508173ffffffffffffffffffffffffffffffffffffffff168973ffffffffffffffffffffffffffffffffffffffff161415801561057757508073ffffffffffffffffffffffffffffffffffffffff168973ffffffffffffffffffffffffffffffffffffffff1614155b6105b6576040517f08c379a00000000000000000000000000000000000000000000000000000000081526004016105ad906124b9565b60405180910390fd5b5f8b11156105ca576105c9828a8d61158f565b5b5f8a11156105de576105dd818a8c61158f565b5b5f888890501115610658578873ffffffffffffffffffffffffffffffffffffffff166310d1e85c338d8d8c8c6040518663ffffffff1660e01b815260040161062a959493929190612521565b5f604051808303815f87803b158015610641575f80fd5b505af1158015610653573d5f803e3d5ffd5b505050505b8173ffffffffffffffffffffffffffffffffffffffff166370a08231306040518263ffffffff1660e01b81526004016106919190612196565b602060405180830381865afa1580156106ac573d5f803e3d5ffd5b505050506040513d601f19601f820116820180604052508101906106d09190612581565b93508073ffffffffffffffffffffffffffffffffffffffff166370a08231306040518263ffffffff1660e01b815260040161070b9190612196565b602060405180830381865afa158015610726573d5f803e3d5ffd5b505050506040513d601f19601f8201168201806040525081019061074a9190612581565b925050505f89856dffffffffffffffffffffffffffff1661076b91906125d9565b8311610777575f61079f565b89856dffffffffffffffffffffffffffff1661079391906125d9565b8361079e91906125d9565b5b90505f89856dffffffffffffffffffffffffffff166107be91906125d9565b83116107ca575f6107f2565b89856dffffffffffffffffffffffffffff166107e691906125d9565b836107f191906125d9565b5b90505f82118061080157505f81115b610840576040517f08c379a00000000000000000000000000000000000000000000000000000000081526004016108379061267c565b60405180910390fd5b5f61087b61085860038561171390919063ffffffff16565b61086d6103e88861171390919063ffffffff16565b61177f90919063ffffffff16565b90505f6108b861089560038561171390919063ffffffff16565b6108aa6103e88861171390919063ffffffff16565b61177f90919063ffffffff16565b9050610902620f42406108f4896dffffffffffffffffffffffffffff168b6dffffffffffffffffffffffffffff1661171390919063ffffffff16565b61171390919063ffffffff16565b610915828461171390919063ffffffff16565b1015610956576040517f08c379a000000000000000000000000000000000000000000000000000000000815260040161094d906126e4565b60405180910390fd5b505061096284846117d7565b8873ffffffffffffffffffffffffffffffffffffffff163373ffffffffffffffffffffffffffffffffffffffff167fd78ad95fa46c994b6551d0da85fc275fe613ce37657fb8d5e3d130840159d82284848f8f6040516109c59493929190612702565b60405180910390a350505050505060016007819055505050505050565b6040518060400160405280600a81526020017f556e69737761702056320000000000000000000000000000000000000000000081525081565b5f8060065f9054906101000a90046dffffffffffffffffffffffffffff1691506006600e9054906101000a90046dffffffffffffffffffffffffffff1690509091565b5f610a6a338484611923565b6001905092915050565b60045f9054906101000a900473ffffffffffffffffffffffffffffffffffffffff1681565b5f5481565b5f7fffffffffffffffffffffffffffffffffffffffffffffffffffffffffffffffff60025f8673ffffffffffffffffffffffffffffffffffffffff1673ffffffffffffffffffffffffffffffffffffffff1681526020019081526020015f205f3373ffffffffffffffffffffffffffffffffffffffff1673ffffffffffffffffffffffffffffffffffffffff1681526020019081526020015f205414610c4657610bc98260025f8773ffffffffffffffffffffffffffffffffffffffff1673ffffffffffffffffffffffffffffffffffffffff1681526020019081526020015f205f3373ffffffffffffffffffffffffffffffffffffffff1673ffffffffffffffffffffffffffffffffffffffff1681526020019081526020015f205461177f90919063ffffffff16565b60025f8673ffffffffffffffffffffffffffffffffffffffff1673ffffffffffffffffffffffffffffffffffffffff1681526020019081526020015f205f3373ffffffffffffffffffffffffffffffffffffffff1673ffffffffffffffffffffffffffffffffffffffff1681526020019081526020015f20819055505b610c51848484611a0a565b600190509392505050565b601281565b60035f9054906101000a900473ffffffffffffffffffffffffffffffffffffffff1673ffffffffffffffffffffffffffffffffffffffff163373ffffffffffffffffffffffffffffffffffffffff1614610cf0576040517f08c379a0000000000000000000000000000000000000000000000000000000008152600401610ce79061278f565b60405180910390fd5b8160045f6101000a81548173ffffffffffffffffffffffffffffffffffffffff021916908373ffffffffffffffffffffffffffffffffffffffff1602179055508060055f6101000a81548173ffffffffffffffffffffffffffffffffffffffff021916908373ffffffffffffffffffffffffffffffffffffffff1602179055505050565b5f600160075414610dba576040517f08c379a0000000000000000000000000000000000000000000000000000000008152600401610db190612335565b60405180910390fd5b5f6007819055505f80610dcb610a1b565b915091505f60045f9054906101000a900473ffffffffffffffffffffffffffffffffffffffff1673ffffffffffffffffffffffffffffffffffffffff166370a08231306040518263ffffffff1660e01b8152600401610e2a9190612196565b602060405180830381865afa158015610e45573d5f803e3d5ffd5b505050506040513d601f19601f82011682018060405250810190610e699190612581565b90505f60055f9054906101000a900473ffffffffffffffffffffffffffffffffffffffff1673ffffffffffffffffffffffffffffffffffffffff166370a08231306040518263ffffffff1660e01b8152600401610ec69190612196565b602060405180830381865afa158015610ee1573d5f803e3d5ffd5b505050506040513d601f19601f82011682018060405250810190610f059190612581565b90505f610f2b856dffffffffffffffffffffffffffff168461177f90919063ffffffff16565b90505f610f51856dffffffffffffffffffffffffffff168461177f90919063ffffffff16565b90505f805490505f8103610fa157610f8e6103e8610f80610f7b858761171390919063ffffffff16565b611b96565b61177f90919063ffffffff16565b9750610f9c5f6103e8611c0d565b611008565b611005876dffffffffffffffffffffffffffff16610fc8838661171390919063ffffffff16565b610fd291906127da565b876dffffffffffffffffffffffffffff16610ff6848661171390919063ffffffff16565b61100091906127da565b611d20565b97505b5f881161104a576040517f08c379a00000000000000000000000000000000000000000000000000000000081526004016110419061287a565b60405180910390fd5b6110548989611c0d565b61105e85856117d7565b3373ffffffffffffffffffffffffffffffffffffffff167f4c209b5fc8ad50758f13e2e1088ba56a560dff690a1c6fef26394f4c03821c4f84846040516110a69291906122c4565b60405180910390a2505050505050506001600781905550919050565b6001602052805f5260405f205f915090505481565b5f8060016007541461111e576040517f08c379a000000000000000000000000000000000000000000000000000000000815260040161111590612335565b60405180910390fd5b5f6007819055505f60045f9054906101000a900473ffffffffffffffffffffffffffffffffffffffff1690505f60055f9054906101000a900473ffffffffffffffffffffffffffffffffffffffff1690505f8273ffffffffffffffffffffffffffffffffffffffff166370a08231306040518263ffffffff1660e01b81526004016111a99190612196565b602060405180830381865afa1580156111c4573d5f803e3d5ffd5b505050506040513d601f19601f820116820180604052508101906111e89190612581565b90505f8273ffffffffffffffffffffffffffffffffffffffff166370a08231306040518263ffffffff1660e01b81526004016112249190612196565b602060405180830381865afa15801561123f573d5f803e3d5ffd5b505050506040513d601f19601f820116820180604052508101906112639190612581565b90505f60015f3073ffffffffffffffffffffffffffffffffffffffff1673ffffffffffffffffffffffffffffffffffffffff1681526020019081526020015f205490505f80549050806112bf858461171390919063ffffffff16565b6112c991906127da565b9750806112df848461171390919063ffffffff16565b6112e991906127da565b96505f881180156112f957505f87115b611338576040517f08c379a000000000000000000000000000000000000000000000000000000000815260040161132f90612908565b60405180910390fd5b6113423083611d38565b61134d868a8a61158f565b611358858a8961158f565b8573ffffffffffffffffffffffffffffffffffffffff166370a08231306040518263ffffffff1660e01b81526004016113919190612196565b602060405180830381865afa1580156113ac573d5f803e3d5ffd5b505050506040513d601f19601f820116820180604052508101906113d09190612581565b93508473ffffffffffffffffffffffffffffffffffffffff166370a08231306040518263ffffffff1660e01b815260040161140b9190612196565b602060405180830381865afa158015611426573d5f803e3d5ffd5b505050506040513d601f19601f8201168201806040525081019061144a9190612581565b925061145684846117d7565b8873ffffffffffffffffffffffffffffffffffffffff163373ffffffffffffffffffffffffffffffffffffffff167fdccd412f0b1252819cb1fd330b93224ca42612892bb3f4f789976e6d819364968a8a6040516114b59291906122c4565b60405180910390a35050505050506001600781905550915091565b6040518060400160405280600681526020017f554e492d5632000000000000000000000000000000000000000000000000000081525081565b5f611515338484611a0a565b6001905092915050565b6103e881565b60035f9054906101000a900473ffffffffffffffffffffffffffffffffffffffff1681565b60055f9054906101000a900473ffffffffffffffffffffffffffffffffffffffff1681565b6002602052815f5260405f20602052805f5260405f205f91509150505481565b5f808473ffffffffffffffffffffffffffffffffffffffff166040518060400160405280601981526020017f7472616e7366657228616464726573732c75696e7432353629000000000000008152508051906020012085856040516024016115f8929190612926565b604051602081830303815290604052907bffffffffffffffffffffffffffffffffffffffffffffffffffffffff19166020820180517bffffffffffffffffffffffffffffffffffffffffffffffffffffffff83818316178352505050506040516116629190612991565b5f604051808303815f865af19150503d805f811461169b576040519150601f19603f3d011682016040523d82523d5f602084013e6116a0565b606091505b50915091508180156116cd57505f815114806116cc5750808060200190518101906116cb91906129d1565b5b5b61170c576040517f08c379a000000000000000000000000000000000000000000000000000000000815260040161170390612a46565b60405180910390fd5b5050505050565b5f8082148061173a57508282838561172b9190612a64565b92508261173891906127da565b145b611779576040517f08c379a000000000000000000000000000000000000000000000000000000000815260040161177090612aef565b60405180910390fd5b92915050565b5f82828461178d91906125d9565b91508111156117d1576040517f08c379a00000000000000000000000000000000000000000000000000000000081526004016117c890612b57565b60405180910390fd5b92915050565b6dffffffffffffffffffffffffffff8016821115801561180757506dffffffffffffffffffffffffffff80168111155b611846576040517f08c379a000000000000000000000000000000000000000000000000000000000815260040161183d90612bbf565b60405180910390fd5b8160065f6101000a8154816dffffffffffffffffffffffffffff02191690836dffffffffffffffffffffffffffff160217905550806006600e6101000a8154816dffffffffffffffffffffffffffff02191690836dffffffffffffffffffffffffffff1602179055507f1c411e9a96e071241c2f21f7726b17ae89e3cab4c78be50e062b03a9fffbbad160065f9054906101000a90046dffffffffffffffffffffffffffff166006600e9054906101000a90046dffffffffffffffffffffffffffff166040516119179291906120ef565b60405180910390a15050565b8060025f8573ffffffffffffffffffffffffffffffffffffffff1673ffffffffffffffffffffffffffffffffffffffff1681526020019081526020015f205f8473ffffffffffffffffffffffffffffffffffffffff1673ffffffffffffffffffffffffffffffffffffffff1681526020019081526020015f20819055508173ffffffffffffffffffffffffffffffffffffffff168373ffffffffffffffffffffffffffffffffffffffff167f8c5be1e5ebec7d5bd14f71427d1e84f3dd0314c0f7b2291e5b200ac8c7c3b925836040516119fd91906121be565b60405180910390a3505050565b611a5a8160015f8673ffffffffffffffffffffffffffffffffffffffff1673ffffffffffffffffffffffffffffffffffffffff1681526020019081526020015f205461177f90919063ffffffff16565b60015f8573ffffffffffffffffffffffffffffffffffffffff1673ffffffffffffffffffffffffffffffffffffffff1681526020019081526020015f2081905550611aeb8160015f8573ffffffffffffffffffffffffffffffffffffffff1673ffffffffffffffffffffffffffffffffffffffff1681526020019081526020015f2054611e4b90919063ffffffff16565b60015f8473ffffffffffffffffffffffffffffffffffffffff1673ffffffffffffffffffffffffffffffffffffffff1681526020019081526020015f20819055508173ffffffffffffffffffffffffffffffffffffffff168373ffffffffffffffffffffffffffffffffffffffff167fddf252ad1be2c89b69c2b068fc378daa952ba7f163c4a11628f55a4df523b3ef83604051611b8991906121be565b60405180910390a3505050565b5f6003821115611bfb578190505f6001600284611bb391906127da565b611bbd9190612bdd565b90505b81811015611bf5578091506002818285611bda91906127da565b611be49190612bdd565b611bee91906127da565b9050611bc0565b50611c08565b5f8214611c0757600190505b5b919050565b611c21815f54611e4b90919063ffffffff16565b5f81905550611c768160015f8573ffffffffffffffffffffffffffffffffffffffff1673ffffffffffffffffffffffffffffffffffffffff1681526020019081526020015f2054611e4b90919063ffffffff16565b60015f8473ffffffffffffffffffffffffffffffffffffffff1673ffffffffffffffffffffffffffffffffffffffff1681526020019081526020015f20819055508173ffffffffffffffffffffffffffffffffffffffff165f73ffffffffffffffffffffffffffffffffffffffff167fddf252ad1be2c89b69c2b068fc378daa952ba7f163c4a11628f55a4df523b3ef83604051611d1491906121be565b60405180910390a35050565b5f818310611d2e5781611d30565b825b905092915050565b611d888160015f8573ffffffffffffffffffffffffffffffffffffffff1673ffffffffffffffffffffffffffffffffffffffff1681526020019081526020015f205461177f90919063ffffffff16565b60015f8473ffffffffffffffffffffffffffffffffffffffff1673ffffffffffffffffffffffffffffffffffffffff1681526020019081526020015f2081905550611ddd815f5461177f90919063ffffffff16565b5f819055505f73ffffffffffffffffffffffffffffffffffffffff168273ffffffffffffffffffffffffffffffffffffffff167fddf252ad1be2c89b69c2b068fc378daa952ba7f163c4a11628f55a4df523b3ef83604051611e3f91906121be565b60405180910390a35050565b5f828284611e599190612bdd565b9150811015611e9d576040517f08c379a0000000000000000000000000000000000000000000000000000000008152600401611e9490612c5a565b60405180910390fd5b92915050565b5f80fd5b5f80fd5b5f819050919050565b611ebd81611eab565b8114611ec7575f80fd5b50565b5f81359050611ed881611eb4565b92915050565b5f73ffffffffffffffffffffffffffffffffffffffff82169050919050565b5f611f0782611ede565b9050919050565b611f1781611efd565b8114611f21575f80fd5b50565b5f81359050611f3281611f0e565b92915050565b5f80fd5b5f80fd5b5f80fd5b5f8083601f840112611f5957611f58611f38565b5b8235905067ffffffffffffffff811115611f7657611f75611f3c565b5b602083019150836001820283011115611f9257611f91611f40565b5b9250929050565b5f805f805f60808688031215611fb257611fb1611ea3565b5b5f611fbf88828901611eca565b9550506020611fd088828901611eca565b9450506040611fe188828901611f24565b935050606086013567ffffffffffffffff81111561200257612001611ea7565b5b61200e88828901611f44565b92509250509295509295909350565b5f81519050919050565b5f82825260208201905092915050565b5f5b83811015612054578082015181840152602081019050612039565b5f8484015250505050565b5f601f19601f8301169050919050565b5f6120798261201d565b6120838185612027565b9350612093818560208601612037565b61209c8161205f565b840191505092915050565b5f6020820190508181035f8301526120bf818461206f565b905092915050565b5f6dffffffffffffffffffffffffffff82169050919050565b6120e9816120c7565b82525050565b5f6040820190506121025f8301856120e0565b61210f60208301846120e0565b9392505050565b5f806040838503121561212c5761212b611ea3565b5b5f61213985828601611f24565b925050602061214a85828601611eca565b9150509250929050565b5f8115159050919050565b61216881612154565b82525050565b5f6020820190506121815f83018461215f565b92915050565b61219081611efd565b82525050565b5f6020820190506121a95f830184612187565b92915050565b6121b881611eab565b82525050565b5f6020820190506121d15f8301846121af565b92915050565b5f805f606084860312156121ee576121ed611ea3565b5b5f6121fb86828701611f24565b935050602061220c86828701611f24565b925050604061221d86828701611eca565b9150509250925092565b5f60ff82169050919050565b61223c81612227565b82525050565b5f6020820190506122555f830184612233565b92915050565b5f806040838503121561227157612270611ea3565b5b5f61227e85828601611f24565b925050602061228f85828601611f24565b9150509250929050565b5f602082840312156122ae576122ad611ea3565b5b5f6122bb84828501611f24565b91505092915050565b5f6040820190506122d75f8301856121af565b6122e460208301846121af565b9392505050565b7f556e697377617056323a204c4f434b45440000000000000000000000000000005f82015250565b5f61231f601183612027565b915061232a826122eb565b602082019050919050565b5f6020820190508181035f83015261234c81612313565b9050919050565b7f556e697377617056323a20494e53554646494349454e545f4f55545055545f415f8201527f4d4f554e54000000000000000000000000000000000000000000000000000000602082015250565b5f6123ad602583612027565b91506123b882612353565b604082019050919050565b5f6020820190508181035f8301526123da816123a1565b9050919050565b7f556e697377617056323a20494e53554646494349454e545f4c495155494449545f8201527f5900000000000000000000000000000000000000000000000000000000000000602082015250565b5f61243b602183612027565b9150612446826123e1565b604082019050919050565b5f6020820190508181035f8301526124688161242f565b9050919050565b7f556e697377617056323a20494e56414c49445f544f00000000000000000000005f82015250565b5f6124a3601583612027565b91506124ae8261246f565b602082019050919050565b5f6020820190508181035f8301526124d081612497565b9050919050565b5f82825260208201905092915050565b828183375f83830152505050565b5f61250083856124d7565b935061250d8385846124e7565b6125168361205f565b840190509392505050565b5f6080820190506125345f830188612187565b61254160208301876121af565b61254e60408301866121af565b81810360608301526125618184866124f5565b90509695505050505050565b5f8151905061257b81611eb4565b92915050565b5f6020828403121561259657612595611ea3565b5b5f6125a38482850161256d565b91505092915050565b7f4e487b71000000000000000000000000000000000000000000000000000000005f52601160045260245ffd5b5f6125e382611eab565b91506125ee83611eab565b9250828203905081811115612606576126056125ac565b5b92915050565b7f556e697377617056323a20494e53554646494349454e545f494e5055545f414d5f8201527f4f554e5400000000000000000000000000000000000000000000000000000000602082015250565b5f612666602483612027565b91506126718261260c565b604082019050919050565b5f6020820190508181035f8301526126938161265a565b9050919050565b7f556e697377617056323a204b00000000000000000000000000000000000000005f82015250565b5f6126ce600c83612027565b91506126d98261269a565b602082019050919050565b5f6020820190508181035f8301526126fb816126c2565b9050919050565b5f6080820190506127155f8301876121af565b61272260208301866121af565b61272f60408301856121af565b61273c60608301846121af565b95945050505050565b7f556e697377617056323a20464f5242494444454e0000000000000000000000005f82015250565b5f612779601483612027565b915061278482612745565b602082019050919050565b5f6020820190508181035f8301526127a68161276d565b9050919050565b7f4e487b71000000000000000000000000000000000000000000000000000000005f52601260045260245ffd5b5f6127e482611eab565b91506127ef83611eab565b9250826127ff576127fe6127ad565b5b828204905092915050565b7f556e697377617056323a20494e53554646494349454e545f4c495155494449545f8201527f595f4d494e544544000000000000000000000000000000000000000000000000602082015250565b5f612864602883612027565b915061286f8261280a565b604082019050919050565b5f6020820190508181035f83015261289181612858565b9050919050565b7f556e697377617056323a20494e53554646494349454e545f4c495155494449545f8201527f595f4255524e4544000000000000000000000000000000000000000000000000602082015250565b5f6128f2602883612027565b91506128fd82612898565b604082019050919050565b5f6020820190508181035f83015261291f816128e6565b9050919050565b5f6040820190506129395f830185612187565b61294660208301846121af565b9392505050565b5f81519050919050565b5f81905092915050565b5f61296b8261294d565b6129758185612957565b9350612985818560208601612037565b80840191505092915050565b5f61299c8284612961565b915081905092915050565b6129b081612154565b81146129ba575f80fd5b50565b5f815190506129cb816129a7565b92915050565b5f602082840312156129e6576129e5611ea3565b5b5f6129f3848285016129bd565b91505092915050565b7f556e697377617056323a205452414e534645525f4641494c45440000000000005f82015250565b5f612a30601a83612027565b9150612a3b826129fc565b602082019050919050565b5f6020820190508181035f830152612a5d81612a24565b9050919050565b5f612a6e82611eab565b9150612a7983611eab565b9250828202612a8781611eab565b91508282048414831517612a9e57612a9d6125ac565b5b5092915050565b7f64732d6d6174682d6d756c2d6f766572666c6f770000000000000000000000005f82015250565b5f612ad9601483612027565b9150612ae482612aa5565b602082019050919050565b5f6020820190508181035f830152612b0681612acd565b9050919050565b7f64732d6d6174682d7375622d756e646572666c6f7700000000000000000000005f82015250565b5f612b41601583612027565b9150612b4c82612b0d565b602082019050919050565b5f6020820190508181035f830152612b6e81612b35565b9050919050565b7f556e697377617056323a204f564552464c4f57000000000000000000000000005f82015250565b5f612ba9601383612027565b9150612bb482612b75565b602082019050919050565b5f6020820190508181035f830152612bd681612b9d565b9050919050565b5f612be782611eab565b9150612bf283611eab565b9250828201905080821115612c0a57612c096125ac565b5b92915050565b7f64732d6d6174682d6164642d6f766572666c6f770000000000000000000000005f82015250565b5f612c44601483612027565b9150612c4f82612c10565b602082019050919050565b5f6020820190508181035f830152612c7181612c38565b905091905056fea2646970667358221220b4bc24f65e8a374550a55fe653de8bfb5a872a646ecc0a397980c8f438358eb064736f6c63430008160033",
					"opcodes": "PUSH1 0x80 PUSH1 0x40 MSTORE PUSH1 0x1 PUSH1 0x7 SSTORE CALLVALUE DUP1 ISZERO PUSH2 0x14 JUMPI PUSH0 DUP1 REVERT JUMPDEST POP CALLER PUSH1 0x3 PUSH0 PUSH2 0x100 EXP DUP2 SLOAD DUP2 PUSH20 0xFFFFFFFFFFFFFFFFFFFFFFFFFFFFFFFFFFFFFFFF MUL NOT AND SWAP1 DUP4 PUSH20 0xFFFFFFFFFFFFFFFFFFFFFFFFFFFFFFFFFFFFFFFF AND MUL OR SWAP1 SSTORE POP PUSH2 0x2CAE DUP1 PUSH2 0x62 PUSH0 CODECOPY PUSH0 RETURN INVALID PUSH1 0x80 PUSH1 0x40 MSTORE CALLVALUE DUP1 ISZERO PUSH2 0xF JUMPI PUSH0 DUP1 REVERT JUMPDEST POP PUSH1 0x4 CALLDATASIZE LT PUSH2 0x114 JUMPI PUSH0 CALLDATALOAD PUSH1 0xE0 SHR DUP1 PUSH4 0x6A627842 GT PUSH2 0xA0 JUMPI DUP1 PUSH4 0xA9059CBB GT PUSH2 0x6F JUMPI DUP1 PUSH4 0xA9059CBB EQ PUSH2 0x2F6 JUMPI DUP1 PUSH4 0xBA9A7A56 EQ PUSH2 0x326 JUMPI DUP1 PUSH4 0xC45A0155 EQ PUSH2 0x344 JUMPI DUP1 PUSH4 0xD21220A7 EQ PUSH2 0x362 JUMPI DUP1 PUSH4 0xDD62ED3E EQ PUSH2 0x380 JUMPI PUSH2 0x114 JUMP JUMPDEST DUP1 PUSH4 0x6A627842 EQ PUSH2 0x247 JUMPI DUP1 PUSH4 0x70A08231 EQ PUSH2 0x277 JUMPI DUP1 PUSH4 0x89AFCB44 EQ PUSH2 0x2A7 JUMPI DUP1 PUSH4 0x95D89B41 EQ PUSH2 0x2D8 JUMPI PUSH2 0x114 JUMP JUMPDEST DUP1 PUSH4 0xDFE1681 GT PUSH2 0xE7 JUMPI DUP1 PUSH4 0xDFE1681 EQ PUSH2 0x1A1 JUMPI DUP1 PUSH4 0x18160DDD EQ PUSH2 0x1BF JUMPI DUP1 PUSH4 0x23B872DD EQ PUSH2 0x1DD JUMPI DUP1 PUSH4 0x313CE567 EQ PUSH2 0x20D JUMPI DUP1 PUSH4 0x485CC955 EQ PUSH2 0x22B JUMPI PUSH2 0x114 JUMP JUMPDEST DUP1 PUSH4 0x22C0D9F EQ PUSH2 0x118 JUMPI DUP1 PUSH4 0x6FDDE03 EQ PUSH2 0x134 JUMPI DUP1 PUSH4 0x902F1AC EQ PUSH2 0x152 JUMPI DUP1 PUSH4 0x95EA7B3 EQ PUSH2 0x171 JUMPI JUMPDEST PUSH0 DUP1 REVERT JUMPDEST PUSH2 0x132 PUSH1 0x4 DUP1 CALLDATASIZE SUB DUP2 ADD SWAP1 PUSH2 0x12D SWAP2 SWAP1 PUSH2 0x1F99 JUMP JUMPDEST PUSH2 0x3B0 JUMP JUMPDEST STOP JUMPDEST PUSH2 0x13C PUSH2 0x9E2 JUMP JUMPDEST PUSH1 0x40 MLOAD PUSH2 0x149 SWAP2 SWAP1 PUSH2 0x20A7 JUMP JUMPDEST PUSH1 0x40 MLOAD DUP1 SWAP2 SUB SWAP1 RETURN JUMPDEST PUSH2 0x15A PUSH2 0xA1B JUMP JUMPDEST PUSH1 0x40 MLOAD PUSH2 0x168 SWAP3 SWAP2 SWAP1 PUSH2 0x20EF JUMP JUMPDEST PUSH1 0x40 MLOAD DUP1 SWAP2 SUB SWAP1 RETURN JUMPDEST PUSH2 0x18B PUSH1 0x4 DUP1 CALLDATASIZE SUB DUP2 ADD SWAP1 PUSH2 0x186 SWAP2 SWAP1 PUSH2 0x2116 JUMP JUMPDEST PUSH2 0xA5E JUMP JUMPDEST PUSH1 0x40 MLOAD PUSH2 0x198 SWAP2 SWAP1 PUSH2 0x216E JUMP JUMPDEST PUSH1 0x40 MLOAD DUP1 SWAP2 SUB SWAP1 RETURN JUMPDEST PUSH2 0x1A9 PUSH2 0xA74 JUMP JUMPDEST PUSH1 0x40 MLOAD PUSH2 0x1B6 SWAP2 SWAP1 PUSH2 0x2196 JUMP JUMPDEST PUSH1 0x40 MLOAD DUP1 SWAP2 SUB SWAP1 RETURN JUMPDEST PUSH2 0x1C7 PUSH2 0xA99 JUMP JUMPDEST PUSH1 0x40 MLOAD PUSH2 0x1D4 SWAP2 SWAP1 PUSH2 0x21BE JUMP JUMPDEST PUSH1 0x40 MLOAD DUP1 SWAP2 SUB SWAP1 RETURN JUMPDEST PUSH2 0x1F7 PUSH1 0x4 DUP1 CALLDATASIZE SUB DUP2 ADD SWAP1 PUSH2 0x1F2 SWAP2 SWAP1 PUSH2 0x21D7 JUMP JUMPDEST PUSH2 0xA9E JUMP JUMPDEST PUSH1 0x40 MLOAD PUSH2 0x204 SWAP2 SWAP1 PUSH2 0x216E JUMP JUMPDEST PUSH1 0x40 MLOAD DUP1 SWAP2 SUB SWAP1 RETURN JUMPDEST PUSH2 0x215 PUSH2 0xC5C JUMP JUMPDEST PUSH1 0x40 MLOAD PUSH2 0x222 SWAP2 SWAP1 PUSH2 0x2242 JUMP JUMPDEST PUSH1 0x40 MLOAD DUP1 SWAP2 SUB SWAP1 RETURN JUMPDEST PUSH2 0x245 PUSH1 0x4 DUP1 CALLDATASIZE SUB DUP2 ADD SWAP1 PUSH2 0x240 SWAP2 SWAP1 PUSH2 0x225B JUMP JUMPDEST PUSH2 0xC61 JUMP JUMPDEST STOP JUMPDEST PUSH2 0x261 PUSH1 0x4 DUP1 CALLDATASIZE SUB DUP2 ADD SWAP1 PUSH2 0x25C SWAP2 SWAP1 PUSH2 0x2299 JUMP JUMPDEST PUSH2 0xD74 JUMP JUMPDEST PUSH1 0x40 MLOAD PUSH2 0x26E SWAP2 SWAP1 PUSH2 0x21BE JUMP JUMPDEST PUSH1 0x40 MLOAD DUP1 SWAP2 SUB SWAP1 RETURN JUMPDEST PUSH2 0x291 PUSH1 0x4 DUP1 CALLDATASIZE SUB DUP2 ADD SWAP1 PUSH2 0x28C SWAP2 SWAP1 PUSH2 0x2299 JUMP JUMPDEST PUSH2 0x10C2 JUMP JUMPDEST PUSH1 0x40 MLOAD PUSH2 0x29E SWAP2 SWAP1 PUSH2 0x21BE JUMP JUMPDEST PUSH1 0x40 MLOAD DUP1 SWAP2 SUB SWAP1 RETURN JUMPDEST PUSH2 0x2C1 PUSH1 0x4 DUP1 CALLDATASIZE SUB DUP2 ADD SWAP1 PUSH2 0x2BC SWAP2 SWAP1 PUSH2 0x2299 JUMP JUMPDEST PUSH2 0x10D7 JUMP JUMPDEST PUSH1 0x40 MLOAD PUSH2 0x2CF SWAP3 SWAP2 SWAP1 PUSH2 0x22C4 JUMP JUMPDEST PUSH1 0x40 MLOAD DUP1 SWAP2 SUB SWAP1 RETURN JUMPDEST PUSH2 0x2E0 PUSH2 0x14D0 JUMP JUMPDEST PUSH1 0x40 MLOAD PUSH2 0x2ED SWAP2 SWAP1 PUSH2 0x20A7 JUMP JUMPDEST PUSH1 0x40 MLOAD DUP1 SWAP2 SUB SWAP1 RETURN JUMPDEST PUSH2 0x310 PUSH1 0x4 DUP1 CALLDATASIZE SUB DUP2 ADD SWAP1 PUSH2 0x30B SWAP2 SWAP1 PUSH2 0x2116 JUMP JUMPDEST PUSH2 0x1509 JUMP JUMPDEST PUSH1 0x40 MLOAD PUSH2 0x31D SWAP2 SWAP1 PUSH2 0x216E JUMP JUMPDEST PUSH1 0x40 MLOAD DUP1 SWAP2 SUB SWAP1 RETURN JUMPDEST PUSH2 0x32E PUSH2 0x151F JUMP JUMPDEST PUSH1 0x40 MLOAD PUSH2 0x33B SWAP2 SWAP1 PUSH2 0x21BE JUMP JUMPDEST PUSH1 0x40 MLOAD DUP1 SWAP2 SUB SWAP1 RETURN JUMPDEST PUSH2 0x34C PUSH2 0x1525 JUMP JUMPDEST PUSH1 0x40 MLOAD PUSH2 0x359 SWAP2 SWAP1 PUSH2 0x2196 JUMP JUMPDEST PUSH1 0x40 MLOAD DUP1 SWAP2 SUB SWAP1 RETURN JUMPDEST PUSH2 0x36A PUSH2 0x154A JUMP JUMPDEST PUSH1 0x40 MLOAD PUSH2 0x377 SWAP2 SWAP1 PUSH2 0x2196 JUMP JUMPDEST PUSH1 0x40 MLOAD DUP1 SWAP2 SUB SWAP1 RETURN JUMPDEST PUSH2 0x39A PUSH1 0x4 DUP1 CALLDATASIZE SUB DUP2 ADD SWAP1 PUSH2 0x395 SWAP2 SWAP1 PUSH2 0x225B JUMP JUMPDEST PUSH2 0x156F JUMP JUMPDEST PUSH1 0x40 MLOAD PUSH2 0x3A7 SWAP2 SWAP1 PUSH2 0x21BE JUMP JUMPDEST PUSH1 0x40 MLOAD DUP1 SWAP2 SUB SWAP1 RETURN JUMPDEST PUSH1 0x1 PUSH1 0x7 SLOAD EQ PUSH2 0x3F5 JUMPI PUSH1 0x40 MLOAD PUSH32 0x8C379A000000000000000000000000000000000000000000000000000000000 DUP2 MSTORE PUSH1 0x4 ADD PUSH2 0x3EC SWAP1 PUSH2 0x2335 JUMP JUMPDEST PUSH1 0x40 MLOAD DUP1 SWAP2 SUB SWAP1 REVERT JUMPDEST PUSH0 PUSH1 0x7 DUP2 SWAP1 SSTORE POP PUSH0 DUP6 GT DUP1 PUSH2 0x409 JUMPI POP PUSH0 DUP5 GT JUMPDEST PUSH2 0x448 JUMPI PUSH1 0x40 MLOAD PUSH32 0x8C379A000000000000000000000000000000000000000000000000000000000 DUP2 MSTORE PUSH1 0x4 ADD PUSH2 0x43F SWAP1 PUSH2 0x23C3 JUMP JUMPDEST PUSH1 0x40 MLOAD DUP1 SWAP2 SUB SWAP1 REVERT JUMPDEST PUSH0 DUP1 PUSH2 0x452 PUSH2 0xA1B JUMP JUMPDEST SWAP2 POP SWAP2 POP DUP2 PUSH14 0xFFFFFFFFFFFFFFFFFFFFFFFFFFFF AND DUP8 LT DUP1 ISZERO PUSH2 0x484 JUMPI POP DUP1 PUSH14 0xFFFFFFFFFFFFFFFFFFFFFFFFFFFF AND DUP7 LT JUMPDEST PUSH2 0x4C3 JUMPI PUSH1 0x40 MLOAD PUSH32 0x8C379A000000000000000000000000000000000000000000000000000000000 DUP2 MSTORE PUSH1 0x4 ADD PUSH2 0x4BA SWAP1 PUSH2 0x2451 JUMP JUMPDEST PUSH1 0x40 MLOAD DUP1 SWAP2 SUB SWAP1 REVERT JUMPDEST PUSH0 DUP1 PUSH0 PUSH1 0x4 PUSH0 SWAP1 SLOAD SWAP1 PUSH2 0x100 EXP SWAP1 DIV PUSH20 0xFFFFFFFFFFFFFFFFFFFFFFFFFFFFFFFFFFFFFFFF AND SWAP1 POP PUSH0 PUSH1 0x5 PUSH0 SWAP1 SLOAD SWAP1 PUSH2 0x100 EXP SWAP1 DIV PUSH20 0xFFFFFFFFFFFFFFFFFFFFFFFFFFFFFFFFFFFFFFFF AND SWAP1 POP DUP2 PUSH20 0xFFFFFFFFFFFFFFFFFFFFFFFFFFFFFFFFFFFFFFFF AND DUP10 PUSH20 0xFFFFFFFFFFFFFFFFFFFFFFFFFFFFFFFFFFFFFFFF AND EQ ISZERO DUP1 ISZERO PUSH2 0x577 JUMPI POP DUP1 PUSH20 0xFFFFFFFFFFFFFFFFFFFFFFFFFFFFFFFFFFFFFFFF AND DUP10 PUSH20 0xFFFFFFFFFFFFFFFFFFFFFFFFFFFFFFFFFFFFFFFF AND EQ ISZERO JUMPDEST PUSH2 0x5B6 JUMPI PUSH1 0x40 MLOAD PUSH32 0x8C379A000000000000000000000000000000000000000000000000000000000 DUP2 MSTORE PUSH1 0x4 ADD PUSH2 0x5AD SWAP1 PUSH2 0x24B9 JUMP JUMPDEST PUSH1 0x40 MLOAD DUP1 SWAP2 SUB SWAP1 REVERT JUMPDEST PUSH0 DUP12 GT ISZERO PUSH2 0x5CA JUMPI PUSH2 0x5C9 DUP3 DUP11 DUP14 PUSH2 0x158F JUMP JUMPDEST JUMPDEST PUSH0 DUP11 GT ISZERO PUSH2 0x5DE JUMPI PUSH2 0x5DD DUP2 DUP11 DUP13 PUSH2 0x158F JUMP JUMPDEST JUMPDEST PUSH0 DUP9 DUP9 SWAP1 POP GT ISZERO PUSH2 0x658 JUMPI DUP9 PUSH20 0xFFFFFFFFFFFFFFFFFFFFFFFFFFFFFFFFFFFFFFFF AND PUSH4 0x10D1E85C CALLER DUP14 DUP14 DUP13 DUP13 PUSH1 0x40 MLOAD DUP7 PUSH4 0xFFFFFFFF AND PUSH1 0xE0 SHL DUP2 MSTORE PUSH1 0x4 ADD PUSH2 0x62A SWAP6 SWAP5 SWAP4 SWAP3 SWAP2 SWAP1 PUSH2 0x2521 JUMP JUMPDEST PUSH0 PUSH1 0x40 MLOAD DUP1 DUP4 SUB DUP2 PUSH0 DUP8 DUP1 EXTCODESIZE ISZERO DUP1 ISZERO PUSH2 0x641 JUMPI PUSH0 DUP1 REVERT JUMPDEST POP GAS CALL ISZERO DUP1 ISZERO PUSH2 0x653 JUMPI RETURNDATASIZE PUSH0 DUP1 RETURNDATACOPY RETURNDATASIZE PUSH0 REVERT JUMPDEST POP POP POP POP JUMPDEST DUP2 PUSH20 0xFFFFFFFFFFFFFFFFFFFFFFFFFFFFFFFFFFFFFFFF AND PUSH4 0x70A08231 ADDRESS PUSH1 0x40 MLOAD DUP3 PUSH4 0xFFFFFFFF AND PUSH1 0xE0 SHL DUP2 MSTORE PUSH1 0x4 ADD PUSH2 0x691 SWAP2 SWAP1 PUSH2 0x2196 JUMP JUMPDEST PUSH1 0x20 PUSH1 0x40 MLOAD DUP1 DUP4 SUB DUP2 DUP7 GAS STATICCALL ISZERO DUP1 ISZERO PUSH2 0x6AC JUMPI RETURNDATASIZE PUSH0 DUP1 RETURNDATACOPY RETURNDATASIZE PUSH0 REVERT JUMPDEST POP POP POP POP PUSH1 0x40 MLOAD RETURNDATASIZE PUSH1 0x1F NOT PUSH1 0x1F DUP3 ADD AND DUP3 ADD DUP1 PUSH1 0x40 MSTORE POP DUP2 ADD SWAP1 PUSH2 0x6D0 SWAP2 SWAP1 PUSH2 0x2581 JUMP JUMPDEST SWAP4 POP DUP1 PUSH20 0xFFFFFFFFFFFFFFFFFFFFFFFFFFFFFFFFFFFFFFFF AND PUSH4 0x70A08231 ADDRESS PUSH1 0x40 MLOAD DUP3 PUSH4 0xFFFFFFFF AND PUSH1 0xE0 SHL DUP2 MSTORE PUSH1 0x4 ADD PUSH2 0x70B SWAP2 SWAP1 PUSH2 0x2196 JUMP JUMPDEST PUSH1 0x20 PUSH1 0x40 MLOAD DUP1 DUP4 SUB DUP2 DUP7 GAS STATICCALL ISZERO DUP1 ISZERO PUSH2 0x726 JUMPI RETURNDATASIZE PUSH0 DUP1 RETURNDATACOPY RETURNDATASIZE PUSH0 REVERT JUMPDEST POP POP POP POP PUSH1 0x40 MLOAD RETURNDATASIZE PUSH1 0x1F NOT PUSH1 0x1F DUP3 ADD AND DUP3 ADD DUP1 PUSH1 0x40 MSTORE POP DUP2 ADD SWAP1 PUSH2 0x74A SWAP2 SWAP1 PUSH2 0x2581 JUMP JUMPDEST SWAP3 POP POP POP PUSH0 DUP10 DUP6 PUSH14 0xFFFFFFFFFFFFFFFFFFFFFFFFFFFF AND PUSH2 0x76B SWAP2 SWAP1 PUSH2 0x25D9 JUMP JUMPDEST DUP4 GT PUSH2 0x777 JUMPI PUSH0 PUSH2 0x79F JUMP JUMPDEST DUP10 DUP6 PUSH14 0xFFFFFFFFFFFFFFFFFFFFFFFFFFFF AND PUSH2 0x793 SWAP2 SWAP1 PUSH2 0x25D9 JUMP JUMPDEST DUP4 PUSH2 0x79E SWAP2 SWAP1 PUSH2 0x25D9 JUMP JUMPDEST JUMPDEST SWAP1 POP PUSH0 DUP10 DUP6 PUSH14 0xFFFFFFFFFFFFFFFFFFFFFFFFFFFF AND PUSH2 0x7BE SWAP2 SWAP1 PUSH2 0x25D9 JUMP JUMPDEST DUP4 GT PUSH2 0x7CA JUMPI PUSH0 PUSH2 0x7F2 JUMP JUMPDEST DUP10 DUP6 PUSH14 0xFFFFFFFFFFFFFFFFFFFFFFFFFFFF AND PUSH2 0x7E6 SWAP2 SWAP1 PUSH2 0x25D9 JUMP JUMPDEST DUP4 PUSH2 0x7F1 SWAP2 SWAP1 PUSH2 0x25D9 JUMP JUMPDEST JUMPDEST SWAP1 POP PUSH0 DUP3 GT DUP1 PUSH2 0x801 JUMPI POP PUSH0 DUP2 GT JUMPDEST PUSH2 0x840 JUMPI PUSH1 0x40 MLOAD PUSH32 0x8C379A000000000000000000000000000000000000000000000000000000000 DUP2 MSTORE PUSH1 0x4 ADD PUSH2 0x837 SWAP1 PUSH2 0x267C JUMP JUMPDEST PUSH1 0x40 MLOAD DUP1 SWAP2 SUB SWAP1 REVERT JUMPDEST PUSH0 PUSH2 0x87B PUSH2 0x858 PUSH1 0x3 DUP6 PUSH2 0x1713 SWAP1 SWAP2 SWAP1 PUSH4 0xFFFFFFFF AND JUMP JUMPDEST PUSH2 0x86D PUSH2 0x3E8 DUP9 PUSH2 0x1713 SWAP1 SWAP2 SWAP1 PUSH4 0xFFFFFFFF AND JUMP JUMPDEST PUSH2 0x177F SWAP1 SWAP2 SWAP1 PUSH4 0xFFFFFFFF AND JUMP JUMPDEST SWAP1 POP PUSH0 PUSH2 0x8B8 PUSH2 0x895 PUSH1 0x3 DUP6 PUSH2 0x1713 SWAP1 SWAP2 SWAP1 PUSH4 0xFFFFFFFF AND JUMP JUMPDEST PUSH2 0x8AA PUSH2 0x3E8 DUP9 PUSH2 0x1713 SWAP1 SWAP2 SWAP1 PUSH4 0xFFFFFFFF AND JUMP JUMPDEST PUSH2 0x177F SWAP1 SWAP2 SWAP1 PUSH4 0xFFFFFFFF AND JUMP JUMPDEST SWAP1 POP PUSH2 0x902 PUSH3 0xF4240 PUSH2 0x8F4 DUP10 PUSH14 0xFFFFFFFFFFFFFFFFFFFFFFFFFFFF AND DUP12 PUSH14 0xFFFFFFFFFFFFFFFFFFFFFFFFFFFF AND PUSH2 0x1713 SWAP1 SWAP2 SWAP1 PUSH4 0xFFFFFFFF AND JUMP JUMPDEST PUSH2 0x1713 SWAP1 SWAP2 SWAP1 PUSH4 0xFFFFFFFF AND JUMP JUMPDEST PUSH2 0x915 DUP3 DUP5 PUSH2 0x1713 SWAP1 SWAP2 SWAP1 PUSH4 0xFFFFFFFF AND JUMP JUMPDEST LT ISZERO PUSH2 0x956 JUMPI PUSH1 0x40 MLOAD PUSH32 0x8C379A000000000000000000000000000000000000000000000000000000000 DUP2 MSTORE PUSH1 0x4 ADD PUSH2 0x94D SWAP1 PUSH2 0x26E4 JUMP JUMPDEST PUSH1 0x40 MLOAD DUP1 SWAP2 SUB SWAP1 REVERT JUMPDEST POP POP PUSH2 0x962 DUP5 DUP5 PUSH2 0x17D7 JUMP JUMPDEST DUP9 PUSH20 0xFFFFFFFFFFFFFFFFFFFFFFFFFFFFFFFFFFFFFFFF AND CALLER PUSH20 0xFFFFFFFFFFFFFFFFFFFFFFFFFFFFFFFFFFFFFFFF AND PUSH32 0xD78AD95FA46C994B6551D0DA85FC275FE613CE37657FB8D5E3D130840159D822 DUP5 DUP5 DUP16 DUP16 PUSH1 0x40 MLOAD PUSH2 0x9C5 SWAP5 SWAP4 SWAP3 SWAP2 SWAP1 PUSH2 0x2702 JUMP JUMPDEST PUSH1 0x40 MLOAD DUP1 SWAP2 SUB SWAP1 LOG3 POP POP POP POP POP POP PUSH1 0x1 PUSH1 0x7 DUP2 SWAP1 SSTORE POP POP POP POP POP POP JUMP JUMPDEST PUSH1 0x40 MLOAD DUP1 PUSH1 0x40 ADD PUSH1 0x40 MSTORE DUP1 PUSH1 0xA DUP2 MSTORE PUSH1 0x20 ADD PUSH32 0x556E697377617020563200000000000000000000000000000000000000000000 DUP2 MSTORE POP DUP2 JUMP JUMPDEST PUSH0 DUP1 PUSH1 0x6 PUSH0 SWAP1 SLOAD SWAP1 PUSH2 0x100 EXP SWAP1 DIV PUSH14 0xFFFFFFFFFFFFFFFFFFFFFFFFFFFF AND SWAP2 POP PUSH1 0x6 PUSH1 0xE SWAP1 SLOAD SWAP1 PUSH2 0x100 EXP SWAP1 DIV PUSH14 0xFFFFFFFFFFFFFFFFFFFFFFFFFFFF AND SWAP1 POP SWAP1 SWAP2 JUMP JUMPDEST PUSH0 PUSH2 0xA6A CALLER DUP5 DUP5 PUSH2 0x1923 JUMP JUMPDEST PUSH1 0x1 SWAP1 POP SWAP3 SWAP2 POP POP JUMP JUMPDEST PUSH1 0x4 PUSH0 SWAP1 SLOAD SWAP1 PUSH2 0x100 EXP SWAP1 DIV PUSH20 0xFFFFFFFFFFFFFFFFFFFFFFFFFFFFFFFFFFFFFFFF AND DUP2 JUMP JUMPDEST PUSH0 SLOAD DUP2 JUMP JUMPDEST PUSH0 PUSH32 0xFFFFFFFFFFFFFFFFFFFFFFFFFFFFFFFFFFFFFFFFFFFFFFFFFFFFFFFFFFFFFFFF PUSH1 0x2 PUSH0 DUP7 PUSH20 0xFFFFFFFFFFFFFFFFFFFFFFFFFFFFFFFFFFFFFFFF AND PUSH20 0xFFFFFFFFFFFFFFFFFFFFFFFFFFFFFFFFFFFFFFFF AND DUP2 MSTORE PUSH1 0x20 ADD SWAP1 DUP2 MSTORE PUSH1 0x20 ADD PUSH0 KECCAK256 PUSH0 CALLER PUSH20 0xFFFFFFFFFFFFFFFFFFFFFFFFFFFFFFFFFFFFFFFF AND PUSH20 0xFFFFFFFFFFFFFFFFFFFFFFFFFFFFFFFFFFFFFFFF AND DUP2 MSTORE PUSH1 0x20 ADD SWAP1 DUP2 MSTORE PUSH1 0x20 ADD PUSH0 KECCAK256 SLOAD EQ PUSH2 0xC46 JUMPI PUSH2 0xBC9 DUP3 PUSH1 0x2 PUSH0 DUP8 PUSH20 0xFFFFFFFFFFFFFFFFFFFFFFFFFFFFFFFFFFFFFFFF AND PUSH20 0xFFFFFFFFFFFFFFFFFFFFFFFFFFFFFFFFFFFFFFFF AND DUP2 MSTORE PUSH1 0x20 ADD SWAP1 DUP2 MSTORE PUSH1 0x20 ADD PUSH0 KECCAK256 PUSH0 CALLER PUSH20 0xFFFFFFFFFFFFFFFFFFFFFFFFFFFFFFFFFFFFFFFF AND PUSH20 0xFFFFFFFFFFFFFFFFFFFFFFFFFFFFFFFFFFFFFFFF AND DUP2 MSTORE PUSH1 0x20 ADD SWAP1 DUP2 MSTORE PUSH1 0x20 ADD PUSH0 KECCAK256 SLOAD PUSH2 0x177F SWAP1 SWAP2 SWAP1 PUSH4 0xFFFFFFFF AND JUMP JUMPDEST PUSH1 0x2 PUSH0 DUP7 PUSH20 0xFFFFFFFFFFFFFFFFFFFFFFFFFFFFFFFFFFFFFFFF AND PUSH20 0xFFFFFFFFFFFFFFFFFFFFFFFFFFFFFFFFFFFFFFFF AND DUP2 MSTORE PUSH1 0x20 ADD SWAP1 DUP2 MSTORE PUSH1 0x20 ADD PUSH0 KECCAK256 PUSH0 CALLER PUSH20 0xFFFFFFFFFFFFFFFFFFFFFFFFFFFFFFFFFFFFFFFF AND PUSH20 0xFFFFFFFFFFFFFFFFFFFFFFFFFFFFFFFFFFFFFFFF AND DUP2 MSTORE PUSH1 0x20 ADD SWAP1 DUP2 MSTORE PUSH1 0x20 ADD PUSH0 KECCAK256 DUP2 SWAP1 SSTORE POP JUMPDEST PUSH2 0xC51 DUP5 DUP5 DUP5 PUSH2 0x1A0A JUMP JUMPDEST PUSH1 0x1 SWAP1 POP SWAP4 SWAP3 POP POP POP JUMP JUMPDEST PUSH1 0x12 DUP2 JUMP JUMPDEST PUSH1 0x3 PUSH0 SWAP1 SLOAD SWAP1 PUSH2 0x100 EXP SWAP1 DIV PUSH20 0xFFFFFFFFFFFFFFFFFFFFFFFFFFFFFFFFFFFFFFFF AND PUSH20 0xFFFFFFFFFFFFFFFFFFFFFFFFFFFFFFFFFFFFFFFF AND CALLER PUSH20 0xFFFFFFFFFFFFFFFFFFFFFFFFFFFFFFFFFFFFFFFF AND EQ PUSH2 0xCF0 JUMPI PUSH1 0x40 MLOAD PUSH32 0x8C379A000000000000000000000000000000000000000000000000000000000 DUP2 MSTORE PUSH1 0x4 ADD PUSH2 0xCE7 SWAP1 PUSH2 0x278F JUMP JUMPDEST PUSH1 0x40 MLOAD DUP1 SWAP2 SUB SWAP1 REVERT JUMPDEST DUP2 PUSH1 0x4 PUSH0 PUSH2 0x100 EXP DUP2 SLOAD DUP2 PUSH20 0xFFFFFFFFFFFFFFFFFFFFFFFFFFFFFFFFFFFFFFFF MUL NOT AND SWAP1 DUP4 PUSH20 0xFFFFFFFFFFFFFFFFFFFFFFFFFFFFFFFFFFFFFFFF AND MUL OR SWAP1 SSTORE POP DUP1 PUSH1 0x5 PUSH0 PUSH2 0x100 EXP DUP2 SLOAD DUP2 PUSH20 0xFFFFFFFFFFFFFFFFFFFFFFFFFFFFFFFFFFFFFFFF MUL NOT AND SWAP1 DUP4 PUSH20 0xFFFFFFFFFFFFFFFFFFFFFFFFFFFFFFFFFFFFFFFF AND MUL OR SWAP1 SSTORE POP POP POP JUMP JUMPDEST PUSH0 PUSH1 0x1 PUSH1 0x7 SLOAD EQ PUSH2 0xDBA JUMPI PUSH1 0x40 MLOAD PUSH32 0x8C379A000000000000000000000000000000000000000000000000000000000 DUP2 MSTORE PUSH1 0x4 ADD PUSH2 0xDB1 SWAP1 PUSH2 0x2335 JUMP JUMPDEST PUSH1 0x40 MLOAD DUP1 SWAP2 SUB SWAP1 REVERT JUMPDEST PUSH0 PUSH1 0x7 DUP2 SWAP1 SSTORE POP PUSH0 DUP1 PUSH2 0xDCB PUSH2 0xA1B JUMP JUMPDEST SWAP2 POP SWAP2 POP PUSH0 PUSH1 0x4 PUSH0 SWAP1 SLOAD SWAP1 PUSH2 0x100 EXP SWAP1 DIV PUSH20 0xFFFFFFFFFFFFFFFFFFFFFFFFFFFFFFFFFFFFFFFF AND PUSH20 0xFFFFFFFFFFFFFFFFFFFFFFFFFFFFFFFFFFFFFFFF AND PUSH4 0x70A08231 ADDRESS PUSH1 0x40 MLOAD DUP3 PUSH4 0xFFFFFFFF AND PUSH1 0xE0 SHL DUP2 MSTORE PUSH1 0x4 ADD PUSH2 0xE2A SWAP2 SWAP1 PUSH2 0x2196 JUMP JUMPDEST PUSH1 0x20 PUSH1 0x40 MLOAD DUP1 DUP4 SUB DUP2 DUP7 GAS STATICCALL ISZERO DUP1 ISZERO PUSH2 0xE45 JUMPI RETURNDATASIZE PUSH0 DUP1 RETURNDATACOPY RETURNDATASIZE PUSH0 REVERT JUMPDEST POP POP POP POP PUSH1 0x40 MLOAD RETURNDATASIZE PUSH1 0x1F NOT PUSH1 0x1F DUP3 ADD AND DUP3 ADD DUP1 PUSH1 0x40 MSTORE POP DUP2 ADD SWAP1 PUSH2 0xE69 SWAP2 SWAP1 PUSH2 0x2581 JUMP JUMPDEST SWAP1 POP PUSH0 PUSH1 0x5 PUSH0 SWAP1 SLOAD SWAP1 PUSH2 0x100 EXP SWAP1 DIV PUSH20 0xFFFFFFFFFFFFFFFFFFFFFFFFFFFFFFFFFFFFFFFF AND PUSH20 0xFFFFFFFFFFFFFFFFFFFFFFFFFFFFFFFFFFFFFFFF AND PUSH4 0x70A08231 ADDRESS PUSH1 0x40 MLOAD DUP3 PUSH4 0xFFFFFFFF AND PUSH1 0xE0 SHL DUP2 MSTORE PUSH1 0x4 ADD PUSH2 0xEC6 SWAP2 SWAP1 PUSH2 0x2196 JUMP JUMPDEST PUSH1 0x20 PUSH1 0x40 MLOAD DUP1 DUP4 SUB DUP2 DUP7 GAS STATICCALL ISZERO DUP1 ISZERO PUSH2 0xEE1 JUMPI RETURNDATASIZE PUSH0 DUP1 RETURNDATACOPY RETURNDATASIZE PUSH0 REVERT JUMPDEST POP POP POP POP PUSH1 0x40 MLOAD RETURNDATASIZE PUSH1 0x1F NOT PUSH1 0x1F DUP3 ADD AND DUP3 ADD DUP1 PUSH1 0x40 MSTORE POP DUP2 ADD SWAP1 PUSH2 0xF05 SWAP2 SWAP1 PUSH2 0x2581 JUMP JUMPDEST SWAP1 POP PUSH0 PUSH2 0xF2B DUP6 PUSH14 0xFFFFFFFFFFFFFFFFFFFFFFFFFFFF AND DUP5 PUSH2 0x177F SWAP1 SWAP2 SWAP1 PUSH4 0xFFFFFFFF AND JUMP JUMPDEST SWAP1 POP PUSH0 PUSH2 0xF51 DUP6 PUSH14 0xFFFFFFFFFFFFFFFFFFFFFFFFFFFF AND DUP5 PUSH2 0x177F SWAP1 SWAP2 SWAP1 PUSH4 0xFFFFFFFF AND JUMP JUMPDEST SWAP1 POP PUSH0 DUP1 SLOAD SWAP1 POP PUSH0 DUP2 SUB PUSH2 0xFA1 JUMPI PUSH2 0xF8E PUSH2 0x3E8 PUSH2 0xF80 PUSH2 0xF7B DUP6 DUP8 PUSH2 0x1713 SWAP1 SWAP2 SWAP1 PUSH4 0xFFFFFFFF AND JUMP JUMPDEST PUSH2 0x1B96 JUMP JUMPDEST PUSH2 0x177F SWAP1 SWAP2 SWAP1 PUSH4 0xFFFFFFFF AND JUMP JUMPDEST SWAP8 POP PUSH2 0xF9C PUSH0 PUSH2 0x3E8 PUSH2 0x1C0D JUMP JUMPDEST PUSH2 0x1008 JUMP JUMPDEST PUSH2 0x1005 DUP8 PUSH14 0xFFFFFFFFFFFFFFFFFFFFFFFFFFFF AND PUSH2 0xFC8 DUP4 DUP7 PUSH2 0x1713 SWAP1 SWAP2 SWAP1 PUSH4 0xFFFFFFFF AND JUMP JUMPDEST PUSH2 0xFD2 SWAP2 SWAP1 PUSH2 0x27DA JUMP JUMPDEST DUP8 PUSH14 0xFFFFFFFFFFFFFFFFFFFFFFFFFFFF AND PUSH2 0xFF6 DUP5 DUP7 PUSH2 0x1713 SWAP1 SWAP2 SWAP1 PUSH4 0xFFFFFFFF AND JUMP JUMPDEST PUSH2 0x1000 SWAP2 SWAP1 PUSH2 0x27DA JUMP JUMPDEST PUSH2 0x1D20 JUMP JUMPDEST SWAP8 POP JUMPDEST PUSH0 DUP9 GT PUSH2 0x104A JUMPI PUSH1 0x40 MLOAD PUSH32 0x8C379A000000000000000000000000000000000000000000000000000000000 DUP2 MSTORE PUSH1 0x4 ADD PUSH2 0x1041 SWAP1 PUSH2 0x287A JUMP JUMPDEST PUSH1 0x40 MLOAD DUP1 SWAP2 SUB SWAP1 REVERT JUMPDEST PUSH2 0x1054 DUP10 DUP10 PUSH2 0x1C0D JUMP JUMPDEST PUSH2 0x105E DUP6 DUP6 PUSH2 0x17D7 JUMP JUMPDEST CALLER PUSH20 0xFFFFFFFFFFFFFFFFFFFFFFFFFFFFFFFFFFFFFFFF AND PUSH32 0x4C209B5FC8AD50758F13E2E1088BA56A560DFF690A1C6FEF26394F4C03821C4F DUP5 DUP5 PUSH1 0x40 MLOAD PUSH2 0x10A6 SWAP3 SWAP2 SWAP1 PUSH2 0x22C4 JUMP JUMPDEST PUSH1 0x40 MLOAD DUP1 SWAP2 SUB SWAP1 LOG2 POP POP POP POP POP POP POP PUSH1 0x1 PUSH1 0x7 DUP2 SWAP1 SSTORE POP SWAP2 SWAP1 POP JUMP JUMPDEST PUSH1 0x1 PUSH1 0x20 MSTORE DUP1 PUSH0 MSTORE PUSH1 0x40 PUSH0 KECCAK256 PUSH0 SWAP2 POP SWAP1 POP SLOAD DUP2 JUMP JUMPDEST PUSH0 DUP1 PUSH1 0x1 PUSH1 0x7 SLOAD EQ PUSH2 0x111E JUMPI PUSH1 0x40 MLOAD PUSH32 0x8C379A000000000000000000000000000000000000000000000000000000000 DUP2 MSTORE PUSH1 0x4 ADD PUSH2 0x1115 SWAP1 PUSH2 0x2335 JUMP JUMPDEST PUSH1 0x40 MLOAD DUP1 SWAP2 SUB SWAP1 REVERT JUMPDEST PUSH0 PUSH1 0x7 DUP2 SWAP1 SSTORE POP PUSH0 PUSH1 0x4 PUSH0 SWAP1 SLOAD SWAP1 PUSH2 0x100 EXP SWAP1 DIV PUSH20 0xFFFFFFFFFFFFFFFFFFFFFFFFFFFFFFFFFFFFFFFF AND SWAP1 POP PUSH0 PUSH1 0x5 PUSH0 SWAP1 SLOAD SWAP1 PUSH2 0x100 EXP SWAP1 DIV PUSH20 0xFFFFFFFFFFFFFFFFFFFFFFFFFFFFFFFFFFFFFFFF AND SWAP1 POP PUSH0 DUP3 PUSH20 0xFFFFFFFFFFFFFFFFFFFFFFFFFFFFFFFFFFFFFFFF AND PUSH4 0x70A08231 ADDRESS PUSH1 0x40 MLOAD DUP3 PUSH4 0xFFFFFFFF AND PUSH1 0xE0 SHL DUP2 MSTORE PUSH1 0x4 ADD PUSH2 0x11A9 SWAP2 SWAP1 PUSH2 0x2196 JUMP JUMPDEST PUSH1 0x20 PUSH1 0x40 MLOAD DUP1 DUP4 SUB DUP2 DUP7 GAS STATICCALL ISZERO DUP1 ISZERO PUSH2 0x11C4 JUMPI RETURNDATASIZE PUSH0 DUP1 RETURNDATACOPY RETURNDATASIZE PUSH0 REVERT JUMPDEST POP POP POP POP PUSH1 0x40 MLOAD RETURNDATASIZE PUSH1 0x1F NOT PUSH1 0x1F DUP3 ADD AND DUP3 ADD DUP1 PUSH1 0x40 MSTORE POP DUP2 ADD SWAP1 PUSH2 0x11E8 SWAP2 SWAP1 PUSH2 0x2581 JUMP JUMPDEST SWAP1 POP PUSH0 DUP3 PUSH20 0xFFFFFFFFFFFFFFFFFFFFFFFFFFFFFFFFFFFFFFFF AND PUSH4 0x70A08231 ADDRESS PUSH1 0x40 MLOAD DUP3 PUSH4 0xFFFFFFFF AND PUSH1 0xE0 SHL DUP2 MSTORE PUSH1 0x4 ADD PUSH2 0x1224 SWAP2 SWAP1 PUSH2 0x2196 JUMP JUMPDEST PUSH1 0x20 PUSH1 0x40 MLOAD DUP1 DUP4 SUB DUP2 DUP7 GAS STATICCALL ISZERO DUP1 ISZERO PUSH2 0x123F JUMPI RETURNDATASIZE PUSH0 DUP1 RETURNDATACOPY RETURNDATASIZE PUSH0 REVERT JUMPDEST POP POP POP POP PUSH1 0x40 MLOAD RETURNDATASIZE PUSH1 0x1F NOT PUSH1 0x1F DUP3 ADD AND DUP3 ADD DUP1 PUSH1 0x40 MSTORE POP DUP2 ADD SWAP1 PUSH2 0x1263 SWAP2 SWAP1 PUSH2 0x2581 JUMP JUMPDEST SWAP1 POP PUSH0 PUSH1 0x1 PUSH0 ADDRESS PUSH20 0xFFFFFFFFFFFFFFFFFFFFFFFFFFFFFFFFFFFFFFFF AND PUSH20 0xFFFFFFFFFFFFFFFFFFFFFFFFFFFFFFFFFFFFFFFF AND DUP2 MSTORE PUSH1 0x20 ADD SWAP1 DUP2 MSTORE PUSH1 0x20 ADD PUSH0 KECCAK256 SLOAD SWAP1 POP PUSH0 DUP1 SLOAD SWAP1 POP DUP1 PUSH2 0x12BF DUP6 DUP5 PUSH2 0x1713 SWAP1 SWAP2 SWAP1 PUSH4 0xFFFFFFFF AND JUMP JUMPDEST PUSH2 0x12C9 SWAP2 SWAP1 PUSH2 0x27DA JUMP JUMPDEST SWAP8 POP DUP1 PUSH2 0x12DF DUP5 DUP5 PUSH2 0x1713 SWAP1 SWAP2 SWAP1 PUSH4 0xFFFFFFFF AND JUMP JUMPDEST PUSH2 0x12E9 SWAP2 SWAP1 PUSH2 0x27DA JUMP JUMPDEST SWAP7 POP PUSH0 DUP9 GT DUP1 ISZERO PUSH2 0x12F9 JUMPI POP PUSH0 DUP8 GT JUMPDEST PUSH2 0x1338 JUMPI PUSH1 0x40 MLOAD PUSH32 0x8C379A000000000000000000000000000000000000000000000000000000000 DUP2 MSTORE PUSH1 0x4 ADD PUSH2 0x132F SWAP1 PUSH2 0x2908 JUMP JUMPDEST PUSH1 0x40 MLOAD DUP1 SWAP2 SUB SWAP1 REVERT JUMPDEST PUSH2 0x1342 ADDRESS DUP4 PUSH2 0x1D38 JUMP JUMPDEST PUSH2 0x134D DUP7 DUP11 DUP11 PUSH2 0x158F JUMP JUMPDEST PUSH2 0x1358 DUP6 DUP11 DUP10 PUSH2 0x158F JUMP JUMPDEST DUP6 PUSH20 0xFFFFFFFFFFFFFFFFFFFFFFFFFFFFFFFFFFFFFFFF AND PUSH4 0x70A08231 ADDRESS PUSH1 0x40 MLOAD DUP3 PUSH4 0xFFFFFFFF AND PUSH1 0xE0 SHL DUP2 MSTORE PUSH1 0x4 ADD PUSH2 0x1391 SWAP2 SWAP1 PUSH2 0x2196 JUMP JUMPDEST PUSH1 0x20 PUSH1 0x40 MLOAD DUP1 DUP4 SUB DUP2 DUP7 GAS STATICCALL ISZERO DUP1 ISZERO PUSH2 0x13AC JUMPI RETURNDATASIZE PUSH0 DUP1 RETURNDATACOPY RETURNDATASIZE PUSH0 REVERT JUMPDEST POP POP POP POP PUSH1 0x40 MLOAD RETURNDATASIZE PUSH1 0x1F NOT PUSH1 0x1F DUP3 ADD AND DUP3 ADD DUP1 PUSH1 0x40 MSTORE POP DUP2 ADD SWAP1 PUSH2 0x13D0 SWAP2 SWAP1 PUSH2 0x2581 JUMP JUMPDEST SWAP4 POP DUP5 PUSH20 0xFFFFFFFFFFFFFFFFFFFFFFFFFFFFFFFFFFFFFFFF AND PUSH4 0x70A08231 ADDRESS PUSH1 0x40 MLOAD DUP3 PUSH4 0xFFFFFFFF AND PUSH1 0xE0 SHL DUP2 MSTORE PUSH1 0x4 ADD PUSH2 0x140B SWAP2 SWAP1 PUSH2 0x2196 JUMP JUMPDEST PUSH1 0x20 PUSH1 0x40 MLOAD DUP1 DUP4 SUB DUP2 DUP7 GAS STATICCALL ISZERO DUP1 ISZERO PUSH2 0x1426 JUMPI RETURNDATASIZE PUSH0 DUP1 RETURNDATACOPY RETURNDATASIZE PUSH0 REVERT JUMPDEST POP POP POP POP PUSH1 0x40 MLOAD RETURNDATASIZE PUSH1 0x1F NOT PUSH1 0x1F DUP3 ADD AND DUP3 ADD DUP1 PUSH1 0x40 MSTORE POP DUP2 ADD SWAP1 PUSH2 0x144A SWAP2 SWAP1 PUSH2 0x2581 JUMP JUMPDEST SWAP3 POP PUSH2 0x1456 DUP5 DUP5 PUSH2 0x17D7 JUMP JUMPDEST DUP9 PUSH20 0xFFFFFFFFFFFFFFFFFFFFFFFFFFFFFFFFFFFFFFFF AND CALLER PUSH20 0xFFFFFFFFFFFFFFFFFFFFFFFFFFFFFFFFFFFFFFFF AND PUSH32 0xDCCD412F0B1252819CB1FD330B93224CA42612892BB3F4F789976E6D81936496 DUP11 DUP11 PUSH1 0x40 MLOAD PUSH2 0x14B5 SWAP3 SWAP2 SWAP1 PUSH2 0x22C4 JUMP JUMPDEST PUSH1 0x40 MLOAD DUP1 SWAP2 SUB SWAP1 LOG3 POP POP POP POP POP POP PUSH1 0x1 PUSH1 0x7 DUP2 SWAP1 SSTORE POP SWAP2 POP SWAP2 JUMP JUMPDEST PUSH1 0x40 MLOAD DUP1 PUSH1 0x40 ADD PUSH1 0x40 MSTORE DUP1 PUSH1 0x6 DUP2 MSTORE PUSH1 0x20 ADD PUSH32 0x554E492D56320000000000000000000000000000000000000000000000000000 DUP2 MSTORE POP DUP2 JUMP JUMPDEST PUSH0 PUSH2 0x1515 CALLER DUP5 DUP5 PUSH2 0x1A0A JUMP JUMPDEST PUSH1 0x1 SWAP1 POP SWAP3 SWAP2 POP POP JUMP JUMPDEST PUSH2 0x3E8 DUP2 JUMP JUMPDEST PUSH1 0x3 PUSH0 SWAP1 SLOAD SWAP1 PUSH2 0x100 EXP SWAP1 DIV PUSH20 0xFFFFFFFFFFFFFFFFFFFFFFFFFFFFFFFFFFFFFFFF AND DUP2 JUMP JUMPDEST PUSH1 0x5 PUSH0 SWAP1 SLOAD SWAP1 PUSH2 0x100 EXP SWAP1 DIV PUSH20 0xFFFFFFFFFFFFFFFFFFFFFFFFFFFFFFFFFFFFFFFF AND DUP2 JUMP JUMPDEST PUSH1 0x2 PUSH1 0x20 MSTORE DUP2 PUSH0 MSTORE PUSH1 0x40 PUSH0 KECCAK256 PUSH1 0x20 MSTORE DUP1 PUSH0 MSTORE PUSH1 0x40 PUSH0 KECCAK256 PUSH0 SWAP2 POP SWAP2 POP POP SLOAD DUP2 JUMP JUMPDEST PUSH0 DUP1 DUP5 PUSH20 0xFFFFFFFFFFFFFFFFFFFFFFFFFFFFFFFFFFFFFFFF AND PUSH1 0x40 MLOAD DUP1 PUSH1 0x40 ADD PUSH1 0x40 MSTORE DUP1 PUSH1 0x19 DUP2 MSTORE PUSH1 0x20 ADD PUSH32 0x7472616E7366657228616464726573732C75696E743235362900000000000000 DUP2 MSTORE POP DUP1 MLOAD SWAP1 PUSH1 0x20 ADD KECCAK256 DUP6 DUP6 PUSH1 0x40 MLOAD PUSH1 0x24 ADD PUSH2 0x15F8 SWAP3 SWAP2 SWAP1 PUSH2 0x2926 JUMP JUMPDEST PUSH1 0x40 MLOAD PUSH1 0x20 DUP2 DUP4 SUB SUB DUP2 MSTORE SWAP1 PUSH1 0x40 MSTORE SWAP1 PUSH28 0xFFFFFFFFFFFFFFFFFFFFFFFFFFFFFFFFFFFFFFFFFFFFFFFFFFFFFFFF NOT AND PUSH1 0x20 DUP3 ADD DUP1 MLOAD PUSH28 0xFFFFFFFFFFFFFFFFFFFFFFFFFFFFFFFFFFFFFFFFFFFFFFFFFFFFFFFF DUP4 DUP2 DUP4 AND OR DUP4 MSTORE POP POP POP POP PUSH1 0x40 MLOAD PUSH2 0x1662 SWAP2 SWAP1 PUSH2 0x2991 JUMP JUMPDEST PUSH0 PUSH1 0x40 MLOAD DUP1 DUP4 SUB DUP2 PUSH0 DUP7 GAS CALL SWAP2 POP POP RETURNDATASIZE DUP1 PUSH0 DUP2 EQ PUSH2 0x169B JUMPI PUSH1 0x40 MLOAD SWAP2 POP PUSH1 0x1F NOT PUSH1 0x3F RETURNDATASIZE ADD AND DUP3 ADD PUSH1 0x40 MSTORE RETURNDATASIZE DUP3 MSTORE RETURNDATASIZE PUSH0 PUSH1 0x20 DUP5 ADD RETURNDATACOPY PUSH2 0x16A0 JUMP JUMPDEST PUSH1 0x60 SWAP2 POP JUMPDEST POP SWAP2 POP SWAP2 POP DUP2 DUP1 ISZERO PUSH2 0x16CD JUMPI POP PUSH0 DUP2 MLOAD EQ DUP1 PUSH2 0x16CC JUMPI POP DUP1 DUP1 PUSH1 0x20 ADD SWAP1 MLOAD DUP2 ADD SWAP1 PUSH2 0x16CB SWAP2 SWAP1 PUSH2 0x29D1 JUMP JUMPDEST JUMPDEST JUMPDEST PUSH2 0x170C JUMPI PUSH1 0x40 MLOAD PUSH32 0x8C379A000000000000000000000000000000000000000000000000000000000 DUP2 MSTORE PUSH1 0x4 ADD PUSH2 0x1703 SWAP1 PUSH2 0x2A46 JUMP JUMPDEST PUSH1 0x40 MLOAD DUP1 SWAP2 SUB SWAP1 REVERT JUMPDEST POP POP POP POP POP JUMP JUMPDEST PUSH0 DUP1 DUP3 EQ DUP1 PUSH2 0x173A JUMPI POP DUP3 DUP3 DUP4 DUP6 PUSH2 0x172B SWAP2 SWAP1 PUSH2 0x2A64 JUMP JUMPDEST SWAP3 POP DUP3 PUSH2 0x1738 SWAP2 SWAP1 PUSH2 0x27DA JUMP JUMPDEST EQ JUMPDEST PUSH2 0x1779 JUMPI PUSH1 0x40 MLOAD PUSH32 0x8C379A000000000000000000000000000000000000000000000000000000000 DUP2 MSTORE PUSH1 0x4 ADD PUSH2 0x1770 SWAP1 PUSH2 0x2AEF JUMP JUMPDEST PUSH1 0x40 MLOAD DUP1 SWAP2 SUB SWAP1 REVERT JUMPDEST SWAP3 SWAP2 POP POP JUMP JUMPDEST PUSH0 DUP3 DUP3 DUP5 PUSH2 0x178D SWAP2 SWAP1 PUSH2 0x25D9 JUMP JUMPDEST SWAP2 POP DUP2 GT ISZERO PUSH2 0x17D1 JUMPI PUSH1 0x40 MLOAD PUSH32 0x8C379A000000000000000000000000000000000000000000000000000000000 DUP2 MSTORE PUSH1 0x4 ADD PUSH2 0x17C8 SWAP1 PUSH2 0x2B57 JUMP JUMPDEST PUSH1 0x40 MLOAD DUP1 SWAP2 SUB SWAP1 REVERT JUMPDEST SWAP3 SWAP2 POP POP JUMP JUMPDEST PUSH14 0xFFFFFFFFFFFFFFFFFFFFFFFFFFFF DUP1 AND DUP3 GT ISZERO DUP1 ISZERO PUSH2 0x1807 JUMPI POP PUSH14 0xFFFFFFFFFFFFFFFFFFFFFFFFFFFF DUP1 AND DUP2 GT ISZERO JUMPDEST PUSH2 0x1846 JUMPI PUSH1 0x40 MLOAD PUSH32 0x8C379A000000000000000000000000000000000000000000000000000000000 DUP2 MSTORE PUSH1 0x4 ADD PUSH2 0x183D SWAP1 PUSH2 0x2BBF JUMP JUMPDEST PUSH1 0x40 MLOAD DUP1 SWAP2 SUB SWAP1 REVERT JUMPDEST DUP2 PUSH1 0x6 PUSH0 PUSH2 0x100 EXP DUP2 SLOAD DUP2 PUSH14 0xFFFFFFFFFFFFFFFFFFFFFFFFFFFF MUL NOT AND SWAP1 DUP4 PUSH14 0xFFFFFFFFFFFFFFFFFFFFFFFFFFFF AND MUL OR SWAP1 SSTORE POP DUP1 PUSH1 0x6 PUSH1 0xE PUSH2 0x100 EXP DUP2 SLOAD DUP2 PUSH14 0xFFFFFFFFFFFFFFFFFFFFFFFFFFFF MUL NOT AND SWAP1 DUP4 PUSH14 0xFFFFFFFFFFFFFFFFFFFFFFFFFFFF AND MUL OR SWAP1 SSTORE POP PUSH32 0x1C411E9A96E071241C2F21F7726B17AE89E3CAB4C78BE50E062B03A9FFFBBAD1 PUSH1 0x6 PUSH0 SWAP1 SLOAD SWAP1 PUSH2 0x100 EXP SWAP1 DIV PUSH14 0xFFFFFFFFFFFFFFFFFFFFFFFFFFFF AND PUSH1 0x6 PUSH1 0xE SWAP1 SLOAD SWAP1 PUSH2 0x100 EXP SWAP1 DIV PUSH14 0xFFFFFFFFFFFFFFFFFFFFFFFFFFFF AND PUSH1 0x40 MLOAD PUSH2 0x1917 SWAP3 SWAP2 SWAP1 PUSH2 0x20EF JUMP JUMPDEST PUSH1 0x40 MLOAD DUP1 SWAP2 SUB SWAP1 LOG1 POP POP JUMP JUMPDEST DUP1 PUSH1 0x2 PUSH0 DUP6 PUSH20 0xFFFFFFFFFFFFFFFFFFFFFFFFFFFFFFFFFFFFFFFF AND PUSH20 0xFFFFFFFFFFFFFFFFFFFFFFFFFFFFFFFFFFFFFFFF AND DUP2 MSTORE PUSH1 0x20 ADD SWAP1 DUP2 MSTORE PUSH1 0x20 ADD PUSH0 KECCAK256 PUSH0 DUP5 PUSH20 0xFFFFFFFFFFFFFFFFFFFFFFFFFFFFFFFFFFFFFFFF AND PUSH20 0xFFFFFFFFFFFFFFFFFFFFFFFFFFFFFFFFFFFFFFFF AND DUP2 MSTORE PUSH1 0x20 ADD SWAP1 DUP2 MSTORE PUSH1 0x20 ADD PUSH0 KECCAK256 DUP2 SWAP1 SSTORE POP DUP2 PUSH20 0xFFFFFFFFFFFFFFFFFFFFFFFFFFFFFFFFFFFFFFFF AND DUP4 PUSH20 0xFFFFFFFFFFFFFFFFFFFFFFFFFFFFFFFFFFFFFFFF AND PUSH32 0x8C5BE1E5EBEC7D5BD14F71427D1E84F3DD0314C0F7B2291E5B200AC8C7C3B925 DUP4 PUSH1 0x40 MLOAD PUSH2 0x19FD SWAP2 SWAP1 PUSH2 0x21BE JUMP JUMPDEST PUSH1 0x40 MLOAD DUP1 SWAP2 SUB SWAP1 LOG3 POP POP POP JUMP JUMPDEST PUSH2 0x1A5A DUP2 PUSH1 0x1 PUSH0 DUP7 PUSH20 0xFFFFFFFFFFFFFFFFFFFFFFFFFFFFFFFFFFFFFFFF AND PUSH20 0xFFFFFFFFFFFFFFFFFFFFFFFFFFFFFFFFFFFFFFFF AND DUP2 MSTORE PUSH1 0x20 ADD SWAP1 DUP2 MSTORE PUSH1 0x20 ADD PUSH0 KECCAK256 SLOAD PUSH2 0x177F SWAP1 SWAP2 SWAP1 PUSH4 0xFFFFFFFF AND JUMP JUMPDEST PUSH1 0x1 PUSH0 DUP6 PUSH20 0xFFFFFFFFFFFFFFFFFFFFFFFFFFFFFFFFFFFFFFFF AND PUSH20 0xFFFFFFFFFFFFFFFFFFFFFFFFFFFFFFFFFFFFFFFF AND DUP2 MSTORE PUSH1 0x20 ADD SWAP1 DUP2 MSTORE PUSH1 0x20 ADD PUSH0 KECCAK256 DUP2 SWAP1 SSTORE POP PUSH2 0x1AEB DUP2 PUSH1 0x1 PUSH0 DUP6 PUSH20 0xFFFFFFFFFFFFFFFFFFFFFFFFFFFFFFFFFFFFFFFF AND PUSH20 0xFFFFFFFFFFFFFFFFFFFFFFFFFFFFFFFFFFFFFFFF AND DUP2 MSTORE PUSH1 0x20 ADD SWAP1 DUP2 MSTORE PUSH1 0x20 ADD PUSH0 KECCAK256 SLOAD PUSH2 0x1E4B SWAP1 SWAP2 SWAP1 PUSH4 0xFFFFFFFF AND JUMP JUMPDEST PUSH1 0x1 PUSH0 DUP5 PUSH20 0xFFFFFFFFFFFFFFFFFFFFFFFFFFFFFFFFFFFFFFFF AND PUSH20 0xFFFFFFFFFFFFFFFFFFFFFFFFFFFFFFFFFFFFFFFF AND DUP2 MSTORE PUSH1 0x20 ADD SWAP1 DUP2 MSTORE PUSH1 0x20 ADD PUSH0 KECCAK256 DUP2 SWAP1 SSTORE POP DUP2 PUSH20 0xFFFFFFFFFFFFFFFFFFFFFFFFFFFFFFFFFFFFFFFF AND DUP4 PUSH20 0xFFFFFFFFFFFFFFFFFFFFFFFFFFFFFFFFFFFFFFFF AND PUSH32 0xDDF252AD1BE2C89B69C2B068FC378DAA952BA7F163C4A11628F55A4DF523B3EF DUP4 PUSH1 0x40 MLOAD PUSH2 0x1B89 SWAP2 SWAP1 PUSH2 0x21BE JUMP JUMPDEST PUSH1 0x40 MLOAD DUP1 SWAP2 SUB SWAP1 LOG3 POP POP POP JUMP JUMPDEST PUSH0 PUSH1 0x3 DUP3 GT ISZERO PUSH2 0x1BFB JUMPI DUP2 SWAP1 POP PUSH0 PUSH1 0x1 PUSH1 0x2 DUP5 PUSH2 0x1BB3 SWAP2 SWAP1 PUSH2 0x27DA JUMP JUMPDEST PUSH2 0x1BBD SWAP2 SWAP1 PUSH2 0x2BDD JUMP JUMPDEST SWAP1 POP JUMPDEST DUP2 DUP2 LT ISZERO PUSH2 0x1BF5 JUMPI DUP1 SWAP2 POP PUSH1 0x2 DUP2 DUP3 DUP6 PUSH2 0x1BDA SWAP2 SWAP1 PUSH2 0x27DA JUMP JUMPDEST PUSH2 0x1BE4 SWAP2 SWAP1 PUSH2 0x2BDD JUMP JUMPDEST PUSH2 0x1BEE SWAP2 SWAP1 PUSH2 0x27DA JUMP JUMPDEST SWAP1 POP PUSH2 0x1BC0 JUMP JUMPDEST POP PUSH2 0x1C08 JUMP JUMPDEST PUSH0 DUP3 EQ PUSH2 0x1C07 JUMPI PUSH1 0x1 SWAP1 POP JUMPDEST JUMPDEST SWAP2 SWAP1 POP JUMP JUMPDEST PUSH2 0x1C21 DUP2 PUSH0 SLOAD PUSH2 0x1E4B SWAP1 SWAP2 SWAP1 PUSH4 0xFFFFFFFF AND JUMP JUMPDEST PUSH0 DUP2 SWAP1 SSTORE POP PUSH2 0x1C76 DUP2 PUSH1 0x1 PUSH0 DUP6 PUSH20 0xFFFFFFFFFFFFFFFFFFFFFFFFFFFFFFFFFFFFFFFF AND PUSH20 0xFFFFFFFFFFFFFFFFFFFFFFFFFFFFFFFFFFFFFFFF AND DUP2 MSTORE PUSH1 0x20 ADD SWAP1 DUP2 MSTORE PUSH1 0x20 ADD PUSH0 KECCAK256 SLOAD PUSH2 0x1E4B SWAP1 SWAP2 SWAP1 PUSH4 0xFFFFFFFF AND JUMP JUMPDEST PUSH1 0x1 PUSH0 DUP5 PUSH20 0xFFFFFFFFFFFFFFFFFFFFFFFFFFFFFFFFFFFFFFFF AND PUSH20 0xFFFFFFFFFFFFFFFFFFFFFFFFFFFFFFFFFFFFFFFF AND DUP2 MSTORE PUSH1 0x20 ADD SWAP1 DUP2 MSTORE PUSH1 0x20 ADD PUSH0 KECCAK256 DUP2 SWAP1 SSTORE POP DUP2 PUSH20 0xFFFFFFFFFFFFFFFFFFFFFFFFFFFFFFFFFFFFFFFF AND PUSH0 PUSH20 0xFFFFFFFFFFFFFFFFFFFFFFFFFFFFFFFFFFFFFFFF AND PUSH32 0xDDF252AD1BE2C89B69C2B068FC378DAA952BA7F163C4A11628F55A4DF523B3EF DUP4 PUSH1 0x40 MLOAD PUSH2 0x1D14 SWAP2 SWAP1 PUSH2 0x21BE JUMP JUMPDEST PUSH1 0x40 MLOAD DUP1 SWAP2 SUB SWAP1 LOG3 POP POP JUMP JUMPDEST PUSH0 DUP2 DUP4 LT PUSH2 0x1D2E JUMPI DUP2 PUSH2 0x1D30 JUMP JUMPDEST DUP3 JUMPDEST SWAP1 POP SWAP3 SWAP2 POP POP JUMP JUMPDEST PUSH2 0x1D88 DUP2 PUSH1 0x1 PUSH0 DUP6 PUSH20 0xFFFFFFFFFFFFFFFFFFFFFFFFFFFFFFFFFFFFFFFF AND PUSH20 0xFFFFFFFFFFFFFFFFFFFFFFFFFFFFFFFFFFFFFFFF AND DUP2 MSTORE PUSH1 0x20 ADD SWAP1 DUP2 MSTORE PUSH1 0x20 ADD PUSH0 KECCAK256 SLOAD PUSH2 0x177F SWAP1 SWAP2 SWAP1 PUSH4 0xFFFFFFFF AND JUMP JUMPDEST PUSH1 0x1 PUSH0 DUP5 PUSH20 0xFFFFFFFFFFFFFFFFFFFFFFFFFFFFFFFFFFFFFFFF AND PUSH20 0xFFFFFFFFFFFFFFFFFFFFFFFFFFFFFFFFFFFFFFFF AND DUP2 MSTORE PUSH1 0x20 ADD SWAP1 DUP2 MSTORE PUSH1 0x20 ADD PUSH0 KECCAK256 DUP2 SWAP1 SSTORE POP PUSH2 0x1DDD DUP2 PUSH0 SLOAD PUSH2 0x177F SWAP1 SWAP2 SWAP1 PUSH4 0xFFFFFFFF AND JUMP JUMPDEST PUSH0 DUP2 SWAP1 SSTORE POP PUSH0 PUSH20 0xFFFFFFFFFFFFFFFFFFFFFFFFFFFFFFFFFFFFFFFF AND DUP3 PUSH20 0xFFFFFFFFFFFFFFFFFFFFFFFFFFFFFFFFFFFFFFFF AND PUSH32 0xDDF252AD1BE2C89B69C2B068FC378DAA952BA7F163C4A11628F55A4DF523B3EF DUP4 PUSH1 0x40 MLOAD PUSH2 0x1E3F SWAP2 SWAP1 PUSH2 0x21BE JUMP JUMPDEST PUSH1 0x40 MLOAD DUP1 SWAP2 SUB SWAP1 LOG3 POP POP JUMP JUMPDEST PUSH0 DUP3 DUP3 DUP5 PUSH2 0x1E59 SWAP2 SWAP1 PUSH2 0x2BDD JUMP JUMPDEST SWAP2 POP DUP2 LT ISZERO PUSH2 0x1E9D JUMPI PUSH1 0x40 MLOAD PUSH32 0x8C379A000000000000000000000000000000000000000000000000000000000 DUP2 MSTORE PUSH1 0x4 ADD PUSH2 0x1E94 SWAP1 PUSH2 0x2C5A JUMP JUMPDEST PUSH1 0x40 MLOAD DUP1 SWAP2 SUB SWAP1 REVERT JUMPDEST SWAP3 SWAP2 POP POP JUMP JUMPDEST PUSH0 DUP1 REVERT JUMPDEST PUSH0 DUP1 REVERT JUMPDEST PUSH0 DUP2 SWAP1 POP SWAP2 SWAP1 POP JUMP JUMPDEST PUSH2 0x1EBD DUP2 PUSH2 0x1EAB JUMP JUMPDEST DUP2 EQ PUSH2 0x1EC7 JUMPI PUSH0 DUP1 REVERT JUMPDEST POP JUMP JUMPDEST PUSH0 DUP2 CALLDATALOAD SWAP1 POP PUSH2 0x1ED8 DUP2 PUSH2 0x1EB4 JUMP JUMPDEST SWAP3 SWAP2 POP POP JUMP JUMPDEST PUSH0 PUSH20 0xFFFFFFFFFFFFFFFFFFFFFFFFFFFFFFFFFFFFFFFF DUP3 AND SWAP1 POP SWAP2 SWAP1 POP JUMP JUMPDEST PUSH0 PUSH2 0x1F07 DUP3 PUSH2 0x1EDE JUMP JUMPDEST SWAP1 POP SWAP2 SWAP1 POP JUMP JUMPDEST PUSH2 0x1F17 DUP2 PUSH2 0x1EFD JUMP JUMPDEST DUP2 EQ PUSH2 0x1F21 JUMPI PUSH0 DUP1 REVERT JUMPDEST POP JUMP JUMPDEST PUSH0 DUP2 CALLDATALOAD SWAP1 POP PUSH2 0x1F32 DUP2 PUSH2 0x1F0E JUMP JUMPDEST SWAP3 SWAP2 POP POP JUMP JUMPDEST PUSH0 DUP1 REVERT JUMPDEST PUSH0 DUP1 REVERT JUMPDEST PUSH0 DUP1 REVERT JUMPDEST PUSH0 DUP1 DUP4 PUSH1 0x1F DUP5 ADD SLT PUSH2 0x1F59 JUMPI PUSH2 0x1F58 PUSH2 0x1F38 JUMP JUMPDEST JUMPDEST DUP3 CALLDATALOAD SWAP1 POP PUSH8 0xFFFFFFFFFFFFFFFF DUP2 GT ISZERO PUSH2 0x1F76 JUMPI PUSH2 0x1F75 PUSH2 0x1F3C JUMP JUMPDEST JUMPDEST PUSH1 0x20 DUP4 ADD SWAP2 POP DUP4 PUSH1 0x1 DUP3 MUL DUP4 ADD GT ISZERO PUSH2 0x1F92 JUMPI PUSH2 0x1F91 PUSH2 0x1F40 JUMP JUMPDEST JUMPDEST SWAP3 POP SWAP3 SWAP1 POP JUMP JUMPDEST PUSH0 DUP1 PUSH0 DUP1 PUSH0 PUSH1 0x80 DUP7 DUP9 SUB SLT ISZERO PUSH2 0x1FB2 JUMPI PUSH2 0x1FB1 PUSH2 0x1EA3 JUMP JUMPDEST JUMPDEST PUSH0 PUSH2 0x1FBF DUP9 DUP3 DUP10 ADD PUSH2 0x1ECA JUMP JUMPDEST SWAP6 POP POP PUSH1 0x20 PUSH2 0x1FD0 DUP9 DUP3 DUP10 ADD PUSH2 0x1ECA JUMP JUMPDEST SWAP5 POP POP PUSH1 0x40 PUSH2 0x1FE1 DUP9 DUP3 DUP10 ADD PUSH2 0x1F24 JUMP JUMPDEST SWAP4 POP POP PUSH1 0x60 DUP7 ADD CALLDATALOAD PUSH8 0xFFFFFFFFFFFFFFFF DUP2 GT ISZERO PUSH2 0x2002 JUMPI PUSH2 0x2001 PUSH2 0x1EA7 JUMP JUMPDEST JUMPDEST PUSH2 0x200E DUP9 DUP3 DUP10 ADD PUSH2 0x1F44 JUMP JUMPDEST SWAP3 POP SWAP3 POP POP SWAP3 SWAP6 POP SWAP3 SWAP6 SWAP1 SWAP4 POP JUMP JUMPDEST PUSH0 DUP2 MLOAD SWAP1 POP SWAP2 SWAP1 POP JUMP JUMPDEST PUSH0 DUP3 DUP3 MSTORE PUSH1 0x20 DUP3 ADD SWAP1 POP SWAP3 SWAP2 POP POP JUMP JUMPDEST PUSH0 JUMPDEST DUP4 DUP2 LT ISZERO PUSH2 0x2054 JUMPI DUP1 DUP3 ADD MLOAD DUP2 DUP5 ADD MSTORE PUSH1 0x20 DUP2 ADD SWAP1 POP PUSH2 0x2039 JUMP JUMPDEST PUSH0 DUP5 DUP5 ADD MSTORE POP POP POP POP JUMP JUMPDEST PUSH0 PUSH1 0x1F NOT PUSH1 0x1F DUP4 ADD AND SWAP1 POP SWAP2 SWAP1 POP JUMP JUMPDEST PUSH0 PUSH2 0x2079 DUP3 PUSH2 0x201D JUMP JUMPDEST PUSH2 0x2083 DUP2 DUP6 PUSH2 0x2027 JUMP JUMPDEST SWAP4 POP PUSH2 0x2093 DUP2 DUP6 PUSH1 0x20 DUP7 ADD PUSH2 0x2037 JUMP JUMPDEST PUSH2 0x209C DUP2 PUSH2 0x205F JUMP JUMPDEST DUP5 ADD SWAP2 POP POP SWAP3 SWAP2 POP POP JUMP JUMPDEST PUSH0 PUSH1 0x20 DUP3 ADD SWAP1 POP DUP2 DUP2 SUB PUSH0 DUP4 ADD MSTORE PUSH2 0x20BF DUP2 DUP5 PUSH2 0x206F JUMP JUMPDEST SWAP1 POP SWAP3 SWAP2 POP POP JUMP JUMPDEST PUSH0 PUSH14 0xFFFFFFFFFFFFFFFFFFFFFFFFFFFF DUP3 AND SWAP1 POP SWAP2 SWAP1 POP JUMP JUMPDEST PUSH2 0x20E9 DUP2 PUSH2 0x20C7 JUMP JUMPDEST DUP3 MSTORE POP POP JUMP JUMPDEST PUSH0 PUSH1 0x40 DUP3 ADD SWAP1 POP PUSH2 0x2102 PUSH0 DUP4 ADD DUP6 PUSH2 0x20E0 JUMP JUMPDEST PUSH2 0x210F PUSH1 0x20 DUP4 ADD DUP5 PUSH2 0x20E0 JUMP JUMPDEST SWAP4 SWAP3 POP POP POP JUMP JUMPDEST PUSH0 DUP1 PUSH1 0x40 DUP4 DUP6 SUB SLT ISZERO PUSH2 0x212C JUMPI PUSH2 0x212B PUSH2 0x1EA3 JUMP JUMPDEST JUMPDEST PUSH0 PUSH2 0x2139 DUP6 DUP3 DUP7 ADD PUSH2 0x1F24 JUMP JUMPDEST SWAP3 POP POP PUSH1 0x20 PUSH2 0x214A DUP6 DUP3 DUP7 ADD PUSH2 0x1ECA JUMP JUMPDEST SWAP2 POP POP SWAP3 POP SWAP3 SWAP1 POP JUMP JUMPDEST PUSH0 DUP2 ISZERO ISZERO SWAP1 POP SWAP2 SWAP1 POP JUMP JUMPDEST PUSH2 0x2168 DUP2 PUSH2 0x2154 JUMP JUMPDEST DUP3 MSTORE POP POP JUMP JUMPDEST PUSH0 PUSH1 0x20 DUP3 ADD SWAP1 POP PUSH2 0x2181 PUSH0 DUP4 ADD DUP5 PUSH2 0x215F JUMP JUMPDEST SWAP3 SWAP2 POP POP JUMP JUMPDEST PUSH2 0x2190 DUP2 PUSH2 0x1EFD JUMP JUMPDEST DUP3 MSTORE POP POP JUMP JUMPDEST PUSH0 PUSH1 0x20 DUP3 ADD SWAP1 POP PUSH2 0x21A9 PUSH0 DUP4 ADD DUP5 PUSH2 0x2187 JUMP JUMPDEST SWAP3 SWAP2 POP POP JUMP JUMPDEST PUSH2 0x21B8 DUP2 PUSH2 0x1EAB JUMP JUMPDEST DUP3 MSTORE POP POP JUMP JUMPDEST PUSH0 PUSH1 0x20 DUP3 ADD SWAP1 POP PUSH2 0x21D1 PUSH0 DUP4 ADD DUP5 PUSH2 0x21AF JUMP JUMPDEST SWAP3 SWAP2 POP POP JUMP JUMPDEST PUSH0 DUP1 PUSH0 PUSH1 0x60 DUP5 DUP7 SUB SLT ISZERO PUSH2 0x21EE JUMPI PUSH2 0x21ED PUSH2 0x1EA3 JUMP JUMPDEST JUMPDEST PUSH0 PUSH2 0x21FB DUP7 DUP3 DUP8 ADD PUSH2 0x1F24 JUMP JUMPDEST SWAP4 POP POP PUSH1 0x20 PUSH2 0x220C DUP7 DUP3 DUP8 ADD PUSH2 0x1F24 JUMP JUMPDEST SWAP3 POP POP PUSH1 0x40 PUSH2 0x221D DUP7 DUP3 DUP8 ADD PUSH2 0x1ECA JUMP JUMPDEST SWAP2 POP POP SWAP3 POP SWAP3 POP SWAP3 JUMP JUMPDEST PUSH0 PUSH1 0xFF DUP3 AND SWAP1 POP SWAP2 SWAP1 POP JUMP JUMPDEST PUSH2 0x223C DUP2 PUSH2 0x2227 JUMP JUMPDEST DUP3 MSTORE POP POP JUMP JUMPDEST PUSH0 PUSH1 0x20 DUP3 ADD SWAP1 POP PUSH2 0x2255 PUSH0 DUP4 ADD DUP5 PUSH2 0x2233 JUMP JUMPDEST SWAP3 SWAP2 POP POP JUMP JUMPDEST PUSH0 DUP1 PUSH1 0x40 DUP4 DUP6 SUB SLT ISZERO PUSH2 0x2271 JUMPI PUSH2 0x2270 PUSH2 0x1EA3 JUMP JUMPDEST JUMPDEST PUSH0 PUSH2 0x227E DUP6 DUP3 DUP7 ADD PUSH2 0x1F24 JUMP JUMPDEST SWAP3 POP POP PUSH1 0x20 PUSH2 0x228F DUP6 DUP3 DUP7 ADD PUSH2 0x1F24 JUMP JUMPDEST SWAP2 POP POP SWAP3 POP SWAP3 SWAP1 POP JUMP JUMPDEST PUSH0 PUSH1 0x20 DUP3 DUP5 SUB SLT ISZERO PUSH2 0x22AE JUMPI PUSH2 0x22AD PUSH2 0x1EA3 JUMP JUMPDEST JUMPDEST PUSH0 PUSH2 0x22BB DUP5 DUP3 DUP6 ADD PUSH2 0x1F24 JUMP JUMPDEST SWAP2 POP POP SWAP3 SWAP2 POP POP JUMP JUMPDEST PUSH0 PUSH1 0x40 DUP3 ADD SWAP1 POP PUSH2 0x22D7 PUSH0 DUP4 ADD DUP6 PUSH2 0x21AF JUMP JUMPDEST PUSH2 0x22E4 PUSH1 0x20 DUP4 ADD DUP5 PUSH2 0x21AF JUMP JUMPDEST SWAP4 SWAP3 POP POP POP JUMP JUMPDEST PUSH32 0x556E697377617056323A204C4F434B4544000000000000000000000000000000 PUSH0 DUP3 ADD MSTORE POP JUMP JUMPDEST PUSH0 PUSH2 0x231F PUSH1 0x11 DUP4 PUSH2 0x2027 JUMP JUMPDEST SWAP2 POP PUSH2 0x232A DUP3 PUSH2 0x22EB JUMP JUMPDEST PUSH1 0x20 DUP3 ADD SWAP1 POP SWAP2 SWAP1 POP JUMP JUMPDEST PUSH0 PUSH1 0x20 DUP3 ADD SWAP1 POP DUP2 DUP2 SUB PUSH0 DUP4 ADD MSTORE PUSH2 0x234C DUP2 PUSH2 0x2313 JUMP JUMPDEST SWAP1 POP SWAP2 SWAP1 POP JUMP JUMPDEST PUSH32 0x556E697377617056323A20494E53554646494349454E545F4F55545055545F41 PUSH0 DUP3 ADD MSTORE PUSH32 0x4D4F554E54000000000000000000000000000000000000000000000000000000 PUSH1 0x20 DUP3 ADD MSTORE POP JUMP JUMPDEST PUSH0 PUSH2 0x23AD PUSH1 0x25 DUP4 PUSH2 0x2027 JUMP JUMPDEST SWAP2 POP PUSH2 0x23B8 DUP3 PUSH2 0x2353 JUMP JUMPDEST PUSH1 0x40 DUP3 ADD SWAP1 POP SWAP2 SWAP1 POP JUMP JUMPDEST PUSH0 PUSH1 0x20 DUP3 ADD SWAP1 POP DUP2 DUP2 SUB PUSH0 DUP4 ADD MSTORE PUSH2 0x23DA DUP2 PUSH2 0x23A1 JUMP JUMPDEST SWAP1 POP SWAP2 SWAP1 POP JUMP JUMPDEST PUSH32 0x556E697377617056323A20494E53554646494349454E545F4C49515549444954 PUSH0 DUP3 ADD MSTORE PUSH32 0x5900000000000000000000000000000000000000000000000000000000000000 PUSH1 0x20 DUP3 ADD MSTORE POP JUMP JUMPDEST PUSH0 PUSH2 0x243B PUSH1 0x21 DUP4 PUSH2 0x2027 JUMP JUMPDEST SWAP2 POP PUSH2 0x2446 DUP3 PUSH2 0x23E1 JUMP JUMPDEST PUSH1 0x40 DUP3 ADD SWAP1 POP SWAP2 SWAP1 POP JUMP JUMPDEST PUSH0 PUSH1 0x20 DUP3 ADD SWAP1 POP DUP2 DUP2 SUB PUSH0 DUP4 ADD MSTORE PUSH2 0x2468 DUP2 PUSH2 0x242F JUMP JUMPDEST SWAP1 POP SWAP2 SWAP1 POP JUMP JUMPDEST PUSH32 0x556E697377617056323A20494E56414C49445F544F0000000000000000000000 PUSH0 DUP3 ADD MSTORE POP JUMP JUMPDEST PUSH0 PUSH2 0x24A3 PUSH1 0x15 DUP4 PUSH2 0x2027 JUMP JUMPDEST SWAP2 POP PUSH2 0x24AE DUP3 PUSH2 0x246F JUMP JUMPDEST PUSH1 0x20 DUP3 ADD SWAP1 POP SWAP2 SWAP1 POP JUMP JUMPDEST PUSH0 PUSH1 0x20 DUP3 ADD SWAP1 POP DUP2 DUP2 SUB PUSH0 DUP4 ADD MSTORE PUSH2 0x24D0 DUP2 PUSH2 0x2497 JUMP JUMPDEST SWAP1 POP SWAP2 SWAP1 POP JUMP JUMPDEST PUSH0 DUP3 DUP3 MSTORE PUSH1 0x20 DUP3 ADD SWAP1 POP SWAP3 SWAP2 POP POP JUMP JUMPDEST DUP3 DUP2 DUP4 CALLDATACOPY PUSH0 DUP4 DUP4 ADD MSTORE POP POP POP JUMP JUMPDEST PUSH0 PUSH2 0x2500 DUP4 DUP6 PUSH2 0x24D7 JUMP JUMPDEST SWAP4 POP PUSH2 0x250D DUP4 DUP6 DUP5 PUSH2 0x24E7 JUMP JUMPDEST PUSH2 0x2516 DUP4 PUSH2 0x205F JUMP JUMPDEST DUP5 ADD SWAP1 POP SWAP4 SWAP3 POP POP POP JUMP JUMPDEST PUSH0 PUSH1 0x80 DUP3 ADD SWAP1 POP PUSH2 0x2534 PUSH0 DUP4 ADD DUP9 PUSH2 0x2187 JUMP JUMPDEST PUSH2 0x2541 PUSH1 0x20 DUP4 ADD DUP8 PUSH2 0x21AF JUMP JUMPDEST PUSH2 0x254E PUSH1 0x40 DUP4 ADD DUP7 PUSH2 0x21AF JUMP JUMPDEST DUP2 DUP2 SUB PUSH1 0x60 DUP4 ADD MSTORE PUSH2 0x2561 DUP2 DUP5 DUP7 PUSH2 0x24F5 JUMP JUMPDEST SWAP1 POP SWAP7 SWAP6 POP POP POP POP POP POP JUMP JUMPDEST PUSH0 DUP2 MLOAD SWAP1 POP PUSH2 0x257B DUP2 PUSH2 0x1EB4 JUMP JUMPDEST SWAP3 SWAP2 POP POP JUMP JUMPDEST PUSH0 PUSH1 0x20 DUP3 DUP5 SUB SLT ISZERO PUSH2 0x2596 JUMPI PUSH2 0x2595 PUSH2 0x1EA3 JUMP JUMPDEST JUMPDEST PUSH0 PUSH2 0x25A3 DUP5 DUP3 DUP6 ADD PUSH2 0x256D JUMP JUMPDEST SWAP2 POP POP SWAP3 SWAP2 POP POP JUMP JUMPDEST PUSH32 0x4E487B7100000000000000000000000000000000000000000000000000000000 PUSH0 MSTORE PUSH1 0x11 PUSH1 0x4 MSTORE PUSH1 0x24 PUSH0 REVERT JUMPDEST PUSH0 PUSH2 0x25E3 DUP3 PUSH2 0x1EAB JUMP JUMPDEST SWAP2 POP PUSH2 0x25EE DUP4 PUSH2 0x1EAB JUMP JUMPDEST SWAP3 POP DUP3 DUP3 SUB SWAP1 POP DUP2 DUP2 GT ISZERO PUSH2 0x2606 JUMPI PUSH2 0x2605 PUSH2 0x25AC JUMP JUMPDEST JUMPDEST SWAP3 SWAP2 POP POP JUMP JUMPDEST PUSH32 0x556E697377617056323A20494E53554646494349454E545F494E5055545F414D PUSH0 DUP3 ADD MSTORE PUSH32 0x4F554E5400000000000000000000000000000000000000000000000000000000 PUSH1 0x20 DUP3 ADD MSTORE POP JUMP JUMPDEST PUSH0 PUSH2 0x2666 PUSH1 0x24 DUP4 PUSH2 0x2027 JUMP JUMPDEST SWAP2 POP PUSH2 0x2671 DUP3 PUSH2 0x260C JUMP JUMPDEST PUSH1 0x40 DUP3 ADD SWAP1 POP SWAP2 SWAP1 POP JUMP JUMPDEST PUSH0 PUSH1 0x20 DUP3 ADD SWAP1 POP DUP2 DUP2 SUB PUSH0 DUP4 ADD MSTORE PUSH2 0x2693 DUP2 PUSH2 0x265A JUMP JUMPDEST SWAP1 POP SWAP2 SWAP1 POP JUMP JUMPDEST PUSH32 0x556E697377617056323A204B0000000000000000000000000000000000000000 PUSH0 DUP3 ADD MSTORE POP JUMP JUMPDEST PUSH0 PUSH2 0x26CE PUSH1 0xC DUP4 PUSH2 0x2027 JUMP JUMPDEST SWAP2 POP PUSH2 0x26D9 DUP3 PUSH2 0x269A JUMP JUMPDEST PUSH1 0x20 DUP3 ADD SWAP1 POP SWAP2 SWAP1 POP JUMP JUMPDEST PUSH0 PUSH1 0x20 DUP3 ADD SWAP1 POP DUP2 DUP2 SUB PUSH0 DUP4 ADD MSTORE PUSH2 0x26FB DUP2 PUSH2 0x26C2 JUMP JUMPDEST SWAP1 POP SWAP2 SWAP1 POP JUMP JUMPDEST PUSH0 PUSH1 0x80 DUP3 ADD SWAP1 POP PUSH2 0x2715 PUSH0 DUP4 ADD DUP8 PUSH2 0x21AF JUMP JUMPDEST PUSH2 0x2722 PUSH1 0x20 DUP4 ADD DUP7 PUSH2 0x21AF JUMP JUMPDEST PUSH2 0x272F PUSH1 0x40 DUP4 ADD DUP6 PUSH2 0x21AF JUMP JUMPDEST PUSH2 0x273C PUSH1 0x60 DUP4 ADD DUP5 PUSH2 0x21AF JUMP JUMPDEST SWAP6 SWAP5 POP POP POP POP POP JUMP JUMPDEST PUSH32 0x556E697377617056323A20464F5242494444454E000000000000000000000000 PUSH0 DUP3 ADD MSTORE POP JUMP JUMPDEST PUSH0 PUSH2 0x2779 PUSH1 0x14 DUP4 PUSH2 0x2027 JUMP JUMPDEST SWAP2 POP PUSH2 0x2784 DUP3 PUSH2 0x2745 JUMP JUMPDEST PUSH1 0x20 DUP3 ADD SWAP1 POP SWAP2 SWAP1 POP JUMP JUMPDEST PUSH0 PUSH1 0x20 DUP3 ADD SWAP1 POP DUP2 DUP2 SUB PUSH0 DUP4 ADD MSTORE PUSH2 0x27A6 DUP2 PUSH2 0x276D JUMP JUMPDEST SWAP1 POP SWAP2 SWAP1 POP JUMP JUMPDEST PUSH32 0x4E487B7100000000000000000000000000000000000000000000000000000000 PUSH0 MSTORE PUSH1 0x12 PUSH1 0x4 MSTORE PUSH1 0x24 PUSH0 REVERT JUMPDEST PUSH0 PUSH2 0x27E4 DUP3 PUSH2 0x1EAB JUMP JUMPDEST SWAP2 POP PUSH2 0x27EF DUP4 PUSH2 0x1EAB JUMP JUMPDEST SWAP3 POP DUP3 PUSH2 0x27FF JUMPI PUSH2 0x27FE PUSH2 0x27AD JUMP JUMPDEST JUMPDEST DUP3 DUP3 DIV SWAP1 POP SWAP3 SWAP2 POP POP JUMP JUMPDEST PUSH32 0x556E697377617056323A20494E53554646494349454E545F4C49515549444954 PUSH0 DUP3 ADD MSTORE PUSH32 0x595F4D494E544544000000000000000000000000000000000000000000000000 PUSH1 0x20 DUP3 ADD MSTORE POP JUMP JUMPDEST PUSH0 PUSH2 0x2864 PUSH1 0x28 DUP4 PUSH2 0x2027 JUMP JUMPDEST SWAP2 POP PUSH2 0x286F DUP3 PUSH2 0x280A JUMP JUMPDEST PUSH1 0x40 DUP3 ADD SWAP1 POP SWAP2 SWAP1 POP JUMP JUMPDEST PUSH0 PUSH1 0x20 DUP3 ADD SWAP1 POP DUP2 DUP2 SUB PUSH0 DUP4 ADD MSTORE PUSH2 0x2891 DUP2 PUSH2 0x2858 JUMP JUMPDEST SWAP1 POP SWAP2 SWAP1 POP JUMP JUMPDEST PUSH32 0x556E697377617056323A20494E53554646494349454E545F4C49515549444954 PUSH0 DUP3 ADD MSTORE PUSH32 0x595F4255524E4544000000000000000000000000000000000000000000000000 PUSH1 0x20 DUP3 ADD MSTORE POP JUMP JUMPDEST PUSH0 PUSH2 0x28F2 PUSH1 0x28 DUP4 PUSH2 0x2027 JUMP JUMPDEST SWAP2 POP PUSH2 0x28FD DUP3 PUSH2 0x2898 JUMP JUMPDEST PUSH1 0x40 DUP3 ADD SWAP1 POP SWAP2 SWAP1 POP JUMP JUMPDEST PUSH0 PUSH1 0x20 DUP3 ADD SWAP1 POP DUP2 DUP2 SUB PUSH0 DUP4 ADD MSTORE PUSH2 0x291F DUP2 PUSH2 0x28E6 JUMP JUMPDEST SWAP1 POP SWAP2 SWAP1 POP JUMP JUMPDEST PUSH0 PUSH1 0x40 DUP3 ADD SWAP1 POP PUSH2 0x2939 PUSH0 DUP4 ADD DUP6 PUSH2 0x2187 JUMP JUMPDEST PUSH2 0x2946 PUSH1 0x20 DUP4 ADD DUP5 PUSH2 0x21AF JUMP JUMPDEST SWAP4 SWAP3 POP POP POP JUMP JUMPDEST PUSH0 DUP2 MLOAD SWAP1 POP SWAP2 SWAP1 POP JUMP JUMPDEST PUSH0 DUP2 SWAP1 POP SWAP3 SWAP2 POP POP JUMP JUMPDEST PUSH0 PUSH2 0x296B DUP3 PUSH2 0x294D JUMP JUMPDEST PUSH2 0x2975 DUP2 DUP6 PUSH2 0x2957 JUMP JUMPDEST SWAP4 POP PUSH2 0x2985 DUP2 DUP6 PUSH1 0x20 DUP7 ADD PUSH2 0x2037 JUMP JUMPDEST DUP1 DUP5 ADD SWAP2 POP POP SWAP3 SWAP2 POP POP JUMP JUMPDEST PUSH0 PUSH2 0x299C DUP3 DUP5 PUSH2 0x2961 JUMP JUMPDEST SWAP2 POP DUP2 SWAP1 POP SWAP3 SWAP2 POP POP JUMP JUMPDEST PUSH2 0x29B0 DUP2 PUSH2 0x2154 JUMP JUMPDEST DUP2 EQ PUSH2 0x29BA JUMPI PUSH0 DUP1 REVERT JUMPDEST POP JUMP JUMPDEST PUSH0 DUP2 MLOAD SWAP1 POP PUSH2 0x29CB DUP2 PUSH2 0x29A7 JUMP JUMPDEST SWAP3 SWAP2 POP POP JUMP JUMPDEST PUSH0 PUSH1 0x20 DUP3 DUP5 SUB SLT ISZERO PUSH2 0x29E6 JUMPI PUSH2 0x29E5 PUSH2 0x1EA3 JUMP JUMPDEST JUMPDEST PUSH0 PUSH2 0x29F3 DUP5 DUP3 DUP6 ADD PUSH2 0x29BD JUMP JUMPDEST SWAP2 POP POP SWAP3 SWAP2 POP POP JUMP JUMPDEST PUSH32 0x556E697377617056323A205452414E534645525F4641494C4544000000000000 PUSH0 DUP3 ADD MSTORE POP JUMP JUMPDEST PUSH0 PUSH2 0x2A30 PUSH1 0x1A DUP4 PUSH2 0x2027 JUMP JUMPDEST SWAP2 POP PUSH2 0x2A3B DUP3 PUSH2 0x29FC JUMP JUMPDEST PUSH1 0x20 DUP3 ADD SWAP1 POP SWAP2 SWAP1 POP JUMP JUMPDEST PUSH0 PUSH1 0x20 DUP3 ADD SWAP1 POP DUP2 DUP2 SUB PUSH0 DUP4 ADD MSTORE PUSH2 0x2A5D DUP2 PUSH2 0x2A24 JUMP JUMPDEST SWAP1 POP SWAP2 SWAP1 POP JUMP JUMPDEST PUSH0 PUSH2 0x2A6E DUP3 PUSH2 0x1EAB JUMP JUMPDEST SWAP2 POP PUSH2 0x2A79 DUP4 PUSH2 0x1EAB JUMP JUMPDEST SWAP3 POP DUP3 DUP3 MUL PUSH2 0x2A87 DUP2 PUSH2 0x1EAB JUMP JUMPDEST SWAP2 POP DUP3 DUP3 DIV DUP5 EQ DUP4 ISZERO OR PUSH2 0x2A9E JUMPI PUSH2 0x2A9D PUSH2 0x25AC JUMP JUMPDEST JUMPDEST POP SWAP3 SWAP2 POP POP JUMP JUMPDEST PUSH32 0x64732D6D6174682D6D756C2D6F766572666C6F77000000000000000000000000 PUSH0 DUP3 ADD MSTORE POP JUMP JUMPDEST PUSH0 PUSH2 0x2AD9 PUSH1 0x14 DUP4 PUSH2 0x2027 JUMP JUMPDEST SWAP2 POP PUSH2 0x2AE4 DUP3 PUSH2 0x2AA5 JUMP JUMPDEST PUSH1 0x20 DUP3 ADD SWAP1 POP SWAP2 SWAP1 POP JUMP JUMPDEST PUSH0 PUSH1 0x20 DUP3 ADD SWAP1 POP DUP2 DUP2 SUB PUSH0 DUP4 ADD MSTORE PUSH2 0x2B06 DUP2 PUSH2 0x2ACD JUMP JUMPDEST SWAP1 POP SWAP2 SWAP1 POP JUMP JUMPDEST PUSH32 0x64732D6D6174682D7375622D756E646572666C6F770000000000000000000000 PUSH0 DUP3 ADD MSTORE POP JUMP JUMPDEST PUSH0 PUSH2 0x2B41 PUSH1 0x15 DUP4 PUSH2 0x2027 JUMP JUMPDEST SWAP2 POP PUSH2 0x2B4C DUP3 PUSH2 0x2B0D JUMP JUMPDEST PUSH1 0x20 DUP3 ADD SWAP1 POP SWAP2 SWAP1 POP JUMP JUMPDEST PUSH0 PUSH1 0x20 DUP3 ADD SWAP1 POP DUP2 DUP2 SUB PUSH0 DUP4 ADD MSTORE PUSH2 0x2B6E DUP2 PUSH2 0x2B35 JUMP JUMPDEST SWAP1 POP SWAP2 SWAP1 POP JUMP JUMPDEST PUSH32 0x556E697377617056323A204F564552464C4F5700000000000000000000000000 PUSH0 DUP3 ADD MSTORE POP JUMP JUMPDEST PUSH0 PUSH2 0x2BA9 PUSH1 0x13 DUP4 PUSH2 0x2027 JUMP JUMPDEST SWAP2 POP PUSH2 0x2BB4 DUP3 PUSH2 0x2B75 JUMP JUMPDEST PUSH1 0x20 DUP3 ADD SWAP1 POP SWAP2 SWAP1 POP JUMP JUMPDEST PUSH0 PUSH1 0x20 DUP3 ADD SWAP1 POP DUP2 DUP2 SUB PUSH0 DUP4 ADD MSTORE PUSH2 0x2BD6 DUP2 PUSH2 0x2B9D JUMP JUMPDEST SWAP1 POP SWAP2 SWAP1 POP JUMP JUMPDEST PUSH0 PUSH2 0x2BE7 DUP3 PUSH2 0x1EAB JUMP JUMPDEST SWAP2 POP PUSH2 0x2BF2 DUP4 PUSH2 0x1EAB JUMP JUMPDEST SWAP3 POP DUP3 DUP3 ADD SWAP1 POP DUP1 DUP3 GT ISZERO PUSH2 0x2C0A JUMPI PUSH2 0x2C09 PUSH2 0x25AC JUMP JUMPDEST JUMPDEST SWAP3 SWAP2 POP POP JUMP JUMPDEST PUSH32 0x64732D6D6174682D6164642D6F766572666C6F77000000000000000000000000 PUSH0 DUP3 ADD MSTORE POP JUMP JUMPDEST PUSH0 PUSH2 0x2C44 PUSH1 0x14 DUP4 PUSH2 0x2027 JUMP JUMPDEST SWAP2 POP PUSH2 0x2C4F DUP3 PUSH2 0x2C10 JUMP JUMPDEST PUSH1 0x20 DUP3 ADD SWAP1 POP SWAP2 SWAP1 POP JUMP JUMPDEST PUSH0 PUSH1 0x20 DUP3 ADD SWAP1 POP DUP2 DUP2 SUB PUSH0 DUP4 ADD MSTORE PUSH2 0x2C71 DUP2 PUSH2 0x2C38 JUMP JUMPDEST SWAP1 POP SWAP2 SWAP1 POP JUMP INVALID LOG2 PUSH5 0x6970667358 0x22 SLT KECCAK256 0xB4 0xBC 0x24 0xF6 0x5E DUP11 CALLDATACOPY GASLIMIT POP 0xA5 PUSH0 0xE6 MSTORE8 0xDE DUP12 0xFB GAS DUP8 0x2A PUSH5 0x6ECC0A3979 DUP1 0xC8 DELEGATECALL CODESIZE CALLDATALOAD DUP15 0xB0 PUSH5 0x736F6C6343 STOP ADDMOD AND STOP CALLER "
				},
				"gasEstimates": {
					"creation": {
						"codeDepositCost": "2287600",
						"executionCost": "48818",
						"totalCost": "2336418"
					},
					"external": {
						"MINIMUM_LIQUIDITY()": "369",
						"allowance(address,address)": "infinite",
						"approve(address,uint256)": "infinite",
						"balanceOf(address)": "2847",
						"burn(address)": "infinite",
						"decimals()": "420",
						"factory()": "2574",
						"getReserves()": "infinite",
						"initialize(address,address)": "infinite",
						"mint(address)": "infinite",
						"name()": "infinite",
						"swap(uint256,uint256,address,bytes)": "infinite",
						"symbol()": "infinite",
						"token0()": "2531",
						"token1()": "2596",
						"totalSupply()": "2469",
						"transfer(address,uint256)": "infinite",
						"transferFrom(address,address,uint256)": "infinite"
					},
					"internal": {
						"_safeTransfer(address,address,uint256)": "infinite",
						"_update(uint256,uint256)": "infinite"
					}
				},
				"methodIdentifiers": {
					"MINIMUM_LIQUIDITY()": "ba9a7a56",
					"allowance(address,address)": "dd62ed3e",
					"approve(address,uint256)": "095ea7b3",
					"balanceOf(address)": "70a08231",
					"burn(address)": "89afcb44",
					"decimals()": "313ce567",
					"factory()": "c45a0155",
					"getReserves()": "0902f1ac",
					"initialize(address,address)": "485cc955",
					"mint(address)": "6a627842",
					"name()": "06fdde03",
					"swap(uint256,uint256,address,bytes)": "022c0d9f",
					"symbol()": "95d89b41",
					"token0()": "0dfe1681",
					"token1()": "d21220a7",
					"totalSupply()": "18160ddd",
					"transfer(address,uint256)": "a9059cbb",
					"transferFrom(address,address,uint256)": "23b872dd"
				}
			},
			"storageLayout": {
				"storage": [
					{
						"astId": 19,
						"contract": "Uniswap/contracts/UniswapV2Pair.sol:UniswapV2Pair",
						"label": "totalSupply",
						"offset": 0,
						"slot": "0",
						"type": "t_uint256"
					},
					{
						"astId": 23,
						"contract": "Uniswap/contracts/UniswapV2Pair.sol:UniswapV2Pair",
						"label": "balanceOf",
						"offset": 0,
						"slot": "1",
						"type": "t_mapping(t_address,t_uint256)"
					},
					{
						"astId": 29,
						"contract": "Uniswap/contracts/UniswapV2Pair.sol:UniswapV2Pair",
						"label": "allowance",
						"offset": 0,
						"slot": "2",
						"type": "t_mapping(t_address,t_mapping(t_address,t_uint256))"
					},
					{
						"astId": 288,
						"contract": "Uniswap/contracts/UniswapV2Pair.sol:UniswapV2Pair",
						"label": "factory",
						"offset": 0,
						"slot": "3",
						"type": "t_address"
					},
					{
						"astId": 290,
						"contract": "Uniswap/contracts/UniswapV2Pair.sol:UniswapV2Pair",
						"label": "token0",
						"offset": 0,
						"slot": "4",
						"type": "t_address"
					},
					{
						"astId": 292,
						"contract": "Uniswap/contracts/UniswapV2Pair.sol:UniswapV2Pair",
						"label": "token1",
						"offset": 0,
						"slot": "5",
						"type": "t_address"
					},
					{
						"astId": 294,
						"contract": "Uniswap/contracts/UniswapV2Pair.sol:UniswapV2Pair",
						"label": "reserve0",
						"offset": 0,
						"slot": "6",
						"type": "t_uint112"
					},
					{
						"astId": 296,
						"contract": "Uniswap/contracts/UniswapV2Pair.sol:UniswapV2Pair",
						"label": "reserve1",
						"offset": 14,
						"slot": "6",
						"type": "t_uint112"
					},
					{
						"astId": 299,
						"contract": "Uniswap/contracts/UniswapV2Pair.sol:UniswapV2Pair",
						"label": "unlocked",
						"offset": 0,
						"slot": "7",
						"type": "t_uint256"
					}
				],
				"types": {
					"t_address": {
						"encoding": "inplace",
						"label": "address",
						"numberOfBytes": "20"
					},
					"t_mapping(t_address,t_mapping(t_address,t_uint256))": {
						"encoding": "mapping",
						"key": "t_address",
						"label": "mapping(address => mapping(address => uint256))",
						"numberOfBytes": "32",
						"value": "t_mapping(t_address,t_uint256)"
					},
					"t_mapping(t_address,t_uint256)": {
						"encoding": "mapping",
						"key": "t_address",
						"label": "mapping(address => uint256)",
						"numberOfBytes": "32",
						"value": "t_uint256"
					},
					"t_uint112": {
						"encoding": "inplace",
						"label": "uint112",
						"numberOfBytes": "14"
					},
					"t_uint256": {
						"encoding": "inplace",
						"label": "uint256",
						"numberOfBytes": "32"
					}
				}
			},
			"userdoc": {
				"kind": "user",
				"methods": {},
				"version": 1
			}
		}
	}
}