{
  "_format": "hh-sol-artifact-1",
  "contractName": "MyERC20Token",
  "sourceName": "contracts/MyERC20Token.sol",
  "abi": [
    {
      "inputs": [
        {
          "internalType": "string",
          "name": "_name",
          "type": "string"
        },
        {
          "internalType": "string",
          "name": "_symbol",
          "type": "string"
        },
        {
          "internalType": "uint256",
          "name": "_decimals",
          "type": "uint256"
        },
        {
          "internalType": "uint256",
          "name": "_totalSupply",
          "type": "uint256"
        }
      ],
      "stateMutability": "nonpayable",
      "type": "constructor"
    },
    {
      "anonymous": false,
      "inputs": [
        {
          "indexed": true,
          "internalType": "address",
          "name": "_owner",
          "type": "address"
        },
        {
          "indexed": true,
          "internalType": "address",
          "name": "_spender",
          "type": "address"
        },
        {
          "indexed": false,
          "internalType": "uint256",
          "name": "_value",
          "type": "uint256"
        }
      ],
      "name": "Approval",
      "type": "event"
    },
    {
      "anonymous": false,
      "inputs": [
        {
          "indexed": true,
          "internalType": "address",
          "name": "_from",
          "type": "address"
        },
        {
          "indexed": true,
          "internalType": "address",
          "name": "_to",
          "type": "address"
        },
        {
          "indexed": false,
          "internalType": "uint256",
          "name": "_value",
          "type": "uint256"
        }
      ],
      "name": "Transfer",
      "type": "event"
    },
    {
      "inputs": [
        {
          "internalType": "address",
          "name": "",
          "type": "address"
        },
        {
          "internalType": "address",
          "name": "",
          "type": "address"
        }
      ],
      "name": "allowance",
      "outputs": [
        {
          "internalType": "uint256",
          "name": "",
          "type": "uint256"
        }
      ],
      "stateMutability": "view",
      "type": "function"
    },
    {
      "inputs": [
        {
          "internalType": "address",
          "name": "_spender",
          "type": "address"
        },
        {
          "internalType": "uint256",
          "name": "_value",
          "type": "uint256"
        }
      ],
      "name": "approve",
      "outputs": [
        {
          "internalType": "bool",
          "name": "success",
          "type": "bool"
        }
      ],
      "stateMutability": "nonpayable",
      "type": "function"
    },
    {
      "inputs": [
        {
          "internalType": "address",
          "name": "",
          "type": "address"
        }
      ],
      "name": "balance",
      "outputs": [
        {
          "internalType": "uint256",
          "name": "",
          "type": "uint256"
        }
      ],
      "stateMutability": "view",
      "type": "function"
    },
    {
      "inputs": [
        {
          "internalType": "address",
          "name": "_owner",
          "type": "address"
        }
      ],
      "name": "balanceOf",
      "outputs": [
        {
          "internalType": "uint256",
          "name": "",
          "type": "uint256"
        }
      ],
      "stateMutability": "view",
      "type": "function"
    },
    {
      "inputs": [],
      "name": "decimals",
      "outputs": [
        {
          "internalType": "uint256",
          "name": "",
          "type": "uint256"
        }
      ],
      "stateMutability": "view",
      "type": "function"
    },
    {
      "inputs": [],
      "name": "name",
      "outputs": [
        {
          "internalType": "string",
          "name": "",
          "type": "string"
        }
      ],
      "stateMutability": "view",
      "type": "function"
    },
    {
      "inputs": [],
      "name": "symbol",
      "outputs": [
        {
          "internalType": "string",
          "name": "",
          "type": "string"
        }
      ],
      "stateMutability": "view",
      "type": "function"
    },
    {
      "inputs": [],
      "name": "totalSupply",
      "outputs": [
        {
          "internalType": "uint256",
          "name": "",
          "type": "uint256"
        }
      ],
      "stateMutability": "view",
      "type": "function"
    },
    {
      "inputs": [
        {
          "internalType": "address",
          "name": "_to",
          "type": "address"
        },
        {
          "internalType": "uint256",
          "name": "_value",
          "type": "uint256"
        }
      ],
      "name": "transfer",
      "outputs": [
        {
          "internalType": "bool",
          "name": "success",
          "type": "bool"
        }
      ],
      "stateMutability": "nonpayable",
      "type": "function"
    },
    {
      "inputs": [
        {
          "internalType": "address",
          "name": "_from",
          "type": "address"
        },
        {
          "internalType": "address",
          "name": "_to",
          "type": "address"
        },
        {
          "internalType": "uint256",
          "name": "_value",
          "type": "uint256"
        }
      ],
      "name": "transferFrom",
      "outputs": [
        {
          "internalType": "bool",
          "name": "success",
          "type": "bool"
        }
      ],
      "stateMutability": "nonpayable",
      "type": "function"
    }
  ],
  "bytecode": "0x60c06040523480156200001157600080fd5b5060405162001c4a38038062001c4a8339818101604052810190620000379190620005fd565b8360009081620000489190620008ee565b5082600190816200005a9190620008ee565b5081608081815250508060a0818152505060a051600260003373ffffffffffffffffffffffffffffffffffffffff1673ffffffffffffffffffffffffffffffffffffffff16815260200190815260200160002081905550620002206040518060400160405280601a81526020017f4372656174696e6720636f6e747261637420257320257320256400000000000081525060008054620000fa90620006e7565b80601f01602080910402602001604051908101604052809291908181526020018280546200012890620006e7565b8015620001795780601f106200014d5761010080835404028352916020019162000179565b820191906000526020600020905b8154815290600101906020018083116200015b57829003601f168201915b5050505050600180546200018d90620006e7565b80601f0160208091040260200160405190810160405280929190818152602001828054620001bb90620006e7565b80156200020c5780601f10620001e0576101008083540402835291602001916200020c565b820191906000526020600020905b815481529060010190602001808311620001ee57829003601f168201915b50505050506080516200027360201b60201c565b620002696040518060400160405280600f81526020017f746f74616c20737570706c79202564000000000000000000000000000000000081525060a0516200031f60201b60201c565b5050505062000afd565b620003198484848460405160240162000290949392919062000a38565b6040516020818303038152906040527f8eafb02b000000000000000000000000000000000000000000000000000000007bffffffffffffffffffffffffffffffffffffffffffffffffffffffff19166020820180517bffffffffffffffffffffffffffffffffffffffffffffffffffffffff8381831617835250505050620003c560201b60201c565b50505050565b620003c182826040516024016200033892919062000a9a565b6040516020818303038152906040527fb60e72cc000000000000000000000000000000000000000000000000000000007bffffffffffffffffffffffffffffffffffffffffffffffffffffffff19166020820180517bffffffffffffffffffffffffffffffffffffffffffffffffffffffff8381831617835250505050620003c560201b60201c565b5050565b620003eb81620003e6620003ee60201b620009ba176200040f60201b60201c565b60201c565b50565b60006a636f6e736f6c652e6c6f679050600080835160208501845afa505050565b6200042360201b62000b4417819050919050565b6200042d62000ace565b565b6000604051905090565b600080fd5b600080fd5b600080fd5b600080fd5b6000601f19601f8301169050919050565b7f4e487b7100000000000000000000000000000000000000000000000000000000600052604160045260246000fd5b62000498826200044d565b810181811067ffffffffffffffff82111715620004ba57620004b96200045e565b5b80604052505050565b6000620004cf6200042f565b9050620004dd82826200048d565b919050565b600067ffffffffffffffff8211156200050057620004ff6200045e565b5b6200050b826200044d565b9050602081019050919050565b60005b83811015620005385780820151818401526020810190506200051b565b60008484015250505050565b60006200055b6200055584620004e2565b620004c3565b9050828152602081018484840111156200057a576200057962000448565b5b6200058784828562000518565b509392505050565b600082601f830112620005a757620005a662000443565b5b8151620005b984826020860162000544565b91505092915050565b6000819050919050565b620005d781620005c2565b8114620005e357600080fd5b50565b600081519050620005f781620005cc565b92915050565b600080600080608085870312156200061a576200061962000439565b5b600085015167ffffffffffffffff8111156200063b576200063a6200043e565b5b62000649878288016200058f565b945050602085015167ffffffffffffffff8111156200066d576200066c6200043e565b5b6200067b878288016200058f565b93505060406200068e87828801620005e6565b9250506060620006a187828801620005e6565b91505092959194509250565b600081519050919050565b7f4e487b7100000000000000000000000000000000000000000000000000000000600052602260045260246000fd5b600060028204905060018216806200070057607f821691505b602082108103620007165762000715620006b8565b5b50919050565b60008190508160005260206000209050919050565b60006020601f8301049050919050565b600082821b905092915050565b600060088302620007807fffffffffffffffffffffffffffffffffffffffffffffffffffffffffffffffff8262000741565b6200078c868362000741565b95508019841693508086168417925050509392505050565b6000819050919050565b6000620007cf620007c9620007c384620005c2565b620007a4565b620005c2565b9050919050565b6000819050919050565b620007eb83620007ae565b62000803620007fa82620007d6565b8484546200074e565b825550505050565b600090565b6200081a6200080b565b62000827818484620007e0565b505050565b5b818110156200084f576200084360008262000810565b6001810190506200082d565b5050565b601f8211156200089e5762000868816200071c565b620008738462000731565b8101602085101562000883578190505b6200089b620008928562000731565b8301826200082c565b50505b505050565b600082821c905092915050565b6000620008c360001984600802620008a3565b1980831691505092915050565b6000620008de8383620008b0565b9150826002028217905092915050565b620008f982620006ad565b67ffffffffffffffff8111156200091557620009146200045e565b5b620009218254620006e7565b6200092e82828562000853565b600060209050601f83116001811462000966576000841562000951578287015190505b6200095d8582620008d0565b865550620009cd565b601f19841662000976866200071c565b60005b82811015620009a05784890151825560018201915060208501945060208101905062000979565b86831015620009c05784890151620009bc601f891682620008b0565b8355505b6001600288020188555050505b505050505050565b600082825260208201905092915050565b6000620009f382620006ad565b620009ff8185620009d5565b935062000a1181856020860162000518565b62000a1c816200044d565b840191505092915050565b62000a3281620005c2565b82525050565b6000608082019050818103600083015262000a548187620009e6565b9050818103602083015262000a6a8186620009e6565b9050818103604083015262000a808185620009e6565b905062000a91606083018462000a27565b95945050505050565b6000604082019050818103600083015262000ab68185620009e6565b905062000ac7602083018462000a27565b9392505050565b7f4e487b7100000000000000000000000000000000000000000000000000000000600052605160045260246000fd5b60805160a05161112762000b2360003960006103e1015260006106f701526111276000f3fe608060405234801561001057600080fd5b506004361061009e5760003560e01c806370a082311161006657806370a082311461015d57806395d89b411461018d578063a9059cbb146101ab578063dd62ed3e146101db578063e3d670d71461020b5761009e565b806306fdde03146100a3578063095ea7b3146100c157806318160ddd146100f157806323b872dd1461010f578063313ce5671461013f575b600080fd5b6100ab61023b565b6040516100b89190610bde565b60405180910390f35b6100db60048036038101906100d69190610c99565b6102c9565b6040516100e89190610cf4565b60405180910390f35b6100f96103df565b6040516101069190610d1e565b60405180910390f35b61012960048036038101906101249190610d39565b610403565b6040516101369190610cf4565b60405180910390f35b6101476106f5565b6040516101549190610d1e565b60405180910390f35b61017760048036038101906101729190610d8c565b610719565b6040516101849190610d1e565b60405180910390f35b610195610762565b6040516101a29190610bde565b60405180910390f35b6101c560048036038101906101c09190610c99565b6107f0565b6040516101d29190610cf4565b60405180910390f35b6101f560048036038101906101f09190610db9565b61097d565b6040516102029190610d1e565b60405180910390f35b61022560048036038101906102209190610d8c565b6109a2565b6040516102329190610d1e565b60405180910390f35b6000805461024890610e28565b80601f016020809104026020016040519081016040528092919081815260200182805461027490610e28565b80156102c15780601f10610296576101008083540402835291602001916102c1565b820191906000526020600020905b8154815290600101906020018083116102a457829003601f168201915b505050505081565b60006102ef6040518060600160405280602f815260200161109f602f91398484336109db565b81600360003373ffffffffffffffffffffffffffffffffffffffff1673ffffffffffffffffffffffffffffffffffffffff16815260200190815260200160002060008573ffffffffffffffffffffffffffffffffffffffff1673ffffffffffffffffffffffffffffffffffffffff168152602001908152602001600020819055508273ffffffffffffffffffffffffffffffffffffffff163373ffffffffffffffffffffffffffffffffffffffff167f8c5be1e5ebec7d5bd14f71427d1e84f3dd0314c0f7b2291e5b200ac8c7c3b925846040516103cd9190610d1e565b60405180910390a36001905092915050565b7f000000000000000000000000000000000000000000000000000000000000000081565b600081600260008673ffffffffffffffffffffffffffffffffffffffff1673ffffffffffffffffffffffffffffffffffffffff168152602001908152602001600020541015610487576040517f08c379a000000000000000000000000000000000000000000000000000000000815260040161047e90610ea5565b60405180910390fd5b81600360008673ffffffffffffffffffffffffffffffffffffffff1673ffffffffffffffffffffffffffffffffffffffff16815260200190815260200160002060003373ffffffffffffffffffffffffffffffffffffffff1673ffffffffffffffffffffffffffffffffffffffff168152602001908152602001600020541015610546576040517f08c379a000000000000000000000000000000000000000000000000000000000815260040161053d90610f11565b60405180910390fd5b81600360008673ffffffffffffffffffffffffffffffffffffffff1673ffffffffffffffffffffffffffffffffffffffff16815260200190815260200160002060003373ffffffffffffffffffffffffffffffffffffffff1673ffffffffffffffffffffffffffffffffffffffff16815260200190815260200160002060008282546105d29190610f60565b9250508190555081600260008673ffffffffffffffffffffffffffffffffffffffff1673ffffffffffffffffffffffffffffffffffffffff16815260200190815260200160002060008282546106289190610f60565b9250508190555081600260008573ffffffffffffffffffffffffffffffffffffffff1673ffffffffffffffffffffffffffffffffffffffff168152602001908152602001600020600082825461067e9190610f94565b925050819055508273ffffffffffffffffffffffffffffffffffffffff168473ffffffffffffffffffffffffffffffffffffffff167fddf252ad1be2c89b69c2b068fc378daa952ba7f163c4a11628f55a4df523b3ef846040516106e29190610d1e565b60405180910390a3600190509392505050565b7f000000000000000000000000000000000000000000000000000000000000000081565b6000600260008373ffffffffffffffffffffffffffffffffffffffff1673ffffffffffffffffffffffffffffffffffffffff168152602001908152602001600020549050919050565b6001805461076f90610e28565b80601f016020809104026020016040519081016040528092919081815260200182805461079b90610e28565b80156107e85780601f106107bd576101008083540402835291602001916107e8565b820191906000526020600020905b8154815290600101906020018083116107cb57829003601f168201915b505050505081565b60006108166040518060600160405280602481526020016110ce60249139338585610a7d565b81600260003373ffffffffffffffffffffffffffffffffffffffff1673ffffffffffffffffffffffffffffffffffffffff16815260200190815260200160002054101561086257600080fd5b81600260003373ffffffffffffffffffffffffffffffffffffffff1673ffffffffffffffffffffffffffffffffffffffff16815260200190815260200160002060008282546108b19190610f60565b9250508190555081600260008573ffffffffffffffffffffffffffffffffffffffff1673ffffffffffffffffffffffffffffffffffffffff16815260200190815260200160002060008282546109079190610f94565b925050819055508273ffffffffffffffffffffffffffffffffffffffff163373ffffffffffffffffffffffffffffffffffffffff167fddf252ad1be2c89b69c2b068fc378daa952ba7f163c4a11628f55a4df523b3ef8460405161096b9190610d1e565b60405180910390a36001905092915050565b6003602052816000526040600020602052806000526040600020600091509150505481565b60026020528060005260406000206000915090505481565b60006a636f6e736f6c652e6c6f679050600080835160208501845afa505050565b610a77848484846040516024016109f59493929190610fd7565b6040516020818303038152906040527f63fb8bc5000000000000000000000000000000000000000000000000000000007bffffffffffffffffffffffffffffffffffffffffffffffffffffffff19166020820180517bffffffffffffffffffffffffffffffffffffffffffffffffffffffff8381831617835250505050610b1f565b50505050565b610b1984848484604051602401610a979493929190611023565b6040516020818303038152906040527f8ef3f399000000000000000000000000000000000000000000000000000000007bffffffffffffffffffffffffffffffffffffffffffffffffffffffff19166020820180517bffffffffffffffffffffffffffffffffffffffffffffffffffffffff8381831617835250505050610b1f565b50505050565b610b3681610b2e6109ba610b39565b63ffffffff16565b50565b610b44819050919050565b610b4c61106f565b565b600081519050919050565b600082825260208201905092915050565b60005b83811015610b88578082015181840152602081019050610b6d565b60008484015250505050565b6000601f19601f8301169050919050565b6000610bb082610b4e565b610bba8185610b59565b9350610bca818560208601610b6a565b610bd381610b94565b840191505092915050565b60006020820190508181036000830152610bf88184610ba5565b905092915050565b600080fd5b600073ffffffffffffffffffffffffffffffffffffffff82169050919050565b6000610c3082610c05565b9050919050565b610c4081610c25565b8114610c4b57600080fd5b50565b600081359050610c5d81610c37565b92915050565b6000819050919050565b610c7681610c63565b8114610c8157600080fd5b50565b600081359050610c9381610c6d565b92915050565b60008060408385031215610cb057610caf610c00565b5b6000610cbe85828601610c4e565b9250506020610ccf85828601610c84565b9150509250929050565b60008115159050919050565b610cee81610cd9565b82525050565b6000602082019050610d096000830184610ce5565b92915050565b610d1881610c63565b82525050565b6000602082019050610d336000830184610d0f565b92915050565b600080600060608486031215610d5257610d51610c00565b5b6000610d6086828701610c4e565b9350506020610d7186828701610c4e565b9250506040610d8286828701610c84565b9150509250925092565b600060208284031215610da257610da1610c00565b5b6000610db084828501610c4e565b91505092915050565b60008060408385031215610dd057610dcf610c00565b5b6000610dde85828601610c4e565b9250506020610def85828601610c4e565b9150509250929050565b7f4e487b7100000000000000000000000000000000000000000000000000000000600052602260045260246000fd5b60006002820490506001821680610e4057607f821691505b602082108103610e5357610e52610df9565b5b50919050565b7f6e6f7420656e6f7567682062616c616e63650000000000000000000000000000600082015250565b6000610e8f601283610b59565b9150610e9a82610e59565b602082019050919050565b60006020820190508181036000830152610ebe81610e82565b9050919050565b7f6e6f7420656e6f75676820616c6c6f77616e6365000000000000000000000000600082015250565b6000610efb601483610b59565b9150610f0682610ec5565b602082019050919050565b60006020820190508181036000830152610f2a81610eee565b9050919050565b7f4e487b7100000000000000000000000000000000000000000000000000000000600052601160045260246000fd5b6000610f6b82610c63565b9150610f7683610c63565b9250828203905081811115610f8e57610f8d610f31565b5b92915050565b6000610f9f82610c63565b9150610faa83610c63565b9250828201905080821115610fc257610fc1610f31565b5b92915050565b610fd181610c25565b82525050565b60006080820190508181036000830152610ff18187610ba5565b90506110006020830186610fc8565b61100d6040830185610d0f565b61101a6060830184610fc8565b95945050505050565b6000608082019050818103600083015261103d8187610ba5565b905061104c6020830186610fc8565b6110596040830185610fc8565b6110666060830184610d0f565b95945050505050565b7f4e487b7100000000000000000000000000000000000000000000000000000000600052605160045260246000fdfe417070726f76696e6720257320746f207370656e6420257320746f6b656e73206f6e20626568616c66206f662025735472616e7366657272696e672066726f6d20257320746f20257320257320746f6b656e73a26469706673582212207fcc3dea8f4d2bc68e7da18471139451b18f17bd115e33a98a5ed21974326cb664736f6c63430008140033",
  "linkReferences": {},
  "deployedLinkReferences": {}
}