{
	"data": {
		"bytecode": {
			"linkReferences": {},
			"object": "60a060405234801562000010575f80fd5b506040516200314b3803806200314b8339818101604052810190620000369190620000d6565b8073ffffffffffffffffffffffffffffffffffffffff1660808173ffffffffffffffffffffffffffffffffffffffff16815250505062000106565b5f80fd5b5f73ffffffffffffffffffffffffffffffffffffffff82169050919050565b5f620000a08262000075565b9050919050565b620000b28162000094565b8114620000bd575f80fd5b50565b5f81519050620000d081620000a7565b92915050565b5f60208284031215620000ee57620000ed62000071565b5b5f620000fd84828501620000c0565b91505092915050565b608051612fd16200017a5f395f818161028d0152818161030601528181610409015281816105540152818161064a01528181610796015281816109a6015281816109cf01528181610a60015281816111e10152818161123501528181611636015281816116eb015261178d0152612fd15ff3fe608060405234801561000f575f80fd5b506004361061009c575f3560e01c8063ad615dec11610064578063ad615dec14610190578063baa2abde146101c0578063c45a0155146101f1578063d06ca61f1461020f578063e8e337001461023f5761009c565b8063054d50d4146100a05780631f00ca74146100d057806338ed17391461010057806385f8c259146101305780638803dbee14610160575b5f80fd5b6100ba60048036038101906100b59190611b19565b610271565b6040516100c79190611b78565b60405180910390f35b6100ea60048036038101906100e59190611d3b565b610286565b6040516100f79190611e4c565b60405180910390f35b61011a60048036038101906101159190611ec5565b6102bb565b6040516101279190611e4c565b60405180910390f35b61014a60048036038101906101459190611b19565b6104f4565b6040516101579190611b78565b60405180910390f35b61017a60048036038101906101759190611ec5565b610509565b6040516101879190611e4c565b60405180910390f35b6101aa60048036038101906101a59190611b19565b610735565b6040516101b79190611b78565b60405180910390f35b6101da60048036038101906101d59190611f5b565b61074a565b6040516101e8929190611ff8565b60405180910390f35b6101f96109a4565b604051610206919061202e565b60405180910390f35b61022960048036038101906102249190611d3b565b6109c8565b6040516102369190611e4c565b60405180910390f35b61025960048036038101906102549190612047565b6109fd565b604051610268939291906120f8565b60405180910390f35b5f61027d848484610b2b565b90509392505050565b60606102b37f00000000000000000000000000000000000000000000000000000000000000008484610c2b565b905092915050565b60608142811015610301576040517f08c379a00000000000000000000000000000000000000000000000000000000081526004016102f890612187565b60405180910390fd5b61036c7f0000000000000000000000000000000000000000000000000000000000000000898888808060200260200160405190810160405280939291908181526020018383602002808284375f81840152601f19601f82011690508083019250505050505050610dc3565b915086826001845161037e91906121d2565b8151811061038f5761038e612205565b5b602002602001015110156103d8576040517f08c379a00000000000000000000000000000000000000000000000000000000081526004016103cf906122a2565b60405180910390fd5b61049e86865f8181106103ee576103ed612205565b5b905060200201602081019061040391906122c0565b3361047e7f00000000000000000000000000000000000000000000000000000000000000008a8a5f81811061043b5761043a612205565b5b905060200201602081019061045091906122c0565b8b8b600181811061046457610463612205565b5b905060200201602081019061047991906122c0565b610f45565b855f8151811061049157610490612205565b5b6020026020010151610fb4565b6104e9828787808060200260200160405190810160405280939291908181526020018383602002808284375f81840152601f19601f82011690508083019250505050505050866110e7565b509695505050505050565b5f61050084848461132c565b90509392505050565b6060814281101561054f576040517f08c379a000000000000000000000000000000000000000000000000000000000815260040161054690612187565b60405180910390fd5b6105ba7f0000000000000000000000000000000000000000000000000000000000000000898888808060200260200160405190810160405280939291908181526020018383602002808284375f81840152601f19601f82011690508083019250505050505050610c2b565b915086825f815181106105d0576105cf612205565b5b60200260200101511115610619576040517f08c379a00000000000000000000000000000000000000000000000000000000081526004016106109061235b565b60405180910390fd5b6106df86865f81811061062f5761062e612205565b5b905060200201602081019061064491906122c0565b336106bf7f00000000000000000000000000000000000000000000000000000000000000008a8a5f81811061067c5761067b612205565b5b905060200201602081019061069191906122c0565b8b8b60018181106106a5576106a4612205565b5b90506020020160208101906106ba91906122c0565b610f45565b855f815181106106d2576106d1612205565b5b6020026020010151610fb4565b61072a828787808060200260200160405190810160405280939291908181526020018383602002808284375f81840152601f19601f82011690508083019250505050505050866110e7565b509695505050505050565b5f61074184848461143a565b90509392505050565b5f808242811015610790576040517f08c379a000000000000000000000000000000000000000000000000000000000815260040161078790612187565b60405180910390fd5b5f6107bc7f00000000000000000000000000000000000000000000000000000000000000008c8c610f45565b90508073ffffffffffffffffffffffffffffffffffffffff166323b872dd33838c6040518463ffffffff1660e01b81526004016107fb93929190612379565b6020604051808303815f875af1158015610817573d5f803e3d5ffd5b505050506040513d601f19601f8201168201806040525081019061083b91906123e3565b505f808273ffffffffffffffffffffffffffffffffffffffff166389afcb44896040518263ffffffff1660e01b8152600401610877919061202e565b60408051808303815f875af1158015610892573d5f803e3d5ffd5b505050506040513d601f19601f820116820180604052508101906108b69190612422565b915091505f6108c58e8e6114f1565b5090508073ffffffffffffffffffffffffffffffffffffffff168e73ffffffffffffffffffffffffffffffffffffffff1614610902578183610905565b82825b80975081985050508a871015610950576040517f08c379a0000000000000000000000000000000000000000000000000000000008152600401610947906124d0565b60405180910390fd5b89861015610993576040517f08c379a000000000000000000000000000000000000000000000000000000000815260040161098a9061255e565b60405180910390fd5b505050505097509795505050505050565b7f000000000000000000000000000000000000000000000000000000000000000081565b60606109f57f00000000000000000000000000000000000000000000000000000000000000008484610dc3565b905092915050565b5f805f8342811015610a44576040517f08c379a0000000000000000000000000000000000000000000000000000000008152600401610a3b90612187565b60405180910390fd5b610a528c8c8c8c8c8c61161b565b80945081955050505f610a867f00000000000000000000000000000000000000000000000000000000000000008e8e610f45565b9050610a948d338388610fb4565b610aa08c338387610fb4565b8073ffffffffffffffffffffffffffffffffffffffff16636a627842886040518263ffffffff1660e01b8152600401610ad9919061202e565b6020604051808303815f875af1158015610af5573d5f803e3d5ffd5b505050506040513d601f19601f82011682018060405250810190610b19919061257c565b92505050985098509895505050505050565b5f808411610b6e576040517f08c379a0000000000000000000000000000000000000000000000000000000008152600401610b6590612617565b60405180910390fd5b5f83118015610b7c57505f82115b610bbb576040517f08c379a0000000000000000000000000000000000000000000000000000000008152600401610bb2906126a5565b60405180910390fd5b5f610bd16103e5866118bd90919063ffffffff16565b90505f610be784836118bd90919063ffffffff16565b90505f610c1183610c036103e8896118bd90919063ffffffff16565b61192990919063ffffffff16565b90508082610c1f91906126f0565b93505050509392505050565b6060600282511015610c72576040517f08c379a0000000000000000000000000000000000000000000000000000000008152600401610c699061276a565b60405180910390fd5b815167ffffffffffffffff811115610c8d57610c8c611ba5565b5b604051908082528060200260200182016040528015610cbb5781602001602082028036833780820191505090505b509050828160018351610cce91906121d2565b81518110610cdf57610cde612205565b5b6020026020010181815250505f60018351610cfa91906121d2565b90505b5f811115610dbb575f80610d528786600186610d1991906121d2565b81518110610d2a57610d29612205565b5b6020026020010151878681518110610d4557610d44612205565b5b6020026020010151611981565b91509150610d7b848481518110610d6c57610d6b612205565b5b6020026020010151838361132c565b84600185610d8991906121d2565b81518110610d9a57610d99612205565b5b60200260200101818152505050508080610db390612788565b915050610cfd565b509392505050565b6060600282511015610e0a576040517f08c379a0000000000000000000000000000000000000000000000000000000008152600401610e019061276a565b60405180910390fd5b815167ffffffffffffffff811115610e2557610e24611ba5565b5b604051908082528060200260200182016040528015610e535781602001602082028036833780820191505090505b50905082815f81518110610e6a57610e69612205565b5b6020026020010181815250505f5b60018351610e8691906121d2565b811015610f3d575f80610eda87868581518110610ea657610ea5612205565b5b602002602001015187600187610ebc91906127af565b81518110610ecd57610ecc612205565b5b6020026020010151611981565b91509150610f03848481518110610ef457610ef3612205565b5b60200260200101518383610b2b565b84600185610f1191906127af565b81518110610f2257610f21612205565b5b60200260200101818152505050508080600101915050610e78565b509392505050565b5f805f610f5285856114f1565b91509150858282604051602001610f6a929190612827565b60405160208183030381529060405280519060200120604051602001610f91929190612919565b604051602081830303815290604052805190602001205f1c925050509392505050565b5f808573ffffffffffffffffffffffffffffffffffffffff166323b872dd868686604051602401610fe793929190612379565b6040516020818303038152906040529060e01b6020820180517bffffffffffffffffffffffffffffffffffffffffffffffffffffffff838183161783525050505060405161103591906129c6565b5f604051808303815f865af19150503d805f811461106e576040519150601f19603f3d011682016040523d82523d5f602084013e611073565b606091505b50915091508180156110a057505f8151148061109f57508080602001905181019061109e91906123e3565b5b5b6110df576040517f08c379a00000000000000000000000000000000000000000000000000000000081526004016110d690612a4c565b60405180910390fd5b505050505050565b5f5b600183516110f791906121d2565b811015611326575f8084838151811061111357611112612205565b5b60200260200101518560018561112991906127af565b8151811061113a57611139612205565b5b6020026020010151915091505f61115183836114f1565b5090505f8760018661116391906127af565b8151811061117457611173612205565b5b602002602001015190505f808373ffffffffffffffffffffffffffffffffffffffff168673ffffffffffffffffffffffffffffffffffffffff16146111ba57825f6111bd565b5f835b915091505f60028a516111d091906121d2565b88106111dc578861122e565b61122d7f0000000000000000000000000000000000000000000000000000000000000000878c60028c61120f91906127af565b815181106112205761121f612205565b5b6020026020010151610f45565b5b905061125b7f00000000000000000000000000000000000000000000000000000000000000008888610f45565b73ffffffffffffffffffffffffffffffffffffffff1663022c0d9f8484845f67ffffffffffffffff81111561129357611292611ba5565b5b6040519080825280601f01601f1916602001820160405280156112c55781602001600182028036833780820191505090505b506040518563ffffffff1660e01b81526004016112e59493929190612ab2565b5f604051808303815f87803b1580156112fc575f80fd5b505af115801561130e573d5f803e3d5ffd5b505050505050505050505080806001019150506110e9565b50505050565b5f80841161136f576040517f08c379a000000000000000000000000000000000000000000000000000000000815260040161136690612b6c565b60405180910390fd5b5f8311801561137d57505f82115b6113bc576040517f08c379a00000000000000000000000000000000000000000000000000000000081526004016113b3906126a5565b60405180910390fd5b5f6113e46103e86113d687876118bd90919063ffffffff16565b6118bd90919063ffffffff16565b90505f61140e6103e56114008887611a7d90919063ffffffff16565b6118bd90919063ffffffff16565b905061142f6001828461142191906126f0565b61192990919063ffffffff16565b925050509392505050565b5f80841161147d576040517f08c379a000000000000000000000000000000000000000000000000000000000815260040161147490612bfa565b60405180910390fd5b5f8311801561148b57505f82115b6114ca576040517f08c379a00000000000000000000000000000000000000000000000000000000081526004016114c1906126a5565b60405180910390fd5b826114de83866118bd90919063ffffffff16565b6114e891906126f0565b90509392505050565b5f808273ffffffffffffffffffffffffffffffffffffffff168473ffffffffffffffffffffffffffffffffffffffff1603611561576040517f08c379a000000000000000000000000000000000000000000000000000000000815260040161155890612c88565b60405180910390fd5b8273ffffffffffffffffffffffffffffffffffffffff168473ffffffffffffffffffffffffffffffffffffffff161061159b57828461159e565b83835b80925081935050505f73ffffffffffffffffffffffffffffffffffffffff168273ffffffffffffffffffffffffffffffffffffffff1603611614576040517f08c379a000000000000000000000000000000000000000000000000000000000815260040161160b90612cf0565b60405180910390fd5b9250929050565b5f805f73ffffffffffffffffffffffffffffffffffffffff167f000000000000000000000000000000000000000000000000000000000000000073ffffffffffffffffffffffffffffffffffffffff1663e6a439058a8a6040518363ffffffff1660e01b815260040161168f929190612d0e565b602060405180830381865afa1580156116aa573d5f803e3d5ffd5b505050506040513d601f19601f820116820180604052508101906116ce9190612d49565b73ffffffffffffffffffffffffffffffffffffffff1603611786577f000000000000000000000000000000000000000000000000000000000000000073ffffffffffffffffffffffffffffffffffffffff1663c9c6539689896040518363ffffffff1660e01b8152600401611744929190612d0e565b6020604051808303815f875af1158015611760573d5f803e3d5ffd5b505050506040513d601f19601f820116820180604052508101906117849190612d49565b505b5f806117b37f00000000000000000000000000000000000000000000000000000000000000008b8b611981565b915091505f821480156117c557505f81145b156117d957878780945081955050506118b0565b5f6117e589848461143a565b90508781116118405785811015611831576040517f08c379a00000000000000000000000000000000000000000000000000000000081526004016118289061255e565b60405180910390fd5b888180955081965050506118ae565b5f61184c89848661143a565b90508981111561185f5761185e612d74565b5b878110156118a2576040517f08c379a0000000000000000000000000000000000000000000000000000000008152600401611899906124d0565b60405180910390fd5b80898096508197505050505b505b5050965096945050505050565b5f808214806118e45750828283856118d59190612da1565b9250826118e291906126f0565b145b611923576040517f08c379a000000000000000000000000000000000000000000000000000000000815260040161191a90612e2c565b60405180910390fd5b92915050565b5f82828461193791906127af565b915081101561197b576040517f08c379a000000000000000000000000000000000000000000000000000000000815260040161197290612e94565b60405180910390fd5b92915050565b5f805f61198e85856114f1565b5090505f8061199e888888610f45565b73ffffffffffffffffffffffffffffffffffffffff16630902f1ac6040518163ffffffff1660e01b81526004016040805180830381865afa1580156119e5573d5f803e3d5ffd5b505050506040513d601f19601f82011682018060405250810190611a099190612ef5565b6dffffffffffffffffffffffffffff1691506dffffffffffffffffffffffffffff1691508273ffffffffffffffffffffffffffffffffffffffff168773ffffffffffffffffffffffffffffffffffffffff1614611a67578082611a6a565b81815b8095508196505050505050935093915050565b5f828284611a8b91906121d2565b9150811115611acf576040517f08c379a0000000000000000000000000000000000000000000000000000000008152600401611ac690612f7d565b60405180910390fd5b92915050565b5f604051905090565b5f80fd5b5f80fd5b5f819050919050565b611af881611ae6565b8114611b02575f80fd5b50565b5f81359050611b1381611aef565b92915050565b5f805f60608486031215611b3057611b2f611ade565b5b5f611b3d86828701611b05565b9350506020611b4e86828701611b05565b9250506040611b5f86828701611b05565b9150509250925092565b611b7281611ae6565b82525050565b5f602082019050611b8b5f830184611b69565b92915050565b5f80fd5b5f601f19601f8301169050919050565b7f4e487b71000000000000000000000000000000000000000000000000000000005f52604160045260245ffd5b611bdb82611b95565b810181811067ffffffffffffffff82111715611bfa57611bf9611ba5565b5b80604052505050565b5f611c0c611ad5565b9050611c188282611bd2565b919050565b5f67ffffffffffffffff821115611c3757611c36611ba5565b5b602082029050602081019050919050565b5f80fd5b5f73ffffffffffffffffffffffffffffffffffffffff82169050919050565b5f611c7582611c4c565b9050919050565b611c8581611c6b565b8114611c8f575f80fd5b50565b5f81359050611ca081611c7c565b92915050565b5f611cb8611cb384611c1d565b611c03565b90508083825260208201905060208402830185811115611cdb57611cda611c48565b5b835b81811015611d045780611cf08882611c92565b845260208401935050602081019050611cdd565b5050509392505050565b5f82601f830112611d2257611d21611b91565b5b8135611d32848260208601611ca6565b91505092915050565b5f8060408385031215611d5157611d50611ade565b5b5f611d5e85828601611b05565b925050602083013567ffffffffffffffff811115611d7f57611d7e611ae2565b5b611d8b85828601611d0e565b9150509250929050565b5f81519050919050565b5f82825260208201905092915050565b5f819050602082019050919050565b611dc781611ae6565b82525050565b5f611dd88383611dbe565b60208301905092915050565b5f602082019050919050565b5f611dfa82611d95565b611e048185611d9f565b9350611e0f83611daf565b805f5b83811015611e3f578151611e268882611dcd565b9750611e3183611de4565b925050600181019050611e12565b5085935050505092915050565b5f6020820190508181035f830152611e648184611df0565b905092915050565b5f80fd5b5f8083601f840112611e8557611e84611b91565b5b8235905067ffffffffffffffff811115611ea257611ea1611e6c565b5b602083019150836020820283011115611ebe57611ebd611c48565b5b9250929050565b5f805f805f8060a08789031215611edf57611ede611ade565b5b5f611eec89828a01611b05565b9650506020611efd89828a01611b05565b955050604087013567ffffffffffffffff811115611f1e57611f1d611ae2565b5b611f2a89828a01611e70565b94509450506060611f3d89828a01611c92565b9250506080611f4e89828a01611b05565b9150509295509295509295565b5f805f805f805f60e0888a031215611f7657611f75611ade565b5b5f611f838a828b01611c92565b9750506020611f948a828b01611c92565b9650506040611fa58a828b01611b05565b9550506060611fb68a828b01611b05565b9450506080611fc78a828b01611b05565b93505060a0611fd88a828b01611c92565b92505060c0611fe98a828b01611b05565b91505092959891949750929550565b5f60408201905061200b5f830185611b69565b6120186020830184611b69565b9392505050565b61202881611c6b565b82525050565b5f6020820190506120415f83018461201f565b92915050565b5f805f805f805f80610100898b03121561206457612063611ade565b5b5f6120718b828c01611c92565b98505060206120828b828c01611c92565b97505060406120938b828c01611b05565b96505060606120a48b828c01611b05565b95505060806120b58b828c01611b05565b94505060a06120c68b828c01611b05565b93505060c06120d78b828c01611c92565b92505060e06120e88b828c01611b05565b9150509295985092959890939650565b5f60608201905061210b5f830186611b69565b6121186020830185611b69565b6121256040830184611b69565b949350505050565b5f82825260208201905092915050565b7f556e69737761705632526f757465723a204558504952454400000000000000005f82015250565b5f61217160188361212d565b915061217c8261213d565b602082019050919050565b5f6020820190508181035f83015261219e81612165565b9050919050565b7f4e487b71000000000000000000000000000000000000000000000000000000005f52601160045260245ffd5b5f6121dc82611ae6565b91506121e783611ae6565b92508282039050818111156121ff576121fe6121a5565b5b92915050565b7f4e487b71000000000000000000000000000000000000000000000000000000005f52603260045260245ffd5b7f556e69737761705632526f757465723a20494e53554646494349454e545f4f555f8201527f545055545f414d4f554e54000000000000000000000000000000000000000000602082015250565b5f61228c602b8361212d565b915061229782612232565b604082019050919050565b5f6020820190508181035f8301526122b981612280565b9050919050565b5f602082840312156122d5576122d4611ade565b5b5f6122e284828501611c92565b91505092915050565b7f556e69737761705632526f757465723a204558434553534956455f494e5055545f8201527f5f414d4f554e5400000000000000000000000000000000000000000000000000602082015250565b5f61234560278361212d565b9150612350826122eb565b604082019050919050565b5f6020820190508181035f83015261237281612339565b9050919050565b5f60608201905061238c5f83018661201f565b612399602083018561201f565b6123a66040830184611b69565b949350505050565b5f8115159050919050565b6123c2816123ae565b81146123cc575f80fd5b50565b5f815190506123dd816123b9565b92915050565b5f602082840312156123f8576123f7611ade565b5b5f612405848285016123cf565b91505092915050565b5f8151905061241c81611aef565b92915050565b5f806040838503121561243857612437611ade565b5b5f6124458582860161240e565b92505060206124568582860161240e565b9150509250929050565b7f556e69737761705632526f757465723a20494e53554646494349454e545f415f5f8201527f414d4f554e540000000000000000000000000000000000000000000000000000602082015250565b5f6124ba60268361212d565b91506124c582612460565b604082019050919050565b5f6020820190508181035f8301526124e7816124ae565b9050919050565b7f556e69737761705632526f757465723a20494e53554646494349454e545f425f5f8201527f414d4f554e540000000000000000000000000000000000000000000000000000602082015250565b5f61254860268361212d565b9150612553826124ee565b604082019050919050565b5f6020820190508181035f8301526125758161253c565b9050919050565b5f6020828403121561259157612590611ade565b5b5f61259e8482850161240e565b91505092915050565b7f556e697377617056324c6962726172793a20494e53554646494349454e545f495f8201527f4e5055545f414d4f554e54000000000000000000000000000000000000000000602082015250565b5f612601602b8361212d565b915061260c826125a7565b604082019050919050565b5f6020820190508181035f83015261262e816125f5565b9050919050565b7f556e697377617056324c6962726172793a20494e53554646494349454e545f4c5f8201527f4951554944495459000000000000000000000000000000000000000000000000602082015250565b5f61268f60288361212d565b915061269a82612635565b604082019050919050565b5f6020820190508181035f8301526126bc81612683565b9050919050565b7f4e487b71000000000000000000000000000000000000000000000000000000005f52601260045260245ffd5b5f6126fa82611ae6565b915061270583611ae6565b925082612715576127146126c3565b5b828204905092915050565b7f556e697377617056324c6962726172793a20494e56414c49445f5041544800005f82015250565b5f612754601e8361212d565b915061275f82612720565b602082019050919050565b5f6020820190508181035f83015261278181612748565b9050919050565b5f61279282611ae6565b91505f82036127a4576127a36121a5565b5b600182039050919050565b5f6127b982611ae6565b91506127c483611ae6565b92508282019050808211156127dc576127db6121a5565b5b92915050565b5f8160601b9050919050565b5f6127f8826127e2565b9050919050565b5f612809826127ee565b9050919050565b61282161281c82611c6b565b6127ff565b82525050565b5f6128328285612810565b6014820191506128428284612810565b6014820191508190509392505050565b5f81905092915050565b7fff000000000000000000000000000000000000000000000000000000000000005f82015250565b5f612890600183612852565b915061289b8261285c565b600182019050919050565b5f819050919050565b5f819050919050565b6128c96128c4826128a6565b6128af565b82525050565b7f96e8ac4277198ff8b6f785478aa9a39f403cb768dd02cbee326c3e7da348845f5f82015250565b5f612903602083612852565b915061290e826128cf565b602082019050919050565b5f61292382612884565b915061292f8285612810565b60148201915061293f82846128b8565b60208201915061294e826128f7565b91508190509392505050565b5f81519050919050565b5f81905092915050565b5f5b8381101561298b578082015181840152602081019050612970565b5f8484015250505050565b5f6129a08261295a565b6129aa8185612964565b93506129ba81856020860161296e565b80840191505092915050565b5f6129d18284612996565b915081905092915050565b7f5472616e7366657248656c7065723a3a7472616e7366657246726f6d3a2074725f8201527f616e7366657246726f6d206661696c6564000000000000000000000000000000602082015250565b5f612a3660318361212d565b9150612a41826129dc565b604082019050919050565b5f6020820190508181035f830152612a6381612a2a565b9050919050565b5f82825260208201905092915050565b5f612a848261295a565b612a8e8185612a6a565b9350612a9e81856020860161296e565b612aa781611b95565b840191505092915050565b5f608082019050612ac55f830187611b69565b612ad26020830186611b69565b612adf604083018561201f565b8181036060830152612af18184612a7a565b905095945050505050565b7f556e697377617056324c6962726172793a20494e53554646494349454e545f4f5f8201527f55545055545f414d4f554e540000000000000000000000000000000000000000602082015250565b5f612b56602c8361212d565b9150612b6182612afc565b604082019050919050565b5f6020820190508181035f830152612b8381612b4a565b9050919050565b7f556e697377617056324c6962726172793a20494e53554646494349454e545f415f8201527f4d4f554e54000000000000000000000000000000000000000000000000000000602082015250565b5f612be460258361212d565b9150612bef82612b8a565b604082019050919050565b5f6020820190508181035f830152612c1181612bd8565b9050919050565b7f556e697377617056324c6962726172793a204944454e544943414c5f414444525f8201527f4553534553000000000000000000000000000000000000000000000000000000602082015250565b5f612c7260258361212d565b9150612c7d82612c18565b604082019050919050565b5f6020820190508181035f830152612c9f81612c66565b9050919050565b7f556e697377617056324c6962726172793a205a45524f5f4144445245535300005f82015250565b5f612cda601e8361212d565b9150612ce582612ca6565b602082019050919050565b5f6020820190508181035f830152612d0781612cce565b9050919050565b5f604082019050612d215f83018561201f565b612d2e602083018461201f565b9392505050565b5f81519050612d4381611c7c565b92915050565b5f60208284031215612d5e57612d5d611ade565b5b5f612d6b84828501612d35565b91505092915050565b7f4e487b71000000000000000000000000000000000000000000000000000000005f52600160045260245ffd5b5f612dab82611ae6565b9150612db683611ae6565b9250828202612dc481611ae6565b91508282048414831517612ddb57612dda6121a5565b5b5092915050565b7f64732d6d6174682d6d756c2d6f766572666c6f770000000000000000000000005f82015250565b5f612e1660148361212d565b9150612e2182612de2565b602082019050919050565b5f6020820190508181035f830152612e4381612e0a565b9050919050565b7f64732d6d6174682d6164642d6f766572666c6f770000000000000000000000005f82015250565b5f612e7e60148361212d565b9150612e8982612e4a565b602082019050919050565b5f6020820190508181035f830152612eab81612e72565b9050919050565b5f6dffffffffffffffffffffffffffff82169050919050565b612ed481612eb2565b8114612ede575f80fd5b50565b5f81519050612eef81612ecb565b92915050565b5f8060408385031215612f0b57612f0a611ade565b5b5f612f1885828601612ee1565b9250506020612f2985828601612ee1565b9150509250929050565b7f64732d6d6174682d7375622d756e646572666c6f7700000000000000000000005f82015250565b5f612f6760158361212d565b9150612f7282612f33565b602082019050919050565b5f6020820190508181035f830152612f9481612f5b565b905091905056fea2646970667358221220f0790f72bd2336fddf81b657e0b932d3aa7915c4d1371055bad01bb60df8703f64736f6c63430008160033",
			"opcodes": "PUSH1 0xA0 PUSH1 0x40 MSTORE CALLVALUE DUP1 ISZERO PUSH3 0x10 JUMPI PUSH0 DUP1 REVERT JUMPDEST POP PUSH1 0x40 MLOAD PUSH3 0x314B CODESIZE SUB DUP1 PUSH3 0x314B DUP4 CODECOPY DUP2 DUP2 ADD PUSH1 0x40 MSTORE DUP2 ADD SWAP1 PUSH3 0x36 SWAP2 SWAP1 PUSH3 0xD6 JUMP JUMPDEST DUP1 PUSH20 0xFFFFFFFFFFFFFFFFFFFFFFFFFFFFFFFFFFFFFFFF AND PUSH1 0x80 DUP2 PUSH20 0xFFFFFFFFFFFFFFFFFFFFFFFFFFFFFFFFFFFFFFFF AND DUP2 MSTORE POP POP POP PUSH3 0x106 JUMP JUMPDEST PUSH0 DUP1 REVERT JUMPDEST PUSH0 PUSH20 0xFFFFFFFFFFFFFFFFFFFFFFFFFFFFFFFFFFFFFFFF DUP3 AND SWAP1 POP SWAP2 SWAP1 POP JUMP JUMPDEST PUSH0 PUSH3 0xA0 DUP3 PUSH3 0x75 JUMP JUMPDEST SWAP1 POP SWAP2 SWAP1 POP JUMP JUMPDEST PUSH3 0xB2 DUP2 PUSH3 0x94 JUMP JUMPDEST DUP2 EQ PUSH3 0xBD JUMPI PUSH0 DUP1 REVERT JUMPDEST POP JUMP JUMPDEST PUSH0 DUP2 MLOAD SWAP1 POP PUSH3 0xD0 DUP2 PUSH3 0xA7 JUMP JUMPDEST SWAP3 SWAP2 POP POP JUMP JUMPDEST PUSH0 PUSH1 0x20 DUP3 DUP5 SUB SLT ISZERO PUSH3 0xEE JUMPI PUSH3 0xED PUSH3 0x71 JUMP JUMPDEST JUMPDEST PUSH0 PUSH3 0xFD DUP5 DUP3 DUP6 ADD PUSH3 0xC0 JUMP JUMPDEST SWAP2 POP POP SWAP3 SWAP2 POP POP JUMP JUMPDEST PUSH1 0x80 MLOAD PUSH2 0x2FD1 PUSH3 0x17A PUSH0 CODECOPY PUSH0 DUP2 DUP2 PUSH2 0x28D ADD MSTORE DUP2 DUP2 PUSH2 0x306 ADD MSTORE DUP2 DUP2 PUSH2 0x409 ADD MSTORE DUP2 DUP2 PUSH2 0x554 ADD MSTORE DUP2 DUP2 PUSH2 0x64A ADD MSTORE DUP2 DUP2 PUSH2 0x796 ADD MSTORE DUP2 DUP2 PUSH2 0x9A6 ADD MSTORE DUP2 DUP2 PUSH2 0x9CF ADD MSTORE DUP2 DUP2 PUSH2 0xA60 ADD MSTORE DUP2 DUP2 PUSH2 0x11E1 ADD MSTORE DUP2 DUP2 PUSH2 0x1235 ADD MSTORE DUP2 DUP2 PUSH2 0x1636 ADD MSTORE DUP2 DUP2 PUSH2 0x16EB ADD MSTORE PUSH2 0x178D ADD MSTORE PUSH2 0x2FD1 PUSH0 RETURN INVALID PUSH1 0x80 PUSH1 0x40 MSTORE CALLVALUE DUP1 ISZERO PUSH2 0xF JUMPI PUSH0 DUP1 REVERT JUMPDEST POP PUSH1 0x4 CALLDATASIZE LT PUSH2 0x9C JUMPI PUSH0 CALLDATALOAD PUSH1 0xE0 SHR DUP1 PUSH4 0xAD615DEC GT PUSH2 0x64 JUMPI DUP1 PUSH4 0xAD615DEC EQ PUSH2 0x190 JUMPI DUP1 PUSH4 0xBAA2ABDE EQ PUSH2 0x1C0 JUMPI DUP1 PUSH4 0xC45A0155 EQ PUSH2 0x1F1 JUMPI DUP1 PUSH4 0xD06CA61F EQ PUSH2 0x20F JUMPI DUP1 PUSH4 0xE8E33700 EQ PUSH2 0x23F JUMPI PUSH2 0x9C JUMP JUMPDEST DUP1 PUSH4 0x54D50D4 EQ PUSH2 0xA0 JUMPI DUP1 PUSH4 0x1F00CA74 EQ PUSH2 0xD0 JUMPI DUP1 PUSH4 0x38ED1739 EQ PUSH2 0x100 JUMPI DUP1 PUSH4 0x85F8C259 EQ PUSH2 0x130 JUMPI DUP1 PUSH4 0x8803DBEE EQ PUSH2 0x160 JUMPI JUMPDEST PUSH0 DUP1 REVERT JUMPDEST PUSH2 0xBA PUSH1 0x4 DUP1 CALLDATASIZE SUB DUP2 ADD SWAP1 PUSH2 0xB5 SWAP2 SWAP1 PUSH2 0x1B19 JUMP JUMPDEST PUSH2 0x271 JUMP JUMPDEST PUSH1 0x40 MLOAD PUSH2 0xC7 SWAP2 SWAP1 PUSH2 0x1B78 JUMP JUMPDEST PUSH1 0x40 MLOAD DUP1 SWAP2 SUB SWAP1 RETURN JUMPDEST PUSH2 0xEA PUSH1 0x4 DUP1 CALLDATASIZE SUB DUP2 ADD SWAP1 PUSH2 0xE5 SWAP2 SWAP1 PUSH2 0x1D3B JUMP JUMPDEST PUSH2 0x286 JUMP JUMPDEST PUSH1 0x40 MLOAD PUSH2 0xF7 SWAP2 SWAP1 PUSH2 0x1E4C JUMP JUMPDEST PUSH1 0x40 MLOAD DUP1 SWAP2 SUB SWAP1 RETURN JUMPDEST PUSH2 0x11A PUSH1 0x4 DUP1 CALLDATASIZE SUB DUP2 ADD SWAP1 PUSH2 0x115 SWAP2 SWAP1 PUSH2 0x1EC5 JUMP JUMPDEST PUSH2 0x2BB JUMP JUMPDEST PUSH1 0x40 MLOAD PUSH2 0x127 SWAP2 SWAP1 PUSH2 0x1E4C JUMP JUMPDEST PUSH1 0x40 MLOAD DUP1 SWAP2 SUB SWAP1 RETURN JUMPDEST PUSH2 0x14A PUSH1 0x4 DUP1 CALLDATASIZE SUB DUP2 ADD SWAP1 PUSH2 0x145 SWAP2 SWAP1 PUSH2 0x1B19 JUMP JUMPDEST PUSH2 0x4F4 JUMP JUMPDEST PUSH1 0x40 MLOAD PUSH2 0x157 SWAP2 SWAP1 PUSH2 0x1B78 JUMP JUMPDEST PUSH1 0x40 MLOAD DUP1 SWAP2 SUB SWAP1 RETURN JUMPDEST PUSH2 0x17A PUSH1 0x4 DUP1 CALLDATASIZE SUB DUP2 ADD SWAP1 PUSH2 0x175 SWAP2 SWAP1 PUSH2 0x1EC5 JUMP JUMPDEST PUSH2 0x509 JUMP JUMPDEST PUSH1 0x40 MLOAD PUSH2 0x187 SWAP2 SWAP1 PUSH2 0x1E4C JUMP JUMPDEST PUSH1 0x40 MLOAD DUP1 SWAP2 SUB SWAP1 RETURN JUMPDEST PUSH2 0x1AA PUSH1 0x4 DUP1 CALLDATASIZE SUB DUP2 ADD SWAP1 PUSH2 0x1A5 SWAP2 SWAP1 PUSH2 0x1B19 JUMP JUMPDEST PUSH2 0x735 JUMP JUMPDEST PUSH1 0x40 MLOAD PUSH2 0x1B7 SWAP2 SWAP1 PUSH2 0x1B78 JUMP JUMPDEST PUSH1 0x40 MLOAD DUP1 SWAP2 SUB SWAP1 RETURN JUMPDEST PUSH2 0x1DA PUSH1 0x4 DUP1 CALLDATASIZE SUB DUP2 ADD SWAP1 PUSH2 0x1D5 SWAP2 SWAP1 PUSH2 0x1F5B JUMP JUMPDEST PUSH2 0x74A JUMP JUMPDEST PUSH1 0x40 MLOAD PUSH2 0x1E8 SWAP3 SWAP2 SWAP1 PUSH2 0x1FF8 JUMP JUMPDEST PUSH1 0x40 MLOAD DUP1 SWAP2 SUB SWAP1 RETURN JUMPDEST PUSH2 0x1F9 PUSH2 0x9A4 JUMP JUMPDEST PUSH1 0x40 MLOAD PUSH2 0x206 SWAP2 SWAP1 PUSH2 0x202E JUMP JUMPDEST PUSH1 0x40 MLOAD DUP1 SWAP2 SUB SWAP1 RETURN JUMPDEST PUSH2 0x229 PUSH1 0x4 DUP1 CALLDATASIZE SUB DUP2 ADD SWAP1 PUSH2 0x224 SWAP2 SWAP1 PUSH2 0x1D3B JUMP JUMPDEST PUSH2 0x9C8 JUMP JUMPDEST PUSH1 0x40 MLOAD PUSH2 0x236 SWAP2 SWAP1 PUSH2 0x1E4C JUMP JUMPDEST PUSH1 0x40 MLOAD DUP1 SWAP2 SUB SWAP1 RETURN JUMPDEST PUSH2 0x259 PUSH1 0x4 DUP1 CALLDATASIZE SUB DUP2 ADD SWAP1 PUSH2 0x254 SWAP2 SWAP1 PUSH2 0x2047 JUMP JUMPDEST PUSH2 0x9FD JUMP JUMPDEST PUSH1 0x40 MLOAD PUSH2 0x268 SWAP4 SWAP3 SWAP2 SWAP1 PUSH2 0x20F8 JUMP JUMPDEST PUSH1 0x40 MLOAD DUP1 SWAP2 SUB SWAP1 RETURN JUMPDEST PUSH0 PUSH2 0x27D DUP5 DUP5 DUP5 PUSH2 0xB2B JUMP JUMPDEST SWAP1 POP SWAP4 SWAP3 POP POP POP JUMP JUMPDEST PUSH1 0x60 PUSH2 0x2B3 PUSH32 0x0 DUP5 DUP5 PUSH2 0xC2B JUMP JUMPDEST SWAP1 POP SWAP3 SWAP2 POP POP JUMP JUMPDEST PUSH1 0x60 DUP2 TIMESTAMP DUP2 LT ISZERO PUSH2 0x301 JUMPI PUSH1 0x40 MLOAD PUSH32 0x8C379A000000000000000000000000000000000000000000000000000000000 DUP2 MSTORE PUSH1 0x4 ADD PUSH2 0x2F8 SWAP1 PUSH2 0x2187 JUMP JUMPDEST PUSH1 0x40 MLOAD DUP1 SWAP2 SUB SWAP1 REVERT JUMPDEST PUSH2 0x36C PUSH32 0x0 DUP10 DUP9 DUP9 DUP1 DUP1 PUSH1 0x20 MUL PUSH1 0x20 ADD PUSH1 0x40 MLOAD SWAP1 DUP2 ADD PUSH1 0x40 MSTORE DUP1 SWAP4 SWAP3 SWAP2 SWAP1 DUP2 DUP2 MSTORE PUSH1 0x20 ADD DUP4 DUP4 PUSH1 0x20 MUL DUP1 DUP3 DUP5 CALLDATACOPY PUSH0 DUP2 DUP5 ADD MSTORE PUSH1 0x1F NOT PUSH1 0x1F DUP3 ADD AND SWAP1 POP DUP1 DUP4 ADD SWAP3 POP POP POP POP POP POP POP PUSH2 0xDC3 JUMP JUMPDEST SWAP2 POP DUP7 DUP3 PUSH1 0x1 DUP5 MLOAD PUSH2 0x37E SWAP2 SWAP1 PUSH2 0x21D2 JUMP JUMPDEST DUP2 MLOAD DUP2 LT PUSH2 0x38F JUMPI PUSH2 0x38E PUSH2 0x2205 JUMP JUMPDEST JUMPDEST PUSH1 0x20 MUL PUSH1 0x20 ADD ADD MLOAD LT ISZERO PUSH2 0x3D8 JUMPI PUSH1 0x40 MLOAD PUSH32 0x8C379A000000000000000000000000000000000000000000000000000000000 DUP2 MSTORE PUSH1 0x4 ADD PUSH2 0x3CF SWAP1 PUSH2 0x22A2 JUMP JUMPDEST PUSH1 0x40 MLOAD DUP1 SWAP2 SUB SWAP1 REVERT JUMPDEST PUSH2 0x49E DUP7 DUP7 PUSH0 DUP2 DUP2 LT PUSH2 0x3EE JUMPI PUSH2 0x3ED PUSH2 0x2205 JUMP JUMPDEST JUMPDEST SWAP1 POP PUSH1 0x20 MUL ADD PUSH1 0x20 DUP2 ADD SWAP1 PUSH2 0x403 SWAP2 SWAP1 PUSH2 0x22C0 JUMP JUMPDEST CALLER PUSH2 0x47E PUSH32 0x0 DUP11 DUP11 PUSH0 DUP2 DUP2 LT PUSH2 0x43B JUMPI PUSH2 0x43A PUSH2 0x2205 JUMP JUMPDEST JUMPDEST SWAP1 POP PUSH1 0x20 MUL ADD PUSH1 0x20 DUP2 ADD SWAP1 PUSH2 0x450 SWAP2 SWAP1 PUSH2 0x22C0 JUMP JUMPDEST DUP12 DUP12 PUSH1 0x1 DUP2 DUP2 LT PUSH2 0x464 JUMPI PUSH2 0x463 PUSH2 0x2205 JUMP JUMPDEST JUMPDEST SWAP1 POP PUSH1 0x20 MUL ADD PUSH1 0x20 DUP2 ADD SWAP1 PUSH2 0x479 SWAP2 SWAP1 PUSH2 0x22C0 JUMP JUMPDEST PUSH2 0xF45 JUMP JUMPDEST DUP6 PUSH0 DUP2 MLOAD DUP2 LT PUSH2 0x491 JUMPI PUSH2 0x490 PUSH2 0x2205 JUMP JUMPDEST JUMPDEST PUSH1 0x20 MUL PUSH1 0x20 ADD ADD MLOAD PUSH2 0xFB4 JUMP JUMPDEST PUSH2 0x4E9 DUP3 DUP8 DUP8 DUP1 DUP1 PUSH1 0x20 MUL PUSH1 0x20 ADD PUSH1 0x40 MLOAD SWAP1 DUP2 ADD PUSH1 0x40 MSTORE DUP1 SWAP4 SWAP3 SWAP2 SWAP1 DUP2 DUP2 MSTORE PUSH1 0x20 ADD DUP4 DUP4 PUSH1 0x20 MUL DUP1 DUP3 DUP5 CALLDATACOPY PUSH0 DUP2 DUP5 ADD MSTORE PUSH1 0x1F NOT PUSH1 0x1F DUP3 ADD AND SWAP1 POP DUP1 DUP4 ADD SWAP3 POP POP POP POP POP POP POP DUP7 PUSH2 0x10E7 JUMP JUMPDEST POP SWAP7 SWAP6 POP POP POP POP POP POP JUMP JUMPDEST PUSH0 PUSH2 0x500 DUP5 DUP5 DUP5 PUSH2 0x132C JUMP JUMPDEST SWAP1 POP SWAP4 SWAP3 POP POP POP JUMP JUMPDEST PUSH1 0x60 DUP2 TIMESTAMP DUP2 LT ISZERO PUSH2 0x54F JUMPI PUSH1 0x40 MLOAD PUSH32 0x8C379A000000000000000000000000000000000000000000000000000000000 DUP2 MSTORE PUSH1 0x4 ADD PUSH2 0x546 SWAP1 PUSH2 0x2187 JUMP JUMPDEST PUSH1 0x40 MLOAD DUP1 SWAP2 SUB SWAP1 REVERT JUMPDEST PUSH2 0x5BA PUSH32 0x0 DUP10 DUP9 DUP9 DUP1 DUP1 PUSH1 0x20 MUL PUSH1 0x20 ADD PUSH1 0x40 MLOAD SWAP1 DUP2 ADD PUSH1 0x40 MSTORE DUP1 SWAP4 SWAP3 SWAP2 SWAP1 DUP2 DUP2 MSTORE PUSH1 0x20 ADD DUP4 DUP4 PUSH1 0x20 MUL DUP1 DUP3 DUP5 CALLDATACOPY PUSH0 DUP2 DUP5 ADD MSTORE PUSH1 0x1F NOT PUSH1 0x1F DUP3 ADD AND SWAP1 POP DUP1 DUP4 ADD SWAP3 POP POP POP POP POP POP POP PUSH2 0xC2B JUMP JUMPDEST SWAP2 POP DUP7 DUP3 PUSH0 DUP2 MLOAD DUP2 LT PUSH2 0x5D0 JUMPI PUSH2 0x5CF PUSH2 0x2205 JUMP JUMPDEST JUMPDEST PUSH1 0x20 MUL PUSH1 0x20 ADD ADD MLOAD GT ISZERO PUSH2 0x619 JUMPI PUSH1 0x40 MLOAD PUSH32 0x8C379A000000000000000000000000000000000000000000000000000000000 DUP2 MSTORE PUSH1 0x4 ADD PUSH2 0x610 SWAP1 PUSH2 0x235B JUMP JUMPDEST PUSH1 0x40 MLOAD DUP1 SWAP2 SUB SWAP1 REVERT JUMPDEST PUSH2 0x6DF DUP7 DUP7 PUSH0 DUP2 DUP2 LT PUSH2 0x62F JUMPI PUSH2 0x62E PUSH2 0x2205 JUMP JUMPDEST JUMPDEST SWAP1 POP PUSH1 0x20 MUL ADD PUSH1 0x20 DUP2 ADD SWAP1 PUSH2 0x644 SWAP2 SWAP1 PUSH2 0x22C0 JUMP JUMPDEST CALLER PUSH2 0x6BF PUSH32 0x0 DUP11 DUP11 PUSH0 DUP2 DUP2 LT PUSH2 0x67C JUMPI PUSH2 0x67B PUSH2 0x2205 JUMP JUMPDEST JUMPDEST SWAP1 POP PUSH1 0x20 MUL ADD PUSH1 0x20 DUP2 ADD SWAP1 PUSH2 0x691 SWAP2 SWAP1 PUSH2 0x22C0 JUMP JUMPDEST DUP12 DUP12 PUSH1 0x1 DUP2 DUP2 LT PUSH2 0x6A5 JUMPI PUSH2 0x6A4 PUSH2 0x2205 JUMP JUMPDEST JUMPDEST SWAP1 POP PUSH1 0x20 MUL ADD PUSH1 0x20 DUP2 ADD SWAP1 PUSH2 0x6BA SWAP2 SWAP1 PUSH2 0x22C0 JUMP JUMPDEST PUSH2 0xF45 JUMP JUMPDEST DUP6 PUSH0 DUP2 MLOAD DUP2 LT PUSH2 0x6D2 JUMPI PUSH2 0x6D1 PUSH2 0x2205 JUMP JUMPDEST JUMPDEST PUSH1 0x20 MUL PUSH1 0x20 ADD ADD MLOAD PUSH2 0xFB4 JUMP JUMPDEST PUSH2 0x72A DUP3 DUP8 DUP8 DUP1 DUP1 PUSH1 0x20 MUL PUSH1 0x20 ADD PUSH1 0x40 MLOAD SWAP1 DUP2 ADD PUSH1 0x40 MSTORE DUP1 SWAP4 SWAP3 SWAP2 SWAP1 DUP2 DUP2 MSTORE PUSH1 0x20 ADD DUP4 DUP4 PUSH1 0x20 MUL DUP1 DUP3 DUP5 CALLDATACOPY PUSH0 DUP2 DUP5 ADD MSTORE PUSH1 0x1F NOT PUSH1 0x1F DUP3 ADD AND SWAP1 POP DUP1 DUP4 ADD SWAP3 POP POP POP POP POP POP POP DUP7 PUSH2 0x10E7 JUMP JUMPDEST POP SWAP7 SWAP6 POP POP POP POP POP POP JUMP JUMPDEST PUSH0 PUSH2 0x741 DUP5 DUP5 DUP5 PUSH2 0x143A JUMP JUMPDEST SWAP1 POP SWAP4 SWAP3 POP POP POP JUMP JUMPDEST PUSH0 DUP1 DUP3 TIMESTAMP DUP2 LT ISZERO PUSH2 0x790 JUMPI PUSH1 0x40 MLOAD PUSH32 0x8C379A000000000000000000000000000000000000000000000000000000000 DUP2 MSTORE PUSH1 0x4 ADD PUSH2 0x787 SWAP1 PUSH2 0x2187 JUMP JUMPDEST PUSH1 0x40 MLOAD DUP1 SWAP2 SUB SWAP1 REVERT JUMPDEST PUSH0 PUSH2 0x7BC PUSH32 0x0 DUP13 DUP13 PUSH2 0xF45 JUMP JUMPDEST SWAP1 POP DUP1 PUSH20 0xFFFFFFFFFFFFFFFFFFFFFFFFFFFFFFFFFFFFFFFF AND PUSH4 0x23B872DD CALLER DUP4 DUP13 PUSH1 0x40 MLOAD DUP5 PUSH4 0xFFFFFFFF AND PUSH1 0xE0 SHL DUP2 MSTORE PUSH1 0x4 ADD PUSH2 0x7FB SWAP4 SWAP3 SWAP2 SWAP1 PUSH2 0x2379 JUMP JUMPDEST PUSH1 0x20 PUSH1 0x40 MLOAD DUP1 DUP4 SUB DUP2 PUSH0 DUP8 GAS CALL ISZERO DUP1 ISZERO PUSH2 0x817 JUMPI RETURNDATASIZE PUSH0 DUP1 RETURNDATACOPY RETURNDATASIZE PUSH0 REVERT JUMPDEST POP POP POP POP PUSH1 0x40 MLOAD RETURNDATASIZE PUSH1 0x1F NOT PUSH1 0x1F DUP3 ADD AND DUP3 ADD DUP1 PUSH1 0x40 MSTORE POP DUP2 ADD SWAP1 PUSH2 0x83B SWAP2 SWAP1 PUSH2 0x23E3 JUMP JUMPDEST POP PUSH0 DUP1 DUP3 PUSH20 0xFFFFFFFFFFFFFFFFFFFFFFFFFFFFFFFFFFFFFFFF AND PUSH4 0x89AFCB44 DUP10 PUSH1 0x40 MLOAD DUP3 PUSH4 0xFFFFFFFF AND PUSH1 0xE0 SHL DUP2 MSTORE PUSH1 0x4 ADD PUSH2 0x877 SWAP2 SWAP1 PUSH2 0x202E JUMP JUMPDEST PUSH1 0x40 DUP1 MLOAD DUP1 DUP4 SUB DUP2 PUSH0 DUP8 GAS CALL ISZERO DUP1 ISZERO PUSH2 0x892 JUMPI RETURNDATASIZE PUSH0 DUP1 RETURNDATACOPY RETURNDATASIZE PUSH0 REVERT JUMPDEST POP POP POP POP PUSH1 0x40 MLOAD RETURNDATASIZE PUSH1 0x1F NOT PUSH1 0x1F DUP3 ADD AND DUP3 ADD DUP1 PUSH1 0x40 MSTORE POP DUP2 ADD SWAP1 PUSH2 0x8B6 SWAP2 SWAP1 PUSH2 0x2422 JUMP JUMPDEST SWAP2 POP SWAP2 POP PUSH0 PUSH2 0x8C5 DUP15 DUP15 PUSH2 0x14F1 JUMP JUMPDEST POP SWAP1 POP DUP1 PUSH20 0xFFFFFFFFFFFFFFFFFFFFFFFFFFFFFFFFFFFFFFFF AND DUP15 PUSH20 0xFFFFFFFFFFFFFFFFFFFFFFFFFFFFFFFFFFFFFFFF AND EQ PUSH2 0x902 JUMPI DUP2 DUP4 PUSH2 0x905 JUMP JUMPDEST DUP3 DUP3 JUMPDEST DUP1 SWAP8 POP DUP2 SWAP9 POP POP POP DUP11 DUP8 LT ISZERO PUSH2 0x950 JUMPI PUSH1 0x40 MLOAD PUSH32 0x8C379A000000000000000000000000000000000000000000000000000000000 DUP2 MSTORE PUSH1 0x4 ADD PUSH2 0x947 SWAP1 PUSH2 0x24D0 JUMP JUMPDEST PUSH1 0x40 MLOAD DUP1 SWAP2 SUB SWAP1 REVERT JUMPDEST DUP10 DUP7 LT ISZERO PUSH2 0x993 JUMPI PUSH1 0x40 MLOAD PUSH32 0x8C379A000000000000000000000000000000000000000000000000000000000 DUP2 MSTORE PUSH1 0x4 ADD PUSH2 0x98A SWAP1 PUSH2 0x255E JUMP JUMPDEST PUSH1 0x40 MLOAD DUP1 SWAP2 SUB SWAP1 REVERT JUMPDEST POP POP POP POP POP SWAP8 POP SWAP8 SWAP6 POP POP POP POP POP POP JUMP JUMPDEST PUSH32 0x0 DUP2 JUMP JUMPDEST PUSH1 0x60 PUSH2 0x9F5 PUSH32 0x0 DUP5 DUP5 PUSH2 0xDC3 JUMP JUMPDEST SWAP1 POP SWAP3 SWAP2 POP POP JUMP JUMPDEST PUSH0 DUP1 PUSH0 DUP4 TIMESTAMP DUP2 LT ISZERO PUSH2 0xA44 JUMPI PUSH1 0x40 MLOAD PUSH32 0x8C379A000000000000000000000000000000000000000000000000000000000 DUP2 MSTORE PUSH1 0x4 ADD PUSH2 0xA3B SWAP1 PUSH2 0x2187 JUMP JUMPDEST PUSH1 0x40 MLOAD DUP1 SWAP2 SUB SWAP1 REVERT JUMPDEST PUSH2 0xA52 DUP13 DUP13 DUP13 DUP13 DUP13 DUP13 PUSH2 0x161B JUMP JUMPDEST DUP1 SWAP5 POP DUP2 SWAP6 POP POP POP PUSH0 PUSH2 0xA86 PUSH32 0x0 DUP15 DUP15 PUSH2 0xF45 JUMP JUMPDEST SWAP1 POP PUSH2 0xA94 DUP14 CALLER DUP4 DUP9 PUSH2 0xFB4 JUMP JUMPDEST PUSH2 0xAA0 DUP13 CALLER DUP4 DUP8 PUSH2 0xFB4 JUMP JUMPDEST DUP1 PUSH20 0xFFFFFFFFFFFFFFFFFFFFFFFFFFFFFFFFFFFFFFFF AND PUSH4 0x6A627842 DUP9 PUSH1 0x40 MLOAD DUP3 PUSH4 0xFFFFFFFF AND PUSH1 0xE0 SHL DUP2 MSTORE PUSH1 0x4 ADD PUSH2 0xAD9 SWAP2 SWAP1 PUSH2 0x202E JUMP JUMPDEST PUSH1 0x20 PUSH1 0x40 MLOAD DUP1 DUP4 SUB DUP2 PUSH0 DUP8 GAS CALL ISZERO DUP1 ISZERO PUSH2 0xAF5 JUMPI RETURNDATASIZE PUSH0 DUP1 RETURNDATACOPY RETURNDATASIZE PUSH0 REVERT JUMPDEST POP POP POP POP PUSH1 0x40 MLOAD RETURNDATASIZE PUSH1 0x1F NOT PUSH1 0x1F DUP3 ADD AND DUP3 ADD DUP1 PUSH1 0x40 MSTORE POP DUP2 ADD SWAP1 PUSH2 0xB19 SWAP2 SWAP1 PUSH2 0x257C JUMP JUMPDEST SWAP3 POP POP POP SWAP9 POP SWAP9 POP SWAP9 SWAP6 POP POP POP POP POP POP JUMP JUMPDEST PUSH0 DUP1 DUP5 GT PUSH2 0xB6E JUMPI PUSH1 0x40 MLOAD PUSH32 0x8C379A000000000000000000000000000000000000000000000000000000000 DUP2 MSTORE PUSH1 0x4 ADD PUSH2 0xB65 SWAP1 PUSH2 0x2617 JUMP JUMPDEST PUSH1 0x40 MLOAD DUP1 SWAP2 SUB SWAP1 REVERT JUMPDEST PUSH0 DUP4 GT DUP1 ISZERO PUSH2 0xB7C JUMPI POP PUSH0 DUP3 GT JUMPDEST PUSH2 0xBBB JUMPI PUSH1 0x40 MLOAD PUSH32 0x8C379A000000000000000000000000000000000000000000000000000000000 DUP2 MSTORE PUSH1 0x4 ADD PUSH2 0xBB2 SWAP1 PUSH2 0x26A5 JUMP JUMPDEST PUSH1 0x40 MLOAD DUP1 SWAP2 SUB SWAP1 REVERT JUMPDEST PUSH0 PUSH2 0xBD1 PUSH2 0x3E5 DUP7 PUSH2 0x18BD SWAP1 SWAP2 SWAP1 PUSH4 0xFFFFFFFF AND JUMP JUMPDEST SWAP1 POP PUSH0 PUSH2 0xBE7 DUP5 DUP4 PUSH2 0x18BD SWAP1 SWAP2 SWAP1 PUSH4 0xFFFFFFFF AND JUMP JUMPDEST SWAP1 POP PUSH0 PUSH2 0xC11 DUP4 PUSH2 0xC03 PUSH2 0x3E8 DUP10 PUSH2 0x18BD SWAP1 SWAP2 SWAP1 PUSH4 0xFFFFFFFF AND JUMP JUMPDEST PUSH2 0x1929 SWAP1 SWAP2 SWAP1 PUSH4 0xFFFFFFFF AND JUMP JUMPDEST SWAP1 POP DUP1 DUP3 PUSH2 0xC1F SWAP2 SWAP1 PUSH2 0x26F0 JUMP JUMPDEST SWAP4 POP POP POP POP SWAP4 SWAP3 POP POP POP JUMP JUMPDEST PUSH1 0x60 PUSH1 0x2 DUP3 MLOAD LT ISZERO PUSH2 0xC72 JUMPI PUSH1 0x40 MLOAD PUSH32 0x8C379A000000000000000000000000000000000000000000000000000000000 DUP2 MSTORE PUSH1 0x4 ADD PUSH2 0xC69 SWAP1 PUSH2 0x276A JUMP JUMPDEST PUSH1 0x40 MLOAD DUP1 SWAP2 SUB SWAP1 REVERT JUMPDEST DUP2 MLOAD PUSH8 0xFFFFFFFFFFFFFFFF DUP2 GT ISZERO PUSH2 0xC8D JUMPI PUSH2 0xC8C PUSH2 0x1BA5 JUMP JUMPDEST JUMPDEST PUSH1 0x40 MLOAD SWAP1 DUP1 DUP3 MSTORE DUP1 PUSH1 0x20 MUL PUSH1 0x20 ADD DUP3 ADD PUSH1 0x40 MSTORE DUP1 ISZERO PUSH2 0xCBB JUMPI DUP2 PUSH1 0x20 ADD PUSH1 0x20 DUP3 MUL DUP1 CALLDATASIZE DUP4 CALLDATACOPY DUP1 DUP3 ADD SWAP2 POP POP SWAP1 POP JUMPDEST POP SWAP1 POP DUP3 DUP2 PUSH1 0x1 DUP4 MLOAD PUSH2 0xCCE SWAP2 SWAP1 PUSH2 0x21D2 JUMP JUMPDEST DUP2 MLOAD DUP2 LT PUSH2 0xCDF JUMPI PUSH2 0xCDE PUSH2 0x2205 JUMP JUMPDEST JUMPDEST PUSH1 0x20 MUL PUSH1 0x20 ADD ADD DUP2 DUP2 MSTORE POP POP PUSH0 PUSH1 0x1 DUP4 MLOAD PUSH2 0xCFA SWAP2 SWAP1 PUSH2 0x21D2 JUMP JUMPDEST SWAP1 POP JUMPDEST PUSH0 DUP2 GT ISZERO PUSH2 0xDBB JUMPI PUSH0 DUP1 PUSH2 0xD52 DUP8 DUP7 PUSH1 0x1 DUP7 PUSH2 0xD19 SWAP2 SWAP1 PUSH2 0x21D2 JUMP JUMPDEST DUP2 MLOAD DUP2 LT PUSH2 0xD2A JUMPI PUSH2 0xD29 PUSH2 0x2205 JUMP JUMPDEST JUMPDEST PUSH1 0x20 MUL PUSH1 0x20 ADD ADD MLOAD DUP8 DUP7 DUP2 MLOAD DUP2 LT PUSH2 0xD45 JUMPI PUSH2 0xD44 PUSH2 0x2205 JUMP JUMPDEST JUMPDEST PUSH1 0x20 MUL PUSH1 0x20 ADD ADD MLOAD PUSH2 0x1981 JUMP JUMPDEST SWAP2 POP SWAP2 POP PUSH2 0xD7B DUP5 DUP5 DUP2 MLOAD DUP2 LT PUSH2 0xD6C JUMPI PUSH2 0xD6B PUSH2 0x2205 JUMP JUMPDEST JUMPDEST PUSH1 0x20 MUL PUSH1 0x20 ADD ADD MLOAD DUP4 DUP4 PUSH2 0x132C JUMP JUMPDEST DUP5 PUSH1 0x1 DUP6 PUSH2 0xD89 SWAP2 SWAP1 PUSH2 0x21D2 JUMP JUMPDEST DUP2 MLOAD DUP2 LT PUSH2 0xD9A JUMPI PUSH2 0xD99 PUSH2 0x2205 JUMP JUMPDEST JUMPDEST PUSH1 0x20 MUL PUSH1 0x20 ADD ADD DUP2 DUP2 MSTORE POP POP POP POP DUP1 DUP1 PUSH2 0xDB3 SWAP1 PUSH2 0x2788 JUMP JUMPDEST SWAP2 POP POP PUSH2 0xCFD JUMP JUMPDEST POP SWAP4 SWAP3 POP POP POP JUMP JUMPDEST PUSH1 0x60 PUSH1 0x2 DUP3 MLOAD LT ISZERO PUSH2 0xE0A JUMPI PUSH1 0x40 MLOAD PUSH32 0x8C379A000000000000000000000000000000000000000000000000000000000 DUP2 MSTORE PUSH1 0x4 ADD PUSH2 0xE01 SWAP1 PUSH2 0x276A JUMP JUMPDEST PUSH1 0x40 MLOAD DUP1 SWAP2 SUB SWAP1 REVERT JUMPDEST DUP2 MLOAD PUSH8 0xFFFFFFFFFFFFFFFF DUP2 GT ISZERO PUSH2 0xE25 JUMPI PUSH2 0xE24 PUSH2 0x1BA5 JUMP JUMPDEST JUMPDEST PUSH1 0x40 MLOAD SWAP1 DUP1 DUP3 MSTORE DUP1 PUSH1 0x20 MUL PUSH1 0x20 ADD DUP3 ADD PUSH1 0x40 MSTORE DUP1 ISZERO PUSH2 0xE53 JUMPI DUP2 PUSH1 0x20 ADD PUSH1 0x20 DUP3 MUL DUP1 CALLDATASIZE DUP4 CALLDATACOPY DUP1 DUP3 ADD SWAP2 POP POP SWAP1 POP JUMPDEST POP SWAP1 POP DUP3 DUP2 PUSH0 DUP2 MLOAD DUP2 LT PUSH2 0xE6A JUMPI PUSH2 0xE69 PUSH2 0x2205 JUMP JUMPDEST JUMPDEST PUSH1 0x20 MUL PUSH1 0x20 ADD ADD DUP2 DUP2 MSTORE POP POP PUSH0 JUMPDEST PUSH1 0x1 DUP4 MLOAD PUSH2 0xE86 SWAP2 SWAP1 PUSH2 0x21D2 JUMP JUMPDEST DUP2 LT ISZERO PUSH2 0xF3D JUMPI PUSH0 DUP1 PUSH2 0xEDA DUP8 DUP7 DUP6 DUP2 MLOAD DUP2 LT PUSH2 0xEA6 JUMPI PUSH2 0xEA5 PUSH2 0x2205 JUMP JUMPDEST JUMPDEST PUSH1 0x20 MUL PUSH1 0x20 ADD ADD MLOAD DUP8 PUSH1 0x1 DUP8 PUSH2 0xEBC SWAP2 SWAP1 PUSH2 0x27AF JUMP JUMPDEST DUP2 MLOAD DUP2 LT PUSH2 0xECD JUMPI PUSH2 0xECC PUSH2 0x2205 JUMP JUMPDEST JUMPDEST PUSH1 0x20 MUL PUSH1 0x20 ADD ADD MLOAD PUSH2 0x1981 JUMP JUMPDEST SWAP2 POP SWAP2 POP PUSH2 0xF03 DUP5 DUP5 DUP2 MLOAD DUP2 LT PUSH2 0xEF4 JUMPI PUSH2 0xEF3 PUSH2 0x2205 JUMP JUMPDEST JUMPDEST PUSH1 0x20 MUL PUSH1 0x20 ADD ADD MLOAD DUP4 DUP4 PUSH2 0xB2B JUMP JUMPDEST DUP5 PUSH1 0x1 DUP6 PUSH2 0xF11 SWAP2 SWAP1 PUSH2 0x27AF JUMP JUMPDEST DUP2 MLOAD DUP2 LT PUSH2 0xF22 JUMPI PUSH2 0xF21 PUSH2 0x2205 JUMP JUMPDEST JUMPDEST PUSH1 0x20 MUL PUSH1 0x20 ADD ADD DUP2 DUP2 MSTORE POP POP POP POP DUP1 DUP1 PUSH1 0x1 ADD SWAP2 POP POP PUSH2 0xE78 JUMP JUMPDEST POP SWAP4 SWAP3 POP POP POP JUMP JUMPDEST PUSH0 DUP1 PUSH0 PUSH2 0xF52 DUP6 DUP6 PUSH2 0x14F1 JUMP JUMPDEST SWAP2 POP SWAP2 POP DUP6 DUP3 DUP3 PUSH1 0x40 MLOAD PUSH1 0x20 ADD PUSH2 0xF6A SWAP3 SWAP2 SWAP1 PUSH2 0x2827 JUMP JUMPDEST PUSH1 0x40 MLOAD PUSH1 0x20 DUP2 DUP4 SUB SUB DUP2 MSTORE SWAP1 PUSH1 0x40 MSTORE DUP1 MLOAD SWAP1 PUSH1 0x20 ADD KECCAK256 PUSH1 0x40 MLOAD PUSH1 0x20 ADD PUSH2 0xF91 SWAP3 SWAP2 SWAP1 PUSH2 0x2919 JUMP JUMPDEST PUSH1 0x40 MLOAD PUSH1 0x20 DUP2 DUP4 SUB SUB DUP2 MSTORE SWAP1 PUSH1 0x40 MSTORE DUP1 MLOAD SWAP1 PUSH1 0x20 ADD KECCAK256 PUSH0 SHR SWAP3 POP POP POP SWAP4 SWAP3 POP POP POP JUMP JUMPDEST PUSH0 DUP1 DUP6 PUSH20 0xFFFFFFFFFFFFFFFFFFFFFFFFFFFFFFFFFFFFFFFF AND PUSH4 0x23B872DD DUP7 DUP7 DUP7 PUSH1 0x40 MLOAD PUSH1 0x24 ADD PUSH2 0xFE7 SWAP4 SWAP3 SWAP2 SWAP1 PUSH2 0x2379 JUMP JUMPDEST PUSH1 0x40 MLOAD PUSH1 0x20 DUP2 DUP4 SUB SUB DUP2 MSTORE SWAP1 PUSH1 0x40 MSTORE SWAP1 PUSH1 0xE0 SHL PUSH1 0x20 DUP3 ADD DUP1 MLOAD PUSH28 0xFFFFFFFFFFFFFFFFFFFFFFFFFFFFFFFFFFFFFFFFFFFFFFFFFFFFFFFF DUP4 DUP2 DUP4 AND OR DUP4 MSTORE POP POP POP POP PUSH1 0x40 MLOAD PUSH2 0x1035 SWAP2 SWAP1 PUSH2 0x29C6 JUMP JUMPDEST PUSH0 PUSH1 0x40 MLOAD DUP1 DUP4 SUB DUP2 PUSH0 DUP7 GAS CALL SWAP2 POP POP RETURNDATASIZE DUP1 PUSH0 DUP2 EQ PUSH2 0x106E JUMPI PUSH1 0x40 MLOAD SWAP2 POP PUSH1 0x1F NOT PUSH1 0x3F RETURNDATASIZE ADD AND DUP3 ADD PUSH1 0x40 MSTORE RETURNDATASIZE DUP3 MSTORE RETURNDATASIZE PUSH0 PUSH1 0x20 DUP5 ADD RETURNDATACOPY PUSH2 0x1073 JUMP JUMPDEST PUSH1 0x60 SWAP2 POP JUMPDEST POP SWAP2 POP SWAP2 POP DUP2 DUP1 ISZERO PUSH2 0x10A0 JUMPI POP PUSH0 DUP2 MLOAD EQ DUP1 PUSH2 0x109F JUMPI POP DUP1 DUP1 PUSH1 0x20 ADD SWAP1 MLOAD DUP2 ADD SWAP1 PUSH2 0x109E SWAP2 SWAP1 PUSH2 0x23E3 JUMP JUMPDEST JUMPDEST JUMPDEST PUSH2 0x10DF JUMPI PUSH1 0x40 MLOAD PUSH32 0x8C379A000000000000000000000000000000000000000000000000000000000 DUP2 MSTORE PUSH1 0x4 ADD PUSH2 0x10D6 SWAP1 PUSH2 0x2A4C JUMP JUMPDEST PUSH1 0x40 MLOAD DUP1 SWAP2 SUB SWAP1 REVERT JUMPDEST POP POP POP POP POP POP JUMP JUMPDEST PUSH0 JUMPDEST PUSH1 0x1 DUP4 MLOAD PUSH2 0x10F7 SWAP2 SWAP1 PUSH2 0x21D2 JUMP JUMPDEST DUP2 LT ISZERO PUSH2 0x1326 JUMPI PUSH0 DUP1 DUP5 DUP4 DUP2 MLOAD DUP2 LT PUSH2 0x1113 JUMPI PUSH2 0x1112 PUSH2 0x2205 JUMP JUMPDEST JUMPDEST PUSH1 0x20 MUL PUSH1 0x20 ADD ADD MLOAD DUP6 PUSH1 0x1 DUP6 PUSH2 0x1129 SWAP2 SWAP1 PUSH2 0x27AF JUMP JUMPDEST DUP2 MLOAD DUP2 LT PUSH2 0x113A JUMPI PUSH2 0x1139 PUSH2 0x2205 JUMP JUMPDEST JUMPDEST PUSH1 0x20 MUL PUSH1 0x20 ADD ADD MLOAD SWAP2 POP SWAP2 POP PUSH0 PUSH2 0x1151 DUP4 DUP4 PUSH2 0x14F1 JUMP JUMPDEST POP SWAP1 POP PUSH0 DUP8 PUSH1 0x1 DUP7 PUSH2 0x1163 SWAP2 SWAP1 PUSH2 0x27AF JUMP JUMPDEST DUP2 MLOAD DUP2 LT PUSH2 0x1174 JUMPI PUSH2 0x1173 PUSH2 0x2205 JUMP JUMPDEST JUMPDEST PUSH1 0x20 MUL PUSH1 0x20 ADD ADD MLOAD SWAP1 POP PUSH0 DUP1 DUP4 PUSH20 0xFFFFFFFFFFFFFFFFFFFFFFFFFFFFFFFFFFFFFFFF AND DUP7 PUSH20 0xFFFFFFFFFFFFFFFFFFFFFFFFFFFFFFFFFFFFFFFF AND EQ PUSH2 0x11BA JUMPI DUP3 PUSH0 PUSH2 0x11BD JUMP JUMPDEST PUSH0 DUP4 JUMPDEST SWAP2 POP SWAP2 POP PUSH0 PUSH1 0x2 DUP11 MLOAD PUSH2 0x11D0 SWAP2 SWAP1 PUSH2 0x21D2 JUMP JUMPDEST DUP9 LT PUSH2 0x11DC JUMPI DUP9 PUSH2 0x122E JUMP JUMPDEST PUSH2 0x122D PUSH32 0x0 DUP8 DUP13 PUSH1 0x2 DUP13 PUSH2 0x120F SWAP2 SWAP1 PUSH2 0x27AF JUMP JUMPDEST DUP2 MLOAD DUP2 LT PUSH2 0x1220 JUMPI PUSH2 0x121F PUSH2 0x2205 JUMP JUMPDEST JUMPDEST PUSH1 0x20 MUL PUSH1 0x20 ADD ADD MLOAD PUSH2 0xF45 JUMP JUMPDEST JUMPDEST SWAP1 POP PUSH2 0x125B PUSH32 0x0 DUP9 DUP9 PUSH2 0xF45 JUMP JUMPDEST PUSH20 0xFFFFFFFFFFFFFFFFFFFFFFFFFFFFFFFFFFFFFFFF AND PUSH4 0x22C0D9F DUP5 DUP5 DUP5 PUSH0 PUSH8 0xFFFFFFFFFFFFFFFF DUP2 GT ISZERO PUSH2 0x1293 JUMPI PUSH2 0x1292 PUSH2 0x1BA5 JUMP JUMPDEST JUMPDEST PUSH1 0x40 MLOAD SWAP1 DUP1 DUP3 MSTORE DUP1 PUSH1 0x1F ADD PUSH1 0x1F NOT AND PUSH1 0x20 ADD DUP3 ADD PUSH1 0x40 MSTORE DUP1 ISZERO PUSH2 0x12C5 JUMPI DUP2 PUSH1 0x20 ADD PUSH1 0x1 DUP3 MUL DUP1 CALLDATASIZE DUP4 CALLDATACOPY DUP1 DUP3 ADD SWAP2 POP POP SWAP1 POP JUMPDEST POP PUSH1 0x40 MLOAD DUP6 PUSH4 0xFFFFFFFF AND PUSH1 0xE0 SHL DUP2 MSTORE PUSH1 0x4 ADD PUSH2 0x12E5 SWAP5 SWAP4 SWAP3 SWAP2 SWAP1 PUSH2 0x2AB2 JUMP JUMPDEST PUSH0 PUSH1 0x40 MLOAD DUP1 DUP4 SUB DUP2 PUSH0 DUP8 DUP1 EXTCODESIZE ISZERO DUP1 ISZERO PUSH2 0x12FC JUMPI PUSH0 DUP1 REVERT JUMPDEST POP GAS CALL ISZERO DUP1 ISZERO PUSH2 0x130E JUMPI RETURNDATASIZE PUSH0 DUP1 RETURNDATACOPY RETURNDATASIZE PUSH0 REVERT JUMPDEST POP POP POP POP POP POP POP POP POP POP POP DUP1 DUP1 PUSH1 0x1 ADD SWAP2 POP POP PUSH2 0x10E9 JUMP JUMPDEST POP POP POP POP JUMP JUMPDEST PUSH0 DUP1 DUP5 GT PUSH2 0x136F JUMPI PUSH1 0x40 MLOAD PUSH32 0x8C379A000000000000000000000000000000000000000000000000000000000 DUP2 MSTORE PUSH1 0x4 ADD PUSH2 0x1366 SWAP1 PUSH2 0x2B6C JUMP JUMPDEST PUSH1 0x40 MLOAD DUP1 SWAP2 SUB SWAP1 REVERT JUMPDEST PUSH0 DUP4 GT DUP1 ISZERO PUSH2 0x137D JUMPI POP PUSH0 DUP3 GT JUMPDEST PUSH2 0x13BC JUMPI PUSH1 0x40 MLOAD PUSH32 0x8C379A000000000000000000000000000000000000000000000000000000000 DUP2 MSTORE PUSH1 0x4 ADD PUSH2 0x13B3 SWAP1 PUSH2 0x26A5 JUMP JUMPDEST PUSH1 0x40 MLOAD DUP1 SWAP2 SUB SWAP1 REVERT JUMPDEST PUSH0 PUSH2 0x13E4 PUSH2 0x3E8 PUSH2 0x13D6 DUP8 DUP8 PUSH2 0x18BD SWAP1 SWAP2 SWAP1 PUSH4 0xFFFFFFFF AND JUMP JUMPDEST PUSH2 0x18BD SWAP1 SWAP2 SWAP1 PUSH4 0xFFFFFFFF AND JUMP JUMPDEST SWAP1 POP PUSH0 PUSH2 0x140E PUSH2 0x3E5 PUSH2 0x1400 DUP9 DUP8 PUSH2 0x1A7D SWAP1 SWAP2 SWAP1 PUSH4 0xFFFFFFFF AND JUMP JUMPDEST PUSH2 0x18BD SWAP1 SWAP2 SWAP1 PUSH4 0xFFFFFFFF AND JUMP JUMPDEST SWAP1 POP PUSH2 0x142F PUSH1 0x1 DUP3 DUP5 PUSH2 0x1421 SWAP2 SWAP1 PUSH2 0x26F0 JUMP JUMPDEST PUSH2 0x1929 SWAP1 SWAP2 SWAP1 PUSH4 0xFFFFFFFF AND JUMP JUMPDEST SWAP3 POP POP POP SWAP4 SWAP3 POP POP POP JUMP JUMPDEST PUSH0 DUP1 DUP5 GT PUSH2 0x147D JUMPI PUSH1 0x40 MLOAD PUSH32 0x8C379A000000000000000000000000000000000000000000000000000000000 DUP2 MSTORE PUSH1 0x4 ADD PUSH2 0x1474 SWAP1 PUSH2 0x2BFA JUMP JUMPDEST PUSH1 0x40 MLOAD DUP1 SWAP2 SUB SWAP1 REVERT JUMPDEST PUSH0 DUP4 GT DUP1 ISZERO PUSH2 0x148B JUMPI POP PUSH0 DUP3 GT JUMPDEST PUSH2 0x14CA JUMPI PUSH1 0x40 MLOAD PUSH32 0x8C379A000000000000000000000000000000000000000000000000000000000 DUP2 MSTORE PUSH1 0x4 ADD PUSH2 0x14C1 SWAP1 PUSH2 0x26A5 JUMP JUMPDEST PUSH1 0x40 MLOAD DUP1 SWAP2 SUB SWAP1 REVERT JUMPDEST DUP3 PUSH2 0x14DE DUP4 DUP7 PUSH2 0x18BD SWAP1 SWAP2 SWAP1 PUSH4 0xFFFFFFFF AND JUMP JUMPDEST PUSH2 0x14E8 SWAP2 SWAP1 PUSH2 0x26F0 JUMP JUMPDEST SWAP1 POP SWAP4 SWAP3 POP POP POP JUMP JUMPDEST PUSH0 DUP1 DUP3 PUSH20 0xFFFFFFFFFFFFFFFFFFFFFFFFFFFFFFFFFFFFFFFF AND DUP5 PUSH20 0xFFFFFFFFFFFFFFFFFFFFFFFFFFFFFFFFFFFFFFFF AND SUB PUSH2 0x1561 JUMPI PUSH1 0x40 MLOAD PUSH32 0x8C379A000000000000000000000000000000000000000000000000000000000 DUP2 MSTORE PUSH1 0x4 ADD PUSH2 0x1558 SWAP1 PUSH2 0x2C88 JUMP JUMPDEST PUSH1 0x40 MLOAD DUP1 SWAP2 SUB SWAP1 REVERT JUMPDEST DUP3 PUSH20 0xFFFFFFFFFFFFFFFFFFFFFFFFFFFFFFFFFFFFFFFF AND DUP5 PUSH20 0xFFFFFFFFFFFFFFFFFFFFFFFFFFFFFFFFFFFFFFFF AND LT PUSH2 0x159B JUMPI DUP3 DUP5 PUSH2 0x159E JUMP JUMPDEST DUP4 DUP4 JUMPDEST DUP1 SWAP3 POP DUP2 SWAP4 POP POP POP PUSH0 PUSH20 0xFFFFFFFFFFFFFFFFFFFFFFFFFFFFFFFFFFFFFFFF AND DUP3 PUSH20 0xFFFFFFFFFFFFFFFFFFFFFFFFFFFFFFFFFFFFFFFF AND SUB PUSH2 0x1614 JUMPI PUSH1 0x40 MLOAD PUSH32 0x8C379A000000000000000000000000000000000000000000000000000000000 DUP2 MSTORE PUSH1 0x4 ADD PUSH2 0x160B SWAP1 PUSH2 0x2CF0 JUMP JUMPDEST PUSH1 0x40 MLOAD DUP1 SWAP2 SUB SWAP1 REVERT JUMPDEST SWAP3 POP SWAP3 SWAP1 POP JUMP JUMPDEST PUSH0 DUP1 PUSH0 PUSH20 0xFFFFFFFFFFFFFFFFFFFFFFFFFFFFFFFFFFFFFFFF AND PUSH32 0x0 PUSH20 0xFFFFFFFFFFFFFFFFFFFFFFFFFFFFFFFFFFFFFFFF AND PUSH4 0xE6A43905 DUP11 DUP11 PUSH1 0x40 MLOAD DUP4 PUSH4 0xFFFFFFFF AND PUSH1 0xE0 SHL DUP2 MSTORE PUSH1 0x4 ADD PUSH2 0x168F SWAP3 SWAP2 SWAP1 PUSH2 0x2D0E JUMP JUMPDEST PUSH1 0x20 PUSH1 0x40 MLOAD DUP1 DUP4 SUB DUP2 DUP7 GAS STATICCALL ISZERO DUP1 ISZERO PUSH2 0x16AA JUMPI RETURNDATASIZE PUSH0 DUP1 RETURNDATACOPY RETURNDATASIZE PUSH0 REVERT JUMPDEST POP POP POP POP PUSH1 0x40 MLOAD RETURNDATASIZE PUSH1 0x1F NOT PUSH1 0x1F DUP3 ADD AND DUP3 ADD DUP1 PUSH1 0x40 MSTORE POP DUP2 ADD SWAP1 PUSH2 0x16CE SWAP2 SWAP1 PUSH2 0x2D49 JUMP JUMPDEST PUSH20 0xFFFFFFFFFFFFFFFFFFFFFFFFFFFFFFFFFFFFFFFF AND SUB PUSH2 0x1786 JUMPI PUSH32 0x0 PUSH20 0xFFFFFFFFFFFFFFFFFFFFFFFFFFFFFFFFFFFFFFFF AND PUSH4 0xC9C65396 DUP10 DUP10 PUSH1 0x40 MLOAD DUP4 PUSH4 0xFFFFFFFF AND PUSH1 0xE0 SHL DUP2 MSTORE PUSH1 0x4 ADD PUSH2 0x1744 SWAP3 SWAP2 SWAP1 PUSH2 0x2D0E JUMP JUMPDEST PUSH1 0x20 PUSH1 0x40 MLOAD DUP1 DUP4 SUB DUP2 PUSH0 DUP8 GAS CALL ISZERO DUP1 ISZERO PUSH2 0x1760 JUMPI RETURNDATASIZE PUSH0 DUP1 RETURNDATACOPY RETURNDATASIZE PUSH0 REVERT JUMPDEST POP POP POP POP PUSH1 0x40 MLOAD RETURNDATASIZE PUSH1 0x1F NOT PUSH1 0x1F DUP3 ADD AND DUP3 ADD DUP1 PUSH1 0x40 MSTORE POP DUP2 ADD SWAP1 PUSH2 0x1784 SWAP2 SWAP1 PUSH2 0x2D49 JUMP JUMPDEST POP JUMPDEST PUSH0 DUP1 PUSH2 0x17B3 PUSH32 0x0 DUP12 DUP12 PUSH2 0x1981 JUMP JUMPDEST SWAP2 POP SWAP2 POP PUSH0 DUP3 EQ DUP1 ISZERO PUSH2 0x17C5 JUMPI POP PUSH0 DUP2 EQ JUMPDEST ISZERO PUSH2 0x17D9 JUMPI DUP8 DUP8 DUP1 SWAP5 POP DUP2 SWAP6 POP POP POP PUSH2 0x18B0 JUMP JUMPDEST PUSH0 PUSH2 0x17E5 DUP10 DUP5 DUP5 PUSH2 0x143A JUMP JUMPDEST SWAP1 POP DUP8 DUP2 GT PUSH2 0x1840 JUMPI DUP6 DUP2 LT ISZERO PUSH2 0x1831 JUMPI PUSH1 0x40 MLOAD PUSH32 0x8C379A000000000000000000000000000000000000000000000000000000000 DUP2 MSTORE PUSH1 0x4 ADD PUSH2 0x1828 SWAP1 PUSH2 0x255E JUMP JUMPDEST PUSH1 0x40 MLOAD DUP1 SWAP2 SUB SWAP1 REVERT JUMPDEST DUP9 DUP2 DUP1 SWAP6 POP DUP2 SWAP7 POP POP POP PUSH2 0x18AE JUMP JUMPDEST PUSH0 PUSH2 0x184C DUP10 DUP5 DUP7 PUSH2 0x143A JUMP JUMPDEST SWAP1 POP DUP10 DUP2 GT ISZERO PUSH2 0x185F JUMPI PUSH2 0x185E PUSH2 0x2D74 JUMP JUMPDEST JUMPDEST DUP8 DUP2 LT ISZERO PUSH2 0x18A2 JUMPI PUSH1 0x40 MLOAD PUSH32 0x8C379A000000000000000000000000000000000000000000000000000000000 DUP2 MSTORE PUSH1 0x4 ADD PUSH2 0x1899 SWAP1 PUSH2 0x24D0 JUMP JUMPDEST PUSH1 0x40 MLOAD DUP1 SWAP2 SUB SWAP1 REVERT JUMPDEST DUP1 DUP10 DUP1 SWAP7 POP DUP2 SWAP8 POP POP POP POP JUMPDEST POP JUMPDEST POP POP SWAP7 POP SWAP7 SWAP5 POP POP POP POP POP JUMP JUMPDEST PUSH0 DUP1 DUP3 EQ DUP1 PUSH2 0x18E4 JUMPI POP DUP3 DUP3 DUP4 DUP6 PUSH2 0x18D5 SWAP2 SWAP1 PUSH2 0x2DA1 JUMP JUMPDEST SWAP3 POP DUP3 PUSH2 0x18E2 SWAP2 SWAP1 PUSH2 0x26F0 JUMP JUMPDEST EQ JUMPDEST PUSH2 0x1923 JUMPI PUSH1 0x40 MLOAD PUSH32 0x8C379A000000000000000000000000000000000000000000000000000000000 DUP2 MSTORE PUSH1 0x4 ADD PUSH2 0x191A SWAP1 PUSH2 0x2E2C JUMP JUMPDEST PUSH1 0x40 MLOAD DUP1 SWAP2 SUB SWAP1 REVERT JUMPDEST SWAP3 SWAP2 POP POP JUMP JUMPDEST PUSH0 DUP3 DUP3 DUP5 PUSH2 0x1937 SWAP2 SWAP1 PUSH2 0x27AF JUMP JUMPDEST SWAP2 POP DUP2 LT ISZERO PUSH2 0x197B JUMPI PUSH1 0x40 MLOAD PUSH32 0x8C379A000000000000000000000000000000000000000000000000000000000 DUP2 MSTORE PUSH1 0x4 ADD PUSH2 0x1972 SWAP1 PUSH2 0x2E94 JUMP JUMPDEST PUSH1 0x40 MLOAD DUP1 SWAP2 SUB SWAP1 REVERT JUMPDEST SWAP3 SWAP2 POP POP JUMP JUMPDEST PUSH0 DUP1 PUSH0 PUSH2 0x198E DUP6 DUP6 PUSH2 0x14F1 JUMP JUMPDEST POP SWAP1 POP PUSH0 DUP1 PUSH2 0x199E DUP9 DUP9 DUP9 PUSH2 0xF45 JUMP JUMPDEST PUSH20 0xFFFFFFFFFFFFFFFFFFFFFFFFFFFFFFFFFFFFFFFF AND PUSH4 0x902F1AC PUSH1 0x40 MLOAD DUP2 PUSH4 0xFFFFFFFF AND PUSH1 0xE0 SHL DUP2 MSTORE PUSH1 0x4 ADD PUSH1 0x40 DUP1 MLOAD DUP1 DUP4 SUB DUP2 DUP7 GAS STATICCALL ISZERO DUP1 ISZERO PUSH2 0x19E5 JUMPI RETURNDATASIZE PUSH0 DUP1 RETURNDATACOPY RETURNDATASIZE PUSH0 REVERT JUMPDEST POP POP POP POP PUSH1 0x40 MLOAD RETURNDATASIZE PUSH1 0x1F NOT PUSH1 0x1F DUP3 ADD AND DUP3 ADD DUP1 PUSH1 0x40 MSTORE POP DUP2 ADD SWAP1 PUSH2 0x1A09 SWAP2 SWAP1 PUSH2 0x2EF5 JUMP JUMPDEST PUSH14 0xFFFFFFFFFFFFFFFFFFFFFFFFFFFF AND SWAP2 POP PUSH14 0xFFFFFFFFFFFFFFFFFFFFFFFFFFFF AND SWAP2 POP DUP3 PUSH20 0xFFFFFFFFFFFFFFFFFFFFFFFFFFFFFFFFFFFFFFFF AND DUP8 PUSH20 0xFFFFFFFFFFFFFFFFFFFFFFFFFFFFFFFFFFFFFFFF AND EQ PUSH2 0x1A67 JUMPI DUP1 DUP3 PUSH2 0x1A6A JUMP JUMPDEST DUP2 DUP2 JUMPDEST DUP1 SWAP6 POP DUP2 SWAP7 POP POP POP POP POP POP SWAP4 POP SWAP4 SWAP2 POP POP JUMP JUMPDEST PUSH0 DUP3 DUP3 DUP5 PUSH2 0x1A8B SWAP2 SWAP1 PUSH2 0x21D2 JUMP JUMPDEST SWAP2 POP DUP2 GT ISZERO PUSH2 0x1ACF JUMPI PUSH1 0x40 MLOAD PUSH32 0x8C379A000000000000000000000000000000000000000000000000000000000 DUP2 MSTORE PUSH1 0x4 ADD PUSH2 0x1AC6 SWAP1 PUSH2 0x2F7D JUMP JUMPDEST PUSH1 0x40 MLOAD DUP1 SWAP2 SUB SWAP1 REVERT JUMPDEST SWAP3 SWAP2 POP POP JUMP JUMPDEST PUSH0 PUSH1 0x40 MLOAD SWAP1 POP SWAP1 JUMP JUMPDEST PUSH0 DUP1 REVERT JUMPDEST PUSH0 DUP1 REVERT JUMPDEST PUSH0 DUP2 SWAP1 POP SWAP2 SWAP1 POP JUMP JUMPDEST PUSH2 0x1AF8 DUP2 PUSH2 0x1AE6 JUMP JUMPDEST DUP2 EQ PUSH2 0x1B02 JUMPI PUSH0 DUP1 REVERT JUMPDEST POP JUMP JUMPDEST PUSH0 DUP2 CALLDATALOAD SWAP1 POP PUSH2 0x1B13 DUP2 PUSH2 0x1AEF JUMP JUMPDEST SWAP3 SWAP2 POP POP JUMP JUMPDEST PUSH0 DUP1 PUSH0 PUSH1 0x60 DUP5 DUP7 SUB SLT ISZERO PUSH2 0x1B30 JUMPI PUSH2 0x1B2F PUSH2 0x1ADE JUMP JUMPDEST JUMPDEST PUSH0 PUSH2 0x1B3D DUP7 DUP3 DUP8 ADD PUSH2 0x1B05 JUMP JUMPDEST SWAP4 POP POP PUSH1 0x20 PUSH2 0x1B4E DUP7 DUP3 DUP8 ADD PUSH2 0x1B05 JUMP JUMPDEST SWAP3 POP POP PUSH1 0x40 PUSH2 0x1B5F DUP7 DUP3 DUP8 ADD PUSH2 0x1B05 JUMP JUMPDEST SWAP2 POP POP SWAP3 POP SWAP3 POP SWAP3 JUMP JUMPDEST PUSH2 0x1B72 DUP2 PUSH2 0x1AE6 JUMP JUMPDEST DUP3 MSTORE POP POP JUMP JUMPDEST PUSH0 PUSH1 0x20 DUP3 ADD SWAP1 POP PUSH2 0x1B8B PUSH0 DUP4 ADD DUP5 PUSH2 0x1B69 JUMP JUMPDEST SWAP3 SWAP2 POP POP JUMP JUMPDEST PUSH0 DUP1 REVERT JUMPDEST PUSH0 PUSH1 0x1F NOT PUSH1 0x1F DUP4 ADD AND SWAP1 POP SWAP2 SWAP1 POP JUMP JUMPDEST PUSH32 0x4E487B7100000000000000000000000000000000000000000000000000000000 PUSH0 MSTORE PUSH1 0x41 PUSH1 0x4 MSTORE PUSH1 0x24 PUSH0 REVERT JUMPDEST PUSH2 0x1BDB DUP3 PUSH2 0x1B95 JUMP JUMPDEST DUP2 ADD DUP2 DUP2 LT PUSH8 0xFFFFFFFFFFFFFFFF DUP3 GT OR ISZERO PUSH2 0x1BFA JUMPI PUSH2 0x1BF9 PUSH2 0x1BA5 JUMP JUMPDEST JUMPDEST DUP1 PUSH1 0x40 MSTORE POP POP POP JUMP JUMPDEST PUSH0 PUSH2 0x1C0C PUSH2 0x1AD5 JUMP JUMPDEST SWAP1 POP PUSH2 0x1C18 DUP3 DUP3 PUSH2 0x1BD2 JUMP JUMPDEST SWAP2 SWAP1 POP JUMP JUMPDEST PUSH0 PUSH8 0xFFFFFFFFFFFFFFFF DUP3 GT ISZERO PUSH2 0x1C37 JUMPI PUSH2 0x1C36 PUSH2 0x1BA5 JUMP JUMPDEST JUMPDEST PUSH1 0x20 DUP3 MUL SWAP1 POP PUSH1 0x20 DUP2 ADD SWAP1 POP SWAP2 SWAP1 POP JUMP JUMPDEST PUSH0 DUP1 REVERT JUMPDEST PUSH0 PUSH20 0xFFFFFFFFFFFFFFFFFFFFFFFFFFFFFFFFFFFFFFFF DUP3 AND SWAP1 POP SWAP2 SWAP1 POP JUMP JUMPDEST PUSH0 PUSH2 0x1C75 DUP3 PUSH2 0x1C4C JUMP JUMPDEST SWAP1 POP SWAP2 SWAP1 POP JUMP JUMPDEST PUSH2 0x1C85 DUP2 PUSH2 0x1C6B JUMP JUMPDEST DUP2 EQ PUSH2 0x1C8F JUMPI PUSH0 DUP1 REVERT JUMPDEST POP JUMP JUMPDEST PUSH0 DUP2 CALLDATALOAD SWAP1 POP PUSH2 0x1CA0 DUP2 PUSH2 0x1C7C JUMP JUMPDEST SWAP3 SWAP2 POP POP JUMP JUMPDEST PUSH0 PUSH2 0x1CB8 PUSH2 0x1CB3 DUP5 PUSH2 0x1C1D JUMP JUMPDEST PUSH2 0x1C03 JUMP JUMPDEST SWAP1 POP DUP1 DUP4 DUP3 MSTORE PUSH1 0x20 DUP3 ADD SWAP1 POP PUSH1 0x20 DUP5 MUL DUP4 ADD DUP6 DUP2 GT ISZERO PUSH2 0x1CDB JUMPI PUSH2 0x1CDA PUSH2 0x1C48 JUMP JUMPDEST JUMPDEST DUP4 JUMPDEST DUP2 DUP2 LT ISZERO PUSH2 0x1D04 JUMPI DUP1 PUSH2 0x1CF0 DUP9 DUP3 PUSH2 0x1C92 JUMP JUMPDEST DUP5 MSTORE PUSH1 0x20 DUP5 ADD SWAP4 POP POP PUSH1 0x20 DUP2 ADD SWAP1 POP PUSH2 0x1CDD JUMP JUMPDEST POP POP POP SWAP4 SWAP3 POP POP POP JUMP JUMPDEST PUSH0 DUP3 PUSH1 0x1F DUP4 ADD SLT PUSH2 0x1D22 JUMPI PUSH2 0x1D21 PUSH2 0x1B91 JUMP JUMPDEST JUMPDEST DUP2 CALLDATALOAD PUSH2 0x1D32 DUP5 DUP3 PUSH1 0x20 DUP7 ADD PUSH2 0x1CA6 JUMP JUMPDEST SWAP2 POP POP SWAP3 SWAP2 POP POP JUMP JUMPDEST PUSH0 DUP1 PUSH1 0x40 DUP4 DUP6 SUB SLT ISZERO PUSH2 0x1D51 JUMPI PUSH2 0x1D50 PUSH2 0x1ADE JUMP JUMPDEST JUMPDEST PUSH0 PUSH2 0x1D5E DUP6 DUP3 DUP7 ADD PUSH2 0x1B05 JUMP JUMPDEST SWAP3 POP POP PUSH1 0x20 DUP4 ADD CALLDATALOAD PUSH8 0xFFFFFFFFFFFFFFFF DUP2 GT ISZERO PUSH2 0x1D7F JUMPI PUSH2 0x1D7E PUSH2 0x1AE2 JUMP JUMPDEST JUMPDEST PUSH2 0x1D8B DUP6 DUP3 DUP7 ADD PUSH2 0x1D0E JUMP JUMPDEST SWAP2 POP POP SWAP3 POP SWAP3 SWAP1 POP JUMP JUMPDEST PUSH0 DUP2 MLOAD SWAP1 POP SWAP2 SWAP1 POP JUMP JUMPDEST PUSH0 DUP3 DUP3 MSTORE PUSH1 0x20 DUP3 ADD SWAP1 POP SWAP3 SWAP2 POP POP JUMP JUMPDEST PUSH0 DUP2 SWAP1 POP PUSH1 0x20 DUP3 ADD SWAP1 POP SWAP2 SWAP1 POP JUMP JUMPDEST PUSH2 0x1DC7 DUP2 PUSH2 0x1AE6 JUMP JUMPDEST DUP3 MSTORE POP POP JUMP JUMPDEST PUSH0 PUSH2 0x1DD8 DUP4 DUP4 PUSH2 0x1DBE JUMP JUMPDEST PUSH1 0x20 DUP4 ADD SWAP1 POP SWAP3 SWAP2 POP POP JUMP JUMPDEST PUSH0 PUSH1 0x20 DUP3 ADD SWAP1 POP SWAP2 SWAP1 POP JUMP JUMPDEST PUSH0 PUSH2 0x1DFA DUP3 PUSH2 0x1D95 JUMP JUMPDEST PUSH2 0x1E04 DUP2 DUP6 PUSH2 0x1D9F JUMP JUMPDEST SWAP4 POP PUSH2 0x1E0F DUP4 PUSH2 0x1DAF JUMP JUMPDEST DUP1 PUSH0 JUMPDEST DUP4 DUP2 LT ISZERO PUSH2 0x1E3F JUMPI DUP2 MLOAD PUSH2 0x1E26 DUP9 DUP3 PUSH2 0x1DCD JUMP JUMPDEST SWAP8 POP PUSH2 0x1E31 DUP4 PUSH2 0x1DE4 JUMP JUMPDEST SWAP3 POP POP PUSH1 0x1 DUP2 ADD SWAP1 POP PUSH2 0x1E12 JUMP JUMPDEST POP DUP6 SWAP4 POP POP POP POP SWAP3 SWAP2 POP POP JUMP JUMPDEST PUSH0 PUSH1 0x20 DUP3 ADD SWAP1 POP DUP2 DUP2 SUB PUSH0 DUP4 ADD MSTORE PUSH2 0x1E64 DUP2 DUP5 PUSH2 0x1DF0 JUMP JUMPDEST SWAP1 POP SWAP3 SWAP2 POP POP JUMP JUMPDEST PUSH0 DUP1 REVERT JUMPDEST PUSH0 DUP1 DUP4 PUSH1 0x1F DUP5 ADD SLT PUSH2 0x1E85 JUMPI PUSH2 0x1E84 PUSH2 0x1B91 JUMP JUMPDEST JUMPDEST DUP3 CALLDATALOAD SWAP1 POP PUSH8 0xFFFFFFFFFFFFFFFF DUP2 GT ISZERO PUSH2 0x1EA2 JUMPI PUSH2 0x1EA1 PUSH2 0x1E6C JUMP JUMPDEST JUMPDEST PUSH1 0x20 DUP4 ADD SWAP2 POP DUP4 PUSH1 0x20 DUP3 MUL DUP4 ADD GT ISZERO PUSH2 0x1EBE JUMPI PUSH2 0x1EBD PUSH2 0x1C48 JUMP JUMPDEST JUMPDEST SWAP3 POP SWAP3 SWAP1 POP JUMP JUMPDEST PUSH0 DUP1 PUSH0 DUP1 PUSH0 DUP1 PUSH1 0xA0 DUP8 DUP10 SUB SLT ISZERO PUSH2 0x1EDF JUMPI PUSH2 0x1EDE PUSH2 0x1ADE JUMP JUMPDEST JUMPDEST PUSH0 PUSH2 0x1EEC DUP10 DUP3 DUP11 ADD PUSH2 0x1B05 JUMP JUMPDEST SWAP7 POP POP PUSH1 0x20 PUSH2 0x1EFD DUP10 DUP3 DUP11 ADD PUSH2 0x1B05 JUMP JUMPDEST SWAP6 POP POP PUSH1 0x40 DUP8 ADD CALLDATALOAD PUSH8 0xFFFFFFFFFFFFFFFF DUP2 GT ISZERO PUSH2 0x1F1E JUMPI PUSH2 0x1F1D PUSH2 0x1AE2 JUMP JUMPDEST JUMPDEST PUSH2 0x1F2A DUP10 DUP3 DUP11 ADD PUSH2 0x1E70 JUMP JUMPDEST SWAP5 POP SWAP5 POP POP PUSH1 0x60 PUSH2 0x1F3D DUP10 DUP3 DUP11 ADD PUSH2 0x1C92 JUMP JUMPDEST SWAP3 POP POP PUSH1 0x80 PUSH2 0x1F4E DUP10 DUP3 DUP11 ADD PUSH2 0x1B05 JUMP JUMPDEST SWAP2 POP POP SWAP3 SWAP6 POP SWAP3 SWAP6 POP SWAP3 SWAP6 JUMP JUMPDEST PUSH0 DUP1 PUSH0 DUP1 PUSH0 DUP1 PUSH0 PUSH1 0xE0 DUP9 DUP11 SUB SLT ISZERO PUSH2 0x1F76 JUMPI PUSH2 0x1F75 PUSH2 0x1ADE JUMP JUMPDEST JUMPDEST PUSH0 PUSH2 0x1F83 DUP11 DUP3 DUP12 ADD PUSH2 0x1C92 JUMP JUMPDEST SWAP8 POP POP PUSH1 0x20 PUSH2 0x1F94 DUP11 DUP3 DUP12 ADD PUSH2 0x1C92 JUMP JUMPDEST SWAP7 POP POP PUSH1 0x40 PUSH2 0x1FA5 DUP11 DUP3 DUP12 ADD PUSH2 0x1B05 JUMP JUMPDEST SWAP6 POP POP PUSH1 0x60 PUSH2 0x1FB6 DUP11 DUP3 DUP12 ADD PUSH2 0x1B05 JUMP JUMPDEST SWAP5 POP POP PUSH1 0x80 PUSH2 0x1FC7 DUP11 DUP3 DUP12 ADD PUSH2 0x1B05 JUMP JUMPDEST SWAP4 POP POP PUSH1 0xA0 PUSH2 0x1FD8 DUP11 DUP3 DUP12 ADD PUSH2 0x1C92 JUMP JUMPDEST SWAP3 POP POP PUSH1 0xC0 PUSH2 0x1FE9 DUP11 DUP3 DUP12 ADD PUSH2 0x1B05 JUMP JUMPDEST SWAP2 POP POP SWAP3 SWAP6 SWAP9 SWAP2 SWAP5 SWAP8 POP SWAP3 SWAP6 POP JUMP JUMPDEST PUSH0 PUSH1 0x40 DUP3 ADD SWAP1 POP PUSH2 0x200B PUSH0 DUP4 ADD DUP6 PUSH2 0x1B69 JUMP JUMPDEST PUSH2 0x2018 PUSH1 0x20 DUP4 ADD DUP5 PUSH2 0x1B69 JUMP JUMPDEST SWAP4 SWAP3 POP POP POP JUMP JUMPDEST PUSH2 0x2028 DUP2 PUSH2 0x1C6B JUMP JUMPDEST DUP3 MSTORE POP POP JUMP JUMPDEST PUSH0 PUSH1 0x20 DUP3 ADD SWAP1 POP PUSH2 0x2041 PUSH0 DUP4 ADD DUP5 PUSH2 0x201F JUMP JUMPDEST SWAP3 SWAP2 POP POP JUMP JUMPDEST PUSH0 DUP1 PUSH0 DUP1 PUSH0 DUP1 PUSH0 DUP1 PUSH2 0x100 DUP10 DUP12 SUB SLT ISZERO PUSH2 0x2064 JUMPI PUSH2 0x2063 PUSH2 0x1ADE JUMP JUMPDEST JUMPDEST PUSH0 PUSH2 0x2071 DUP12 DUP3 DUP13 ADD PUSH2 0x1C92 JUMP JUMPDEST SWAP9 POP POP PUSH1 0x20 PUSH2 0x2082 DUP12 DUP3 DUP13 ADD PUSH2 0x1C92 JUMP JUMPDEST SWAP8 POP POP PUSH1 0x40 PUSH2 0x2093 DUP12 DUP3 DUP13 ADD PUSH2 0x1B05 JUMP JUMPDEST SWAP7 POP POP PUSH1 0x60 PUSH2 0x20A4 DUP12 DUP3 DUP13 ADD PUSH2 0x1B05 JUMP JUMPDEST SWAP6 POP POP PUSH1 0x80 PUSH2 0x20B5 DUP12 DUP3 DUP13 ADD PUSH2 0x1B05 JUMP JUMPDEST SWAP5 POP POP PUSH1 0xA0 PUSH2 0x20C6 DUP12 DUP3 DUP13 ADD PUSH2 0x1B05 JUMP JUMPDEST SWAP4 POP POP PUSH1 0xC0 PUSH2 0x20D7 DUP12 DUP3 DUP13 ADD PUSH2 0x1C92 JUMP JUMPDEST SWAP3 POP POP PUSH1 0xE0 PUSH2 0x20E8 DUP12 DUP3 DUP13 ADD PUSH2 0x1B05 JUMP JUMPDEST SWAP2 POP POP SWAP3 SWAP6 SWAP9 POP SWAP3 SWAP6 SWAP9 SWAP1 SWAP4 SWAP7 POP JUMP JUMPDEST PUSH0 PUSH1 0x60 DUP3 ADD SWAP1 POP PUSH2 0x210B PUSH0 DUP4 ADD DUP7 PUSH2 0x1B69 JUMP JUMPDEST PUSH2 0x2118 PUSH1 0x20 DUP4 ADD DUP6 PUSH2 0x1B69 JUMP JUMPDEST PUSH2 0x2125 PUSH1 0x40 DUP4 ADD DUP5 PUSH2 0x1B69 JUMP JUMPDEST SWAP5 SWAP4 POP POP POP POP JUMP JUMPDEST PUSH0 DUP3 DUP3 MSTORE PUSH1 0x20 DUP3 ADD SWAP1 POP SWAP3 SWAP2 POP POP JUMP JUMPDEST PUSH32 0x556E69737761705632526F757465723A20455850495245440000000000000000 PUSH0 DUP3 ADD MSTORE POP JUMP JUMPDEST PUSH0 PUSH2 0x2171 PUSH1 0x18 DUP4 PUSH2 0x212D JUMP JUMPDEST SWAP2 POP PUSH2 0x217C DUP3 PUSH2 0x213D JUMP JUMPDEST PUSH1 0x20 DUP3 ADD SWAP1 POP SWAP2 SWAP1 POP JUMP JUMPDEST PUSH0 PUSH1 0x20 DUP3 ADD SWAP1 POP DUP2 DUP2 SUB PUSH0 DUP4 ADD MSTORE PUSH2 0x219E DUP2 PUSH2 0x2165 JUMP JUMPDEST SWAP1 POP SWAP2 SWAP1 POP JUMP JUMPDEST PUSH32 0x4E487B7100000000000000000000000000000000000000000000000000000000 PUSH0 MSTORE PUSH1 0x11 PUSH1 0x4 MSTORE PUSH1 0x24 PUSH0 REVERT JUMPDEST PUSH0 PUSH2 0x21DC DUP3 PUSH2 0x1AE6 JUMP JUMPDEST SWAP2 POP PUSH2 0x21E7 DUP4 PUSH2 0x1AE6 JUMP JUMPDEST SWAP3 POP DUP3 DUP3 SUB SWAP1 POP DUP2 DUP2 GT ISZERO PUSH2 0x21FF JUMPI PUSH2 0x21FE PUSH2 0x21A5 JUMP JUMPDEST JUMPDEST SWAP3 SWAP2 POP POP JUMP JUMPDEST PUSH32 0x4E487B7100000000000000000000000000000000000000000000000000000000 PUSH0 MSTORE PUSH1 0x32 PUSH1 0x4 MSTORE PUSH1 0x24 PUSH0 REVERT JUMPDEST PUSH32 0x556E69737761705632526F757465723A20494E53554646494349454E545F4F55 PUSH0 DUP3 ADD MSTORE PUSH32 0x545055545F414D4F554E54000000000000000000000000000000000000000000 PUSH1 0x20 DUP3 ADD MSTORE POP JUMP JUMPDEST PUSH0 PUSH2 0x228C PUSH1 0x2B DUP4 PUSH2 0x212D JUMP JUMPDEST SWAP2 POP PUSH2 0x2297 DUP3 PUSH2 0x2232 JUMP JUMPDEST PUSH1 0x40 DUP3 ADD SWAP1 POP SWAP2 SWAP1 POP JUMP JUMPDEST PUSH0 PUSH1 0x20 DUP3 ADD SWAP1 POP DUP2 DUP2 SUB PUSH0 DUP4 ADD MSTORE PUSH2 0x22B9 DUP2 PUSH2 0x2280 JUMP JUMPDEST SWAP1 POP SWAP2 SWAP1 POP JUMP JUMPDEST PUSH0 PUSH1 0x20 DUP3 DUP5 SUB SLT ISZERO PUSH2 0x22D5 JUMPI PUSH2 0x22D4 PUSH2 0x1ADE JUMP JUMPDEST JUMPDEST PUSH0 PUSH2 0x22E2 DUP5 DUP3 DUP6 ADD PUSH2 0x1C92 JUMP JUMPDEST SWAP2 POP POP SWAP3 SWAP2 POP POP JUMP JUMPDEST PUSH32 0x556E69737761705632526F757465723A204558434553534956455F494E505554 PUSH0 DUP3 ADD MSTORE PUSH32 0x5F414D4F554E5400000000000000000000000000000000000000000000000000 PUSH1 0x20 DUP3 ADD MSTORE POP JUMP JUMPDEST PUSH0 PUSH2 0x2345 PUSH1 0x27 DUP4 PUSH2 0x212D JUMP JUMPDEST SWAP2 POP PUSH2 0x2350 DUP3 PUSH2 0x22EB JUMP JUMPDEST PUSH1 0x40 DUP3 ADD SWAP1 POP SWAP2 SWAP1 POP JUMP JUMPDEST PUSH0 PUSH1 0x20 DUP3 ADD SWAP1 POP DUP2 DUP2 SUB PUSH0 DUP4 ADD MSTORE PUSH2 0x2372 DUP2 PUSH2 0x2339 JUMP JUMPDEST SWAP1 POP SWAP2 SWAP1 POP JUMP JUMPDEST PUSH0 PUSH1 0x60 DUP3 ADD SWAP1 POP PUSH2 0x238C PUSH0 DUP4 ADD DUP7 PUSH2 0x201F JUMP JUMPDEST PUSH2 0x2399 PUSH1 0x20 DUP4 ADD DUP6 PUSH2 0x201F JUMP JUMPDEST PUSH2 0x23A6 PUSH1 0x40 DUP4 ADD DUP5 PUSH2 0x1B69 JUMP JUMPDEST SWAP5 SWAP4 POP POP POP POP JUMP JUMPDEST PUSH0 DUP2 ISZERO ISZERO SWAP1 POP SWAP2 SWAP1 POP JUMP JUMPDEST PUSH2 0x23C2 DUP2 PUSH2 0x23AE JUMP JUMPDEST DUP2 EQ PUSH2 0x23CC JUMPI PUSH0 DUP1 REVERT JUMPDEST POP JUMP JUMPDEST PUSH0 DUP2 MLOAD SWAP1 POP PUSH2 0x23DD DUP2 PUSH2 0x23B9 JUMP JUMPDEST SWAP3 SWAP2 POP POP JUMP JUMPDEST PUSH0 PUSH1 0x20 DUP3 DUP5 SUB SLT ISZERO PUSH2 0x23F8 JUMPI PUSH2 0x23F7 PUSH2 0x1ADE JUMP JUMPDEST JUMPDEST PUSH0 PUSH2 0x2405 DUP5 DUP3 DUP6 ADD PUSH2 0x23CF JUMP JUMPDEST SWAP2 POP POP SWAP3 SWAP2 POP POP JUMP JUMPDEST PUSH0 DUP2 MLOAD SWAP1 POP PUSH2 0x241C DUP2 PUSH2 0x1AEF JUMP JUMPDEST SWAP3 SWAP2 POP POP JUMP JUMPDEST PUSH0 DUP1 PUSH1 0x40 DUP4 DUP6 SUB SLT ISZERO PUSH2 0x2438 JUMPI PUSH2 0x2437 PUSH2 0x1ADE JUMP JUMPDEST JUMPDEST PUSH0 PUSH2 0x2445 DUP6 DUP3 DUP7 ADD PUSH2 0x240E JUMP JUMPDEST SWAP3 POP POP PUSH1 0x20 PUSH2 0x2456 DUP6 DUP3 DUP7 ADD PUSH2 0x240E JUMP JUMPDEST SWAP2 POP POP SWAP3 POP SWAP3 SWAP1 POP JUMP JUMPDEST PUSH32 0x556E69737761705632526F757465723A20494E53554646494349454E545F415F PUSH0 DUP3 ADD MSTORE PUSH32 0x414D4F554E540000000000000000000000000000000000000000000000000000 PUSH1 0x20 DUP3 ADD MSTORE POP JUMP JUMPDEST PUSH0 PUSH2 0x24BA PUSH1 0x26 DUP4 PUSH2 0x212D JUMP JUMPDEST SWAP2 POP PUSH2 0x24C5 DUP3 PUSH2 0x2460 JUMP JUMPDEST PUSH1 0x40 DUP3 ADD SWAP1 POP SWAP2 SWAP1 POP JUMP JUMPDEST PUSH0 PUSH1 0x20 DUP3 ADD SWAP1 POP DUP2 DUP2 SUB PUSH0 DUP4 ADD MSTORE PUSH2 0x24E7 DUP2 PUSH2 0x24AE JUMP JUMPDEST SWAP1 POP SWAP2 SWAP1 POP JUMP JUMPDEST PUSH32 0x556E69737761705632526F757465723A20494E53554646494349454E545F425F PUSH0 DUP3 ADD MSTORE PUSH32 0x414D4F554E540000000000000000000000000000000000000000000000000000 PUSH1 0x20 DUP3 ADD MSTORE POP JUMP JUMPDEST PUSH0 PUSH2 0x2548 PUSH1 0x26 DUP4 PUSH2 0x212D JUMP JUMPDEST SWAP2 POP PUSH2 0x2553 DUP3 PUSH2 0x24EE JUMP JUMPDEST PUSH1 0x40 DUP3 ADD SWAP1 POP SWAP2 SWAP1 POP JUMP JUMPDEST PUSH0 PUSH1 0x20 DUP3 ADD SWAP1 POP DUP2 DUP2 SUB PUSH0 DUP4 ADD MSTORE PUSH2 0x2575 DUP2 PUSH2 0x253C JUMP JUMPDEST SWAP1 POP SWAP2 SWAP1 POP JUMP JUMPDEST PUSH0 PUSH1 0x20 DUP3 DUP5 SUB SLT ISZERO PUSH2 0x2591 JUMPI PUSH2 0x2590 PUSH2 0x1ADE JUMP JUMPDEST JUMPDEST PUSH0 PUSH2 0x259E DUP5 DUP3 DUP6 ADD PUSH2 0x240E JUMP JUMPDEST SWAP2 POP POP SWAP3 SWAP2 POP POP JUMP JUMPDEST PUSH32 0x556E697377617056324C6962726172793A20494E53554646494349454E545F49 PUSH0 DUP3 ADD MSTORE PUSH32 0x4E5055545F414D4F554E54000000000000000000000000000000000000000000 PUSH1 0x20 DUP3 ADD MSTORE POP JUMP JUMPDEST PUSH0 PUSH2 0x2601 PUSH1 0x2B DUP4 PUSH2 0x212D JUMP JUMPDEST SWAP2 POP PUSH2 0x260C DUP3 PUSH2 0x25A7 JUMP JUMPDEST PUSH1 0x40 DUP3 ADD SWAP1 POP SWAP2 SWAP1 POP JUMP JUMPDEST PUSH0 PUSH1 0x20 DUP3 ADD SWAP1 POP DUP2 DUP2 SUB PUSH0 DUP4 ADD MSTORE PUSH2 0x262E DUP2 PUSH2 0x25F5 JUMP JUMPDEST SWAP1 POP SWAP2 SWAP1 POP JUMP JUMPDEST PUSH32 0x556E697377617056324C6962726172793A20494E53554646494349454E545F4C PUSH0 DUP3 ADD MSTORE PUSH32 0x4951554944495459000000000000000000000000000000000000000000000000 PUSH1 0x20 DUP3 ADD MSTORE POP JUMP JUMPDEST PUSH0 PUSH2 0x268F PUSH1 0x28 DUP4 PUSH2 0x212D JUMP JUMPDEST SWAP2 POP PUSH2 0x269A DUP3 PUSH2 0x2635 JUMP JUMPDEST PUSH1 0x40 DUP3 ADD SWAP1 POP SWAP2 SWAP1 POP JUMP JUMPDEST PUSH0 PUSH1 0x20 DUP3 ADD SWAP1 POP DUP2 DUP2 SUB PUSH0 DUP4 ADD MSTORE PUSH2 0x26BC DUP2 PUSH2 0x2683 JUMP JUMPDEST SWAP1 POP SWAP2 SWAP1 POP JUMP JUMPDEST PUSH32 0x4E487B7100000000000000000000000000000000000000000000000000000000 PUSH0 MSTORE PUSH1 0x12 PUSH1 0x4 MSTORE PUSH1 0x24 PUSH0 REVERT JUMPDEST PUSH0 PUSH2 0x26FA DUP3 PUSH2 0x1AE6 JUMP JUMPDEST SWAP2 POP PUSH2 0x2705 DUP4 PUSH2 0x1AE6 JUMP JUMPDEST SWAP3 POP DUP3 PUSH2 0x2715 JUMPI PUSH2 0x2714 PUSH2 0x26C3 JUMP JUMPDEST JUMPDEST DUP3 DUP3 DIV SWAP1 POP SWAP3 SWAP2 POP POP JUMP JUMPDEST PUSH32 0x556E697377617056324C6962726172793A20494E56414C49445F504154480000 PUSH0 DUP3 ADD MSTORE POP JUMP JUMPDEST PUSH0 PUSH2 0x2754 PUSH1 0x1E DUP4 PUSH2 0x212D JUMP JUMPDEST SWAP2 POP PUSH2 0x275F DUP3 PUSH2 0x2720 JUMP JUMPDEST PUSH1 0x20 DUP3 ADD SWAP1 POP SWAP2 SWAP1 POP JUMP JUMPDEST PUSH0 PUSH1 0x20 DUP3 ADD SWAP1 POP DUP2 DUP2 SUB PUSH0 DUP4 ADD MSTORE PUSH2 0x2781 DUP2 PUSH2 0x2748 JUMP JUMPDEST SWAP1 POP SWAP2 SWAP1 POP JUMP JUMPDEST PUSH0 PUSH2 0x2792 DUP3 PUSH2 0x1AE6 JUMP JUMPDEST SWAP2 POP PUSH0 DUP3 SUB PUSH2 0x27A4 JUMPI PUSH2 0x27A3 PUSH2 0x21A5 JUMP JUMPDEST JUMPDEST PUSH1 0x1 DUP3 SUB SWAP1 POP SWAP2 SWAP1 POP JUMP JUMPDEST PUSH0 PUSH2 0x27B9 DUP3 PUSH2 0x1AE6 JUMP JUMPDEST SWAP2 POP PUSH2 0x27C4 DUP4 PUSH2 0x1AE6 JUMP JUMPDEST SWAP3 POP DUP3 DUP3 ADD SWAP1 POP DUP1 DUP3 GT ISZERO PUSH2 0x27DC JUMPI PUSH2 0x27DB PUSH2 0x21A5 JUMP JUMPDEST JUMPDEST SWAP3 SWAP2 POP POP JUMP JUMPDEST PUSH0 DUP2 PUSH1 0x60 SHL SWAP1 POP SWAP2 SWAP1 POP JUMP JUMPDEST PUSH0 PUSH2 0x27F8 DUP3 PUSH2 0x27E2 JUMP JUMPDEST SWAP1 POP SWAP2 SWAP1 POP JUMP JUMPDEST PUSH0 PUSH2 0x2809 DUP3 PUSH2 0x27EE JUMP JUMPDEST SWAP1 POP SWAP2 SWAP1 POP JUMP JUMPDEST PUSH2 0x2821 PUSH2 0x281C DUP3 PUSH2 0x1C6B JUMP JUMPDEST PUSH2 0x27FF JUMP JUMPDEST DUP3 MSTORE POP POP JUMP JUMPDEST PUSH0 PUSH2 0x2832 DUP3 DUP6 PUSH2 0x2810 JUMP JUMPDEST PUSH1 0x14 DUP3 ADD SWAP2 POP PUSH2 0x2842 DUP3 DUP5 PUSH2 0x2810 JUMP JUMPDEST PUSH1 0x14 DUP3 ADD SWAP2 POP DUP2 SWAP1 POP SWAP4 SWAP3 POP POP POP JUMP JUMPDEST PUSH0 DUP2 SWAP1 POP SWAP3 SWAP2 POP POP JUMP JUMPDEST PUSH32 0xFF00000000000000000000000000000000000000000000000000000000000000 PUSH0 DUP3 ADD MSTORE POP JUMP JUMPDEST PUSH0 PUSH2 0x2890 PUSH1 0x1 DUP4 PUSH2 0x2852 JUMP JUMPDEST SWAP2 POP PUSH2 0x289B DUP3 PUSH2 0x285C JUMP JUMPDEST PUSH1 0x1 DUP3 ADD SWAP1 POP SWAP2 SWAP1 POP JUMP JUMPDEST PUSH0 DUP2 SWAP1 POP SWAP2 SWAP1 POP JUMP JUMPDEST PUSH0 DUP2 SWAP1 POP SWAP2 SWAP1 POP JUMP JUMPDEST PUSH2 0x28C9 PUSH2 0x28C4 DUP3 PUSH2 0x28A6 JUMP JUMPDEST PUSH2 0x28AF JUMP JUMPDEST DUP3 MSTORE POP POP JUMP JUMPDEST PUSH32 0x96E8AC4277198FF8B6F785478AA9A39F403CB768DD02CBEE326C3E7DA348845F PUSH0 DUP3 ADD MSTORE POP JUMP JUMPDEST PUSH0 PUSH2 0x2903 PUSH1 0x20 DUP4 PUSH2 0x2852 JUMP JUMPDEST SWAP2 POP PUSH2 0x290E DUP3 PUSH2 0x28CF JUMP JUMPDEST PUSH1 0x20 DUP3 ADD SWAP1 POP SWAP2 SWAP1 POP JUMP JUMPDEST PUSH0 PUSH2 0x2923 DUP3 PUSH2 0x2884 JUMP JUMPDEST SWAP2 POP PUSH2 0x292F DUP3 DUP6 PUSH2 0x2810 JUMP JUMPDEST PUSH1 0x14 DUP3 ADD SWAP2 POP PUSH2 0x293F DUP3 DUP5 PUSH2 0x28B8 JUMP JUMPDEST PUSH1 0x20 DUP3 ADD SWAP2 POP PUSH2 0x294E DUP3 PUSH2 0x28F7 JUMP JUMPDEST SWAP2 POP DUP2 SWAP1 POP SWAP4 SWAP3 POP POP POP JUMP JUMPDEST PUSH0 DUP2 MLOAD SWAP1 POP SWAP2 SWAP1 POP JUMP JUMPDEST PUSH0 DUP2 SWAP1 POP SWAP3 SWAP2 POP POP JUMP JUMPDEST PUSH0 JUMPDEST DUP4 DUP2 LT ISZERO PUSH2 0x298B JUMPI DUP1 DUP3 ADD MLOAD DUP2 DUP5 ADD MSTORE PUSH1 0x20 DUP2 ADD SWAP1 POP PUSH2 0x2970 JUMP JUMPDEST PUSH0 DUP5 DUP5 ADD MSTORE POP POP POP POP JUMP JUMPDEST PUSH0 PUSH2 0x29A0 DUP3 PUSH2 0x295A JUMP JUMPDEST PUSH2 0x29AA DUP2 DUP6 PUSH2 0x2964 JUMP JUMPDEST SWAP4 POP PUSH2 0x29BA DUP2 DUP6 PUSH1 0x20 DUP7 ADD PUSH2 0x296E JUMP JUMPDEST DUP1 DUP5 ADD SWAP2 POP POP SWAP3 SWAP2 POP POP JUMP JUMPDEST PUSH0 PUSH2 0x29D1 DUP3 DUP5 PUSH2 0x2996 JUMP JUMPDEST SWAP2 POP DUP2 SWAP1 POP SWAP3 SWAP2 POP POP JUMP JUMPDEST PUSH32 0x5472616E7366657248656C7065723A3A7472616E7366657246726F6D3A207472 PUSH0 DUP3 ADD MSTORE PUSH32 0x616E7366657246726F6D206661696C6564000000000000000000000000000000 PUSH1 0x20 DUP3 ADD MSTORE POP JUMP JUMPDEST PUSH0 PUSH2 0x2A36 PUSH1 0x31 DUP4 PUSH2 0x212D JUMP JUMPDEST SWAP2 POP PUSH2 0x2A41 DUP3 PUSH2 0x29DC JUMP JUMPDEST PUSH1 0x40 DUP3 ADD SWAP1 POP SWAP2 SWAP1 POP JUMP JUMPDEST PUSH0 PUSH1 0x20 DUP3 ADD SWAP1 POP DUP2 DUP2 SUB PUSH0 DUP4 ADD MSTORE PUSH2 0x2A63 DUP2 PUSH2 0x2A2A JUMP JUMPDEST SWAP1 POP SWAP2 SWAP1 POP JUMP JUMPDEST PUSH0 DUP3 DUP3 MSTORE PUSH1 0x20 DUP3 ADD SWAP1 POP SWAP3 SWAP2 POP POP JUMP JUMPDEST PUSH0 PUSH2 0x2A84 DUP3 PUSH2 0x295A JUMP JUMPDEST PUSH2 0x2A8E DUP2 DUP6 PUSH2 0x2A6A JUMP JUMPDEST SWAP4 POP PUSH2 0x2A9E DUP2 DUP6 PUSH1 0x20 DUP7 ADD PUSH2 0x296E JUMP JUMPDEST PUSH2 0x2AA7 DUP2 PUSH2 0x1B95 JUMP JUMPDEST DUP5 ADD SWAP2 POP POP SWAP3 SWAP2 POP POP JUMP JUMPDEST PUSH0 PUSH1 0x80 DUP3 ADD SWAP1 POP PUSH2 0x2AC5 PUSH0 DUP4 ADD DUP8 PUSH2 0x1B69 JUMP JUMPDEST PUSH2 0x2AD2 PUSH1 0x20 DUP4 ADD DUP7 PUSH2 0x1B69 JUMP JUMPDEST PUSH2 0x2ADF PUSH1 0x40 DUP4 ADD DUP6 PUSH2 0x201F JUMP JUMPDEST DUP2 DUP2 SUB PUSH1 0x60 DUP4 ADD MSTORE PUSH2 0x2AF1 DUP2 DUP5 PUSH2 0x2A7A JUMP JUMPDEST SWAP1 POP SWAP6 SWAP5 POP POP POP POP POP JUMP JUMPDEST PUSH32 0x556E697377617056324C6962726172793A20494E53554646494349454E545F4F PUSH0 DUP3 ADD MSTORE PUSH32 0x55545055545F414D4F554E540000000000000000000000000000000000000000 PUSH1 0x20 DUP3 ADD MSTORE POP JUMP JUMPDEST PUSH0 PUSH2 0x2B56 PUSH1 0x2C DUP4 PUSH2 0x212D JUMP JUMPDEST SWAP2 POP PUSH2 0x2B61 DUP3 PUSH2 0x2AFC JUMP JUMPDEST PUSH1 0x40 DUP3 ADD SWAP1 POP SWAP2 SWAP1 POP JUMP JUMPDEST PUSH0 PUSH1 0x20 DUP3 ADD SWAP1 POP DUP2 DUP2 SUB PUSH0 DUP4 ADD MSTORE PUSH2 0x2B83 DUP2 PUSH2 0x2B4A JUMP JUMPDEST SWAP1 POP SWAP2 SWAP1 POP JUMP JUMPDEST PUSH32 0x556E697377617056324C6962726172793A20494E53554646494349454E545F41 PUSH0 DUP3 ADD MSTORE PUSH32 0x4D4F554E54000000000000000000000000000000000000000000000000000000 PUSH1 0x20 DUP3 ADD MSTORE POP JUMP JUMPDEST PUSH0 PUSH2 0x2BE4 PUSH1 0x25 DUP4 PUSH2 0x212D JUMP JUMPDEST SWAP2 POP PUSH2 0x2BEF DUP3 PUSH2 0x2B8A JUMP JUMPDEST PUSH1 0x40 DUP3 ADD SWAP1 POP SWAP2 SWAP1 POP JUMP JUMPDEST PUSH0 PUSH1 0x20 DUP3 ADD SWAP1 POP DUP2 DUP2 SUB PUSH0 DUP4 ADD MSTORE PUSH2 0x2C11 DUP2 PUSH2 0x2BD8 JUMP JUMPDEST SWAP1 POP SWAP2 SWAP1 POP JUMP JUMPDEST PUSH32 0x556E697377617056324C6962726172793A204944454E544943414C5F41444452 PUSH0 DUP3 ADD MSTORE PUSH32 0x4553534553000000000000000000000000000000000000000000000000000000 PUSH1 0x20 DUP3 ADD MSTORE POP JUMP JUMPDEST PUSH0 PUSH2 0x2C72 PUSH1 0x25 DUP4 PUSH2 0x212D JUMP JUMPDEST SWAP2 POP PUSH2 0x2C7D DUP3 PUSH2 0x2C18 JUMP JUMPDEST PUSH1 0x40 DUP3 ADD SWAP1 POP SWAP2 SWAP1 POP JUMP JUMPDEST PUSH0 PUSH1 0x20 DUP3 ADD SWAP1 POP DUP2 DUP2 SUB PUSH0 DUP4 ADD MSTORE PUSH2 0x2C9F DUP2 PUSH2 0x2C66 JUMP JUMPDEST SWAP1 POP SWAP2 SWAP1 POP JUMP JUMPDEST PUSH32 0x556E697377617056324C6962726172793A205A45524F5F414444524553530000 PUSH0 DUP3 ADD MSTORE POP JUMP JUMPDEST PUSH0 PUSH2 0x2CDA PUSH1 0x1E DUP4 PUSH2 0x212D JUMP JUMPDEST SWAP2 POP PUSH2 0x2CE5 DUP3 PUSH2 0x2CA6 JUMP JUMPDEST PUSH1 0x20 DUP3 ADD SWAP1 POP SWAP2 SWAP1 POP JUMP JUMPDEST PUSH0 PUSH1 0x20 DUP3 ADD SWAP1 POP DUP2 DUP2 SUB PUSH0 DUP4 ADD MSTORE PUSH2 0x2D07 DUP2 PUSH2 0x2CCE JUMP JUMPDEST SWAP1 POP SWAP2 SWAP1 POP JUMP JUMPDEST PUSH0 PUSH1 0x40 DUP3 ADD SWAP1 POP PUSH2 0x2D21 PUSH0 DUP4 ADD DUP6 PUSH2 0x201F JUMP JUMPDEST PUSH2 0x2D2E PUSH1 0x20 DUP4 ADD DUP5 PUSH2 0x201F JUMP JUMPDEST SWAP4 SWAP3 POP POP POP JUMP JUMPDEST PUSH0 DUP2 MLOAD SWAP1 POP PUSH2 0x2D43 DUP2 PUSH2 0x1C7C JUMP JUMPDEST SWAP3 SWAP2 POP POP JUMP JUMPDEST PUSH0 PUSH1 0x20 DUP3 DUP5 SUB SLT ISZERO PUSH2 0x2D5E JUMPI PUSH2 0x2D5D PUSH2 0x1ADE JUMP JUMPDEST JUMPDEST PUSH0 PUSH2 0x2D6B DUP5 DUP3 DUP6 ADD PUSH2 0x2D35 JUMP JUMPDEST SWAP2 POP POP SWAP3 SWAP2 POP POP JUMP JUMPDEST PUSH32 0x4E487B7100000000000000000000000000000000000000000000000000000000 PUSH0 MSTORE PUSH1 0x1 PUSH1 0x4 MSTORE PUSH1 0x24 PUSH0 REVERT JUMPDEST PUSH0 PUSH2 0x2DAB DUP3 PUSH2 0x1AE6 JUMP JUMPDEST SWAP2 POP PUSH2 0x2DB6 DUP4 PUSH2 0x1AE6 JUMP JUMPDEST SWAP3 POP DUP3 DUP3 MUL PUSH2 0x2DC4 DUP2 PUSH2 0x1AE6 JUMP JUMPDEST SWAP2 POP DUP3 DUP3 DIV DUP5 EQ DUP4 ISZERO OR PUSH2 0x2DDB JUMPI PUSH2 0x2DDA PUSH2 0x21A5 JUMP JUMPDEST JUMPDEST POP SWAP3 SWAP2 POP POP JUMP JUMPDEST PUSH32 0x64732D6D6174682D6D756C2D6F766572666C6F77000000000000000000000000 PUSH0 DUP3 ADD MSTORE POP JUMP JUMPDEST PUSH0 PUSH2 0x2E16 PUSH1 0x14 DUP4 PUSH2 0x212D JUMP JUMPDEST SWAP2 POP PUSH2 0x2E21 DUP3 PUSH2 0x2DE2 JUMP JUMPDEST PUSH1 0x20 DUP3 ADD SWAP1 POP SWAP2 SWAP1 POP JUMP JUMPDEST PUSH0 PUSH1 0x20 DUP3 ADD SWAP1 POP DUP2 DUP2 SUB PUSH0 DUP4 ADD MSTORE PUSH2 0x2E43 DUP2 PUSH2 0x2E0A JUMP JUMPDEST SWAP1 POP SWAP2 SWAP1 POP JUMP JUMPDEST PUSH32 0x64732D6D6174682D6164642D6F766572666C6F77000000000000000000000000 PUSH0 DUP3 ADD MSTORE POP JUMP JUMPDEST PUSH0 PUSH2 0x2E7E PUSH1 0x14 DUP4 PUSH2 0x212D JUMP JUMPDEST SWAP2 POP PUSH2 0x2E89 DUP3 PUSH2 0x2E4A JUMP JUMPDEST PUSH1 0x20 DUP3 ADD SWAP1 POP SWAP2 SWAP1 POP JUMP JUMPDEST PUSH0 PUSH1 0x20 DUP3 ADD SWAP1 POP DUP2 DUP2 SUB PUSH0 DUP4 ADD MSTORE PUSH2 0x2EAB DUP2 PUSH2 0x2E72 JUMP JUMPDEST SWAP1 POP SWAP2 SWAP1 POP JUMP JUMPDEST PUSH0 PUSH14 0xFFFFFFFFFFFFFFFFFFFFFFFFFFFF DUP3 AND SWAP1 POP SWAP2 SWAP1 POP JUMP JUMPDEST PUSH2 0x2ED4 DUP2 PUSH2 0x2EB2 JUMP JUMPDEST DUP2 EQ PUSH2 0x2EDE JUMPI PUSH0 DUP1 REVERT JUMPDEST POP JUMP JUMPDEST PUSH0 DUP2 MLOAD SWAP1 POP PUSH2 0x2EEF DUP2 PUSH2 0x2ECB JUMP JUMPDEST SWAP3 SWAP2 POP POP JUMP JUMPDEST PUSH0 DUP1 PUSH1 0x40 DUP4 DUP6 SUB SLT ISZERO PUSH2 0x2F0B JUMPI PUSH2 0x2F0A PUSH2 0x1ADE JUMP JUMPDEST JUMPDEST PUSH0 PUSH2 0x2F18 DUP6 DUP3 DUP7 ADD PUSH2 0x2EE1 JUMP JUMPDEST SWAP3 POP POP PUSH1 0x20 PUSH2 0x2F29 DUP6 DUP3 DUP7 ADD PUSH2 0x2EE1 JUMP JUMPDEST SWAP2 POP POP SWAP3 POP SWAP3 SWAP1 POP JUMP JUMPDEST PUSH32 0x64732D6D6174682D7375622D756E646572666C6F770000000000000000000000 PUSH0 DUP3 ADD MSTORE POP JUMP JUMPDEST PUSH0 PUSH2 0x2F67 PUSH1 0x15 DUP4 PUSH2 0x212D JUMP JUMPDEST SWAP2 POP PUSH2 0x2F72 DUP3 PUSH2 0x2F33 JUMP JUMPDEST PUSH1 0x20 DUP3 ADD SWAP1 POP SWAP2 SWAP1 POP JUMP JUMPDEST PUSH0 PUSH1 0x20 DUP3 ADD SWAP1 POP DUP2 DUP2 SUB PUSH0 DUP4 ADD MSTORE PUSH2 0x2F94 DUP2 PUSH2 0x2F5B JUMP JUMPDEST SWAP1 POP SWAP2 SWAP1 POP JUMP INVALID LOG2 PUSH5 0x6970667358 0x22 SLT KECCAK256 CREATE PUSH26 0xF72BD2336FDDF81B657E0B932D3AA7915C4D1371055BAD01BB6 0xD 0xF8 PUSH17 0x3F64736F6C634300081600330000000000 "
		},
		"gasEstimates": {
			"creation": {
				"codeDepositCost": "2448200",
				"executionCost": "infinite",
				"totalCost": "infinite"
			},
			"external": {
				"addLiquidity(address,address,uint256,uint256,uint256,uint256,address,uint256)": "infinite",
				"factory()": "infinite",
				"getAmountIn(uint256,uint256,uint256)": "infinite",
				"getAmountOut(uint256,uint256,uint256)": "infinite",
				"getAmountsIn(uint256,address[])": "infinite",
				"getAmountsOut(uint256,address[])": "infinite",
				"quote(uint256,uint256,uint256)": "infinite",
				"removeLiquidity(address,address,uint256,uint256,uint256,address,uint256)": "infinite",
				"swapExactTokensForTokens(uint256,uint256,address[],address,uint256)": "infinite",
				"swapTokensForExactTokens(uint256,uint256,address[],address,uint256)": "infinite"
			},
			"internal": {
				"_addLiquidity(address,address,uint256,uint256,uint256,uint256)": "infinite",
				"_swap(uint256[] memory,address[] memory,address)": "infinite"
			}
		},
		"methodIdentifiers": {
			"addLiquidity(address,address,uint256,uint256,uint256,uint256,address,uint256)": "e8e33700",
			"factory()": "c45a0155",
			"getAmountIn(uint256,uint256,uint256)": "85f8c259",
			"getAmountOut(uint256,uint256,uint256)": "054d50d4",
			"getAmountsIn(uint256,address[])": "1f00ca74",
			"getAmountsOut(uint256,address[])": "d06ca61f",
			"quote(uint256,uint256,uint256)": "ad615dec",
			"removeLiquidity(address,address,uint256,uint256,uint256,address,uint256)": "baa2abde",
			"swapExactTokensForTokens(uint256,uint256,address[],address,uint256)": "38ed1739",
			"swapTokensForExactTokens(uint256,uint256,address[],address,uint256)": "8803dbee"
		}
	},
	"abi": [
		{
			"inputs": [
				{
					"internalType": "address",
					"name": "_factory",
					"type": "address"
				}
			],
			"stateMutability": "nonpayable",
			"type": "constructor"
		},
		{
			"inputs": [
				{
					"internalType": "address",
					"name": "tokenA",
					"type": "address"
				},
				{
					"internalType": "address",
					"name": "tokenB",
					"type": "address"
				},
				{
					"internalType": "uint256",
					"name": "amountADesired",
					"type": "uint256"
				},
				{
					"internalType": "uint256",
					"name": "amountBDesired",
					"type": "uint256"
				},
				{
					"internalType": "uint256",
					"name": "amountAMin",
					"type": "uint256"
				},
				{
					"internalType": "uint256",
					"name": "amountBMin",
					"type": "uint256"
				},
				{
					"internalType": "address",
					"name": "to",
					"type": "address"
				},
				{
					"internalType": "uint256",
					"name": "deadline",
					"type": "uint256"
				}
			],
			"name": "addLiquidity",
			"outputs": [
				{
					"internalType": "uint256",
					"name": "amountA",
					"type": "uint256"
				},
				{
					"internalType": "uint256",
					"name": "amountB",
					"type": "uint256"
				},
				{
					"internalType": "uint256",
					"name": "liquidity",
					"type": "uint256"
				}
			],
			"stateMutability": "nonpayable",
			"type": "function"
		},
		{
			"inputs": [],
			"name": "factory",
			"outputs": [
				{
					"internalType": "address",
					"name": "",
					"type": "address"
				}
			],
			"stateMutability": "view",
			"type": "function"
		},
		{
			"inputs": [
				{
					"internalType": "uint256",
					"name": "amountOut",
					"type": "uint256"
				},
				{
					"internalType": "uint256",
					"name": "reserveIn",
					"type": "uint256"
				},
				{
					"internalType": "uint256",
					"name": "reserveOut",
					"type": "uint256"
				}
			],
			"name": "getAmountIn",
			"outputs": [
				{
					"internalType": "uint256",
					"name": "amountIn",
					"type": "uint256"
				}
			],
			"stateMutability": "pure",
			"type": "function"
		},
		{
			"inputs": [
				{
					"internalType": "uint256",
					"name": "amountIn",
					"type": "uint256"
				},
				{
					"internalType": "uint256",
					"name": "reserveIn",
					"type": "uint256"
				},
				{
					"internalType": "uint256",
					"name": "reserveOut",
					"type": "uint256"
				}
			],
			"name": "getAmountOut",
			"outputs": [
				{
					"internalType": "uint256",
					"name": "amountOut",
					"type": "uint256"
				}
			],
			"stateMutability": "pure",
			"type": "function"
		},
		{
			"inputs": [
				{
					"internalType": "uint256",
					"name": "amountOut",
					"type": "uint256"
				},
				{
					"internalType": "address[]",
					"name": "path",
					"type": "address[]"
				}
			],
			"name": "getAmountsIn",
			"outputs": [
				{
					"internalType": "uint256[]",
					"name": "amounts",
					"type": "uint256[]"
				}
			],
			"stateMutability": "view",
			"type": "function"
		},
		{
			"inputs": [
				{
					"internalType": "uint256",
					"name": "amountIn",
					"type": "uint256"
				},
				{
					"internalType": "address[]",
					"name": "path",
					"type": "address[]"
				}
			],
			"name": "getAmountsOut",
			"outputs": [
				{
					"internalType": "uint256[]",
					"name": "amounts",
					"type": "uint256[]"
				}
			],
			"stateMutability": "view",
			"type": "function"
		},
		{
			"inputs": [
				{
					"internalType": "uint256",
					"name": "amountA",
					"type": "uint256"
				},
				{
					"internalType": "uint256",
					"name": "reserveA",
					"type": "uint256"
				},
				{
					"internalType": "uint256",
					"name": "reserveB",
					"type": "uint256"
				}
			],
			"name": "quote",
			"outputs": [
				{
					"internalType": "uint256",
					"name": "amountB",
					"type": "uint256"
				}
			],
			"stateMutability": "pure",
			"type": "function"
		},
		{
			"inputs": [
				{
					"internalType": "address",
					"name": "tokenA",
					"type": "address"
				},
				{
					"internalType": "address",
					"name": "tokenB",
					"type": "address"
				},
				{
					"internalType": "uint256",
					"name": "liquidity",
					"type": "uint256"
				},
				{
					"internalType": "uint256",
					"name": "amountAMin",
					"type": "uint256"
				},
				{
					"internalType": "uint256",
					"name": "amountBMin",
					"type": "uint256"
				},
				{
					"internalType": "address",
					"name": "to",
					"type": "address"
				},
				{
					"internalType": "uint256",
					"name": "deadline",
					"type": "uint256"
				}
			],
			"name": "removeLiquidity",
			"outputs": [
				{
					"internalType": "uint256",
					"name": "amountA",
					"type": "uint256"
				},
				{
					"internalType": "uint256",
					"name": "amountB",
					"type": "uint256"
				}
			],
			"stateMutability": "nonpayable",
			"type": "function"
		},
		{
			"inputs": [
				{
					"internalType": "uint256",
					"name": "amountIn",
					"type": "uint256"
				},
				{
					"internalType": "uint256",
					"name": "amountOutMin",
					"type": "uint256"
				},
				{
					"internalType": "address[]",
					"name": "path",
					"type": "address[]"
				},
				{
					"internalType": "address",
					"name": "to",
					"type": "address"
				},
				{
					"internalType": "uint256",
					"name": "deadline",
					"type": "uint256"
				}
			],
			"name": "swapExactTokensForTokens",
			"outputs": [
				{
					"internalType": "uint256[]",
					"name": "amounts",
					"type": "uint256[]"
				}
			],
			"stateMutability": "nonpayable",
			"type": "function"
		},
		{
			"inputs": [
				{
					"internalType": "uint256",
					"name": "amountOut",
					"type": "uint256"
				},
				{
					"internalType": "uint256",
					"name": "amountInMax",
					"type": "uint256"
				},
				{
					"internalType": "address[]",
					"name": "path",
					"type": "address[]"
				},
				{
					"internalType": "address",
					"name": "to",
					"type": "address"
				},
				{
					"internalType": "uint256",
					"name": "deadline",
					"type": "uint256"
				}
			],
			"name": "swapTokensForExactTokens",
			"outputs": [
				{
					"internalType": "uint256[]",
					"name": "amounts",
					"type": "uint256[]"
				}
			],
			"stateMutability": "nonpayable",
			"type": "function"
		}
	]
}